{
  "address": "0x752cA40117180129410b5E3529AEdEB6Efa22e2b",
  "abi": [
    {
      "inputs": [
        {
          "internalType": "address",
          "name": "_gelatoPoker",
          "type": "address"
        },
        {
          "internalType": "uint256",
          "name": "_maxGasPrice",
          "type": "uint256"
        },
        {
          "internalType": "address",
          "name": "_resolver",
          "type": "address"
        }
      ],
      "stateMutability": "nonpayable",
      "type": "constructor"
    },
    {
      "inputs": [],
      "name": "TheGasIsTooDamnHigh",
      "type": "error"
    },
    {
      "inputs": [],
      "name": "Unauthorized",
      "type": "error"
    },
    {
      "anonymous": false,
      "inputs": [
        {
          "indexed": true,
          "internalType": "address",
          "name": "previousOwner",
          "type": "address"
        },
        {
          "indexed": true,
          "internalType": "address",
          "name": "newOwner",
          "type": "address"
        }
      ],
      "name": "OwnershipTransferred",
      "type": "event"
    },
    {
      "anonymous": false,
      "inputs": [
        {
          "indexed": false,
          "internalType": "uint256",
          "name": "newMaxGasPrice",
          "type": "uint256"
        }
      ],
      "name": "SetMaxGasPrice",
      "type": "event"
    },
    {
      "anonymous": false,
      "inputs": [
        {
          "indexed": false,
          "internalType": "address",
          "name": "newPoker",
          "type": "address"
        }
      ],
      "name": "SetPoker",
      "type": "event"
    },
    {
      "inputs": [],
      "name": "gelatoPoker",
      "outputs": [
        {
          "internalType": "address",
          "name": "",
          "type": "address"
        }
      ],
      "stateMutability": "view",
      "type": "function"
    },
    {
      "inputs": [
        {
          "internalType": "address",
          "name": "alchemist",
          "type": "address"
        },
        {
          "internalType": "address",
          "name": "yieldToken",
          "type": "address"
        },
        {
          "internalType": "uint256",
          "name": "minimumAmountOut",
          "type": "uint256"
        }
      ],
      "name": "harvest",
      "outputs": [],
      "stateMutability": "nonpayable",
      "type": "function"
    },
    {
      "inputs": [],
      "name": "maxGasPrice",
      "outputs": [
        {
          "internalType": "uint256",
          "name": "",
          "type": "uint256"
        }
      ],
      "stateMutability": "view",
      "type": "function"
    },
    {
      "inputs": [],
      "name": "owner",
      "outputs": [
        {
          "internalType": "address",
          "name": "",
          "type": "address"
        }
      ],
      "stateMutability": "view",
      "type": "function"
    },
    {
      "inputs": [],
      "name": "renounceOwnership",
      "outputs": [],
      "stateMutability": "nonpayable",
      "type": "function"
    },
    {
      "inputs": [],
      "name": "resolver",
      "outputs": [
        {
          "internalType": "address",
          "name": "",
          "type": "address"
        }
      ],
      "stateMutability": "view",
      "type": "function"
    },
    {
      "inputs": [],
      "name": "rewardRouter",
      "outputs": [
        {
          "internalType": "address",
          "name": "",
          "type": "address"
        }
      ],
      "stateMutability": "view",
      "type": "function"
    },
    {
      "inputs": [
        {
          "internalType": "uint256",
          "name": "newGasPrice",
          "type": "uint256"
        }
      ],
      "name": "setMaxGasPrice",
      "outputs": [],
      "stateMutability": "nonpayable",
      "type": "function"
    },
    {
      "inputs": [
        {
          "internalType": "address",
          "name": "newPoker",
          "type": "address"
        }
      ],
      "name": "setPoker",
      "outputs": [],
      "stateMutability": "nonpayable",
      "type": "function"
    },
    {
      "inputs": [
        {
          "internalType": "address",
          "name": "_resolver",
          "type": "address"
        }
      ],
      "name": "setResolver",
      "outputs": [],
      "stateMutability": "nonpayable",
      "type": "function"
    },
    {
      "inputs": [
        {
          "internalType": "address",
          "name": "_rewardRouter",
          "type": "address"
        }
      ],
      "name": "setRewardRouter",
      "outputs": [],
      "stateMutability": "nonpayable",
      "type": "function"
    },
    {
      "inputs": [
        {
          "internalType": "address",
          "name": "newOwner",
          "type": "address"
        }
      ],
      "name": "transferOwnership",
      "outputs": [],
      "stateMutability": "nonpayable",
      "type": "function"
    }
  ],
  "transactionHash": "0xf3f49b1cfd6bc81faf001d8c832a6c6f64ebfce2d812fe2e38d5ad3d62c0354f",
  "args": [
    "0x886FF7a2d46dcc2276e2fD631957969441130847",
    125000000000,
    "0xda94B6536E9958d63229Dc9bE4fa654Ad52921dB"
  ],
  "solcInputHash": "860224fc914f98d483145ea959dd5faa",
  "bytecode": "0x608060405234801561001057600080fd5b5060405161085238038061085283398101604081905261002f916100e3565b828261003a33610077565b600180546001600160a01b039384166001600160a01b031991821617909155600291909155600380549390921692169190911790555061011f9050565b600080546001600160a01b038381166001600160a01b0319831681178455604051919092169283917f8be0079c531659141344cd1fd0a4f28419497f9722a3daafe3b4186f6b6457e09190a35050565b80516001600160a01b03811681146100de57600080fd5b919050565b6000806000606084860312156100f857600080fd5b610101846100c7565b925060208401519150610116604085016100c7565b90509250925092565b6107248061012e6000396000f3fe608060405234801561001057600080fd5b50600436106100b45760003560e01c80638da5cb5b116100715780638da5cb5b14610143578063977b91d714610154578063c2ceb95f14610167578063d2fa635e1461017a578063f2fde38b1461018d578063f4430dd8146101a057600080fd5b806304f3bcec146100b957806327332dc5146100e95780633de39c11146100fc5780634e543b26146101135780635a3bb98914610128578063715018a61461013b575b600080fd5b6003546100cc906001600160a01b031681565b6040516001600160a01b0390911681526020015b60405180910390f35b6001546100cc906001600160a01b031681565b61010560025481565b6040519081526020016100e0565b610126610121366004610604565b6101b3565b005b6004546100cc906001600160a01b031681565b6101266101dd565b6000546001600160a01b03166100cc565b610126610162366004610604565b6101f1565b610126610175366004610628565b61021b565b610126610188366004610669565b61042d565b61012661019b366004610604565b610471565b6101266101ae366004610604565b6104ef565b6101bb610545565b600380546001600160a01b0319166001600160a01b0392909216919091179055565b6101e5610545565b6101ef600061059f565b565b6101f9610545565b600480546001600160a01b0319166001600160a01b0392909216919091179055565b6001546001600160a01b03163314610245576040516282b42960e81b815260040160405180910390fd5b6002543a11156102685760405163181f2cbb60e31b815260040160405180910390fd5b60405163018ee9b760e01b81526001600160a01b0383811660048301526024820183905284169063018ee9b790604401600060405180830381600087803b1580156102b257600080fd5b505af11580156102c6573d6000803e3d6000fd5b505060048054604051636d0580b960e01b81526001600160a01b03878116938201939093526000945091169150636d0580b99060240160a060405180830381865afa158015610319573d6000803e3d6000fd5b505050506040513d601f19601f8201168201806040525081019061033d9190610682565b5092935050506001600160a01b0382161590506103c85760048054604051630ef4ecdb60e11b81526001600160a01b0386811693820193909352911690631de9d9b6906024016020604051808303816000875af11580156103a2573d6000803e3d6000fd5b505050506040513d601f19601f820116820180604052508101906103c691906106d5565b505b60035460405163af9d98a960e01b81526001600160a01b0385811660048301529091169063af9d98a990602401600060405180830381600087803b15801561040f57600080fd5b505af1158015610423573d6000803e3d6000fd5b5050505050505050565b610435610545565b60028190556040518181527f6b58e904da592e8cbf6969fb29df3469c5ee45b11f377cf9283dd31de72029d4906020015b60405180910390a150565b610479610545565b6001600160a01b0381166104e35760405162461bcd60e51b815260206004820152602660248201527f4f776e61626c653a206e6577206f776e657220697320746865207a65726f206160448201526564647265737360d01b60648201526084015b60405180910390fd5b6104ec8161059f565b50565b6104f7610545565b600180546001600160a01b0319166001600160a01b0383169081179091556040519081527fdc29c4929e83c41957dc5f6d13c5702f54fa9670f6e0b1b95ede8582e9dda14e90602001610466565b6000546001600160a01b031633146101ef5760405162461bcd60e51b815260206004820181905260248201527f4f776e61626c653a2063616c6c6572206973206e6f7420746865206f776e657260448201526064016104da565b600080546001600160a01b038381166001600160a01b0319831681178455604051919092169283917f8be0079c531659141344cd1fd0a4f28419497f9722a3daafe3b4186f6b6457e09190a35050565b6001600160a01b03811681146104ec57600080fd5b60006020828403121561061657600080fd5b8135610621816105ef565b9392505050565b60008060006060848603121561063d57600080fd5b8335610648816105ef565b92506020840135610658816105ef565b929592945050506040919091013590565b60006020828403121561067b57600080fd5b5035919050565b600080600080600060a0868803121561069a57600080fd5b85516106a5816105ef565b60208701519095506106b6816105ef565b6040870151606088015160809098015196999198509695945092505050565b6000602082840312156106e757600080fd5b505191905056fea26469706673582212204cf85855a3e2ae701771fadc8d49371313f1744610cfef6aa7de21e912fddbdd64736f6c634300080d0033",
  "devdoc": {
    "kind": "dev",
    "methods": {
      "harvest(address,address,uint256)": {
        "params": {
          "alchemist": "The address of the target alchemist.",
          "minimumAmountOut": "The minimum amount of tokens expected to be harvested.",
          "yieldToken": "The address of the target yield token."
        }
      },
      "owner()": {
        "details": "Returns the address of the current owner."
      },
      "renounceOwnership()": {
        "details": "Leaves the contract without owner. It will not be possible to call `onlyOwner` functions. Can only be called by the current owner. NOTE: Renouncing ownership will leave the contract without an owner, thereby disabling any functionality that is only available to the owner."
      },
      "setMaxGasPrice(uint256)": {
        "params": {
          "newGasPrice": "The new maximum gas price."
        }
      },
      "setPoker(address)": {
        "params": {
          "newPoker": "The new address of the gelato poker."
        }
      },
      "transferOwnership(address)": {
        "details": "Transfers ownership of the contract to a new account (`newOwner`). Can only be called by the current owner."
      }
    },
    "version": 1
  },
  "userdoc": {
    "errors": {
      "TheGasIsTooDamnHigh()": [
        {
          "notice": "Thrown when the gas price set on the tx is greater than the `maxGasPrice`."
        }
      ],
      "Unauthorized()": [
        {
          "notice": "Thrown when any address but the `gelatoPoker` attempts to call the upkeep function."
        }
      ]
    },
    "events": {
      "SetMaxGasPrice(uint256)": {
        "notice": "Emitted when the `maxGasPrice` is updated."
      },
      "SetPoker(address)": {
        "notice": "Emitted when the `gelatoPoker` address is updated."
      }
    },
    "kind": "user",
    "methods": {
      "gelatoPoker()": {
        "notice": "The address of the whitelisted gelato contract."
      },
      "harvest(address,address,uint256)": {
        "notice": "Runs a the specified harvest job and donates optimism rewards."
      },
      "maxGasPrice()": {
        "notice": "The maximum gas price to be spent on any call from the gelato poker."
      },
      "resolver()": {
        "notice": "The address of the resolver."
      },
      "rewardRouter()": {
        "notice": "The address of the Reward Router."
      },
      "setMaxGasPrice(uint256)": {
        "notice": "Sets the maximum gas price that can be used for an upkeep call."
      },
      "setPoker(address)": {
        "notice": "Sets the address of the whitelisted gelato poker contract."
      }
    },
    "version": 1
  },
  "storageLayout": {
    "storage": [
      {
        "astId": 34046,
        "contract": "submodules/v2-foundry/src/keepers/AlchemixHarvester.sol:AlchemixHarvester",
        "label": "_owner",
        "offset": 0,
        "slot": "0",
        "type": "t_address"
      },
      {
        "astId": 67359,
        "contract": "submodules/v2-foundry/src/keepers/AlchemixHarvester.sol:AlchemixHarvester",
        "label": "gelatoPoker",
        "offset": 0,
        "slot": "1",
        "type": "t_address"
      },
      {
        "astId": 67362,
        "contract": "submodules/v2-foundry/src/keepers/AlchemixHarvester.sol:AlchemixHarvester",
        "label": "maxGasPrice",
        "offset": 0,
        "slot": "2",
        "type": "t_uint256"
      },
      {
        "astId": 67430,
        "contract": "submodules/v2-foundry/src/keepers/AlchemixHarvester.sol:AlchemixHarvester",
        "label": "resolver",
        "offset": 0,
        "slot": "3",
        "type": "t_address"
      },
      {
        "astId": 67433,
        "contract": "submodules/v2-foundry/src/keepers/AlchemixHarvester.sol:AlchemixHarvester",
        "label": "rewardRouter",
        "offset": 0,
        "slot": "4",
        "type": "t_address"
      }
    ],
    "types": {
      "t_address": {
        "encoding": "inplace",
        "label": "address",
        "numberOfBytes": "20"
      },
      "t_uint256": {
        "encoding": "inplace",
        "label": "uint256",
        "numberOfBytes": "32"
      }
    }
  }
}