{
  "address": "0xde399d26ed46B7b509561f1B9B5Ad6cc1EBC7261",
  "abi": [
    {
      "inputs": [],
      "stateMutability": "nonpayable",
      "type": "constructor"
    },
    {
      "inputs": [
        {
          "internalType": "address",
          "name": "target",
          "type": "address"
        },
        {
          "internalType": "bool",
          "name": "success",
          "type": "bool"
        },
        {
          "internalType": "bytes",
          "name": "data",
          "type": "bytes"
        }
      ],
      "name": "ERC20CallFailed",
      "type": "error"
    },
    {
      "inputs": [
        {
          "internalType": "address",
          "name": "yieldToken",
          "type": "address"
        },
        {
          "internalType": "uint256",
          "name": "expectedValue",
          "type": "uint256"
        },
        {
          "internalType": "uint256",
          "name": "maximumExpectedValue",
          "type": "uint256"
        }
      ],
      "name": "ExpectedValueExceeded",
      "type": "error"
    },
    {
      "inputs": [],
      "name": "IllegalArgument",
      "type": "error"
    },
    {
      "inputs": [],
      "name": "IllegalState",
      "type": "error"
    },
    {
      "inputs": [
        {
          "internalType": "address",
          "name": "underlyingToken",
          "type": "address"
        },
        {
          "internalType": "uint256",
          "name": "amount",
          "type": "uint256"
        },
        {
          "internalType": "uint256",
          "name": "available",
          "type": "uint256"
        }
      ],
      "name": "LiquidationLimitExceeded",
      "type": "error"
    },
    {
      "inputs": [],
      "name": "LockAlreadyClaimed",
      "type": "error"
    },
    {
      "inputs": [
        {
          "internalType": "address",
          "name": "yieldToken",
          "type": "address"
        },
        {
          "internalType": "uint256",
          "name": "loss",
          "type": "uint256"
        },
        {
          "internalType": "uint256",
          "name": "maximumLoss",
          "type": "uint256"
        }
      ],
      "name": "LossExceeded",
      "type": "error"
    },
    {
      "inputs": [
        {
          "internalType": "uint256",
          "name": "amount",
          "type": "uint256"
        },
        {
          "internalType": "uint256",
          "name": "available",
          "type": "uint256"
        }
      ],
      "name": "MintingLimitExceeded",
      "type": "error"
    },
    {
      "inputs": [
        {
          "internalType": "bytes",
          "name": "data",
          "type": "bytes"
        },
        {
          "internalType": "bytes",
          "name": "result",
          "type": "bytes"
        }
      ],
      "name": "MulticallFailed",
      "type": "error"
    },
    {
      "inputs": [
        {
          "internalType": "address",
          "name": "underlyingToken",
          "type": "address"
        },
        {
          "internalType": "uint256",
          "name": "amount",
          "type": "uint256"
        },
        {
          "internalType": "uint256",
          "name": "available",
          "type": "uint256"
        }
      ],
      "name": "RepayLimitExceeded",
      "type": "error"
    },
    {
      "inputs": [
        {
          "internalType": "uint256",
          "name": "amount",
          "type": "uint256"
        },
        {
          "internalType": "uint256",
          "name": "minimumAmountOut",
          "type": "uint256"
        }
      ],
      "name": "SlippageExceeded",
      "type": "error"
    },
    {
      "inputs": [
        {
          "internalType": "address",
          "name": "token",
          "type": "address"
        }
      ],
      "name": "TokenDisabled",
      "type": "error"
    },
    {
      "inputs": [],
      "name": "Unauthorized",
      "type": "error"
    },
    {
      "inputs": [],
      "name": "Undercollateralized",
      "type": "error"
    },
    {
      "inputs": [
        {
          "internalType": "address",
          "name": "token",
          "type": "address"
        }
      ],
      "name": "UnsupportedToken",
      "type": "error"
    },
    {
      "anonymous": false,
      "inputs": [
        {
          "indexed": true,
          "internalType": "address",
          "name": "underlyingToken",
          "type": "address"
        }
      ],
      "name": "AddUnderlyingToken",
      "type": "event"
    },
    {
      "anonymous": false,
      "inputs": [
        {
          "indexed": true,
          "internalType": "address",
          "name": "yieldToken",
          "type": "address"
        }
      ],
      "name": "AddYieldToken",
      "type": "event"
    },
    {
      "anonymous": false,
      "inputs": [
        {
          "indexed": false,
          "internalType": "address",
          "name": "admin",
          "type": "address"
        }
      ],
      "name": "AdminUpdated",
      "type": "event"
    },
    {
      "anonymous": false,
      "inputs": [
        {
          "indexed": true,
          "internalType": "address",
          "name": "owner",
          "type": "address"
        },
        {
          "indexed": true,
          "internalType": "address",
          "name": "spender",
          "type": "address"
        },
        {
          "indexed": false,
          "internalType": "uint256",
          "name": "amount",
          "type": "uint256"
        }
      ],
      "name": "ApproveMint",
      "type": "event"
    },
    {
      "anonymous": false,
      "inputs": [
        {
          "indexed": true,
          "internalType": "address",
          "name": "owner",
          "type": "address"
        },
        {
          "indexed": true,
          "internalType": "address",
          "name": "spender",
          "type": "address"
        },
        {
          "indexed": true,
          "internalType": "address",
          "name": "yieldToken",
          "type": "address"
        },
        {
          "indexed": false,
          "internalType": "uint256",
          "name": "amount",
          "type": "uint256"
        }
      ],
      "name": "ApproveWithdraw",
      "type": "event"
    },
    {
      "anonymous": false,
      "inputs": [
        {
          "indexed": true,
          "internalType": "address",
          "name": "sender",
          "type": "address"
        },
        {
          "indexed": false,
          "internalType": "uint256",
          "name": "amount",
          "type": "uint256"
        },
        {
          "indexed": false,
          "internalType": "address",
          "name": "recipient",
          "type": "address"
        }
      ],
      "name": "Burn",
      "type": "event"
    },
    {
      "anonymous": false,
      "inputs": [
        {
          "indexed": false,
          "internalType": "address",
          "name": "yieldToken",
          "type": "address"
        },
        {
          "indexed": false,
          "internalType": "uint256",
          "name": "blocks",
          "type": "uint256"
        }
      ],
      "name": "CreditUnlockRateUpdated",
      "type": "event"
    },
    {
      "anonymous": false,
      "inputs": [
        {
          "indexed": true,
          "internalType": "address",
          "name": "sender",
          "type": "address"
        },
        {
          "indexed": true,
          "internalType": "address",
          "name": "yieldToken",
          "type": "address"
        },
        {
          "indexed": false,
          "internalType": "uint256",
          "name": "amount",
          "type": "uint256"
        },
        {
          "indexed": false,
          "internalType": "address",
          "name": "recipient",
          "type": "address"
        }
      ],
      "name": "Deposit",
      "type": "event"
    },
    {
      "anonymous": false,
      "inputs": [
        {
          "indexed": true,
          "internalType": "address",
          "name": "sender",
          "type": "address"
        },
        {
          "indexed": true,
          "internalType": "address",
          "name": "yieldToken",
          "type": "address"
        },
        {
          "indexed": false,
          "internalType": "uint256",
          "name": "amount",
          "type": "uint256"
        }
      ],
      "name": "Donate",
      "type": "event"
    },
    {
      "anonymous": false,
      "inputs": [
        {
          "indexed": true,
          "internalType": "address",
          "name": "yieldToken",
          "type": "address"
        },
        {
          "indexed": false,
          "internalType": "uint256",
          "name": "minimumAmountOut",
          "type": "uint256"
        },
        {
          "indexed": false,
          "internalType": "uint256",
          "name": "totalHarvested",
          "type": "uint256"
        },
        {
          "indexed": false,
          "internalType": "uint256",
          "name": "credit",
          "type": "uint256"
        }
      ],
      "name": "Harvest",
      "type": "event"
    },
    {
      "anonymous": false,
      "inputs": [
        {
          "indexed": false,
          "internalType": "uint8",
          "name": "version",
          "type": "uint8"
        }
      ],
      "name": "Initialized",
      "type": "event"
    },
    {
      "anonymous": false,
      "inputs": [
        {
          "indexed": false,
          "internalType": "address",
          "name": "sentinel",
          "type": "address"
        },
        {
          "indexed": false,
          "internalType": "bool",
          "name": "flag",
          "type": "bool"
        }
      ],
      "name": "KeeperSet",
      "type": "event"
    },
    {
      "anonymous": false,
      "inputs": [
        {
          "indexed": true,
          "internalType": "address",
          "name": "owner",
          "type": "address"
        },
        {
          "indexed": true,
          "internalType": "address",
          "name": "yieldToken",
          "type": "address"
        },
        {
          "indexed": true,
          "internalType": "address",
          "name": "underlyingToken",
          "type": "address"
        },
        {
          "indexed": false,
          "internalType": "uint256",
          "name": "shares",
          "type": "uint256"
        },
        {
          "indexed": false,
          "internalType": "uint256",
          "name": "credit",
          "type": "uint256"
        }
      ],
      "name": "Liquidate",
      "type": "event"
    },
    {
      "anonymous": false,
      "inputs": [
        {
          "indexed": true,
          "internalType": "address",
          "name": "underlyingToken",
          "type": "address"
        },
        {
          "indexed": false,
          "internalType": "uint256",
          "name": "maximum",
          "type": "uint256"
        },
        {
          "indexed": false,
          "internalType": "uint256",
          "name": "blocks",
          "type": "uint256"
        }
      ],
      "name": "LiquidationLimitUpdated",
      "type": "event"
    },
    {
      "anonymous": false,
      "inputs": [
        {
          "indexed": true,
          "internalType": "address",
          "name": "yieldToken",
          "type": "address"
        },
        {
          "indexed": false,
          "internalType": "uint256",
          "name": "maximumExpectedValue",
          "type": "uint256"
        }
      ],
      "name": "MaximumExpectedValueUpdated",
      "type": "event"
    },
    {
      "anonymous": false,
      "inputs": [
        {
          "indexed": true,
          "internalType": "address",
          "name": "yieldToken",
          "type": "address"
        },
        {
          "indexed": false,
          "internalType": "uint256",
          "name": "maximumLoss",
          "type": "uint256"
        }
      ],
      "name": "MaximumLossUpdated",
      "type": "event"
    },
    {
      "anonymous": false,
      "inputs": [
        {
          "indexed": false,
          "internalType": "uint256",
          "name": "minimumCollateralization",
          "type": "uint256"
        }
      ],
      "name": "MinimumCollateralizationUpdated",
      "type": "event"
    },
    {
      "anonymous": false,
      "inputs": [
        {
          "indexed": true,
          "internalType": "address",
          "name": "owner",
          "type": "address"
        },
        {
          "indexed": false,
          "internalType": "uint256",
          "name": "amount",
          "type": "uint256"
        },
        {
          "indexed": false,
          "internalType": "address",
          "name": "recipient",
          "type": "address"
        }
      ],
      "name": "Mint",
      "type": "event"
    },
    {
      "anonymous": false,
      "inputs": [
        {
          "indexed": false,
          "internalType": "uint256",
          "name": "maximum",
          "type": "uint256"
        },
        {
          "indexed": false,
          "internalType": "uint256",
          "name": "blocks",
          "type": "uint256"
        }
      ],
      "name": "MintingLimitUpdated",
      "type": "event"
    },
    {
      "anonymous": false,
      "inputs": [
        {
          "indexed": false,
          "internalType": "address",
          "name": "pendingAdmin",
          "type": "address"
        }
      ],
      "name": "PendingAdminUpdated",
      "type": "event"
    },
    {
      "anonymous": false,
      "inputs": [
        {
          "indexed": false,
          "internalType": "address",
          "name": "protocolFeeReceiver",
          "type": "address"
        }
      ],
      "name": "ProtocolFeeReceiverUpdated",
      "type": "event"
    },
    {
      "anonymous": false,
      "inputs": [
        {
          "indexed": false,
          "internalType": "uint256",
          "name": "protocolFee",
          "type": "uint256"
        }
      ],
      "name": "ProtocolFeeUpdated",
      "type": "event"
    },
    {
      "anonymous": false,
      "inputs": [
        {
          "indexed": true,
          "internalType": "address",
          "name": "sender",
          "type": "address"
        },
        {
          "indexed": true,
          "internalType": "address",
          "name": "underlyingToken",
          "type": "address"
        },
        {
          "indexed": false,
          "internalType": "uint256",
          "name": "amount",
          "type": "uint256"
        },
        {
          "indexed": false,
          "internalType": "address",
          "name": "recipient",
          "type": "address"
        },
        {
          "indexed": false,
          "internalType": "uint256",
          "name": "credit",
          "type": "uint256"
        }
      ],
      "name": "Repay",
      "type": "event"
    },
    {
      "anonymous": false,
      "inputs": [
        {
          "indexed": true,
          "internalType": "address",
          "name": "underlyingToken",
          "type": "address"
        },
        {
          "indexed": false,
          "internalType": "uint256",
          "name": "maximum",
          "type": "uint256"
        },
        {
          "indexed": false,
          "internalType": "uint256",
          "name": "blocks",
          "type": "uint256"
        }
      ],
      "name": "RepayLimitUpdated",
      "type": "event"
    },
    {
      "anonymous": false,
      "inputs": [
        {
          "indexed": false,
          "internalType": "address",
          "name": "sentinel",
          "type": "address"
        },
        {
          "indexed": false,
          "internalType": "bool",
          "name": "flag",
          "type": "bool"
        }
      ],
      "name": "SentinelSet",
      "type": "event"
    },
    {
      "anonymous": false,
      "inputs": [
        {
          "indexed": true,
          "internalType": "address",
          "name": "yieldToken",
          "type": "address"
        },
        {
          "indexed": false,
          "internalType": "uint256",
          "name": "expectedValue",
          "type": "uint256"
        }
      ],
      "name": "Snap",
      "type": "event"
    },
    {
      "anonymous": false,
      "inputs": [
        {
          "indexed": true,
          "internalType": "address",
          "name": "rewardToken",
          "type": "address"
        },
        {
          "indexed": false,
          "internalType": "uint256",
          "name": "amount",
          "type": "uint256"
        }
      ],
      "name": "SweepTokens",
      "type": "event"
    },
    {
      "anonymous": false,
      "inputs": [
        {
          "indexed": false,
          "internalType": "address",
          "name": "yieldToken",
          "type": "address"
        },
        {
          "indexed": false,
          "internalType": "address",
          "name": "tokenAdapter",
          "type": "address"
        }
      ],
      "name": "TokenAdapterUpdated",
      "type": "event"
    },
    {
      "anonymous": false,
      "inputs": [
        {
          "indexed": false,
          "internalType": "address",
          "name": "transmuter",
          "type": "address"
        }
      ],
      "name": "TransmuterUpdated",
      "type": "event"
    },
    {
      "anonymous": false,
      "inputs": [
        {
          "indexed": true,
          "internalType": "address",
          "name": "underlyingToken",
          "type": "address"
        },
        {
          "indexed": false,
          "internalType": "bool",
          "name": "enabled",
          "type": "bool"
        }
      ],
      "name": "UnderlyingTokenEnabled",
      "type": "event"
    },
    {
      "anonymous": false,
      "inputs": [
        {
          "indexed": true,
          "internalType": "address",
          "name": "owner",
          "type": "address"
        },
        {
          "indexed": true,
          "internalType": "address",
          "name": "yieldToken",
          "type": "address"
        },
        {
          "indexed": false,
          "internalType": "uint256",
          "name": "shares",
          "type": "uint256"
        },
        {
          "indexed": false,
          "internalType": "address",
          "name": "recipient",
          "type": "address"
        }
      ],
      "name": "Withdraw",
      "type": "event"
    },
    {
      "anonymous": false,
      "inputs": [
        {
          "indexed": true,
          "internalType": "address",
          "name": "yieldToken",
          "type": "address"
        },
        {
          "indexed": false,
          "internalType": "bool",
          "name": "enabled",
          "type": "bool"
        }
      ],
      "name": "YieldTokenEnabled",
      "type": "event"
    },
    {
      "inputs": [],
      "name": "BPS",
      "outputs": [
        {
          "internalType": "uint256",
          "name": "",
          "type": "uint256"
        }
      ],
      "stateMutability": "view",
      "type": "function"
    },
    {
      "inputs": [],
      "name": "FIXED_POINT_SCALAR",
      "outputs": [
        {
          "internalType": "uint256",
          "name": "",
          "type": "uint256"
        }
      ],
      "stateMutability": "view",
      "type": "function"
    },
    {
      "inputs": [],
      "name": "acceptAdmin",
      "outputs": [],
      "stateMutability": "nonpayable",
      "type": "function"
    },
    {
      "inputs": [
        {
          "internalType": "address",
          "name": "owner",
          "type": "address"
        }
      ],
      "name": "accounts",
      "outputs": [
        {
          "internalType": "int256",
          "name": "debt",
          "type": "int256"
        },
        {
          "internalType": "address[]",
          "name": "depositedTokens",
          "type": "address[]"
        }
      ],
      "stateMutability": "view",
      "type": "function"
    },
    {
      "inputs": [
        {
          "internalType": "address",
          "name": "underlyingToken",
          "type": "address"
        },
        {
          "components": [
            {
              "internalType": "uint256",
              "name": "repayLimitMinimum",
              "type": "uint256"
            },
            {
              "internalType": "uint256",
              "name": "repayLimitMaximum",
              "type": "uint256"
            },
            {
              "internalType": "uint256",
              "name": "repayLimitBlocks",
              "type": "uint256"
            },
            {
              "internalType": "uint256",
              "name": "liquidationLimitMinimum",
              "type": "uint256"
            },
            {
              "internalType": "uint256",
              "name": "liquidationLimitMaximum",
              "type": "uint256"
            },
            {
              "internalType": "uint256",
              "name": "liquidationLimitBlocks",
              "type": "uint256"
            }
          ],
          "internalType": "struct IAlchemistV2AdminActions.UnderlyingTokenConfig",
          "name": "config",
          "type": "tuple"
        }
      ],
      "name": "addUnderlyingToken",
      "outputs": [],
      "stateMutability": "nonpayable",
      "type": "function"
    },
    {
      "inputs": [
        {
          "internalType": "address",
          "name": "yieldToken",
          "type": "address"
        },
        {
          "components": [
            {
              "internalType": "address",
              "name": "adapter",
              "type": "address"
            },
            {
              "internalType": "uint256",
              "name": "maximumLoss",
              "type": "uint256"
            },
            {
              "internalType": "uint256",
              "name": "maximumExpectedValue",
              "type": "uint256"
            },
            {
              "internalType": "uint256",
              "name": "creditUnlockBlocks",
              "type": "uint256"
            }
          ],
          "internalType": "struct IAlchemistV2AdminActions.YieldTokenConfig",
          "name": "config",
          "type": "tuple"
        }
      ],
      "name": "addYieldToken",
      "outputs": [],
      "stateMutability": "nonpayable",
      "type": "function"
    },
    {
      "inputs": [],
      "name": "admin",
      "outputs": [
        {
          "internalType": "address",
          "name": "",
          "type": "address"
        }
      ],
      "stateMutability": "view",
      "type": "function"
    },
    {
      "inputs": [
        {
          "internalType": "address",
          "name": "spender",
          "type": "address"
        },
        {
          "internalType": "uint256",
          "name": "amount",
          "type": "uint256"
        }
      ],
      "name": "approveMint",
      "outputs": [],
      "stateMutability": "nonpayable",
      "type": "function"
    },
    {
      "inputs": [
        {
          "internalType": "address",
          "name": "spender",
          "type": "address"
        },
        {
          "internalType": "address",
          "name": "yieldToken",
          "type": "address"
        },
        {
          "internalType": "uint256",
          "name": "shares",
          "type": "uint256"
        }
      ],
      "name": "approveWithdraw",
      "outputs": [],
      "stateMutability": "nonpayable",
      "type": "function"
    },
    {
      "inputs": [
        {
          "internalType": "uint256",
          "name": "amount",
          "type": "uint256"
        },
        {
          "internalType": "address",
          "name": "recipient",
          "type": "address"
        }
      ],
      "name": "burn",
      "outputs": [
        {
          "internalType": "uint256",
          "name": "",
          "type": "uint256"
        }
      ],
      "stateMutability": "nonpayable",
      "type": "function"
    },
    {
      "inputs": [
        {
          "internalType": "address",
          "name": "yieldToken",
          "type": "address"
        },
        {
          "internalType": "uint256",
          "name": "blocks",
          "type": "uint256"
        }
      ],
      "name": "configureCreditUnlockRate",
      "outputs": [],
      "stateMutability": "nonpayable",
      "type": "function"
    },
    {
      "inputs": [
        {
          "internalType": "address",
          "name": "underlyingToken",
          "type": "address"
        },
        {
          "internalType": "uint256",
          "name": "maximum",
          "type": "uint256"
        },
        {
          "internalType": "uint256",
          "name": "blocks",
          "type": "uint256"
        }
      ],
      "name": "configureLiquidationLimit",
      "outputs": [],
      "stateMutability": "nonpayable",
      "type": "function"
    },
    {
      "inputs": [
        {
          "internalType": "uint256",
          "name": "maximum",
          "type": "uint256"
        },
        {
          "internalType": "uint256",
          "name": "rate",
          "type": "uint256"
        }
      ],
      "name": "configureMintingLimit",
      "outputs": [],
      "stateMutability": "nonpayable",
      "type": "function"
    },
    {
      "inputs": [
        {
          "internalType": "address",
          "name": "underlyingToken",
          "type": "address"
        },
        {
          "internalType": "uint256",
          "name": "maximum",
          "type": "uint256"
        },
        {
          "internalType": "uint256",
          "name": "blocks",
          "type": "uint256"
        }
      ],
      "name": "configureRepayLimit",
      "outputs": [],
      "stateMutability": "nonpayable",
      "type": "function"
    },
    {
      "inputs": [
        {
          "internalType": "address",
          "name": "yieldToken",
          "type": "address"
        },
        {
          "internalType": "uint256",
          "name": "shares",
          "type": "uint256"
        }
      ],
      "name": "convertSharesToUnderlyingTokens",
      "outputs": [
        {
          "internalType": "uint256",
          "name": "",
          "type": "uint256"
        }
      ],
      "stateMutability": "view",
      "type": "function"
    },
    {
      "inputs": [
        {
          "internalType": "address",
          "name": "yieldToken",
          "type": "address"
        },
        {
          "internalType": "uint256",
          "name": "shares",
          "type": "uint256"
        }
      ],
      "name": "convertSharesToYieldTokens",
      "outputs": [
        {
          "internalType": "uint256",
          "name": "",
          "type": "uint256"
        }
      ],
      "stateMutability": "view",
      "type": "function"
    },
    {
      "inputs": [
        {
          "internalType": "address",
          "name": "yieldToken",
          "type": "address"
        },
        {
          "internalType": "uint256",
          "name": "amount",
          "type": "uint256"
        }
      ],
      "name": "convertUnderlyingTokensToShares",
      "outputs": [
        {
          "internalType": "uint256",
          "name": "",
          "type": "uint256"
        }
      ],
      "stateMutability": "view",
      "type": "function"
    },
    {
      "inputs": [
        {
          "internalType": "address",
          "name": "yieldToken",
          "type": "address"
        },
        {
          "internalType": "uint256",
          "name": "amount",
          "type": "uint256"
        }
      ],
      "name": "convertUnderlyingTokensToYield",
      "outputs": [
        {
          "internalType": "uint256",
          "name": "",
          "type": "uint256"
        }
      ],
      "stateMutability": "view",
      "type": "function"
    },
    {
      "inputs": [
        {
          "internalType": "address",
          "name": "yieldToken",
          "type": "address"
        },
        {
          "internalType": "uint256",
          "name": "amount",
          "type": "uint256"
        }
      ],
      "name": "convertYieldTokensToShares",
      "outputs": [
        {
          "internalType": "uint256",
          "name": "",
          "type": "uint256"
        }
      ],
      "stateMutability": "view",
      "type": "function"
    },
    {
      "inputs": [
        {
          "internalType": "address",
          "name": "yieldToken",
          "type": "address"
        },
        {
          "internalType": "uint256",
          "name": "amount",
          "type": "uint256"
        }
      ],
      "name": "convertYieldTokensToUnderlying",
      "outputs": [
        {
          "internalType": "uint256",
          "name": "",
          "type": "uint256"
        }
      ],
      "stateMutability": "view",
      "type": "function"
    },
    {
      "inputs": [],
      "name": "debtToken",
      "outputs": [
        {
          "internalType": "address",
          "name": "",
          "type": "address"
        }
      ],
      "stateMutability": "view",
      "type": "function"
    },
    {
      "inputs": [
        {
          "internalType": "address",
          "name": "yieldToken",
          "type": "address"
        },
        {
          "internalType": "uint256",
          "name": "amount",
          "type": "uint256"
        },
        {
          "internalType": "address",
          "name": "recipient",
          "type": "address"
        }
      ],
      "name": "deposit",
      "outputs": [
        {
          "internalType": "uint256",
          "name": "",
          "type": "uint256"
        }
      ],
      "stateMutability": "nonpayable",
      "type": "function"
    },
    {
      "inputs": [
        {
          "internalType": "address",
          "name": "yieldToken",
          "type": "address"
        },
        {
          "internalType": "uint256",
          "name": "amount",
          "type": "uint256"
        },
        {
          "internalType": "address",
          "name": "recipient",
          "type": "address"
        },
        {
          "internalType": "uint256",
          "name": "minimumAmountOut",
          "type": "uint256"
        }
      ],
      "name": "depositUnderlying",
      "outputs": [
        {
          "internalType": "uint256",
          "name": "",
          "type": "uint256"
        }
      ],
      "stateMutability": "nonpayable",
      "type": "function"
    },
    {
      "inputs": [
        {
          "internalType": "address",
          "name": "yieldToken",
          "type": "address"
        },
        {
          "internalType": "uint256",
          "name": "amount",
          "type": "uint256"
        }
      ],
      "name": "donate",
      "outputs": [],
      "stateMutability": "nonpayable",
      "type": "function"
    },
    {
      "inputs": [
        {
          "internalType": "address",
          "name": "underlyingToken",
          "type": "address"
        }
      ],
      "name": "getLiquidationLimitInfo",
      "outputs": [
        {
          "internalType": "uint256",
          "name": "currentLimit",
          "type": "uint256"
        },
        {
          "internalType": "uint256",
          "name": "rate",
          "type": "uint256"
        },
        {
          "internalType": "uint256",
          "name": "maximum",
          "type": "uint256"
        }
      ],
      "stateMutability": "view",
      "type": "function"
    },
    {
      "inputs": [],
      "name": "getMintLimitInfo",
      "outputs": [
        {
          "internalType": "uint256",
          "name": "currentLimit",
          "type": "uint256"
        },
        {
          "internalType": "uint256",
          "name": "rate",
          "type": "uint256"
        },
        {
          "internalType": "uint256",
          "name": "maximum",
          "type": "uint256"
        }
      ],
      "stateMutability": "view",
      "type": "function"
    },
    {
      "inputs": [
        {
          "internalType": "address",
          "name": "underlyingToken",
          "type": "address"
        }
      ],
      "name": "getRepayLimitInfo",
      "outputs": [
        {
          "internalType": "uint256",
          "name": "currentLimit",
          "type": "uint256"
        },
        {
          "internalType": "uint256",
          "name": "rate",
          "type": "uint256"
        },
        {
          "internalType": "uint256",
          "name": "maximum",
          "type": "uint256"
        }
      ],
      "stateMutability": "view",
      "type": "function"
    },
    {
      "inputs": [],
      "name": "getSupportedUnderlyingTokens",
      "outputs": [
        {
          "internalType": "address[]",
          "name": "",
          "type": "address[]"
        }
      ],
      "stateMutability": "view",
      "type": "function"
    },
    {
      "inputs": [],
      "name": "getSupportedYieldTokens",
      "outputs": [
        {
          "internalType": "address[]",
          "name": "",
          "type": "address[]"
        }
      ],
      "stateMutability": "view",
      "type": "function"
    },
    {
      "inputs": [
        {
          "internalType": "address",
          "name": "underlyingToken",
          "type": "address"
        }
      ],
      "name": "getUnderlyingTokenParameters",
      "outputs": [
        {
          "components": [
            {
              "internalType": "uint8",
              "name": "decimals",
              "type": "uint8"
            },
            {
              "internalType": "uint256",
              "name": "conversionFactor",
              "type": "uint256"
            },
            {
              "internalType": "bool",
              "name": "enabled",
              "type": "bool"
            }
          ],
          "internalType": "struct IAlchemistV2State.UnderlyingTokenParams",
          "name": "",
          "type": "tuple"
        }
      ],
      "stateMutability": "view",
      "type": "function"
    },
    {
      "inputs": [
        {
          "internalType": "address",
          "name": "yieldToken",
          "type": "address"
        }
      ],
      "name": "getUnderlyingTokensPerShare",
      "outputs": [
        {
          "internalType": "uint256",
          "name": "",
          "type": "uint256"
        }
      ],
      "stateMutability": "view",
      "type": "function"
    },
    {
      "inputs": [
        {
          "internalType": "address",
          "name": "yieldToken",
          "type": "address"
        }
      ],
      "name": "getYieldTokenParameters",
      "outputs": [
        {
          "components": [
            {
              "internalType": "uint8",
              "name": "decimals",
              "type": "uint8"
            },
            {
              "internalType": "address",
              "name": "underlyingToken",
              "type": "address"
            },
            {
              "internalType": "address",
              "name": "adapter",
              "type": "address"
            },
            {
              "internalType": "uint256",
              "name": "maximumLoss",
              "type": "uint256"
            },
            {
              "internalType": "uint256",
              "name": "maximumExpectedValue",
              "type": "uint256"
            },
            {
              "internalType": "uint256",
              "name": "creditUnlockRate",
              "type": "uint256"
            },
            {
              "internalType": "uint256",
              "name": "activeBalance",
              "type": "uint256"
            },
            {
              "internalType": "uint256",
              "name": "harvestableBalance",
              "type": "uint256"
            },
            {
              "internalType": "uint256",
              "name": "totalShares",
              "type": "uint256"
            },
            {
              "internalType": "uint256",
              "name": "expectedValue",
              "type": "uint256"
            },
            {
              "internalType": "uint256",
              "name": "pendingCredit",
              "type": "uint256"
            },
            {
              "internalType": "uint256",
              "name": "distributedCredit",
              "type": "uint256"
            },
            {
              "internalType": "uint256",
              "name": "lastDistributionBlock",
              "type": "uint256"
            },
            {
              "internalType": "uint256",
              "name": "accruedWeight",
              "type": "uint256"
            },
            {
              "internalType": "bool",
              "name": "enabled",
              "type": "bool"
            }
          ],
          "internalType": "struct IAlchemistV2State.YieldTokenParams",
          "name": "",
          "type": "tuple"
        }
      ],
      "stateMutability": "view",
      "type": "function"
    },
    {
      "inputs": [
        {
          "internalType": "address",
          "name": "yieldToken",
          "type": "address"
        }
      ],
      "name": "getYieldTokensPerShare",
      "outputs": [
        {
          "internalType": "uint256",
          "name": "",
          "type": "uint256"
        }
      ],
      "stateMutability": "view",
      "type": "function"
    },
    {
      "inputs": [
        {
          "internalType": "address",
          "name": "yieldToken",
          "type": "address"
        },
        {
          "internalType": "uint256",
          "name": "minimumAmountOut",
          "type": "uint256"
        }
      ],
      "name": "harvest",
      "outputs": [],
      "stateMutability": "nonpayable",
      "type": "function"
    },
    {
      "inputs": [
        {
          "components": [
            {
              "internalType": "address",
              "name": "admin",
              "type": "address"
            },
            {
              "internalType": "address",
              "name": "debtToken",
              "type": "address"
            },
            {
              "internalType": "address",
              "name": "transmuter",
              "type": "address"
            },
            {
              "internalType": "uint256",
              "name": "minimumCollateralization",
              "type": "uint256"
            },
            {
              "internalType": "uint256",
              "name": "protocolFee",
              "type": "uint256"
            },
            {
              "internalType": "address",
              "name": "protocolFeeReceiver",
              "type": "address"
            },
            {
              "internalType": "uint256",
              "name": "mintingLimitMinimum",
              "type": "uint256"
            },
            {
              "internalType": "uint256",
              "name": "mintingLimitMaximum",
              "type": "uint256"
            },
            {
              "internalType": "uint256",
              "name": "mintingLimitBlocks",
              "type": "uint256"
            },
            {
              "internalType": "address",
              "name": "whitelist",
              "type": "address"
            }
          ],
          "internalType": "struct IAlchemistV2AdminActions.InitializationParams",
          "name": "params",
          "type": "tuple"
        }
      ],
      "name": "initialize",
      "outputs": [],
      "stateMutability": "nonpayable",
      "type": "function"
    },
    {
      "inputs": [
        {
          "internalType": "address",
          "name": "underlyingToken",
          "type": "address"
        }
      ],
      "name": "isSupportedUnderlyingToken",
      "outputs": [
        {
          "internalType": "bool",
          "name": "",
          "type": "bool"
        }
      ],
      "stateMutability": "view",
      "type": "function"
    },
    {
      "inputs": [
        {
          "internalType": "address",
          "name": "yieldToken",
          "type": "address"
        }
      ],
      "name": "isSupportedYieldToken",
      "outputs": [
        {
          "internalType": "bool",
          "name": "",
          "type": "bool"
        }
      ],
      "stateMutability": "view",
      "type": "function"
    },
    {
      "inputs": [
        {
          "internalType": "address",
          "name": "",
          "type": "address"
        }
      ],
      "name": "keepers",
      "outputs": [
        {
          "internalType": "bool",
          "name": "",
          "type": "bool"
        }
      ],
      "stateMutability": "view",
      "type": "function"
    },
    {
      "inputs": [
        {
          "internalType": "address",
          "name": "yieldToken",
          "type": "address"
        },
        {
          "internalType": "uint256",
          "name": "shares",
          "type": "uint256"
        },
        {
          "internalType": "uint256",
          "name": "minimumAmountOut",
          "type": "uint256"
        }
      ],
      "name": "liquidate",
      "outputs": [
        {
          "internalType": "uint256",
          "name": "",
          "type": "uint256"
        }
      ],
      "stateMutability": "nonpayable",
      "type": "function"
    },
    {
      "inputs": [],
      "name": "minimumCollateralization",
      "outputs": [
        {
          "internalType": "uint256",
          "name": "",
          "type": "uint256"
        }
      ],
      "stateMutability": "view",
      "type": "function"
    },
    {
      "inputs": [
        {
          "internalType": "uint256",
          "name": "amount",
          "type": "uint256"
        },
        {
          "internalType": "address",
          "name": "recipient",
          "type": "address"
        }
      ],
      "name": "mint",
      "outputs": [],
      "stateMutability": "nonpayable",
      "type": "function"
    },
    {
      "inputs": [
        {
          "internalType": "address",
          "name": "owner",
          "type": "address"
        },
        {
          "internalType": "address",
          "name": "spender",
          "type": "address"
        }
      ],
      "name": "mintAllowance",
      "outputs": [
        {
          "internalType": "uint256",
          "name": "",
          "type": "uint256"
        }
      ],
      "stateMutability": "view",
      "type": "function"
    },
    {
      "inputs": [
        {
          "internalType": "address",
          "name": "owner",
          "type": "address"
        },
        {
          "internalType": "uint256",
          "name": "amount",
          "type": "uint256"
        },
        {
          "internalType": "address",
          "name": "recipient",
          "type": "address"
        }
      ],
      "name": "mintFrom",
      "outputs": [],
      "stateMutability": "nonpayable",
      "type": "function"
    },
    {
      "inputs": [
        {
          "internalType": "bytes[]",
          "name": "data",
          "type": "bytes[]"
        }
      ],
      "name": "multicall",
      "outputs": [
        {
          "internalType": "bytes[]",
          "name": "results",
          "type": "bytes[]"
        }
      ],
      "stateMutability": "payable",
      "type": "function"
    },
    {
      "inputs": [
        {
          "internalType": "address",
          "name": "underlyingToken",
          "type": "address"
        },
        {
          "internalType": "uint256",
          "name": "amount",
          "type": "uint256"
        }
      ],
      "name": "normalizeDebtTokensToUnderlying",
      "outputs": [
        {
          "internalType": "uint256",
          "name": "",
          "type": "uint256"
        }
      ],
      "stateMutability": "view",
      "type": "function"
    },
    {
      "inputs": [
        {
          "internalType": "address",
          "name": "underlyingToken",
          "type": "address"
        },
        {
          "internalType": "uint256",
          "name": "amount",
          "type": "uint256"
        }
      ],
      "name": "normalizeUnderlyingTokensToDebt",
      "outputs": [
        {
          "internalType": "uint256",
          "name": "",
          "type": "uint256"
        }
      ],
      "stateMutability": "view",
      "type": "function"
    },
    {
      "inputs": [],
      "name": "pendingAdmin",
      "outputs": [
        {
          "internalType": "address",
          "name": "",
          "type": "address"
        }
      ],
      "stateMutability": "view",
      "type": "function"
    },
    {
      "inputs": [
        {
          "internalType": "address",
          "name": "owner",
          "type": "address"
        }
      ],
      "name": "poke",
      "outputs": [],
      "stateMutability": "nonpayable",
      "type": "function"
    },
    {
      "inputs": [
        {
          "internalType": "address",
          "name": "owner",
          "type": "address"
        },
        {
          "internalType": "address",
          "name": "yieldToken",
          "type": "address"
        }
      ],
      "name": "positions",
      "outputs": [
        {
          "internalType": "uint256",
          "name": "shares",
          "type": "uint256"
        },
        {
          "internalType": "uint256",
          "name": "lastAccruedWeight",
          "type": "uint256"
        }
      ],
      "stateMutability": "view",
      "type": "function"
    },
    {
      "inputs": [],
      "name": "protocolFee",
      "outputs": [
        {
          "internalType": "uint256",
          "name": "",
          "type": "uint256"
        }
      ],
      "stateMutability": "view",
      "type": "function"
    },
    {
      "inputs": [],
      "name": "protocolFeeReceiver",
      "outputs": [
        {
          "internalType": "address",
          "name": "",
          "type": "address"
        }
      ],
      "stateMutability": "view",
      "type": "function"
    },
    {
      "inputs": [
        {
          "internalType": "address",
          "name": "underlyingToken",
          "type": "address"
        },
        {
          "internalType": "uint256",
          "name": "amount",
          "type": "uint256"
        },
        {
          "internalType": "address",
          "name": "recipient",
          "type": "address"
        }
      ],
      "name": "repay",
      "outputs": [
        {
          "internalType": "uint256",
          "name": "",
          "type": "uint256"
        }
      ],
      "stateMutability": "nonpayable",
      "type": "function"
    },
    {
      "inputs": [
        {
          "internalType": "address",
          "name": "",
          "type": "address"
        }
      ],
      "name": "sentinels",
      "outputs": [
        {
          "internalType": "bool",
          "name": "",
          "type": "bool"
        }
      ],
      "stateMutability": "view",
      "type": "function"
    },
    {
      "inputs": [
        {
          "internalType": "address",
          "name": "keeper",
          "type": "address"
        },
        {
          "internalType": "bool",
          "name": "flag",
          "type": "bool"
        }
      ],
      "name": "setKeeper",
      "outputs": [],
      "stateMutability": "nonpayable",
      "type": "function"
    },
    {
      "inputs": [
        {
          "internalType": "address",
          "name": "yieldToken",
          "type": "address"
        },
        {
          "internalType": "uint256",
          "name": "value",
          "type": "uint256"
        }
      ],
      "name": "setMaximumExpectedValue",
      "outputs": [],
      "stateMutability": "nonpayable",
      "type": "function"
    },
    {
      "inputs": [
        {
          "internalType": "address",
          "name": "yieldToken",
          "type": "address"
        },
        {
          "internalType": "uint256",
          "name": "value",
          "type": "uint256"
        }
      ],
      "name": "setMaximumLoss",
      "outputs": [],
      "stateMutability": "nonpayable",
      "type": "function"
    },
    {
      "inputs": [
        {
          "internalType": "uint256",
          "name": "value",
          "type": "uint256"
        }
      ],
      "name": "setMinimumCollateralization",
      "outputs": [],
      "stateMutability": "nonpayable",
      "type": "function"
    },
    {
      "inputs": [
        {
          "internalType": "address",
          "name": "value",
          "type": "address"
        }
      ],
      "name": "setPendingAdmin",
      "outputs": [],
      "stateMutability": "nonpayable",
      "type": "function"
    },
    {
      "inputs": [
        {
          "internalType": "uint256",
          "name": "value",
          "type": "uint256"
        }
      ],
      "name": "setProtocolFee",
      "outputs": [],
      "stateMutability": "nonpayable",
      "type": "function"
    },
    {
      "inputs": [
        {
          "internalType": "address",
          "name": "value",
          "type": "address"
        }
      ],
      "name": "setProtocolFeeReceiver",
      "outputs": [],
      "stateMutability": "nonpayable",
      "type": "function"
    },
    {
      "inputs": [
        {
          "internalType": "address",
          "name": "sentinel",
          "type": "address"
        },
        {
          "internalType": "bool",
          "name": "flag",
          "type": "bool"
        }
      ],
      "name": "setSentinel",
      "outputs": [],
      "stateMutability": "nonpayable",
      "type": "function"
    },
    {
      "inputs": [
        {
          "internalType": "address",
          "name": "yieldToken",
          "type": "address"
        },
        {
          "internalType": "address",
          "name": "adapter",
          "type": "address"
        }
      ],
      "name": "setTokenAdapter",
      "outputs": [],
      "stateMutability": "nonpayable",
      "type": "function"
    },
    {
      "inputs": [
        {
          "internalType": "address",
          "name": "transferAdapterAddress",
          "type": "address"
        }
      ],
      "name": "setTransferAdapterAddress",
      "outputs": [],
      "stateMutability": "nonpayable",
      "type": "function"
    },
    {
      "inputs": [
        {
          "internalType": "address",
          "name": "value",
          "type": "address"
        }
      ],
      "name": "setTransmuter",
      "outputs": [],
      "stateMutability": "nonpayable",
      "type": "function"
    },
    {
      "inputs": [
        {
          "internalType": "address",
          "name": "underlyingToken",
          "type": "address"
        },
        {
          "internalType": "bool",
          "name": "enabled",
          "type": "bool"
        }
      ],
      "name": "setUnderlyingTokenEnabled",
      "outputs": [],
      "stateMutability": "nonpayable",
      "type": "function"
    },
    {
      "inputs": [
        {
          "internalType": "address",
          "name": "yieldToken",
          "type": "address"
        },
        {
          "internalType": "bool",
          "name": "enabled",
          "type": "bool"
        }
      ],
      "name": "setYieldTokenEnabled",
      "outputs": [],
      "stateMutability": "nonpayable",
      "type": "function"
    },
    {
      "inputs": [
        {
          "internalType": "address",
          "name": "yieldToken",
          "type": "address"
        }
      ],
      "name": "snap",
      "outputs": [],
      "stateMutability": "nonpayable",
      "type": "function"
    },
    {
      "inputs": [
        {
          "internalType": "address",
          "name": "rewardToken",
          "type": "address"
        },
        {
          "internalType": "uint256",
          "name": "amount",
          "type": "uint256"
        }
      ],
      "name": "sweepTokens",
      "outputs": [],
      "stateMutability": "nonpayable",
      "type": "function"
    },
    {
      "inputs": [
        {
          "internalType": "address",
          "name": "owner",
          "type": "address"
        }
      ],
      "name": "totalValue",
      "outputs": [
        {
          "internalType": "uint256",
          "name": "",
          "type": "uint256"
        }
      ],
      "stateMutability": "view",
      "type": "function"
    },
    {
      "inputs": [],
      "name": "transferAdapter",
      "outputs": [
        {
          "internalType": "address",
          "name": "",
          "type": "address"
        }
      ],
      "stateMutability": "view",
      "type": "function"
    },
    {
      "inputs": [
        {
          "internalType": "address",
          "name": "owner",
          "type": "address"
        },
        {
          "internalType": "int256",
          "name": "debt",
          "type": "int256"
        }
      ],
      "name": "transferDebtV1",
      "outputs": [],
      "stateMutability": "nonpayable",
      "type": "function"
    },
    {
      "inputs": [],
      "name": "transmuter",
      "outputs": [
        {
          "internalType": "address",
          "name": "",
          "type": "address"
        }
      ],
      "stateMutability": "view",
      "type": "function"
    },
    {
      "inputs": [],
      "name": "version",
      "outputs": [
        {
          "internalType": "string",
          "name": "",
          "type": "string"
        }
      ],
      "stateMutability": "view",
      "type": "function"
    },
    {
      "inputs": [],
      "name": "whitelist",
      "outputs": [
        {
          "internalType": "address",
          "name": "",
          "type": "address"
        }
      ],
      "stateMutability": "view",
      "type": "function"
    },
    {
      "inputs": [
        {
          "internalType": "address",
          "name": "yieldToken",
          "type": "address"
        },
        {
          "internalType": "uint256",
          "name": "shares",
          "type": "uint256"
        },
        {
          "internalType": "address",
          "name": "recipient",
          "type": "address"
        }
      ],
      "name": "withdraw",
      "outputs": [
        {
          "internalType": "uint256",
          "name": "",
          "type": "uint256"
        }
      ],
      "stateMutability": "nonpayable",
      "type": "function"
    },
    {
      "inputs": [
        {
          "internalType": "address",
          "name": "owner",
          "type": "address"
        },
        {
          "internalType": "address",
          "name": "spender",
          "type": "address"
        },
        {
          "internalType": "address",
          "name": "yieldToken",
          "type": "address"
        }
      ],
      "name": "withdrawAllowance",
      "outputs": [
        {
          "internalType": "uint256",
          "name": "",
          "type": "uint256"
        }
      ],
      "stateMutability": "view",
      "type": "function"
    },
    {
      "inputs": [
        {
          "internalType": "address",
          "name": "owner",
          "type": "address"
        },
        {
          "internalType": "address",
          "name": "yieldToken",
          "type": "address"
        },
        {
          "internalType": "uint256",
          "name": "shares",
          "type": "uint256"
        },
        {
          "internalType": "address",
          "name": "recipient",
          "type": "address"
        }
      ],
      "name": "withdrawFrom",
      "outputs": [
        {
          "internalType": "uint256",
          "name": "",
          "type": "uint256"
        }
      ],
      "stateMutability": "nonpayable",
      "type": "function"
    },
    {
      "inputs": [
        {
          "internalType": "address",
          "name": "yieldToken",
          "type": "address"
        },
        {
          "internalType": "uint256",
          "name": "shares",
          "type": "uint256"
        },
        {
          "internalType": "address",
          "name": "recipient",
          "type": "address"
        },
        {
          "internalType": "uint256",
          "name": "minimumAmountOut",
          "type": "uint256"
        }
      ],
      "name": "withdrawUnderlying",
      "outputs": [
        {
          "internalType": "uint256",
          "name": "",
          "type": "uint256"
        }
      ],
      "stateMutability": "nonpayable",
      "type": "function"
    },
    {
      "inputs": [
        {
          "internalType": "address",
          "name": "owner",
          "type": "address"
        },
        {
          "internalType": "address",
          "name": "yieldToken",
          "type": "address"
        },
        {
          "internalType": "uint256",
          "name": "shares",
          "type": "uint256"
        },
        {
          "internalType": "address",
          "name": "recipient",
          "type": "address"
        },
        {
          "internalType": "uint256",
          "name": "minimumAmountOut",
          "type": "uint256"
        }
      ],
      "name": "withdrawUnderlyingFrom",
      "outputs": [
        {
          "internalType": "uint256",
          "name": "",
          "type": "uint256"
        }
      ],
      "stateMutability": "nonpayable",
      "type": "function"
    }
  ],
  "transactionHash": "0xe905bae8f384e8fb90b6e535f1885192c2fc84af61e4b4b8a0e944b0b1ae13ba",
  "args": [],
  "solcInputHash": "d4c949bc4f0358a923e6a3b94c01ba6d",
  "bytecode": "0x60806040523480156200001157600080fd5b50600054610100900460ff1615808015620000335750600054600160ff909116105b8062000063575062000050306200013d60201b620038321760201c565b15801562000063575060005460ff166001145b620000cb5760405162461bcd60e51b815260206004820152602e60248201527f496e697469616c697a61626c653a20636f6e747261637420697320616c72656160448201526d191e481a5b9a5d1a585b1a5e995960921b606482015260840160405180910390fd5b6000805460ff191660011790558015620000ef576000805461ff0019166101001790555b801562000136576000805461ff0019169055604051600181527f7f26b83ff96e1f2b6a682f133852f6798a09c465da95921460cefb38474024989060200160405180910390a15b506200014c565b6001600160a01b03163b151590565b615f04806200015c6000396000f3fe6080604052600436106104675760003560e01c806365aeec141161024a578063adb4a9ad11610139578063e69d849d116100b6578063f45346dc1161007a578063f45346dc14610ee5578063f65816b014610f05578063f851a44014610f25578063f8d8989814610f45578063fcd3533c14610f6557600080fd5b8063e69d849d14610e4f578063e8b6571b14610e6f578063edca201b14610e85578063eeb15a9c14610ea5578063f36eebe314610ec557600080fd5b8063bdfa9bae116100fd578063bdfa9bae14610daf578063ca9e8ad614610dcf578063d1b9e85314610def578063d6737ccf14610e0f578063dec6603614610e2f57600080fd5b8063adb4a9ad14610d19578063b0e21e8a14610d39578063b1a997ac14610d4f578063b30ac7f614610d6f578063b968ee3c14610d8f57600080fd5b806388e6f15a116101c7578063a4a5da431161018b578063a4a5da4314610c79578063a6459a3214610c99578063a96cb06914610cb9578063a9aa522814610cd9578063ac9650d814610cf957600080fd5b806388e6f15a14610bd957806393e59dc114610bf957806394bf804d14610c19578063991c0fea14610c395780639b4542e614610c5957600080fd5b8063759205581161020e5780637592055814610b10578063787dce3d14610b305780637c60e0cf14610b505780637c8c18ee14610b655780638127b8c214610bb957600080fd5b806365aeec1414610a7057806369328dec14610a905780636987227a14610ab05780636bf9b3e714610ad05780637239d2b914610af057600080fd5b8063306f6e67116103665780634dd18bf5116102e35780635ceae9c4116102a75780635ceae9c4146109c25780635e5c06e2146109e25780635ee5530214610a105780635f9efc5414610a3057806363c9249014610a5057600080fd5b80634dd18bf5146108f757806351044b8e1461091757806354fd4d50146109375780635a5efc8b146109755780635c34586c146109a257600080fd5b8063412209381161032a578063412209381461084d57806346877b1a1461086d57806346bb87c21461088d5780634a222635146108ad5780634bd21445146108c257600080fd5b8063306f6e671461079d57806330b0680b146107bd57806339a51be5146107dd5780633bbd64bc146107fd5780633f6384fe1461082d57600080fd5b806315f8b3ec116103f45780631b962c78116103b85780631b962c78146106ed5780631f3a57a01461070f578063249d39e91461072f578063267822471461074557806326b00c001461077d57600080fd5b806315f8b3ec146105d1578063179319011461067157806319815a321461068d57806319a158d0146106ad5780631a49e55e146106cd57600080fd5b80630710285c1161043b5780630710285c1461052e57806307e3a3af1461055c5780630cf10a6b1461057c5780630e18b6811461059c57806313b39b9c146105b157600080fd5b8062796bf71461046c578063018ee9b71461048e57806302892d70146104ae5780630416f9e6146104f3575b600080fd5b34801561047857600080fd5b5061048c6104873660046153e4565b610f85565b005b34801561049a57600080fd5b5061048c6104a936600461541d565b610ff0565b3480156104ba57600080fd5b506104de6104c9366004615449565b60056020526000908152604090205460ff1681565b60405190151581526020015b60405180910390f35b3480156104ff57600080fd5b5061051361050e366004615449565b61119c565b604080519384526020840192909252908201526060016104ea565b34801561053a57600080fd5b5061054e610549366004615466565b6111d4565b6040519081526020016104ea565b34801561056857600080fd5b5061054e61057736600461549b565b611458565b34801561058857600080fd5b5061054e61059736600461541d565b611489565b3480156105a857600080fd5b5061048c6114af565b3480156105bd57600080fd5b5061048c6105cc36600461541d565b611582565b3480156105dd57600080fd5b5061064a6105ec366004615449565b6040805160608082018352600080835260208084018290529284018190526001600160a01b03949094168452601482529282902082519384018352805460ff9081168552600182015492850192909252600201541615159082015290565b60408051825160ff16815260208084015190820152918101511515908201526060016104ea565b34801561067d57600080fd5b5061054e670de0b6b3a764000081565b34801561069957600080fd5b5061048c6106a83660046154c9565b611595565b3480156106b957600080fd5b5061048c6106c8366004615466565b6115ed565b3480156106d957600080fd5b5061048c6106e836600461549b565b61168c565b3480156106f957600080fd5b50610702611807565b6040516104ea9190615526565b34801561071b57600080fd5b5061054e61072a36600461541d565b61186c565b34801561073b57600080fd5b5061054e61271081565b34801561075157600080fd5b50600454610765906001600160a01b031681565b6040516001600160a01b0390911681526020016104ea565b34801561078957600080fd5b5061048c6107983660046153e4565b6118ce565b3480156107a957600080fd5b5061048c6107b836600461541d565b611942565b3480156107c957600080fd5b5061054e6107d8366004615449565b6119c7565b3480156107e957600080fd5b50600a54610765906001600160a01b031681565b34801561080957600080fd5b506104de610818366004615449565b60066020526000908152604090205460ff1681565b34801561083957600080fd5b5061048c610848366004615539565b611a8f565b34801561085957600080fd5b5061048c6108683660046153e4565b611f3e565b34801561087957600080fd5b5061048c610888366004615449565b611faa565b34801561089957600080fd5b5061054e6108a836600461541d565b612014565b3480156108b957600080fd5b506107026120c8565b3480156108ce57600080fd5b506108e26108dd36600461549b565b61212b565b604080519283526020830191909152016104ea565b34801561090357600080fd5b5061048c610912366004615449565b612169565b34801561092357600080fd5b5061048c61093236600461557a565b6121bf565b34801561094357600080fd5b50610968604051806040016040528060058152602001640645c645c760db1b81525081565b6040516104ea9190615614565b34801561098157600080fd5b50610995610990366004615449565b612214565b6040516104ea9190615627565b3480156109ae57600080fd5b5061048c6109bd36600461541d565b61237c565b3480156109ce57600080fd5b5061054e6109dd36600461557a565b6123eb565b3480156109ee57600080fd5b50610a026109fd366004615449565b6125d9565b6040516104ea9291906156f1565b348015610a1c57600080fd5b506104de610a2b366004615449565b612663565b348015610a3c57600080fd5b5061054e610a4b36600461541d565b612670565b348015610a5c57600080fd5b5061048c610a6b366004615466565b612691565b348015610a7c57600080fd5b50610513610a8b366004615449565b612727565b348015610a9c57600080fd5b5061054e610aab36600461557a565b61274c565b348015610abc57600080fd5b5061048c610acb366004615758565b6127a2565b348015610adc57600080fd5b5061048c610aeb3660046157fe565b612af9565b348015610afc57600080fd5b50600754610765906001600160a01b031681565b348015610b1c57600080fd5b5061054e610b2b36600461541d565b612b16565b348015610b3c57600080fd5b5061048c610b4b3660046154c9565b612b3c565b348015610b5c57600080fd5b50610513612b87565b348015610b7157600080fd5b5061054e610b8036600461583f565b6001600160a01b039283166000908152601360209081526040808320948616835260069094018152838220929094168152925290205490565b348015610bc557600080fd5b5061054e610bd436600461541d565b612ba8565b348015610be557600080fd5b5061054e610bf4366004615449565b612bf2565b348015610c0557600080fd5b50600b54610765906001600160a01b031681565b348015610c2557600080fd5b5061048c610c3436600461587f565b612c1f565b348015610c4557600080fd5b5061048c610c54366004615449565b612c64565b348015610c6557600080fd5b5061048c610c7436600461541d565b612c9a565b348015610c8557600080fd5b5061054e610c9436600461541d565b612cc6565b348015610ca557600080fd5b5061054e610cb43660046158a4565b612cdf565b348015610cc557600080fd5b506104de610cd4366004615449565b612d40565b348015610ce557600080fd5b5061054e610cf4366004615449565b612d4d565b610d0c610d073660046158ec565b612d7a565b6040516104ea9190615961565b348015610d2557600080fd5b5061048c610d34366004615449565b612ecf565b348015610d4557600080fd5b5061054e60095481565b348015610d5b57600080fd5b5061048c610d6a366004615449565b612f39565b348015610d7b57600080fd5b5061048c610d8a3660046159c3565b612f6e565b348015610d9b57600080fd5b5061054e610daa3660046159f6565b61314d565b348015610dbb57600080fd5b5061054e610dca3660046158a4565b6131ba565b348015610ddb57600080fd5b5061048c610dea366004615a51565b613203565b348015610dfb57600080fd5b5061048c610e0a3660046153e4565b613257565b348015610e1b57600080fd5b5061048c610e2a366004615449565b6132bb565b348015610e3b57600080fd5b5061048c610e4a36600461541d565b613362565b348015610e5b57600080fd5b5061048c610e6a36600461541d565b61343f565b348015610e7b57600080fd5b5061054e60085481565b348015610e9157600080fd5b5061054e610ea0366004615a73565b613598565b348015610eb157600080fd5b5061048c610ec036600461541d565b6135fa565b348015610ed157600080fd5b50601a54610765906001600160a01b031681565b348015610ef157600080fd5b5061054e610f0036600461557a565b61365b565b348015610f1157600080fd5b5061054e610f2036600461541d565b6136a5565b348015610f3157600080fd5b50600354610765906001600160a01b031681565b348015610f5157600080fd5b50600254610765906001600160a01b031681565b348015610f7157600080fd5b5061054e610f8036600461587f565b613737565b610f8d613841565b6001600160a01b038216600081815260056020908152604091829020805460ff19168515159081179091558251938452908301527e7a59171ef284e295f019cc84b743f8ef2d67121ae078a0e4668a7f992f6cd891015b60405180910390a15050565b610ff861386d565b611000613894565b611009826138c3565b6001600160a01b038216600090815260156020526040902061102a836138f6565b60068101805460009091556110408115156139de565b815461010090046001600160a01b0316600061105e868430886139fc565b90506000612710600954836110739190615adc565b61107d9190615afb565b9050600061108b8284615b1d565b905060006110998583611489565b90506110a58982613ac0565b600a546110bd9086906001600160a01b031685613b6f565b6007546110d59086906001600160a01b031684613b6f565b60075460405163bc04f0af60e01b81526001600160a01b038781166004830152602482018590529091169063bc04f0af90604401600060405180830381600087803b15801561112357600080fd5b505af1158015611137573d6000803e3d6000fd5b5050604080518b8152602081018890529081018490526001600160a01b038c1692507f4534f107610758c3931de9ad1e176476fcfb8c74adf920167e1d54ee84fcfe76915060600160405180910390a2505050505050506111986000600155565b5050565b6001600160a01b0381166000908152601160205260408120819081906111c181613c8c565b6001820154915490969195509350915050565b60006111de61386d565b6111e6613d06565b6111f260008411613d97565b6001600160a01b038085166000908152601560205260409020805490916101009091041661121f866138c3565b61122886613db5565b61123181613dfc565b61123a86613e43565b6000611253600061124a33613e94565b925082136139de565b600061126388610a4b8585612b16565b905060008188116112745787611276565b815b905060006112848a83612ba8565b905060006112948b83308c6139fc565b90506112a2600082116139de565b6001600160a01b0386166000908152601260205260408120906112c482613c8c565b9050808311156112f65787838260405163637e01ad60e01b81526004016112ed93929190615b34565b60405180910390fd5b6112ff8d6138f6565b6113083361400b565b60006113148985611489565b9050611320338f614073565b61132b338f88614143565b61134633611338836141e6565b61134190615b55565b614210565b6113538e86614246614252565b61135d8385614389565b600754611375908a906001600160a01b031686613b6f565b60075460405163bc04f0af60e01b81526001600160a01b038b81166004830152602482018790529091169063bc04f0af90604401600060405180830381600087803b1580156113c357600080fd5b505af11580156113d7573d6000803e3d6000fd5b50505050886001600160a01b03168e6001600160a01b0316336001600160a01b03167f8246cc71ab01533b5bebc672a636df812f10637ad720797319d5741d5ebb39628985604051611433929190918252602082015260400190565b60405180910390a45093985050505050505050506114516000600155565b9392505050565b6001600160a01b03808316600090815260136020908152604080832093851683526005909301905220545b92915050565b6001600160a01b0382166000908152601460205260408120600101546114519083615adc565b6004546114c6906001600160a01b031615156139de565b6004546001600160a01b031633146114f0576040516282b42960e81b815260040160405180910390fd5b60048054600380546001600160a01b0383166001600160a01b031991821681179092559091169091556040519081527f54e4612788f90384e6843298d7854436f3a585b2c3831ab66abf1de63bfa6c2d9060200160405180910390a1604051600081527fa728e84b447788a55ff664fbfb5c3983925f88b80b672a1b0b8271c94b22df359060200160405180910390a1565b61158a613d06565b6111983383836143b0565b61159d613841565b6115b1670de0b6b3a7640000821015613d97565b60088190556040518181527f6f428e543b1146a0996303f0250c6fe0682874c690989e63ae53bf75bed8ef6f906020015b60405180910390a150565b6115f5613841565b6115fe83614417565b6001600160a01b038316600090815260126020526040902061161f90614422565b6001600160a01b0383166000908152601260205260409020611642908383614439565b60408051838152602081018390526001600160a01b038516917f0f3828e75ac2c1d15158acbdaab952f19d3a532547df5baf02f3fbbde1336d7191015b60405180910390a2505050565b611694613841565b611712816001600160a01b031663fc0c546a6040518163ffffffff1660e01b8152600401602060405180830381865afa1580156116d5573d6000803e3d6000fd5b505050506040513d601f19601f820116820180604052508101906116f99190615b71565b6001600160a01b0316836001600160a01b0316146139de565b61171b826138c3565b6001600160a01b03828116600090815260156020526040902060010180546001600160a01b03191691831691909117905561175982826000196144c2565b6117c7816001600160a01b0316632495a5996040518163ffffffff1660e01b8152600401602060405180830381865afa15801561179a573d6000803e3d6000fd5b505050506040513d601f19601f820116820180604052508101906117be9190615b71565b826000196144c2565b604080516001600160a01b038085168252831660208201527f0da5485c3be09248db5d9e03e12a4d5ef2df8074685a3dbb6e4e2a6c36f3e4729101610fe4565b6060601860000180548060200260200160405190810160405280929190818152602001828054801561186257602002820191906000526020600020905b81546001600160a01b03168152600190910190602001808311611844575b5050505050905090565b6001600160a01b0382166000908152601560205260408120600701548103611895575080611483565b61189e836144f5565b6001600160a01b0384166000908152601560205260409020600701546118c49084615adc565b6114519190615afb565b6118d661457f565b6118df826138c3565b6001600160a01b038216600081815260156020908152604091829020600d01805460ff191685151590811790915591519182527fb15476211644e7e7a92dd4fe21d831367f5ea58130817ad39712dff67139989691015b60405180910390a25050565b61194a613841565b61195660008211613d97565b61195f826138c3565b61197181670de0b6b3a7640000615afb565b6001600160a01b0383166000818152601560209081526040918290206004019390935580519182529181018390527fd5710c9f352f135b893ded82d4669bd05e5b1a7ad8d615e2ae88bc732673ad7d9101610fe4565b6001600160a01b03811660009081526013602052604081208190600301815b8154811015611a86576000826000018281548110611a0657611a06615b8e565b60009182526020808320909101546001600160a01b03908116808452601583526040808520548b84168652601385528186208387526001019094528420549094506101009092041691611a598483612cc6565b9050611a658382611489565b611a6f9088615ba4565b96505050505080611a7f90615bbc565b90506119e6565b50909392505050565b611a9761386d565b611a9f613841565b611ab161271082602001351115613d97565b611ac16000826060013511613d97565b611ad5611acf6018846145c2565b156139de565b6000611ae46020830183615449565b9050611b64816001600160a01b031663fc0c546a6040518163ffffffff1660e01b8152600401602060405180830381865afa158015611b27573d6000803e3d6000fd5b505050506040513d601f19601f82011682018060405250810190611b4b9190615b71565b6001600160a01b0316846001600160a01b0316146139de565b611bce816001600160a01b0316632495a5996040518163ffffffff1660e01b8152600401602060405180830381865afa158015611ba5573d6000803e3d6000fd5b505050506040513d601f19601f82011682018060405250810190611bc99190615b71565b614417565b604051806101e00160405280611be3856145e3565b60ff168152602001826001600160a01b0316632495a5996040518163ffffffff1660e01b8152600401602060405180830381865afa158015611c29573d6000803e3d6000fd5b505050506040513d601f19601f82011682018060405250810190611c4d9190615b71565b6001600160a01b03168152602090810190611c6a90850185615449565b6001600160a01b0316815260200183602001358152602001836040013581526020018360600135670de0b6b3a7640000611ca49190615afb565b81526000602080830182905260408084018390526060808501849052608080860185905260a080870186905260c080880187905260e0808901889052610100808a01899052610120998a018990526001600160a01b038e81168a5260158952988790208b518154998d015160ff9091166001600160a81b0319909a1699909917988a168202989098178855958a01516001880180546001600160a01b0319169190991617909755928801516002860155908701516003850155860151600484015585015160058301559184015160068201559083015160078201559082015160088201556101408201516009820155610160820151600a820155610180820151600b8201556101a0820151600c8201556101c090910151600d909101805460ff1916911515919091179055611dda6018846146c9565b50611df483611dec6020850185615449565b6000196144c2565b611e66816001600160a01b0316632495a5996040518163ffffffff1660e01b8152600401602060405180830381865afa158015611e35573d6000803e3d6000fd5b505050506040513d601f19601f82011682018060405250810190611e599190615b71565b611dec6020850185615449565b6040516001600160a01b038416907f7d45e47bed6d03b67d9ccb28bed226dd01d1425049e21b289d6fd54732131c8390600090a27f0da5485c3be09248db5d9e03e12a4d5ef2df8074685a3dbb6e4e2a6c36f3e47283611ec96020850185615449565b604080516001600160a01b0393841681529290911660208301520160405180910390a1826001600160a01b03167f75bfe099d672835dbb3c09443e8493c7f306b46d695f749eb0bcf7352bef01478360200135604051611f2b91815260200190565b60405180910390a2506111986000600155565b611f4661457f565b611f4f82614417565b6001600160a01b038216600081815260146020908152604091829020600201805460ff191685151590811790915591519182527fac216db82ec84df77384646fb0bd5f9bfd21ac8c46cfcf3a27a0d2feede572e29101611936565b611fb2613841565b611fc66001600160a01b0382161515613d97565b600a80546001600160a01b0319166001600160a01b0383169081179091556040519081527f76203fab169061f503a4139455a7dfc20cc2d5a59c97d5bb810e431f4059aad7906020016115e2565b6001600160a01b03808316600090815260156020526040812060018101548154929391929116906120499060ff16600a615cb9565b816001600160a01b031663a035b1fe6040518163ffffffff1660e01b8152600401602060405180830381865afa158015612087573d6000803e3d6000fd5b505050506040513d601f19601f820116820180604052508101906120ab9190615cc8565b6120b59086615adc565b6120bf9190615afb565b95945050505050565b60606016600001805480602002602001604051908101604052809291908181526020018280548015611862576020028201919060005260206000209081546001600160a01b03168152600190910190602001808311611844575050505050905090565b6001600160a01b03808316600090815260136020908152604080832093851683526001840182528083205460029094019091529020545b9250929050565b612171613841565b600480546001600160a01b0319166001600160a01b0383169081179091556040519081527fa728e84b447788a55ff664fbfb5c3983925f88b80b672a1b0b8271c94b22df35906020016115e2565b6121c761386d565b6121cf613d06565b6121db60008311613d97565b6121ef6001600160a01b0382161515613d97565b6121fa83338461472a565b61220583838361476f565b61220f6000600155565b505050565b6122a4604051806101e00160405280600060ff16815260200160006001600160a01b0316815260200160006001600160a01b0316815260200160008152602001600081526020016000815260200160008152602001600081526020016000815260200160008152602001600081526020016000815260200160008152602001600081526020016000151581525090565b506001600160a01b0390811660009081526015602090815260409182902082516101e081018452815460ff8082168352610100918290048716948301949094526001830154909516938101939093526002810154606084015260038101546080840152600481015460a0840152600581015460c0840152600681015460e084015260078101549383019390935260088301546101208301526009830154610140830152600a830154610160830152600b830154610180830152600c8301546101a0830152600d9092015490911615156101c082015290565b612384613841565b612392612710821115613d97565b61239b826138c3565b6001600160a01b03821660008181526015602052604090819020600201839055517f75bfe099d672835dbb3c09443e8493c7f306b46d695f749eb0bcf7352bef0147906119369084815260200190565b60006123f561386d565b6123fd613d06565b61240960008411613d97565b61241d6001600160a01b0383161515613d97565b61242684614417565b61242f84613dfc565b6124388261400b565b6124418261480d565b6001600160a01b038216600090815260136020526040812054906124669082136139de565b60006124728683612b16565b905060008186116124835785612485565b815b6001600160a01b03881660009081526011602052604081209192506124a982613c8c565b9050808311156124d2578883826040516395e6194b60e01b81526004016112ed93929190615b34565b60006124de8a85611489565b90506124ed88611338836141e6565b6124f78385614389565b600754612511908b9033906001600160a01b031687614876565b60075460405163bc04f0af60e01b81526001600160a01b038c81166004830152602482018790529091169063bc04f0af90604401600060405180830381600087803b15801561255f57600080fd5b505af1158015612573573d6000803e3d6000fd5b5050604080518781526001600160a01b038c81166020830152918101859052908d1692503391507f7b56e0a28bd3c28702bc74e47867c0c083a31a2b90952ed60a91c4fbd5a0e9289060600160405180910390a350919450505050506114516000600155565b6001600160a01b03811660009081526013602052604081206060906125fd84613e94565b6003820180546040805160208084028201810190925282815291839183018282801561265257602002820191906000526020600020905b81546001600160a01b03168152600190910190602001808311612634575b505050505090509250925050915091565b60006114836016836145c2565b60008061267d84846136a5565b9050612689848261186c565b949350505050565b612699613841565b6126a283614417565b6001600160a01b03831660009081526011602052604090206126c390614422565b6001600160a01b03831660009081526011602052604090206126e6908383614439565b60408051838152602081018390526001600160a01b038516917f86d00f048da605f1d0b35d86d59306a26293721713d9d41eef94518316eb1834910161167f565b6001600160a01b0381166000908152601260205260408120819081906111c181613c8c565b600061275661386d565b61275e613d06565b6127726001600160a01b0383161515613d97565b61277b846138c3565b60006127898533868661498b565b9050612796858483613b6f565b90506114516000600155565b600054610100900460ff16158080156127c25750600054600160ff909116105b806127dc5750303b1580156127dc575060005460ff166001145b61283f5760405162461bcd60e51b815260206004820152602e60248201527f496e697469616c697a61626c653a20636f6e747261637420697320616c72656160448201526d191e481a5b9a5d1a585b1a5e995960921b60648201526084016112ed565b6000805460ff191660011790558015612862576000805461ff0019166101001790555b61287461271083608001511115613d97565b6020820151600280546001600160a01b03199081166001600160a01b0393841617909155835160038054831691841691909117905560408401516007805483169184169190911790556060840151600855608084015160095560a0840151600a80548316918416919091179055610120840151600b8054909216921691909117905560e082015161010083015160c0840151612911929190614a2a565b8051600c55602080820151600d55604080830151600e556060830151600f5560809092015160105560035491516001600160a01b0390921682527f54e4612788f90384e6843298d7854436f3a585b2c3831ab66abf1de63bfa6c2d910160405180910390a16007546040516001600160a01b0390911681527fe42bb1780117f5788c6e0042e955291223819875891ddf465b8e4fbb85a933e99060200160405180910390a17f6f428e543b1146a0996303f0250c6fe0682874c690989e63ae53bf75bed8ef6f6008546040516129e991815260200190565b60405180910390a17fd10d75876659a287a59a6ccfa2e3fff42f84d94b542837acd30bc184d562de40600954604051612a2491815260200190565b60405180910390a1600a546040516001600160a01b0390911681527f76203fab169061f503a4139455a7dfc20cc2d5a59c97d5bb810e431f4059aad79060200160405180910390a17f8353d6f6057b53994c31faf6112674bd84b37caab3af81c269080ae9904ebbeb8260e00151836101000151604051612aaf929190918252602082015260400190565b60405180910390a18015611198576000805461ff0019169055604051600181527f7f26b83ff96e1f2b6a682f133852f6798a09c465da95921460cefb384740249890602001610fe4565b612b01613d06565b612b0a826138c3565b61220f33848484614aee565b6001600160a01b0382166000908152601460205260408120600101546114519083615afb565b612b44613841565b612b52612710821115613d97565b60098190556040518181527fd10d75876659a287a59a6ccfa2e3fff42f84d94b542837acd30bc184d562de40906020016115e2565b6000806000612b96600c613c8c565b600d54600c5491959094509092509050565b6001600160a01b038216600090815260156020526040812060070154808203612bd45782915050611483565b80612bde856144f5565b612be89085615adc565b6126899190615afb565b6001600160a01b038116600090815260156020526040812054611483908390610c949060ff16600a615cb9565b612c2761386d565b612c2f613d06565b612c3b60008311613d97565b612c4f6001600160a01b0382161515613d97565b612c5a33838361476f565b6111986000600155565b612c6c61386d565b612c74613841565b601a80546001600160a01b0319166001600160a01b038316179055600060015550565b50565b612ca261386d565b612caa614b64565b612cb38261480d565b612cbd8282614210565b612c5a82614b8e565b600080612cd38484612ba8565b90506126898482612014565b6000612ce961386d565b612cf1613d06565b612d056001600160a01b0384161515613d97565b612d0e856138c3565b612d1785613e43565b6000612d258633878761498b565b9050612d33868286866139fc565b9150506126896000600155565b60006114836018836145c2565b6001600160a01b038116600090815260156020526040812054611483908390610bd49060ff16600a615cb9565b60608167ffffffffffffffff811115612d9557612d9561570a565b604051908082528060200260200182016040528015612dc857816020015b6060815260200190600190039081612db35790505b50905060005b82811015612ec85760008030868685818110612dec57612dec615b8e565b9050602002810190612dfe9190615ce1565b604051612e0c929190615d28565b600060405180830381855af49150503d8060008114612e47576040519150601f19603f3d011682016040523d82523d6000602084013e612e4c565b606091505b509150915081612e9757858584818110612e6857612e68615b8e565b9050602002810190612e7a9190615ce1565b8260405163070c497560e21b81526004016112ed93929190615d38565b80848481518110612eaa57612eaa615b8e565b6020026020010181905250505080612ec190615bbc565b9050612dce565b5092915050565b612ed7613841565b612eeb6001600160a01b0382161515613d97565b600780546001600160a01b0319166001600160a01b0383169081179091556040519081527fe42bb1780117f5788c6e0042e955291223819875891ddf465b8e4fbb85a933e9906020016115e2565b612f4161386d565b612f49613d06565b612f5281614c00565b612f5b8161400b565b612f648161480d565b612c976000600155565b612f7661386d565b612f7e613841565b612f8c611acf6016846145c2565b6000612f97836145e3565b600254909150600090612fb2906001600160a01b03166145e3565b9050612fc68160ff168360ff161115613d97565b60405180606001604052808360ff1681526020018383612fe69190615d76565b612ff190600a615cb9565b8152600060209182018190526001600160a01b0387168152601482526040908190208351815460ff90911660ff19918216178255848401516001830155938201516002909101805491151591909416179092556130579190850135908501358535614a2a565b6001600160a01b0385166000908152601160209081526040918290208351815590830151600182015590820151600282015560608083015160038301556080928301516004909201919091556130b9918501359060a086013590860135614a2a565b6001600160a01b038516600090815260126020908152604091829020835181559083015160018201559082015160028201556060820151600382015560809091015160049091015561310c6016856146c9565b506040516001600160a01b038516907f3a0e2b79f1e0c4867b78173318e64bad2dbf7be510d51198d37900e52de2bb8c90600090a250506111986000600155565b600061315761386d565b61315f613d06565b6131736001600160a01b0384161515613d97565b61317c856138c3565b61318585613e43565b61319186338787614c68565b600061319f8688878761498b565b90506131ad868286866139fc565b9150506120bf6000600155565b60006131c461386d565b6131cc613d06565b6131e06001600160a01b0384161515613d97565b6131e9856138c3565b60006131f6868685614cad565b9050612d33868286614d88565b61320b613841565b613215600c614422565b613221600c8383614439565b60408051838152602081018390527f8353d6f6057b53994c31faf6112674bd84b37caab3af81c269080ae9904ebbeb9101610fe4565b61325f613841565b6001600160a01b038216600081815260066020908152604091829020805460ff19168515159081179091558251938452908301527f8dd62d4e1f60b96148552898e743aa2b571686baa26f4f1b647565dc3996c1a79101610fe4565b6132c361386d565b6132cb613841565b6132d4816138c3565b6001600160a01b0381166000908152601560205260408120600501546132fb908390612014565b6001600160a01b0383166000818152601560205260409081902060080183905551919250907fccda4b864ea094cd2323d3a440088f1171a7c3e5c46d87f6baafabe470d614da9061334f9084815260200190565b60405180910390a250612c976000600155565b61336a61386d565b613372613841565b61337d6018836145c2565b156133a657604051635f8b555b60e11b81526001600160a01b03831660048201526024016112ed565b6133b16016836145c2565b156133da57604051635f8b555b60e11b81526001600160a01b03831660048201526024016112ed565b6003546133f29083906001600160a01b031683613b6f565b816001600160a01b03167fa85ff619388226c782b92d545a650f391a94dfff2dd1d6757db64e8e236d46e58260405161342d91815260200190565b60405180910390a26111986000600155565b61344761386d565b61344f613d06565b61345b60008211613d97565b61346482614e8f565b61346d3361480d565b3360009081526013602090815260408083206001600160a01b038616845260010182528083205460159092528220600701546134a99190615b1d565b9050806134be670de0b6b3a764000084615adc565b6134c89190615afb565b6001600160a01b0384166000908152601560205260408120600c0180549091906134f3908490615ba4565b90915550506001600160a01b038084166000818152601560209081526040808320600c015433808552601384528285209585526002958601909352922091909155905461354292169084614f0f565b61354d600c83614f42565b6040518281526001600160a01b0384169033907f88dcaca629d63d86330e97adc358b13dd0ebd703239aea96b7ea2fb331b16f4e9060200160405180910390a3506111986000600155565b60006135a261386d565b6135aa613d06565b6135be6001600160a01b0383161515613d97565b6135c7846138c3565b6135d385338686614c68565b60006135e18587868661498b565b90506135ee858483613b6f565b90506126896000600155565b613602613841565b61360b826138c3565b6001600160a01b03821660008181526015602052604090819020600301839055517f4bd29da0a205336da3aaf81eada8ef63426a1c923b4a434e54ac7f898fa53c9a906119369084815260200190565b600061366561386d565b61366d613d06565b6136816001600160a01b0383161515613d97565b61368a846138c3565b6000613697858585614d88565b905061279685333087614876565b6001600160a01b0380831660009081526015602090815260408083206001810154825163501ad8ff60e11b8152925194959194911692839263a035b1fe92600480830193928290030181865afa158015613703573d6000803e3d6000fd5b505050506040513d601f19601f820116820180604052508101906137279190615cc8565b82546120ab9060ff16600a615cb9565b600061374161386d565b613749613d06565b61375560008411613d97565b6137696001600160a01b0383161515613d97565b6137728261400b565b61377b8261480d565b6001600160a01b038216600090815260136020526040812054906137a09082136139de565b60008185116137af57846137b1565b815b90506137c084611338836141e6565b6002546137d7906001600160a01b03163383614f0f565b6137e2600c82614f42565b604080518281526001600160a01b038616602082015233917fdbdf9b8e4b75e75b162d151ec8fc7f0561cabab5fcccfa2600be62223e4300c4910160405180910390a29150506114836000600155565b6001600160a01b03163b151590565b6003546001600160a01b0316331461386b576040516282b42960e81b815260040160405180910390fd5b565b6001541561388e57604051632ecfcaf960e01b815260040160405180910390fd5b60018055565b3360009081526006602052604090205460ff1661386b576040516282b42960e81b815260040160405180910390fd5b6138ce6018826145c2565b612c9757604051635f8b555b60e11b81526001600160a01b03821660048201526024016112ed565b6001600160a01b0381166000908152601560205260408120600501549081900361391e575050565b600061392a8383612014565b6001600160a01b0384166000908152601560205260409020600801549091508082116139565750505050565b600061396685610f208486615b1d565b905080600003613977575050505050565b6001600160a01b038516600090815260156020526040812060050180548392906139a2908490615b1d565b90915550506001600160a01b038516600090815260156020526040812060060180548392906139d2908490615ba4565b90915550505050505050565b80612c9757604051634a613c4160e01b815260040160405180910390fd5b6001600160a01b03848116600090815260156020526040808220600101549051637647691d60e01b81526004810187905285841660248201529192169082908290637647691d906044016020604051808303816000875af1158015613a65573d6000803e3d6000fd5b505050506040513d601f19601f82011682018060405250810190613a899190615cc8565b905083811015613ab6576040516371c4efed60e01b815260048101829052602481018590526044016112ed565b9695505050505050565b6001600160a01b03821660009081526015602052604081206009810154600a8201549192909190613af086614f59565b90506000613afe8284615ba4565b613b089085615b1d565b90508115613b4a576007850154613b27670de0b6b3a764000084615adc565b613b319190615afb565b85600c016000828254613b449190615ba4565b90915550505b613b548187615ba4565b600986015550506000600a840155505043600b909101555050565b6040516001600160a01b03838116602483015260448201839052600091829186169063a9059cbb60e01b906064015b60408051601f198184030181529181526020820180516001600160e01b03166001600160e01b0319909416939093179092529051613bdc9190615d99565b6000604051808303816000865af19150503d8060008114613c19576040519150601f19603f3d011682016040523d82523d6000602084013e613c1e565b606091505b5091509150846001600160a01b03163b60001480613c3a575081155b80613c615750805115801590613c61575080806020019051810190613c5f9190615db5565b155b15613c855784828260405163e7e40b5b60e01b81526004016112ed93929190615dd2565b5050505050565b600080826003015443613c9f9190615b1d565b905080600003613cb25750506002015490565b6000670de0b6b3a7640000846001015483613ccd9190615adc565b613cd79190615afb565b90506000818560020154613ceb9190615ba4565b85549091508111613cfc57806120bf565b5050915492915050565b333203613d0f57565b600b54604051633af32abf60e01b81523360048201526001600160a01b0390911690633af32abf90602401602060405180830381865afa158015613d57573d6000803e3d6000fd5b505050506040513d601f19601f82011682018060405250810190613d7b9190615db5565b61386b576040516282b42960e81b815260040160405180910390fd5b80612c9757604051630134249960e71b815260040160405180910390fd5b6001600160a01b0381166000908152601560205260409020600d015460ff16612c97576040516303f585af60e31b81526001600160a01b03821660048201526024016112ed565b6001600160a01b03811660009081526014602052604090206002015460ff16612c97576040516303f585af60e31b81526001600160a01b03821660048201526024016112ed565b6000613e4e82615001565b6001600160a01b0383166000908152601560205260409020600201549091508082111561220f57828282604051635c1bc28160e01b81526004016112ed93929190615b34565b6001600160a01b0381166000908152601360205260408120805490600301825b8154811015611a86576000826000018281548110613ed457613ed4615b8e565b60009182526020808320909101546001600160a01b03908116808452601583526040808520600c0154928b168552601384528085208286526002019093529183205491935091613f2384614f59565b905060008111613f34576000613f6c565b6001600160a01b038416600090815260156020526040902060070154613f62670de0b6b3a764000083615adc565b613f6c9190615afb565b613f769084615ba4565b9250818303613f885750505050613ffb565b6001600160a01b03808a1660009081526013602090815260408083209388168352600190930190529081205490670de0b6b3a764000082613fc98688615b1d565b613fd39190615adc565b613fdd9190615afb565b9050613fe8816141e6565b613ff2908a615dfe565b98505050505050505b61400481615bbc565b9050613eb4565b6001600160a01b0381166000908152601360205260408120600301905b815481101561220f5761406382600001828154811061404957614049615b8e565b6000918252602090912001546001600160a01b0316614e8f565b61406c81615bbc565b9050614028565b6001600160a01b038083166000908152601360209081526040808320938516835260158252808320600c015460028501909252909120548082036140b8575050505050565b6001600160a01b038416600090815260018401602052604081205490670de0b6b3a7640000826140e88587615b1d565b6140f29190615adc565b6140fc9190615afb565b9050614107816141e6565b85600001600082825461411a9190615dfe565b9091555050506001600160a01b0390941660009081526002909301602052506040909120555050565b6001600160a01b0380841660009081526013602090815260408083209386168352600184019091528120805484929061417d908490615b1d565b90915550506001600160a01b038316600090815260156020526040812060070180548492906141ad908490615b1d565b90915550506001600160a01b038316600090815260018201602052604081205490036141e057613c856003820184615112565b50505050565b6000600160ff1b821061420c57604051630134249960e71b815260040160405180910390fd5b5090565b6001600160a01b038216600090815260136020526040812080549091839183919061423c908490615e3d565b9091555050505050565b60006114518284615b1d565b6001600160a01b03808416600090815260156020908152604080832081516101e081018352815460ff8082168352610100918290048816958301959095526001830154909616928101929092526002810154606083015260038101546080830152600481015460a0830152600581015460c0830152600681015460e083015260078101549482019490945260088401546101208201526009840154610140820152600a840154610160820152600b840154610180820152600c8401546101a0820152600d909301541615156101c083015261432d8585612014565b905060006143438360c00151868663ffffffff16565b9050600061435a846101200151848763ffffffff16565b6001600160a01b0390971660009081526015602052604090206005810192909255506008019490945550505050565b600061439483613c8c565b90506143a08282615b1d565b6002840155505043600390910155565b6001600160a01b03838116600081815260136020908152604080832094871680845260058601835292819020869055518581529192917f09cd9a2cf8d0dd3936aef63dae78b3085d8abaaec9311145115b15e5e3eaea41910160405180910390a350505050565b6138ce6016826145c2565b61442b81613c8c565b600282015543600390910155565b611c2081111561445c57604051630134249960e71b815260040160405180910390fd5b826004015482101561448157604051630134249960e71b815260040160405180910390fd5b818360020154111561449557600283018290555b818355806144ab670de0b6b3a764000084615adc565b6144b59190615afb565b8360010181905550505050565b6040516001600160a01b03838116602483015260448201839052600091829186169063095ea7b360e01b90606401613b9e565b6001600160a01b03811660009081526015602052604081206005810154808303614520579392505050565b600061452c8583612014565b6008840154909150808211614545575090949350505050565b600061455587610f208486615b1d565b90508060000361456a57509195945050505050565b6145748185615b1d565b979650505050505050565b6003546001600160a01b0316330361459357565b3360009081526005602052604090205460ff1661386b576040516282b42960e81b815260040160405180910390fd5b6001600160a01b031660009081526001919091016020526040902054151590565b60408051600481526024810182526020810180516001600160e01b031663313ce56760e01b1790529051600091829182916001600160a01b038616916146299190615d99565b600060405180830381855afa9150503d8060008114614664576040519150601f19603f3d011682016040523d82523d6000602084013e614669565b606091505b5091509150836001600160a01b03163b60001480614685575081155b80614691575060208151105b156146b55783828260405163e7e40b5b60e01b81526004016112ed93929190615dd2565b808060200190518101906126899190615e7e565b60006146d583836145c2565b156146e257506000611483565b508154600180820184556000848152602080822090930180546001600160a01b0319166001600160a01b03959095169485179055845493815293810190915260409092205590565b6001600160a01b03808416600090815260136020908152604080832093861683526005840190915281208054849290614764908490615b1d565b909155505050505050565b61477882615258565b61478183614c00565b61478a8361400b565b6147938361480d565b6147a083611341846141e6565b6147a983614b8e565b6147b4600c83614389565b6002546147cb906001600160a01b03168284615291565b604080518381526001600160a01b0383811660208301528516917fbcad3d7d3dfccb90d49c6063bf70f828901fefc88937d90af74e58e6e55bc39d910161167f565b6001600160a01b0381166000908152601360205260408120600301905b815481101561220f576148668383600001838154811061484c5761484c615b8e565b6000918252602090912001546001600160a01b0316614073565b61486f81615bbc565b905061482a565b604080516001600160a01b0385811660248301528481166044830152606480830185905283518084039091018152608490920183526020820180516001600160e01b03166323b872dd60e01b17905291516000928392908816916148da9190615d99565b6000604051808303816000865af19150503d8060008114614917576040519150601f19603f3d011682016040523d82523d6000602084013e61491c565b606091505b5091509150856001600160a01b03163b60001480614938575081155b8061495f575080511580159061495f57508080602001905181019061495d9190615db5565b155b156149835785828260405163e7e40b5b60e01b81526004016112ed93929190615dd2565b505050505050565b600061499684614c00565b61499f8461400b565b60006149ab8685612ba8565b90506149b68561480d565b6149c1858786614143565b6149ce8682614246614252565b6149d785614b8e565b604080518581526001600160a01b03858116602083015280891692908816917f3ed4ee04a905a278b050a856bbe7ddaaf327a30514373e65aa6103beeae488c3910160405180910390a395945050505050565b614a5c6040518060a0016040528060008152602001600081526020016000815260200160008152602001600081525090565b611c20831115614a7f57604051630134249960e71b815260040160405180910390fd5b81841015614aa057604051630134249960e71b815260040160405180910390fd5b6040518060a0016040528085815260200184670de0b6b3a764000087614ac69190615adc565b614ad09190615afb565b81526020018581526020014381526020018381525090509392505050565b6001600160a01b038481166000818152601360209081526040808320888616808552600682018452828520968916808652968452938290208790559051868152909493917f14d43ec44802545adffd2e9b5d923acf7ae9106d7774f3fd01a3af424e0f262e910160405180910390a45050505050565b601a546001600160a01b0316331461386b576040516282b42960e81b815260040160405180910390fd5b6001600160a01b038116600090815260136020526040812054908113614bb2575050565b600081670de0b6b3a7640000614bc7856119c7565b614bd19190615adc565b614bdb9190615afb565b905060085481101561220f5760405163fddafdf560e01b815260040160405180910390fd5b6001600160a01b0381166000908152601360205260408120600301905b815481101561220f57614c58826000018281548110614c3e57614c3e615b8e565b6000918252602090912001546001600160a01b03166138f6565b614c6181615bbc565b9050614c1d565b6001600160a01b0380851660009081526013602090815260408083208785168452600681018352818420948716845293909152812080548492906139d2908490615b1d565b6001600160a01b03808416600090815260156020526040812060018101548154929391929082169161010090910416614ce881333089614876565b604051629dd64160e51b8152600481018790523060248201526000906001600160a01b038416906313bac820906044016020604051808303816000875af1158015614d37573d6000803e3d6000fd5b505050506040513d601f19601f82011682018060405250810190614d5b9190615cc8565b905085811015614574576040516371c4efed60e01b815260048101829052602481018790526044016112ed565b6000614d9660008411613d97565b6001600160a01b0380851660009081526015602052604090208054909161010090910416614dc386613db5565b614dcc81613dfc565b614dd586613e43565b614dde866138f6565b614de78461400b565b614df18487614073565b6000614dfe8588886152c4565b9050614e0d87876153a5614252565b60038301546008840154811015614e3d5787878260405163a3528cf560e01b81526004016112ed93929190615b34565b604080518881526001600160a01b0388811660208301528a169133917f364bb76a44233df8584c690de6da7810626a5e77192f3ebc942c35bcb1add24f910160405180910390a3509695505050505050565b6001600160a01b038116600090815260156020526040812090614eb183614f59565b905080600003614ec057505050565b6007820154614ed7670de0b6b3a764000083615adc565b614ee19190615afb565b82600c016000828254614ef49190615ba4565b925050819055508082600a01600082825461423c9190615ba4565b6040516001600160a01b03838116602483015260448201839052600091829186169063079cc67960e41b90606401613b9e565b6000614f4d83613c8c565b90506143a08282615ba4565b6001600160a01b03811660009081526015602052604081206009810154808303614f87575060009392505050565b6004820154600a830154600b840154600083614fa38343615b1d565b614fad9190615adc565b9050670de0b6b3a76400008110614fcd57614fc88386615b1d565b614ff5565b82670de0b6b3a7640000614fe18388615adc565b614feb9190615afb565b614ff59190615b1d565b98975050505050505050565b6001600160a01b03808216600090815260156020908152604080832081516101e081018352815460ff8082168352610100918290048816958301959095526001830154909616928101929092526002810154606083015260038101546080830152600481015460a0830152600581015460c08301819052600682015460e084015260078201549583019590955260088101546101208301526009810154610140830152600a810154610160830152600b810154610180830152600c8101546101a0830152600d015490911615156101c0820152909182906150e3908590612014565b6101208301519091508181116150fa5760006120bf565b806127106151088483615b1d565b6120b59190615adc565b6001600160a01b038116600090815260018301602052604081205480820361513e576000915050611483565b8061514881615ea1565b85549092506000915061515d90600190615b1d565b90508082146151fd57600085600001828154811061517d5761517d615b8e565b60009182526020909120015486546001600160a01b03909116915081908790859081106151ac576151ac615b8e565b600091825260209091200180546001600160a01b0319166001600160a01b03929092169190911790556151e0836001615ba4565b6001600160a01b0390911660009081526001870160205260409020555b845485908061520e5761520e615eb8565b60008281526020808220600019908401810180546001600160a01b03191690559092019092556001600160a01b039590951681526001958601909452505060408220919091555090565b6000615264600c613c8c565b905080821115611198576040516313d73d6b60e01b815260048101839052602481018290526044016112ed565b6040516001600160a01b0383811660248301526044820183905260009182918616906340c10f1960e01b90606401613b9e565b6000806152d1848461186c565b6001600160a01b038087166000908152601360209081526040808320938916835260019093019052908120549192500361532c576001600160a01b038516600090815260136020526040902061532a90600301856146c9565b505b6001600160a01b0380861660009081526013602090815260408083209388168352600190930190529081208054839290615367908490615ba4565b90915550506001600160a01b03841660009081526015602052604081206007018054839290615397908490615ba4565b909155509095945050505050565b60006114518284615ba4565b6001600160a01b0381168114612c9757600080fd5b80356153d1816153b1565b919050565b8015158114612c9757600080fd5b600080604083850312156153f757600080fd5b8235615402816153b1565b91506020830135615412816153d6565b809150509250929050565b6000806040838503121561543057600080fd5b823561543b816153b1565b946020939093013593505050565b60006020828403121561545b57600080fd5b8135611451816153b1565b60008060006060848603121561547b57600080fd5b8335615486816153b1565b95602085013595506040909401359392505050565b600080604083850312156154ae57600080fd5b82356154b9816153b1565b91506020830135615412816153b1565b6000602082840312156154db57600080fd5b5035919050565b600081518084526020808501945080840160005b8381101561551b5781516001600160a01b0316875295820195908201906001016154f6565b509495945050505050565b60208152600061145160208301846154e2565b60008082840360a081121561554d57600080fd5b8335615558816153b1565b92506080601f198201121561556c57600080fd5b506020830190509250929050565b60008060006060848603121561558f57600080fd5b833561559a816153b1565b92506020840135915060408401356155b1816153b1565b809150509250925092565b60005b838110156155d75781810151838201526020016155bf565b838111156141e05750506000910152565b600081518084526156008160208601602086016155bc565b601f01601f19169290920160200192915050565b60208152600061145160208301846155e8565b815160ff1681526101e08101602083015161564d60208401826001600160a01b03169052565b50604083015161566860408401826001600160a01b03169052565b50606083810151908301526080808401519083015260a0808401519083015260c0808401519083015260e08084015190830152610100808401519083015261012080840151908301526101408084015190830152610160808401519083015261018080840151908301526101a080840151908301526101c0928301511515929091019190915290565b82815260406020820152600061268960408301846154e2565b634e487b7160e01b600052604160045260246000fd5b604051610140810167ffffffffffffffff8111828210171561575257634e487b7160e01b600052604160045260246000fd5b60405290565b6000610140828403121561576b57600080fd5b615773615720565b61577c836153c6565b815261578a602084016153c6565b602082015261579b604084016153c6565b604082015260608301356060820152608083013560808201526157c060a084016153c6565b60a082015260c083013560c082015260e083013560e08201526101008084013581830152506101206157f38185016153c6565b908201529392505050565b60008060006060848603121561581357600080fd5b833561581e816153b1565b9250602084013561582e816153b1565b929592945050506040919091013590565b60008060006060848603121561585457600080fd5b833561585f816153b1565b9250602084013561586f816153b1565b915060408401356155b1816153b1565b6000806040838503121561589257600080fd5b823591506020830135615412816153b1565b600080600080608085870312156158ba57600080fd5b84356158c5816153b1565b93506020850135925060408501356158dc816153b1565b9396929550929360600135925050565b600080602083850312156158ff57600080fd5b823567ffffffffffffffff8082111561591757600080fd5b818501915085601f83011261592b57600080fd5b81358181111561593a57600080fd5b8660208260051b850101111561594f57600080fd5b60209290920196919550909350505050565b6000602080830181845280855180835260408601915060408160051b870101925083870160005b828110156159b657603f198886030184526159a48583516155e8565b94509285019290850190600101615988565b5092979650505050505050565b60008082840360e08112156159d757600080fd5b83356159e2816153b1565b925060c0601f198201121561556c57600080fd5b600080600080600060a08688031215615a0e57600080fd5b8535615a19816153b1565b94506020860135615a29816153b1565b9350604086013592506060860135615a40816153b1565b949793965091946080013592915050565b60008060408385031215615a6457600080fd5b50508035926020909101359150565b60008060008060808587031215615a8957600080fd5b8435615a94816153b1565b93506020850135615aa4816153b1565b9250604085013591506060850135615abb816153b1565b939692955090935050565b634e487b7160e01b600052601160045260246000fd5b6000816000190483118215151615615af657615af6615ac6565b500290565b600082615b1857634e487b7160e01b600052601260045260246000fd5b500490565b600082821015615b2f57615b2f615ac6565b500390565b6001600160a01b039390931683526020830191909152604082015260600190565b6000600160ff1b8201615b6a57615b6a615ac6565b5060000390565b600060208284031215615b8357600080fd5b8151611451816153b1565b634e487b7160e01b600052603260045260246000fd5b60008219821115615bb757615bb7615ac6565b500190565b600060018201615bce57615bce615ac6565b5060010190565b600181815b80851115615c10578160001904821115615bf657615bf6615ac6565b80851615615c0357918102915b93841c9390800290615bda565b509250929050565b600082615c2757506001611483565b81615c3457506000611483565b8160018114615c4a5760028114615c5457615c70565b6001915050611483565b60ff841115615c6557615c65615ac6565b50506001821b611483565b5060208310610133831016604e8410600b8410161715615c93575081810a611483565b615c9d8383615bd5565b8060001904821115615cb157615cb1615ac6565b029392505050565b600061145160ff841683615c18565b600060208284031215615cda57600080fd5b5051919050565b6000808335601e19843603018112615cf857600080fd5b83018035915067ffffffffffffffff821115615d1357600080fd5b60200191503681900382131561216257600080fd5b8183823760009101908152919050565b60408152826040820152828460608301376000606084830101526000601f19601f85011682016060838203016020840152613ab660608201856155e8565b600060ff821660ff841680821015615d9057615d90615ac6565b90039392505050565b60008251615dab8184602087016155bc565b9190910192915050565b600060208284031215615dc757600080fd5b8151611451816153d6565b6001600160a01b038416815282151560208201526060604082018190526000906120bf908301846155e8565b60008083128015600160ff1b850184121615615e1c57615e1c615ac6565b6001600160ff1b0384018313811615615e3757615e37615ac6565b50500390565b600080821280156001600160ff1b0384900385131615615e5f57615e5f615ac6565b600160ff1b8390038412811615615e7857615e78615ac6565b50500190565b600060208284031215615e9057600080fd5b815160ff8116811461145157600080fd5b600081615eb057615eb0615ac6565b506000190190565b634e487b7160e01b600052603160045260246000fdfea2646970667358221220e8b571222a141f080a979f9b3a69351359cc81ad058b7d55aa610bfe1d18f88d64736f6c634300080d0033",
  "devdoc": {
    "author": "Alchemix Finance",
    "errors": {
      "ERC20CallFailed(address,bool,bytes)": [
        {
          "params": {
            "data": "The resulting data from the call. This is error data when the call was not a success. Otherwise,                this is malformed data when the call was a success.",
            "success": "If the call to the token was a success.",
            "target": "The target address."
          }
        }
      ],
      "ExpectedValueExceeded(address,uint256,uint256)": [
        {
          "params": {
            "expectedValue": "The expected value measured in units of the underlying token.",
            "maximumExpectedValue": "The maximum expected value permitted measured in units of the underlying token.",
            "yieldToken": "The address of the yield token."
          }
        }
      ],
      "LiquidationLimitExceeded(address,uint256,uint256)": [
        {
          "params": {
            "amount": "The amount of underlying tokens that were requested to be liquidated.",
            "available": "The amount of underlying tokens that are available to be liquidated.",
            "underlyingToken": "The address of the underlying token."
          }
        }
      ],
      "LossExceeded(address,uint256,uint256)": [
        {
          "params": {
            "loss": "The amount of loss measured in basis points.",
            "maximumLoss": "The maximum amount of loss permitted measured in basis points.",
            "yieldToken": "The address of the yield token."
          }
        }
      ],
      "MintingLimitExceeded(uint256,uint256)": [
        {
          "params": {
            "amount": "The amount of debt tokens that were requested to be minted.",
            "available": "The amount of debt tokens which are available to mint."
          }
        }
      ],
      "RepayLimitExceeded(address,uint256,uint256)": [
        {
          "params": {
            "amount": "The amount of underlying tokens that were requested to be repaid.",
            "available": "The amount of underlying tokens that are available to be repaid.",
            "underlyingToken": "The address of the underlying token."
          }
        }
      ],
      "SlippageExceeded(uint256,uint256)": [
        {
          "params": {
            "amount": "The amount of underlying or yield tokens returned by the operation.",
            "minimumAmountOut": "The minimum amount of the underlying or yield token that was expected when performing                         the operation."
          }
        }
      ],
      "TokenDisabled(address)": [
        {
          "params": {
            "token": "The address of the token."
          }
        }
      ],
      "UnsupportedToken(address)": [
        {
          "params": {
            "token": "The address of the token."
          }
        }
      ]
    },
    "kind": "dev",
    "methods": {
      "acceptAdmin()": {
        "details": "This is the second step in the two-step process of setting a new administrator. After this function is successfully called, this pending administrator will be reset and the new administrator will be set."
      },
      "accounts(address)": {
        "params": {
          "owner": "The address that owns the account."
        },
        "returns": {
          "debt": "           The unrealized amount of debt that the account had incurred.",
          "depositedTokens": "The yield tokens that the owner has deposited."
        }
      },
      "addUnderlyingToken(address,(uint256,uint256,uint256,uint256,uint256,uint256))": {
        "params": {
          "config": "The initial underlying token configuration.",
          "underlyingToken": "The address of the underlying token to add."
        }
      },
      "addYieldToken(address,(address,uint256,uint256,uint256))": {
        "params": {
          "config": "The initial yield token configuration.",
          "yieldToken": "The address of the yield token to add."
        }
      },
      "approveMint(address,uint256)": {
        "params": {
          "amount": "The amount of tokens that `spender` will be allowed to mint.",
          "spender": "The address that will be approved to mint."
        }
      },
      "approveWithdraw(address,address,uint256)": {
        "params": {
          "shares": "The amount of shares that `spender` will be allowed to withdraw.",
          "spender": "The address that will be approved to withdraw.",
          "yieldToken": "The address of the yield token that `spender` will be allowed to withdraw."
        }
      },
      "burn(uint256,address)": {
        "params": {
          "amount": "The amount of tokens to burn.",
          "recipient": "The address of the recipient."
        },
        "returns": {
          "_0": "The amount of tokens that were burned."
        }
      },
      "configureCreditUnlockRate(address,uint256)": {
        "params": {
          "blocks": "The number of blocks that it will take before the credit will be unlocked.",
          "yieldToken": "The address of the yield token to set the credit unlock rate for."
        }
      },
      "configureLiquidationLimit(address,uint256,uint256)": {
        "params": {
          "blocks": "The number of blocks it will take for the maximum liquidation limit to be replenished when it is completely exhausted.",
          "maximum": "The maximum liquidation limit.",
          "underlyingToken": "The address of the underlying token to configure the liquidation limit of."
        }
      },
      "configureMintingLimit(uint256,uint256)": {
        "params": {
          "blocks": "The number of blocks it will take for the maximum minting limit to be replenished when it is completely exhausted.",
          "maximum": "The maximum minting limit."
        }
      },
      "configureRepayLimit(address,uint256,uint256)": {
        "params": {
          "blocks": "The number of blocks it will take for the maximum repayment limit to be replenished when it is completely exhausted.",
          "maximum": "The maximum repay limit.",
          "underlyingToken": "The address of the underlying token to configure the repay limit of."
        }
      },
      "convertSharesToUnderlyingTokens(address,uint256)": {
        "details": "Gets the amount of underlying tokens that `shares` shares of `yieldToken` is exchangeable for.",
        "params": {
          "shares": "The amount of shares.",
          "yieldToken": "The address of the yield token."
        },
        "returns": {
          "_0": "The amount of underlying tokens."
        }
      },
      "convertSharesToYieldTokens(address,uint256)": {
        "details": "Gets the amount of yield tokens that `shares` shares of `yieldToken` is exchangeable for.",
        "params": {
          "shares": "The amount of shares.",
          "yieldToken": "The address of the yield token."
        },
        "returns": {
          "_0": "The amount of yield tokens."
        }
      },
      "convertUnderlyingTokensToShares(address,uint256)": {
        "details": "Gets the amount of shares of `yieldToken` that `amount` of its underlying token is exchangeable for.",
        "params": {
          "amount": "The amount of underlying tokens.",
          "yieldToken": "The address of the yield token."
        },
        "returns": {
          "_0": "The amount of shares."
        }
      },
      "convertUnderlyingTokensToYield(address,uint256)": {
        "details": "Gets the amount of `yieldToken` that `amount` of its underlying token is exchangeable for.",
        "params": {
          "amount": "The amount of underlying tokens.",
          "yieldToken": "The address of the yield token."
        },
        "returns": {
          "_0": "The amount of yield tokens."
        }
      },
      "convertYieldTokensToShares(address,uint256)": {
        "details": "Gets the amount of shares that `amount` of `yieldToken` is exchangeable for.",
        "params": {
          "amount": "The amount of yield tokens.",
          "yieldToken": "The address of the yield token."
        },
        "returns": {
          "_0": "The number of shares."
        }
      },
      "convertYieldTokensToUnderlying(address,uint256)": {
        "details": "Gets the amount of an underlying token that `amount` of `yieldToken` is exchangeable for.",
        "params": {
          "amount": "The amount of yield tokens.",
          "yieldToken": "The address of the yield token."
        },
        "returns": {
          "_0": "The amount of underlying tokens."
        }
      },
      "deposit(address,uint256,address)": {
        "params": {
          "amount": "The amount of yield tokens to deposit.",
          "recipient": "The owner of the account that will receive the resulting shares.",
          "yieldToken": "The yield-token to deposit."
        },
        "returns": {
          "_0": "The number of shares issued to `recipient`."
        }
      },
      "depositUnderlying(address,uint256,address,uint256)": {
        "params": {
          "amount": "The amount of the underlying token to deposit.",
          "minimumAmountOut": "The minimum amount of yield tokens that are expected to be deposited to `recipient`.",
          "recipient": "The address of the recipient.",
          "yieldToken": "The address of the yield token to wrap the underlying tokens into."
        },
        "returns": {
          "_0": "The number of shares issued to `recipient`."
        }
      },
      "donate(address,uint256)": {
        "params": {
          "amount": "The amount of debt tokens to burn.",
          "yieldToken": "The address of the yield token to credit accounts for."
        }
      },
      "getLiquidationLimitInfo(address)": {
        "params": {
          "underlyingToken": "The address of the underlying token."
        },
        "returns": {
          "currentLimit": "The current amount of underlying tokens that can be liquidated.",
          "maximum": "     The highest possible maximum amount of debt tokens that can be liquidated at a time.",
          "rate": "        The rate at which the function increases back to its maximum limit (tokens / block)."
        }
      },
      "getMintLimitInfo()": {
        "returns": {
          "currentLimit": "The current amount of debt tokens that can be minted.",
          "maximum": "     The highest possible maximum amount of debt tokens that can be minted at a time.",
          "rate": "        The maximum possible amount of tokens that can be liquidated at a time."
        }
      },
      "getRepayLimitInfo(address)": {
        "params": {
          "underlyingToken": "The address of the underlying token."
        },
        "returns": {
          "currentLimit": "The current amount of underlying tokens that can be repaid.",
          "maximum": "     The maximum possible amount of tokens that can be repaid at a time.",
          "rate": "        The rate at which the the current limit increases back to its maximum in tokens per block."
        }
      },
      "getSupportedUnderlyingTokens()": {
        "details": "The order of the entries returned by this function is not guaranteed to be consistent between calls.",
        "returns": {
          "_0": "The supported underlying tokens."
        }
      },
      "getSupportedYieldTokens()": {
        "details": "The order of the entries returned by this function is not guaranteed to be consistent between calls.",
        "returns": {
          "_0": "The supported yield tokens."
        }
      },
      "getUnderlyingTokenParameters(address)": {
        "params": {
          "underlyingToken": "The address of the underlying token."
        },
        "returns": {
          "_0": "The underlying token parameters."
        }
      },
      "getUnderlyingTokensPerShare(address)": {
        "params": {
          "yieldToken": "The address of the yield token to get the conversion rate for."
        },
        "returns": {
          "_0": "The rate of underlying tokens per share."
        }
      },
      "getYieldTokenParameters(address)": {
        "params": {
          "yieldToken": "The address of the yield token."
        },
        "returns": {
          "_0": "The yield token parameters."
        }
      },
      "getYieldTokensPerShare(address)": {
        "params": {
          "yieldToken": "The address of the yield token to get the conversion rate for."
        },
        "returns": {
          "_0": "The rate of yield tokens per share."
        }
      },
      "harvest(address,uint256)": {
        "params": {
          "minimumAmountOut": "The minimum amount of underlying tokens that are expected to be withdrawn to `recipient`.",
          "yieldToken": "The address of the yield token to harvest."
        }
      },
      "initialize((address,address,address,uint256,uint256,address,uint256,uint256,uint256,address))": {
        "params": {
          "params": "The contract initialization parameters."
        }
      },
      "isSupportedUnderlyingToken(address)": {
        "params": {
          "underlyingToken": "The address of the underlying token to check."
        },
        "returns": {
          "_0": "If the underlying token is supported."
        }
      },
      "isSupportedYieldToken(address)": {
        "params": {
          "yieldToken": "The address of the yield token to check."
        },
        "returns": {
          "_0": "If the yield token is supported."
        }
      },
      "liquidate(address,uint256,uint256)": {
        "params": {
          "minimumAmountOut": "The minimum amount of underlying tokens that are expected to be liquidated.",
          "shares": "The number of shares to burn for credit.",
          "yieldToken": "The address of the yield token to liquidate."
        },
        "returns": {
          "_0": "The amount of shares that were liquidated."
        }
      },
      "mint(uint256,address)": {
        "params": {
          "amount": "The amount of tokens to mint.",
          "recipient": "The address of the recipient."
        }
      },
      "mintAllowance(address,address)": {
        "params": {
          "owner": "The owner of the account.",
          "spender": "The address which is allowed to mint on behalf of `owner`."
        },
        "returns": {
          "_0": "The amount of debt tokens that `spender` can mint on behalf of `owner`."
        }
      },
      "mintFrom(address,uint256,address)": {
        "params": {
          "amount": "The amount of tokens to mint.",
          "owner": "The address of the owner of the account to mint from.",
          "recipient": "The address of the recipient."
        }
      },
      "normalizeDebtTokensToUnderlying(address,uint256)": {
        "details": "Normalize `amount` of the debt token to a value which is comparable to units of `underlyingToken`.This operation will result in truncation of some of the least significant digits of `amount`. This      truncation amount will be the least significant N digits where N is the difference in decimals between      the debt token and the underlying token.",
        "params": {
          "amount": "The amount of the debt token.",
          "underlyingToken": "The address of the underlying token."
        },
        "returns": {
          "_0": "The normalized amount."
        }
      },
      "normalizeUnderlyingTokensToDebt(address,uint256)": {
        "details": "Normalize `amount` of `underlyingToken` to a value which is comparable to units of the debt token.",
        "params": {
          "amount": "The amount of the debt token.",
          "underlyingToken": "The address of the underlying token."
        },
        "returns": {
          "_0": "The normalized amount."
        }
      },
      "poke(address)": {
        "params": {
          "owner": "The owner of the account to synchronize."
        }
      },
      "positions(address,address)": {
        "params": {
          "owner": "The address that owns the account.",
          "yieldToken": "The address of the yield token to get the position of."
        },
        "returns": {
          "lastAccruedWeight": "The last recorded accrued weight of the yield token.",
          "shares": "           The amount of shares of that `owner` owns of the yield token."
        }
      },
      "repay(address,uint256,address)": {
        "params": {
          "amount": "The amount of the underlying token to repay.",
          "recipient": "The address of the recipient which will receive credit.",
          "underlyingToken": "The address of the underlying token to repay."
        },
        "returns": {
          "_0": "The amount of tokens that were repaid."
        }
      },
      "setKeeper(address,bool)": {
        "params": {
          "flag": "A flag indicating of the address should be set or unset as a keeper.",
          "keeper": "The address to set or unset as a keeper."
        }
      },
      "setMaximumExpectedValue(address,uint256)": {
        "params": {
          "value": "The maximum expected value of the yield token denoted measured in its underlying token.",
          "yieldToken": "The address of the yield token to set the maximum expected value for."
        }
      },
      "setMaximumLoss(address,uint256)": {
        "details": "There are two types of loss of value for yield bearing assets: temporary or permanent. The system will automatically restrict actions which are sensitive to both forms of loss when detected. For example, deposits must be restricted when an excessive loss is encountered to prevent users from having their collateral harvested from them. While the user would receive credit, which then could be exchanged for value equal to the collateral that was harvested from them, it is seen as a negative user experience because the value of their collateral should have been higher than what was originally recorded when they made their deposit.",
        "params": {
          "value": "The value to set the maximum loss to. This is in units of basis points.",
          "yieldToken": "The address of the yield bearing token to set the maximum loss for."
        }
      },
      "setMinimumCollateralization(uint256)": {
        "params": {
          "value": "The new minimum collateralization ratio."
        }
      },
      "setPendingAdmin(address)": {
        "details": "This is the first step in the two-step process of setting a new administrator. After this function is called, the pending administrator will then need to call {acceptAdmin} to complete the process.",
        "params": {
          "value": "the address to set the pending admin to."
        }
      },
      "setProtocolFee(uint256)": {
        "params": {
          "value": "The value to set the protocol fee to measured in basis points."
        }
      },
      "setProtocolFeeReceiver(address)": {
        "params": {
          "value": "The address to set the protocol fee receiver to."
        }
      },
      "setSentinel(address,bool)": {
        "params": {
          "flag": "A flag indicating of the address should be set or unset as a sentinel.",
          "sentinel": "The address to set or unset as a sentinel."
        }
      },
      "setTokenAdapter(address,address)": {
        "params": {
          "adapter": "The address to set the token adapter to.",
          "yieldToken": "The address of the yield token to set the adapter for."
        }
      },
      "setTransferAdapterAddress(address)": {
        "params": {
          "transferAdapterAddress": "The address of the V1 transfer adapter to be set in the alchemist."
        }
      },
      "setTransmuter(address)": {
        "params": {
          "value": "The address of the transmuter."
        }
      },
      "setUnderlyingTokenEnabled(address,bool)": {
        "params": {
          "enabled": "If the underlying token should be enabled or disabled.",
          "underlyingToken": "The address of the underlying token to enable or disable."
        }
      },
      "setYieldTokenEnabled(address,bool)": {
        "params": {
          "enabled": "If the underlying token should be enabled or disabled.",
          "yieldToken": "The address of the yield token to enable or disable."
        }
      },
      "snap(address)": {
        "details": "This function should only be used in the event of a loss in the target yield-token. For example, say a third-party protocol experiences a fifty percent loss. The expected value (amount of underlying tokens) of the yield tokens being held by the system would be two times the real value that those yield tokens could be redeemed for. This function gives governance a way to realize those losses so that users can continue using the token as normal.",
        "params": {
          "yieldToken": "The address of the yield token to snap."
        }
      },
      "sweepTokens(address,uint256)": {
        "params": {
          "amount": "The amount of 'rewardToken' to sweep to the admin.",
          "rewardToken": "The address of the reward token to snap."
        }
      },
      "totalValue(address)": {
        "details": "Gets the total value of the deposit collateral measured in debt tokens of the account owned by `owner`.",
        "params": {
          "owner": "The address of the account owner."
        },
        "returns": {
          "_0": "The total value."
        }
      },
      "transferDebtV1(address,int256)": {
        "params": {
          "debt": "The amount of debt incoming from the V1 tranfer adapter.",
          "owner": "The owner of the account whos debt to increase."
        }
      },
      "withdraw(address,uint256,address)": {
        "params": {
          "recipient": "The address of the recipient.",
          "shares": "The number of shares to burn.",
          "yieldToken": "The address of the yield token to withdraw."
        },
        "returns": {
          "_0": "The number of yield tokens that were withdrawn to `recipient`."
        }
      },
      "withdrawAllowance(address,address,address)": {
        "params": {
          "owner": "The owner of the account.",
          "spender": "The address which is allowed to withdraw on behalf of `owner`.",
          "yieldToken": "The address of the yield token."
        },
        "returns": {
          "_0": "The amount of shares that `spender` can withdraw on behalf of `owner`."
        }
      },
      "withdrawFrom(address,address,uint256,address)": {
        "params": {
          "owner": "The address of the account owner to withdraw from.",
          "recipient": "The address of the recipient.",
          "shares": "The number of shares to burn.",
          "yieldToken": "The address of the yield token to withdraw."
        },
        "returns": {
          "_0": "The number of yield tokens that were withdrawn to `recipient`."
        }
      },
      "withdrawUnderlying(address,uint256,address,uint256)": {
        "params": {
          "minimumAmountOut": "The minimum amount of underlying tokens that are expected to be withdrawn to `recipient`.",
          "recipient": "The address of the recipient.",
          "shares": "The number of shares to burn.",
          "yieldToken": "The address of the yield token to withdraw."
        },
        "returns": {
          "_0": "The number of underlying tokens that were withdrawn to `recipient`."
        }
      },
      "withdrawUnderlyingFrom(address,address,uint256,address,uint256)": {
        "params": {
          "minimumAmountOut": "The minimum amount of underlying tokens that are expected to be withdrawn to `recipient`.",
          "owner": "The address of the account owner to withdraw from.",
          "recipient": "The address of the recipient.",
          "shares": "The number of shares to burn.",
          "yieldToken": "The address of the yield token to withdraw."
        },
        "returns": {
          "_0": "The number of underlying tokens that were withdrawn to `recipient`."
        }
      }
    },
    "stateVariables": {
      "_accounts": {
        "details": "Accounts mapped by the address that owns them."
      },
      "_mintingLimiter": {
        "details": "A linear growth function that limits the amount of debt-token minted."
      },
      "_supportedUnderlyingTokens": {
        "details": "An iterable set of the underlying tokens that are supported by the system."
      },
      "_supportedYieldTokens": {
        "details": "An iterable set of the yield tokens that are supported by the system."
      },
      "_underlyingTokens": {
        "details": "Underlying token parameters mapped by token address."
      },
      "_yieldTokens": {
        "details": "Yield token parameters mapped by token address."
      },
      "admin": {
        "return": "The admin address.",
        "returns": {
          "_0": "The admin address."
        }
      },
      "debtToken": {
        "return": "The address of the debt token.",
        "returns": {
          "_0": "The address of the debt token."
        }
      },
      "keepers": {
        "params": {
          "keeper": "The address to check."
        },
        "return": "If the address is a keeper",
        "returns": {
          "_0": "If the address is a keeper"
        }
      },
      "minimumCollateralization": {
        "details": "The value returned is a 18 decimal fixed point integer.",
        "return": "The minimum collateralization.",
        "returns": {
          "_0": "The minimum collateralization."
        }
      },
      "pendingAdmin": {
        "return": "The pending administrator address.",
        "returns": {
          "_0": "The pending administrator address."
        }
      },
      "protocolFee": {
        "return": "The protocol fee.",
        "returns": {
          "_0": "The protocol fee."
        }
      },
      "protocolFeeReceiver": {
        "return": "The protocol fee receiver.",
        "returns": {
          "_0": "The protocol fee receiver."
        }
      },
      "sentinels": {
        "params": {
          "sentinel": "The address to check."
        },
        "return": "If the address is a sentinel.",
        "returns": {
          "_0": "If the address is a sentinel."
        }
      },
      "transferAdapter": {
        "return": "The transfer adapter address.",
        "returns": {
          "_0": "The transfer adapter address."
        }
      },
      "transmuter": {
        "return": "The transmuter address.",
        "returns": {
          "_0": "The transmuter address."
        }
      },
      "version": {
        "return": "The version.",
        "returns": {
          "_0": "The version."
        }
      },
      "whitelist": {
        "return": "The address of the whitelist contract.",
        "returns": {
          "_0": "The address of the whitelist contract."
        }
      }
    },
    "title": "AlchemistV2",
    "version": 1
  },
  "userdoc": {
    "errors": {
      "ERC20CallFailed(address,bool,bytes)": [
        {
          "notice": "An error used to indicate that a call to an ERC20 contract failed."
        }
      ],
      "ExpectedValueExceeded(address,uint256,uint256)": [
        {
          "notice": "An error which is used to indicate that an operation failed because the expected value of a yield token in the system exceeds the maximum value permitted."
        }
      ],
      "IllegalArgument()": [
        {
          "notice": "An error used to indicate that an action could not be completed because of an illegal argument was passed         to the function."
        }
      ],
      "IllegalState()": [
        {
          "notice": "An error used to indicate that an action could not be completed because the contract either already existed         or entered an illegal condition which is not recoverable from."
        }
      ],
      "LiquidationLimitExceeded(address,uint256,uint256)": [
        {
          "notice": "An error which is used to indicate that an repay operation failed because the liquidation limit for an underlying token has been exceeded."
        }
      ],
      "LockAlreadyClaimed()": [
        {
          "notice": "An error which is thrown when a lock is attempted to be claimed before it has been freed."
        }
      ],
      "LossExceeded(address,uint256,uint256)": [
        {
          "notice": "An error which is used to indicate that an operation failed because the loss that a yield token in the system exceeds the maximum value permitted."
        }
      ],
      "MintingLimitExceeded(uint256,uint256)": [
        {
          "notice": "An error which is used to indicate that a minting operation failed because the minting limit has been exceeded."
        }
      ],
      "RepayLimitExceeded(address,uint256,uint256)": [
        {
          "notice": "An error which is used to indicate that an repay operation failed because the repay limit for an underlying token has been exceeded."
        }
      ],
      "SlippageExceeded(uint256,uint256)": [
        {
          "notice": "An error which is used to indicate that the slippage of a wrap or unwrap operation was exceeded."
        }
      ],
      "TokenDisabled(address)": [
        {
          "notice": "An error which is used to indicate that an operation failed because it tried to operate on a token that has been disabled."
        }
      ],
      "Unauthorized()": [
        {
          "notice": "An error used to indicate that an action could not be completed because either the `msg.sender` or         `msg.origin` is not authorized."
        }
      ],
      "Undercollateralized()": [
        {
          "notice": "An error which is used to indicate that an operation failed because an account became undercollateralized."
        }
      ],
      "UnsupportedToken(address)": [
        {
          "notice": "An error which is used to indicate that an operation failed because it tried to operate on a token that the system did not recognize."
        }
      ]
    },
    "events": {
      "AddUnderlyingToken(address)": {
        "notice": "Emitted when an underlying token is added."
      },
      "AddYieldToken(address)": {
        "notice": "Emitted when a yield token is added."
      },
      "AdminUpdated(address)": {
        "notice": "Emitted when the administrator is updated."
      },
      "ApproveMint(address,address,uint256)": {
        "notice": "Emitted when `owner` grants `spender` the ability to mint debt tokens on its behalf."
      },
      "ApproveWithdraw(address,address,address,uint256)": {
        "notice": "Emitted when `owner` grants `spender` the ability to withdraw `yieldToken` from its account."
      },
      "Burn(address,uint256,address)": {
        "notice": "Emitted when `sender` burns `amount` debt tokens to grant credit to `recipient`."
      },
      "CreditUnlockRateUpdated(address,uint256)": {
        "notice": "Emitted when the credit unlock rate is updated."
      },
      "Deposit(address,address,uint256,address)": {
        "notice": "Emitted when a user deposits `amount of `yieldToken` to `recipient`.This event does not imply that `sender` directly deposited yield tokens. It is possible that the         underlying tokens were wrapped."
      },
      "Donate(address,address,uint256)": {
        "notice": "Emitted when `sender` burns `amount` debt tokens to grant credit to users who have deposited `yieldToken`."
      },
      "Harvest(address,uint256,uint256,uint256)": {
        "notice": "Emitted when `yieldToken` is harvested."
      },
      "KeeperSet(address,bool)": {
        "notice": "Emitted when an address is set or unset as a keeper."
      },
      "Liquidate(address,address,address,uint256,uint256)": {
        "notice": "Emitted when `sender` liquidates `share` shares of `yieldToken`."
      },
      "LiquidationLimitUpdated(address,uint256,uint256)": {
        "notice": "Emitted when the liquidation limit of an underlying token is updated."
      },
      "MaximumExpectedValueUpdated(address,uint256)": {
        "notice": "Emitted when the maximum expected value of a yield token is updated."
      },
      "MaximumLossUpdated(address,uint256)": {
        "notice": "Emitted when the maximum loss of a yield token is updated."
      },
      "MinimumCollateralizationUpdated(uint256)": {
        "notice": "Emitted when the minimum collateralization is updated."
      },
      "Mint(address,uint256,address)": {
        "notice": "Emitted when `amount` debt tokens are minted to `recipient` using the account owned by `owner`."
      },
      "MintingLimitUpdated(uint256,uint256)": {
        "notice": "Emitted when the minting limit is updated."
      },
      "PendingAdminUpdated(address)": {
        "notice": "Emitted when the pending admin is updated."
      },
      "ProtocolFeeReceiverUpdated(address)": {
        "notice": "Emitted when the protocol fee receiver is updated."
      },
      "ProtocolFeeUpdated(uint256)": {
        "notice": "Emitted when the protocol fee is updated."
      },
      "Repay(address,address,uint256,address,uint256)": {
        "notice": "Emitted when `amount` of `underlyingToken` are repaid to grant credit to `recipient`."
      },
      "RepayLimitUpdated(address,uint256,uint256)": {
        "notice": "Emitted when the repay limit of an underlying token is updated."
      },
      "SentinelSet(address,bool)": {
        "notice": "Emitted when an address is set or unset as a sentinel."
      },
      "Snap(address,uint256)": {
        "notice": "Emitted when the expected value of a yield token is snapped to its current value."
      },
      "SweepTokens(address,uint256)": {
        "notice": "Emitted when a the admin sweeps all of one reward token from the Alchemist"
      },
      "TokenAdapterUpdated(address,address)": {
        "notice": "Emitted when the adapter of a yield token is updated."
      },
      "TransmuterUpdated(address)": {
        "notice": "Emitted when the transmuter is updated."
      },
      "UnderlyingTokenEnabled(address,bool)": {
        "notice": "Emitted when an underlying token is enabled or disabled."
      },
      "Withdraw(address,address,uint256,address)": {
        "notice": "Emitted when `shares` shares of `yieldToken` are burned to withdraw `yieldToken` from the account owned         by `owner` to `recipient`.This event does not imply that `recipient` received yield tokens. It is possible that the yield tokens         were unwrapped."
      },
      "YieldTokenEnabled(address,bool)": {
        "notice": "Emitted when an yield token is enabled or disabled."
      }
    },
    "kind": "user",
    "methods": {
      "BPS()": {
        "notice": "The number of basis points there are to represent exactly 100%."
      },
      "FIXED_POINT_SCALAR()": {
        "notice": "The scalar used for conversion of integral numbers to fixed point numbers. Fixed point numbers in this         implementation have 18 decimals of resolution, meaning that 1 is represented as 1e18, 0.5 is         represented as 5e17, and 2 is represented as 2e18."
      },
      "acceptAdmin()": {
        "notice": "Allows for `msg.sender` to accepts the role of administrator.`msg.sender` must be the admin or this call will revert with an {Unauthorized} error.The current pending administrator must be non-zero or this call will revert with an {IllegalState} error.Emits a {AdminUpdated} event.Emits a {PendingAdminUpdated} event."
      },
      "accounts(address)": {
        "notice": "Gets information about the account owned by `owner`."
      },
      "addUnderlyingToken(address,(uint256,uint256,uint256,uint256,uint256,uint256))": {
        "notice": "Adds an underlying token to the system.`msg.sender` must be the admin or this call will revert with an {Unauthorized} error."
      },
      "addYieldToken(address,(address,uint256,uint256,uint256))": {
        "notice": "Adds a yield token to the system.`msg.sender` must be the admin or this call will revert with an {Unauthorized} error.Emits a {AddYieldToken} event.Emits a {TokenAdapterUpdated} event.Emits a {MaximumLossUpdated} event."
      },
      "admin()": {
        "notice": "Gets the address of the admin."
      },
      "approveMint(address,uint256)": {
        "notice": "Approve `spender` to mint `amount` debt tokens. **_NOTE:_** This function is WHITELISTED."
      },
      "approveWithdraw(address,address,uint256)": {
        "notice": "Approve `spender` to withdraw `amount` shares of `yieldToken`.**_NOTE:_** This function is WHITELISTED."
      },
      "burn(uint256,address)": {
        "notice": "Burn `amount` debt tokens to credit the account owned by `recipient`.`amount` will be limited up to the amount of debt that `recipient` currently holds.`recipient` must be non-zero or this call will revert with an {IllegalArgument} error.`amount` must be greater than zero or this call will revert with a {IllegalArgument} error.`recipient` must have non-zero debt or this call will revert with an {IllegalState} error.Emits a {Burn} event.**_NOTE:_** This function is WHITELISTED.**Example:**```uint256 amtBurn = 5000;AlchemistV2(alchemistAddress).burn(amtBurn, msg.sender);```"
      },
      "configureCreditUnlockRate(address,uint256)": {
        "notice": "Sets the rate at which credit will be completely available to depositors after it is harvested.Emits a {CreditUnlockRateUpdated} event."
      },
      "configureLiquidationLimit(address,uint256,uint256)": {
        "notice": "Configure the liquidation limiter of `underlyingToken`.`msg.sender` must be the admin or this call will revert with an {Unauthorized} error.`underlyingToken` must be registered or this call will revert with a {UnsupportedToken} error.Emits a {LiquidationLimitUpdated} event."
      },
      "configureMintingLimit(uint256,uint256)": {
        "notice": "Configures the minting limiter.`msg.sender` must be the admin or this call will revert with an {Unauthorized} error.Emits a {MintingLimitUpdated} event."
      },
      "configureRepayLimit(address,uint256,uint256)": {
        "notice": "Configures the the repay limit of `underlyingToken`.`msg.sender` must be the admin or this call will revert with an {Unauthorized} error.`underlyingToken` must be registered or this call will revert with a {UnsupportedToken} error.Emits a {ReplayLimitUpdated} event."
      },
      "debtToken()": {
        "notice": "Returns the address of the debt token used by the system."
      },
      "deposit(address,uint256,address)": {
        "notice": "Deposit a yield token into a user's account.An approval must be set for `yieldToken` which is greater than `amount`.`yieldToken` must be registered or this call will revert with a {UnsupportedToken} error.`yieldToken` must be enabled or this call will revert with a {TokenDisabled} error.`yieldToken` underlying token must be enabled or this call will revert with a {TokenDisabled} error.`recipient` must be non-zero or this call will revert with an {IllegalArgument} error.`amount` must be greater than zero or the call will revert with an {IllegalArgument} error.Emits a {Deposit} event.**_NOTE:_** This function is WHITELISTED.**_NOTE:_** When depositing, the `AlchemistV2` contract must have **allowance()** to spend funds on behalf of **msg.sender** for at least **amount** of the **yieldToken** being deposited.  This can be done via the standard `ERC20.approve()` method.**Example:**```address ydai = 0xdA816459F1AB5631232FE5e97a05BBBb94970c95;uint256 amount = 50000;IERC20(ydai).approve(alchemistAddress, amount);AlchemistV2(alchemistAddress).deposit(ydai, amount, msg.sender);```"
      },
      "depositUnderlying(address,uint256,address,uint256)": {
        "notice": "Deposit an underlying token into the account of `recipient` as `yieldToken`.An approval must be set for the underlying token of `yieldToken` which is greater than `amount`.`yieldToken` must be registered or this call will revert with a {UnsupportedToken} error.`recipient` must be non-zero or this call will revert with an {IllegalArgument} error.`amount` must be greater than zero or the call will revert with an {IllegalArgument} error.Emits a {Deposit} event.**_NOTE:_** This function is WHITELISTED.**_NOTE:_** When depositing, the `AlchemistV2` contract must have **allowance()** to spend funds on behalf of **msg.sender** for at least **amount** of the **underlyingToken** being deposited.  This can be done via the standard `ERC20.approve()` method.**Example:**```address ydai = 0xdA816459F1AB5631232FE5e97a05BBBb94970c95;uint256 amount = 50000;AlchemistV2(alchemistAddress).depositUnderlying(ydai, amount, msg.sender, 1);```"
      },
      "donate(address,uint256)": {
        "notice": "Burns `amount` debt tokens to credit accounts which have deposited `yieldToken`.`amount` must be greater than zero or this call will revert with a {IllegalArgument} error.`yieldToken` must be registered or this call will revert with a {UnsupportedToken} error.Emits a {Donate} event.**_NOTE:_** This function is WHITELISTED.**Example:**```address ydai = 0xdA816459F1AB5631232FE5e97a05BBBb94970c95;uint256 amtSharesLiquidate = 5000;AlchemistV2(alchemistAddress).liquidate(dai, amtSharesLiquidate, 1);```"
      },
      "getLiquidationLimitInfo(address)": {
        "notice": "Gets current limit, maximum, and rate of the liquidation limiter for `underlyingToken`."
      },
      "getMintLimitInfo()": {
        "notice": "Gets current limit, maximum, and rate of the minting limiter."
      },
      "getRepayLimitInfo(address)": {
        "notice": "Gets current limit, maximum, and rate of a repay limiter for `underlyingToken`."
      },
      "getSupportedUnderlyingTokens()": {
        "notice": "Gets the supported underlying tokens."
      },
      "getSupportedYieldTokens()": {
        "notice": "Gets the supported yield tokens."
      },
      "getUnderlyingTokenParameters(address)": {
        "notice": "Gets the parameters of an underlying token."
      },
      "getUnderlyingTokensPerShare(address)": {
        "notice": "Gets the conversion rate of underlying tokens per share."
      },
      "getYieldTokenParameters(address)": {
        "notice": "Get the parameters and state of a yield-token."
      },
      "getYieldTokensPerShare(address)": {
        "notice": "Gets the conversion rate of yield tokens per share."
      },
      "harvest(address,uint256)": {
        "notice": "Harvests outstanding yield that a yield token has accumulated and distributes it as credit to holders.`msg.sender` must be a keeper or this call will revert with an {Unauthorized} error.`yieldToken` must be registered or this call will revert with a {UnsupportedToken} error.The amount being harvested must be greater than zero or else this call will revert with an {IllegalState} error.Emits a {Harvest} event."
      },
      "initialize((address,address,address,uint256,uint256,address,uint256,uint256,uint256,address))": {
        "notice": "Initialize the contract.`params.protocolFee` must be in range or this call will with an {IllegalArgument} error.The minting growth limiter parameters must be valid or this will revert with an {IllegalArgument} error. For more information, see the {Limiters} library.Emits an {AdminUpdated} event.Emits a {TransmuterUpdated} event.Emits a {MinimumCollateralizationUpdated} event.Emits a {ProtocolFeeUpdated} event.Emits a {ProtocolFeeReceiverUpdated} event.Emits a {MintingLimitUpdated} event."
      },
      "isSupportedUnderlyingToken(address)": {
        "notice": "Gets if an underlying token is supported."
      },
      "isSupportedYieldToken(address)": {
        "notice": "Gets if a yield token is supported."
      },
      "keepers(address)": {
        "notice": "Gets if an address is a keeper."
      },
      "liquidate(address,uint256,uint256)": {
        "notice": "@notice `shares` will be limited up to an equal amount of debt that `recipient` currently holds.`shares` must be greater than zero or this call will revert with a {IllegalArgument} error.`yieldToken` must be registered or this call will revert with a {UnsupportedToken} error.`yieldToken` must be enabled or this call will revert with a {TokenDisabled} error.`yieldToken` underlying token must be enabled or this call will revert with a {TokenDisabled} error.The loss in expected value of `yieldToken` must be less than the maximum permitted by the system or this call will revert with a {LossExceeded} error.`amount` must be less than or equal to the current available liquidation limit or this call will revert with a {LiquidationLimitExceeded} error.Emits a {Liquidate} event.**_NOTE:_** This function is WHITELISTED.**Example:**```address ydai = 0xdA816459F1AB5631232FE5e97a05BBBb94970c95;uint256 amtSharesLiquidate = 5000 * 10**ydai.decimals();AlchemistV2(alchemistAddress).liquidate(ydai, amtSharesLiquidate, 1);```"
      },
      "minimumCollateralization()": {
        "notice": "Gets the minimum collateralization.Collateralization is determined by taking the total value of collateral that a user has deposited into their account and dividing it their debt."
      },
      "mint(uint256,address)": {
        "notice": "Mint `amount` debt tokens.`recipient` must be non-zero or this call will revert with an {IllegalArgument} error.`amount` must be greater than zero or this call will revert with a {IllegalArgument} error.Emits a {Mint} event.**_NOTE:_** This function is WHITELISTED.**Example:**```uint256 amtDebt = 5000;AlchemistV2(alchemistAddress).mint(amtDebt, msg.sender);```"
      },
      "mintAllowance(address,address)": {
        "notice": "Gets the amount of debt tokens `spender` is allowed to mint on behalf of `owner`."
      },
      "mintFrom(address,uint256,address)": {
        "notice": "Mint `amount` debt tokens from the account owned by `owner` to `recipient`.`recipient` must be non-zero or this call will revert with an {IllegalArgument} error.`amount` must be greater than zero or this call will revert with a {IllegalArgument} error.Emits a {Mint} event.**_NOTE:_** This function is WHITELISTED.**_NOTE:_** The caller of `mintFrom()` must have **mintAllowance()** to mint debt from the `Account` controlled by **owner** for at least the amount of **yieldTokens** that **shares** will be converted to.  This can be done via the `approveMint()` or `permitMint()` methods.**Example:**```uint256 amtDebt = 5000;AlchemistV2(alchemistAddress).mintFrom(msg.sender, amtDebt, msg.sender);```"
      },
      "pendingAdmin()": {
        "notice": "Gets the address of the pending administrator."
      },
      "poke(address)": {
        "notice": "Synchronizes the state of the account owned by `owner`."
      },
      "positions(address,address)": {
        "notice": "Gets information about a yield token position for the account owned by `owner`."
      },
      "protocolFee()": {
        "notice": "Gets the protocol fee."
      },
      "protocolFeeReceiver()": {
        "notice": "Gets the protocol fee receiver."
      },
      "repay(address,uint256,address)": {
        "notice": "Repay `amount` debt using `underlyingToken` to credit the account owned by `recipient`.`amount` will be limited up to the amount of debt that `recipient` currently holds.`amount` must be greater than zero or this call will revert with a {IllegalArgument} error.`recipient` must be non-zero or this call will revert with an {IllegalArgument} error.`underlyingToken` must be enabled or this call will revert with a {TokenDisabled} error.`amount` must be less than or equal to the current available repay limit or this call will revert with a {ReplayLimitExceeded} error.Emits a {Repay} event.**_NOTE:_** This function is WHITELISTED.**Example:**```address dai = 0x6b175474e89094c44da98b954eedeac495271d0f;uint256 amtRepay = 5000;AlchemistV2(alchemistAddress).repay(dai, amtRepay, msg.sender);```"
      },
      "sentinels(address)": {
        "notice": "Gets if an address is a sentinel."
      },
      "setKeeper(address,bool)": {
        "notice": "Sets an address as a keeper.`msg.sender` must be the admin or this call will revert with an {Unauthorized} error."
      },
      "setMaximumExpectedValue(address,uint256)": {
        "notice": "Sets the maximum expected value of a yield token that the system can hold.`msg.sender` must be the admin or this call will revert with an {Unauthorized} error.`yieldToken` must be registered or this call will revert with a {UnsupportedToken} error."
      },
      "setMaximumLoss(address,uint256)": {
        "notice": "Sets the maximum loss that a yield bearing token will permit before restricting certain actions.`msg.sender` must be the admin or this call will revert with an {Unauthorized} error.`yieldToken` must be registered or this call will revert with a {UnsupportedToken} error."
      },
      "setMinimumCollateralization(uint256)": {
        "notice": "Set the minimum collateralization ratio.`msg.sender` must be the admin or this call will revert with an {Unauthorized} error.Emits a {MinimumCollateralizationUpdated} event."
      },
      "setPendingAdmin(address)": {
        "notice": "Sets the pending administrator.`msg.sender` must be the admin or this call will will revert with an {Unauthorized} error.Emits a {PendingAdminUpdated} event."
      },
      "setProtocolFee(uint256)": {
        "notice": "Sets the fee that the protocol will take from harvests.`msg.sender` must be the admin or this call will revert with an {Unauthorized} error.`value` must be in range or this call will with an {IllegalArgument} error.Emits a {ProtocolFeeUpdated} event."
      },
      "setProtocolFeeReceiver(address)": {
        "notice": "Sets the address which will receive protocol fees.`msg.sender` must be the admin or this call will revert with an {Unauthorized} error.`value` must be non-zero or this call will revert with an {IllegalArgument} error.Emits a {ProtocolFeeReceiverUpdated} event."
      },
      "setSentinel(address,bool)": {
        "notice": "Sets an address as a sentinel.`msg.sender` must be the admin or this call will revert with an {Unauthorized} error."
      },
      "setTokenAdapter(address,address)": {
        "notice": "Sets the token adapter of a yield token.`msg.sender` must be the admin or this call will revert with an {Unauthorized} error.`yieldToken` must be registered or this call will revert with a {UnsupportedToken} error.The token that `adapter` supports must be `yieldToken` or this call will revert with a {IllegalState} error.Emits a {TokenAdapterUpdated} event."
      },
      "setTransferAdapterAddress(address)": {
        "notice": "Set the address of the V1 transfer adapter.`msg.sender` must be the admin or this call will revert with an {Unauthorized} error."
      },
      "setTransmuter(address)": {
        "notice": "Set the address of the transmuter.`msg.sender` must be the admin or this call will revert with an {Unauthorized} error.`value` must be non-zero or this call will revert with an {IllegalArgument} error.Emits a {TransmuterUpdated} event."
      },
      "setUnderlyingTokenEnabled(address,bool)": {
        "notice": "Sets an underlying token as either enabled or disabled.`msg.sender` must be either the admin or a sentinel or this call will revert with an {Unauthorized} error.`underlyingToken` must be registered or this call will revert with a {UnsupportedToken} error.Emits an {UnderlyingTokenEnabled} event."
      },
      "setYieldTokenEnabled(address,bool)": {
        "notice": "Sets a yield token as either enabled or disabled.`msg.sender` must be either the admin or a sentinel or this call will revert with an {Unauthorized} error.`yieldToken` must be registered or this call will revert with a {UnsupportedToken} error.Emits a {YieldTokenEnabled} event."
      },
      "snap(address)": {
        "notice": "Snap the expected value `yieldToken` to the current value.`msg.sender` must be the admin or this call will revert with an {Unauthorized} error.`yieldToken` must be registered or this call will revert with a {UnsupportedToken} error."
      },
      "sweepTokens(address,uint256)": {
        "notice": "Sweep all of 'rewardtoken' from the alchemist into the admin.`msg.sender` must be the admin or this call will revert with an {Unauthorized} error.`rewardToken` must not be a yield or underlying token or this call will revert with a {UnsupportedToken} error."
      },
      "transferAdapter()": {
        "notice": "Gets the address of the transfer adapter."
      },
      "transferDebtV1(address,int256)": {
        "notice": "Accept debt from the V1 transfer vault adapter.`msg.sender` must be a sentinal or the admin or this call will revert with an {Unauthorized} error."
      },
      "transmuter()": {
        "notice": "Gets the address of the transmuter."
      },
      "version()": {
        "notice": "Returns the version of the alchemist."
      },
      "whitelist()": {
        "notice": "Gets the address of the whitelist contract."
      },
      "withdraw(address,uint256,address)": {
        "notice": "Withdraw yield tokens to `recipient` by burning `share` shares. The number of yield tokens withdrawn to `recipient` will depend on the value of shares for that yield token at the time of the call.`yieldToken` must be registered or this call will revert with a {UnsupportedToken} error.`recipient` must be non-zero or this call will revert with an {IllegalArgument} error.Emits a {Withdraw} event.**_NOTE:_** This function is WHITELISTED.**Example:**```address ydai = 0xdA816459F1AB5631232FE5e97a05BBBb94970c95;uint256 pps = AlchemistV2(alchemistAddress).getYieldTokensPerShare(ydai);uint256 amtYieldTokens = 5000;AlchemistV2(alchemistAddress).withdraw(ydai, amtYieldTokens / pps, msg.sender);```"
      },
      "withdrawAllowance(address,address,address)": {
        "notice": "Gets the amount of shares of `yieldToken` that `spender` is allowed to withdraw on behalf of `owner`."
      },
      "withdrawFrom(address,address,uint256,address)": {
        "notice": "Withdraw yield tokens to `recipient` by burning `share` shares from the account of `owner``owner` must have an withdrawal allowance which is greater than `amount` for this call to succeed.`yieldToken` must be registered or this call will revert with a {UnsupportedToken} error.`recipient` must be non-zero or this call will revert with an {IllegalArgument} error.Emits a {Withdraw} event.**_NOTE:_** This function is WHITELISTED.**Example:**```address ydai = 0xdA816459F1AB5631232FE5e97a05BBBb94970c95;uint256 pps = AlchemistV2(alchemistAddress).getYieldTokensPerShare(ydai);uint256 amtYieldTokens = 5000;AlchemistV2(alchemistAddress).withdrawFrom(msg.sender, ydai, amtYieldTokens / pps, msg.sender);```"
      },
      "withdrawUnderlying(address,uint256,address,uint256)": {
        "notice": "Withdraw underlying tokens to `recipient` by burning `share` shares and unwrapping the yield tokens that the shares were redeemed for.`yieldToken` must be registered or this call will revert with a {UnsupportedToken} error.`recipient` must be non-zero or this call will revert with an {IllegalArgument} error.The loss in expected value of `yieldToken` must be less than the maximum permitted by the system or this call will revert with a {LossExceeded} error.Emits a {Withdraw} event.**_NOTE:_** This function is WHITELISTED.**_NOTE:_** The caller of `withdrawFrom()` must have **withdrawAllowance()** to withdraw funds on behalf of **owner** for at least the amount of `yieldTokens` that **shares** will be converted to.  This can be done via the `approveWithdraw()` or `permitWithdraw()` methods.**Example:**```address ydai = 0xdA816459F1AB5631232FE5e97a05BBBb94970c95;uint256 pps = AlchemistV2(alchemistAddress).getUnderlyingTokensPerShare(ydai);uint256 amountUnderlyingTokens = 5000;AlchemistV2(alchemistAddress).withdrawUnderlying(ydai, amountUnderlyingTokens / pps, msg.sender, 1);```"
      },
      "withdrawUnderlyingFrom(address,address,uint256,address,uint256)": {
        "notice": "Withdraw underlying tokens to `recipient` by burning `share` shares from the account of `owner` and unwrapping the yield tokens that the shares were redeemed for.`yieldToken` must be registered or this call will revert with a {UnsupportedToken} error.`recipient` must be non-zero or this call will revert with an {IllegalArgument} error.The loss in expected value of `yieldToken` must be less than the maximum permitted by the system or this call will revert with a {LossExceeded} error.Emits a {Withdraw} event.**_NOTE:_** This function is WHITELISTED.**_NOTE:_** The caller of `withdrawFrom()` must have **withdrawAllowance()** to withdraw funds on behalf of **owner** for at least the amount of `yieldTokens` that **shares** will be converted to.  This can be done via the `approveWithdraw()` or `permitWithdraw()` methods.**Example:**```address ydai = 0xdA816459F1AB5631232FE5e97a05BBBb94970c95;uint256 pps = AlchemistV2(alchemistAddress).getUnderlyingTokensPerShare(ydai);uint256 amtUnderlyingTokens = 5000 * 10**ydai.decimals();AlchemistV2(alchemistAddress).withdrawUnderlying(msg.sender, ydai, amtUnderlyingTokens / pps, msg.sender, 1);```"
      }
    },
    "version": 1
  },
  "storageLayout": {
    "storage": [
      {
        "astId": 22110,
        "contract": "submodules/v2-foundry/src/AlchemistV2.sol:AlchemistV2",
        "label": "_initialized",
        "offset": 0,
        "slot": "0",
        "type": "t_uint8"
      },
      {
        "astId": 22113,
        "contract": "submodules/v2-foundry/src/AlchemistV2.sol:AlchemistV2",
        "label": "_initializing",
        "offset": 1,
        "slot": "0",
        "type": "t_bool"
      },
      {
        "astId": 50618,
        "contract": "submodules/v2-foundry/src/AlchemistV2.sol:AlchemistV2",
        "label": "_lockState",
        "offset": 0,
        "slot": "1",
        "type": "t_uint256"
      },
      {
        "astId": 30286,
        "contract": "submodules/v2-foundry/src/AlchemistV2.sol:AlchemistV2",
        "label": "debtToken",
        "offset": 0,
        "slot": "2",
        "type": "t_address"
      },
      {
        "astId": 30290,
        "contract": "submodules/v2-foundry/src/AlchemistV2.sol:AlchemistV2",
        "label": "admin",
        "offset": 0,
        "slot": "3",
        "type": "t_address"
      },
      {
        "astId": 30294,
        "contract": "submodules/v2-foundry/src/AlchemistV2.sol:AlchemistV2",
        "label": "pendingAdmin",
        "offset": 0,
        "slot": "4",
        "type": "t_address"
      },
      {
        "astId": 30300,
        "contract": "submodules/v2-foundry/src/AlchemistV2.sol:AlchemistV2",
        "label": "sentinels",
        "offset": 0,
        "slot": "5",
        "type": "t_mapping(t_address,t_bool)"
      },
      {
        "astId": 30306,
        "contract": "submodules/v2-foundry/src/AlchemistV2.sol:AlchemistV2",
        "label": "keepers",
        "offset": 0,
        "slot": "6",
        "type": "t_mapping(t_address,t_bool)"
      },
      {
        "astId": 30310,
        "contract": "submodules/v2-foundry/src/AlchemistV2.sol:AlchemistV2",
        "label": "transmuter",
        "offset": 0,
        "slot": "7",
        "type": "t_address"
      },
      {
        "astId": 30314,
        "contract": "submodules/v2-foundry/src/AlchemistV2.sol:AlchemistV2",
        "label": "minimumCollateralization",
        "offset": 0,
        "slot": "8",
        "type": "t_uint256"
      },
      {
        "astId": 30318,
        "contract": "submodules/v2-foundry/src/AlchemistV2.sol:AlchemistV2",
        "label": "protocolFee",
        "offset": 0,
        "slot": "9",
        "type": "t_uint256"
      },
      {
        "astId": 30322,
        "contract": "submodules/v2-foundry/src/AlchemistV2.sol:AlchemistV2",
        "label": "protocolFeeReceiver",
        "offset": 0,
        "slot": "10",
        "type": "t_address"
      },
      {
        "astId": 30326,
        "contract": "submodules/v2-foundry/src/AlchemistV2.sol:AlchemistV2",
        "label": "whitelist",
        "offset": 0,
        "slot": "11",
        "type": "t_address"
      },
      {
        "astId": 30330,
        "contract": "submodules/v2-foundry/src/AlchemistV2.sol:AlchemistV2",
        "label": "_mintingLimiter",
        "offset": 0,
        "slot": "12",
        "type": "t_struct(LinearGrowthLimiter)62296_storage"
      },
      {
        "astId": 30335,
        "contract": "submodules/v2-foundry/src/AlchemistV2.sol:AlchemistV2",
        "label": "_repayLimiters",
        "offset": 0,
        "slot": "17",
        "type": "t_mapping(t_address,t_struct(LinearGrowthLimiter)62296_storage)"
      },
      {
        "astId": 30340,
        "contract": "submodules/v2-foundry/src/AlchemistV2.sol:AlchemistV2",
        "label": "_liquidationLimiters",
        "offset": 0,
        "slot": "18",
        "type": "t_mapping(t_address,t_struct(LinearGrowthLimiter)62296_storage)"
      },
      {
        "astId": 30346,
        "contract": "submodules/v2-foundry/src/AlchemistV2.sol:AlchemistV2",
        "label": "_accounts",
        "offset": 0,
        "slot": "19",
        "type": "t_mapping(t_address,t_struct(Account)30269_storage)"
      },
      {
        "astId": 30352,
        "contract": "submodules/v2-foundry/src/AlchemistV2.sol:AlchemistV2",
        "label": "_underlyingTokens",
        "offset": 0,
        "slot": "20",
        "type": "t_mapping(t_address,t_struct(UnderlyingTokenParams)55469_storage)"
      },
      {
        "astId": 30358,
        "contract": "submodules/v2-foundry/src/AlchemistV2.sol:AlchemistV2",
        "label": "_yieldTokens",
        "offset": 0,
        "slot": "21",
        "type": "t_mapping(t_address,t_struct(YieldTokenParams)55500_storage)"
      },
      {
        "astId": 30362,
        "contract": "submodules/v2-foundry/src/AlchemistV2.sol:AlchemistV2",
        "label": "_supportedUnderlyingTokens",
        "offset": 0,
        "slot": "22",
        "type": "t_struct(AddressSet)62987_storage"
      },
      {
        "astId": 30366,
        "contract": "submodules/v2-foundry/src/AlchemistV2.sol:AlchemistV2",
        "label": "_supportedYieldTokens",
        "offset": 0,
        "slot": "24",
        "type": "t_struct(AddressSet)62987_storage"
      },
      {
        "astId": 30370,
        "contract": "submodules/v2-foundry/src/AlchemistV2.sol:AlchemistV2",
        "label": "transferAdapter",
        "offset": 0,
        "slot": "26",
        "type": "t_address"
      }
    ],
    "types": {
      "t_address": {
        "encoding": "inplace",
        "label": "address",
        "numberOfBytes": "20"
      },
      "t_array(t_address)dyn_storage": {
        "base": "t_address",
        "encoding": "dynamic_array",
        "label": "address[]",
        "numberOfBytes": "32"
      },
      "t_bool": {
        "encoding": "inplace",
        "label": "bool",
        "numberOfBytes": "1"
      },
      "t_int256": {
        "encoding": "inplace",
        "label": "int256",
        "numberOfBytes": "32"
      },
      "t_mapping(t_address,t_bool)": {
        "encoding": "mapping",
        "key": "t_address",
        "label": "mapping(address => bool)",
        "numberOfBytes": "32",
        "value": "t_bool"
      },
      "t_mapping(t_address,t_mapping(t_address,t_uint256))": {
        "encoding": "mapping",
        "key": "t_address",
        "label": "mapping(address => mapping(address => uint256))",
        "numberOfBytes": "32",
        "value": "t_mapping(t_address,t_uint256)"
      },
      "t_mapping(t_address,t_struct(Account)30269_storage)": {
        "encoding": "mapping",
        "key": "t_address",
        "label": "mapping(address => struct AlchemistV2.Account)",
        "numberOfBytes": "32",
        "value": "t_struct(Account)30269_storage"
      },
      "t_mapping(t_address,t_struct(LinearGrowthLimiter)62296_storage)": {
        "encoding": "mapping",
        "key": "t_address",
        "label": "mapping(address => struct Limiters.LinearGrowthLimiter)",
        "numberOfBytes": "32",
        "value": "t_struct(LinearGrowthLimiter)62296_storage"
      },
      "t_mapping(t_address,t_struct(UnderlyingTokenParams)55469_storage)": {
        "encoding": "mapping",
        "key": "t_address",
        "label": "mapping(address => struct IAlchemistV2State.UnderlyingTokenParams)",
        "numberOfBytes": "32",
        "value": "t_struct(UnderlyingTokenParams)55469_storage"
      },
      "t_mapping(t_address,t_struct(YieldTokenParams)55500_storage)": {
        "encoding": "mapping",
        "key": "t_address",
        "label": "mapping(address => struct IAlchemistV2State.YieldTokenParams)",
        "numberOfBytes": "32",
        "value": "t_struct(YieldTokenParams)55500_storage"
      },
      "t_mapping(t_address,t_uint256)": {
        "encoding": "mapping",
        "key": "t_address",
        "label": "mapping(address => uint256)",
        "numberOfBytes": "32",
        "value": "t_uint256"
      },
      "t_struct(Account)30269_storage": {
        "encoding": "inplace",
        "label": "struct AlchemistV2.Account",
        "members": [
          {
            "astId": 30247,
            "contract": "submodules/v2-foundry/src/AlchemistV2.sol:AlchemistV2",
            "label": "debt",
            "offset": 0,
            "slot": "0",
            "type": "t_int256"
          },
          {
            "astId": 30251,
            "contract": "submodules/v2-foundry/src/AlchemistV2.sol:AlchemistV2",
            "label": "balances",
            "offset": 0,
            "slot": "1",
            "type": "t_mapping(t_address,t_uint256)"
          },
          {
            "astId": 30255,
            "contract": "submodules/v2-foundry/src/AlchemistV2.sol:AlchemistV2",
            "label": "lastAccruedWeights",
            "offset": 0,
            "slot": "2",
            "type": "t_mapping(t_address,t_uint256)"
          },
          {
            "astId": 30258,
            "contract": "submodules/v2-foundry/src/AlchemistV2.sol:AlchemistV2",
            "label": "depositedTokens",
            "offset": 0,
            "slot": "3",
            "type": "t_struct(AddressSet)62987_storage"
          },
          {
            "astId": 30262,
            "contract": "submodules/v2-foundry/src/AlchemistV2.sol:AlchemistV2",
            "label": "mintAllowances",
            "offset": 0,
            "slot": "5",
            "type": "t_mapping(t_address,t_uint256)"
          },
          {
            "astId": 30268,
            "contract": "submodules/v2-foundry/src/AlchemistV2.sol:AlchemistV2",
            "label": "withdrawAllowances",
            "offset": 0,
            "slot": "6",
            "type": "t_mapping(t_address,t_mapping(t_address,t_uint256))"
          }
        ],
        "numberOfBytes": "224"
      },
      "t_struct(AddressSet)62987_storage": {
        "encoding": "inplace",
        "label": "struct Sets.AddressSet",
        "members": [
          {
            "astId": 62982,
            "contract": "submodules/v2-foundry/src/AlchemistV2.sol:AlchemistV2",
            "label": "values",
            "offset": 0,
            "slot": "0",
            "type": "t_array(t_address)dyn_storage"
          },
          {
            "astId": 62986,
            "contract": "submodules/v2-foundry/src/AlchemistV2.sol:AlchemistV2",
            "label": "indexes",
            "offset": 0,
            "slot": "1",
            "type": "t_mapping(t_address,t_uint256)"
          }
        ],
        "numberOfBytes": "64"
      },
      "t_struct(LinearGrowthLimiter)62296_storage": {
        "encoding": "inplace",
        "label": "struct Limiters.LinearGrowthLimiter",
        "members": [
          {
            "astId": 62283,
            "contract": "submodules/v2-foundry/src/AlchemistV2.sol:AlchemistV2",
            "label": "maximum",
            "offset": 0,
            "slot": "0",
            "type": "t_uint256"
          },
          {
            "astId": 62286,
            "contract": "submodules/v2-foundry/src/AlchemistV2.sol:AlchemistV2",
            "label": "rate",
            "offset": 0,
            "slot": "1",
            "type": "t_uint256"
          },
          {
            "astId": 62289,
            "contract": "submodules/v2-foundry/src/AlchemistV2.sol:AlchemistV2",
            "label": "lastValue",
            "offset": 0,
            "slot": "2",
            "type": "t_uint256"
          },
          {
            "astId": 62292,
            "contract": "submodules/v2-foundry/src/AlchemistV2.sol:AlchemistV2",
            "label": "lastBlock",
            "offset": 0,
            "slot": "3",
            "type": "t_uint256"
          },
          {
            "astId": 62295,
            "contract": "submodules/v2-foundry/src/AlchemistV2.sol:AlchemistV2",
            "label": "minLimit",
            "offset": 0,
            "slot": "4",
            "type": "t_uint256"
          }
        ],
        "numberOfBytes": "160"
      },
      "t_struct(UnderlyingTokenParams)55469_storage": {
        "encoding": "inplace",
        "label": "struct IAlchemistV2State.UnderlyingTokenParams",
        "members": [
          {
            "astId": 55464,
            "contract": "submodules/v2-foundry/src/AlchemistV2.sol:AlchemistV2",
            "label": "decimals",
            "offset": 0,
            "slot": "0",
            "type": "t_uint8"
          },
          {
            "astId": 55466,
            "contract": "submodules/v2-foundry/src/AlchemistV2.sol:AlchemistV2",
            "label": "conversionFactor",
            "offset": 0,
            "slot": "1",
            "type": "t_uint256"
          },
          {
            "astId": 55468,
            "contract": "submodules/v2-foundry/src/AlchemistV2.sol:AlchemistV2",
            "label": "enabled",
            "offset": 0,
            "slot": "2",
            "type": "t_bool"
          }
        ],
        "numberOfBytes": "96"
      },
      "t_struct(YieldTokenParams)55500_storage": {
        "encoding": "inplace",
        "label": "struct IAlchemistV2State.YieldTokenParams",
        "members": [
          {
            "astId": 55471,
            "contract": "submodules/v2-foundry/src/AlchemistV2.sol:AlchemistV2",
            "label": "decimals",
            "offset": 0,
            "slot": "0",
            "type": "t_uint8"
          },
          {
            "astId": 55473,
            "contract": "submodules/v2-foundry/src/AlchemistV2.sol:AlchemistV2",
            "label": "underlyingToken",
            "offset": 1,
            "slot": "0",
            "type": "t_address"
          },
          {
            "astId": 55475,
            "contract": "submodules/v2-foundry/src/AlchemistV2.sol:AlchemistV2",
            "label": "adapter",
            "offset": 0,
            "slot": "1",
            "type": "t_address"
          },
          {
            "astId": 55477,
            "contract": "submodules/v2-foundry/src/AlchemistV2.sol:AlchemistV2",
            "label": "maximumLoss",
            "offset": 0,
            "slot": "2",
            "type": "t_uint256"
          },
          {
            "astId": 55479,
            "contract": "submodules/v2-foundry/src/AlchemistV2.sol:AlchemistV2",
            "label": "maximumExpectedValue",
            "offset": 0,
            "slot": "3",
            "type": "t_uint256"
          },
          {
            "astId": 55481,
            "contract": "submodules/v2-foundry/src/AlchemistV2.sol:AlchemistV2",
            "label": "creditUnlockRate",
            "offset": 0,
            "slot": "4",
            "type": "t_uint256"
          },
          {
            "astId": 55483,
            "contract": "submodules/v2-foundry/src/AlchemistV2.sol:AlchemistV2",
            "label": "activeBalance",
            "offset": 0,
            "slot": "5",
            "type": "t_uint256"
          },
          {
            "astId": 55485,
            "contract": "submodules/v2-foundry/src/AlchemistV2.sol:AlchemistV2",
            "label": "harvestableBalance",
            "offset": 0,
            "slot": "6",
            "type": "t_uint256"
          },
          {
            "astId": 55487,
            "contract": "submodules/v2-foundry/src/AlchemistV2.sol:AlchemistV2",
            "label": "totalShares",
            "offset": 0,
            "slot": "7",
            "type": "t_uint256"
          },
          {
            "astId": 55489,
            "contract": "submodules/v2-foundry/src/AlchemistV2.sol:AlchemistV2",
            "label": "expectedValue",
            "offset": 0,
            "slot": "8",
            "type": "t_uint256"
          },
          {
            "astId": 55491,
            "contract": "submodules/v2-foundry/src/AlchemistV2.sol:AlchemistV2",
            "label": "pendingCredit",
            "offset": 0,
            "slot": "9",
            "type": "t_uint256"
          },
          {
            "astId": 55493,
            "contract": "submodules/v2-foundry/src/AlchemistV2.sol:AlchemistV2",
            "label": "distributedCredit",
            "offset": 0,
            "slot": "10",
            "type": "t_uint256"
          },
          {
            "astId": 55495,
            "contract": "submodules/v2-foundry/src/AlchemistV2.sol:AlchemistV2",
            "label": "lastDistributionBlock",
            "offset": 0,
            "slot": "11",
            "type": "t_uint256"
          },
          {
            "astId": 55497,
            "contract": "submodules/v2-foundry/src/AlchemistV2.sol:AlchemistV2",
            "label": "accruedWeight",
            "offset": 0,
            "slot": "12",
            "type": "t_uint256"
          },
          {
            "astId": 55499,
            "contract": "submodules/v2-foundry/src/AlchemistV2.sol:AlchemistV2",
            "label": "enabled",
            "offset": 0,
            "slot": "13",
            "type": "t_bool"
          }
        ],
        "numberOfBytes": "448"
      },
      "t_uint256": {
        "encoding": "inplace",
        "label": "uint256",
        "numberOfBytes": "32"
      },
      "t_uint8": {
        "encoding": "inplace",
        "label": "uint8",
        "numberOfBytes": "1"
      }
    }
  }
}