{
  "address": "0xE1bE7De145ECd1772aaC1c57e7cC1388d266CF22",
  "abi": [
    {
      "inputs": [],
      "stateMutability": "nonpayable",
      "type": "constructor"
    },
    {
      "inputs": [],
      "name": "HarvestJobDoesNotExist",
      "type": "error"
    },
    {
      "inputs": [],
      "name": "IllegalArgument",
      "type": "error"
    },
    {
      "inputs": [],
      "name": "IllegalState",
      "type": "error"
    },
    {
      "inputs": [],
      "name": "Unauthorized",
      "type": "error"
    },
    {
      "inputs": [],
      "name": "YieldTokenDisabled",
      "type": "error"
    },
    {
      "anonymous": false,
      "inputs": [
        {
          "indexed": true,
          "internalType": "address",
          "name": "previousOwner",
          "type": "address"
        },
        {
          "indexed": true,
          "internalType": "address",
          "name": "newOwner",
          "type": "address"
        }
      ],
      "name": "OwnershipTransferred",
      "type": "event"
    },
    {
      "anonymous": false,
      "inputs": [
        {
          "indexed": false,
          "internalType": "address",
          "name": "yieldToken",
          "type": "address"
        }
      ],
      "name": "RecordHarvest",
      "type": "event"
    },
    {
      "anonymous": false,
      "inputs": [
        {
          "indexed": false,
          "internalType": "address",
          "name": "yieldToken",
          "type": "address"
        }
      ],
      "name": "RemoveHarvestJob",
      "type": "event"
    },
    {
      "anonymous": false,
      "inputs": [
        {
          "indexed": false,
          "internalType": "bool",
          "name": "active",
          "type": "bool"
        },
        {
          "indexed": false,
          "internalType": "address",
          "name": "alchemist",
          "type": "address"
        },
        {
          "indexed": false,
          "internalType": "address",
          "name": "reward",
          "type": "address"
        },
        {
          "indexed": false,
          "internalType": "address",
          "name": "yieldToken",
          "type": "address"
        },
        {
          "indexed": false,
          "internalType": "uint256",
          "name": "minimumHarvestAmount",
          "type": "uint256"
        },
        {
          "indexed": false,
          "internalType": "uint256",
          "name": "minimumDelay",
          "type": "uint256"
        },
        {
          "indexed": false,
          "internalType": "uint256",
          "name": "slippageBps",
          "type": "uint256"
        }
      ],
      "name": "SetHarvestJob",
      "type": "event"
    },
    {
      "anonymous": false,
      "inputs": [
        {
          "indexed": false,
          "internalType": "address",
          "name": "harvester",
          "type": "address"
        },
        {
          "indexed": false,
          "internalType": "bool",
          "name": "status",
          "type": "bool"
        }
      ],
      "name": "SetHarvester",
      "type": "event"
    },
    {
      "inputs": [],
      "name": "SLIPPAGE_PRECISION",
      "outputs": [
        {
          "internalType": "uint256",
          "name": "",
          "type": "uint256"
        }
      ],
      "stateMutability": "view",
      "type": "function"
    },
    {
      "inputs": [
        {
          "internalType": "bool",
          "name": "active",
          "type": "bool"
        },
        {
          "internalType": "address",
          "name": "alchemist",
          "type": "address"
        },
        {
          "internalType": "address",
          "name": "reward",
          "type": "address"
        },
        {
          "internalType": "address",
          "name": "yieldToken",
          "type": "address"
        },
        {
          "internalType": "uint256",
          "name": "minimumHarvestAmount",
          "type": "uint256"
        },
        {
          "internalType": "uint256",
          "name": "minimumDelay",
          "type": "uint256"
        },
        {
          "internalType": "uint256",
          "name": "slippageBps",
          "type": "uint256"
        }
      ],
      "name": "addHarvestJob",
      "outputs": [],
      "stateMutability": "nonpayable",
      "type": "function"
    },
    {
      "inputs": [],
      "name": "checker",
      "outputs": [
        {
          "internalType": "bool",
          "name": "canExec",
          "type": "bool"
        },
        {
          "internalType": "bytes",
          "name": "execPayload",
          "type": "bytes"
        }
      ],
      "stateMutability": "view",
      "type": "function"
    },
    {
      "inputs": [
        {
          "internalType": "address",
          "name": "",
          "type": "address"
        }
      ],
      "name": "harvestJobs",
      "outputs": [
        {
          "internalType": "bool",
          "name": "active",
          "type": "bool"
        },
        {
          "internalType": "address",
          "name": "alchemist",
          "type": "address"
        },
        {
          "internalType": "address",
          "name": "reward",
          "type": "address"
        },
        {
          "internalType": "address",
          "name": "yieldToken",
          "type": "address"
        },
        {
          "internalType": "uint256",
          "name": "lastHarvest",
          "type": "uint256"
        },
        {
          "internalType": "uint256",
          "name": "minimumHarvestAmount",
          "type": "uint256"
        },
        {
          "internalType": "uint256",
          "name": "minimumDelay",
          "type": "uint256"
        },
        {
          "internalType": "uint256",
          "name": "slippageBps",
          "type": "uint256"
        }
      ],
      "stateMutability": "view",
      "type": "function"
    },
    {
      "inputs": [
        {
          "internalType": "address",
          "name": "",
          "type": "address"
        }
      ],
      "name": "harvesters",
      "outputs": [
        {
          "internalType": "bool",
          "name": "",
          "type": "bool"
        }
      ],
      "stateMutability": "view",
      "type": "function"
    },
    {
      "inputs": [],
      "name": "owner",
      "outputs": [
        {
          "internalType": "address",
          "name": "",
          "type": "address"
        }
      ],
      "stateMutability": "view",
      "type": "function"
    },
    {
      "inputs": [],
      "name": "paused",
      "outputs": [
        {
          "internalType": "bool",
          "name": "",
          "type": "bool"
        }
      ],
      "stateMutability": "view",
      "type": "function"
    },
    {
      "inputs": [
        {
          "internalType": "address",
          "name": "yieldToken",
          "type": "address"
        }
      ],
      "name": "recordHarvest",
      "outputs": [],
      "stateMutability": "nonpayable",
      "type": "function"
    },
    {
      "inputs": [
        {
          "internalType": "address",
          "name": "token",
          "type": "address"
        }
      ],
      "name": "recoverFunds",
      "outputs": [],
      "stateMutability": "nonpayable",
      "type": "function"
    },
    {
      "inputs": [
        {
          "internalType": "address",
          "name": "yieldToken",
          "type": "address"
        }
      ],
      "name": "removeHarvestJob",
      "outputs": [],
      "stateMutability": "nonpayable",
      "type": "function"
    },
    {
      "inputs": [],
      "name": "renounceOwnership",
      "outputs": [],
      "stateMutability": "nonpayable",
      "type": "function"
    },
    {
      "inputs": [
        {
          "internalType": "address",
          "name": "yieldToken",
          "type": "address"
        },
        {
          "internalType": "bool",
          "name": "active",
          "type": "bool"
        }
      ],
      "name": "setActive",
      "outputs": [],
      "stateMutability": "nonpayable",
      "type": "function"
    },
    {
      "inputs": [
        {
          "internalType": "address",
          "name": "yieldToken",
          "type": "address"
        },
        {
          "internalType": "address",
          "name": "alchemist",
          "type": "address"
        }
      ],
      "name": "setAlchemist",
      "outputs": [],
      "stateMutability": "nonpayable",
      "type": "function"
    },
    {
      "inputs": [
        {
          "internalType": "address",
          "name": "harvester",
          "type": "address"
        },
        {
          "internalType": "bool",
          "name": "status",
          "type": "bool"
        }
      ],
      "name": "setHarvester",
      "outputs": [],
      "stateMutability": "nonpayable",
      "type": "function"
    },
    {
      "inputs": [
        {
          "internalType": "address",
          "name": "yieldToken",
          "type": "address"
        },
        {
          "internalType": "uint256",
          "name": "minimumDelay",
          "type": "uint256"
        }
      ],
      "name": "setMinimumDelay",
      "outputs": [],
      "stateMutability": "nonpayable",
      "type": "function"
    },
    {
      "inputs": [
        {
          "internalType": "address",
          "name": "yieldToken",
          "type": "address"
        },
        {
          "internalType": "uint256",
          "name": "minimumHarvestAmount",
          "type": "uint256"
        }
      ],
      "name": "setMinimumHarvestAmount",
      "outputs": [],
      "stateMutability": "nonpayable",
      "type": "function"
    },
    {
      "inputs": [
        {
          "internalType": "bool",
          "name": "pauseState",
          "type": "bool"
        }
      ],
      "name": "setPause",
      "outputs": [],
      "stateMutability": "nonpayable",
      "type": "function"
    },
    {
      "inputs": [
        {
          "internalType": "address",
          "name": "yieldToken",
          "type": "address"
        },
        {
          "internalType": "uint256",
          "name": "slippageBps",
          "type": "uint256"
        }
      ],
      "name": "setSlippageBps",
      "outputs": [],
      "stateMutability": "nonpayable",
      "type": "function"
    },
    {
      "inputs": [
        {
          "internalType": "address",
          "name": "newOwner",
          "type": "address"
        }
      ],
      "name": "transferOwnership",
      "outputs": [],
      "stateMutability": "nonpayable",
      "type": "function"
    },
    {
      "inputs": [
        {
          "internalType": "uint256",
          "name": "",
          "type": "uint256"
        }
      ],
      "name": "yieldTokens",
      "outputs": [
        {
          "internalType": "address",
          "name": "",
          "type": "address"
        }
      ],
      "stateMutability": "view",
      "type": "function"
    }
  ],
  "transactionHash": "0x17d0273c140cf45cf8283c5fa63f8eb6dc8edc34417c6365ea8c7aa62689ea1f",
  "args": [],
  "solcInputHash": "f2303c26aed16dd6660fad7df9f92f9c",
  "bytecode": "0x608060405234801561001057600080fd5b5061001a3361001f565b61006f565b600080546001600160a01b038381166001600160a01b0319831681178455604051919092169283917f8be0079c531659141344cd1fd0a4f28419497f9722a3daafe3b4186f6b6457e09190a35050565b6123b98061007e6000396000f3fe608060405234801561001057600080fd5b506004361061012c5760003560e01c80638da5cb5b116100ad578063bedb86fb11610071578063bedb86fb1461027e578063cf5303cf14610291578063e635d5f2146102a7578063e72f6e3014610354578063f2fde38b1461036757600080fd5b80638da5cb5b14610221578063af9d98a914610232578063b018895c14610245578063b223602114610258578063b73cc2a31461026b57600080fd5b8063539efd4b116100f4578063539efd4b1461019b5780635c975abb146101c65780636c7be337146101e3578063715018a6146101f657806387976583146101fe57600080fd5b80630bca8869146101315780632ce962cf1461014657806331a9d4cc1461015957806331b710571461016c578063453943f01461017f575b600080fd5b61014461013f366004611bca565b61037a565b005b610144610154366004611c04565b6103a1565b610144610167366004611c3d565b6103d4565b61014461017a366004611c04565b6106a3565b61018861271081565b6040519081526020015b60405180910390f35b6101ae6101a9366004611cb4565b61070f565b6040516001600160a01b039091168152602001610192565b6003546101d39060ff1681565b6040519015158152602001610192565b6101446101f1366004611ccd565b610739565b61014461080e565b6101d361020c366004611cfb565b60046020526000908152604090205460ff1681565b6000546001600160a01b03166101ae565b610144610240366004611cfb565b610822565b610144610253366004611bca565b6108a7565b610144610266366004611cfb565b6108ce565b610144610279366004611bca565b610ab2565b61014461028c366004611d1f565b610ad9565b610299610af4565b604051610192929190611d3c565b6103086102b5366004611cfb565b6002602081905260009182526040909120805460018201549282015460038301546004840154600585015460069095015460ff8516966101009095046001600160a01b0390811696958116959416939088565b6040805198151589526001600160a01b0397881660208a015295871695880195909552949092166060860152608085015260a084015260c083019190915260e082015261010001610192565b610144610362366004611cfb565b6116b3565b610144610375366004611cfb565b61179c565b61038261181a565b6001600160a01b03909116600090815260026020526040902060060155565b6103a961181a565b6001600160a01b03919091166000908152600260205260409020805460ff1916911515919091179055565b6103dc61181a565b604051635a5efc8b60e01b81526001600160a01b03858116600483015260009190881690635a5efc8b906024016101e060405180830381865afa158015610427573d6000803e3d6000fd5b505050506040513d601f19601f8201168201806040525081019061044b9190611e38565b9050806101c00151610470576040516303e75d1560e21b815260040160405180910390fd5b61271082111561049357604051630134249960e71b815260040160405180910390fd5b6040805161010080820183528a151582526001600160a01b03808b1660208085019182528b83168587019081528b841660608701818152426080890190815260a089018e815260c08a018e815260e08b018e81526000958652600297889052948c90209a518b5498518a16909a02610100600160a81b03199a15159a909a166001600160a81b03199098169790971798909817895592516001890180549188166001600160a01b0319928316179055905193880180549490961693169290921790935591516003850155915160048401559051600583015551600690910155517f316bb23763bce6e6090b86d6f8382a2148f51abd1f463446569d5471de60bbb1906105e8908a908a908a908a908a908a908a9096151587526001600160a01b0395861660208801529385166040870152919093166060850152608084019290925260a083019190915260c082015260e00190565b60405180910390a160005b60015481101561064d57856001600160a01b03166001828154811061061a5761061a611f0d565b6000918252602090912001546001600160a01b03160361063b57505061069a565b8061064581611f39565b9150506105f3565b50506001805480820182556000919091527fb10e2d527612073b26eecdfd717e6a320cf44b4afac2b0732d9fcbe2b7fa0cf60180546001600160a01b0319166001600160a01b0386161790555b50505050505050565b6106ab61181a565b6001600160a01b038216600081815260046020908152604091829020805460ff19168515159081179091558251938452908301527fffbdc28f0395f8dd81699928814abd1846ddbad638fe3482c8375836a4e9825291015b60405180910390a15050565b6001818154811061071f57600080fd5b6000918252602090912001546001600160a01b0316905081565b61074161181a565b604051635a5efc8b60e01b81526001600160a01b03838116600483015260009190831690635a5efc8b906024016101e060405180830381865afa15801561078c573d6000803e3d6000fd5b505050506040513d601f19601f820116820180604052508101906107b09190611e38565b9050806101c001516107d5576040516303e75d1560e21b815260040160405180910390fd5b506001600160a01b03918216600090815260026020526040902080549290911661010002610100600160a81b0319909216919091179055565b61081661181a565b6108206000611874565b565b3360009081526004602052604090205460ff16610851576040516282b42960e81b815260040160405180910390fd5b6001600160a01b0381166000818152600260209081526040918290204260039091015590519182527f549d5a8cc9d7d0d28c5c93782ae549548749ec3884c725765a8570597d6a13f8910160405180910390a150565b6108af61181a565b6001600160a01b03909116600090815260026020526040902060050155565b6108d661181a565b60001960005b60015481101561093b57826001600160a01b03166001828154811061090357610903611f0d565b6000918252602090912001546001600160a01b03160361092957610926816118c4565b91505b8061093381611f39565b9150506108dc565b50600019811315610a95576001600160a01b0382166000908152600260208190526040822080546001600160a81b0319168155600180820180546001600160a01b031990811690915592820180549093169092556003810183905560048101839055600581018390556006019190915580546109b8908290611f52565b815481106109c8576109c8611f0d565b6000918252602090912001546001600160a01b031660016109e8836118ee565b815481106109f8576109f8611f0d565b9060005260206000200160006101000a8154816001600160a01b0302191690836001600160a01b031602179055506001805480610a3757610a37611f69565b6000828152602090819020600019908301810180546001600160a01b03191690559091019091556040516001600160a01b03841681527fdd2f9126294675e89c6ca967164843d07ab1cc694b6812112c89c6ae64eed7c79101610703565b604051630658884760e41b815260040160405180910390fd5b5050565b610aba61181a565b6001600160a01b03909116600090815260026020526040902060040155565b610ae161181a565b6003805460ff1916911515919091179055565b60035460009060609060ff1615610b2c576040805160006020820181905291015b604051602081830303815290604052915091509091565b60005b60015481101561169e57600060018281548110610b4e57610b4e611f0d565b60009182526020808320909101546001600160a01b03908116808452600280845260409485902085516101008181018852825460ff81161580158452919004861696820196909652600182015485169681019690965290810154909216606085015260038201546080850152600482015460a0850152600582015460c085015260069091015460e08401529250611689576020810151604051635a5efc8b60e01b81526001600160a01b0384811660048301526000921690635a5efc8b906024016101e060405180830381865afa158015610c2d573d6000803e3d6000fd5b505050506040513d601f19601f82011682018060405250810190610c519190611e38565b9050806101c001511561168757600081604001516001600160a01b031663a035b1fe6040518163ffffffff1660e01b8152600401602060405180830381865afa158015610ca2573d6000803e3d6000fd5b505050506040513d601f19601f82011682018060405250810190610cc69190611f7f565b8251909150600090610cd990600a61207e565b828460e001518560c00151610cee919061208d565b610cf891906120a5565b610d0291906120c4565b90508360c001518460800151610d18919061208d565b4210158015610d3a57508360a00151836101200151610d37919061208d565b81115b1561168457600083610120015182610d529190611f52565b90506127108560e0015182610d6791906120a5565b610d7191906120c4565b610d7b9082611f52565b90506000731b40183efb4dd766f11bda7a7c3ad8982e9984216001600160a01b031686604001516001600160a01b03160361115157735c6374a2ac4ebc38dea0fc1f8716e5ea1add94dd6001600160a01b031686602001516001600160a01b031603610fa357730538c8bac84e95a9df8ac10aad17dbe81b9e36ee6001600160a01b031686606001516001600160a01b031603610f1d5760405163402914f560e01b8152735c6374a2ac4ebc38dea0fc1f8716e5ea1add94dd600482015260009081907335864296944119f72aa1b468e13449222f3f0e679063402914f5906024015b600060405180830381865afa158015610e7b573d6000803e3d6000fd5b505050506040513d6000823e601f3d908101601f19168201604052610ea39190810190612175565b91509150610f14731f98431c8ad98523631ae4a59f267346ea31f984896040015173c02aaa39b223fe8d0a0e5c4f27ead9083c756cc2610bb8736b175474e89094c44da98b954eedeac495271d0f610bb887600081518110610f0757610f07611f0d565b6020026020010151611911565b925050506110b8565b73a8b607aa09b6a2e306f93e74c282fb13f6a804526001600160a01b031686606001516001600160a01b031603610f9e5760405163402914f560e01b8152735c6374a2ac4ebc38dea0fc1f8716e5ea1add94dd60048201526000908190732f59b0f98a08e733c66dfb42bd8e366dc2cfeda69063402914f590602401610e5e565b6110b8565b73062bf725dc4cdf947aa79ca2aaccd4f385b13b5c6001600160a01b031686602001516001600160a01b0316036110b85760405163402914f560e01b815273062bf725dc4cdf947aa79ca2aaccd4f385b13b5c60048201526000908190732f59b0f98a08e733c66dfb42bd8e366dc2cfeda69063402914f590602401600060405180830381865afa15801561103c573d6000803e3d6000fd5b505050506040513d6000823e601f3d908101601f191682016040526110649190810190612175565b915091506110b3731f98431c8ad98523631ae4a59f267346ea31f984896040015173c02aaa39b223fe8d0a0e5c4f27ead9083c756cc2610bb860008087600081518110610f0757610f07611f0d565b925050505b6020860151600190631307f59b60e11b9089856127106110da876126ac6120a5565b6110e491906120c4565b6040516001600160a01b0394851660248201529390921660448401526064830152608482015260a4015b60408051601f198184030181529190526020810180516001600160e01b03166001600160e01b031990931692909217909152909b909a5098505050505050505050565b60408601516001600160a01b031615611642576040805160018082528183019092526000916020808301908036833701905050905086606001516001600160a01b03166351c0e0616040518163ffffffff1660e01b8152600401602060405180830381865afa1580156111c8573d6000803e3d6000fd5b505050506040513d601f19601f820116820180604052508101906111ec919061223a565b816000815181106111ff576111ff611f0d565b60200260200101906001600160a01b031690816001600160a01b031681525050600073929ec64c34a17401f460460d4b9390518e5b473e6001600160a01b03166370674ab9838b8b604001516001600160a01b031663f7c618c16040518163ffffffff1660e01b8152600401602060405180830381865afa158015611288573d6000803e3d6000fd5b505050506040513d601f19601f820116820180604052508101906112ac919061223a565b6040518463ffffffff1660e01b81526004016112ca93929190612257565b602060405180830381865afa1580156112e7573d6000803e3d6000fd5b505050506040513d601f19601f8201168201806040525081019061130b9190611f7f565b905073cb8fa9a76b8e203d8c3797bf438d8fb81ea3326a6001600160a01b031688604001516001600160a01b031663f8d898986040518163ffffffff1660e01b8152600401602060405180830381865afa15801561136d573d6000803e3d6000fd5b505050506040513d601f19601f82011682018060405250810190611391919061223a565b6001600160a01b031603611435576305f5e100730d276fc14719f9292d5c1ea2198673d1f42692466001600160a01b03166350d25bcd6040518163ffffffff1660e01b8152600401602060405180830381865afa1580156113f6573d6000803e3d6000fd5b505050506040513d601f19601f8201168201806040525081019061141a9190611f7f565b61142490836120a5565b61142e91906120c4565b92506115a8565b733e29d3a9316dab217754d13b28646b76607c5f046001600160a01b031688604001516001600160a01b031663f8d898986040518163ffffffff1660e01b8152600401602060405180830381865afa158015611495573d6000803e3d6000fd5b505050506040513d601f19601f820116820180604052508101906114b9919061223a565b6001600160a01b03160361158f577313e3ee699d1909e989722e753853ae30b17e08c56001600160a01b03166350d25bcd6040518163ffffffff1660e01b8152600401602060405180830381865afa158015611519573d6000803e3d6000fd5b505050506040513d601f19601f8201168201806040525081019061153d9190611f7f565b730d276fc14719f9292d5c1ea2198673d1f42692466001600160a01b03166350d25bcd6040518163ffffffff1660e01b8152600401602060405180830381865afa1580156113f6573d6000803e3d6000fd5b604051634a613c4160e01b815260040160405180910390fd5b6020880151600190631307f59b60e11b908b876127106115ca896126ac6120a5565b6115d491906120c4565b6040516001600160a01b0394851660248201529390921660448401526064830152608482015260a40160408051601f198184030181529190526020810180516001600160e01b03166001600160e01b031990931692909217909152909d909c509a5050505050505050505050565b60208601516040516001600160a01b03918216602482015290881660448201526064810183905260006084820152600190631307f59b60e11b9060a40161110e565b50505b505b5050808061169690611f39565b915050610b2f565b50604080516000602082018190529101610b15565b6116bb61181a565b6040516370a0823160e01b81523060048201526001600160a01b0382169063a9059cbb90339083906370a0823190602401602060405180830381865afa158015611709573d6000803e3d6000fd5b505050506040513d601f19601f8201168201806040525081019061172d9190611f7f565b6040516001600160e01b031960e085901b1681526001600160a01b03909216600483015260248201526044016020604051808303816000875af1158015611778573d6000803e3d6000fd5b505050506040513d601f19601f82011682018060405250810190610aae91906122be565b6117a461181a565b6001600160a01b03811661180e5760405162461bcd60e51b815260206004820152602660248201527f4f776e61626c653a206e6577206f776e657220697320746865207a65726f206160448201526564647265737360d01b60648201526084015b60405180910390fd5b61181781611874565b50565b6000546001600160a01b031633146108205760405162461bcd60e51b815260206004820181905260248201527f4f776e61626c653a2063616c6c6572206973206e6f7420746865206f776e65726044820152606401611805565b600080546001600160a01b038381166001600160a01b0319831681178455604051919092169283917f8be0079c531659141344cd1fd0a4f28419497f9722a3daafe3b4186f6b6457e09190a35050565b6000600160ff1b82106118ea57604051630134249960e71b815260040160405180910390fd5b5090565b6000808212156118ea57604051630134249960e71b815260040160405180910390fd5b604051630b4c774160e11b81526001600160a01b038781166004830152868116602483015262ffffff861660448301526000918991839190831690631698ee8290606401602060405180830381865afa158015611972573d6000803e3d6000fd5b505050506040513d601f19601f82011682018060405250810190611996919061223a565b90506000816001600160a01b0316633850c7bd6040518163ffffffff1660e01b815260040160e060405180830381865afa1580156119d8573d6000803e3d6000fd5b505050506040513d601f19601f820116820180604052508101906119fc91906122ed565b5050505050509050600060c0826001600160a01b0316836001600160a01b0316611a2691906120a5565b611a3890670de0b6b3a76400006120a5565b901c90506001600160a01b038816611a7257670de0b6b3a7640000611a5d82886120a5565b611a6791906120c4565b945050505050611baa565b604051630b4c774160e11b81526001600160a01b038b81166004830152898116602483015262ffffff89166044830152851690631698ee8290606401602060405180830381865afa158015611acb573d6000803e3d6000fd5b505050506040513d601f19601f82011682018060405250810190611aef919061223a565b9250826001600160a01b0316633850c7bd6040518163ffffffff1660e01b815260040160e060405180830381865afa158015611b2f573d6000803e3d6000fd5b505050506040513d601f19601f82011682018060405250810190611b5391906122ed565b509496506000945060c09350611b779250506001600160a01b0386169050806120a5565b611b8990670de0b6b3a76400006120a5565b901c905080611b9883896120a5565b611ba291906120c4565b955050505050505b979650505050505050565b6001600160a01b038116811461181757600080fd5b60008060408385031215611bdd57600080fd5b8235611be881611bb5565b946020939093013593505050565b801515811461181757600080fd5b60008060408385031215611c1757600080fd5b8235611c2281611bb5565b91506020830135611c3281611bf6565b809150509250929050565b600080600080600080600060e0888a031215611c5857600080fd5b8735611c6381611bf6565b96506020880135611c7381611bb5565b95506040880135611c8381611bb5565b94506060880135611c9381611bb5565b9699959850939660808101359560a0820135955060c0909101359350915050565b600060208284031215611cc657600080fd5b5035919050565b60008060408385031215611ce057600080fd5b8235611ceb81611bb5565b91506020830135611c3281611bb5565b600060208284031215611d0d57600080fd5b8135611d1881611bb5565b9392505050565b600060208284031215611d3157600080fd5b8135611d1881611bf6565b821515815260006020604081840152835180604085015260005b81811015611d7257858101830151858201606001528201611d56565b81811115611d84576000606083870101525b50601f01601f191692909201606001949350505050565b634e487b7160e01b600052604160045260246000fd5b6040516101e0810167ffffffffffffffff81118282101715611dd557611dd5611d9b565b60405290565b604051601f8201601f1916810167ffffffffffffffff81118282101715611e0457611e04611d9b565b604052919050565b805160ff81168114611e1d57600080fd5b919050565b8051611e1d81611bb5565b8051611e1d81611bf6565b60006101e08284031215611e4b57600080fd5b611e53611db1565b611e5c83611e0c565b8152611e6a60208401611e22565b6020820152611e7b60408401611e22565b6040820152606083810151908201526080808401519082015260a0808401519082015260c0808401519082015260e08084015190820152610100808401519082015261012080840151908201526101408084015190820152610160808401519082015261018080840151908201526101a080840151908201526101c0611f02818501611e2d565b908201529392505050565b634e487b7160e01b600052603260045260246000fd5b634e487b7160e01b600052601160045260246000fd5b600060018201611f4b57611f4b611f23565b5060010190565b600082821015611f6457611f64611f23565b500390565b634e487b7160e01b600052603160045260246000fd5b600060208284031215611f9157600080fd5b5051919050565b600181815b80851115611fd3578160001904821115611fb957611fb9611f23565b80851615611fc657918102915b93841c9390800290611f9d565b509250929050565b600082611fea57506001612078565b81611ff757506000612078565b816001811461200d576002811461201757612033565b6001915050612078565b60ff84111561202857612028611f23565b50506001821b612078565b5060208310610133831016604e8410600b8410161715612056575081810a612078565b6120608383611f98565b806000190482111561207457612074611f23565b0290505b92915050565b6000611d1860ff841683611fdb565b600082198211156120a0576120a0611f23565b500190565b60008160001904831182151516156120bf576120bf611f23565b500290565b6000826120e157634e487b7160e01b600052601260045260246000fd5b500490565b600067ffffffffffffffff82111561210057612100611d9b565b5060051b60200190565b600082601f83011261211b57600080fd5b8151602061213061212b836120e6565b611ddb565b82815260059290921b8401810191818101908684111561214f57600080fd5b8286015b8481101561216a5780518352918301918301612153565b509695505050505050565b6000806040838503121561218857600080fd5b825167ffffffffffffffff808211156121a057600080fd5b818501915085601f8301126121b457600080fd5b815160206121c461212b836120e6565b82815260059290921b840181019181810190898411156121e357600080fd5b948201945b8386101561220a5785516121fb81611bb5565b825294820194908201906121e8565b9188015191965090935050508082111561222357600080fd5b506122308582860161210a565b9150509250929050565b60006020828403121561224c57600080fd5b8151611d1881611bb5565b606080825284519082018190526000906020906080840190828801845b828110156122995781516001600160a01b031684529284019290840190600101612274565b5050506001600160a01b03958616918401919091529290931660409091015292915050565b6000602082840312156122d057600080fd5b8151611d1881611bf6565b805161ffff81168114611e1d57600080fd5b600080600080600080600060e0888a03121561230857600080fd5b875161231381611bb5565b8097505060208801518060020b811461232b57600080fd5b9550612339604089016122db565b9450612347606089016122db565b9350612355608089016122db565b925061236360a08901611e0c565b915060c088015161237381611bf6565b809150509295989194975092955056fea264697066735822122006277482018558cd13595bae71392d4c505c0e051599899707664c4ccab1da1564736f6c634300080d0033",
  "devdoc": {
    "kind": "dev",
    "methods": {
      "addHarvestJob(bool,address,address,address,uint256,uint256,uint256)": {
        "params": {
          "active": "A flag for whether or not the harvest job is active.",
          "alchemist": "The address of the alchemist to be harvested.",
          "minimumDelay": "The minimum delay (in seconds) needed between successive runs of the job.",
          "minimumHarvestAmount": "The minimum amount of harvestable funds required in order to run the harvest job.",
          "reward": "Address of the reward token. 0 for none.",
          "yieldToken": "The address of the yield token to be harvested."
        }
      },
      "checker()": {
        "returns": {
          "canExec": "    If a harvest is needed",
          "execPayload": "The payload to forward to the AlchemixHarvester"
        }
      },
      "owner()": {
        "details": "Returns the address of the current owner."
      },
      "recoverFunds(address)": {
        "params": {
          "token": "The token to remove."
        }
      },
      "removeHarvestJob(address)": {
        "params": {
          "yieldToken": "The address of the yield token to remove."
        }
      },
      "renounceOwnership()": {
        "details": "Leaves the contract without owner. It will not be possible to call `onlyOwner` functions anymore. Can only be called by the current owner. NOTE: Renouncing ownership will leave the contract without an owner, thereby removing any functionality that is only available to the owner."
      },
      "setActive(address,bool)": {
        "params": {
          "active": "A flag for whether or not the harvest job is active.",
          "yieldToken": "The address of the yield token to be harvested."
        }
      },
      "setAlchemist(address,address)": {
        "params": {
          "alchemist": "The address of the alchemist to be harvested.",
          "yieldToken": "The address of the yield token to be harvested."
        }
      },
      "setHarvester(address,bool)": {
        "params": {
          "harvester": "The address of the target harvester.",
          "status": "The status to set for the target harvester."
        }
      },
      "setMinimumDelay(address,uint256)": {
        "params": {
          "minimumDelay": "The minimum delay (in seconds) needed between successive runs of the job.",
          "yieldToken": "The address of the yield token to be harvested."
        }
      },
      "setMinimumHarvestAmount(address,uint256)": {
        "params": {
          "minimumHarvestAmount": "The minimum amount of harvestable funds required in order to run the harvest job.",
          "yieldToken": "The address of the yield token to be harvested."
        }
      },
      "setPause(bool)": {
        "params": {
          "pauseState": "The pause state to set."
        }
      },
      "setSlippageBps(address,uint256)": {
        "params": {
          "slippageBps": "The amount of slippage to accept during a harvest.",
          "yieldToken": "The address of the yield token to be harvested."
        }
      },
      "transferOwnership(address)": {
        "details": "Transfers ownership of the contract to a new account (`newOwner`). Can only be called by the current owner."
      }
    },
    "stateVariables": {
      "harvestJobs": {
        "details": "yieldToken => HarvestJob."
      },
      "harvesters": {
        "details": "A mapping of the registered harvesters."
      },
      "paused": {
        "details": "Whether or not the resolver is paused."
      },
      "yieldTokens": {
        "details": "The list of yield tokens that define harvest jobs."
      }
    },
    "version": 1
  },
  "userdoc": {
    "errors": {
      "HarvestJobDoesNotExist()": [
        {
          "notice": "Thrown when attempting to remove a harvest job that does not currently exist."
        }
      ],
      "IllegalArgument()": [
        {
          "notice": "An error used to indicate that an action could not be completed because of an illegal argument was passed         to the function."
        }
      ],
      "IllegalState()": [
        {
          "notice": "An error used to indicate that an action could not be completed because the contract either already existed         or entered an illegal condition which is not recoverable from."
        }
      ],
      "Unauthorized()": [
        {
          "notice": "An error used to indicate that an action could not be completed because either the `msg.sender` or         `msg.origin` is not authorized."
        }
      ],
      "YieldTokenDisabled()": [
        {
          "notice": "Thrown when the yield token of a harvest job being added is disabled in the alchemist of the harvest job being added."
        }
      ]
    },
    "events": {
      "RecordHarvest(address)": {
        "notice": "Emitted when a harvest is recorded."
      },
      "RemoveHarvestJob(address)": {
        "notice": "Emitted when a harvest job is removed from the list."
      },
      "SetHarvestJob(bool,address,address,address,uint256,uint256,uint256)": {
        "notice": "Emitted when details of a harvest job are set."
      },
      "SetHarvester(address,bool)": {
        "notice": "Emitted when a harvester status is updated."
      }
    },
    "kind": "user",
    "methods": {
      "addHarvestJob(bool,address,address,address,uint256,uint256,uint256)": {
        "notice": "Sets the parameters of a harvest job and adds it to the list if needed."
      },
      "checker()": {
        "notice": "Check if there is a harvest that needs to be run. Returns FALSE if the resolver is paused. Returns TRUE for the first harvest job that meets the following criteria:     - the harvest job is active     - `yieldToken` is enabled in the Alchemist     - minimumDelay seconds have passed since the `yieldToken` was last harvested     - the expected harvest amount is greater than minimumHarvestAmount Returns FALSE if no harvest jobs meet the above criteria."
      },
      "recoverFunds(address)": {
        "notice": "Remove tokens that were accidentally sent to the resolver."
      },
      "removeHarvestJob(address)": {
        "notice": "Removes a harvest job from the list of harvest jobs."
      },
      "setActive(address,bool)": {
        "notice": "Sets if a harvest job is active."
      },
      "setAlchemist(address,address)": {
        "notice": "Sets the alchemist of a harvest job."
      },
      "setHarvester(address,bool)": {
        "notice": "Enables or disables a harvester from calling protected harvester-only functions."
      },
      "setMinimumDelay(address,uint256)": {
        "notice": "Sets the minimum delay of a harvest job."
      },
      "setMinimumHarvestAmount(address,uint256)": {
        "notice": "Sets the minimum harvest amount of a harvest job."
      },
      "setPause(bool)": {
        "notice": "Pauses and un-pauses the resolver."
      },
      "setSlippageBps(address,uint256)": {
        "notice": "Sets the amount of slippage for a harvest job."
      }
    },
    "version": 1
  },
  "storageLayout": {
    "storage": [
      {
        "astId": 27636,
        "contract": "submodules/v2-foundry/src/keepers/HarvestResolver.sol:HarvestResolver",
        "label": "_owner",
        "offset": 0,
        "slot": "0",
        "type": "t_address"
      },
      {
        "astId": 60680,
        "contract": "submodules/v2-foundry/src/keepers/HarvestResolver.sol:HarvestResolver",
        "label": "yieldTokens",
        "offset": 0,
        "slot": "1",
        "type": "t_array(t_address)dyn_storage"
      },
      {
        "astId": 60686,
        "contract": "submodules/v2-foundry/src/keepers/HarvestResolver.sol:HarvestResolver",
        "label": "harvestJobs",
        "offset": 0,
        "slot": "2",
        "type": "t_mapping(t_address,t_struct(HarvestJob)60673_storage)"
      },
      {
        "astId": 60689,
        "contract": "submodules/v2-foundry/src/keepers/HarvestResolver.sol:HarvestResolver",
        "label": "paused",
        "offset": 0,
        "slot": "3",
        "type": "t_bool"
      },
      {
        "astId": 60694,
        "contract": "submodules/v2-foundry/src/keepers/HarvestResolver.sol:HarvestResolver",
        "label": "harvesters",
        "offset": 0,
        "slot": "4",
        "type": "t_mapping(t_address,t_bool)"
      }
    ],
    "types": {
      "t_address": {
        "encoding": "inplace",
        "label": "address",
        "numberOfBytes": "20"
      },
      "t_array(t_address)dyn_storage": {
        "base": "t_address",
        "encoding": "dynamic_array",
        "label": "address[]",
        "numberOfBytes": "32"
      },
      "t_bool": {
        "encoding": "inplace",
        "label": "bool",
        "numberOfBytes": "1"
      },
      "t_mapping(t_address,t_bool)": {
        "encoding": "mapping",
        "key": "t_address",
        "label": "mapping(address => bool)",
        "numberOfBytes": "32",
        "value": "t_bool"
      },
      "t_mapping(t_address,t_struct(HarvestJob)60673_storage)": {
        "encoding": "mapping",
        "key": "t_address",
        "label": "mapping(address => struct HarvestResolver.HarvestJob)",
        "numberOfBytes": "32",
        "value": "t_struct(HarvestJob)60673_storage"
      },
      "t_struct(HarvestJob)60673_storage": {
        "encoding": "inplace",
        "label": "struct HarvestResolver.HarvestJob",
        "members": [
          {
            "astId": 60658,
            "contract": "submodules/v2-foundry/src/keepers/HarvestResolver.sol:HarvestResolver",
            "label": "active",
            "offset": 0,
            "slot": "0",
            "type": "t_bool"
          },
          {
            "astId": 60660,
            "contract": "submodules/v2-foundry/src/keepers/HarvestResolver.sol:HarvestResolver",
            "label": "alchemist",
            "offset": 1,
            "slot": "0",
            "type": "t_address"
          },
          {
            "astId": 60662,
            "contract": "submodules/v2-foundry/src/keepers/HarvestResolver.sol:HarvestResolver",
            "label": "reward",
            "offset": 0,
            "slot": "1",
            "type": "t_address"
          },
          {
            "astId": 60664,
            "contract": "submodules/v2-foundry/src/keepers/HarvestResolver.sol:HarvestResolver",
            "label": "yieldToken",
            "offset": 0,
            "slot": "2",
            "type": "t_address"
          },
          {
            "astId": 60666,
            "contract": "submodules/v2-foundry/src/keepers/HarvestResolver.sol:HarvestResolver",
            "label": "lastHarvest",
            "offset": 0,
            "slot": "3",
            "type": "t_uint256"
          },
          {
            "astId": 60668,
            "contract": "submodules/v2-foundry/src/keepers/HarvestResolver.sol:HarvestResolver",
            "label": "minimumHarvestAmount",
            "offset": 0,
            "slot": "4",
            "type": "t_uint256"
          },
          {
            "astId": 60670,
            "contract": "submodules/v2-foundry/src/keepers/HarvestResolver.sol:HarvestResolver",
            "label": "minimumDelay",
            "offset": 0,
            "slot": "5",
            "type": "t_uint256"
          },
          {
            "astId": 60672,
            "contract": "submodules/v2-foundry/src/keepers/HarvestResolver.sol:HarvestResolver",
            "label": "slippageBps",
            "offset": 0,
            "slot": "6",
            "type": "t_uint256"
          }
        ],
        "numberOfBytes": "224"
      },
      "t_uint256": {
        "encoding": "inplace",
        "label": "uint256",
        "numberOfBytes": "32"
      }
    }
  }
}