{
  "address": "0x665f58d975963cdE0C843800DF6178FACBfdADE1",
  "abi": [
    {
      "inputs": [],
      "stateMutability": "nonpayable",
      "type": "constructor"
    },
    {
      "inputs": [
        {
          "internalType": "address",
          "name": "target",
          "type": "address"
        },
        {
          "internalType": "bool",
          "name": "success",
          "type": "bool"
        },
        {
          "internalType": "bytes",
          "name": "data",
          "type": "bytes"
        }
      ],
      "name": "ERC20CallFailed",
      "type": "error"
    },
    {
      "anonymous": false,
      "inputs": [
        {
          "indexed": true,
          "internalType": "address",
          "name": "previousOwner",
          "type": "address"
        },
        {
          "indexed": true,
          "internalType": "address",
          "name": "newOwner",
          "type": "address"
        }
      ],
      "name": "OwnershipTransferred",
      "type": "event"
    },
    {
      "inputs": [],
      "name": "BPS",
      "outputs": [
        {
          "internalType": "uint256",
          "name": "",
          "type": "uint256"
        }
      ],
      "stateMutability": "view",
      "type": "function"
    },
    {
      "inputs": [
        {
          "internalType": "address",
          "name": "vault",
          "type": "address"
        },
        {
          "internalType": "address",
          "name": "rewardCollectorAddress",
          "type": "address"
        },
        {
          "internalType": "uint256",
          "name": "rewardAmount",
          "type": "uint256"
        },
        {
          "internalType": "uint256",
          "name": "rewardTimeframe",
          "type": "uint256"
        }
      ],
      "name": "addVault",
      "outputs": [],
      "stateMutability": "nonpayable",
      "type": "function"
    },
    {
      "inputs": [
        {
          "internalType": "address",
          "name": "vault",
          "type": "address"
        }
      ],
      "name": "distributeRewards",
      "outputs": [
        {
          "internalType": "uint256",
          "name": "",
          "type": "uint256"
        }
      ],
      "stateMutability": "nonpayable",
      "type": "function"
    },
    {
      "inputs": [
        {
          "internalType": "address",
          "name": "vault",
          "type": "address"
        }
      ],
      "name": "getRewardCollector",
      "outputs": [
        {
          "internalType": "address",
          "name": "",
          "type": "address"
        },
        {
          "internalType": "address",
          "name": "",
          "type": "address"
        },
        {
          "internalType": "uint256",
          "name": "",
          "type": "uint256"
        },
        {
          "internalType": "uint256",
          "name": "",
          "type": "uint256"
        },
        {
          "internalType": "uint256",
          "name": "",
          "type": "uint256"
        }
      ],
      "stateMutability": "view",
      "type": "function"
    },
    {
      "inputs": [],
      "name": "owner",
      "outputs": [
        {
          "internalType": "address",
          "name": "",
          "type": "address"
        }
      ],
      "stateMutability": "view",
      "type": "function"
    },
    {
      "inputs": [],
      "name": "renounceOwnership",
      "outputs": [],
      "stateMutability": "nonpayable",
      "type": "function"
    },
    {
      "inputs": [
        {
          "internalType": "address",
          "name": "",
          "type": "address"
        }
      ],
      "name": "rewards",
      "outputs": [
        {
          "internalType": "address",
          "name": "rewardCollectorAddress",
          "type": "address"
        },
        {
          "internalType": "uint256",
          "name": "rewardAmount",
          "type": "uint256"
        },
        {
          "internalType": "uint256",
          "name": "rewardPaid",
          "type": "uint256"
        },
        {
          "internalType": "uint256",
          "name": "rewardTimeframe",
          "type": "uint256"
        },
        {
          "internalType": "uint256",
          "name": "lastRewardBlock",
          "type": "uint256"
        }
      ],
      "stateMutability": "view",
      "type": "function"
    },
    {
      "inputs": [
        {
          "internalType": "address",
          "name": "vault",
          "type": "address"
        },
        {
          "internalType": "uint256",
          "name": "rewardAmount",
          "type": "uint256"
        }
      ],
      "name": "setRewardAmount",
      "outputs": [],
      "stateMutability": "nonpayable",
      "type": "function"
    },
    {
      "inputs": [
        {
          "internalType": "address",
          "name": "vault",
          "type": "address"
        },
        {
          "internalType": "address",
          "name": "rewardCollectorAddress",
          "type": "address"
        }
      ],
      "name": "setRewardCollectorAddress",
      "outputs": [],
      "stateMutability": "nonpayable",
      "type": "function"
    },
    {
      "inputs": [
        {
          "internalType": "address",
          "name": "vault",
          "type": "address"
        },
        {
          "internalType": "uint256",
          "name": "timeframe",
          "type": "uint256"
        }
      ],
      "name": "setRewardTimeframe",
      "outputs": [],
      "stateMutability": "nonpayable",
      "type": "function"
    },
    {
      "inputs": [
        {
          "internalType": "uint256",
          "name": "slippage",
          "type": "uint256"
        }
      ],
      "name": "setSlippage",
      "outputs": [],
      "stateMutability": "nonpayable",
      "type": "function"
    },
    {
      "inputs": [],
      "name": "slippageBPS",
      "outputs": [
        {
          "internalType": "uint256",
          "name": "",
          "type": "uint256"
        }
      ],
      "stateMutability": "view",
      "type": "function"
    },
    {
      "inputs": [
        {
          "internalType": "address",
          "name": "token",
          "type": "address"
        },
        {
          "internalType": "address",
          "name": "recipient",
          "type": "address"
        }
      ],
      "name": "sweepTokens",
      "outputs": [],
      "stateMutability": "nonpayable",
      "type": "function"
    },
    {
      "inputs": [
        {
          "internalType": "address",
          "name": "newOwner",
          "type": "address"
        }
      ],
      "name": "transferOwnership",
      "outputs": [],
      "stateMutability": "nonpayable",
      "type": "function"
    },
    {
      "inputs": [],
      "name": "version",
      "outputs": [
        {
          "internalType": "string",
          "name": "",
          "type": "string"
        }
      ],
      "stateMutability": "view",
      "type": "function"
    }
  ],
  "transactionHash": "0x2dd509b5e7cbf0601881b3265cdd6e055455083d217ffce44c0c6c4cec88d259",
  "args": [],
  "solcInputHash": "d63dbe6397f73e41c7cd52f340a0c920",
  "bytecode": "0x60c060405260056080819052640312e312e360dc1b60a09081526200002891600191906200009e565b5061251c6002553480156200003c57600080fd5b5062000048336200004e565b62000180565b600080546001600160a01b038381166001600160a01b0319831681178455604051919092169283917f8be0079c531659141344cd1fd0a4f28419497f9722a3daafe3b4186f6b6457e09190a35050565b828054620000ac9062000144565b90600052602060002090601f016020900481019282620000d057600085556200011b565b82601f10620000eb57805160ff19168380011785556200011b565b828001600101855582156200011b579182015b828111156200011b578251825591602001919060010190620000fe565b50620001299291506200012d565b5090565b5b808211156200012957600081556001016200012e565b600181811c908216806200015957607f821691505b6020821081036200017a57634e487b7160e01b600052602260045260246000fd5b50919050565b610ec380620001906000396000f3fe608060405234801561001057600080fd5b50600436106100f55760003560e01c80633ec7010f116100975780638da5cb5b116100665780638da5cb5b1461025d578063e8260b9914610278578063f0fa55a91461028b578063f2fde38b1461029e57600080fd5b80633ec7010f146101f157806354fd4d50146101fa5780636d0580b91461020f578063715018a61461025557600080fd5b80631de9d9b6116100d35780631de9d9b6146101a1578063249d39e9146101c25780632526e17e146101cb578063348c49a1146101de57600080fd5b8063029327bd146100fa5780630700037d1461010f5780631609be1d1461018e575b600080fd5b61010d610108366004610bd6565b6102b1565b005b61015761011d366004610c1c565b6003602081905260009182526040909120805460018201546002830154938301546004909301546001600160a01b03909216939092909185565b604080516001600160a01b0390961686526020860194909452928401919091526060830152608082015260a0015b60405180910390f35b61010d61019c366004610c40565b610332565b6101b46101af366004610c1c565b610352565b604051908152602001610185565b6101b461271081565b61010d6101d9366004610c79565b61065d565b61010d6101ec366004610c40565b610685565b6101b460025481565b6102026106bb565b6040516101859190610d01565b61022261021d366004610c1c565b610749565b604080516001600160a01b039687168152959094166020860152928401919091526060830152608082015260a001610185565b61010d610842565b6000546040516001600160a01b039091168152602001610185565b61010d610286366004610c79565b610856565b61010d610299366004610d14565b61087d565b61010d6102ac366004610c1c565b61088a565b6102b9610908565b6040805160a0810182526001600160a01b039485168152602080820194855260008284018181526060840195865243608085019081529888168252600392839052939020915182546001600160a01b03191696169590951781559251600184015551600283015551918101919091559051600490910155565b61033a610908565b61034e82826103498530610962565b610a65565b5050565b6001600160a01b03811660009081526003602052604081206001015415610545576001600160a01b0382166000908152600360205260408120600401546103999043610d43565b6001600160a01b0384166000908152600360205260408120600281015460019091015492935090916103cb9190610d43565b6001600160a01b038516600090815260036020819052604082209081015460019091015492935090916103ff908590610d5a565b6104099190610d79565b9050600082821161041a578161041c565b825b6001600160a01b0380881660009081526003602090815260409182902054825163f7c618c160e01b815292519495506104be9493169263f7c618c19260048082019392918290030181865afa158015610479573d6000803e3d6000fd5b505050506040513d601f19601f8201168201806040525081019061049d9190610d9b565b6001600160a01b038089166000908152600360205260409020541683610a65565b6001600160a01b038616600090815260036020526040812043600482015560020180548392906104ef908490610db8565b90915550506001600160a01b0386166000908152600360205260409020600181015460029091015403610540576001600160a01b038616600090815260036020526040812060018101829055600201555b505050505b6001600160a01b03828116600081815260036020526040908190205460025491516315a1452760e21b815260048101939093529092169163a387b32f918591612710918590635685149c90602401602060405180830381865afa1580156105b0573d6000803e3d6000fd5b505050506040513d601f19601f820116820180604052508101906105d49190610dd0565b6105de9190610d5a565b6105e89190610d79565b6040516001600160e01b031960e085901b1681526001600160a01b03909216600483015260248201526044016020604051808303816000875af1158015610633573d6000803e3d6000fd5b505050506040513d601f19601f820116820180604052508101906106579190610dd0565b92915050565b610665610908565b6001600160a01b0390911660009081526003602081905260409091200155565b61068d610908565b6001600160a01b03918216600090815260036020526040902080546001600160a01b03191691909216179055565b600180546106c890610de9565b80601f01602080910402602001604051908101604052809291908181526020018280546106f490610de9565b80156107415780601f1061071657610100808354040283529160200191610741565b820191906000526020600020905b81548152906001019060200180831161072457829003601f168201915b505050505081565b6001600160a01b03818116600090815260036020526040812054909182918291829182911661078657506000935083925082915081905080610839565b6001600160a01b0380871660009081526003602090815260409182902054825163f7c618c160e01b81529251931692839263f7c618c19260048083019391928290030181865afa1580156107de573d6000803e3d6000fd5b505050506040513d601f19601f820116820180604052508101906108029190610d9b565b6001600160a01b03881660009081526003602081905260409091206001810154918101546004909101549398509196509450925090505b91939590929450565b61084a610908565b6108546000610b71565b565b61085e610908565b6001600160a01b03909116600090815260036020526040902060010155565b610885610908565b600255565b610892610908565b6001600160a01b0381166108fc5760405162461bcd60e51b815260206004820152602660248201527f4f776e61626c653a206e6577206f776e657220697320746865207a65726f206160448201526564647265737360d01b60648201526084015b60405180910390fd5b61090581610b71565b50565b6000546001600160a01b031633146108545760405162461bcd60e51b815260206004820181905260248201527f4f776e61626c653a2063616c6c6572206973206e6f7420746865206f776e657260448201526064016108f3565b604080516001600160a01b0383811660248084019190915283518084039091018152604490920183526020820180516001600160e01b03166370a0823160e01b179052915160009283928392918716916109bc9190610e23565b600060405180830381855afa9150503d80600081146109f7576040519150601f19603f3d011682016040523d82523d6000602084013e6109fc565b606091505b5091509150846001600160a01b03163b60001480610a18575081155b80610a24575060208151105b15610a485784828260405163e7e40b5b60e01b81526004016108f393929190610e3f565b80806020019051810190610a5c9190610dd0565b95945050505050565b604080516001600160a01b038481166024830152604480830185905283518084039091018152606490920183526020820180516001600160e01b031663a9059cbb60e01b1790529151600092839290871691610ac19190610e23565b6000604051808303816000865af19150503d8060008114610afe576040519150601f19603f3d011682016040523d82523d6000602084013e610b03565b606091505b5091509150846001600160a01b03163b60001480610b1f575081155b80610b465750805115801590610b46575080806020019051810190610b449190610e6b565b155b15610b6a5784828260405163e7e40b5b60e01b81526004016108f393929190610e3f565b5050505050565b600080546001600160a01b038381166001600160a01b0319831681178455604051919092169283917f8be0079c531659141344cd1fd0a4f28419497f9722a3daafe3b4186f6b6457e09190a35050565b6001600160a01b038116811461090557600080fd5b60008060008060808587031215610bec57600080fd5b8435610bf781610bc1565b93506020850135610c0781610bc1565b93969395505050506040820135916060013590565b600060208284031215610c2e57600080fd5b8135610c3981610bc1565b9392505050565b60008060408385031215610c5357600080fd5b8235610c5e81610bc1565b91506020830135610c6e81610bc1565b809150509250929050565b60008060408385031215610c8c57600080fd5b8235610c9781610bc1565b946020939093013593505050565b60005b83811015610cc0578181015183820152602001610ca8565b83811115610ccf576000848401525b50505050565b60008151808452610ced816020860160208601610ca5565b601f01601f19169290920160200192915050565b602081526000610c396020830184610cd5565b600060208284031215610d2657600080fd5b5035919050565b634e487b7160e01b600052601160045260246000fd5b600082821015610d5557610d55610d2d565b500390565b6000816000190483118215151615610d7457610d74610d2d565b500290565b600082610d9657634e487b7160e01b600052601260045260246000fd5b500490565b600060208284031215610dad57600080fd5b8151610c3981610bc1565b60008219821115610dcb57610dcb610d2d565b500190565b600060208284031215610de257600080fd5b5051919050565b600181811c90821680610dfd57607f821691505b602082108103610e1d57634e487b7160e01b600052602260045260246000fd5b50919050565b60008251610e35818460208701610ca5565b9190910192915050565b6001600160a01b03841681528215156020820152606060408201819052600090610a5c90830184610cd5565b600060208284031215610e7d57600080fd5b81518015158114610c3957600080fdfea2646970667358221220080f7dc63b527ba5a591dab75c9ca8ef56cad8fba7241a4db75d8a509ec15cac64736f6c634300080d0033",
  "devdoc": {
    "author": "Alchemix Finance",
    "errors": {
      "ERC20CallFailed(address,bool,bytes)": [
        {
          "params": {
            "data": "The resulting data from the call. This is error data when the call was not a success. Otherwise,                this is malformed data when the call was a success.",
            "success": "If the call to the token was a success.",
            "target": "The target address."
          }
        }
      ]
    },
    "kind": "dev",
    "methods": {
      "addVault(address,address,uint256,uint256)": {
        "details": "Add reward collector params to a map of yield tokens"
      },
      "distributeRewards(address)": {
        "details": "Distributes grant rewards and triggers reward collector to claim and donate"
      },
      "getRewardCollector(address)": {
        "details": "Get reward collector params for a given vault"
      },
      "owner()": {
        "details": "Returns the address of the current owner."
      },
      "renounceOwnership()": {
        "details": "Leaves the contract without owner. It will not be possible to call `onlyOwner` functions anymore. Can only be called by the current owner. NOTE: Renouncing ownership will leave the contract without an owner, thereby removing any functionality that is only available to the owner."
      },
      "setRewardAmount(address,uint256)": {
        "details": "Set the reward token amount for a given vault"
      },
      "setRewardCollectorAddress(address,address)": {
        "details": "Set the reward collector address for a given vault"
      },
      "setRewardTimeframe(address,uint256)": {
        "details": "Set the reward token timeframe for a given vault"
      },
      "setSlippage(uint256)": {
        "details": "Set the allowed slippage"
      },
      "sweepTokens(address,address)": {
        "details": "Sweeps reward tokens to recipient"
      },
      "transferOwnership(address)": {
        "details": "Transfers ownership of the contract to a new account (`newOwner`). Can only be called by the current owner."
      }
    },
    "stateVariables": {
      "rewards": {
        "details": "A mapping of the yield tokens to their respective reward collectors"
      },
      "version": {
        "return": "The version.",
        "returns": {
          "_0": "The version."
        }
      }
    },
    "title": "Reward Router",
    "version": 1
  },
  "userdoc": {
    "errors": {
      "ERC20CallFailed(address,bool,bytes)": [
        {
          "notice": "An error used to indicate that a call to an ERC20 contract failed."
        }
      ]
    },
    "kind": "user",
    "methods": {
      "sweepTokens(address,address)": {
        "notice": "This contract is stocked with reward tokens from grants. This function is to retract excess tokens."
      },
      "version()": {
        "notice": "Gets the current version."
      }
    },
    "version": 1
  },
  "storageLayout": {
    "storage": [
      {
        "astId": 27636,
        "contract": "submodules/v2-foundry/src/utils/RewardRouter.sol:RewardRouter",
        "label": "_owner",
        "offset": 0,
        "slot": "0",
        "type": "t_address"
      },
      {
        "astId": 89198,
        "contract": "submodules/v2-foundry/src/utils/RewardRouter.sol:RewardRouter",
        "label": "version",
        "offset": 0,
        "slot": "1",
        "type": "t_string_storage"
      },
      {
        "astId": 89204,
        "contract": "submodules/v2-foundry/src/utils/RewardRouter.sol:RewardRouter",
        "label": "slippageBPS",
        "offset": 0,
        "slot": "2",
        "type": "t_uint256"
      },
      {
        "astId": 89210,
        "contract": "submodules/v2-foundry/src/utils/RewardRouter.sol:RewardRouter",
        "label": "rewards",
        "offset": 0,
        "slot": "3",
        "type": "t_mapping(t_address,t_struct(Reward)89189_storage)"
      }
    ],
    "types": {
      "t_address": {
        "encoding": "inplace",
        "label": "address",
        "numberOfBytes": "20"
      },
      "t_mapping(t_address,t_struct(Reward)89189_storage)": {
        "encoding": "mapping",
        "key": "t_address",
        "label": "mapping(address => struct Reward)",
        "numberOfBytes": "32",
        "value": "t_struct(Reward)89189_storage"
      },
      "t_string_storage": {
        "encoding": "bytes",
        "label": "string",
        "numberOfBytes": "32"
      },
      "t_struct(Reward)89189_storage": {
        "encoding": "inplace",
        "label": "struct Reward",
        "members": [
          {
            "astId": 89180,
            "contract": "submodules/v2-foundry/src/utils/RewardRouter.sol:RewardRouter",
            "label": "rewardCollectorAddress",
            "offset": 0,
            "slot": "0",
            "type": "t_address"
          },
          {
            "astId": 89182,
            "contract": "submodules/v2-foundry/src/utils/RewardRouter.sol:RewardRouter",
            "label": "rewardAmount",
            "offset": 0,
            "slot": "1",
            "type": "t_uint256"
          },
          {
            "astId": 89184,
            "contract": "submodules/v2-foundry/src/utils/RewardRouter.sol:RewardRouter",
            "label": "rewardPaid",
            "offset": 0,
            "slot": "2",
            "type": "t_uint256"
          },
          {
            "astId": 89186,
            "contract": "submodules/v2-foundry/src/utils/RewardRouter.sol:RewardRouter",
            "label": "rewardTimeframe",
            "offset": 0,
            "slot": "3",
            "type": "t_uint256"
          },
          {
            "astId": 89188,
            "contract": "submodules/v2-foundry/src/utils/RewardRouter.sol:RewardRouter",
            "label": "lastRewardBlock",
            "offset": 0,
            "slot": "4",
            "type": "t_uint256"
          }
        ],
        "numberOfBytes": "160"
      },
      "t_uint256": {
        "encoding": "inplace",
        "label": "uint256",
        "numberOfBytes": "32"
      }
    }
  }
}