{
  "address": "0x990162AFaA06f591c03DD36ECBDa24A8A80F2D0c",
  "abi": [
    {
      "inputs": [],
      "stateMutability": "nonpayable",
      "type": "constructor"
    },
    {
      "inputs": [
        {
          "internalType": "address",
          "name": "target",
          "type": "address"
        },
        {
          "internalType": "bool",
          "name": "success",
          "type": "bool"
        },
        {
          "internalType": "bytes",
          "name": "data",
          "type": "bytes"
        }
      ],
      "name": "ERC20CallFailed",
      "type": "error"
    },
    {
      "anonymous": false,
      "inputs": [
        {
          "indexed": true,
          "internalType": "address",
          "name": "previousOwner",
          "type": "address"
        },
        {
          "indexed": true,
          "internalType": "address",
          "name": "newOwner",
          "type": "address"
        }
      ],
      "name": "OwnershipTransferred",
      "type": "event"
    },
    {
      "inputs": [
        {
          "internalType": "address",
          "name": "vault",
          "type": "address"
        },
        {
          "internalType": "address",
          "name": "rewardCollectorAddress",
          "type": "address"
        },
        {
          "internalType": "address",
          "name": "rewardToken",
          "type": "address"
        },
        {
          "internalType": "uint256",
          "name": "rewardAmount",
          "type": "uint256"
        },
        {
          "internalType": "uint256",
          "name": "rewardTimeframe",
          "type": "uint256"
        },
        {
          "internalType": "uint256",
          "name": "lastRewardBlock",
          "type": "uint256"
        }
      ],
      "name": "addRewardCollector",
      "outputs": [],
      "stateMutability": "nonpayable",
      "type": "function"
    },
    {
      "inputs": [
        {
          "internalType": "address",
          "name": "token",
          "type": "address"
        }
      ],
      "name": "distributeRewards",
      "outputs": [
        {
          "internalType": "uint256",
          "name": "",
          "type": "uint256"
        }
      ],
      "stateMutability": "nonpayable",
      "type": "function"
    },
    {
      "inputs": [
        {
          "internalType": "address",
          "name": "vault",
          "type": "address"
        }
      ],
      "name": "getRewardCollector",
      "outputs": [
        {
          "internalType": "address",
          "name": "",
          "type": "address"
        },
        {
          "internalType": "address",
          "name": "",
          "type": "address"
        },
        {
          "internalType": "uint256",
          "name": "",
          "type": "uint256"
        },
        {
          "internalType": "uint256",
          "name": "",
          "type": "uint256"
        },
        {
          "internalType": "uint256",
          "name": "",
          "type": "uint256"
        }
      ],
      "stateMutability": "view",
      "type": "function"
    },
    {
      "inputs": [],
      "name": "owner",
      "outputs": [
        {
          "internalType": "address",
          "name": "",
          "type": "address"
        }
      ],
      "stateMutability": "view",
      "type": "function"
    },
    {
      "inputs": [],
      "name": "renounceOwnership",
      "outputs": [],
      "stateMutability": "nonpayable",
      "type": "function"
    },
    {
      "inputs": [
        {
          "internalType": "address",
          "name": "",
          "type": "address"
        }
      ],
      "name": "rewardCollectors",
      "outputs": [
        {
          "internalType": "address",
          "name": "rewardCollectorAddress",
          "type": "address"
        },
        {
          "internalType": "address",
          "name": "rewardToken",
          "type": "address"
        },
        {
          "internalType": "uint256",
          "name": "rewardAmount",
          "type": "uint256"
        },
        {
          "internalType": "uint256",
          "name": "rewardTimeframe",
          "type": "uint256"
        },
        {
          "internalType": "uint256",
          "name": "lastRewardBlock",
          "type": "uint256"
        }
      ],
      "stateMutability": "view",
      "type": "function"
    },
    {
      "inputs": [
        {
          "internalType": "address",
          "name": "vault",
          "type": "address"
        },
        {
          "internalType": "uint256",
          "name": "rewardAmount",
          "type": "uint256"
        }
      ],
      "name": "setRewardAmount",
      "outputs": [],
      "stateMutability": "nonpayable",
      "type": "function"
    },
    {
      "inputs": [
        {
          "internalType": "address",
          "name": "vault",
          "type": "address"
        },
        {
          "internalType": "address",
          "name": "rewardCollectorAddress",
          "type": "address"
        }
      ],
      "name": "setRewardCollectorAddress",
      "outputs": [],
      "stateMutability": "nonpayable",
      "type": "function"
    },
    {
      "inputs": [
        {
          "internalType": "address",
          "name": "vault",
          "type": "address"
        },
        {
          "internalType": "address",
          "name": "rewardToken",
          "type": "address"
        }
      ],
      "name": "setRewardToken",
      "outputs": [],
      "stateMutability": "nonpayable",
      "type": "function"
    },
    {
      "inputs": [
        {
          "internalType": "address",
          "name": "token",
          "type": "address"
        },
        {
          "internalType": "address",
          "name": "recipient",
          "type": "address"
        }
      ],
      "name": "sweepTokens",
      "outputs": [],
      "stateMutability": "nonpayable",
      "type": "function"
    },
    {
      "inputs": [
        {
          "internalType": "address",
          "name": "newOwner",
          "type": "address"
        }
      ],
      "name": "transferOwnership",
      "outputs": [],
      "stateMutability": "nonpayable",
      "type": "function"
    },
    {
      "inputs": [],
      "name": "version",
      "outputs": [
        {
          "internalType": "string",
          "name": "",
          "type": "string"
        }
      ],
      "stateMutability": "view",
      "type": "function"
    }
  ],
  "transactionHash": "0xf5469079b24326f04de7b86fa5be7744865d81f44e41066d4265635e69fcce34",
  "args": [],
  "solcInputHash": "2bc5792549521a11f35c80468790b75a",
  "bytecode": "0x60c060405260056080819052640312e302e360dc1b60a090815262000028916001919062000098565b503480156200003657600080fd5b50620000423362000048565b6200017a565b600080546001600160a01b038381166001600160a01b0319831681178455604051919092169283917f8be0079c531659141344cd1fd0a4f28419497f9722a3daafe3b4186f6b6457e09190a35050565b828054620000a6906200013e565b90600052602060002090601f016020900481019282620000ca576000855562000115565b82601f10620000e557805160ff191683800117855562000115565b8280016001018555821562000115579182015b8281111562000115578251825591602001919060010190620000f8565b506200012392915062000127565b5090565b5b8082111562000123576000815560010162000128565b600181811c908216806200015357607f821691505b6020821081036200017457634e487b7160e01b600052602260045260246000fd5b50919050565b610c2d806200018a6000396000f3fe608060405234801561001057600080fd5b50600436106100b45760003560e01c80636d0580b9116100715780636d0580b9146101ac578063715018a6146101f85780638da5cb5b14610200578063e5c8c5721461021b578063e8260b991461022e578063f2fde38b1461024157600080fd5b80631609be1d146100b95780631de9d9b6146100ce578063348c49a1146100f457806352c94f751461010757806354fd4d50146101845780635997feef14610199575b600080fd5b6100cc6100c736600461097f565b610254565b005b6100e16100dc3660046109b2565b610274565b6040519081526020015b60405180910390f35b6100cc61010236600461097f565b610462565b6101516101153660046109b2565b6002602081905260009182526040909120805460018201549282015460038301546004909301546001600160a01b039283169490921692909185565b604080516001600160a01b039687168152959094166020860152928401919091526060830152608082015260a0016100eb565b61018c610498565b6040516100eb9190610a30565b6100cc6101a7366004610a43565b610526565b6101516101ba3660046109b2565b6001600160a01b0390811660009081526002602081905260409091208054600182015492820154600383015460049093015491851695939094169392565b6100cc6105b7565b6000546040516001600160a01b0390911681526020016100eb565b6100cc61022936600461097f565b6105cb565b6100cc61023c366004610aa2565b610604565b6100cc61024f3660046109b2565b61062c565b61025c6106aa565b610270828261026b8530610704565b610807565b5050565b6001600160a01b0381166000908152600260208190526040822001541561034b576001600160a01b0382166000908152600260205260408120600401546102bb9043610ae2565b6001600160a01b03841660009081526002602081905260408220600381015491015492935090916102ed908490610af9565b6102f79190610b18565b6001600160a01b0380861660009081526002602052604090206001810154905492935061032992908216911683610807565b50506001600160a01b0382166000908152600260205260409020436004909101555b6001600160a01b03828116600081815260026020526040908190205490516315a1452760e21b815260048101929092529091169063a387b32f908490612710908490635685149c90602401602060405180830381865afa1580156103b3573d6000803e3d6000fd5b505050506040513d601f19601f820116820180604052508101906103d79190610b3a565b6103e39061251c610af9565b6103ed9190610b18565b6040516001600160e01b031960e085901b1681526001600160a01b03909216600483015260248201526044016020604051808303816000875af1158015610438573d6000803e3d6000fd5b505050506040513d601f19601f8201168201806040525081019061045c9190610b3a565b92915050565b61046a6106aa565b6001600160a01b03918216600090815260026020526040902080546001600160a01b03191691909216179055565b600180546104a590610b53565b80601f01602080910402602001604051908101604052809291908181526020018280546104d190610b53565b801561051e5780601f106104f35761010080835404028352916020019161051e565b820191906000526020600020905b81548152906001019060200180831161050157829003601f168201915b505050505081565b61052e6106aa565b6040805160a0810182526001600160a01b03968716815294861660208087019182528683019586526060870194855260808701938452978716600090815260029889905291909120945185549087166001600160a01b03199182161786559051600186018054919097169116179094559051938201939093559151600383015551600490910155565b6105bf6106aa565b6105c96000610913565b565b6105d36106aa565b6001600160a01b03918216600090815260026020526040902060010180546001600160a01b03191691909216179055565b61060c6106aa565b6001600160a01b0390911660009081526002602081905260409091200155565b6106346106aa565b6001600160a01b03811661069e5760405162461bcd60e51b815260206004820152602660248201527f4f776e61626c653a206e6577206f776e657220697320746865207a65726f206160448201526564647265737360d01b60648201526084015b60405180910390fd5b6106a781610913565b50565b6000546001600160a01b031633146105c95760405162461bcd60e51b815260206004820181905260248201527f4f776e61626c653a2063616c6c6572206973206e6f7420746865206f776e65726044820152606401610695565b604080516001600160a01b0383811660248084019190915283518084039091018152604490920183526020820180516001600160e01b03166370a0823160e01b1790529151600092839283929187169161075e9190610b8d565b600060405180830381855afa9150503d8060008114610799576040519150601f19603f3d011682016040523d82523d6000602084013e61079e565b606091505b5091509150846001600160a01b03163b600014806107ba575081155b806107c6575060208151105b156107ea5784828260405163e7e40b5b60e01b815260040161069593929190610ba9565b808060200190518101906107fe9190610b3a565b95945050505050565b604080516001600160a01b038481166024830152604480830185905283518084039091018152606490920183526020820180516001600160e01b031663a9059cbb60e01b17905291516000928392908716916108639190610b8d565b6000604051808303816000865af19150503d80600081146108a0576040519150601f19603f3d011682016040523d82523d6000602084013e6108a5565b606091505b5091509150846001600160a01b03163b600014806108c1575081155b806108e857508051158015906108e85750808060200190518101906108e69190610bd5565b155b1561090c5784828260405163e7e40b5b60e01b815260040161069593929190610ba9565b5050505050565b600080546001600160a01b038381166001600160a01b0319831681178455604051919092169283917f8be0079c531659141344cd1fd0a4f28419497f9722a3daafe3b4186f6b6457e09190a35050565b80356001600160a01b038116811461097a57600080fd5b919050565b6000806040838503121561099257600080fd5b61099b83610963565b91506109a960208401610963565b90509250929050565b6000602082840312156109c457600080fd5b6109cd82610963565b9392505050565b60005b838110156109ef5781810151838201526020016109d7565b838111156109fe576000848401525b50505050565b60008151808452610a1c8160208601602086016109d4565b601f01601f19169290920160200192915050565b6020815260006109cd6020830184610a04565b60008060008060008060c08789031215610a5c57600080fd5b610a6587610963565b9550610a7360208801610963565b9450610a8160408801610963565b9350606087013592506080870135915060a087013590509295509295509295565b60008060408385031215610ab557600080fd5b610abe83610963565b946020939093013593505050565b634e487b7160e01b600052601160045260246000fd5b600082821015610af457610af4610acc565b500390565b6000816000190483118215151615610b1357610b13610acc565b500290565b600082610b3557634e487b7160e01b600052601260045260246000fd5b500490565b600060208284031215610b4c57600080fd5b5051919050565b600181811c90821680610b6757607f821691505b602082108103610b8757634e487b7160e01b600052602260045260246000fd5b50919050565b60008251610b9f8184602087016109d4565b9190910192915050565b6001600160a01b038416815282151560208201526060604082018190526000906107fe90830184610a04565b600060208284031215610be757600080fd5b815180151581146109cd57600080fdfea26469706673582212203831a035c99a7bc2044b53da786aa55bbd8edaf15b511dd1f0b0bf2203adaa4064736f6c634300080d0033",
  "devdoc": {
    "author": "Alchemix Finance",
    "errors": {
      "ERC20CallFailed(address,bool,bytes)": [
        {
          "params": {
            "data": "The resulting data from the call. This is error data when the call was not a success. Otherwise,                this is malformed data when the call was a success.",
            "success": "If the call to the token was a success.",
            "target": "The target address."
          }
        }
      ]
    },
    "kind": "dev",
    "methods": {
      "addRewardCollector(address,address,address,uint256,uint256,uint256)": {
        "details": "Add reward collector params to a map of yield tokens"
      },
      "distributeRewards(address)": {
        "details": "Distributes grant rewards and triggers reward collector to claim and donate"
      },
      "getRewardCollector(address)": {
        "details": "Get reward collector params for a given vault"
      },
      "owner()": {
        "details": "Returns the address of the current owner."
      },
      "renounceOwnership()": {
        "details": "Leaves the contract without owner. It will not be possible to call `onlyOwner` functions anymore. Can only be called by the current owner. NOTE: Renouncing ownership will leave the contract without an owner, thereby removing any functionality that is only available to the owner."
      },
      "setRewardAmount(address,uint256)": {
        "details": "Set the reward token amount for a given vault"
      },
      "setRewardCollectorAddress(address,address)": {
        "details": "Set the reward collector address for a given vault"
      },
      "setRewardToken(address,address)": {
        "details": "Set the reward token address for a given vault"
      },
      "sweepTokens(address,address)": {
        "details": "Sweeps reward tokens to recipient"
      },
      "transferOwnership(address)": {
        "details": "Transfers ownership of the contract to a new account (`newOwner`). Can only be called by the current owner."
      }
    },
    "stateVariables": {
      "rewardCollectors": {
        "details": "A mapping of the yield tokens to their respective reward collectors"
      },
      "version": {
        "return": "The version.",
        "returns": {
          "_0": "The version."
        }
      }
    },
    "title": "Reward Router",
    "version": 1
  },
  "userdoc": {
    "errors": {
      "ERC20CallFailed(address,bool,bytes)": [
        {
          "notice": "An error used to indicate that a call to an ERC20 contract failed."
        }
      ]
    },
    "kind": "user",
    "methods": {
      "version()": {
        "notice": "Gets the current version."
      }
    },
    "version": 1
  },
  "storageLayout": {
    "storage": [
      {
        "astId": 27636,
        "contract": "submodules/v2-foundry/src/utils/RewardRouter.sol:RewardRouter",
        "label": "_owner",
        "offset": 0,
        "slot": "0",
        "type": "t_address"
      },
      {
        "astId": 89176,
        "contract": "submodules/v2-foundry/src/utils/RewardRouter.sol:RewardRouter",
        "label": "version",
        "offset": 0,
        "slot": "1",
        "type": "t_string_storage"
      },
      {
        "astId": 89182,
        "contract": "submodules/v2-foundry/src/utils/RewardRouter.sol:RewardRouter",
        "label": "rewardCollectors",
        "offset": 0,
        "slot": "2",
        "type": "t_mapping(t_address,t_struct(RewardCollector)89167_storage)"
      }
    ],
    "types": {
      "t_address": {
        "encoding": "inplace",
        "label": "address",
        "numberOfBytes": "20"
      },
      "t_mapping(t_address,t_struct(RewardCollector)89167_storage)": {
        "encoding": "mapping",
        "key": "t_address",
        "label": "mapping(address => struct RewardCollector)",
        "numberOfBytes": "32",
        "value": "t_struct(RewardCollector)89167_storage"
      },
      "t_string_storage": {
        "encoding": "bytes",
        "label": "string",
        "numberOfBytes": "32"
      },
      "t_struct(RewardCollector)89167_storage": {
        "encoding": "inplace",
        "label": "struct RewardCollector",
        "members": [
          {
            "astId": 89158,
            "contract": "submodules/v2-foundry/src/utils/RewardRouter.sol:RewardRouter",
            "label": "rewardCollectorAddress",
            "offset": 0,
            "slot": "0",
            "type": "t_address"
          },
          {
            "astId": 89160,
            "contract": "submodules/v2-foundry/src/utils/RewardRouter.sol:RewardRouter",
            "label": "rewardToken",
            "offset": 0,
            "slot": "1",
            "type": "t_address"
          },
          {
            "astId": 89162,
            "contract": "submodules/v2-foundry/src/utils/RewardRouter.sol:RewardRouter",
            "label": "rewardAmount",
            "offset": 0,
            "slot": "2",
            "type": "t_uint256"
          },
          {
            "astId": 89164,
            "contract": "submodules/v2-foundry/src/utils/RewardRouter.sol:RewardRouter",
            "label": "rewardTimeframe",
            "offset": 0,
            "slot": "3",
            "type": "t_uint256"
          },
          {
            "astId": 89166,
            "contract": "submodules/v2-foundry/src/utils/RewardRouter.sol:RewardRouter",
            "label": "lastRewardBlock",
            "offset": 0,
            "slot": "4",
            "type": "t_uint256"
          }
        ],
        "numberOfBytes": "160"
      },
      "t_uint256": {
        "encoding": "inplace",
        "label": "uint256",
        "numberOfBytes": "32"
      }
    }
  }
}