{
  "address": "0xA7ea9ef9E2b5e15971040230F5d6b75C68Aab723",
  "abi": [
    {
      "inputs": [
        {
          "components": [
            {
              "internalType": "address",
              "name": "alchemist",
              "type": "address"
            },
            {
              "internalType": "address",
              "name": "debtToken",
              "type": "address"
            },
            {
              "internalType": "address",
              "name": "rewardToken",
              "type": "address"
            },
            {
              "internalType": "address",
              "name": "swapRouter",
              "type": "address"
            }
          ],
          "internalType": "struct InitializationParams",
          "name": "params",
          "type": "tuple"
        }
      ],
      "stateMutability": "nonpayable",
      "type": "constructor"
    },
    {
      "inputs": [
        {
          "internalType": "string",
          "name": "message",
          "type": "string"
        }
      ],
      "name": "IllegalState",
      "type": "error"
    },
    {
      "inputs": [],
      "name": "alchemist",
      "outputs": [
        {
          "internalType": "address",
          "name": "",
          "type": "address"
        }
      ],
      "stateMutability": "view",
      "type": "function"
    },
    {
      "inputs": [
        {
          "internalType": "address",
          "name": "yieldToken",
          "type": "address"
        }
      ],
      "name": "claim",
      "outputs": [],
      "stateMutability": "nonpayable",
      "type": "function"
    },
    {
      "inputs": [
        {
          "internalType": "address",
          "name": "token",
          "type": "address"
        },
        {
          "internalType": "uint256",
          "name": "minimumAmountOut",
          "type": "uint256"
        }
      ],
      "name": "claimAndDistributeRewards",
      "outputs": [
        {
          "internalType": "uint256",
          "name": "",
          "type": "uint256"
        }
      ],
      "stateMutability": "nonpayable",
      "type": "function"
    },
    {
      "inputs": [],
      "name": "debtToken",
      "outputs": [
        {
          "internalType": "address",
          "name": "",
          "type": "address"
        }
      ],
      "stateMutability": "view",
      "type": "function"
    },
    {
      "inputs": [],
      "name": "rewardToken",
      "outputs": [
        {
          "internalType": "address",
          "name": "",
          "type": "address"
        }
      ],
      "stateMutability": "view",
      "type": "function"
    },
    {
      "inputs": [],
      "name": "swapRouter",
      "outputs": [
        {
          "internalType": "address",
          "name": "",
          "type": "address"
        }
      ],
      "stateMutability": "view",
      "type": "function"
    },
    {
      "inputs": [],
      "name": "version",
      "outputs": [
        {
          "internalType": "string",
          "name": "",
          "type": "string"
        }
      ],
      "stateMutability": "view",
      "type": "function"
    },
    {
      "stateMutability": "payable",
      "type": "receive"
    }
  ],
  "transactionHash": "0xd5de08f2af1b186a157d7b17d8bda2808b134ac4224648409f9de640a8e1c298",
  "args": [
    {
      "alchemist": "0xf8317BD5F48B6fE608a52B48C856D3367540B73B",
      "debtToken": "0x0100546F2cD4C9D97f798fFC9755E47865FF7Ee6",
      "rewardToken": "0x1b40183EFB4Dd766f11bDa7A7c3AD8982e998421",
      "swapRouter": "0x68b3465833fb72A70ecDF485E0e4C7bD8665Fc45"
    }
  ],
  "solcInputHash": "f2303c26aed16dd6660fad7df9f92f9c",
  "bytecode": "0x60c060405260056080819052640312e302e360dc1b60a0908152620000289160009190620000ba565b503480156200003657600080fd5b5060405162000da538038062000da583398101604081905262000059916200017d565b8051600180546001600160a01b03199081166001600160a01b0393841617909155602083015160028054831691841691909117905560408301516003805483169184169190911790556060909201516004805490931691161790556200024d565b828054620000c89062000211565b90600052602060002090601f016020900481019282620000ec576000855562000137565b82601f106200010757805160ff191683800117855562000137565b8280016001018555821562000137579182015b82811115620001375782518255916020019190600101906200011a565b506200014592915062000149565b5090565b5b808211156200014557600081556001016200014a565b80516001600160a01b03811681146200017857600080fd5b919050565b6000608082840312156200019057600080fd5b604051608081016001600160401b0381118282101715620001c157634e487b7160e01b600052604160045260246000fd5b604052620001cf8362000160565b8152620001df6020840162000160565b6020820152620001f26040840162000160565b6040820152620002056060840162000160565b60608201529392505050565b600181811c908216806200022657607f821691505b6020821081036200024757634e487b7160e01b600052602260045260246000fd5b50919050565b610b48806200025d6000396000f3fe6080604052600436106100745760003560e01c806393c312011161004e57806393c3120114610105578063c31c9c0714610133578063f7c618c114610153578063f8d898981461017357600080fd5b80631e83409a1461008057806354fd4d50146100a25780638de925f6146100cd57600080fd5b3661007b57005b600080fd5b34801561008c57600080fd5b506100a061009b366004610955565b610193565b005b3480156100ae57600080fd5b506100b7610253565b6040516100c491906109c6565b60405180910390f35b3480156100d957600080fd5b506001546100ed906001600160a01b031681565b6040516001600160a01b0390911681526020016100c4565b34801561011157600080fd5b506101256101203660046109d9565b6102e1565b6040519081526020016100c4565b34801561013f57600080fd5b506004546100ed906001600160a01b031681565b34801561015f57600080fd5b506003546100ed906001600160a01b031681565b34801561017f57600080fd5b506002546100ed906001600160a01b031681565b806001600160a01b0316638bc6beb26040518163ffffffff1660e01b8152600401602060405180830381865afa1580156101d1573d6000803e3d6000fd5b505050506040513d601f19601f820116820180604052508101906101f59190610a05565b60405163d279c19160e01b81523060048201526001600160a01b03919091169063d279c19190602401600060405180830381600087803b15801561023857600080fd5b505af115801561024c573d6000803e3d6000fd5b5050505050565b6000805461026090610a22565b80601f016020809104026020016040519081016040528092919081815260200182805461028c90610a22565b80156102d95780601f106102ae576101008083540402835291602001916102d9565b820191906000526020600020905b8154815290600101906020018083116102bc57829003601f168201915b505050505081565b6001546003546040516363f374ab60e11b81526001600160a01b0391821660048201528482166024820152600092919091169063c7e6e95690604401600060405180830381600087803b15801561033757600080fd5b505af115801561034b573d6000803e3d6000fd5b50506003546040516370a0823160e01b8152306004820152600093506001600160a01b0390911691506370a0823190602401602060405180830381865afa15801561039a573d6000803e3d6000fd5b505050506040513d601f19601f820116820180604052508101906103be9190610a5c565b90506000816000036103d557600092505050610937565b6002546001600160a01b031673bc6da0fe9ad5f3b0d58160288917aa56653660e819016105c75760035460405160609190911b6bffffffffffffffffffffffff1916602082015261017760eb1b60348201819052736015551cd911ff4685072e2793f56c841e3ab66160611b6037830152604b820152736b175474e89094c44da98b954eedeac495271d0f60601b604e82015260009060620160408051808303601f190181526080830182528083523060208401528282018690526060830188905260048054925163b858183f60e01b81529194506001600160a01b039092169163b858183f916104c891859101610a75565b6020604051808303816000875af11580156104e7573d6000803e3d6000fd5b505050506040513d601f19601f8201168201806040525081019061050b9190610a5c565b92507343b4fdfd4ff969587185cdb6f0bd875c5fc83f8c63a6417ed6600160008661271061053b826126ac610ac3565b6105459190610af0565b6040516001600160e01b031960e087901b168152600f94850b60048201529290930b6024830152604482015260648101919091526084016020604051808303816000875af115801561059b573d6000803e3d6000fd5b505050506040513d601f19601f820116820180604052508101906105bf9190610a5c565b50505061085a565b6002546001600160a01b0316730100546f2cd4c9d97f798ffc9755e47865ff7ee519016107f75760035460405160609190911b6bffffffffffffffffffffffff1916602082015261017760eb1b6034820152736015551cd911ff4685072e2793f56c841e3ab66160611b6037820152600090604b0160408051808303601f190181526080830182528083523060208401528282018690526060830188905260048054925163b858183f60e01b81529194506001600160a01b039092169163b858183f9161069691859101610a75565b6020604051808303816000875af11580156106b5573d6000803e3d6000fd5b505050506040513d601f19601f820116820180604052508101906106d99190610a5c565b604051632e1a7d4d60e01b81526004810182905290935073c02aaa39b223fe8d0a0e5c4f27ead9083c756cc290632e1a7d4d90602401600060405180830381600087803b15801561072957600080fd5b505af115801561073d573d6000803e3d6000fd5b5073c4c319e2d4d66cca4464c0c2b32c9bd23ebe784e9250633df0212491508590506000600182612710610773826126ac610ac3565b61077d9190610af0565b6040516001600160e01b031960e088901b168152600f94850b60048201529290930b60248301526044820152606481019190915260840160206040518083038185885af11580156107d2573d6000803e3d6000fd5b50505050506040513d601f19601f820116820180604052508101906105bf9190610a5c565b60405163c50656df60e01b815260206004820152602d60248201527f52657761726420636f6c6c6563746f72206064656274546f6b656e602069732060448201526c1b9bdd081cdd5c1c1bdc9d1959609a1b606482015260840160405180910390fd5b6001546002546040516370a0823160e01b81523060048201526001600160a01b039283169263e69d849d9289929116906370a0823190602401602060405180830381865afa1580156108b0573d6000803e3d6000fd5b505050506040513d601f19601f820116820180604052508101906108d49190610a5c565b6040516001600160e01b031960e085901b1681526001600160a01b0390921660048301526024820152604401600060405180830381600087803b15801561091a57600080fd5b505af115801561092e573d6000803e3d6000fd5b50939450505050505b92915050565b6001600160a01b038116811461095257600080fd5b50565b60006020828403121561096757600080fd5b81356109728161093d565b9392505050565b6000815180845260005b8181101561099f57602081850181015186830182015201610983565b818111156109b1576000602083870101525b50601f01601f19169290920160200192915050565b6020815260006109726020830184610979565b600080604083850312156109ec57600080fd5b82356109f78161093d565b946020939093013593505050565b600060208284031215610a1757600080fd5b81516109728161093d565b600181811c90821680610a3657607f821691505b602082108103610a5657634e487b7160e01b600052602260045260246000fd5b50919050565b600060208284031215610a6e57600080fd5b5051919050565b602081526000825160806020840152610a9160a0840182610979565b905060018060a01b03602085015116604084015260408401516060840152606084015160808401528091505092915050565b6000816000190483118215151615610aeb57634e487b7160e01b600052601160045260246000fd5b500290565b600082610b0d57634e487b7160e01b600052601260045260246000fd5b50049056fea26469706673582212208b8cb5626b8784b2a0fb6e8055a3457aefdd2b20c96d021eeeb23d293c0b5c0264736f6c634300080d0033",
  "devdoc": {
    "author": "Alchemix Finance",
    "errors": {
      "IllegalState(string)": [
        {
          "params": {
            "message": "The error message."
          }
        }
      ]
    },
    "kind": "dev",
    "methods": {
      "claimAndDistributeRewards(address,uint256)": {
        "params": {
          "minimumAmountOut": "The minimum returns to accept.",
          "token": "The yield token to claim rewards for."
        },
        "returns": {
          "_0": "             The amount of reward tokens claimed."
        }
      }
    },
    "stateVariables": {
      "debtToken": {
        "return": "The debt token",
        "returns": {
          "_0": "The debt token"
        }
      },
      "rewardToken": {
        "return": "The reward token.",
        "returns": {
          "_0": "The reward token."
        }
      },
      "swapRouter": {
        "return": "The swap router address.",
        "returns": {
          "_0": "The swap router address."
        }
      },
      "version": {
        "return": "The version.",
        "returns": {
          "_0": "The version."
        }
      }
    },
    "title": "RewardCollectorVesper",
    "version": 1
  },
  "userdoc": {
    "errors": {
      "IllegalState(string)": [
        {
          "notice": "An error used to indicate that a function has encountered an unrecoverable state."
        }
      ]
    },
    "kind": "user",
    "methods": {
      "claimAndDistributeRewards(address,uint256)": {
        "notice": "Claims rewards tokens, swaps for alUSD."
      },
      "debtToken()": {
        "notice": "Gets the current debt token."
      },
      "rewardToken()": {
        "notice": "Gets the current reward token."
      },
      "swapRouter()": {
        "notice": "Gets the current swap router."
      },
      "version()": {
        "notice": "Gets the current version."
      }
    },
    "version": 1
  },
  "storageLayout": {
    "storage": [
      {
        "astId": 89395,
        "contract": "submodules/v2-foundry/src/utils/RewardCollectorVesper.sol:RewardCollectorVesper",
        "label": "version",
        "offset": 0,
        "slot": "0",
        "type": "t_string_storage"
      },
      {
        "astId": 89397,
        "contract": "submodules/v2-foundry/src/utils/RewardCollectorVesper.sol:RewardCollectorVesper",
        "label": "alchemist",
        "offset": 0,
        "slot": "1",
        "type": "t_address"
      },
      {
        "astId": 89399,
        "contract": "submodules/v2-foundry/src/utils/RewardCollectorVesper.sol:RewardCollectorVesper",
        "label": "debtToken",
        "offset": 0,
        "slot": "2",
        "type": "t_address"
      },
      {
        "astId": 89402,
        "contract": "submodules/v2-foundry/src/utils/RewardCollectorVesper.sol:RewardCollectorVesper",
        "label": "rewardToken",
        "offset": 0,
        "slot": "3",
        "type": "t_address"
      },
      {
        "astId": 89405,
        "contract": "submodules/v2-foundry/src/utils/RewardCollectorVesper.sol:RewardCollectorVesper",
        "label": "swapRouter",
        "offset": 0,
        "slot": "4",
        "type": "t_address"
      }
    ],
    "types": {
      "t_address": {
        "encoding": "inplace",
        "label": "address",
        "numberOfBytes": "20"
      },
      "t_string_storage": {
        "encoding": "bytes",
        "label": "string",
        "numberOfBytes": "32"
      }
    }
  }
}