{
  "address": "0x6A1883833e86a7110a59be817cAE9742Bc3050d1",
  "abi": [
    {
      "inputs": [],
      "stateMutability": "nonpayable",
      "type": "constructor"
    },
    {
      "anonymous": false,
      "inputs": [
        {
          "indexed": false,
          "internalType": "uint8",
          "name": "version",
          "type": "uint8"
        }
      ],
      "name": "Initialized",
      "type": "event"
    },
    {
      "anonymous": false,
      "inputs": [
        {
          "indexed": true,
          "internalType": "address",
          "name": "previousOwner",
          "type": "address"
        },
        {
          "indexed": true,
          "internalType": "address",
          "name": "newOwner",
          "type": "address"
        }
      ],
      "name": "OwnershipTransferred",
      "type": "event"
    },
    {
      "inputs": [],
      "name": "SDL",
      "outputs": [
        {
          "internalType": "address",
          "name": "",
          "type": "address"
        }
      ],
      "stateMutability": "view",
      "type": "function"
    },
    {
      "inputs": [
        {
          "internalType": "bytes32",
          "name": "id",
          "type": "bytes32"
        }
      ],
      "name": "clearDelegate",
      "outputs": [],
      "stateMutability": "nonpayable",
      "type": "function"
    },
    {
      "inputs": [
        {
          "internalType": "uint256",
          "name": "value",
          "type": "uint256"
        },
        {
          "internalType": "uint256",
          "name": "lockTime",
          "type": "uint256"
        }
      ],
      "name": "createLock",
      "outputs": [],
      "stateMutability": "nonpayable",
      "type": "function"
    },
    {
      "inputs": [],
      "name": "delegateRegistry",
      "outputs": [
        {
          "internalType": "address",
          "name": "",
          "type": "address"
        }
      ],
      "stateMutability": "view",
      "type": "function"
    },
    {
      "inputs": [
        {
          "internalType": "uint256",
          "name": "value",
          "type": "uint256"
        }
      ],
      "name": "increaseLockAmount",
      "outputs": [],
      "stateMutability": "nonpayable",
      "type": "function"
    },
    {
      "inputs": [
        {
          "internalType": "uint256",
          "name": "lockTime",
          "type": "uint256"
        }
      ],
      "name": "increaseLockTime",
      "outputs": [],
      "stateMutability": "nonpayable",
      "type": "function"
    },
    {
      "inputs": [],
      "name": "initialize",
      "outputs": [],
      "stateMutability": "nonpayable",
      "type": "function"
    },
    {
      "inputs": [],
      "name": "owner",
      "outputs": [
        {
          "internalType": "address",
          "name": "",
          "type": "address"
        }
      ],
      "stateMutability": "view",
      "type": "function"
    },
    {
      "inputs": [],
      "name": "renounceOwnership",
      "outputs": [],
      "stateMutability": "nonpayable",
      "type": "function"
    },
    {
      "inputs": [],
      "name": "rewardDistributor",
      "outputs": [
        {
          "internalType": "address",
          "name": "",
          "type": "address"
        }
      ],
      "stateMutability": "view",
      "type": "function"
    },
    {
      "inputs": [],
      "name": "rewardToken",
      "outputs": [
        {
          "internalType": "address",
          "name": "",
          "type": "address"
        }
      ],
      "stateMutability": "view",
      "type": "function"
    },
    {
      "inputs": [
        {
          "internalType": "bytes32",
          "name": "id",
          "type": "bytes32"
        },
        {
          "internalType": "address",
          "name": "delegate",
          "type": "address"
        }
      ],
      "name": "setDelegate",
      "outputs": [],
      "stateMutability": "nonpayable",
      "type": "function"
    },
    {
      "inputs": [
        {
          "internalType": "address",
          "name": "_delegateRegistry",
          "type": "address"
        }
      ],
      "name": "setDelegateRegistry",
      "outputs": [],
      "stateMutability": "nonpayable",
      "type": "function"
    },
    {
      "inputs": [
        {
          "internalType": "address",
          "name": "_rewardDistributor",
          "type": "address"
        }
      ],
      "name": "setRewardDistributor",
      "outputs": [],
      "stateMutability": "nonpayable",
      "type": "function"
    },
    {
      "inputs": [
        {
          "internalType": "address",
          "name": "_rewardToken",
          "type": "address"
        }
      ],
      "name": "setRewardToken",
      "outputs": [],
      "stateMutability": "nonpayable",
      "type": "function"
    },
    {
      "inputs": [
        {
          "internalType": "address",
          "name": "token",
          "type": "address"
        },
        {
          "internalType": "uint256",
          "name": "amount",
          "type": "uint256"
        }
      ],
      "name": "sweep",
      "outputs": [],
      "stateMutability": "nonpayable",
      "type": "function"
    },
    {
      "inputs": [
        {
          "internalType": "address",
          "name": "newOwner",
          "type": "address"
        }
      ],
      "name": "transferOwnership",
      "outputs": [],
      "stateMutability": "nonpayable",
      "type": "function"
    },
    {
      "inputs": [],
      "name": "veSDL",
      "outputs": [
        {
          "internalType": "address",
          "name": "",
          "type": "address"
        }
      ],
      "stateMutability": "view",
      "type": "function"
    },
    {
      "inputs": [],
      "name": "version",
      "outputs": [
        {
          "internalType": "string",
          "name": "",
          "type": "string"
        }
      ],
      "stateMutability": "view",
      "type": "function"
    }
  ],
  "transactionHash": "0x0788b0491d8f44219a58ffa19968fed2a9260d7aa617f95239ef788f8b33b659",
  "args": [],
  "solcInputHash": "f1b47316b78034fd7826b5bc8f956aeb",
  "bytecode": "0x608060405234801561001057600080fd5b50600054610100900460ff16158080156100315750600054600160ff909116105b8061005c575061004a3061013260201b6108221760201c565b15801561005c575060005460ff166001145b6100c35760405162461bcd60e51b815260206004820152602e60248201527f496e697469616c697a61626c653a20636f6e747261637420697320616c72656160448201526d191e481a5b9a5d1a585b1a5e995960921b606482015260840160405180910390fd5b6000805460ff1916600117905580156100e6576000805461ff0019166101001790555b801561012c576000805461ff0019169055604051600181527f7f26b83ff96e1f2b6a682f133852f6798a09c465da95921460cefb38474024989060200160405180910390a15b50610141565b6001600160a01b03163b151590565b610de6806101506000396000f3fe608060405234801561001057600080fd5b50600436106101215760003560e01c80638129fc1c116100ad578063b52c05fe11610071578063b52c05fe14610265578063bd86e50814610278578063f0bedbe21461028b578063f2fde38b1461029e578063f7c618c1146102b157600080fd5b80638129fc1c146102135780638aee81271461021b5780638da5cb5b1461022e578063a1809b951461023f578063acc2166a1461025257600080fd5b806354fd4d50116100f457806354fd4d501461019957806360b5e8ca146101ca5780636ea056a9146101e5578063715018a6146101f857806379af55e41461020057600080fd5b806313bfffac146101265780631c31cac314610156578063403f44471461016b5780634bfc71641461017e575b600080fd5b606554610139906001600160a01b031681565b6040516001600160a01b0390911681526020015b60405180910390f35b610169610164366004610c11565b6102c4565b005b610169610179366004610c33565b6102ee565b61013973d2751cdbed54b87777e805be36670d7aeae73bb281565b6101bd604051806040016040528060058152602001640312e312e360dc1b81525081565b60405161014d9190610c7c565b61013973f1dc500fde233a4055e25e5bbf516372bc4f687181565b6101696101f3366004610caf565b6103f0565b610169610422565b61016961020e366004610c33565b610436565b610169610476565b610169610229366004610c11565b6105d4565b6033546001600160a01b0316610139565b61016961024d366004610c11565b6105fe565b606654610139906001600160a01b031681565b610169610273366004610cd9565b610628565b610169610286366004610cfb565b610732565b610169610299366004610c33565b610773565b6101696102ac366004610c11565b6107ac565b606754610139906001600160a01b031681565b6102cc610831565b606580546001600160a01b0319166001600160a01b0392909216919091179055565b6102f6610831565b60405163095ea7b360e01b815273d2751cdbed54b87777e805be36670d7aeae73bb260048201526024810182905273f1dc500fde233a4055e25e5bbf516372bc4f68719063095ea7b3906044016020604051808303816000875af1158015610362573d6000803e3d6000fd5b505050506040513d601f19601f820116820180604052508101906103869190610d27565b50604051631255d9df60e21b81526004810182905273d2751cdbed54b87777e805be36670d7aeae73bb290634957677c906024015b600060405180830381600087803b1580156103d557600080fd5b505af11580156103e9573d6000803e3d6000fd5b5050505050565b6103f8610831565b61041e61040d6033546001600160a01b031690565b6001600160a01b038416908361088b565b5050565b61042a610831565b61043460006108e2565b565b61043e610831565b6040516377fbd30960e11b81526004810182905273d2751cdbed54b87777e805be36670d7aeae73bb29063eff7a612906024016103bb565b600054610100900460ff16158080156104965750600054600160ff909116105b806104b05750303b1580156104b0575060005460ff166001145b6105185760405162461bcd60e51b815260206004820152602e60248201527f496e697469616c697a61626c653a20636f6e747261637420697320616c72656160448201526d191e481a5b9a5d1a585b1a5e995960921b60648201526084015b60405180910390fd5b6000805460ff19166001179055801561053b576000805461ff0019166101001790555b610543610934565b606580546001600160a01b031990811673469788fe6e9e9681c6ebf3bf78e7fd26fc0154461790915560678054909116733cf7b9479a01eeb3bbfc43581fa3bb21cd888e2a17905580156105d1576000805461ff0019169055604051600181527f7f26b83ff96e1f2b6a682f133852f6798a09c465da95921460cefb38474024989060200160405180910390a15b50565b6105dc610831565b606780546001600160a01b0319166001600160a01b0392909216919091179055565b610606610831565b606680546001600160a01b0319166001600160a01b0392909216919091179055565b610630610831565b60405163095ea7b360e01b815273d2751cdbed54b87777e805be36670d7aeae73bb260048201526024810183905273f1dc500fde233a4055e25e5bbf516372bc4f68719063095ea7b3906044016020604051808303816000875af115801561069c573d6000803e3d6000fd5b505050506040513d601f19601f820116820180604052508101906106c09190610d27565b506040516365fc387360e01b8152600481018390526024810182905273d2751cdbed54b87777e805be36670d7aeae73bb2906365fc3873906044015b600060405180830381600087803b15801561071657600080fd5b505af115801561072a573d6000803e3d6000fd5b505050505050565b61073a610831565b6065546040516317b0dca160e31b8152600481018490526001600160a01b0383811660248301529091169063bd86e508906044016106fc565b61077b610831565b60655460405163785f6df160e11b8152600481018390526001600160a01b039091169063f0bedbe2906024016103bb565b6107b4610831565b6001600160a01b0381166108195760405162461bcd60e51b815260206004820152602660248201527f4f776e61626c653a206e6577206f776e657220697320746865207a65726f206160448201526564647265737360d01b606482015260840161050f565b6105d1816108e2565b6001600160a01b03163b151590565b6033546001600160a01b031633146104345760405162461bcd60e51b815260206004820181905260248201527f4f776e61626c653a2063616c6c6572206973206e6f7420746865206f776e6572604482015260640161050f565b604080516001600160a01b038416602482015260448082018490528251808303909101815260649091019091526020810180516001600160e01b031663a9059cbb60e01b1790526108dd908490610963565b505050565b603380546001600160a01b038381166001600160a01b0319831681179093556040519116919082907f8be0079c531659141344cd1fd0a4f28419497f9722a3daafe3b4186f6b6457e090600090a35050565b600054610100900460ff1661095b5760405162461bcd60e51b815260040161050f90610d49565b610434610a35565b60006109b8826040518060400160405280602081526020017f5361666545524332303a206c6f772d6c6576656c2063616c6c206661696c6564815250856001600160a01b0316610a659092919063ffffffff16565b8051909150156108dd57808060200190518101906109d69190610d27565b6108dd5760405162461bcd60e51b815260206004820152602a60248201527f5361666545524332303a204552433230206f7065726174696f6e20646964206e6044820152691bdd081cdd58d8d9595960b21b606482015260840161050f565b600054610100900460ff16610a5c5760405162461bcd60e51b815260040161050f90610d49565b610434336108e2565b6060610a748484600085610a7c565b949350505050565b606082471015610add5760405162461bcd60e51b815260206004820152602660248201527f416464726573733a20696e73756666696369656e742062616c616e636520666f6044820152651c8818d85b1b60d21b606482015260840161050f565b600080866001600160a01b03168587604051610af99190610d94565b60006040518083038185875af1925050503d8060008114610b36576040519150601f19603f3d011682016040523d82523d6000602084013e610b3b565b606091505b5091509150610b4c87838387610b57565b979650505050505050565b60608315610bc6578251600003610bbf576001600160a01b0385163b610bbf5760405162461bcd60e51b815260206004820152601d60248201527f416464726573733a2063616c6c20746f206e6f6e2d636f6e7472616374000000604482015260640161050f565b5081610a74565b610a748383815115610bdb5781518083602001fd5b8060405162461bcd60e51b815260040161050f9190610c7c565b80356001600160a01b0381168114610c0c57600080fd5b919050565b600060208284031215610c2357600080fd5b610c2c82610bf5565b9392505050565b600060208284031215610c4557600080fd5b5035919050565b60005b83811015610c67578181015183820152602001610c4f565b83811115610c76576000848401525b50505050565b6020815260008251806020840152610c9b816040850160208701610c4c565b601f01601f19169190910160400192915050565b60008060408385031215610cc257600080fd5b610ccb83610bf5565b946020939093013593505050565b60008060408385031215610cec57600080fd5b50508035926020909101359150565b60008060408385031215610d0e57600080fd5b82359150610d1e60208401610bf5565b90509250929050565b600060208284031215610d3957600080fd5b81518015158114610c2c57600080fd5b6020808252602b908201527f496e697469616c697a61626c653a20636f6e7472616374206973206e6f74206960408201526a6e697469616c697a696e6760a81b606082015260800190565b60008251610da6818460208701610c4c565b919091019291505056fea2646970667358221220f0fbad065e6d8b0dd492a854cb51428ae08352b388f47687e8db8a9d28094f3a64736f6c634300080d0033",
  "devdoc": {
    "kind": "dev",
    "methods": {
      "owner()": {
        "details": "Returns the address of the current owner."
      },
      "renounceOwnership()": {
        "details": "Leaves the contract without owner. It will not be possible to call `onlyOwner` functions anymore. Can only be called by the current owner. NOTE: Renouncing ownership will leave the contract without an owner, thereby removing any functionality that is only available to the owner."
      },
      "transferOwnership(address)": {
        "details": "Transfers ownership of the contract to a new account (`newOwner`). Can only be called by the current owner."
      }
    },
    "version": 1
  },
  "userdoc": {
    "kind": "user",
    "methods": {},
    "version": 1
  },
  "storageLayout": {
    "storage": [
      {
        "astId": 23774,
        "contract": "submodules/v2-foundry/src/SDLController.sol:SDLController",
        "label": "_initialized",
        "offset": 0,
        "slot": "0",
        "type": "t_uint8"
      },
      {
        "astId": 23777,
        "contract": "submodules/v2-foundry/src/SDLController.sol:SDLController",
        "label": "_initializing",
        "offset": 1,
        "slot": "0",
        "type": "t_bool"
      },
      {
        "astId": 25557,
        "contract": "submodules/v2-foundry/src/SDLController.sol:SDLController",
        "label": "__gap",
        "offset": 0,
        "slot": "1",
        "type": "t_array(t_uint256)50_storage"
      },
      {
        "astId": 23646,
        "contract": "submodules/v2-foundry/src/SDLController.sol:SDLController",
        "label": "_owner",
        "offset": 0,
        "slot": "51",
        "type": "t_address"
      },
      {
        "astId": 23766,
        "contract": "submodules/v2-foundry/src/SDLController.sol:SDLController",
        "label": "__gap",
        "offset": 0,
        "slot": "52",
        "type": "t_array(t_uint256)49_storage"
      },
      {
        "astId": 40857,
        "contract": "submodules/v2-foundry/src/SDLController.sol:SDLController",
        "label": "delegateRegistry",
        "offset": 0,
        "slot": "101",
        "type": "t_address"
      },
      {
        "astId": 40859,
        "contract": "submodules/v2-foundry/src/SDLController.sol:SDLController",
        "label": "rewardDistributor",
        "offset": 0,
        "slot": "102",
        "type": "t_address"
      },
      {
        "astId": 40861,
        "contract": "submodules/v2-foundry/src/SDLController.sol:SDLController",
        "label": "rewardToken",
        "offset": 0,
        "slot": "103",
        "type": "t_address"
      }
    ],
    "types": {
      "t_address": {
        "encoding": "inplace",
        "label": "address",
        "numberOfBytes": "20"
      },
      "t_array(t_uint256)49_storage": {
        "base": "t_uint256",
        "encoding": "inplace",
        "label": "uint256[49]",
        "numberOfBytes": "1568"
      },
      "t_array(t_uint256)50_storage": {
        "base": "t_uint256",
        "encoding": "inplace",
        "label": "uint256[50]",
        "numberOfBytes": "1600"
      },
      "t_bool": {
        "encoding": "inplace",
        "label": "bool",
        "numberOfBytes": "1"
      },
      "t_uint256": {
        "encoding": "inplace",
        "label": "uint256",
        "numberOfBytes": "32"
      },
      "t_uint8": {
        "encoding": "inplace",
        "label": "uint8",
        "numberOfBytes": "1"
      }
    }
  }
}