{
  "address": "0x13eE9d8a44dbb64fB1552AC5b0437164550c60E8",
  "abi": [
    {
      "inputs": [],
      "stateMutability": "nonpayable",
      "type": "constructor"
    },
    {
      "anonymous": false,
      "inputs": [
        {
          "indexed": false,
          "internalType": "uint8",
          "name": "version",
          "type": "uint8"
        }
      ],
      "name": "Initialized",
      "type": "event"
    },
    {
      "anonymous": false,
      "inputs": [
        {
          "indexed": true,
          "internalType": "address",
          "name": "previousOwner",
          "type": "address"
        },
        {
          "indexed": true,
          "internalType": "address",
          "name": "newOwner",
          "type": "address"
        }
      ],
      "name": "OwnershipTransferred",
      "type": "event"
    },
    {
      "inputs": [],
      "name": "SDL",
      "outputs": [
        {
          "internalType": "address",
          "name": "",
          "type": "address"
        }
      ],
      "stateMutability": "view",
      "type": "function"
    },
    {
      "inputs": [
        {
          "internalType": "bytes32",
          "name": "id",
          "type": "bytes32"
        }
      ],
      "name": "clearDelegate",
      "outputs": [],
      "stateMutability": "nonpayable",
      "type": "function"
    },
    {
      "inputs": [
        {
          "internalType": "uint256",
          "name": "value",
          "type": "uint256"
        },
        {
          "internalType": "uint256",
          "name": "lockTime",
          "type": "uint256"
        }
      ],
      "name": "createLock",
      "outputs": [],
      "stateMutability": "nonpayable",
      "type": "function"
    },
    {
      "inputs": [],
      "name": "delegateRegistry",
      "outputs": [
        {
          "internalType": "address",
          "name": "",
          "type": "address"
        }
      ],
      "stateMutability": "view",
      "type": "function"
    },
    {
      "inputs": [],
      "name": "gaugeController",
      "outputs": [
        {
          "internalType": "address",
          "name": "",
          "type": "address"
        }
      ],
      "stateMutability": "view",
      "type": "function"
    },
    {
      "inputs": [
        {
          "internalType": "uint256",
          "name": "value",
          "type": "uint256"
        }
      ],
      "name": "increaseLockAmount",
      "outputs": [],
      "stateMutability": "nonpayable",
      "type": "function"
    },
    {
      "inputs": [
        {
          "internalType": "uint256",
          "name": "lockTime",
          "type": "uint256"
        }
      ],
      "name": "increaseLockTime",
      "outputs": [],
      "stateMutability": "nonpayable",
      "type": "function"
    },
    {
      "inputs": [],
      "name": "initialize",
      "outputs": [],
      "stateMutability": "nonpayable",
      "type": "function"
    },
    {
      "inputs": [],
      "name": "owner",
      "outputs": [
        {
          "internalType": "address",
          "name": "",
          "type": "address"
        }
      ],
      "stateMutability": "view",
      "type": "function"
    },
    {
      "inputs": [],
      "name": "renounceOwnership",
      "outputs": [],
      "stateMutability": "nonpayable",
      "type": "function"
    },
    {
      "inputs": [],
      "name": "rewardDistributor",
      "outputs": [
        {
          "internalType": "address",
          "name": "",
          "type": "address"
        }
      ],
      "stateMutability": "view",
      "type": "function"
    },
    {
      "inputs": [],
      "name": "rewardToken",
      "outputs": [
        {
          "internalType": "address",
          "name": "",
          "type": "address"
        }
      ],
      "stateMutability": "view",
      "type": "function"
    },
    {
      "inputs": [
        {
          "internalType": "bytes32",
          "name": "id",
          "type": "bytes32"
        },
        {
          "internalType": "address",
          "name": "delegate",
          "type": "address"
        }
      ],
      "name": "setDelegate",
      "outputs": [],
      "stateMutability": "nonpayable",
      "type": "function"
    },
    {
      "inputs": [
        {
          "internalType": "address",
          "name": "_delegateRegistry",
          "type": "address"
        }
      ],
      "name": "setDelegateRegistry",
      "outputs": [],
      "stateMutability": "nonpayable",
      "type": "function"
    },
    {
      "inputs": [
        {
          "internalType": "address",
          "name": "_rewardDistributor",
          "type": "address"
        }
      ],
      "name": "setRewardDistributor",
      "outputs": [],
      "stateMutability": "nonpayable",
      "type": "function"
    },
    {
      "inputs": [
        {
          "internalType": "address",
          "name": "_rewardToken",
          "type": "address"
        }
      ],
      "name": "setRewardToken",
      "outputs": [],
      "stateMutability": "nonpayable",
      "type": "function"
    },
    {
      "inputs": [
        {
          "internalType": "address",
          "name": "token",
          "type": "address"
        },
        {
          "internalType": "uint256",
          "name": "amount",
          "type": "uint256"
        }
      ],
      "name": "sweep",
      "outputs": [],
      "stateMutability": "nonpayable",
      "type": "function"
    },
    {
      "inputs": [
        {
          "internalType": "address",
          "name": "newOwner",
          "type": "address"
        }
      ],
      "name": "transferOwnership",
      "outputs": [],
      "stateMutability": "nonpayable",
      "type": "function"
    },
    {
      "inputs": [],
      "name": "veSDL",
      "outputs": [
        {
          "internalType": "address",
          "name": "",
          "type": "address"
        }
      ],
      "stateMutability": "view",
      "type": "function"
    },
    {
      "inputs": [],
      "name": "version",
      "outputs": [
        {
          "internalType": "string",
          "name": "",
          "type": "string"
        }
      ],
      "stateMutability": "view",
      "type": "function"
    },
    {
      "inputs": [
        {
          "internalType": "address",
          "name": "gaugeAddress",
          "type": "address"
        },
        {
          "internalType": "uint256",
          "name": "weight",
          "type": "uint256"
        }
      ],
      "name": "voteForGaugeWeights",
      "outputs": [],
      "stateMutability": "nonpayable",
      "type": "function"
    }
  ],
  "transactionHash": "0x1c36da37f2d06121b957cd93a6ba04a3e7d857c7df53b683d7fece711378173f",
  "args": [],
  "solcInputHash": "096fc27de4e6da0f8a200ca133849d88",
  "bytecode": "0x608060405234801561001057600080fd5b50600054610100900460ff16158080156100315750600054600160ff909116105b8061005c575061004a3061013260201b6108b51760201c565b15801561005c575060005460ff166001145b6100c35760405162461bcd60e51b815260206004820152602e60248201527f496e697469616c697a61626c653a20636f6e747261637420697320616c72656160448201526d191e481a5b9a5d1a585b1a5e995960921b606482015260840160405180910390fd5b6000805460ff1916600117905580156100e6576000805461ff0019166101001790555b801561012c576000805461ff0019169055604051600181527f7f26b83ff96e1f2b6a682f133852f6798a09c465da95921460cefb38474024989060200160405180910390a15b50610141565b6001600160a01b03163b151590565b610e79806101506000396000f3fe608060405234801561001057600080fd5b50600436106101375760003560e01c80638129fc1c116100b8578063acc2166a1161007c578063acc2166a14610296578063b52c05fe146102a9578063bd86e508146102bc578063f0bedbe2146102cf578063f2fde38b146102e2578063f7c618c1146102f557600080fd5b80638129fc1c1461023c5780638aee8127146102445780638da5cb5b1461025757806399eecb3b14610268578063a1809b951461028357600080fd5b806360b5e8ca116100ff57806360b5e8ca146101e05780636ea056a9146101fb578063715018a61461020e5780637244d9601461021657806379af55e41461022957600080fd5b806313bfffac1461013c5780631c31cac31461016c578063403f4447146101815780634bfc71641461019457806354fd4d50146101af575b600080fd5b60655461014f906001600160a01b031681565b6040516001600160a01b0390911681526020015b60405180910390f35b61017f61017a366004610ca4565b610308565b005b61017f61018f366004610cc6565b610332565b61014f73d2751cdbed54b87777e805be36670d7aeae73bb281565b6101d3604051806040016040528060058152602001640312e312e360dc1b81525081565b6040516101639190610d0f565b61014f73f1dc500fde233a4055e25e5bbf516372bc4f687181565b61017f610209366004610d42565b610434565b61017f610466565b61017f610224366004610d42565b61047a565b61017f610237366004610cc6565b6104fb565b61017f61053b565b61017f610252366004610ca4565b610699565b6033546001600160a01b031661014f565b61014f7399cb6c36816de2131ef2626bb5def7e5cc8b9b1481565b61017f610291366004610ca4565b6106c3565b60665461014f906001600160a01b031681565b61017f6102b7366004610d6c565b6106ed565b61017f6102ca366004610d8e565b6107c5565b61017f6102dd366004610cc6565b610806565b61017f6102f0366004610ca4565b61083f565b60675461014f906001600160a01b031681565b6103106108c4565b606580546001600160a01b0319166001600160a01b0392909216919091179055565b61033a6108c4565b60405163095ea7b360e01b815273d2751cdbed54b87777e805be36670d7aeae73bb260048201526024810182905273f1dc500fde233a4055e25e5bbf516372bc4f68719063095ea7b3906044016020604051808303816000875af11580156103a6573d6000803e3d6000fd5b505050506040513d601f19601f820116820180604052508101906103ca9190610dba565b50604051631255d9df60e21b81526004810182905273d2751cdbed54b87777e805be36670d7aeae73bb290634957677c906024015b600060405180830381600087803b15801561041957600080fd5b505af115801561042d573d6000803e3d6000fd5b5050505050565b61043c6108c4565b6104626104516033546001600160a01b031690565b6001600160a01b038416908361091e565b5050565b61046e6108c4565b6104786000610975565b565b6104826108c4565b604051631ae26c6560e31b81526001600160a01b0383166004820152602481018290527399cb6c36816de2131ef2626bb5def7e5cc8b9b149063d7136328906044015b600060405180830381600087803b1580156104df57600080fd5b505af11580156104f3573d6000803e3d6000fd5b505050505050565b6105036108c4565b6040516377fbd30960e11b81526004810182905273d2751cdbed54b87777e805be36670d7aeae73bb29063eff7a612906024016103ff565b600054610100900460ff161580801561055b5750600054600160ff909116105b806105755750303b158015610575575060005460ff166001145b6105dd5760405162461bcd60e51b815260206004820152602e60248201527f496e697469616c697a61626c653a20636f6e747261637420697320616c72656160448201526d191e481a5b9a5d1a585b1a5e995960921b60648201526084015b60405180910390fd5b6000805460ff191660011790558015610600576000805461ff0019166101001790555b6106086109c7565b606580546001600160a01b031990811673469788fe6e9e9681c6ebf3bf78e7fd26fc0154461790915560678054909116733cf7b9479a01eeb3bbfc43581fa3bb21cd888e2a1790558015610696576000805461ff0019169055604051600181527f7f26b83ff96e1f2b6a682f133852f6798a09c465da95921460cefb38474024989060200160405180910390a15b50565b6106a16108c4565b606780546001600160a01b0319166001600160a01b0392909216919091179055565b6106cb6108c4565b606680546001600160a01b0319166001600160a01b0392909216919091179055565b6106f56108c4565b60405163095ea7b360e01b815273d2751cdbed54b87777e805be36670d7aeae73bb260048201526024810183905273f1dc500fde233a4055e25e5bbf516372bc4f68719063095ea7b3906044016020604051808303816000875af1158015610761573d6000803e3d6000fd5b505050506040513d601f19601f820116820180604052508101906107859190610dba565b506040516365fc387360e01b8152600481018390526024810182905273d2751cdbed54b87777e805be36670d7aeae73bb2906365fc3873906044016104c5565b6107cd6108c4565b6065546040516317b0dca160e31b8152600481018490526001600160a01b0383811660248301529091169063bd86e508906044016104c5565b61080e6108c4565b60655460405163785f6df160e11b8152600481018390526001600160a01b039091169063f0bedbe2906024016103ff565b6108476108c4565b6001600160a01b0381166108ac5760405162461bcd60e51b815260206004820152602660248201527f4f776e61626c653a206e6577206f776e657220697320746865207a65726f206160448201526564647265737360d01b60648201526084016105d4565b61069681610975565b6001600160a01b03163b151590565b6033546001600160a01b031633146104785760405162461bcd60e51b815260206004820181905260248201527f4f776e61626c653a2063616c6c6572206973206e6f7420746865206f776e657260448201526064016105d4565b604080516001600160a01b038416602482015260448082018490528251808303909101815260649091019091526020810180516001600160e01b031663a9059cbb60e01b1790526109709084906109f6565b505050565b603380546001600160a01b038381166001600160a01b0319831681179093556040519116919082907f8be0079c531659141344cd1fd0a4f28419497f9722a3daafe3b4186f6b6457e090600090a35050565b600054610100900460ff166109ee5760405162461bcd60e51b81526004016105d490610ddc565b610478610ac8565b6000610a4b826040518060400160405280602081526020017f5361666545524332303a206c6f772d6c6576656c2063616c6c206661696c6564815250856001600160a01b0316610af89092919063ffffffff16565b8051909150156109705780806020019051810190610a699190610dba565b6109705760405162461bcd60e51b815260206004820152602a60248201527f5361666545524332303a204552433230206f7065726174696f6e20646964206e6044820152691bdd081cdd58d8d9595960b21b60648201526084016105d4565b600054610100900460ff16610aef5760405162461bcd60e51b81526004016105d490610ddc565b61047833610975565b6060610b078484600085610b0f565b949350505050565b606082471015610b705760405162461bcd60e51b815260206004820152602660248201527f416464726573733a20696e73756666696369656e742062616c616e636520666f6044820152651c8818d85b1b60d21b60648201526084016105d4565b600080866001600160a01b03168587604051610b8c9190610e27565b60006040518083038185875af1925050503d8060008114610bc9576040519150601f19603f3d011682016040523d82523d6000602084013e610bce565b606091505b5091509150610bdf87838387610bea565b979650505050505050565b60608315610c59578251600003610c52576001600160a01b0385163b610c525760405162461bcd60e51b815260206004820152601d60248201527f416464726573733a2063616c6c20746f206e6f6e2d636f6e747261637400000060448201526064016105d4565b5081610b07565b610b078383815115610c6e5781518083602001fd5b8060405162461bcd60e51b81526004016105d49190610d0f565b80356001600160a01b0381168114610c9f57600080fd5b919050565b600060208284031215610cb657600080fd5b610cbf82610c88565b9392505050565b600060208284031215610cd857600080fd5b5035919050565b60005b83811015610cfa578181015183820152602001610ce2565b83811115610d09576000848401525b50505050565b6020815260008251806020840152610d2e816040850160208701610cdf565b601f01601f19169190910160400192915050565b60008060408385031215610d5557600080fd5b610d5e83610c88565b946020939093013593505050565b60008060408385031215610d7f57600080fd5b50508035926020909101359150565b60008060408385031215610da157600080fd5b82359150610db160208401610c88565b90509250929050565b600060208284031215610dcc57600080fd5b81518015158114610cbf57600080fd5b6020808252602b908201527f496e697469616c697a61626c653a20636f6e7472616374206973206e6f74206960408201526a6e697469616c697a696e6760a81b606082015260800190565b60008251610e39818460208701610cdf565b919091019291505056fea2646970667358221220ac240be85690c9dd5e612295e8c8e619a08562c85b7b823e28e7e189896c918064736f6c634300080d0033",
  "devdoc": {
    "kind": "dev",
    "methods": {
      "owner()": {
        "details": "Returns the address of the current owner."
      },
      "renounceOwnership()": {
        "details": "Leaves the contract without owner. It will not be possible to call `onlyOwner` functions anymore. Can only be called by the current owner. NOTE: Renouncing ownership will leave the contract without an owner, thereby removing any functionality that is only available to the owner."
      },
      "transferOwnership(address)": {
        "details": "Transfers ownership of the contract to a new account (`newOwner`). Can only be called by the current owner."
      }
    },
    "version": 1
  },
  "userdoc": {
    "kind": "user",
    "methods": {},
    "version": 1
  },
  "storageLayout": {
    "storage": [
      {
        "astId": 23774,
        "contract": "submodules/v2-foundry/src/SDLController.sol:SDLController",
        "label": "_initialized",
        "offset": 0,
        "slot": "0",
        "type": "t_uint8"
      },
      {
        "astId": 23777,
        "contract": "submodules/v2-foundry/src/SDLController.sol:SDLController",
        "label": "_initializing",
        "offset": 1,
        "slot": "0",
        "type": "t_bool"
      },
      {
        "astId": 25557,
        "contract": "submodules/v2-foundry/src/SDLController.sol:SDLController",
        "label": "__gap",
        "offset": 0,
        "slot": "1",
        "type": "t_array(t_uint256)50_storage"
      },
      {
        "astId": 23646,
        "contract": "submodules/v2-foundry/src/SDLController.sol:SDLController",
        "label": "_owner",
        "offset": 0,
        "slot": "51",
        "type": "t_address"
      },
      {
        "astId": 23766,
        "contract": "submodules/v2-foundry/src/SDLController.sol:SDLController",
        "label": "__gap",
        "offset": 0,
        "slot": "52",
        "type": "t_array(t_uint256)49_storage"
      },
      {
        "astId": 40859,
        "contract": "submodules/v2-foundry/src/SDLController.sol:SDLController",
        "label": "delegateRegistry",
        "offset": 0,
        "slot": "101",
        "type": "t_address"
      },
      {
        "astId": 40861,
        "contract": "submodules/v2-foundry/src/SDLController.sol:SDLController",
        "label": "rewardDistributor",
        "offset": 0,
        "slot": "102",
        "type": "t_address"
      },
      {
        "astId": 40863,
        "contract": "submodules/v2-foundry/src/SDLController.sol:SDLController",
        "label": "rewardToken",
        "offset": 0,
        "slot": "103",
        "type": "t_address"
      }
    ],
    "types": {
      "t_address": {
        "encoding": "inplace",
        "label": "address",
        "numberOfBytes": "20"
      },
      "t_array(t_uint256)49_storage": {
        "base": "t_uint256",
        "encoding": "inplace",
        "label": "uint256[49]",
        "numberOfBytes": "1568"
      },
      "t_array(t_uint256)50_storage": {
        "base": "t_uint256",
        "encoding": "inplace",
        "label": "uint256[50]",
        "numberOfBytes": "1600"
      },
      "t_bool": {
        "encoding": "inplace",
        "label": "bool",
        "numberOfBytes": "1"
      },
      "t_uint256": {
        "encoding": "inplace",
        "label": "uint256",
        "numberOfBytes": "32"
      },
      "t_uint8": {
        "encoding": "inplace",
        "label": "uint8",
        "numberOfBytes": "1"
      }
    }
  }
}