{
  "address": "0x1F563a8BE28acdCc5546543a227aFb9373586eD0",
  "abi": [
    {
      "inputs": [],
      "stateMutability": "nonpayable",
      "type": "constructor"
    },
    {
      "anonymous": false,
      "inputs": [
        {
          "indexed": false,
          "internalType": "uint8",
          "name": "version",
          "type": "uint8"
        }
      ],
      "name": "Initialized",
      "type": "event"
    },
    {
      "anonymous": false,
      "inputs": [
        {
          "indexed": true,
          "internalType": "address",
          "name": "previousOwner",
          "type": "address"
        },
        {
          "indexed": true,
          "internalType": "address",
          "name": "newOwner",
          "type": "address"
        }
      ],
      "name": "OwnershipTransferred",
      "type": "event"
    },
    {
      "inputs": [],
      "name": "SDT",
      "outputs": [
        {
          "internalType": "address",
          "name": "",
          "type": "address"
        }
      ],
      "stateMutability": "view",
      "type": "function"
    },
    {
      "inputs": [],
      "name": "claim",
      "outputs": [],
      "stateMutability": "nonpayable",
      "type": "function"
    },
    {
      "inputs": [],
      "name": "claimRewards",
      "outputs": [],
      "stateMutability": "nonpayable",
      "type": "function"
    },
    {
      "inputs": [
        {
          "internalType": "bytes32",
          "name": "id",
          "type": "bytes32"
        }
      ],
      "name": "clearDelegate",
      "outputs": [],
      "stateMutability": "nonpayable",
      "type": "function"
    },
    {
      "inputs": [
        {
          "internalType": "uint256",
          "name": "value",
          "type": "uint256"
        },
        {
          "internalType": "uint256",
          "name": "lockTime",
          "type": "uint256"
        }
      ],
      "name": "createLock",
      "outputs": [],
      "stateMutability": "nonpayable",
      "type": "function"
    },
    {
      "inputs": [],
      "name": "crvRewardDistributor",
      "outputs": [
        {
          "internalType": "address",
          "name": "",
          "type": "address"
        }
      ],
      "stateMutability": "view",
      "type": "function"
    },
    {
      "inputs": [],
      "name": "delegateRegistry",
      "outputs": [
        {
          "internalType": "address",
          "name": "",
          "type": "address"
        }
      ],
      "stateMutability": "view",
      "type": "function"
    },
    {
      "inputs": [],
      "name": "gaugeController",
      "outputs": [
        {
          "internalType": "address",
          "name": "",
          "type": "address"
        }
      ],
      "stateMutability": "view",
      "type": "function"
    },
    {
      "inputs": [
        {
          "internalType": "uint256",
          "name": "value",
          "type": "uint256"
        }
      ],
      "name": "increaseLockAmount",
      "outputs": [],
      "stateMutability": "nonpayable",
      "type": "function"
    },
    {
      "inputs": [
        {
          "internalType": "uint256",
          "name": "lockTime",
          "type": "uint256"
        }
      ],
      "name": "increaseLockTime",
      "outputs": [],
      "stateMutability": "nonpayable",
      "type": "function"
    },
    {
      "inputs": [],
      "name": "initialize",
      "outputs": [],
      "stateMutability": "nonpayable",
      "type": "function"
    },
    {
      "inputs": [],
      "name": "owner",
      "outputs": [
        {
          "internalType": "address",
          "name": "",
          "type": "address"
        }
      ],
      "stateMutability": "view",
      "type": "function"
    },
    {
      "inputs": [],
      "name": "renounceOwnership",
      "outputs": [],
      "stateMutability": "nonpayable",
      "type": "function"
    },
    {
      "inputs": [],
      "name": "rewardDistributor",
      "outputs": [
        {
          "internalType": "address",
          "name": "",
          "type": "address"
        }
      ],
      "stateMutability": "view",
      "type": "function"
    },
    {
      "inputs": [],
      "name": "rewardToken",
      "outputs": [
        {
          "internalType": "address",
          "name": "",
          "type": "address"
        }
      ],
      "stateMutability": "view",
      "type": "function"
    },
    {
      "inputs": [
        {
          "internalType": "address",
          "name": "_crvRewardDistributor",
          "type": "address"
        }
      ],
      "name": "setCrvRewardDistributor",
      "outputs": [],
      "stateMutability": "nonpayable",
      "type": "function"
    },
    {
      "inputs": [
        {
          "internalType": "bytes32",
          "name": "id",
          "type": "bytes32"
        },
        {
          "internalType": "address",
          "name": "delegate",
          "type": "address"
        }
      ],
      "name": "setDelegate",
      "outputs": [],
      "stateMutability": "nonpayable",
      "type": "function"
    },
    {
      "inputs": [
        {
          "internalType": "address",
          "name": "_delegateRegistry",
          "type": "address"
        }
      ],
      "name": "setDelegateRegistry",
      "outputs": [],
      "stateMutability": "nonpayable",
      "type": "function"
    },
    {
      "inputs": [
        {
          "internalType": "address",
          "name": "_gaugeController",
          "type": "address"
        }
      ],
      "name": "setGaugeController",
      "outputs": [],
      "stateMutability": "nonpayable",
      "type": "function"
    },
    {
      "inputs": [
        {
          "internalType": "address",
          "name": "_rewardDistributor",
          "type": "address"
        }
      ],
      "name": "setRewardDistributor",
      "outputs": [],
      "stateMutability": "nonpayable",
      "type": "function"
    },
    {
      "inputs": [
        {
          "internalType": "address",
          "name": "_rewardToken",
          "type": "address"
        }
      ],
      "name": "setRewardToken",
      "outputs": [],
      "stateMutability": "nonpayable",
      "type": "function"
    },
    {
      "inputs": [
        {
          "internalType": "address",
          "name": "token",
          "type": "address"
        },
        {
          "internalType": "uint256",
          "name": "amount",
          "type": "uint256"
        }
      ],
      "name": "sweep",
      "outputs": [],
      "stateMutability": "nonpayable",
      "type": "function"
    },
    {
      "inputs": [
        {
          "internalType": "address",
          "name": "newOwner",
          "type": "address"
        }
      ],
      "name": "transferOwnership",
      "outputs": [],
      "stateMutability": "nonpayable",
      "type": "function"
    },
    {
      "inputs": [],
      "name": "veSDT",
      "outputs": [
        {
          "internalType": "address",
          "name": "",
          "type": "address"
        }
      ],
      "stateMutability": "view",
      "type": "function"
    },
    {
      "inputs": [],
      "name": "version",
      "outputs": [
        {
          "internalType": "string",
          "name": "",
          "type": "string"
        }
      ],
      "stateMutability": "view",
      "type": "function"
    },
    {
      "inputs": [
        {
          "internalType": "address",
          "name": "gaugeAddress",
          "type": "address"
        },
        {
          "internalType": "uint256",
          "name": "weight",
          "type": "uint256"
        }
      ],
      "name": "voteForGaugeWeight",
      "outputs": [],
      "stateMutability": "nonpayable",
      "type": "function"
    }
  ],
  "transactionHash": "0x92e1dd38f4ebe24c830cc4772c13f8fc9707635223daa8ef26e9e76bd0a31319",
  "args": [],
  "solcInputHash": "fb4a77eaebe56c3b5cf8dabdd0f90249",
  "bytecode": "0x608060405234801561001057600080fd5b50600054610100900460ff16158080156100315750600054600160ff909116105b8061005c575061004a3061013260201b610aff1760201c565b15801561005c575060005460ff166001145b6100c35760405162461bcd60e51b815260206004820152602e60248201527f496e697469616c697a61626c653a20636f6e747261637420697320616c72656160448201526d191e481a5b9a5d1a585b1a5e995960921b606482015260840160405180910390fd5b6000805460ff1916600117905580156100e6576000805461ff0019166101001790555b801561012c576000805461ff0019169055604051600181527f7f26b83ff96e1f2b6a682f133852f6798a09c465da95921460cefb38474024989060200160405180910390a15b50610141565b6001600160a01b03163b151590565b6110d8806101506000396000f3fe608060405234801561001057600080fd5b506004361061018d5760003560e01c80638129fc1c116100de578063b52c05fe11610097578063c5a9ff9111610071578063c5a9ff9114610353578063f0bedbe214610366578063f2fde38b14610379578063f7c618c11461038c57600080fd5b8063b52c05fe14610312578063ba32c61914610325578063bd86e5081461034057600080fd5b80638129fc1c146102ad5780638aee8127146102b55780638da5cb5b146102c857806399eecb3b146102d9578063a1809b95146102ec578063acc2166a146102ff57600080fd5b80634e71d92d1161014b578063715018a611610125578063715018a61461026c5780637297abdc1461027457806379af55e4146102875780637ac224e51461029a57600080fd5b80634e71d92d1461022057806354fd4d50146102285780636ea056a91461025957600080fd5b806291d2b81461019257806313bfffac146101a75780631c31cac3146101d7578063202d31b7146101ea578063372500ab14610205578063403f44471461020d575b600080fd5b6101a56101a0366004610eee565b61039f565b005b6065546101ba906001600160a01b031681565b6040516001600160a01b0390911681526020015b60405180910390f35b6101a56101e5366004610eee565b6103c9565b6101ba730c30476f66034e11782938df8e4384970b6c9e8a81565b6101a56103f3565b6101a561021b366004610f10565b610481565b6101a5610583565b61024c604051806040016040528060058152602001640312e322e360dc1b81525081565b6040516101ce9190610f55565b6101a5610267366004610f88565b610627565b6101a5610659565b6068546101ba906001600160a01b031681565b6101a5610295366004610f10565b61066d565b6101a56102a8366004610eee565b6106ad565b6101a56106d7565b6101a56102c3366004610eee565b610870565b6033546001600160a01b03166101ba565b6069546101ba906001600160a01b031681565b6101a56102fa366004610eee565b61089a565b6066546101ba906001600160a01b031681565b6101a5610320366004610fb2565b6108c4565b6101ba7373968b9a57c6e53d41345fd57a6e6ae27d6cdb2f81565b6101a561034e366004610fd4565b6109ce565b6101a5610361366004610f88565b610a0f565b6101a5610374366004610f10565b610a50565b6101a5610387366004610eee565b610a89565b6067546101ba906001600160a01b031681565b6103a7610b0e565b606980546001600160a01b0319166001600160a01b0392909216919091179055565b6103d1610b0e565b606580546001600160a01b0319166001600160a01b0392909216919091179055565b6103fb610b0e565b6068546001600160a01b0316639faceb1b3061041f6033546001600160a01b031690565b6040516001600160e01b031960e085901b1681526001600160a01b03928316600482015291166024820152604401600060405180830381600087803b15801561046757600080fd5b505af115801561047b573d6000803e3d6000fd5b50505050565b610489610b0e565b60405163095ea7b360e01b8152730c30476f66034e11782938df8e4384970b6c9e8a6004820152602481018290527373968b9a57c6e53d41345fd57a6e6ae27d6cdb2f9063095ea7b3906044016020604051808303816000875af11580156104f5573d6000803e3d6000fd5b505050506040513d601f19601f820116820180604052508101906105199190611000565b50604051631255d9df60e21b815260048101829052730c30476f66034e11782938df8e4384970b6c9e8a90634957677c906024015b600060405180830381600087803b15801561056857600080fd5b505af115801561057c573d6000803e3d6000fd5b5050505050565b61058b610b0e565b60665460408051634e71d92d60e01b815290516000926001600160a01b031691634e71d92d916004808301926020929190829003018187875af11580156105d6573d6000803e3d6000fd5b505050506040513d601f19601f820116820180604052508101906105fa9190611022565b90506106246106116033546001600160a01b031690565b6067546001600160a01b03169083610b68565b50565b61062f610b0e565b6106556106446033546001600160a01b031690565b6001600160a01b0384169083610b68565b5050565b610661610b0e565b61066b6000610bbf565b565b610675610b0e565b6040516377fbd30960e11b815260048101829052730c30476f66034e11782938df8e4384970b6c9e8a9063eff7a6129060240161054e565b6106b5610b0e565b606880546001600160a01b0319166001600160a01b0392909216919091179055565b600054610100900460ff16158080156106f75750600054600160ff909116105b806107115750303b158015610711575060005460ff166001145b6107795760405162461bcd60e51b815260206004820152602e60248201527f496e697469616c697a61626c653a20636f6e747261637420697320616c72656160448201526d191e481a5b9a5d1a585b1a5e995960921b60648201526084015b60405180910390fd5b6000805460ff19166001179055801561079c576000805461ff0019166101001790555b6107a4610c11565b606580546001600160a01b031990811673469788fe6e9e9681c6ebf3bf78e7fd26fc015446179091556066805482167329f3dd38db24d3935cf1bf841e6b2b461a3e5d92179055606780548216735af15da84a4a6edf2d9fa6720de921e1026e37b7179055606980549091167375f8f7fa4b6da6de9f4fe972c811b778cefce8821790558015610624576000805461ff0019169055604051600181527f7f26b83ff96e1f2b6a682f133852f6798a09c465da95921460cefb38474024989060200160405180910390a150565b610878610b0e565b606780546001600160a01b0319166001600160a01b0392909216919091179055565b6108a2610b0e565b606680546001600160a01b0319166001600160a01b0392909216919091179055565b6108cc610b0e565b60405163095ea7b360e01b8152730c30476f66034e11782938df8e4384970b6c9e8a6004820152602481018390527373968b9a57c6e53d41345fd57a6e6ae27d6cdb2f9063095ea7b3906044016020604051808303816000875af1158015610938573d6000803e3d6000fd5b505050506040513d601f19601f8201168201806040525081019061095c9190611000565b506040516365fc387360e01b81526004810183905260248101829052730c30476f66034e11782938df8e4384970b6c9e8a906365fc3873906044015b600060405180830381600087803b1580156109b257600080fd5b505af11580156109c6573d6000803e3d6000fd5b505050505050565b6109d6610b0e565b6065546040516317b0dca160e31b8152600481018490526001600160a01b0383811660248301529091169063bd86e50890604401610998565b610a17610b0e565b6069546040516316ee17b560e01b81526001600160a01b03848116600483015260248201849052909116906316ee17b590604401610998565b610a58610b0e565b60655460405163785f6df160e11b8152600481018390526001600160a01b039091169063f0bedbe29060240161054e565b610a91610b0e565b6001600160a01b038116610af65760405162461bcd60e51b815260206004820152602660248201527f4f776e61626c653a206e6577206f776e657220697320746865207a65726f206160448201526564647265737360d01b6064820152608401610770565b61062481610bbf565b6001600160a01b03163b151590565b6033546001600160a01b0316331461066b5760405162461bcd60e51b815260206004820181905260248201527f4f776e61626c653a2063616c6c6572206973206e6f7420746865206f776e65726044820152606401610770565b604080516001600160a01b038416602482015260448082018490528251808303909101815260649091019091526020810180516001600160e01b031663a9059cbb60e01b179052610bba908490610c40565b505050565b603380546001600160a01b038381166001600160a01b0319831681179093556040519116919082907f8be0079c531659141344cd1fd0a4f28419497f9722a3daafe3b4186f6b6457e090600090a35050565b600054610100900460ff16610c385760405162461bcd60e51b81526004016107709061103b565b61066b610d12565b6000610c95826040518060400160405280602081526020017f5361666545524332303a206c6f772d6c6576656c2063616c6c206661696c6564815250856001600160a01b0316610d429092919063ffffffff16565b805190915015610bba5780806020019051810190610cb39190611000565b610bba5760405162461bcd60e51b815260206004820152602a60248201527f5361666545524332303a204552433230206f7065726174696f6e20646964206e6044820152691bdd081cdd58d8d9595960b21b6064820152608401610770565b600054610100900460ff16610d395760405162461bcd60e51b81526004016107709061103b565b61066b33610bbf565b6060610d518484600085610d59565b949350505050565b606082471015610dba5760405162461bcd60e51b815260206004820152602660248201527f416464726573733a20696e73756666696369656e742062616c616e636520666f6044820152651c8818d85b1b60d21b6064820152608401610770565b600080866001600160a01b03168587604051610dd69190611086565b60006040518083038185875af1925050503d8060008114610e13576040519150601f19603f3d011682016040523d82523d6000602084013e610e18565b606091505b5091509150610e2987838387610e34565b979650505050505050565b60608315610ea3578251600003610e9c576001600160a01b0385163b610e9c5760405162461bcd60e51b815260206004820152601d60248201527f416464726573733a2063616c6c20746f206e6f6e2d636f6e74726163740000006044820152606401610770565b5081610d51565b610d518383815115610eb85781518083602001fd5b8060405162461bcd60e51b81526004016107709190610f55565b80356001600160a01b0381168114610ee957600080fd5b919050565b600060208284031215610f0057600080fd5b610f0982610ed2565b9392505050565b600060208284031215610f2257600080fd5b5035919050565b60005b83811015610f44578181015183820152602001610f2c565b8381111561047b5750506000910152565b6020815260008251806020840152610f74816040850160208701610f29565b601f01601f19169190910160400192915050565b60008060408385031215610f9b57600080fd5b610fa483610ed2565b946020939093013593505050565b60008060408385031215610fc557600080fd5b50508035926020909101359150565b60008060408385031215610fe757600080fd5b82359150610ff760208401610ed2565b90509250929050565b60006020828403121561101257600080fd5b81518015158114610f0957600080fd5b60006020828403121561103457600080fd5b5051919050565b6020808252602b908201527f496e697469616c697a61626c653a20636f6e7472616374206973206e6f74206960408201526a6e697469616c697a696e6760a81b606082015260800190565b60008251611098818460208701610f29565b919091019291505056fea264697066735822122040b437d082a1334a9508f0ceb79eb7bd34079e9e743127adcb28d600c366b87c64736f6c634300080d0033",
  "devdoc": {
    "kind": "dev",
    "methods": {
      "owner()": {
        "details": "Returns the address of the current owner."
      },
      "renounceOwnership()": {
        "details": "Leaves the contract without owner. It will not be possible to call `onlyOwner` functions anymore. Can only be called by the current owner. NOTE: Renouncing ownership will leave the contract without an owner, thereby removing any functionality that is only available to the owner."
      },
      "transferOwnership(address)": {
        "details": "Transfers ownership of the contract to a new account (`newOwner`). Can only be called by the current owner."
      }
    },
    "version": 1
  },
  "userdoc": {
    "kind": "user",
    "methods": {},
    "version": 1
  },
  "storageLayout": {
    "storage": [
      {
        "astId": 23774,
        "contract": "submodules/v2-foundry/src/SDTController.sol:SDTController",
        "label": "_initialized",
        "offset": 0,
        "slot": "0",
        "type": "t_uint8"
      },
      {
        "astId": 23777,
        "contract": "submodules/v2-foundry/src/SDTController.sol:SDTController",
        "label": "_initializing",
        "offset": 1,
        "slot": "0",
        "type": "t_bool"
      },
      {
        "astId": 25557,
        "contract": "submodules/v2-foundry/src/SDTController.sol:SDTController",
        "label": "__gap",
        "offset": 0,
        "slot": "1",
        "type": "t_array(t_uint256)50_storage"
      },
      {
        "astId": 23646,
        "contract": "submodules/v2-foundry/src/SDTController.sol:SDTController",
        "label": "_owner",
        "offset": 0,
        "slot": "51",
        "type": "t_address"
      },
      {
        "astId": 23766,
        "contract": "submodules/v2-foundry/src/SDTController.sol:SDTController",
        "label": "__gap",
        "offset": 0,
        "slot": "52",
        "type": "t_array(t_uint256)49_storage"
      },
      {
        "astId": 41071,
        "contract": "submodules/v2-foundry/src/SDTController.sol:SDTController",
        "label": "delegateRegistry",
        "offset": 0,
        "slot": "101",
        "type": "t_address"
      },
      {
        "astId": 41073,
        "contract": "submodules/v2-foundry/src/SDTController.sol:SDTController",
        "label": "rewardDistributor",
        "offset": 0,
        "slot": "102",
        "type": "t_address"
      },
      {
        "astId": 41075,
        "contract": "submodules/v2-foundry/src/SDTController.sol:SDTController",
        "label": "rewardToken",
        "offset": 0,
        "slot": "103",
        "type": "t_address"
      },
      {
        "astId": 41077,
        "contract": "submodules/v2-foundry/src/SDTController.sol:SDTController",
        "label": "crvRewardDistributor",
        "offset": 0,
        "slot": "104",
        "type": "t_address"
      },
      {
        "astId": 41079,
        "contract": "submodules/v2-foundry/src/SDTController.sol:SDTController",
        "label": "gaugeController",
        "offset": 0,
        "slot": "105",
        "type": "t_address"
      }
    ],
    "types": {
      "t_address": {
        "encoding": "inplace",
        "label": "address",
        "numberOfBytes": "20"
      },
      "t_array(t_uint256)49_storage": {
        "base": "t_uint256",
        "encoding": "inplace",
        "label": "uint256[49]",
        "numberOfBytes": "1568"
      },
      "t_array(t_uint256)50_storage": {
        "base": "t_uint256",
        "encoding": "inplace",
        "label": "uint256[50]",
        "numberOfBytes": "1600"
      },
      "t_bool": {
        "encoding": "inplace",
        "label": "bool",
        "numberOfBytes": "1"
      },
      "t_uint256": {
        "encoding": "inplace",
        "label": "uint256",
        "numberOfBytes": "32"
      },
      "t_uint8": {
        "encoding": "inplace",
        "label": "uint8",
        "numberOfBytes": "1"
      }
    }
  }
}