{
  "address": "0xf591D878608e2e5c7D4f1E499330f4AB9BbaE37a",
  "abi": [
    {
      "inputs": [
        {
          "internalType": "contract ILendingPool",
          "name": "lendingPool",
          "type": "address"
        },
        {
          "internalType": "address",
          "name": "aToken",
          "type": "address"
        },
        {
          "internalType": "string",
          "name": "wrappedTokenName",
          "type": "string"
        },
        {
          "internalType": "string",
          "name": "wrappedTokenSymbol",
          "type": "string"
        }
      ],
      "stateMutability": "nonpayable",
      "type": "constructor"
    },
    {
      "inputs": [
        {
          "internalType": "address",
          "name": "target",
          "type": "address"
        },
        {
          "internalType": "bool",
          "name": "success",
          "type": "bool"
        },
        {
          "internalType": "bytes",
          "name": "data",
          "type": "bytes"
        }
      ],
      "name": "ERC20CallFailed",
      "type": "error"
    },
    {
      "anonymous": false,
      "inputs": [
        {
          "indexed": true,
          "internalType": "address",
          "name": "owner",
          "type": "address"
        },
        {
          "indexed": true,
          "internalType": "address",
          "name": "spender",
          "type": "address"
        },
        {
          "indexed": false,
          "internalType": "uint256",
          "name": "value",
          "type": "uint256"
        }
      ],
      "name": "Approval",
      "type": "event"
    },
    {
      "anonymous": false,
      "inputs": [
        {
          "indexed": true,
          "internalType": "address",
          "name": "from",
          "type": "address"
        },
        {
          "indexed": true,
          "internalType": "address",
          "name": "to",
          "type": "address"
        },
        {
          "indexed": false,
          "internalType": "uint256",
          "name": "value",
          "type": "uint256"
        }
      ],
      "name": "Transfer",
      "type": "event"
    },
    {
      "inputs": [],
      "name": "ASSET",
      "outputs": [
        {
          "internalType": "contract IERC20",
          "name": "",
          "type": "address"
        }
      ],
      "stateMutability": "view",
      "type": "function"
    },
    {
      "inputs": [],
      "name": "ATOKEN",
      "outputs": [
        {
          "internalType": "contract IERC20",
          "name": "",
          "type": "address"
        }
      ],
      "stateMutability": "view",
      "type": "function"
    },
    {
      "inputs": [],
      "name": "EIP712_REVISION",
      "outputs": [
        {
          "internalType": "bytes",
          "name": "",
          "type": "bytes"
        }
      ],
      "stateMutability": "view",
      "type": "function"
    },
    {
      "inputs": [],
      "name": "LENDING_POOL",
      "outputs": [
        {
          "internalType": "contract ILendingPool",
          "name": "",
          "type": "address"
        }
      ],
      "stateMutability": "view",
      "type": "function"
    },
    {
      "inputs": [],
      "name": "METADEPOSIT_TYPEHASH",
      "outputs": [
        {
          "internalType": "bytes32",
          "name": "",
          "type": "bytes32"
        }
      ],
      "stateMutability": "view",
      "type": "function"
    },
    {
      "inputs": [],
      "name": "METAWITHDRAWAL_TYPEHASH",
      "outputs": [
        {
          "internalType": "bytes32",
          "name": "",
          "type": "bytes32"
        }
      ],
      "stateMutability": "view",
      "type": "function"
    },
    {
      "inputs": [],
      "name": "PERMIT_TYPEHASH",
      "outputs": [
        {
          "internalType": "bytes32",
          "name": "",
          "type": "bytes32"
        }
      ],
      "stateMutability": "view",
      "type": "function"
    },
    {
      "inputs": [
        {
          "internalType": "address",
          "name": "",
          "type": "address"
        }
      ],
      "name": "_nonces",
      "outputs": [
        {
          "internalType": "uint256",
          "name": "",
          "type": "uint256"
        }
      ],
      "stateMutability": "view",
      "type": "function"
    },
    {
      "inputs": [
        {
          "internalType": "address",
          "name": "owner",
          "type": "address"
        },
        {
          "internalType": "address",
          "name": "spender",
          "type": "address"
        }
      ],
      "name": "allowance",
      "outputs": [
        {
          "internalType": "uint256",
          "name": "",
          "type": "uint256"
        }
      ],
      "stateMutability": "view",
      "type": "function"
    },
    {
      "inputs": [
        {
          "internalType": "address",
          "name": "spender",
          "type": "address"
        },
        {
          "internalType": "uint256",
          "name": "amount",
          "type": "uint256"
        }
      ],
      "name": "approve",
      "outputs": [
        {
          "internalType": "bool",
          "name": "",
          "type": "bool"
        }
      ],
      "stateMutability": "nonpayable",
      "type": "function"
    },
    {
      "inputs": [
        {
          "internalType": "address",
          "name": "account",
          "type": "address"
        }
      ],
      "name": "balanceOf",
      "outputs": [
        {
          "internalType": "uint256",
          "name": "",
          "type": "uint256"
        }
      ],
      "stateMutability": "view",
      "type": "function"
    },
    {
      "inputs": [],
      "name": "decimals",
      "outputs": [
        {
          "internalType": "uint8",
          "name": "",
          "type": "uint8"
        }
      ],
      "stateMutability": "view",
      "type": "function"
    },
    {
      "inputs": [
        {
          "internalType": "address",
          "name": "spender",
          "type": "address"
        },
        {
          "internalType": "uint256",
          "name": "subtractedValue",
          "type": "uint256"
        }
      ],
      "name": "decreaseAllowance",
      "outputs": [
        {
          "internalType": "bool",
          "name": "",
          "type": "bool"
        }
      ],
      "stateMutability": "nonpayable",
      "type": "function"
    },
    {
      "inputs": [
        {
          "internalType": "address",
          "name": "recipient",
          "type": "address"
        },
        {
          "internalType": "uint256",
          "name": "amount",
          "type": "uint256"
        },
        {
          "internalType": "uint16",
          "name": "referralCode",
          "type": "uint16"
        },
        {
          "internalType": "bool",
          "name": "fromUnderlying",
          "type": "bool"
        }
      ],
      "name": "deposit",
      "outputs": [
        {
          "internalType": "uint256",
          "name": "",
          "type": "uint256"
        }
      ],
      "stateMutability": "nonpayable",
      "type": "function"
    },
    {
      "inputs": [
        {
          "internalType": "address",
          "name": "account",
          "type": "address"
        }
      ],
      "name": "dynamicBalanceOf",
      "outputs": [
        {
          "internalType": "uint256",
          "name": "",
          "type": "uint256"
        }
      ],
      "stateMutability": "view",
      "type": "function"
    },
    {
      "inputs": [
        {
          "internalType": "uint256",
          "name": "amount",
          "type": "uint256"
        }
      ],
      "name": "dynamicToStaticAmount",
      "outputs": [
        {
          "internalType": "uint256",
          "name": "",
          "type": "uint256"
        }
      ],
      "stateMutability": "view",
      "type": "function"
    },
    {
      "inputs": [
        {
          "internalType": "uint256",
          "name": "chainId",
          "type": "uint256"
        }
      ],
      "name": "getDomainSeparator",
      "outputs": [
        {
          "internalType": "bytes32",
          "name": "",
          "type": "bytes32"
        }
      ],
      "stateMutability": "view",
      "type": "function"
    },
    {
      "inputs": [
        {
          "internalType": "address",
          "name": "spender",
          "type": "address"
        },
        {
          "internalType": "uint256",
          "name": "addedValue",
          "type": "uint256"
        }
      ],
      "name": "increaseAllowance",
      "outputs": [
        {
          "internalType": "bool",
          "name": "",
          "type": "bool"
        }
      ],
      "stateMutability": "nonpayable",
      "type": "function"
    },
    {
      "inputs": [
        {
          "internalType": "address",
          "name": "depositor",
          "type": "address"
        },
        {
          "internalType": "address",
          "name": "recipient",
          "type": "address"
        },
        {
          "internalType": "uint256",
          "name": "value",
          "type": "uint256"
        },
        {
          "internalType": "uint16",
          "name": "referralCode",
          "type": "uint16"
        },
        {
          "internalType": "bool",
          "name": "fromUnderlying",
          "type": "bool"
        },
        {
          "internalType": "uint256",
          "name": "deadline",
          "type": "uint256"
        },
        {
          "components": [
            {
              "internalType": "uint8",
              "name": "v",
              "type": "uint8"
            },
            {
              "internalType": "bytes32",
              "name": "r",
              "type": "bytes32"
            },
            {
              "internalType": "bytes32",
              "name": "s",
              "type": "bytes32"
            }
          ],
          "internalType": "struct StaticAToken.SignatureParams",
          "name": "sigParams",
          "type": "tuple"
        },
        {
          "internalType": "uint256",
          "name": "chainId",
          "type": "uint256"
        }
      ],
      "name": "metaDeposit",
      "outputs": [
        {
          "internalType": "uint256",
          "name": "",
          "type": "uint256"
        }
      ],
      "stateMutability": "nonpayable",
      "type": "function"
    },
    {
      "inputs": [
        {
          "internalType": "address",
          "name": "owner",
          "type": "address"
        },
        {
          "internalType": "address",
          "name": "recipient",
          "type": "address"
        },
        {
          "internalType": "uint256",
          "name": "staticAmount",
          "type": "uint256"
        },
        {
          "internalType": "uint256",
          "name": "dynamicAmount",
          "type": "uint256"
        },
        {
          "internalType": "bool",
          "name": "toUnderlying",
          "type": "bool"
        },
        {
          "internalType": "uint256",
          "name": "deadline",
          "type": "uint256"
        },
        {
          "components": [
            {
              "internalType": "uint8",
              "name": "v",
              "type": "uint8"
            },
            {
              "internalType": "bytes32",
              "name": "r",
              "type": "bytes32"
            },
            {
              "internalType": "bytes32",
              "name": "s",
              "type": "bytes32"
            }
          ],
          "internalType": "struct StaticAToken.SignatureParams",
          "name": "sigParams",
          "type": "tuple"
        },
        {
          "internalType": "uint256",
          "name": "chainId",
          "type": "uint256"
        }
      ],
      "name": "metaWithdraw",
      "outputs": [
        {
          "internalType": "uint256",
          "name": "",
          "type": "uint256"
        },
        {
          "internalType": "uint256",
          "name": "",
          "type": "uint256"
        }
      ],
      "stateMutability": "nonpayable",
      "type": "function"
    },
    {
      "inputs": [],
      "name": "name",
      "outputs": [
        {
          "internalType": "string",
          "name": "",
          "type": "string"
        }
      ],
      "stateMutability": "view",
      "type": "function"
    },
    {
      "inputs": [
        {
          "internalType": "address",
          "name": "owner",
          "type": "address"
        },
        {
          "internalType": "address",
          "name": "spender",
          "type": "address"
        },
        {
          "internalType": "uint256",
          "name": "value",
          "type": "uint256"
        },
        {
          "internalType": "uint256",
          "name": "deadline",
          "type": "uint256"
        },
        {
          "internalType": "uint8",
          "name": "v",
          "type": "uint8"
        },
        {
          "internalType": "bytes32",
          "name": "r",
          "type": "bytes32"
        },
        {
          "internalType": "bytes32",
          "name": "s",
          "type": "bytes32"
        },
        {
          "internalType": "uint256",
          "name": "chainId",
          "type": "uint256"
        }
      ],
      "name": "permit",
      "outputs": [],
      "stateMutability": "nonpayable",
      "type": "function"
    },
    {
      "inputs": [],
      "name": "rate",
      "outputs": [
        {
          "internalType": "uint256",
          "name": "",
          "type": "uint256"
        }
      ],
      "stateMutability": "view",
      "type": "function"
    },
    {
      "inputs": [
        {
          "internalType": "uint256",
          "name": "amount",
          "type": "uint256"
        }
      ],
      "name": "staticToDynamicAmount",
      "outputs": [
        {
          "internalType": "uint256",
          "name": "",
          "type": "uint256"
        }
      ],
      "stateMutability": "view",
      "type": "function"
    },
    {
      "inputs": [],
      "name": "symbol",
      "outputs": [
        {
          "internalType": "string",
          "name": "",
          "type": "string"
        }
      ],
      "stateMutability": "view",
      "type": "function"
    },
    {
      "inputs": [],
      "name": "totalSupply",
      "outputs": [
        {
          "internalType": "uint256",
          "name": "",
          "type": "uint256"
        }
      ],
      "stateMutability": "view",
      "type": "function"
    },
    {
      "inputs": [
        {
          "internalType": "address",
          "name": "to",
          "type": "address"
        },
        {
          "internalType": "uint256",
          "name": "amount",
          "type": "uint256"
        }
      ],
      "name": "transfer",
      "outputs": [
        {
          "internalType": "bool",
          "name": "",
          "type": "bool"
        }
      ],
      "stateMutability": "nonpayable",
      "type": "function"
    },
    {
      "inputs": [
        {
          "internalType": "address",
          "name": "from",
          "type": "address"
        },
        {
          "internalType": "address",
          "name": "to",
          "type": "address"
        },
        {
          "internalType": "uint256",
          "name": "amount",
          "type": "uint256"
        }
      ],
      "name": "transferFrom",
      "outputs": [
        {
          "internalType": "bool",
          "name": "",
          "type": "bool"
        }
      ],
      "stateMutability": "nonpayable",
      "type": "function"
    },
    {
      "inputs": [
        {
          "internalType": "address",
          "name": "recipient",
          "type": "address"
        },
        {
          "internalType": "uint256",
          "name": "amount",
          "type": "uint256"
        },
        {
          "internalType": "bool",
          "name": "toUnderlying",
          "type": "bool"
        }
      ],
      "name": "withdraw",
      "outputs": [
        {
          "internalType": "uint256",
          "name": "",
          "type": "uint256"
        },
        {
          "internalType": "uint256",
          "name": "",
          "type": "uint256"
        }
      ],
      "stateMutability": "nonpayable",
      "type": "function"
    },
    {
      "inputs": [
        {
          "internalType": "address",
          "name": "recipient",
          "type": "address"
        },
        {
          "internalType": "uint256",
          "name": "amount",
          "type": "uint256"
        },
        {
          "internalType": "bool",
          "name": "toUnderlying",
          "type": "bool"
        }
      ],
      "name": "withdrawDynamicAmount",
      "outputs": [
        {
          "internalType": "uint256",
          "name": "",
          "type": "uint256"
        },
        {
          "internalType": "uint256",
          "name": "",
          "type": "uint256"
        }
      ],
      "stateMutability": "nonpayable",
      "type": "function"
    }
  ],
  "transactionHash": "0xec6ddf51b8102df25c0c0f4e86c61fd8ee010c9183c611d80dd732de252d04ab",
  "args": [
    "0x7d2768dE32b0b80b7a3454c06BdAc94A69DDc7A9",
    "0xBcca60bB61934080951369a648Fb03DF4F96263C",
    "Static Aave USDC",
    "s_aUSDC"
  ],
  "solcInputHash": "f644976d12a037ef3d1ff000e5989323",
  "bytecode": "0x60e06040523480156200001157600080fd5b506040516200297838038062002978833981016040819052620000349162000449565b8151829082906200004d906003906020850190620002b0565b50805162000063906004906020840190620002b0565b5050506001600160a01b03808516608052831660a0819052604080516358b50cef60e11b815290516000929163b16a19de9160048083019260209291908290030181865afa158015620000ba573d6000803e3d6000fd5b505050506040513d601f19601f82011682018060405250810190620000e09190620004de565b6001600160a01b03811660c05290506200010a81866000196200018f602090811b62000ee717901c565b836001600160a01b031663313ce5676040518163ffffffff1660e01b8152600401602060405180830381865afa15801562000149573d6000803e3d6000fd5b505050506040513d601f19601f820116820180604052508101906200016f919062000505565b6006805460ff191660ff9290921691909117905550620005f59350505050565b604080516001600160a01b038481166024830152604480830185905283518084039091018152606490920183526020820180516001600160e01b031663095ea7b360e01b1790529151600092839290871691620001ed91906200052a565b6000604051808303816000865af19150503d80600081146200022c576040519150601f19603f3d011682016040523d82523d6000602084013e62000231565b606091505b5091509150846001600160a01b03163b600014806200024e575081155b806200027957508051158015906200027957508080602001905181019062000277919062000548565b155b15620002a95784828260405163e7e40b5b60e01b8152600401620002a0939291906200056c565b60405180910390fd5b5050505050565b828054620002be90620005b9565b90600052602060002090601f016020900481019282620002e257600085556200032d565b82601f10620002fd57805160ff19168380011785556200032d565b828001600101855582156200032d579182015b828111156200032d57825182559160200191906001019062000310565b506200033b9291506200033f565b5090565b5b808211156200033b576000815560010162000340565b6001600160a01b03811681146200036c57600080fd5b50565b634e487b7160e01b600052604160045260246000fd5b60005b83811015620003a257818101518382015260200162000388565b83811115620003b2576000848401525b50505050565b600082601f830112620003ca57600080fd5b81516001600160401b0380821115620003e757620003e76200036f565b604051601f8301601f19908116603f011681019082821181831017156200041257620004126200036f565b816040528381528660208588010111156200042c57600080fd5b6200043f84602083016020890162000385565b9695505050505050565b600080600080608085870312156200046057600080fd5b84516200046d8162000356565b6020860151909450620004808162000356565b60408601519093506001600160401b03808211156200049e57600080fd5b620004ac88838901620003b8565b93506060870151915080821115620004c357600080fd5b50620004d287828801620003b8565b91505092959194509250565b600060208284031215620004f157600080fd5b8151620004fe8162000356565b9392505050565b6000602082840312156200051857600080fd5b815160ff81168114620004fe57600080fd5b600082516200053e81846020870162000385565b9190910192915050565b6000602082840312156200055b57600080fd5b81518015158114620004fe57600080fd5b60018060a01b038416815282151560208201526060604082015260008251806060840152620005a381608085016020870162000385565b601f01601f191691909101608001949350505050565b600181811c90821680620005ce57607f821691505b602082108103620005ef57634e487b7160e01b600052602260045260246000fd5b50919050565b60805160a05160c0516123146200066460003960008181610302015281816105fc015281816114bb0152818161160701526116460152600081816103410152818161157201526116f301526000818161047b01528181610627015281816114f2015261168501526123146000f3fe608060405234801561001057600080fd5b50600436106101da5760003560e01c806369af0ddb1161010457806395d89b41116100a2578063b9844d8d11610071578063b9844d8d1461049d578063dd62ed3e146104bd578063ead5d359146104d0578063f57d0b40146104e357600080fd5b806395d89b4114610448578063a457c2d714610450578063a9059cbb14610463578063b4dcfc771461047657600080fd5b806381abdab3116100de57806381abdab3146103e65780638a127bfd146103f95780638a3b3d6f1461040e5780638d9484151461042157600080fd5b806369af0ddb1461038a57806370a082311461039d57806378160376146103c657600080fd5b806330adf81f1161017c57806344b68c3f1161014b57806344b68c3f146102ea5780634800d97f146102fd57806351c0e0611461033c578063632105371461036357600080fd5b806330adf81f14610288578063313ce567146102af57806336a5a6d6146102c457806339509351146102d757600080fd5b806323b872dd116101b857806323b872dd14610232578063288587ce146102455780632c4e722e1461026d5780632f2cab871461027557600080fd5b806306fdde03146101df578063095ea7b3146101fd57806318160ddd14610220575b600080fd5b6101e76104f6565b6040516101f49190611df8565b60405180910390f35b61021061020b366004611e27565b610588565b60405190151581526020016101f4565b6002545b6040519081526020016101f4565b610210610240366004611e51565b6105a2565b610258610253366004611e9e565b6105c8565b604080519283526020830191909152016101f4565b6102246105e5565b610224610283366004611ef0565b610699565b6102247f6e71edae12b1b97f4d1f60370fef10105fa2faae0126114a169c64845d6126c981565b60065460405160ff90911681526020016101f4565b6102246102d2366004611f3f565b6106b1565b6102106102e5366004611e27565b6106c5565b6102246102f8366004611f58565b6106e7565b6103247f000000000000000000000000000000000000000000000000000000000000000081565b6040516001600160a01b0390911681526020016101f4565b6103247f000000000000000000000000000000000000000000000000000000000000000081565b6102247f4dab0a5e832f103ac80c9c3e51e5742f8a24aa0a3d941fe91c64e1e3db50c74381565b610258610398366004611f8b565b610709565b6102246103ab366004611f58565b6001600160a01b031660009081526020819052604090205490565b6101e7604051806040016040528060018152602001603160f81b81525081565b6102246103f436600461200a565b610940565b61040c610407366004612074565b610b5f565b005b61022461041c366004611f3f565b610d48565b6102247f10ab8743506cfd76acaa406d0788f01934bd03f14eadabf392640e43b01f976c81565b6101e7610df4565b61021061045e366004611e27565b610e03565b610210610471366004611e27565b610e89565b6103247f000000000000000000000000000000000000000000000000000000000000000081565b6102246104ab366004611f58565b60056020526000908152604090205481565b6102246104cb3660046120e6565b610e97565b6102586104de366004611e9e565b610ec2565b6102246104f1366004611f3f565b610ed3565b60606003805461050590612119565b80601f016020809104026020016040519081016040528092919081815260200182805461053190612119565b801561057e5780601f106105535761010080835404028352916020019161057e565b820191906000526020600020905b81548152906001019060200180831161056157829003601f168201915b5050505050905090565b600033610596818585610ff3565b60019150505b92915050565b6000336105b0858285611117565b6105bb858585611191565b60019150505b9392505050565b6000806105d933866000878761135f565b91509150935093915050565b60405163d15e005360e01b81526001600160a01b037f0000000000000000000000000000000000000000000000000000000000000000811660048301526000917f00000000000000000000000000000000000000000000000000000000000000009091169063d15e005390602401602060405180830381865afa158015610670573d6000803e3d6000fd5b505050506040513d601f19601f82011682018060405250810190610694919061214d565b905090565b60006106a833868686866115a8565b95945050505050565b600061059c6106be6105e5565b839061173c565b6000336105968185856106d88383610e97565b6106e2919061217c565b610ff3565b6001600160a01b03811660009081526020819052604081205461059c90610ed3565b6000806001600160a01b038a1661075b5760405162461bcd60e51b815260206004820152601160248201527024a72b20a624a22fa222a827a9a4aa27a960791b60448201526064015b60405180910390fd5b8442111561077b5760405162461bcd60e51b815260040161075290612194565b6001600160a01b038a166000908152600560205260408120549061079e85610d48565b7f10ab8743506cfd76acaa406d0788f01934bd03f14eadabf392640e43b01f976c8d8d8d8d8d888e60405160200161081c9897969594939291909788526001600160a01b03968716602089015294909516604087015260608601929092526080850152151560a084015260c083019190915260e08201526101000190565b604051602081830303815290604052805190602001206040516020016108439291906121c0565b60408051601f1981840301815291905280516020918201209150600190829061086e908901896121db565b604080516000815260208181018084529490945260ff9092168282015291890135606082015290880135608082015260a0016020604051602081039080840390855afa1580156108c2573d6000803e3d6000fd5b505050602060405103516001600160a01b03168c6001600160a01b0316146108fc5760405162461bcd60e51b8152600401610752906121f6565b61090782600161217c565b6001600160a01b038d1660009081526005602052604090205561092d8c8c8c8c8c61135f565b9350935050509850989650505050505050565b60006001600160a01b03891661098c5760405162461bcd60e51b815260206004820152601160248201527024a72b20a624a22fa222a827a9a4aa27a960791b6044820152606401610752565b834211156109ac5760405162461bcd60e51b815260040161075290612194565b6001600160a01b038916600090815260056020526040812054906109cf84610d48565b604080517f4dab0a5e832f103ac80c9c3e51e5742f8a24aa0a3d941fe91c64e1e3db50c74360208201526001600160a01b03808f1692820192909252908c166060820152608081018b905261ffff8a1660a082015288151560c082015260e0810184905261010081018890526101200160405160208183030381529060405280519060200120604051602001610a669291906121c0565b60408051601f19818403018152919052805160209182012091506001908290610a91908801886121db565b604080516000815260208181018084529490945260ff9092168282015291880135606082015290870135608082015260a0016020604051602081039080840390855afa158015610ae5573d6000803e3d6000fd5b505050602060405103516001600160a01b03168b6001600160a01b031614610b1f5760405162461bcd60e51b8152600401610752906121f6565b610b2a82600161217c565b6001600160a01b038c16600090815260056020526040902055610b508b8b8b8b8b6115a8565b50505098975050505050505050565b6001600160a01b038816610ba55760405162461bcd60e51b815260206004820152600d60248201526c24a72b20a624a22fa7aba722a960991b6044820152606401610752565b84421115610bc55760405162461bcd60e51b815260040161075290612194565b6001600160a01b03881660009081526005602052604081205490610be883610d48565b604080517f6e71edae12b1b97f4d1f60370fef10105fa2faae0126114a169c64845d6126c960208201526001600160a01b03808e1692820192909252908b166060820152608081018a905260a0810184905260c0810189905260e00160405160208183030381529060405280519060200120604051602001610c6b9291906121c0565b60408051601f1981840301815282825280516020918201206000845290830180835281905260ff8916918301919091526060820187905260808201869052915060019060a0016020604051602081039080840390855afa158015610cd3573d6000803e3d6000fd5b505050602060405103516001600160a01b03168a6001600160a01b031614610d0d5760405162461bcd60e51b8152600401610752906121f6565b610d1882600161217c565b6001600160a01b038b16600090815260056020526040902055610d3c8a8a8a610ff3565b50505050505050505050565b60007f8b73c3c69bb8fe3d512ecc4cf759cc79239f7b179b0ffacaa9a75d522b39400f610d736104f6565b805160209182012060408051808201825260018152603160f81b90840152805192830193909352918101919091527fc89efdaa54c0f20c7adf612882df0950f5a951637e0307cdcb4c672f298b8bc66060820152608081018390523060a082015260c001604051602081830303815290604052805190602001209050919050565b60606004805461050590612119565b60003381610e118286610e97565b905083811015610e715760405162461bcd60e51b815260206004820152602560248201527f45524332303a2064656372656173656420616c6c6f77616e63652062656c6f77604482015264207a65726f60d81b6064820152608401610752565b610e7e8286868403610ff3565b506001949350505050565b600033610596818585611191565b6001600160a01b03918216600090815260016020908152604080832093909416825291909152205490565b6000806105d933868660008761135f565b600061059c610ee06105e5565b839061181a565b604080516001600160a01b038481166024830152604480830185905283518084039091018152606490920183526020820180516001600160e01b031663095ea7b360e01b1790529151600092839290871691610f439190612221565b6000604051808303816000865af19150503d8060008114610f80576040519150601f19603f3d011682016040523d82523d6000602084013e610f85565b606091505b5091509150846001600160a01b03163b60001480610fa1575081155b80610fc85750805115801590610fc8575080806020019051810190610fc6919061223d565b155b15610fec5784828260405163e7e40b5b60e01b81526004016107529392919061225a565b5050505050565b6001600160a01b0383166110555760405162461bcd60e51b8152602060048201526024808201527f45524332303a20617070726f76652066726f6d20746865207a65726f206164646044820152637265737360e01b6064820152608401610752565b6001600160a01b0382166110b65760405162461bcd60e51b815260206004820152602260248201527f45524332303a20617070726f766520746f20746865207a65726f206164647265604482015261737360f01b6064820152608401610752565b6001600160a01b0383811660008181526001602090815260408083209487168084529482529182902085905590518481527f8c5be1e5ebec7d5bd14f71427d1e84f3dd0314c0f7b2291e5b200ac8c7c3b925910160405180910390a3505050565b60006111238484610e97565b9050600019811461118b578181101561117e5760405162461bcd60e51b815260206004820152601d60248201527f45524332303a20696e73756666696369656e7420616c6c6f77616e63650000006044820152606401610752565b61118b8484848403610ff3565b50505050565b6001600160a01b0383166111f55760405162461bcd60e51b815260206004820152602560248201527f45524332303a207472616e736665722066726f6d20746865207a65726f206164604482015264647265737360d81b6064820152608401610752565b6001600160a01b0382166112575760405162461bcd60e51b815260206004820152602360248201527f45524332303a207472616e7366657220746f20746865207a65726f206164647260448201526265737360e81b6064820152608401610752565b6001600160a01b038316600090815260208190526040902054818110156112cf5760405162461bcd60e51b815260206004820152602660248201527f45524332303a207472616e7366657220616d6f756e7420657863656564732062604482015265616c616e636560d01b6064820152608401610752565b6001600160a01b0380851660009081526020819052604080822085850390559185168152908120805484929061130690849061217c565b92505081905550826001600160a01b0316846001600160a01b03167fddf252ad1be2c89b69c2b068fc378daa952ba7f163c4a11628f55a4df523b3ef8460405161135291815260200190565b60405180910390a361118b565b6000806001600160a01b0386166113ac5760405162461bcd60e51b81526020600482015260116024820152701253959053125117d49150d25412515395607a1b6044820152606401610752565b8415806113b7575083155b6114035760405162461bcd60e51b815260206004820152601e60248201527f4f4e4c595f4f4e455f414d4f554e545f464f524d41545f414c4c4f57454400006044820152606401610752565b6001600160a01b0387166000908152602081905260408120549080806114276105e5565b905088156114675783891161143c578861143e565b835b91508389116114565761145189826118da565b611460565b61146084826118da565b9250611494565b600061147385836118da565b90508089116114825788611484565b805b935061149084836118e6565b9250505b61149e8b836118f2565b861561156557604051631a4ca37b60e21b81526001600160a01b037f000000000000000000000000000000000000000000000000000000000000000081166004830152602482018590528b811660448301527f000000000000000000000000000000000000000000000000000000000000000016906369328dec906064016020604051808303816000875af115801561153b573d6000803e3d6000fd5b505050506040513d601f19601f8201168201806040525081019061155f919061214d565b50611599565b6115996001600160a01b037f0000000000000000000000000000000000000000000000000000000000000000168b85611a40565b50999098509650505050505050565b60006001600160a01b0385166115f45760405162461bcd60e51b81526020600482015260116024820152701253959053125117d49150d25412515395607a1b6044820152606401610752565b81156116e65761162f6001600160a01b037f000000000000000000000000000000000000000000000000000000000000000016873087611aa3565b60405163e8eda9df60e01b81526001600160a01b037f0000000000000000000000000000000000000000000000000000000000000000811660048301526024820186905230604483015261ffff851660648301527f0000000000000000000000000000000000000000000000000000000000000000169063e8eda9df90608401600060405180830381600087803b1580156116c957600080fd5b505af11580156116dd573d6000803e3d6000fd5b5050505061171b565b61171b6001600160a01b037f000000000000000000000000000000000000000000000000000000000000000016873087611aa3565b6000611726856106b1565b90506117328682611adb565b9695505050505050565b604080518082019091526002815261035360f41b6020820152600090826117765760405162461bcd60e51b81526004016107529190611df8565b506000611784600284612286565b90506b033b2e3c9fd0803ce800000061179f826000196122a8565b6117a99190612286565b84111560405180604001604052806002815260200161068760f31b815250906117e55760405162461bcd60e51b81526004016107529190611df8565b5082816117fe6b033b2e3c9fd0803ce8000000876122bf565b611808919061217c565b6118129190612286565b949350505050565b6000821580611827575081155b156118345750600061059c565b8161184c60026b033b2e3c9fd0803ce8000000612286565b611858906000196122a8565b6118629190612286565b83111560405180604001604052806002815260200161068760f31b8152509061189e5760405162461bcd60e51b81526004016107529190611df8565b506b033b2e3c9fd0803ce80000006118b7600282612286565b6118c184866122bf565b6118cb919061217c565b6105c19190612286565b505050565b60006105c1838361181a565b60006105c1838361173c565b6001600160a01b0382166119525760405162461bcd60e51b815260206004820152602160248201527f45524332303a206275726e2066726f6d20746865207a65726f206164647265736044820152607360f81b6064820152608401610752565b6001600160a01b038216600090815260208190526040902054818110156119c65760405162461bcd60e51b815260206004820152602260248201527f45524332303a206275726e20616d6f756e7420657863656564732062616c616e604482015261636560f01b6064820152608401610752565b6001600160a01b03831660009081526020819052604081208383039055600280548492906119f59084906122a8565b90915550506040518281526000906001600160a01b038516907fddf252ad1be2c89b69c2b068fc378daa952ba7f163c4a11628f55a4df523b3ef9060200160405180910390a3505050565b6040516001600160a01b0383166024820152604481018290526118d590849063a9059cbb60e01b906064015b60408051601f198184030181529190526020810180516001600160e01b03166001600160e01b031990931692909217909152611bba565b6040516001600160a01b038085166024830152831660448201526064810182905261118b9085906323b872dd60e01b90608401611a6c565b6001600160a01b038216611b315760405162461bcd60e51b815260206004820152601f60248201527f45524332303a206d696e7420746f20746865207a65726f2061646472657373006044820152606401610752565b8060026000828254611b43919061217c565b90915550506001600160a01b03821660009081526020819052604081208054839290611b7090849061217c565b90915550506040518181526001600160a01b038316906000907fddf252ad1be2c89b69c2b068fc378daa952ba7f163c4a11628f55a4df523b3ef9060200160405180910390a35050565b6000611c0f826040518060400160405280602081526020017f5361666545524332303a206c6f772d6c6576656c2063616c6c206661696c6564815250856001600160a01b0316611c8c9092919063ffffffff16565b8051909150156118d55780806020019051810190611c2d919061223d565b6118d55760405162461bcd60e51b815260206004820152602a60248201527f5361666545524332303a204552433230206f7065726174696f6e20646964206e6044820152691bdd081cdd58d8d9595960b21b6064820152608401610752565b60606118128484600085856001600160a01b0385163b611cee5760405162461bcd60e51b815260206004820152601d60248201527f416464726573733a2063616c6c20746f206e6f6e2d636f6e74726163740000006044820152606401610752565b600080866001600160a01b03168587604051611d0a9190612221565b60006040518083038185875af1925050503d8060008114611d47576040519150601f19603f3d011682016040523d82523d6000602084013e611d4c565b606091505b5091509150611d5c828286611d67565b979650505050505050565b60608315611d765750816105c1565b825115611d865782518084602001fd5b8160405162461bcd60e51b81526004016107529190611df8565b60005b83811015611dbb578181015183820152602001611da3565b8381111561118b5750506000910152565b60008151808452611de4816020860160208601611da0565b601f01601f19169290920160200192915050565b6020815260006105c16020830184611dcc565b80356001600160a01b0381168114611e2257600080fd5b919050565b60008060408385031215611e3a57600080fd5b611e4383611e0b565b946020939093013593505050565b600080600060608486031215611e6657600080fd5b611e6f84611e0b565b9250611e7d60208501611e0b565b9150604084013590509250925092565b8015158114611e9b57600080fd5b50565b600080600060608486031215611eb357600080fd5b611ebc84611e0b565b9250602084013591506040840135611ed381611e8d565b809150509250925092565b803561ffff81168114611e2257600080fd5b60008060008060808587031215611f0657600080fd5b611f0f85611e0b565b935060208501359250611f2460408601611ede565b91506060850135611f3481611e8d565b939692955090935050565b600060208284031215611f5157600080fd5b5035919050565b600060208284031215611f6a57600080fd5b6105c182611e0b565b600060608284031215611f8557600080fd5b50919050565b600080600080600080600080610140898b031215611fa857600080fd5b611fb189611e0b565b9750611fbf60208a01611e0b565b965060408901359550606089013594506080890135611fdd81611e8d565b935060a08901359250611ff38a60c08b01611f73565b915061012089013590509295985092959890939650565b600080600080600080600080610140898b03121561202757600080fd5b61203089611e0b565b975061203e60208a01611e0b565b96506040890135955061205360608a01611ede565b94506080890135611fdd81611e8d565b803560ff81168114611e2257600080fd5b600080600080600080600080610100898b03121561209157600080fd5b61209a89611e0b565b97506120a860208a01611e0b565b965060408901359550606089013594506120c460808a01612063565b979a969950949793969560a0850135955060c08501359460e001359350915050565b600080604083850312156120f957600080fd5b61210283611e0b565b915061211060208401611e0b565b90509250929050565b600181811c9082168061212d57607f821691505b602082108103611f8557634e487b7160e01b600052602260045260246000fd5b60006020828403121561215f57600080fd5b5051919050565b634e487b7160e01b600052601160045260246000fd5b6000821982111561218f5761218f612166565b500190565b60208082526012908201527124a72b20a624a22fa2ac2824a920aa24a7a760711b604082015260600190565b61190160f01b81526002810192909252602282015260420190565b6000602082840312156121ed57600080fd5b6105c182612063565b602080825260119082015270494e56414c49445f5349474e415455524560781b604082015260600190565b60008251612233818460208701611da0565b9190910192915050565b60006020828403121561224f57600080fd5b81516105c181611e8d565b6001600160a01b038416815282151560208201526060604082018190526000906106a890830184611dcc565b6000826122a357634e487b7160e01b600052601260045260246000fd5b500490565b6000828210156122ba576122ba612166565b500390565b60008160001904831182151516156122d9576122d9612166565b50029056fea2646970667358221220f82673b01c705c83f0892d0edfc2d413139313e08ed9a084bbb07a48325aca3e64736f6c634300080d0033",
  "devdoc": {
    "author": "Aave*",
    "details": "Wrapper token that allows to deposit tokens on the Aave protocol and receive a token which balance doesn't increase automatically, but uses an ever-increasing exchange rate - Only supporting deposits and withdrawals",
    "errors": {
      "ERC20CallFailed(address,bool,bytes)": [
        {
          "params": {
            "data": "The resulting data from the call. This is error data when the call was not a success. Otherwise,                this is malformed data when the call was a success.",
            "success": "If the call to the token was a success.",
            "target": "The target address."
          }
        }
      ]
    },
    "kind": "dev",
    "methods": {
      "allowance(address,address)": {
        "details": "See {IERC20-allowance}."
      },
      "approve(address,uint256)": {
        "details": "See {IERC20-approve}. NOTE: If `amount` is the maximum `uint256`, the allowance is not updated on `transferFrom`. This is semantically equivalent to an infinite approval. Requirements: - `spender` cannot be the zero address."
      },
      "balanceOf(address)": {
        "details": "See {IERC20-balanceOf}."
      },
      "decimals()": {
        "details": "Returns the number of decimals used to get its user representation. For example, if `decimals` equals `2`, a balance of `505` tokens should be displayed to a user as `5.05` (`505 / 10 ** 2`). Tokens usually opt for a value of 18, imitating the relationship between Ether and Wei. This is the value {ERC20} uses, unless this function is overridden; NOTE: This information is only used for _display_ purposes: it in no way affects any of the arithmetic of the contract, including {IERC20-balanceOf} and {IERC20-transfer}."
      },
      "decreaseAllowance(address,uint256)": {
        "details": "Atomically decreases the allowance granted to `spender` by the caller. This is an alternative to {approve} that can be used as a mitigation for problems described in {IERC20-approve}. Emits an {Approval} event indicating the updated allowance. Requirements: - `spender` cannot be the zero address. - `spender` must have allowance for the caller of at least `subtractedValue`."
      },
      "deposit(address,uint256,uint16,bool)": {
        "details": "Deposits `ASSET` in the Aave protocol and mints static aTokens to msg.sender",
        "params": {
          "amount": "The amount of underlying `ASSET` to deposit (e.g. deposit of 100 USDC)",
          "fromUnderlying": "bool - `true` if the msg.sender comes with underlying tokens (e.g. USDC) - `false` if the msg.sender comes already with aTokens (e.g. aUSDC)",
          "recipient": "The address that will receive the static aTokens",
          "referralCode": "Code used to register the integrator originating the operation, for potential rewards.   0 if the action is executed directly by the user, without any middle-man"
        },
        "returns": {
          "_0": "uint256 The amount of StaticAToken minted, static balance*"
        }
      },
      "dynamicBalanceOf(address)": {
        "details": "Utility method to get the current aToken balance of an user, from his staticAToken balance",
        "params": {
          "account": "The address of the user"
        },
        "returns": {
          "_0": "uint256 The aToken balance*"
        }
      },
      "dynamicToStaticAmount(uint256)": {
        "details": "Converts an aToken or underlying amount to the what it is denominated on the aToken as scaled balance, function of the principal and the liquidity index",
        "params": {
          "amount": "The amount to convert from"
        },
        "returns": {
          "_0": "uint256 The static (scaled) amount*"
        }
      },
      "getDomainSeparator(uint256)": {
        "details": "Function to return a dynamic domain separator, in order to be compatible with forks changing chainId",
        "params": {
          "chainId": "The chain id"
        },
        "returns": {
          "_0": "bytes32 The domain separator*"
        }
      },
      "increaseAllowance(address,uint256)": {
        "details": "Atomically increases the allowance granted to `spender` by the caller. This is an alternative to {approve} that can be used as a mitigation for problems described in {IERC20-approve}. Emits an {Approval} event indicating the updated allowance. Requirements: - `spender` cannot be the zero address."
      },
      "metaDeposit(address,address,uint256,uint16,bool,uint256,(uint8,bytes32,bytes32),uint256)": {
        "details": "Allows to deposit on Aave via meta-transaction https://github.com/ethereum/EIPs/blob/8a34d644aacf0f9f8f00815307fd7dd5da07655f/EIPS/eip-2612.md",
        "params": {
          "chainId": "Passing the chainId in order to be fork-compatible",
          "deadline": "The deadline timestamp, type(uint256).max for max deadline",
          "depositor": "Address from which the funds to deposit are going to be pulled",
          "fromUnderlying": "bool - `true` if the msg.sender comes with underlying tokens (e.g. USDC) - `false` if the msg.sender comes already with aTokens (e.g. aUSDC)",
          "recipient": "Address that will receive the staticATokens, in the average case, same as the `depositor`",
          "referralCode": "Code used to register the integrator originating the operation, for potential rewards.   0 if the action is executed directly by the user, without any middle-man",
          "sigParams": "Signature params: v,r,s",
          "value": "The amount to deposit"
        },
        "returns": {
          "_0": "uint256 The amount of StaticAToken minted, static balance"
        }
      },
      "metaWithdraw(address,address,uint256,uint256,bool,uint256,(uint8,bytes32,bytes32),uint256)": {
        "details": "Allows to withdraw from Aave via meta-transaction https://github.com/ethereum/EIPs/blob/8a34d644aacf0f9f8f00815307fd7dd5da07655f/EIPS/eip-2612.md",
        "params": {
          "chainId": "Passing the chainId in order to be fork-compatible",
          "deadline": "The deadline timestamp, type(uint256).max for max deadline",
          "dynamicAmount": "The amount of underlying/aToken to withdraw. If > 0, `staticAmount` needs to be 0",
          "owner": "Address owning the staticATokens",
          "recipient": "Address that will receive the underlying withdrawn from Aave",
          "sigParams": "Signature params: v,r,s",
          "staticAmount": "The amount of staticAToken to withdraw. If > 0, `dynamicAmount` needs to be 0",
          "toUnderlying": "bool - `true` for the recipient to get underlying tokens (e.g. USDC) - `false` for the recipient to get aTokens (e.g. aUSDC)"
        },
        "returns": {
          "_0": "amountToBurn: StaticATokens burnt, static balance",
          "_1": "amountToWithdraw: underlying/aToken send to `recipient`, dynamic balance"
        }
      },
      "name()": {
        "details": "Returns the name of the token."
      },
      "permit(address,address,uint256,uint256,uint8,bytes32,bytes32,uint256)": {
        "details": "Implements the permit function as for https://github.com/ethereum/EIPs/blob/8a34d644aacf0f9f8f00815307fd7dd5da07655f/EIPS/eip-2612.md",
        "params": {
          "chainId": "Passing the chainId in order to be fork-compatible",
          "deadline": "The deadline timestamp, type(uint256).max for max deadline",
          "owner": "The owner of the funds",
          "r": "Signature param",
          "s": "Signature param",
          "spender": "The spender",
          "v": "Signature param",
          "value": "The amount"
        }
      },
      "rate()": {
        "details": "Returns the Aave liquidity index of the underlying aToken, denominated rate here as it can be considered as an ever-increasing exchange rate",
        "returns": {
          "_0": "bytes32 The domain separator*"
        }
      },
      "staticToDynamicAmount(uint256)": {
        "details": "Converts a static amount (scaled balance on aToken) to the aToken/underlying value, using the current liquidity index on Aave",
        "params": {
          "amount": "The amount to convert from"
        },
        "returns": {
          "_0": "uint256 The dynamic amount*"
        }
      },
      "symbol()": {
        "details": "Returns the symbol of the token, usually a shorter version of the name."
      },
      "totalSupply()": {
        "details": "See {IERC20-totalSupply}."
      },
      "transfer(address,uint256)": {
        "details": "See {IERC20-transfer}. Requirements: - `to` cannot be the zero address. - the caller must have a balance of at least `amount`."
      },
      "transferFrom(address,address,uint256)": {
        "details": "See {IERC20-transferFrom}. Emits an {Approval} event indicating the updated allowance. This is not required by the EIP. See the note at the beginning of {ERC20}. NOTE: Does not update the allowance if the current allowance is the maximum `uint256`. Requirements: - `from` and `to` cannot be the zero address. - `from` must have a balance of at least `amount`. - the caller must have allowance for ``from``'s tokens of at least `amount`."
      },
      "withdraw(address,uint256,bool)": {
        "details": "Burns `amount` of static aToken, with recipient receiving the corresponding amount of `ASSET`",
        "params": {
          "amount": "The amount to withdraw, in static balance of StaticAToken",
          "recipient": "The address that will receive the amount of `ASSET` withdrawn from the Aave protocol",
          "toUnderlying": "bool - `true` for the recipient to get underlying tokens (e.g. USDC) - `false` for the recipient to get aTokens (e.g. aUSDC)"
        },
        "returns": {
          "_0": "amountToBurn: StaticATokens burnt, static balance",
          "_1": "amountToWithdraw: underlying/aToken send to `recipient`, dynamic balance*"
        }
      },
      "withdrawDynamicAmount(address,uint256,bool)": {
        "details": "Burns `amount` of static aToken, with recipient receiving the corresponding amount of `ASSET`",
        "params": {
          "amount": "The amount to withdraw, in dynamic balance of aToken/underlying asset",
          "recipient": "The address that will receive the amount of `ASSET` withdrawn from the Aave protocol",
          "toUnderlying": "bool - `true` for the recipient to get underlying tokens (e.g. USDC) - `false` for the recipient to get aTokens (e.g. aUSDC)"
        },
        "returns": {
          "_0": "amountToBurn: StaticATokens burnt, static balance",
          "_1": "amountToWithdraw: underlying/aToken send to `recipient`, dynamic balance*"
        }
      }
    },
    "stateVariables": {
      "_nonces": {
        "details": "owner => next valid nonce to submit with permit(), metaDeposit() and metaWithdraw() We choose to have sequentiality on them for each user to avoid potentially dangerous/bad UX cases"
      }
    },
    "title": "StaticAToken",
    "version": 1
  },
  "userdoc": {
    "errors": {
      "ERC20CallFailed(address,bool,bytes)": [
        {
          "notice": "An error used to indicate that a call to an ERC20 contract failed."
        }
      ]
    },
    "kind": "user",
    "methods": {},
    "version": 1
  },
  "storageLayout": {
    "storage": [
      {
        "astId": 15582,
        "contract": "submodules/v2-foundry/src/external/aave/StaticAToken.sol:StaticAToken",
        "label": "_balances",
        "offset": 0,
        "slot": "0",
        "type": "t_mapping(t_address,t_uint256)"
      },
      {
        "astId": 15588,
        "contract": "submodules/v2-foundry/src/external/aave/StaticAToken.sol:StaticAToken",
        "label": "_allowances",
        "offset": 0,
        "slot": "1",
        "type": "t_mapping(t_address,t_mapping(t_address,t_uint256))"
      },
      {
        "astId": 15590,
        "contract": "submodules/v2-foundry/src/external/aave/StaticAToken.sol:StaticAToken",
        "label": "_totalSupply",
        "offset": 0,
        "slot": "2",
        "type": "t_uint256"
      },
      {
        "astId": 15592,
        "contract": "submodules/v2-foundry/src/external/aave/StaticAToken.sol:StaticAToken",
        "label": "_name",
        "offset": 0,
        "slot": "3",
        "type": "t_string_storage"
      },
      {
        "astId": 15594,
        "contract": "submodules/v2-foundry/src/external/aave/StaticAToken.sol:StaticAToken",
        "label": "_symbol",
        "offset": 0,
        "slot": "4",
        "type": "t_string_storage"
      },
      {
        "astId": 36383,
        "contract": "submodules/v2-foundry/src/external/aave/StaticAToken.sol:StaticAToken",
        "label": "_nonces",
        "offset": 0,
        "slot": "5",
        "type": "t_mapping(t_address,t_uint256)"
      },
      {
        "astId": 36385,
        "contract": "submodules/v2-foundry/src/external/aave/StaticAToken.sol:StaticAToken",
        "label": "_decimals",
        "offset": 0,
        "slot": "6",
        "type": "t_uint8"
      }
    ],
    "types": {
      "t_address": {
        "encoding": "inplace",
        "label": "address",
        "numberOfBytes": "20"
      },
      "t_mapping(t_address,t_mapping(t_address,t_uint256))": {
        "encoding": "mapping",
        "key": "t_address",
        "label": "mapping(address => mapping(address => uint256))",
        "numberOfBytes": "32",
        "value": "t_mapping(t_address,t_uint256)"
      },
      "t_mapping(t_address,t_uint256)": {
        "encoding": "mapping",
        "key": "t_address",
        "label": "mapping(address => uint256)",
        "numberOfBytes": "32",
        "value": "t_uint256"
      },
      "t_string_storage": {
        "encoding": "bytes",
        "label": "string",
        "numberOfBytes": "32"
      },
      "t_uint256": {
        "encoding": "inplace",
        "label": "uint256",
        "numberOfBytes": "32"
      },
      "t_uint8": {
        "encoding": "inplace",
        "label": "uint8",
        "numberOfBytes": "1"
      }
    }
  }
}