{
  "address": "0x72A7cb4d5daB8E9Ba23f30DBE8E72Bc854a9945A",
  "abi": [
    {
      "inputs": [
        {
          "internalType": "address",
          "name": "_admin",
          "type": "address"
        },
        {
          "internalType": "address",
          "name": "_debtToken",
          "type": "address"
        },
        {
          "internalType": "address",
          "name": "_underlyingToken",
          "type": "address"
        },
        {
          "internalType": "address",
          "name": "_yieldToken",
          "type": "address"
        },
        {
          "internalType": "address",
          "name": "_alchemistV1",
          "type": "address"
        },
        {
          "internalType": "address",
          "name": "_alchemistV2",
          "type": "address"
        }
      ],
      "stateMutability": "nonpayable",
      "type": "constructor"
    },
    {
      "inputs": [
        {
          "internalType": "address",
          "name": "target",
          "type": "address"
        },
        {
          "internalType": "bool",
          "name": "success",
          "type": "bool"
        },
        {
          "internalType": "bytes",
          "name": "data",
          "type": "bytes"
        }
      ],
      "name": "ERC20CallFailed",
      "type": "error"
    },
    {
      "inputs": [
        {
          "internalType": "string",
          "name": "message",
          "type": "string"
        }
      ],
      "name": "IllegalArgument",
      "type": "error"
    },
    {
      "inputs": [],
      "name": "IllegalArgument",
      "type": "error"
    },
    {
      "inputs": [
        {
          "internalType": "string",
          "name": "message",
          "type": "string"
        }
      ],
      "name": "IllegalState",
      "type": "error"
    },
    {
      "inputs": [],
      "name": "admin",
      "outputs": [
        {
          "internalType": "address",
          "name": "",
          "type": "address"
        }
      ],
      "stateMutability": "view",
      "type": "function"
    },
    {
      "inputs": [],
      "name": "alchemistV1",
      "outputs": [
        {
          "internalType": "contract IAlchemistV1",
          "name": "",
          "type": "address"
        }
      ],
      "stateMutability": "view",
      "type": "function"
    },
    {
      "inputs": [],
      "name": "alchemistV2",
      "outputs": [
        {
          "internalType": "contract IAlchemistV2",
          "name": "",
          "type": "address"
        }
      ],
      "stateMutability": "view",
      "type": "function"
    },
    {
      "inputs": [],
      "name": "debtToken",
      "outputs": [
        {
          "internalType": "address",
          "name": "",
          "type": "address"
        }
      ],
      "stateMutability": "view",
      "type": "function"
    },
    {
      "inputs": [
        {
          "internalType": "uint256",
          "name": "_amount",
          "type": "uint256"
        }
      ],
      "name": "deposit",
      "outputs": [],
      "stateMutability": "nonpayable",
      "type": "function"
    },
    {
      "inputs": [
        {
          "internalType": "address",
          "name": "account",
          "type": "address"
        }
      ],
      "name": "forceMigrate",
      "outputs": [],
      "stateMutability": "nonpayable",
      "type": "function"
    },
    {
      "inputs": [
        {
          "internalType": "address",
          "name": "",
          "type": "address"
        }
      ],
      "name": "hasMigrated",
      "outputs": [
        {
          "internalType": "bool",
          "name": "",
          "type": "bool"
        }
      ],
      "stateMutability": "view",
      "type": "function"
    },
    {
      "inputs": [
        {
          "internalType": "uint256",
          "name": "",
          "type": "uint256"
        }
      ],
      "name": "migratedUsers",
      "outputs": [
        {
          "internalType": "address",
          "name": "",
          "type": "address"
        }
      ],
      "stateMutability": "view",
      "type": "function"
    },
    {
      "inputs": [],
      "name": "token",
      "outputs": [
        {
          "internalType": "contract IDetailedERC20",
          "name": "",
          "type": "address"
        }
      ],
      "stateMutability": "view",
      "type": "function"
    },
    {
      "inputs": [],
      "name": "totalValue",
      "outputs": [
        {
          "internalType": "uint256",
          "name": "",
          "type": "uint256"
        }
      ],
      "stateMutability": "view",
      "type": "function"
    },
    {
      "inputs": [],
      "name": "underlyingToken",
      "outputs": [
        {
          "internalType": "address",
          "name": "",
          "type": "address"
        }
      ],
      "stateMutability": "view",
      "type": "function"
    },
    {
      "inputs": [
        {
          "internalType": "address",
          "name": "_recipient",
          "type": "address"
        },
        {
          "internalType": "uint256",
          "name": "_amount",
          "type": "uint256"
        }
      ],
      "name": "withdraw",
      "outputs": [],
      "stateMutability": "nonpayable",
      "type": "function"
    },
    {
      "inputs": [],
      "name": "yieldToken",
      "outputs": [
        {
          "internalType": "address",
          "name": "",
          "type": "address"
        }
      ],
      "stateMutability": "view",
      "type": "function"
    }
  ],
  "transactionHash": "0xbd8070c953e062975e6ece6e34af41d9d759c678a9f0b6e0f48f6620fab89352",
  "args": [
    "0x8392F6669292fA56123F71949B52d883aE57e225",
    "0xBC6DA0FE9aD5f3b0d58160288917AA56653660E9",
    "0x6B175474E89094C44Da98b954EedeAC495271d0F",
    "0xdA816459F1AB5631232FE5e97a05BBBb94970c95",
    "0xc21D353FF4ee73C572425697f4F5aaD2109fe35b",
    "0x5C6374a2ac4EBC38DeA0Fc1F8716e5Ea1AdD94dd"
  ],
  "solcInputHash": "85b09cb0d2783b007970fb6b3eb041ba",
  "bytecode": "0x608060405234801561001057600080fd5b50604051610bf7380380610bf783398101604081905261002f916100af565b600080546001600160a01b03199081166001600160a01b039889161790915560028054821695881695909517909455600380548516938716939093179092556004805484169186169190911790556005805490921693169290921790915550610123565b80516001600160a01b03811681146100aa57600080fd5b919050565b60008060008060008060c087890312156100c857600080fd5b6100d187610093565b95506100df60208801610093565b94506100ed60408801610093565b93506100fb60608801610093565b925061010960808801610093565b915061011760a08801610093565b90509295509295509295565b610ac5806101326000396000f3fe608060405234801561001057600080fd5b50600436106100cf5760003560e01c8063b6b55f251161008c578063f3fef3a311610066578063f3fef3a3146101b8578063f851a440146101cb578063f8d89898146101de578063fc0c546a146101f157600080fd5b8063b6b55f2514610165578063d4c3eea014610176578063d7625c881461018557600080fd5b80632495a599146100d45780634af30c7c146101045780635c711e921461011757806376d5de851461012a57806397ff83871461013d578063a603c8b814610152575b600080fd5b6002546100e7906001600160a01b031681565b6040516001600160a01b0390911681526020015b60405180910390f35b6004546100e7906001600160a01b031681565b6100e76101253660046108c9565b610202565b6003546100e7906001600160a01b031681565b61015061014b3660046108fe565b61022c565b005b6005546100e7906001600160a01b031681565b6101506101733660046108c9565b50565b604051600081526020016100fb565b6101a86101933660046108fe565b60066020526000908152604090205460ff1681565b60405190151581526020016100fb565b6101506101c6366004610920565b610295565b6000546100e7906001600160a01b031681565b6001546100e7906001600160a01b031681565b6002546001600160a01b03166100e7565b6007818154811061021257600080fd5b6000918252602090912001546001600160a01b0316905081565b6000546001600160a01b0316331461028b5760405162461bcd60e51b815260206004820152601b60248201527f5472616e73666572416461707465723a206f6e6c792061646d696e000000000060448201526064015b60405180910390fd5b61017381826103e6565b6004546001600160a01b031633146102ef5760405162461bcd60e51b815260206004820152601f60248201527f5472616e73666572416461707465723a206f6e6c7920616c6368656d697374006044820152606401610282565b6000546001600160a01b0316320361038557600254600480546040516370a0823160e01b81523092810192909252610381926001600160a01b039081169291169082906370a0823190602401602060405180830381865afa158015610358573d6000803e3d6000fd5b505050506040513d601f19601f8201168201806040525081019061037c919061094a565b610764565b5050565b806001146103e0576040516354a1577760e11b815260206004820152602160248201527f5472616e73666572416461707465723a20416d6f756e74206d757374206265206044820152603160f81b6064820152608401610282565b61038132835b6001600160a01b03821660009081526006602052604090205460ff16156104505760405163c50656df60e01b815260206004820152601960248201527f557365722068617320616c7265616479206d69677261746564000000000000006044820152606401610282565b6004805460405163a1e401a960e01b81526001600160a01b03858116938201939093526000929091169063a1e401a990602401602060405180830381865afa1580156104a0573d6000803e3d6000fd5b505050506040513d601f19601f820116820180604052508101906104c4919061094a565b60048054604051632a9b810d60e21b81526001600160a01b038781169382019390935292935060009291169063aa6e043490602401602060405180830381865afa158015610516573d6000803e3d6000fd5b505050506040513d601f19601f8201168201806040525081019061053a919061094a565b6001600160a01b038086166000818152600660205260408120805460ff191660019081179091556007805491820181559091527fa66cc928b5edb82af9bd49922954155ab7b0942694bea4ce44661d9a8736c6880180546001600160a01b03191690911790556002546005549293506105b89290821691168461086c565b600554600354604051635efd4dd760e11b81526001600160a01b0391821660048201526024810185905285821660448201526000606482015291169063bdfa9bae906084016020604051808303816000875af115801561061c573d6000803e3d6000fd5b505050506040513d601f19601f82011682018060405250810190610640919061094a565b50801561075e576106518183610979565b6002036106e4576005546001600160a01b0316639b4542e684620f42406106778561089f565b610681919061099b565b6040516001600160e01b031960e085901b1681526001600160a01b0390921660048301526024820152604401600060405180830381600087803b1580156106c757600080fd5b505af11580156106db573d6000803e3d6000fd5b5050505061075e565b6005546001600160a01b0316639b4542e6846106ff8461089f565b6040516001600160e01b031960e085901b1681526001600160a01b0390921660048301526024820152604401600060405180830381600087803b15801561074557600080fd5b505af1158015610759573d6000803e3d6000fd5b505050505b50505050565b6040516001600160a01b03838116602483015260448201839052600091829186169063a9059cbb60e01b906064015b60408051601f198184030181529181526020820180516001600160e01b03166001600160e01b03199094169390931790925290516107d19190610a06565b6000604051808303816000865af19150503d806000811461080e576040519150601f19603f3d011682016040523d82523d6000602084013e610813565b606091505b5091509150811580610841575080511580159061084157508080602001905181019061083f9190610a22565b155b156108655784828260405163e7e40b5b60e01b815260040161028293929190610a44565b5050505050565b6040516001600160a01b03838116602483015260448201839052600091829186169063095ea7b360e01b90606401610793565b6000600160ff1b82106108c557604051630134249960e71b815260040160405180910390fd5b5090565b6000602082840312156108db57600080fd5b5035919050565b80356001600160a01b03811681146108f957600080fd5b919050565b60006020828403121561091057600080fd5b610919826108e2565b9392505050565b6000806040838503121561093357600080fd5b61093c836108e2565b946020939093013593505050565b60006020828403121561095c57600080fd5b5051919050565b634e487b7160e01b600052601160045260246000fd5b60008261099657634e487b7160e01b600052601260045260246000fd5b500490565b60008083128015600160ff1b8501841216156109b9576109b9610963565b6001600160ff1b03840183138116156109d4576109d4610963565b50500390565b60005b838110156109f55781810151838201526020016109dd565b8381111561075e5750506000910152565b60008251610a188184602087016109da565b9190910192915050565b600060208284031215610a3457600080fd5b8151801515811461091957600080fd5b60018060a01b038416815282151560208201526060604082015260008251806060840152610a798160808501602087016109da565b601f01601f19169190910160800194935050505056fea2646970667358221220a88729f70764221d44f515b2da6b67a29f2d9ea979ab1308e1b53884a45329b664736f6c634300080d0033",
  "devdoc": {
    "details": "A vault adapter implementation which migrates users to version 2",
    "errors": {
      "ERC20CallFailed(address,bool,bytes)": [
        {
          "params": {
            "data": "The resulting data from the call. This is error data when the call was not a                success. Otherwise, this is malformed data when the call was a success.",
            "success": "If the call to the token was a success.",
            "target": "The target address."
          }
        }
      ],
      "IllegalArgument(string)": [
        {
          "params": {
            "message": "The error message."
          }
        }
      ],
      "IllegalState(string)": [
        {
          "params": {
            "message": "The error message."
          }
        }
      ]
    },
    "kind": "dev",
    "methods": {
      "deposit(uint256)": {
        "details": "Deposits tokens into the vault.",
        "params": {
          "_amount": "the amount of tokens to deposit into the vault."
        }
      },
      "token()": {
        "details": "Gets the token that the vault accepts.",
        "returns": {
          "_0": "the accepted token."
        }
      },
      "totalValue()": {
        "details": "Gets the total value of the assets that the adapter holds.",
        "returns": {
          "_0": "the total assets."
        }
      },
      "withdraw(address,uint256)": {
        "details": "Withdraws tokens from the vault to the recipient. This function reverts if the caller is not the admin. This function reverts if the user has already migrated.",
        "params": {
          "_amount": "the amount of tokens to withdraw.",
          "_recipient": "the account to withdraw the tokes to."
        }
      }
    },
    "stateVariables": {
      "admin": {
        "details": "The address which has admin control over this contract."
      },
      "alchemistV1": {
        "details": "The alchemistV1."
      },
      "alchemistV2": {
        "details": "The alchemistV2."
      },
      "debtToken": {
        "details": "The address of the debt token."
      },
      "hasMigrated": {
        "details": "The map of users who have/haven't migrated."
      },
      "migratedUsers": {
        "details": "The array of users who have migrated."
      },
      "underlyingToken": {
        "details": "The underlyingToken address."
      },
      "yieldToken": {
        "details": "The yieldToken address."
      }
    },
    "title": "TransferAdapter",
    "version": 1
  },
  "userdoc": {
    "errors": {
      "ERC20CallFailed(address,bool,bytes)": [
        {
          "notice": "An error used to indicate that a call to an ERC20 contract failed."
        }
      ],
      "IllegalArgument()": [
        {
          "notice": "An error used to indicate that an action could not be completed because of an illegal argument was passed         to the function."
        }
      ],
      "IllegalArgument(string)": [
        {
          "notice": "An error used to indicate that an argument passed to a function is illegal or         inappropriate."
        }
      ],
      "IllegalState(string)": [
        {
          "notice": "An error used to indicate that a function has encountered an unrecoverable state."
        }
      ]
    },
    "kind": "user",
    "methods": {},
    "version": 1
  },
  "storageLayout": {
    "storage": [
      {
        "astId": 45344,
        "contract": "submodules/v2-foundry/src/adapters/V1/TransferAdapter.sol:TransferAdapter",
        "label": "admin",
        "offset": 0,
        "slot": "0",
        "type": "t_address"
      },
      {
        "astId": 45347,
        "contract": "submodules/v2-foundry/src/adapters/V1/TransferAdapter.sol:TransferAdapter",
        "label": "debtToken",
        "offset": 0,
        "slot": "1",
        "type": "t_address"
      },
      {
        "astId": 45350,
        "contract": "submodules/v2-foundry/src/adapters/V1/TransferAdapter.sol:TransferAdapter",
        "label": "underlyingToken",
        "offset": 0,
        "slot": "2",
        "type": "t_address"
      },
      {
        "astId": 45353,
        "contract": "submodules/v2-foundry/src/adapters/V1/TransferAdapter.sol:TransferAdapter",
        "label": "yieldToken",
        "offset": 0,
        "slot": "3",
        "type": "t_address"
      },
      {
        "astId": 45357,
        "contract": "submodules/v2-foundry/src/adapters/V1/TransferAdapter.sol:TransferAdapter",
        "label": "alchemistV1",
        "offset": 0,
        "slot": "4",
        "type": "t_contract(IAlchemistV1)54019"
      },
      {
        "astId": 45361,
        "contract": "submodules/v2-foundry/src/adapters/V1/TransferAdapter.sol:TransferAdapter",
        "label": "alchemistV2",
        "offset": 0,
        "slot": "5",
        "type": "t_contract(IAlchemistV2)54041"
      },
      {
        "astId": 45366,
        "contract": "submodules/v2-foundry/src/adapters/V1/TransferAdapter.sol:TransferAdapter",
        "label": "hasMigrated",
        "offset": 0,
        "slot": "6",
        "type": "t_mapping(t_address,t_bool)"
      },
      {
        "astId": 45370,
        "contract": "submodules/v2-foundry/src/adapters/V1/TransferAdapter.sol:TransferAdapter",
        "label": "migratedUsers",
        "offset": 0,
        "slot": "7",
        "type": "t_array(t_address)dyn_storage"
      }
    ],
    "types": {
      "t_address": {
        "encoding": "inplace",
        "label": "address",
        "numberOfBytes": "20"
      },
      "t_array(t_address)dyn_storage": {
        "base": "t_address",
        "encoding": "dynamic_array",
        "label": "address[]",
        "numberOfBytes": "32"
      },
      "t_bool": {
        "encoding": "inplace",
        "label": "bool",
        "numberOfBytes": "1"
      },
      "t_contract(IAlchemistV1)54019": {
        "encoding": "inplace",
        "label": "contract IAlchemistV1",
        "numberOfBytes": "20"
      },
      "t_contract(IAlchemistV2)54041": {
        "encoding": "inplace",
        "label": "contract IAlchemistV2",
        "numberOfBytes": "20"
      },
      "t_mapping(t_address,t_bool)": {
        "encoding": "mapping",
        "key": "t_address",
        "label": "mapping(address => bool)",
        "numberOfBytes": "32",
        "value": "t_bool"
      }
    }
  }
}