{
  "address": "0x645CE9367435A94c96fB67EBcf78eb09B3Bd65Cb",
  "abi": [
    {
      "inputs": [],
      "stateMutability": "nonpayable",
      "type": "constructor"
    },
    {
      "inputs": [
        {
          "internalType": "address",
          "name": "target",
          "type": "address"
        },
        {
          "internalType": "bool",
          "name": "success",
          "type": "bool"
        },
        {
          "internalType": "bytes",
          "name": "data",
          "type": "bytes"
        }
      ],
      "name": "ERC20CallFailed",
      "type": "error"
    },
    {
      "inputs": [],
      "name": "IllegalArgument",
      "type": "error"
    },
    {
      "inputs": [],
      "name": "IllegalState",
      "type": "error"
    },
    {
      "inputs": [],
      "name": "Unauthorized",
      "type": "error"
    },
    {
      "anonymous": false,
      "inputs": [
        {
          "indexed": false,
          "internalType": "address",
          "name": "admin",
          "type": "address"
        }
      ],
      "name": "AdminUpdated",
      "type": "event"
    },
    {
      "anonymous": false,
      "inputs": [
        {
          "indexed": true,
          "internalType": "address",
          "name": "sender",
          "type": "address"
        },
        {
          "indexed": true,
          "internalType": "address",
          "name": "recipient",
          "type": "address"
        },
        {
          "indexed": false,
          "internalType": "uint256",
          "name": "amount",
          "type": "uint256"
        }
      ],
      "name": "Claim",
      "type": "event"
    },
    {
      "anonymous": false,
      "inputs": [
        {
          "indexed": true,
          "internalType": "address",
          "name": "sender",
          "type": "address"
        },
        {
          "indexed": true,
          "internalType": "address",
          "name": "owner",
          "type": "address"
        },
        {
          "indexed": false,
          "internalType": "uint256",
          "name": "amount",
          "type": "uint256"
        }
      ],
      "name": "Deposit",
      "type": "event"
    },
    {
      "anonymous": false,
      "inputs": [
        {
          "indexed": true,
          "internalType": "address",
          "name": "sender",
          "type": "address"
        },
        {
          "indexed": false,
          "internalType": "uint256",
          "name": "amount",
          "type": "uint256"
        }
      ],
      "name": "Exchange",
      "type": "event"
    },
    {
      "anonymous": false,
      "inputs": [
        {
          "indexed": false,
          "internalType": "uint8",
          "name": "version",
          "type": "uint8"
        }
      ],
      "name": "Initialized",
      "type": "event"
    },
    {
      "anonymous": false,
      "inputs": [
        {
          "indexed": false,
          "internalType": "bool",
          "name": "flag",
          "type": "bool"
        }
      ],
      "name": "Paused",
      "type": "event"
    },
    {
      "anonymous": false,
      "inputs": [
        {
          "indexed": false,
          "internalType": "address",
          "name": "pendingAdmin",
          "type": "address"
        }
      ],
      "name": "PendingAdminUpdated",
      "type": "event"
    },
    {
      "anonymous": false,
      "inputs": [
        {
          "indexed": true,
          "internalType": "bytes32",
          "name": "role",
          "type": "bytes32"
        },
        {
          "indexed": true,
          "internalType": "bytes32",
          "name": "previousAdminRole",
          "type": "bytes32"
        },
        {
          "indexed": true,
          "internalType": "bytes32",
          "name": "newAdminRole",
          "type": "bytes32"
        }
      ],
      "name": "RoleAdminChanged",
      "type": "event"
    },
    {
      "anonymous": false,
      "inputs": [
        {
          "indexed": true,
          "internalType": "bytes32",
          "name": "role",
          "type": "bytes32"
        },
        {
          "indexed": true,
          "internalType": "address",
          "name": "account",
          "type": "address"
        },
        {
          "indexed": true,
          "internalType": "address",
          "name": "sender",
          "type": "address"
        }
      ],
      "name": "RoleGranted",
      "type": "event"
    },
    {
      "anonymous": false,
      "inputs": [
        {
          "indexed": true,
          "internalType": "bytes32",
          "name": "role",
          "type": "bytes32"
        },
        {
          "indexed": true,
          "internalType": "address",
          "name": "account",
          "type": "address"
        },
        {
          "indexed": true,
          "internalType": "address",
          "name": "sender",
          "type": "address"
        }
      ],
      "name": "RoleRevoked",
      "type": "event"
    },
    {
      "anonymous": false,
      "inputs": [
        {
          "indexed": false,
          "internalType": "address",
          "name": "newCollateralSource",
          "type": "address"
        }
      ],
      "name": "SetNewCollateralSource",
      "type": "event"
    },
    {
      "anonymous": false,
      "inputs": [
        {
          "indexed": true,
          "internalType": "address",
          "name": "sender",
          "type": "address"
        },
        {
          "indexed": true,
          "internalType": "address",
          "name": "recipient",
          "type": "address"
        },
        {
          "indexed": false,
          "internalType": "uint256",
          "name": "amount",
          "type": "uint256"
        }
      ],
      "name": "Withdraw",
      "type": "event"
    },
    {
      "inputs": [],
      "name": "ADMIN",
      "outputs": [
        {
          "internalType": "bytes32",
          "name": "",
          "type": "bytes32"
        }
      ],
      "stateMutability": "view",
      "type": "function"
    },
    {
      "inputs": [],
      "name": "DEFAULT_ADMIN_ROLE",
      "outputs": [
        {
          "internalType": "bytes32",
          "name": "",
          "type": "bytes32"
        }
      ],
      "stateMutability": "view",
      "type": "function"
    },
    {
      "inputs": [],
      "name": "SENTINEL",
      "outputs": [
        {
          "internalType": "bytes32",
          "name": "",
          "type": "bytes32"
        }
      ],
      "stateMutability": "view",
      "type": "function"
    },
    {
      "inputs": [],
      "name": "ZERO_ADDRESS",
      "outputs": [
        {
          "internalType": "address",
          "name": "",
          "type": "address"
        }
      ],
      "stateMutability": "view",
      "type": "function"
    },
    {
      "inputs": [],
      "name": "buffer",
      "outputs": [
        {
          "internalType": "address",
          "name": "",
          "type": "address"
        }
      ],
      "stateMutability": "view",
      "type": "function"
    },
    {
      "inputs": [
        {
          "internalType": "uint256",
          "name": "amount",
          "type": "uint256"
        },
        {
          "internalType": "address",
          "name": "recipient",
          "type": "address"
        }
      ],
      "name": "claim",
      "outputs": [],
      "stateMutability": "nonpayable",
      "type": "function"
    },
    {
      "inputs": [],
      "name": "conversionFactor",
      "outputs": [
        {
          "internalType": "uint256",
          "name": "",
          "type": "uint256"
        }
      ],
      "stateMutability": "view",
      "type": "function"
    },
    {
      "inputs": [
        {
          "internalType": "uint256",
          "name": "amount",
          "type": "uint256"
        },
        {
          "internalType": "address",
          "name": "owner",
          "type": "address"
        }
      ],
      "name": "deposit",
      "outputs": [],
      "stateMutability": "nonpayable",
      "type": "function"
    },
    {
      "inputs": [
        {
          "internalType": "uint256",
          "name": "amount",
          "type": "uint256"
        }
      ],
      "name": "exchange",
      "outputs": [],
      "stateMutability": "nonpayable",
      "type": "function"
    },
    {
      "inputs": [
        {
          "internalType": "address",
          "name": "owner",
          "type": "address"
        }
      ],
      "name": "getClaimableBalance",
      "outputs": [
        {
          "internalType": "uint256",
          "name": "claimableBalance",
          "type": "uint256"
        }
      ],
      "stateMutability": "view",
      "type": "function"
    },
    {
      "inputs": [
        {
          "internalType": "address",
          "name": "owner",
          "type": "address"
        }
      ],
      "name": "getExchangedBalance",
      "outputs": [
        {
          "internalType": "uint256",
          "name": "exchangedBalance",
          "type": "uint256"
        }
      ],
      "stateMutability": "view",
      "type": "function"
    },
    {
      "inputs": [
        {
          "internalType": "bytes32",
          "name": "role",
          "type": "bytes32"
        }
      ],
      "name": "getRoleAdmin",
      "outputs": [
        {
          "internalType": "bytes32",
          "name": "",
          "type": "bytes32"
        }
      ],
      "stateMutability": "view",
      "type": "function"
    },
    {
      "inputs": [
        {
          "internalType": "address",
          "name": "owner",
          "type": "address"
        }
      ],
      "name": "getUnexchangedBalance",
      "outputs": [
        {
          "internalType": "uint256",
          "name": "",
          "type": "uint256"
        }
      ],
      "stateMutability": "view",
      "type": "function"
    },
    {
      "inputs": [
        {
          "internalType": "bytes32",
          "name": "role",
          "type": "bytes32"
        },
        {
          "internalType": "address",
          "name": "account",
          "type": "address"
        }
      ],
      "name": "grantRole",
      "outputs": [],
      "stateMutability": "nonpayable",
      "type": "function"
    },
    {
      "inputs": [
        {
          "internalType": "bytes32",
          "name": "role",
          "type": "bytes32"
        },
        {
          "internalType": "address",
          "name": "account",
          "type": "address"
        }
      ],
      "name": "hasRole",
      "outputs": [
        {
          "internalType": "bool",
          "name": "",
          "type": "bool"
        }
      ],
      "stateMutability": "view",
      "type": "function"
    },
    {
      "inputs": [
        {
          "internalType": "address",
          "name": "_syntheticToken",
          "type": "address"
        },
        {
          "internalType": "address",
          "name": "_underlyingToken",
          "type": "address"
        },
        {
          "internalType": "address",
          "name": "_buffer",
          "type": "address"
        },
        {
          "internalType": "address",
          "name": "_whitelist",
          "type": "address"
        }
      ],
      "name": "initialize",
      "outputs": [],
      "stateMutability": "nonpayable",
      "type": "function"
    },
    {
      "inputs": [],
      "name": "isPaused",
      "outputs": [
        {
          "internalType": "bool",
          "name": "",
          "type": "bool"
        }
      ],
      "stateMutability": "view",
      "type": "function"
    },
    {
      "inputs": [
        {
          "internalType": "bytes32",
          "name": "role",
          "type": "bytes32"
        },
        {
          "internalType": "address",
          "name": "account",
          "type": "address"
        }
      ],
      "name": "renounceRole",
      "outputs": [],
      "stateMutability": "nonpayable",
      "type": "function"
    },
    {
      "inputs": [
        {
          "internalType": "bytes32",
          "name": "role",
          "type": "bytes32"
        },
        {
          "internalType": "address",
          "name": "account",
          "type": "address"
        }
      ],
      "name": "revokeRole",
      "outputs": [],
      "stateMutability": "nonpayable",
      "type": "function"
    },
    {
      "inputs": [
        {
          "internalType": "address",
          "name": "_newCollateralSource",
          "type": "address"
        }
      ],
      "name": "setCollateralSource",
      "outputs": [],
      "stateMutability": "nonpayable",
      "type": "function"
    },
    {
      "inputs": [
        {
          "internalType": "bool",
          "name": "pauseState",
          "type": "bool"
        }
      ],
      "name": "setPause",
      "outputs": [],
      "stateMutability": "nonpayable",
      "type": "function"
    },
    {
      "inputs": [
        {
          "internalType": "bytes4",
          "name": "interfaceId",
          "type": "bytes4"
        }
      ],
      "name": "supportsInterface",
      "outputs": [
        {
          "internalType": "bool",
          "name": "",
          "type": "bool"
        }
      ],
      "stateMutability": "view",
      "type": "function"
    },
    {
      "inputs": [],
      "name": "syntheticToken",
      "outputs": [
        {
          "internalType": "address",
          "name": "",
          "type": "address"
        }
      ],
      "stateMutability": "view",
      "type": "function"
    },
    {
      "inputs": [],
      "name": "totalBuffered",
      "outputs": [
        {
          "internalType": "uint256",
          "name": "",
          "type": "uint256"
        }
      ],
      "stateMutability": "view",
      "type": "function"
    },
    {
      "inputs": [],
      "name": "totalUnexchanged",
      "outputs": [
        {
          "internalType": "uint256",
          "name": "",
          "type": "uint256"
        }
      ],
      "stateMutability": "view",
      "type": "function"
    },
    {
      "inputs": [],
      "name": "underlyingToken",
      "outputs": [
        {
          "internalType": "address",
          "name": "",
          "type": "address"
        }
      ],
      "stateMutability": "view",
      "type": "function"
    },
    {
      "inputs": [],
      "name": "version",
      "outputs": [
        {
          "internalType": "string",
          "name": "",
          "type": "string"
        }
      ],
      "stateMutability": "view",
      "type": "function"
    },
    {
      "inputs": [],
      "name": "whitelist",
      "outputs": [
        {
          "internalType": "address",
          "name": "",
          "type": "address"
        }
      ],
      "stateMutability": "view",
      "type": "function"
    },
    {
      "inputs": [
        {
          "internalType": "uint256",
          "name": "amount",
          "type": "uint256"
        },
        {
          "internalType": "address",
          "name": "recipient",
          "type": "address"
        }
      ],
      "name": "withdraw",
      "outputs": [],
      "stateMutability": "nonpayable",
      "type": "function"
    }
  ],
  "transactionHash": "0x0f8da1b249a5ed7e06d7c219f66f1862a56493abd62e00e361998728c371496f",
  "args": [],
  "solcInputHash": "46e7d890f92ddffdd1772db28060bc01",
  "bytecode": "0x60806040523480156200001157600080fd5b50600054610100900460ff1615808015620000335750600054600160ff909116105b8062000063575062000050306200013d60201b62000ecf1760201c565b15801562000063575060005460ff166001145b620000cb5760405162461bcd60e51b815260206004820152602e60248201527f496e697469616c697a61626c653a20636f6e747261637420697320616c72656160448201526d191e481a5b9a5d1a585b1a5e995960921b606482015260840160405180910390fd5b6000805460ff191660011790558015620000ef576000805461ff0019166101001790555b801562000136576000805461ff0019169055604051600181527f7f26b83ff96e1f2b6a682f133852f6798a09c465da95921460cefb38474024989060200160405180910390a15b506200014c565b6001600160a01b03163b151590565b612395806200015c6000396000f3fe608060405234801561001057600080fd5b50600436106101ce5760003560e01c80636e553f6511610104578063bedb86fb116100a2578063e5c6554311610071578063e5c65543146103e1578063edaafe20146103f4578063f00cab431461040c578063f8c8765e1461043357600080fd5b8063bedb86fb14610395578063d547741f146103a8578063ddd5e1b2146103bb578063e061426d146103ce57600080fd5b806391d14854116100de57806391d148541461035a57806393e59dc11461036d578063a217fddf14610380578063b187bd261461038857600080fd5b80636e553f651461032b5780636fc12e9b1461033e5780638230ecd61461034757600080fd5b80632f2ff15d11610171578063535565591161014b57806353556559146102d6578063538ba4f9146102e957806354fd4d50146102f1578063602631ef1461032257600080fd5b80632f2ff15d146102a757806336568abe146102ba57806352349b17146102cd57600080fd5b806308a56351116101ad57806308a5635114610231578063248a9ca3146102445780632495a599146102675780632a0acc6a1461029257600080fd5b8062f714ce146101d357806301ffc9a7146101e857806306def80214610210575b600080fd5b6101e66101e1366004611eae565b610446565b005b6101fb6101f6366004611eda565b6104f9565b60405190151581526020015b60405180910390f35b61022361021e366004611f04565b610530565b604051908152602001610207565b6101e661023f366004611f04565b610543565b610223610252366004611f1f565b60009081526097602052604090206001015490565b60ca5461027a906001600160a01b031681565b6040516001600160a01b039091168152602001610207565b61022360008051602061234083398151915281565b6101e66102b5366004611eae565b6105a8565b6101e66102c8366004611eae565b6105d2565b61022360cc5481565b6101e66102e4366004611f1f565b610651565b61027a600081565b61031560405180604001604052806005815260200164322e322e3160d81b81525081565b6040516102079190611f90565b61022360d55481565b6101e6610339366004611eae565b610980565b61022360cb5481565b60c95461027a906001600160a01b031681565b6101fb610368366004611eae565b610a0b565b60d45461027a906001600160a01b031681565b610223600081565b60d3546101fb9060ff1681565b6101e66103a3366004611fb1565b610a36565b6101e66103b6366004611eae565b610ae6565b6101e66103c9366004611eae565b610b0b565b6102236103dc366004611f04565b610c26565b6102236103ef366004611f04565b610c8e565b60d35461027a9061010090046001600160a01b031681565b6102237fd3eedd6d69d410e954f4c622838ecc3acae9fdcd83cad412075c85b09277065681565b6101e6610441366004611fce565b610c99565b61044e610ede565b610456610f37565b6104946040518060600160405280336001600160a01b0316815260200161047c85610fc8565b61048590612038565b81526020016000815250610ff2565b60c9546104ab906001600160a01b03168284611324565b6040518281526001600160a01b0382169033907f9b1bfa7fa9ee420a16e124f794c35ac9f90472acc99140eb2f6447c714cad8eb906020015b60405180910390a36104f560018055565b5050565b60006001600160e01b03198216637965db0b60e01b148061052a57506301ffc9a760e01b6001600160e01b03198316145b92915050565b600061052a61053e83611429565b6114a4565b61054b6114b4565b60d38054610100600160a81b0319166101006001600160a01b038416908102919091179091556040519081527fc5829a70879032cb0dcc2ddcc5f76d8b74b51914a3cfc6a5836da63af15375d3906020015b60405180910390a150565b6000828152609760205260409020600101546105c3816114cc565b6105cd83836114d6565b505050565b6001600160a01b03811633146106475760405162461bcd60e51b815260206004820152602f60248201527f416363657373436f6e74726f6c3a2063616e206f6e6c792072656e6f756e636560448201526e103937b632b9903337b91039b2b63360891b60648201526084015b60405180910390fd5b6104f5828261155c565b610659610ede565b60d35461010090046001600160a01b03163314610688576040516282b42960e81b815260040160405180910390fd5b60d35460ff16156106ac57604051634a613c4160e01b815260040160405180910390fd5b60006106b7826115c3565b905060cb54600003610715578060cc60008282546106d59190612054565b909155505060405182815233907f5988e4c12f4844b895de0739f562558435dca9602fd8b970720ee3cf8dff39be9060200160405180910390a250610974565b60cf54600090815260ce60205260408120604080516060808201835260cb54825260d254602080840191825260d054848601908152855160e08101875290518152845181830152915182860152918101879052835191820190935260018401548152608083015291925060009060a0810161078f836115d3565b815260200161079e60006115d3565b815250905060cc54816060018181516107b79190612054565b905250600060cc8190556107cb60ce6115fe565b90505b8151156108c9576060820151156108c9578151600090815260ce6020526040812090506108116108068460600151856020015161163f565b608085015190611665565b6080840190815260006060850152604080516020810190915260018301548152905161083c91611697565b60a084015261084d6012600a612150565b60a084015151101561085f57506108c9565b60405180602001604052806012600a6108789190612150565b60a086015151610888919061215c565b905260c08401819052815461089c916116c0565b606084015280546020840180516108b490839061215c565b905250825160408401526003015482526107ce565b608082015151600182015560208201518351146108e957602082015160cb555b816040015183602001511461090157604082015160d2555b815160408401511461091357815160d0555b60608201511561093957816060015160cc60008282546109339190612054565b90915550505b60405186815233907f5988e4c12f4844b895de0739f562558435dca9602fd8b970720ee3cf8dff39be9060200160405180910390a250505050505b61097d60018055565b50565b610988610ede565b610990610f37565b6109b66040518060600160405280836001600160a01b0316815260200161048585610fc8565b60c9546109ce906001600160a01b03163330856116d4565b6040518281526001600160a01b0382169033907f5548c837ab068cf56a2c2479df0882a4922fd203edb7517321831d95078c5f62906020016104e4565b60009182526097602090815260408084206001600160a01b0393909316845291905290205460ff1690565b610a607fd3eedd6d69d410e954f4c622838ecc3acae9fdcd83cad412075c85b09277065633610a0b565b158015610a825750610a8060008051602061234083398151915233610a0b565b155b15610a9f576040516282b42960e81b815260040160405180910390fd5b60d3805460ff191682151590811790915560405160ff909116151581527f0e2fb031ee032dc02d8011dc50b816eb450cf856abd8261680dac74f72165bd29060200161059d565b600082815260976020526040902060010154610b01816114cc565b6105cd838361155c565b610b13610ede565b610b1b610f37565b6040805160608101825233815260006020820152610b56918101610b46610b41866115c3565b610fc8565b610b4f90612038565b9052610ff2565b60c954610b74906001600160a01b0316610b6f846115c3565b6117e9565b60d35460ca54604051631a4ca37b60e21b81526001600160a01b03918216600482015260248101859052838216604482015261010090920416906369328dec90606401600060405180830381600087803b158015610bd157600080fd5b505af1158015610be5573d6000803e3d6000fd5b50506040518481526001600160a01b03841692503391507f70eb43c4a8ae8c40502dcf22436c509c28d6ff421cf07c491be56984bd987068906020016104e4565b6001600160a01b038116600090815260cd6020526040812060d254600282015411610c545750600092915050565b8054600282015460cf54600091610c79918491610c749160ce91906118fe565b6116c0565b9050610c85818361215c565b95945050505050565b600061052a82611429565b600054610100900460ff1615808015610cb95750600054600160ff909116105b80610cd35750303b158015610cd3575060005460ff166001145b610d365760405162461bcd60e51b815260206004820152602e60248201527f496e697469616c697a61626c653a20636f6e747261637420697320616c72656160448201526d191e481a5b9a5d1a585b1a5e995960921b606482015260840161063e565b6000805460ff191660011790558015610d59576000805461ff0019166101001790555b610d7160008051602061234083398151915233611957565b610d8960008051602061234083398151915280611961565b610dc17fd3eedd6d69d410e954f4c622838ecc3acae9fdcd83cad412075c85b092770656600080516020612340833981519152611961565b60c980546001600160a01b038088166001600160a01b0319928316811790935560ca805491881691909216179055600090610dfb906119ac565b60ca54909150600090610e16906001600160a01b03166119ac565b9050610e228183612173565b610e2d90600a612196565b60d55560d38054610100600160a81b0319166101006001600160a01b03881602179055610e5a60ce6115fe565b505060d3805460ff191690555060d480546001600160a01b0319166001600160a01b0384161790558015610ec8576000805461ff0019169055604051600181527f7f26b83ff96e1f2b6a682f133852f6798a09c465da95921460cefb38474024989060200160405180910390a15b5050505050565b6001600160a01b03163b151590565b600260015403610f305760405162461bcd60e51b815260206004820152601f60248201527f5265656e7472616e637947756172643a207265656e7472616e742063616c6c00604482015260640161063e565b6002600155565b323314610fc65760d454604051633af32abf60e01b81523360048201526001600160a01b0390911690633af32abf90602401602060405180830381865afa158015610f86573d6000803e3d6000fd5b505050506040513d601f19601f82011682018060405250810190610faa91906121a5565b610fc6576040516282b42960e81b815260040160405180910390fd5b565b6000600160ff1b8210610fee57604051630134249960e71b815260040160405180910390fd5b5090565b80516001600160a01b0316600090815260cd6020908152604091829020825160a08101845281548152600182015481840190815260028301548286015260cb54606080840191825260cf54608085015286519081018752835180825292519581019590955251948401949094529092909190158015906110785750816040015160d25410155b1561109857600081528151602082018051611094908390612054565b9052505b80511561110b5760006110c78260000151610c748560400151866080015160ce6118fe9092919063ffffffff16565b905080826040018181516110db919061215c565b9052508151819083906110ef90839061215c565b905250602082018051829190611106908390612054565b905250505b61111d81604001518560200151611a92565b6040820152805160208501516111339190611a92565b8152602081015160408501516111499190611a92565b60208201528151815160808401516040850151921580159392151592909114159060009084906111765750825b8015611180575081155b905080156111cc5760006111a2876040015160ce61162d90919063ffffffff16565b80548851919250906111b4908261215c565b87519091506111c39082612054565b909155506112c0565b6000841580156111d95750835b806111e957508380156111e95750825b905060008580156111f8575084155b8061120857508580156112085750835b9050811561126257600061122a896080015160ce61162d90919063ffffffff16565b80549091506000036112475760808901516112479060ce90611b03565b87518154829060009061125b908490612054565b9091555050505b80156112bd576000611282896040015160ce61162d90919063ffffffff16565b9050886000015181600001600082825461129c919061215c565b909155505080546000036112bb5760408901516112bb9060ce90611b5d565b505b50505b84518651146112ce57845187555b84602001518660200151146112e857602085015160018801555b846040015186606001511461130057604085015160cb555b856080015186604001511461131a57608086015160028801555b5050505050505050565b604080516001600160a01b038481166024830152604480830185905283518084039091018152606490920183526020820180516001600160e01b031663a9059cbb60e01b179052915160009283929087169161138091906121c2565b6000604051808303816000865af19150503d80600081146113bd576040519150601f19603f3d011682016040523d82523d6000602084013e6113c2565b606091505b5091509150846001600160a01b03163b600014806113de575081155b80611405575080511580159061140557508080602001905181019061140391906121a5565b155b15610ec85784828260405163e7e40b5b60e01b815260040161063e939291906121de565b6001600160a01b038116600090815260cd6020526040812060d25460028201541161146957600181015481549092506114629083612054565b9392505050565b60018101548154600283015460cf549294506000926114909291610c749160ce91906118fe565b905061149c8184612054565b949350505050565b600060d5548261052a919061220a565b610faa60008051602061234083398151915233610a0b565b61097d8133611c05565b6114e08282610a0b565b6104f55760008281526097602090815260408083206001600160a01b03851684529091529020805460ff191660011790556115183390565b6001600160a01b0316816001600160a01b0316837f2f8788117e7eff1d82e926ec794901d17c78024a50270940304540a733656f0d60405160405180910390a45050565b6115668282610a0b565b156104f55760008281526097602090815260408083206001600160a01b0385168085529252808320805460ff1916905551339285917ff6391f5c32d9c69d2a47ea670b442974b53935d1edc7fd64eb21e047a839171b9190a45050565b600060d5548261052a919061222c565b60408051602081019091526000815260405180602001604052806115f684611c5e565b905292915050565b600081600101600081546116119061224b565b9091555050600181015460009081526020919091526040902090565b60009081526020919091526040902090565b6040805160208101909152600081526000611659846115d3565b905061149c8184611c76565b604080516020810190915260008152604080516020810190915282518451829161168e91612054565b90529392505050565b604080516020810190915260008152604080516020810190915282518451829161168e9161215c565b60006114626116cf8385611ca0565b611cca565b604080516001600160a01b0385811660248301528481166044830152606480830185905283518084039091018152608490920183526020820180516001600160e01b03166323b872dd60e01b179052915160009283929088169161173891906121c2565b6000604051808303816000865af19150503d8060008114611775576040519150601f19603f3d011682016040523d82523d6000602084013e61177a565b606091505b5091509150856001600160a01b03163b60001480611796575081155b806117bd57508051158015906117bd5750808060200190518101906117bb91906121a5565b155b156117e15785828260405163e7e40b5b60e01b815260040161063e939291906121de565b505050505050565b600080836001600160a01b03166342966c6860e01b8460405160240161181191815260200190565b60408051601f198184030181529181526020820180516001600160e01b03166001600160e01b031990941693909317909252905161184f91906121c2565b6000604051808303816000865af19150503d806000811461188c576040519150601f19603f3d011682016040523d82523d6000602084013e611891565b606091505b5091509150836001600160a01b03163b600014806118ad575081155b806118d457508051158015906118d45750808060200190518101906118d291906121a5565b155b156118f85783828260405163e7e40b5b60e01b815260040161063e939291906121de565b50505050565b6040805160208101909152600081526000838152602085815260408083208584529281902081518084018352600180860154825283519485019093529181015483529161194b8183611697565b98975050505050505050565b6104f582826114d6565b600082815260976020526040808220600101805490849055905190918391839186917fbd79b86ffe0ab8e8776151514217cd7cacd52c909f66475c3af44e129f0b00ff9190a4505050565b60408051600481526024810182526020810180516001600160e01b031663313ce56760e01b1790529051600091829182916001600160a01b038616916119f291906121c2565b600060405180830381855afa9150503d8060008114611a2d576040519150601f19603f3d011682016040523d82523d6000602084013e611a32565b606091505b5091509150836001600160a01b03163b60001480611a4e575081155b80611a5a575060208151105b15611a7e5783828260405163e7e40b5b60e01b815260040161063e939291906121de565b8080602001905181019061149c9190612264565b600080821215611ad65782611aa683612038565b611ab0908561215c565b91508110611ad157604051630134249960e71b815260040160405180910390fd5b61052a565b82611ae18382612054565b915081101561052a57604051630134249960e71b815260040160405180910390fd5b8160020154600003611b1e5760038201819055600290910155565b80826003015403611b2d575050565b60008181526020839052604080822060039485018054808552929093206002909101919091559092018190559055565b60008181526020839052604090206002830154829003611b8257600381015460028401555b81836003015403611b9857600281015460038401555b600281015415611bc05760038082015460028301546000908152602086905260409020909101555b600381015415611be85760028082015460038301546000908152602086905260409020909101555b506000908152602091909152604081206003810182905560020155565b611c0f8282610a0b565b6104f557611c1c81611ce4565b611c27836020611cf6565b604051602001611c38929190612287565b60408051601f198184030181529082905262461bcd60e51b825261063e91600401611f90565b6000611c6c6012600a612150565b61052a908361222c565b604080516020810190915260008152604051806020016040528083856000015161168e919061220a565b604080516020810190915260008152604051806020016040528083856000015161168e919061222c565b6000611cd86012600a612150565b825161052a919061220a565b606061052a6001600160a01b03831660145b60606000611d0583600261222c565b611d10906002612054565b67ffffffffffffffff811115611d2857611d286122fc565b6040519080825280601f01601f191660200182016040528015611d52576020820181803683370190505b509050600360fc1b81600081518110611d6d57611d6d612312565b60200101906001600160f81b031916908160001a905350600f60fb1b81600181518110611d9c57611d9c612312565b60200101906001600160f81b031916908160001a9053506000611dc084600261222c565b611dcb906001612054565b90505b6001811115611e43576f181899199a1a9b1b9c1cb0b131b232b360811b85600f1660108110611dff57611dff612312565b1a60f81b828281518110611e1557611e15612312565b60200101906001600160f81b031916908160001a90535060049490941c93611e3c81612328565b9050611dce565b5083156114625760405162461bcd60e51b815260206004820181905260248201527f537472696e67733a20686578206c656e67746820696e73756666696369656e74604482015260640161063e565b80356001600160a01b0381168114611ea957600080fd5b919050565b60008060408385031215611ec157600080fd5b82359150611ed160208401611e92565b90509250929050565b600060208284031215611eec57600080fd5b81356001600160e01b03198116811461146257600080fd5b600060208284031215611f1657600080fd5b61146282611e92565b600060208284031215611f3157600080fd5b5035919050565b60005b83811015611f53578181015183820152602001611f3b565b838111156118f85750506000910152565b60008151808452611f7c816020860160208601611f38565b601f01601f19169290920160200192915050565b6020815260006114626020830184611f64565b801515811461097d57600080fd5b600060208284031215611fc357600080fd5b813561146281611fa3565b60008060008060808587031215611fe457600080fd5b611fed85611e92565b9350611ffb60208601611e92565b925061200960408601611e92565b915061201760608601611e92565b905092959194509250565b634e487b7160e01b600052601160045260246000fd5b6000600160ff1b820161204d5761204d612022565b5060000390565b6000821982111561206757612067612022565b500190565b600181815b808511156120a757816000190482111561208d5761208d612022565b8085161561209a57918102915b93841c9390800290612071565b509250929050565b6000826120be5750600161052a565b816120cb5750600061052a565b81600181146120e157600281146120eb57612107565b600191505061052a565b60ff8411156120fc576120fc612022565b50506001821b61052a565b5060208310610133831016604e8410600b841016171561212a575081810a61052a565b612134838361206c565b806000190482111561214857612148612022565b029392505050565b600061146283836120af565b60008282101561216e5761216e612022565b500390565b600060ff821660ff84168082101561218d5761218d612022565b90039392505050565b600061146260ff8416836120af565b6000602082840312156121b757600080fd5b815161146281611fa3565b600082516121d4818460208701611f38565b9190910192915050565b6001600160a01b03841681528215156020820152606060408201819052600090610c8590830184611f64565b60008261222757634e487b7160e01b600052601260045260246000fd5b500490565b600081600019048311821515161561224657612246612022565b500290565b60006001820161225d5761225d612022565b5060010190565b60006020828403121561227657600080fd5b815160ff8116811461146257600080fd5b7f416363657373436f6e74726f6c3a206163636f756e74200000000000000000008152600083516122bf816017850160208801611f38565b7001034b99036b4b9b9b4b733903937b6329607d1b60179184019182015283516122f0816028840160208801611f38565b01602801949350505050565b634e487b7160e01b600052604160045260246000fd5b634e487b7160e01b600052603260045260246000fd5b60008161233757612337612022565b50600019019056fedf8b4c520ffe197c5343c6f5aec59570151ef9a492f2c624fd45ddde6135ec42a264697066735822122047da63a06d23b91bec229629d049ffe97311da95e84c9d7e752e32835b3f506e64736f6c634300080d0033",
  "devdoc": {
    "errors": {
      "ERC20CallFailed(address,bool,bytes)": [
        {
          "params": {
            "data": "The resulting data from the call. This is error data when the call was not a success. Otherwise,                this is malformed data when the call was a success.",
            "success": "If the call to the token was a success.",
            "target": "The target address."
          }
        }
      ]
    },
    "kind": "dev",
    "methods": {
      "claim(uint256,address)": {
        "details": "Claims exchanged tokens.",
        "params": {
          "amount": "The amount of tokens to claim.",
          "recipient": "The address which will receive the claimed tokens."
        }
      },
      "constructor": {
        "custom:oz-upgrades-unsafe-allow": "constructor"
      },
      "deposit(uint256,address)": {
        "details": "Deposits tokens to be exchanged into an account.",
        "params": {
          "amount": "The amount of tokens to deposit.",
          "owner": "The owner of the account to deposit the tokens into."
        }
      },
      "exchange(uint256)": {
        "details": "Exchanges `amount` underlying tokens for `amount` synthetic tokens staked in the system.",
        "params": {
          "amount": "The amount of tokens to exchange."
        }
      },
      "getClaimableBalance(address)": {
        "details": "Gets the claimable balance of an account, in units of `underlyingToken`.",
        "params": {
          "owner": "The address of the account owner."
        },
        "returns": {
          "claimableBalance": "The claimable balance."
        }
      },
      "getExchangedBalance(address)": {
        "details": "Gets the exchanged balance of an account, in units of `debtToken`.",
        "params": {
          "owner": "The address of the account owner."
        },
        "returns": {
          "exchangedBalance": "The exchanged balance."
        }
      },
      "getRoleAdmin(bytes32)": {
        "details": "Returns the admin role that controls `role`. See {grantRole} and {revokeRole}. To change a role's admin, use {_setRoleAdmin}."
      },
      "getUnexchangedBalance(address)": {
        "details": "Gets the unexchanged balance of an account.",
        "params": {
          "owner": "The address of the account owner."
        },
        "returns": {
          "_0": "The unexchanged balance."
        }
      },
      "grantRole(bytes32,address)": {
        "details": "Grants `role` to `account`. If `account` had not been already granted `role`, emits a {RoleGranted} event. Requirements: - the caller must have ``role``'s admin role. May emit a {RoleGranted} event."
      },
      "hasRole(bytes32,address)": {
        "details": "Returns `true` if `account` has been granted `role`."
      },
      "renounceRole(bytes32,address)": {
        "details": "Revokes `role` from the calling account. Roles are often managed via {grantRole} and {revokeRole}: this function's purpose is to provide a mechanism for accounts to lose their privileges if they are compromised (such as when a trusted device is misplaced). If the calling account had been revoked `role`, emits a {RoleRevoked} event. Requirements: - the caller must be `account`. May emit a {RoleRevoked} event."
      },
      "revokeRole(bytes32,address)": {
        "details": "Revokes `role` from `account`. If `account` had been granted `role`, emits a {RoleRevoked} event. Requirements: - the caller must have ``role``'s admin role. May emit a {RoleRevoked} event."
      },
      "supportsInterface(bytes4)": {
        "details": "See {IERC165-supportsInterface}."
      },
      "withdraw(uint256,address)": {
        "details": "Withdraws tokens from the caller's account that were previously deposited to be exchanged.",
        "params": {
          "amount": "The amount of tokens to withdraw.",
          "recipient": "The address which will receive the withdrawn tokens."
        }
      }
    },
    "stateVariables": {
      "ADMIN": {
        "details": "The identifier of the role which maintains other roles."
      },
      "SENTINEL": {
        "details": "The identifier of the sentinel role"
      },
      "accounts": {
        "details": "A mapping specifying all of the accounts."
      },
      "buffer": {
        "details": "the source of the exchanged collateral"
      },
      "conversionFactor": {
        "details": "The amount of decimal places needed to normalize collateral to debtToken"
      },
      "isPaused": {
        "details": "contract pause state"
      },
      "syntheticToken": {
        "details": "the synthetic token to be transmuted"
      },
      "totalBuffered": {
        "details": "The total amount of tokens which are in the auxiliary buffer."
      },
      "totalUnexchanged": {
        "details": "The total amount of unexchanged tokens which are held by all accounts."
      },
      "underlyingToken": {
        "details": "the underlying token to be received"
      },
      "version": {
        "return": "The version.",
        "returns": {
          "_0": "The version."
        }
      },
      "whitelist": {
        "details": "The address of the external whitelist contract."
      }
    },
    "title": "TransmuterV2",
    "version": 1
  },
  "userdoc": {
    "errors": {
      "ERC20CallFailed(address,bool,bytes)": [
        {
          "notice": "An error used to indicate that a call to an ERC20 contract failed."
        }
      ],
      "IllegalArgument()": [
        {
          "notice": "An error used to indicate that an action could not be completed because of an illegal argument was passed         to the function."
        }
      ],
      "IllegalState()": [
        {
          "notice": "An error used to indicate that an action could not be completed because the contract either already existed         or entered an illegal condition which is not recoverable from."
        }
      ],
      "Unauthorized()": [
        {
          "notice": "An error used to indicate that an action could not be completed because either the `msg.sender` or         `msg.origin` is not authorized."
        }
      ]
    },
    "events": {
      "AdminUpdated(address)": {
        "notice": "Emitted when the admin address is updated."
      },
      "Paused(bool)": {
        "notice": "Emitted when the system is paused or unpaused."
      },
      "PendingAdminUpdated(address)": {
        "notice": "Emitted when the pending admin address is updated."
      }
    },
    "kind": "user",
    "methods": {
      "version()": {
        "notice": "Gets the version."
      }
    },
    "notice": "A contract which facilitates the exchange of synthetic assets for their underlying",
    "version": 1
  },
  "storageLayout": {
    "storage": [
      {
        "astId": 22110,
        "contract": "submodules/v2-foundry/src/TransmuterV2.sol:TransmuterV2",
        "label": "_initialized",
        "offset": 0,
        "slot": "0",
        "type": "t_uint8"
      },
      {
        "astId": 22113,
        "contract": "submodules/v2-foundry/src/TransmuterV2.sol:TransmuterV2",
        "label": "_initializing",
        "offset": 1,
        "slot": "0",
        "type": "t_bool"
      },
      {
        "astId": 22268,
        "contract": "submodules/v2-foundry/src/TransmuterV2.sol:TransmuterV2",
        "label": "_status",
        "offset": 0,
        "slot": "1",
        "type": "t_uint256"
      },
      {
        "astId": 22326,
        "contract": "submodules/v2-foundry/src/TransmuterV2.sol:TransmuterV2",
        "label": "__gap",
        "offset": 0,
        "slot": "2",
        "type": "t_array(t_uint256)49_storage"
      },
      {
        "astId": 23875,
        "contract": "submodules/v2-foundry/src/TransmuterV2.sol:TransmuterV2",
        "label": "__gap",
        "offset": 0,
        "slot": "51",
        "type": "t_array(t_uint256)50_storage"
      },
      {
        "astId": 24730,
        "contract": "submodules/v2-foundry/src/TransmuterV2.sol:TransmuterV2",
        "label": "__gap",
        "offset": 0,
        "slot": "101",
        "type": "t_array(t_uint256)50_storage"
      },
      {
        "astId": 21602,
        "contract": "submodules/v2-foundry/src/TransmuterV2.sol:TransmuterV2",
        "label": "_roles",
        "offset": 0,
        "slot": "151",
        "type": "t_mapping(t_bytes32,t_struct(RoleData)21597_storage)"
      },
      {
        "astId": 21897,
        "contract": "submodules/v2-foundry/src/TransmuterV2.sol:TransmuterV2",
        "label": "__gap",
        "offset": 0,
        "slot": "152",
        "type": "t_array(t_uint256)49_storage"
      },
      {
        "astId": 43847,
        "contract": "submodules/v2-foundry/src/TransmuterV2.sol:TransmuterV2",
        "label": "syntheticToken",
        "offset": 0,
        "slot": "201",
        "type": "t_address"
      },
      {
        "astId": 43851,
        "contract": "submodules/v2-foundry/src/TransmuterV2.sol:TransmuterV2",
        "label": "underlyingToken",
        "offset": 0,
        "slot": "202",
        "type": "t_address"
      },
      {
        "astId": 43854,
        "contract": "submodules/v2-foundry/src/TransmuterV2.sol:TransmuterV2",
        "label": "totalUnexchanged",
        "offset": 0,
        "slot": "203",
        "type": "t_uint256"
      },
      {
        "astId": 43857,
        "contract": "submodules/v2-foundry/src/TransmuterV2.sol:TransmuterV2",
        "label": "totalBuffered",
        "offset": 0,
        "slot": "204",
        "type": "t_uint256"
      },
      {
        "astId": 43863,
        "contract": "submodules/v2-foundry/src/TransmuterV2.sol:TransmuterV2",
        "label": "accounts",
        "offset": 0,
        "slot": "205",
        "type": "t_mapping(t_address,t_struct(Account)43771_storage)"
      },
      {
        "astId": 43866,
        "contract": "submodules/v2-foundry/src/TransmuterV2.sol:TransmuterV2",
        "label": "ticks",
        "offset": 0,
        "slot": "206",
        "type": "t_struct(Cache)60261_storage"
      },
      {
        "astId": 43868,
        "contract": "submodules/v2-foundry/src/TransmuterV2.sol:TransmuterV2",
        "label": "satisfiedTick",
        "offset": 0,
        "slot": "210",
        "type": "t_uint256"
      },
      {
        "astId": 43871,
        "contract": "submodules/v2-foundry/src/TransmuterV2.sol:TransmuterV2",
        "label": "isPaused",
        "offset": 0,
        "slot": "211",
        "type": "t_bool"
      },
      {
        "astId": 43874,
        "contract": "submodules/v2-foundry/src/TransmuterV2.sol:TransmuterV2",
        "label": "buffer",
        "offset": 1,
        "slot": "211",
        "type": "t_address"
      },
      {
        "astId": 43878,
        "contract": "submodules/v2-foundry/src/TransmuterV2.sol:TransmuterV2",
        "label": "whitelist",
        "offset": 0,
        "slot": "212",
        "type": "t_address"
      },
      {
        "astId": 43882,
        "contract": "submodules/v2-foundry/src/TransmuterV2.sol:TransmuterV2",
        "label": "conversionFactor",
        "offset": 0,
        "slot": "213",
        "type": "t_uint256"
      }
    ],
    "types": {
      "t_address": {
        "encoding": "inplace",
        "label": "address",
        "numberOfBytes": "20"
      },
      "t_array(t_uint256)49_storage": {
        "base": "t_uint256",
        "encoding": "inplace",
        "label": "uint256[49]",
        "numberOfBytes": "1568"
      },
      "t_array(t_uint256)50_storage": {
        "base": "t_uint256",
        "encoding": "inplace",
        "label": "uint256[50]",
        "numberOfBytes": "1600"
      },
      "t_bool": {
        "encoding": "inplace",
        "label": "bool",
        "numberOfBytes": "1"
      },
      "t_bytes32": {
        "encoding": "inplace",
        "label": "bytes32",
        "numberOfBytes": "32"
      },
      "t_mapping(t_address,t_bool)": {
        "encoding": "mapping",
        "key": "t_address",
        "label": "mapping(address => bool)",
        "numberOfBytes": "32",
        "value": "t_bool"
      },
      "t_mapping(t_address,t_struct(Account)43771_storage)": {
        "encoding": "mapping",
        "key": "t_address",
        "label": "mapping(address => struct TransmuterV2.Account)",
        "numberOfBytes": "32",
        "value": "t_struct(Account)43771_storage"
      },
      "t_mapping(t_bytes32,t_struct(RoleData)21597_storage)": {
        "encoding": "mapping",
        "key": "t_bytes32",
        "label": "mapping(bytes32 => struct AccessControlUpgradeable.RoleData)",
        "numberOfBytes": "32",
        "value": "t_struct(RoleData)21597_storage"
      },
      "t_mapping(t_uint256,t_struct(Info)60249_storage)": {
        "encoding": "mapping",
        "key": "t_uint256",
        "label": "mapping(uint256 => struct Tick.Info)",
        "numberOfBytes": "32",
        "value": "t_struct(Info)60249_storage"
      },
      "t_struct(Account)43771_storage": {
        "encoding": "inplace",
        "label": "struct TransmuterV2.Account",
        "members": [
          {
            "astId": 43766,
            "contract": "submodules/v2-foundry/src/TransmuterV2.sol:TransmuterV2",
            "label": "unexchangedBalance",
            "offset": 0,
            "slot": "0",
            "type": "t_uint256"
          },
          {
            "astId": 43768,
            "contract": "submodules/v2-foundry/src/TransmuterV2.sol:TransmuterV2",
            "label": "exchangedBalance",
            "offset": 0,
            "slot": "1",
            "type": "t_uint256"
          },
          {
            "astId": 43770,
            "contract": "submodules/v2-foundry/src/TransmuterV2.sol:TransmuterV2",
            "label": "occupiedTick",
            "offset": 0,
            "slot": "2",
            "type": "t_uint256"
          }
        ],
        "numberOfBytes": "96"
      },
      "t_struct(Cache)60261_storage": {
        "encoding": "inplace",
        "label": "struct Tick.Cache",
        "members": [
          {
            "astId": 60254,
            "contract": "submodules/v2-foundry/src/TransmuterV2.sol:TransmuterV2",
            "label": "values",
            "offset": 0,
            "slot": "0",
            "type": "t_mapping(t_uint256,t_struct(Info)60249_storage)"
          },
          {
            "astId": 60256,
            "contract": "submodules/v2-foundry/src/TransmuterV2.sol:TransmuterV2",
            "label": "position",
            "offset": 0,
            "slot": "1",
            "type": "t_uint256"
          },
          {
            "astId": 60258,
            "contract": "submodules/v2-foundry/src/TransmuterV2.sol:TransmuterV2",
            "label": "head",
            "offset": 0,
            "slot": "2",
            "type": "t_uint256"
          },
          {
            "astId": 60260,
            "contract": "submodules/v2-foundry/src/TransmuterV2.sol:TransmuterV2",
            "label": "tail",
            "offset": 0,
            "slot": "3",
            "type": "t_uint256"
          }
        ],
        "numberOfBytes": "128"
      },
      "t_struct(Info)60249_storage": {
        "encoding": "inplace",
        "label": "struct Tick.Info",
        "members": [
          {
            "astId": 60241,
            "contract": "submodules/v2-foundry/src/TransmuterV2.sol:TransmuterV2",
            "label": "totalBalance",
            "offset": 0,
            "slot": "0",
            "type": "t_uint256"
          },
          {
            "astId": 60244,
            "contract": "submodules/v2-foundry/src/TransmuterV2.sol:TransmuterV2",
            "label": "accumulatedWeight",
            "offset": 0,
            "slot": "1",
            "type": "t_struct(Number)58873_storage"
          },
          {
            "astId": 60246,
            "contract": "submodules/v2-foundry/src/TransmuterV2.sol:TransmuterV2",
            "label": "prev",
            "offset": 0,
            "slot": "2",
            "type": "t_uint256"
          },
          {
            "astId": 60248,
            "contract": "submodules/v2-foundry/src/TransmuterV2.sol:TransmuterV2",
            "label": "next",
            "offset": 0,
            "slot": "3",
            "type": "t_uint256"
          }
        ],
        "numberOfBytes": "128"
      },
      "t_struct(Number)58873_storage": {
        "encoding": "inplace",
        "label": "struct FixedPointMath.Number",
        "members": [
          {
            "astId": 58872,
            "contract": "submodules/v2-foundry/src/TransmuterV2.sol:TransmuterV2",
            "label": "n",
            "offset": 0,
            "slot": "0",
            "type": "t_uint256"
          }
        ],
        "numberOfBytes": "32"
      },
      "t_struct(RoleData)21597_storage": {
        "encoding": "inplace",
        "label": "struct AccessControlUpgradeable.RoleData",
        "members": [
          {
            "astId": 21594,
            "contract": "submodules/v2-foundry/src/TransmuterV2.sol:TransmuterV2",
            "label": "members",
            "offset": 0,
            "slot": "0",
            "type": "t_mapping(t_address,t_bool)"
          },
          {
            "astId": 21596,
            "contract": "submodules/v2-foundry/src/TransmuterV2.sol:TransmuterV2",
            "label": "adminRole",
            "offset": 0,
            "slot": "1",
            "type": "t_bytes32"
          }
        ],
        "numberOfBytes": "64"
      },
      "t_uint256": {
        "encoding": "inplace",
        "label": "uint256",
        "numberOfBytes": "32"
      },
      "t_uint8": {
        "encoding": "inplace",
        "label": "uint8",
        "numberOfBytes": "1"
      }
    }
  }
}