{
  "address": "0xEFc8a5A82D09D1068d26Ad57E2F57c0037C4f20f",
  "abi": [
    {
      "inputs": [
        {
          "internalType": "address",
          "name": "_token",
          "type": "address"
        },
        {
          "internalType": "address",
          "name": "_source",
          "type": "address"
        },
        {
          "internalType": "address",
          "name": "_sink",
          "type": "address"
        }
      ],
      "stateMutability": "nonpayable",
      "type": "constructor"
    },
    {
      "inputs": [],
      "name": "Unauthorized",
      "type": "error"
    },
    {
      "inputs": [
        {
          "internalType": "address",
          "name": "origin",
          "type": "address"
        },
        {
          "internalType": "uint256",
          "name": "amount",
          "type": "uint256"
        }
      ],
      "name": "distribute",
      "outputs": [],
      "stateMutability": "nonpayable",
      "type": "function"
    },
    {
      "inputs": [],
      "name": "sinkTransmuter",
      "outputs": [
        {
          "internalType": "address",
          "name": "",
          "type": "address"
        }
      ],
      "stateMutability": "view",
      "type": "function"
    },
    {
      "inputs": [],
      "name": "sourceTransmuter",
      "outputs": [
        {
          "internalType": "address",
          "name": "",
          "type": "address"
        }
      ],
      "stateMutability": "view",
      "type": "function"
    },
    {
      "inputs": [],
      "name": "token",
      "outputs": [
        {
          "internalType": "address",
          "name": "",
          "type": "address"
        }
      ],
      "stateMutability": "view",
      "type": "function"
    }
  ],
  "transactionHash": "0x5b6002509df85b3dfb1280dfb59bb68418005607c2115939607588066b62d17e",
  "args": [
    "0xC02aaA39b223FE8D0A0e5C4F27eAD9083C756Cc2",
    "0x9FD9946E526357B35D95Bcb4b388614be4cFd4AC",
    "0xe761bf731a06fe8259fee05897b2687d56933110"
  ],
  "solcInputHash": "3a57acaa787d24181a55c237d1aa0616",
  "bytecode": "0x608060405234801561001057600080fd5b5060405161061038038061061083398101604081905261002f9161008d565b600080546001600160a01b039485166001600160a01b0319918216179091556001805493851693821693909317909255600280549190931691161790556100d0565b80516001600160a01b038116811461008857600080fd5b919050565b6000806000606084860312156100a257600080fd5b6100ab84610071565b92506100b960208501610071565b91506100c760408501610071565b90509250925092565b610531806100df6000396000f3fe608060405234801561001057600080fd5b506004361061004c5760003560e01c80637a50df68146100515780639f047a9e14610080578063fb93210814610093578063fc0c546a146100a8575b600080fd5b600154610064906001600160a01b031681565b6040516001600160a01b03909116815260200160405180910390f35b600254610064906001600160a01b031681565b6100a66100a1366004610426565b6100bb565b005b600054610064906001600160a01b031681565b6001546001600160a01b031633146100e5576040516282b42960e81b815260040160405180910390fd5b600254600054610104916001600160a01b039182169185911684610170565b60025460005460405163bc04f0af60e01b81526001600160a01b0391821660048201526024810184905291169063bc04f0af90604401600060405180830381600087803b15801561015457600080fd5b505af1158015610168573d6000803e3d6000fd5b505050505050565b604080516001600160a01b0385811660248301528416604482015260648082018490528251808303909101815260849091019091526020810180516001600160e01b03166323b872dd60e01b1790526101ca9085906101d0565b50505050565b6000610225826040518060400160405280602081526020017f5361666545524332303a206c6f772d6c6576656c2063616c6c206661696c6564815250856001600160a01b03166102ac9092919063ffffffff16565b8051909150156102a75780806020019051810190610243919061045e565b6102a75760405162461bcd60e51b815260206004820152602a60248201527f5361666545524332303a204552433230206f7065726174696f6e20646964206e6044820152691bdd081cdd58d8d9595960b21b60648201526084015b60405180910390fd5b505050565b60606102bb84846000856102c5565b90505b9392505050565b6060824710156103265760405162461bcd60e51b815260206004820152602660248201527f416464726573733a20696e73756666696369656e742062616c616e636520666f6044820152651c8818d85b1b60d21b606482015260840161029e565b843b6103745760405162461bcd60e51b815260206004820152601d60248201527f416464726573733a2063616c6c20746f206e6f6e2d636f6e7472616374000000604482015260640161029e565b600080866001600160a01b0316858760405161039091906104ac565b60006040518083038185875af1925050503d80600081146103cd576040519150601f19603f3d011682016040523d82523d6000602084013e6103d2565b606091505b50915091506103e28282866103ed565b979650505050505050565b606083156103fc5750816102be565b82511561040c5782518084602001fd5b8160405162461bcd60e51b815260040161029e91906104c8565b6000806040838503121561043957600080fd5b82356001600160a01b038116811461045057600080fd5b946020939093013593505050565b60006020828403121561047057600080fd5b815180151581146102be57600080fd5b60005b8381101561049b578181015183820152602001610483565b838111156101ca5750506000910152565b600082516104be818460208701610480565b9190910192915050565b60208152600082518060208401526104e7816040850160208701610480565b601f01601f1916919091016040019291505056fea26469706673582212202e368b6772794e1530fa05318b88c5d827907c141066a86cdb7ddf4f795a4f8a64736f6c634300080b0033",
  "devdoc": {
    "kind": "dev",
    "methods": {},
    "version": 1
  },
  "userdoc": {
    "errors": {
      "Unauthorized()": [
        {
          "notice": "An error used to indicate that an action could not be completed because either the `msg.sender` or         `msg.origin` is not authorized."
        }
      ]
    },
    "kind": "user",
    "methods": {
      "sinkTransmuter()": {
        "notice": "The address of the transmuter to send funds to;."
      },
      "sourceTransmuter()": {
        "notice": "The address of the transmuter to pull funds from."
      },
      "token()": {
        "notice": "The address of the underlying token that is being transmuted."
      }
    },
    "version": 1
  },
  "storageLayout": {
    "storage": [
      {
        "astId": 13547,
        "contract": "contracts/TransmuterConduit.sol:TransmuterConduit",
        "label": "token",
        "offset": 0,
        "slot": "0",
        "type": "t_address"
      },
      {
        "astId": 13550,
        "contract": "contracts/TransmuterConduit.sol:TransmuterConduit",
        "label": "sourceTransmuter",
        "offset": 0,
        "slot": "1",
        "type": "t_address"
      },
      {
        "astId": 13553,
        "contract": "contracts/TransmuterConduit.sol:TransmuterConduit",
        "label": "sinkTransmuter",
        "offset": 0,
        "slot": "2",
        "type": "t_address"
      }
    ],
    "types": {
      "t_address": {
        "encoding": "inplace",
        "label": "address",
        "numberOfBytes": "20"
      }
    }
  }
}