{
  "address": "0xA5E6C96B5b4A3ab7454a2aC4013B61a408429268",
  "abi": [
    {
      "inputs": [
        {
          "components": [
            {
              "internalType": "address",
              "name": "alchemist",
              "type": "address"
            },
            {
              "internalType": "address[]",
              "name": "collateralAddresses",
              "type": "address[]"
            }
          ],
          "internalType": "struct InitializationParams",
          "name": "params",
          "type": "tuple"
        }
      ],
      "stateMutability": "nonpayable",
      "type": "constructor"
    },
    {
      "inputs": [
        {
          "internalType": "address",
          "name": "target",
          "type": "address"
        },
        {
          "internalType": "bool",
          "name": "success",
          "type": "bool"
        },
        {
          "internalType": "bytes",
          "name": "data",
          "type": "bytes"
        }
      ],
      "name": "ERC20CallFailed",
      "type": "error"
    },
    {
      "inputs": [
        {
          "internalType": "string",
          "name": "message",
          "type": "string"
        }
      ],
      "name": "IllegalArgument",
      "type": "error"
    },
    {
      "inputs": [],
      "name": "IllegalArgument",
      "type": "error"
    },
    {
      "inputs": [
        {
          "internalType": "string",
          "name": "message",
          "type": "string"
        }
      ],
      "name": "IllegalState",
      "type": "error"
    },
    {
      "inputs": [
        {
          "internalType": "bytes",
          "name": "data",
          "type": "bytes"
        },
        {
          "internalType": "bytes",
          "name": "result",
          "type": "bytes"
        }
      ],
      "name": "MulticallFailed",
      "type": "error"
    },
    {
      "anonymous": false,
      "inputs": [
        {
          "indexed": false,
          "internalType": "address",
          "name": "",
          "type": "address"
        },
        {
          "indexed": false,
          "internalType": "uint256",
          "name": "",
          "type": "uint256"
        }
      ],
      "name": "Received",
      "type": "event"
    },
    {
      "inputs": [],
      "name": "FIXED_POINT_SCALAR",
      "outputs": [
        {
          "internalType": "uint256",
          "name": "",
          "type": "uint256"
        }
      ],
      "stateMutability": "view",
      "type": "function"
    },
    {
      "inputs": [],
      "name": "alchemicToken",
      "outputs": [
        {
          "internalType": "contract IAlchemicToken",
          "name": "",
          "type": "address"
        }
      ],
      "stateMutability": "view",
      "type": "function"
    },
    {
      "inputs": [],
      "name": "alchemist",
      "outputs": [
        {
          "internalType": "contract IAlchemistV2",
          "name": "",
          "type": "address"
        }
      ],
      "stateMutability": "view",
      "type": "function"
    },
    {
      "inputs": [
        {
          "internalType": "uint256",
          "name": "",
          "type": "uint256"
        }
      ],
      "name": "collateralAddresses",
      "outputs": [
        {
          "internalType": "address",
          "name": "",
          "type": "address"
        }
      ],
      "stateMutability": "view",
      "type": "function"
    },
    {
      "inputs": [
        {
          "internalType": "address",
          "name": "",
          "type": "address"
        }
      ],
      "name": "decimals",
      "outputs": [
        {
          "internalType": "uint256",
          "name": "",
          "type": "uint256"
        }
      ],
      "stateMutability": "view",
      "type": "function"
    },
    {
      "inputs": [
        {
          "internalType": "address",
          "name": "startingYieldToken",
          "type": "address"
        },
        {
          "internalType": "address",
          "name": "targetYieldToken",
          "type": "address"
        },
        {
          "internalType": "uint256",
          "name": "shares",
          "type": "uint256"
        },
        {
          "internalType": "uint256",
          "name": "minReturnShares",
          "type": "uint256"
        },
        {
          "internalType": "uint256",
          "name": "minReturnUnderlying",
          "type": "uint256"
        }
      ],
      "name": "migrateVaults",
      "outputs": [
        {
          "internalType": "uint256",
          "name": "",
          "type": "uint256"
        }
      ],
      "stateMutability": "nonpayable",
      "type": "function"
    },
    {
      "inputs": [
        {
          "internalType": "bytes[]",
          "name": "data",
          "type": "bytes[]"
        }
      ],
      "name": "multicall",
      "outputs": [
        {
          "internalType": "bytes[]",
          "name": "results",
          "type": "bytes[]"
        }
      ],
      "stateMutability": "payable",
      "type": "function"
    },
    {
      "inputs": [
        {
          "internalType": "address",
          "name": "account",
          "type": "address"
        },
        {
          "internalType": "address",
          "name": "startingYieldToken",
          "type": "address"
        },
        {
          "internalType": "address",
          "name": "targetYieldToken",
          "type": "address"
        },
        {
          "internalType": "uint256",
          "name": "shares",
          "type": "uint256"
        }
      ],
      "name": "previewMigration",
      "outputs": [
        {
          "internalType": "bool",
          "name": "",
          "type": "bool"
        },
        {
          "internalType": "uint256",
          "name": "",
          "type": "uint256"
        }
      ],
      "stateMutability": "view",
      "type": "function"
    },
    {
      "inputs": [],
      "name": "version",
      "outputs": [
        {
          "internalType": "string",
          "name": "",
          "type": "string"
        }
      ],
      "stateMutability": "view",
      "type": "function"
    }
  ],
  "transactionHash": "0x7ecb71069d2ce96afd894bbc09582c378f46385534a89fcf1fd25cb5a48a1778",
  "args": [
    {
      "alchemist": "0x062Bf725dC4cDF947aa79Ca2aaCCD4F385b13b5c",
      "collateralAddresses": [
        "0xC02aaA39b223FE8D0A0e5C4F27eAD9083C756Cc2"
      ]
    }
  ],
  "solcInputHash": "8b0448e17b7c9e6852dee54b8c14ccd9",
  "bytecode": "0x610120604052600560e081905264312e302e3160d81b6101009081526200002a9160009190620002b4565b50670de0b6b3a76400006080523480156200004457600080fd5b506040516200254738038062002547833981016040819052620000679162000443565b6020808201515182516001600160a01b031660a081905260408051631f1b131360e31b815290519293919263f8d89898926004808401939192918290030181865afa158015620000bb573d6000803e3d6000fd5b505050506040513d601f19601f82011682018060405250810190620000e1919062000541565b6001600160a01b031660c05260208083015180516200010592600292019062000343565b5060005b81811015620001a95762000152600282815481106200012c576200012c62000566565b600091825260209182902001546001600160a01b0316906200123b620001b2821b17901c565b60ff1660016000600284815481106200016f576200016f62000566565b60009182526020808320909101546001600160a01b0316835282019290925260400190205580620001a0816200057c565b91505062000109565b505050620006a3565b60408051600481526024810182526020810180516001600160e01b031663313ce56760e01b1790529051600091829182916001600160a01b03861691620001fa9190620005d7565b600060405180830381855afa9150503d806000811462000237576040519150601f19603f3d011682016040523d82523d6000602084013e6200023c565b606091505b5091509150836001600160a01b03163b6000148062000259575081155b8062000266575060208151105b15620002965783828260405163e7e40b5b60e01b81526004016200028d93929190620005f5565b60405180910390fd5b80806020019051810190620002ac919062000642565b949350505050565b828054620002c29062000667565b90600052602060002090601f016020900481019282620002e6576000855562000331565b82601f106200030157805160ff191683800117855562000331565b8280016001018555821562000331579182015b828111156200033157825182559160200191906001019062000314565b506200033f9291506200039b565b5090565b82805482825590600052602060002090810192821562000331579160200282015b828111156200033157825182546001600160a01b0319166001600160a01b0390911617825560209092019160019091019062000364565b5b808211156200033f57600081556001016200039c565b634e487b7160e01b600052604160045260246000fd5b604080519081016001600160401b0381118282101715620003ed57620003ed620003b2565b60405290565b604051601f8201601f191681016001600160401b03811182821017156200041e576200041e620003b2565b604052919050565b80516001600160a01b03811681146200043e57600080fd5b919050565b600060208083850312156200045757600080fd5b82516001600160401b03808211156200046f57600080fd5b90840190604082870312156200048457600080fd5b6200048e620003c8565b620004998362000426565b81528383015182811115620004ad57600080fd5b80840193505086601f840112620004c357600080fd5b825182811115620004d857620004d8620003b2565b8060051b9250620004eb858401620003f3565b81815292840185019285810190898511156200050657600080fd5b948601945b848610156200052f576200051f8662000426565b825294860194908601906200050b565b95830195909552509695505050505050565b6000602082840312156200055457600080fd5b6200055f8262000426565b9392505050565b634e487b7160e01b600052603260045260246000fd5b6000600182016200059d57634e487b7160e01b600052601160045260246000fd5b5060010190565b60005b83811015620005c1578181015183820152602001620005a7565b83811115620005d1576000848401525b50505050565b60008251620005eb818460208701620005a4565b9190910192915050565b60018060a01b0384168152821515602082015260606040820152600082518060608401526200062c816080850160208701620005a4565b601f01601f191691909101608001949350505050565b6000602082840312156200065557600080fd5b815160ff811681146200055f57600080fd5b600181811c908216806200067c57607f821691505b6020821081036200069d57634e487b7160e01b600052602260045260246000fd5b50919050565b60805160a05160c051611dd462000773600039600081816101bf01528181610983015281816109ec0152610d9c01526000818161013e015281816104d1015281816105a8015281816106820152818161071501528181610817015281816108b001528181610a0d01528181610a4e01528181610b0101528181610b7c01528181610bd701528181610c6901528181610ced01528181610ea101528181610f3401528181610fd70152818161107b0152818161119e01526113c901526000818160da01526109350152611dd46000f3fe6080604052600436106100865760003560e01c8063ac9650d811610059578063ac9650d814610160578063d449a83214610180578063e278f284146101ad578063ea32f347146101e1578063f6a81ed41461020157600080fd5b8063172f68ad1461008b57806317931901146100c857806354fd4d501461010a5780638de925f61461012c575b600080fd5b34801561009757600080fd5b506100ab6100a63660046115c0565b610238565b6040516001600160a01b0390911681526020015b60405180910390f35b3480156100d457600080fd5b506100fc7f000000000000000000000000000000000000000000000000000000000000000081565b6040519081526020016100bf565b34801561011657600080fd5b5061011f610262565b6040516100bf9190611635565b34801561013857600080fd5b506100ab7f000000000000000000000000000000000000000000000000000000000000000081565b61017361016e36600461164f565b6102f0565b6040516100bf91906116c4565b34801561018c57600080fd5b506100fc61019b36600461173e565b60016020526000908152604090205481565b3480156101b957600080fd5b506100ab7f000000000000000000000000000000000000000000000000000000000000000081565b3480156101ed57600080fd5b506100fc6101fc36600461175b565b61044e565b34801561020d57600080fd5b5061022161021c3660046117ac565b610e7b565b6040805192151583526020830191909152016100bf565b6002818154811061024857600080fd5b6000918252602090912001546001600160a01b0316905081565b6000805461026f906117fd565b80601f016020809104026020016040519081016040528092919081815260200182805461029b906117fd565b80156102e85780601f106102bd576101008083540402835291602001916102e8565b820191906000526020600020905b8154815290600101906020018083116102cb57829003601f168201915b505050505081565b60608167ffffffffffffffff81111561030b5761030b611837565b60405190808252806020026020018201604052801561033e57816020015b60608152602001906001900390816103295790505b50905060005b8281101561044757600080308686858181106103625761036261184d565b90506020028101906103749190611863565b6040516103829291906118b1565b600060405180830381855af49150503d80600081146103bd576040519150601f19603f3d011682016040523d82523d6000602084013e6103c2565b606091505b509150915081610416578585848181106103de576103de61184d565b90506020028101906103f09190611863565b8260405163070c497560e21b815260040161040d939291906118c1565b60405180910390fd5b808484815181106104295761042961184d565b60200260200101819052505050806104409061191f565b9050610344565b5092915050565b6000846001600160a01b0316866001600160a01b0316036104b2576040516354a1577760e11b815260206004820152601f60248201527f5969656c6420746f6b656e732063616e6e6f74206265207468652073616d6500604482015260640161040d565b60405163a96cb06960e01b81526001600160a01b0387811660048301527f0000000000000000000000000000000000000000000000000000000000000000169063a96cb06990602401602060405180830381865afa158015610518573d6000803e3d6000fd5b505050506040513d601f19601f8201168201806040525081019061053c919061194d565b610589576040516354a1577760e11b815260206004820152601c60248201527f5969656c6420746f6b656e206973206e6f7420737570706f7274656400000000604482015260640161040d565b60405163a96cb06960e01b81526001600160a01b0386811660048301527f0000000000000000000000000000000000000000000000000000000000000000169063a96cb06990602401602060405180830381865afa1580156105ef573d6000803e3d6000fd5b505050506040513d601f19601f82011682018060405250810190610613919061194d565b610660576040516354a1577760e11b815260206004820152601c60248201527f5969656c6420746f6b656e206973206e6f7420737570706f7274656400000000604482015260640161040d565b604051635a5efc8b60e01b81526001600160a01b0387811660048301526000917f000000000000000000000000000000000000000000000000000000000000000090911690635a5efc8b906024016101e060405180830381865afa1580156106cc573d6000803e3d6000fd5b505050506040513d601f19601f820116820180604052508101906106f091906119df565b604051635a5efc8b60e01b81526001600160a01b0388811660048301529192506000917f00000000000000000000000000000000000000000000000000000000000000001690635a5efc8b906024016101e060405180830381865afa15801561075d573d6000803e3d6000fd5b505050506040513d601f19601f8201168201806040525081019061078191906119df565b905080602001516001600160a01b031682602001516001600160a01b0316146107ff576040516354a1577760e11b815260206004820152602960248201527f43616e6e6f742073776170206265747765656e20646966666572656e7420636f6044820152686c6c61746572616c7360b81b606482015260840161040d565b604051632f2e037160e11b81523360048201526000907f00000000000000000000000000000000000000000000000000000000000000006001600160a01b031690635e5c06e290602401600060405180830381865afa158015610866573d6000803e3d6000fd5b505050506040513d6000823e601f3d908101601f1916820160405261088e9190810190611ab4565b5090506000806000831315610ac5576108ac898c8760200151611329565b91507f00000000000000000000000000000000000000000000000000000000000000006001600160a01b031663e8b6571b6040518163ffffffff1660e01b8152600401602060405180830381865afa15801561090c573d6000803e3d6000fd5b505050506040513d601f19601f820116820180604052508101906109309190611b72565b61095a7f000000000000000000000000000000000000000000000000000000000000000084611b8b565b6109649190611baa565b6040516340c10f1960e01b8152306004820152602481018290529091507f00000000000000000000000000000000000000000000000000000000000000006001600160a01b0316906340c10f1990604401600060405180830381600087803b1580156109cf57600080fd5b505af11580156109e3573d6000803e3d6000fd5b50505050610a327f00000000000000000000000000000000000000000000000000000000000000007f00000000000000000000000000000000000000000000000000000000000000008361148d565b604051633f34d4cf60e21b8152600481018290523360248201527f00000000000000000000000000000000000000000000000000000000000000006001600160a01b03169063fcd3533c906044016020604051808303816000875af1158015610a9f573d6000803e3d6000fd5b505050506040513d601f19601f82011682018060405250810190610ac39190611b72565b505b604051632e5a3b8f60e21b81523360048201526001600160a01b038c81166024830152604482018b9052306064830152608482018990526000917f00000000000000000000000000000000000000000000000000000000000000009091169063b968ee3c9060a4016020604051808303816000875af1158015610b4c573d6000803e3d6000fd5b505050506040513d601f19601f82011682018060405250810190610b709190611b72565b9050610ba185602001517f00000000000000000000000000000000000000000000000000000000000000008361148d565b604051635efd4dd760e11b81526001600160a01b038c8116600483015260248201839052336044830152606482018b90526000917f00000000000000000000000000000000000000000000000000000000000000009091169063bdfa9bae906084016020604051808303816000875af1158015610c22573d6000803e3d6000fd5b505050506040513d601f19601f82011682018060405250810190610c469190611b72565b90506000851315610e6b57604051632f2e037160e11b81523360048201526000907f00000000000000000000000000000000000000000000000000000000000000006001600160a01b031690635e5c06e290602401600060405180830381865afa158015610cb8573d6000803e3d6000fd5b505050506040513d6000823e601f3d908101601f19168201604052610ce09190810190611ab4565b5090506001600160a01b037f0000000000000000000000000000000000000000000000000000000000000000166351044b8e33610d25610d20858b611bcc565b611599565b6040516001600160e01b031960e085901b1681526001600160a01b0390921660048301526024820152306044820152606401600060405180830381600087803b158015610d7157600080fd5b505af1158015610d85573d6000803e3d6000fd5b50506040516370a0823160e01b81523060048201527f00000000000000000000000000000000000000000000000000000000000000006001600160a01b031692506342966c68915082906370a0823190602401602060405180830381865afa158015610df5573d6000803e3d6000fd5b505050506040513d601f19601f82011682018060405250810190610e199190611b72565b6040518263ffffffff1660e01b8152600401610e3791815260200190565b600060405180830381600087803b158015610e5157600080fd5b505af1158015610e65573d6000803e3d6000fd5b50505050505b9c9b505050505050505050505050565b604051635a5efc8b60e01b81526001600160a01b038481166004830152600091829182917f000000000000000000000000000000000000000000000000000000000000000090911690635a5efc8b906024016101e060405180830381865afa158015610eeb573d6000803e3d6000fd5b505050506040513d601f19601f82011682018060405250810190610f0f91906119df565b604051635a5efc8b60e01b81526001600160a01b0387811660048301529192506000917f00000000000000000000000000000000000000000000000000000000000000001690635a5efc8b906024016101e060405180830381865afa158015610f7c573d6000803e3d6000fd5b505050506040513d601f19601f82011682018060405250810190610fa091906119df565b90506000610fad8861123b565b610fb890600a611cf1565b60405163447378ad60e11b81526001600160a01b038a811660048301527f000000000000000000000000000000000000000000000000000000000000000016906388e6f15a90602401602060405180830381865afa15801561101e573d6000803e3d6000fd5b505050506040513d601f19601f820116820180604052508101906110429190611b72565b61104c9088611b8b565b6110569190611baa565b60405163447378ad60e11b81526001600160a01b0389811660048301529192506000917f000000000000000000000000000000000000000000000000000000000000000016906388e6f15a90602401602060405180830381865afa1580156110c2573d6000803e3d6000fd5b505050506040513d601f19601f820116820180604052508101906110e69190611b72565b6110ef8961123b565b6110fa90600a611cf1565b6111049084611b8b565b61110e9190611baa565b90506000611121888b8760200151611329565b90506000611134838b8760200151611329565b90508460800151838660c0015161114b9190611d00565b1115611164576000600197509750505050505050611232565b818110801561120b57506111788183611d18565b6040516307e3a3af60e01b81526001600160a01b038e81166004830181905260248301527f000000000000000000000000000000000000000000000000000000000000000016906307e3a3af90604401602060405180830381865afa1580156111e5573d6000803e3d6000fd5b505050506040513d601f19601f820116820180604052508101906112099190611b72565b105b15611223576000600297509750505050505050611232565b60016000975097505050505050505b94509492505050565b60408051600481526024810182526020810180516001600160e01b031663313ce56760e01b1790529051600091829182916001600160a01b038616916112819190611d2f565b600060405180830381855afa9150503d80600081146112bc576040519150601f19603f3d011682016040523d82523d6000602084013e6112c1565b606091505b5091509150836001600160a01b03163b600014806112dd575081155b806112e9575060208151105b1561130d5783828260405163e7e40b5b60e01b815260040161040d93929190611d4b565b808060200190518101906113219190611d77565b949350505050565b600060126113368361123b565b60ff1611156113945760405163c50656df60e01b8152602060048201526024808201527f556e6465726c79696e6720746f6b656e20646563696d616c73206578636565646044820152630e64062760e31b606482015260840161040d565b600061139f8461123b565b6113aa90600a611cf1565b60405163447378ad60e11b81526001600160a01b0386811660048301527f000000000000000000000000000000000000000000000000000000000000000016906388e6f15a90602401602060405180830381865afa158015611410573d6000803e3d6000fd5b505050506040513d601f19601f820116820180604052508101906114349190611b72565b61143e9087611b8b565b6114489190611baa565b6001600160a01b03841660009081526001602052604090205490915061146f906012611d18565b61147a90600a611d92565b6114849082611b8b565b95945050505050565b604080516001600160a01b038481166024830152604480830185905283518084039091018152606490920183526020820180516001600160e01b031663095ea7b360e01b17905291516000928392908716916114e99190611d2f565b6000604051808303816000865af19150503d8060008114611526576040519150601f19603f3d011682016040523d82523d6000602084013e61152b565b606091505b5091509150846001600160a01b03163b60001480611547575081155b8061156e575080511580159061156e57508080602001905181019061156c919061194d565b155b156115925784828260405163e7e40b5b60e01b815260040161040d93929190611d4b565b5050505050565b6000808212156115bc57604051630134249960e71b815260040160405180910390fd5b5090565b6000602082840312156115d257600080fd5b5035919050565b60005b838110156115f45781810151838201526020016115dc565b83811115611603576000848401525b50505050565b600081518084526116218160208601602086016115d9565b601f01601f19169290920160200192915050565b6020815260006116486020830184611609565b9392505050565b6000806020838503121561166257600080fd5b823567ffffffffffffffff8082111561167a57600080fd5b818501915085601f83011261168e57600080fd5b81358181111561169d57600080fd5b8660208260051b85010111156116b257600080fd5b60209290920196919550909350505050565b6000602080830181845280855180835260408601915060408160051b870101925083870160005b8281101561171957603f19888603018452611707858351611609565b945092850192908501906001016116eb565b5092979650505050505050565b6001600160a01b038116811461173b57600080fd5b50565b60006020828403121561175057600080fd5b813561164881611726565b600080600080600060a0868803121561177357600080fd5b853561177e81611726565b9450602086013561178e81611726565b94979496505050506040830135926060810135926080909101359150565b600080600080608085870312156117c257600080fd5b84356117cd81611726565b935060208501356117dd81611726565b925060408501356117ed81611726565b9396929550929360600135925050565b600181811c9082168061181157607f821691505b60208210810361183157634e487b7160e01b600052602260045260246000fd5b50919050565b634e487b7160e01b600052604160045260246000fd5b634e487b7160e01b600052603260045260246000fd5b6000808335601e1984360301811261187a57600080fd5b83018035915067ffffffffffffffff82111561189557600080fd5b6020019150368190038213156118aa57600080fd5b9250929050565b8183823760009101908152919050565b60408152826040820152828460608301376000606084830101526000601f19601f850116820160608382030160208401526118ff6060820185611609565b9695505050505050565b634e487b7160e01b600052601160045260246000fd5b60006001820161193157611931611909565b5060010190565b8051801515811461194857600080fd5b919050565b60006020828403121561195f57600080fd5b61164882611938565b6040516101e0810167ffffffffffffffff8111828210171561198c5761198c611837565b60405290565b604051601f8201601f1916810167ffffffffffffffff811182821017156119bb576119bb611837565b604052919050565b805160ff8116811461194857600080fd5b805161194881611726565b60006101e082840312156119f257600080fd5b6119fa611968565b611a03836119c3565b8152611a11602084016119d4565b6020820152611a22604084016119d4565b6040820152606083810151908201526080808401519082015260a0808401519082015260c0808401519082015260e08084015190820152610100808401519082015261012080840151908201526101408084015190820152610160808401519082015261018080840151908201526101a080840151908201526101c0611aa9818501611938565b908201529392505050565b60008060408385031215611ac757600080fd5b8251915060208084015167ffffffffffffffff80821115611ae757600080fd5b818601915086601f830112611afb57600080fd5b815181811115611b0d57611b0d611837565b8060051b9150611b1e848301611992565b8181529183018401918481019089841115611b3857600080fd5b938501935b83851015611b625784519250611b5283611726565b8282529385019390850190611b3d565b8096505050505050509250929050565b600060208284031215611b8457600080fd5b5051919050565b6000816000190483118215151615611ba557611ba5611909565b500290565b600082611bc757634e487b7160e01b600052601260045260246000fd5b500490565b60008083128015600160ff1b850184121615611bea57611bea611909565b6001600160ff1b0384018313811615611c0557611c05611909565b50500390565b600181815b80851115611c46578160001904821115611c2c57611c2c611909565b80851615611c3957918102915b93841c9390800290611c10565b509250929050565b600082611c5d57506001611ceb565b81611c6a57506000611ceb565b8160018114611c805760028114611c8a57611ca6565b6001915050611ceb565b60ff841115611c9b57611c9b611909565b50506001821b611ceb565b5060208310610133831016604e8410600b8410161715611cc9575081810a611ceb565b611cd38383611c0b565b8060001904821115611ce757611ce7611909565b0290505b92915050565b600061164860ff841683611c4e565b60008219821115611d1357611d13611909565b500190565b600082821015611d2a57611d2a611909565b500390565b60008251611d418184602087016115d9565b9190910192915050565b6001600160a01b0384168152821515602082015260606040820181905260009061148490830184611609565b600060208284031215611d8957600080fd5b611648826119c3565b60006116488383611c4e56fea26469706673582212208f94d45a4333b27133b3e64a0e7ef788f93087e951098f9b781349559c065f2064736f6c634300080d0033",
  "devdoc": {
    "errors": {
      "ERC20CallFailed(address,bool,bytes)": [
        {
          "params": {
            "data": "The resulting data from the call. This is error data when the call was not a success. Otherwise,                this is malformed data when the call was a success.",
            "success": "If the call to the token was a success.",
            "target": "The target address."
          }
        }
      ],
      "IllegalArgument(string)": [
        {
          "params": {
            "message": "The error message."
          }
        }
      ],
      "IllegalState(string)": [
        {
          "params": {
            "message": "The error message."
          }
        }
      ]
    },
    "kind": "dev",
    "methods": {
      "migrateVaults(address,address,uint256,uint256,uint256)": {
        "params": {
          "minReturnShares": "The maximum shares of slippage that the user will accept on new position.",
          "minReturnUnderlying": "The minimum underlying value when withdrawing from old position.",
          "shares": "The shares of tokens to migrate.",
          "startingYieldToken": "The yield token from which the user wants to withdraw.",
          "targetYieldToken": "The yield token that the user wishes to create a new position in."
        },
        "returns": {
          "_0": "        The underlying Value of the new position."
        }
      },
      "previewMigration(address,address,address,uint256)": {
        "params": {
          "account": "The account to migrate.",
          "shares": "The shares to migrate.",
          "startingYieldToken": "The starting vault.",
          "targetYieldToken": "The target vault."
        },
        "returns": {
          "_0": "             If the migration will be succesful.",
          "_1": "                  The specific reason the migration will fail, represented as a number."
        }
      }
    },
    "stateVariables": {
      "version": {
        "return": "The version.",
        "returns": {
          "_0": "The version."
        }
      }
    },
    "version": 1
  },
  "userdoc": {
    "errors": {
      "ERC20CallFailed(address,bool,bytes)": [
        {
          "notice": "An error used to indicate that a call to an ERC20 contract failed."
        }
      ],
      "IllegalArgument()": [
        {
          "notice": "An error used to indicate that an action could not be completed because of an illegal argument was passed         to the function."
        }
      ],
      "IllegalArgument(string)": [
        {
          "notice": "An error used to indicate that an argument passed to a function is illegal or         inappropriate."
        }
      ],
      "IllegalState(string)": [
        {
          "notice": "An error used to indicate that a function has encountered an unrecoverable state."
        }
      ]
    },
    "kind": "user",
    "methods": {
      "migrateVaults(address,address,uint256,uint256,uint256)": {
        "notice": "Migrates 'shares' from 'startingVault' to 'targetVault'."
      },
      "previewMigration(address,address,address,uint256)": {
        "notice": "Determines if a migration will be succesful before allowing a user to migrate."
      },
      "version()": {
        "notice": "Gets the current version."
      }
    },
    "version": 1
  },
  "storageLayout": {
    "storage": [
      {
        "astId": 64814,
        "contract": "submodules/v2-foundry/src/migration/MigrationTool.sol:MigrationTool",
        "label": "version",
        "offset": 0,
        "slot": "0",
        "type": "t_string_storage"
      },
      {
        "astId": 64821,
        "contract": "submodules/v2-foundry/src/migration/MigrationTool.sol:MigrationTool",
        "label": "decimals",
        "offset": 0,
        "slot": "1",
        "type": "t_mapping(t_address,t_uint256)"
      },
      {
        "astId": 64830,
        "contract": "submodules/v2-foundry/src/migration/MigrationTool.sol:MigrationTool",
        "label": "collateralAddresses",
        "offset": 0,
        "slot": "2",
        "type": "t_array(t_address)dyn_storage"
      }
    ],
    "types": {
      "t_address": {
        "encoding": "inplace",
        "label": "address",
        "numberOfBytes": "20"
      },
      "t_array(t_address)dyn_storage": {
        "base": "t_address",
        "encoding": "dynamic_array",
        "label": "address[]",
        "numberOfBytes": "32"
      },
      "t_mapping(t_address,t_uint256)": {
        "encoding": "mapping",
        "key": "t_address",
        "label": "mapping(address => uint256)",
        "numberOfBytes": "32",
        "value": "t_uint256"
      },
      "t_string_storage": {
        "encoding": "bytes",
        "label": "string",
        "numberOfBytes": "32"
      },
      "t_uint256": {
        "encoding": "inplace",
        "label": "uint256",
        "numberOfBytes": "32"
      }
    }
  }
}