{
  "address": "0x716DED68DBEC037da43EBd67E88Ba68aDB8F2d13",
  "abi": [
    {
      "inputs": [
        {
          "internalType": "address",
          "name": "_syntheticToken",
          "type": "address"
        },
        {
          "internalType": "contract IDetailedERC20",
          "name": "_underlyingToken",
          "type": "address"
        },
        {
          "internalType": "address",
          "name": "_buffer",
          "type": "address"
        }
      ],
      "stateMutability": "nonpayable",
      "type": "constructor"
    },
    {
      "inputs": [],
      "name": "NotWhitelisted",
      "type": "error"
    },
    {
      "inputs": [],
      "name": "Unauthorized",
      "type": "error"
    },
    {
      "inputs": [],
      "name": "UnauthorizedER",
      "type": "error"
    },
    {
      "anonymous": false,
      "inputs": [
        {
          "indexed": false,
          "internalType": "address",
          "name": "account",
          "type": "address"
        }
      ],
      "name": "AccountAdded",
      "type": "event"
    },
    {
      "anonymous": false,
      "inputs": [
        {
          "indexed": false,
          "internalType": "address",
          "name": "account",
          "type": "address"
        }
      ],
      "name": "AccountRemoved",
      "type": "event"
    },
    {
      "anonymous": false,
      "inputs": [
        {
          "indexed": false,
          "internalType": "address",
          "name": "admin",
          "type": "address"
        }
      ],
      "name": "AdminUpdated",
      "type": "event"
    },
    {
      "anonymous": false,
      "inputs": [
        {
          "indexed": false,
          "internalType": "bool",
          "name": "isPaused",
          "type": "bool"
        }
      ],
      "name": "PauseUpdated",
      "type": "event"
    },
    {
      "anonymous": false,
      "inputs": [
        {
          "indexed": false,
          "internalType": "address",
          "name": "pendingAdmin",
          "type": "address"
        }
      ],
      "name": "PendingAdminUpdated",
      "type": "event"
    },
    {
      "anonymous": false,
      "inputs": [
        {
          "indexed": true,
          "internalType": "bytes32",
          "name": "role",
          "type": "bytes32"
        },
        {
          "indexed": true,
          "internalType": "bytes32",
          "name": "previousAdminRole",
          "type": "bytes32"
        },
        {
          "indexed": true,
          "internalType": "bytes32",
          "name": "newAdminRole",
          "type": "bytes32"
        }
      ],
      "name": "RoleAdminChanged",
      "type": "event"
    },
    {
      "anonymous": false,
      "inputs": [
        {
          "indexed": true,
          "internalType": "bytes32",
          "name": "role",
          "type": "bytes32"
        },
        {
          "indexed": true,
          "internalType": "address",
          "name": "account",
          "type": "address"
        },
        {
          "indexed": true,
          "internalType": "address",
          "name": "sender",
          "type": "address"
        }
      ],
      "name": "RoleGranted",
      "type": "event"
    },
    {
      "anonymous": false,
      "inputs": [
        {
          "indexed": true,
          "internalType": "bytes32",
          "name": "role",
          "type": "bytes32"
        },
        {
          "indexed": true,
          "internalType": "address",
          "name": "account",
          "type": "address"
        },
        {
          "indexed": true,
          "internalType": "address",
          "name": "sender",
          "type": "address"
        }
      ],
      "name": "RoleRevoked",
      "type": "event"
    },
    {
      "anonymous": false,
      "inputs": [],
      "name": "WhitelistDisabled",
      "type": "event"
    },
    {
      "anonymous": false,
      "inputs": [],
      "name": "WhitelistEnabled",
      "type": "event"
    },
    {
      "inputs": [],
      "name": "ADMIN",
      "outputs": [
        {
          "internalType": "bytes32",
          "name": "",
          "type": "bytes32"
        }
      ],
      "stateMutability": "view",
      "type": "function"
    },
    {
      "inputs": [],
      "name": "DEFAULT_ADMIN_ROLE",
      "outputs": [
        {
          "internalType": "bytes32",
          "name": "",
          "type": "bytes32"
        }
      ],
      "stateMutability": "view",
      "type": "function"
    },
    {
      "inputs": [],
      "name": "SENTINEL",
      "outputs": [
        {
          "internalType": "bytes32",
          "name": "",
          "type": "bytes32"
        }
      ],
      "stateMutability": "view",
      "type": "function"
    },
    {
      "inputs": [],
      "name": "ZERO_ADDRESS",
      "outputs": [
        {
          "internalType": "address",
          "name": "",
          "type": "address"
        }
      ],
      "stateMutability": "view",
      "type": "function"
    },
    {
      "inputs": [],
      "name": "acceptAdmin",
      "outputs": [],
      "stateMutability": "nonpayable",
      "type": "function"
    },
    {
      "inputs": [
        {
          "internalType": "address",
          "name": "account",
          "type": "address"
        }
      ],
      "name": "addToWhitelist",
      "outputs": [],
      "stateMutability": "nonpayable",
      "type": "function"
    },
    {
      "inputs": [],
      "name": "admin",
      "outputs": [
        {
          "internalType": "address",
          "name": "",
          "type": "address"
        }
      ],
      "stateMutability": "view",
      "type": "function"
    },
    {
      "inputs": [],
      "name": "buffer",
      "outputs": [
        {
          "internalType": "address",
          "name": "",
          "type": "address"
        }
      ],
      "stateMutability": "view",
      "type": "function"
    },
    {
      "inputs": [
        {
          "internalType": "uint256",
          "name": "amount",
          "type": "uint256"
        },
        {
          "internalType": "address",
          "name": "recipient",
          "type": "address"
        }
      ],
      "name": "claim",
      "outputs": [],
      "stateMutability": "nonpayable",
      "type": "function"
    },
    {
      "inputs": [
        {
          "internalType": "uint256",
          "name": "amount",
          "type": "uint256"
        },
        {
          "internalType": "address",
          "name": "owner",
          "type": "address"
        }
      ],
      "name": "deposit",
      "outputs": [],
      "stateMutability": "nonpayable",
      "type": "function"
    },
    {
      "inputs": [],
      "name": "disableWhitelist",
      "outputs": [],
      "stateMutability": "nonpayable",
      "type": "function"
    },
    {
      "inputs": [],
      "name": "enableWhitelist",
      "outputs": [],
      "stateMutability": "nonpayable",
      "type": "function"
    },
    {
      "inputs": [
        {
          "internalType": "uint256",
          "name": "amount",
          "type": "uint256"
        }
      ],
      "name": "exchange",
      "outputs": [],
      "stateMutability": "nonpayable",
      "type": "function"
    },
    {
      "inputs": [
        {
          "internalType": "address",
          "name": "owner",
          "type": "address"
        }
      ],
      "name": "getExchangedBalance",
      "outputs": [
        {
          "internalType": "uint256",
          "name": "exchangedBalance",
          "type": "uint256"
        }
      ],
      "stateMutability": "view",
      "type": "function"
    },
    {
      "inputs": [
        {
          "internalType": "bytes32",
          "name": "role",
          "type": "bytes32"
        }
      ],
      "name": "getRoleAdmin",
      "outputs": [
        {
          "internalType": "bytes32",
          "name": "",
          "type": "bytes32"
        }
      ],
      "stateMutability": "view",
      "type": "function"
    },
    {
      "inputs": [
        {
          "internalType": "address",
          "name": "owner",
          "type": "address"
        }
      ],
      "name": "getUnexchangedBalance",
      "outputs": [
        {
          "internalType": "uint256",
          "name": "unexchangedBalance",
          "type": "uint256"
        }
      ],
      "stateMutability": "view",
      "type": "function"
    },
    {
      "inputs": [
        {
          "internalType": "bytes32",
          "name": "role",
          "type": "bytes32"
        },
        {
          "internalType": "address",
          "name": "account",
          "type": "address"
        }
      ],
      "name": "grantRole",
      "outputs": [],
      "stateMutability": "nonpayable",
      "type": "function"
    },
    {
      "inputs": [
        {
          "internalType": "bytes32",
          "name": "role",
          "type": "bytes32"
        },
        {
          "internalType": "address",
          "name": "account",
          "type": "address"
        }
      ],
      "name": "hasRole",
      "outputs": [
        {
          "internalType": "bool",
          "name": "",
          "type": "bool"
        }
      ],
      "stateMutability": "view",
      "type": "function"
    },
    {
      "inputs": [],
      "name": "isPaused",
      "outputs": [
        {
          "internalType": "bool",
          "name": "",
          "type": "bool"
        }
      ],
      "stateMutability": "view",
      "type": "function"
    },
    {
      "inputs": [],
      "name": "pendingAdmin",
      "outputs": [
        {
          "internalType": "address",
          "name": "",
          "type": "address"
        }
      ],
      "stateMutability": "view",
      "type": "function"
    },
    {
      "inputs": [
        {
          "internalType": "address",
          "name": "account",
          "type": "address"
        }
      ],
      "name": "removeFromWhitelist",
      "outputs": [],
      "stateMutability": "nonpayable",
      "type": "function"
    },
    {
      "inputs": [
        {
          "internalType": "bytes32",
          "name": "role",
          "type": "bytes32"
        },
        {
          "internalType": "address",
          "name": "account",
          "type": "address"
        }
      ],
      "name": "renounceRole",
      "outputs": [],
      "stateMutability": "nonpayable",
      "type": "function"
    },
    {
      "inputs": [
        {
          "internalType": "bytes32",
          "name": "role",
          "type": "bytes32"
        },
        {
          "internalType": "address",
          "name": "account",
          "type": "address"
        }
      ],
      "name": "revokeRole",
      "outputs": [],
      "stateMutability": "nonpayable",
      "type": "function"
    },
    {
      "inputs": [
        {
          "internalType": "address",
          "name": "_newCollateralSource",
          "type": "address"
        }
      ],
      "name": "setCollateralSource",
      "outputs": [],
      "stateMutability": "nonpayable",
      "type": "function"
    },
    {
      "inputs": [
        {
          "internalType": "bool",
          "name": "pauseState",
          "type": "bool"
        }
      ],
      "name": "setPause",
      "outputs": [],
      "stateMutability": "nonpayable",
      "type": "function"
    },
    {
      "inputs": [
        {
          "internalType": "address",
          "name": "_pendingAdmin",
          "type": "address"
        }
      ],
      "name": "setPendingAdmin",
      "outputs": [],
      "stateMutability": "nonpayable",
      "type": "function"
    },
    {
      "inputs": [
        {
          "internalType": "address",
          "name": "_newSentinel",
          "type": "address"
        }
      ],
      "name": "setSentinel",
      "outputs": [],
      "stateMutability": "nonpayable",
      "type": "function"
    },
    {
      "inputs": [
        {
          "internalType": "bytes4",
          "name": "interfaceId",
          "type": "bytes4"
        }
      ],
      "name": "supportsInterface",
      "outputs": [
        {
          "internalType": "bool",
          "name": "",
          "type": "bool"
        }
      ],
      "stateMutability": "view",
      "type": "function"
    },
    {
      "inputs": [],
      "name": "syntheticToken",
      "outputs": [
        {
          "internalType": "address",
          "name": "",
          "type": "address"
        }
      ],
      "stateMutability": "view",
      "type": "function"
    },
    {
      "inputs": [],
      "name": "totalBuffered",
      "outputs": [
        {
          "internalType": "uint256",
          "name": "",
          "type": "uint256"
        }
      ],
      "stateMutability": "view",
      "type": "function"
    },
    {
      "inputs": [],
      "name": "totalUnexchanged",
      "outputs": [
        {
          "internalType": "uint256",
          "name": "",
          "type": "uint256"
        }
      ],
      "stateMutability": "view",
      "type": "function"
    },
    {
      "inputs": [],
      "name": "underlyingToken",
      "outputs": [
        {
          "internalType": "contract IDetailedERC20",
          "name": "",
          "type": "address"
        }
      ],
      "stateMutability": "view",
      "type": "function"
    },
    {
      "inputs": [
        {
          "internalType": "address",
          "name": "",
          "type": "address"
        }
      ],
      "name": "whitelist",
      "outputs": [
        {
          "internalType": "bool",
          "name": "",
          "type": "bool"
        }
      ],
      "stateMutability": "view",
      "type": "function"
    },
    {
      "inputs": [],
      "name": "whitelistActive",
      "outputs": [
        {
          "internalType": "bool",
          "name": "",
          "type": "bool"
        }
      ],
      "stateMutability": "view",
      "type": "function"
    },
    {
      "inputs": [
        {
          "internalType": "uint256",
          "name": "amount",
          "type": "uint256"
        },
        {
          "internalType": "address",
          "name": "recipient",
          "type": "address"
        }
      ],
      "name": "withdraw",
      "outputs": [],
      "stateMutability": "nonpayable",
      "type": "function"
    }
  ],
  "transactionHash": "0xa73439c7269e742f50b45ca3bff2cb9f5294995ecd9bd0dc44578d2d133bb6e4",
  "args": [
    "0xBC6DA0FE9aD5f3b0d58160288917AA56653660E9",
    "0xA0b86991c6218b36c1d19D4a2e9Eb0cE3606eB48",
    "0xd85829d56e977D05eC05E96A8C55B43d79C65a81"
  ],
  "solcInputHash": "7935b9804a05a7b65bf34815da80687d",
  "bytecode": "0x60806040523480156200001157600080fd5b50604051620024933803806200249383398101604081905262000034916200027f565b600160005562000054600080516020620024738339815191523362000135565b6200006f600080516020620024738339815191528062000145565b620000aa7fd3eedd6d69d410e954f4c622838ecc3acae9fdcd83cad412075c85b0927706566000805160206200247383398151915262000145565b600480546001600160a01b03199081166001600160a01b03868116919091179092556005805482168584161790556010805490911691831691909117905562000100600962000190602090811b6200105c17901c565b5050600e80546001600160a01b031916331790555050600f805460ff60a01b191690556001805460ff191681179055620002fd565b620001418282620001c2565b5050565b600082815260036020526040808220600101805490849055905190918391839186917fbd79b86ffe0ab8e8776151514217cd7cacd52c909f66475c3af44e129f0b00ff9190a4505050565b60018101805460009182620001a583620002d3565b909155505050600181015460009081526020919091526040902090565b60008281526003602090815260408083206001600160a01b038516845290915290205460ff16620001415760008281526003602090815260408083206001600160a01b03851684529091529020805460ff19166001179055620002223390565b6001600160a01b0316816001600160a01b0316837f2f8788117e7eff1d82e926ec794901d17c78024a50270940304540a733656f0d60405160405180910390a45050565b6001600160a01b03811681146200027c57600080fd5b50565b6000806000606084860312156200029557600080fd5b8351620002a28162000266565b6020850151909350620002b58162000266565b6040850151909250620002c88162000266565b809150509250925092565b6000600019821415620002f657634e487b7160e01b600052601160045260246000fd5b5060010190565b612166806200030d6000396000f3fe608060405234801561001057600080fd5b50600436106102105760003560e01c80636fc12e9b11610125578063d547741f116100ad578063e43252d71161007c578063e43252d714610470578063e5c6554314610483578063edaafe2014610496578063f00cab43146104a9578063f851a440146104d057600080fd5b8063d547741f1461042f578063d6b0f48414610442578063ddd5e1b21461044a578063e061426d1461045d57600080fd5b80639b19251a116100f45780639b19251a146103d5578063a217fddf146103f8578063b187bd2614610400578063bedb86fb14610414578063cdfb2b4e1461042757600080fd5b80636fc12e9b146103935780638230ecd61461039c5780638ab1d681146103af57806391d14854146103c257600080fd5b806326782247116101a85780634dd18bf5116101775780634dd18bf51461034957806352349b171461035c5780635355655914610365578063538ba4f9146103785780636e553f651461038057600080fd5b806326782247146102e95780632a0acc6a146102fc5780632f2ff15d1461032357806336568abe1461033657600080fd5b806309dac061116101e457806309dac061146102725780630e18b68114610285578063248a9ca31461028d5780632495a599146102be57600080fd5b8062f714ce1461021557806301ffc9a71461022a57806302ce58131461025257806308a563511461025f575b600080fd5b610228610223366004611d46565b6104e3565b005b61023d610238366004611d72565b61057a565b60405190151581526020015b60405180910390f35b60015461023d9060ff1681565b61022861026d366004611d9c565b6105b1565b610228610280366004611d9c565b6105db565b610228610610565b6102b061029b366004611db7565b60009081526003602052604090206001015490565b604051908152602001610249565b6005546102d1906001600160a01b031681565b6040516001600160a01b039091168152602001610249565b600f546102d1906001600160a01b031681565b6102b07fdf8b4c520ffe197c5343c6f5aec59570151ef9a492f2c624fd45ddde6135ec4281565b610228610331366004611d46565b6106d2565b610228610344366004611d46565b6106fd565b610228610357366004611d9c565b61077b565b6102b060075481565b610228610373366004611db7565b610838565b6102d1600081565b61022861038e366004611d46565b610b7a565b6102b060065481565b6004546102d1906001600160a01b031681565b6102286103bd366004611d9c565b610be8565b61023d6103d0366004611d46565b610c41565b61023d6103e3366004611d9c565b60026020526000908152604090205460ff1681565b6102b0600081565b600f5461023d90600160a01b900460ff1681565b610228610422366004611dde565b610c6c565b610228610d4c565b61022861043d366004611d46565b610d8b565b610228610db1565b610228610458366004611d46565b610dee565b6102b061046b366004611d9c565b610f24565b61022861047e366004611d9c565b610f8d565b6102b0610491366004611d9c565b610fe9565b6010546102d1906001600160a01b031681565b6102b07fd3eedd6d69d410e954f4c622838ecc3acae9fdcd83cad412075c85b09277065681565b600e546102d1906001600160a01b031681565b6002600054141561050f5760405162461bcd60e51b815260040161050690611dfb565b60405180910390fd5b600260005561051c61108c565b61055a6040518060600160405280336001600160a01b03168152602001610542856110da565b61054b90611e48565b8152602001600081525061112a565b600454610571906001600160a01b03168284611456565b50506001600055565b60006001600160e01b03198216637965db0b60e01b14806105ab57506301ffc9a760e01b6001600160e01b03198316145b92915050565b6105b96114b9565b601080546001600160a01b0319166001600160a01b0392909216919091179055565b6105e36114b9565b61060d7fd3eedd6d69d410e954f4c622838ecc3acae9fdcd83cad412075c85b09277065682611513565b50565b600f546001600160a01b0316331461067a5760405162461bcd60e51b815260206004820152602760248201527f5472616e736d757465723a206e6f742063757272656e746c792070656e64696e604482015266339030b236b4b760c91b6064820152608401610506565b600f54600e80546001600160a01b0319166001600160a01b0390921691821790556040518181527f54e4612788f90384e6843298d7854436f3a585b2c3831ab66abf1de63bfa6c2d906020015b60405180910390a150565b6000828152600360205260409020600101546106ee813361151d565b6106f88383611581565b505050565b6001600160a01b038116331461076d5760405162461bcd60e51b815260206004820152602f60248201527f416363657373436f6e74726f6c3a2063616e206f6e6c792072656e6f756e636560448201526e103937b632b9903337b91039b2b63360891b6064820152608401610506565b6107778282611607565b5050565b6107836114b9565b6001600160a01b0381166107ea5760405162461bcd60e51b815260206004820152602860248201527f5472616e736d757465723a2061646d696e2063616e6e6f74206265207a65726f604482015267206164647265737360c01b6064820152608401610506565b600f80546001600160a01b0319166001600160a01b0383169081179091556040519081527fa728e84b447788a55ff664fbfb5c3983925f88b80b672a1b0b8271c94b22df35906020016106c7565b6002600054141561085b5760405162461bcd60e51b815260040161050690611dfb565b60026000556010546001600160a01b031633146108d25760405162461bcd60e51b815260206004820152602f60248201527f5472616e736d757465723a2063616c6c6572206973206e6f742074686520636f60448201526e6c6c61746572616c20736f7572636560881b6064820152608401610506565b600f54600160a01b900460ff16156109215760405162461bcd60e51b8152602060048201526012602482015271151c985b9cdb5d5d195c8e881c185d5cd95960721b6044820152606401610506565b60065461094557806007600082825461093a9190611e65565b90915550610b729050565b600a54600090815260096020526040812060408051606080820183526006548252600d546020808401918252600b54848601908152855160e08101875290518152845181830152915182860152918101879052835191820190935260018401548152608083015291925060009060a081016109bf8361166e565b81526020016109ce600061166e565b8152509050600754816060018181516109e79190611e65565b905250600060078190556109fb600961105c565b90505b815115610afd576060820151610a1357610afd565b815160009081526009602052604081209050610a45610a3a846060015185602001516116ab565b6080850151906116d1565b60808401908152600060608501526040805160208101909152600183015481529051610a7091611703565b60a0840152610a816012600a611f61565b60a0840151511015610a935750610afd565b60405180602001604052806012600a610aac9190611f61565b60a086015151610abc9190611f6d565b905260c084018190528154610ad09161172c565b60608401528054602084018051610ae8908390611f6d565b905250825160408401526003015482526109fe565b60808201515160018201556020820151835114610b1d5760208201516006555b8160400151836020015114610b35576040820151600d555b8151604084015114610b47578151600b555b606082015115610b6d57816060015160076000828254610b679190611e65565b90915550505b505050505b506001600055565b60026000541415610b9d5760405162461bcd60e51b815260040161050690611dfb565b6002600055610baa61108c565b610bd06040518060600160405280836001600160a01b0316815260200161054b856110da565b600454610571906001600160a01b0316333085611740565b610bf06114b9565b6001600160a01b038116600081815260026020908152604091829020805460ff1916905590519182527fbf2e373b8263f701e10efcac80ea442afcb29c6852b3a42b0b46cc8edaaf54a791016106c7565b60009182526003602090815260408084206001600160a01b0393909316845291905290205460ff1690565b610c967fd3eedd6d69d410e954f4c622838ecc3acae9fdcd83cad412075c85b09277065633610c41565b610cf75760405162461bcd60e51b815260206004820152602c60248201527f5472616e736d757465723a2063616c6c6572206d7573742062652053656e746960448201526b3732b61037b91020b236b4b760a11b6064820152608401610506565b600f805460ff60a01b1916600160a01b8315158102919091179182905560405160ff9190920416151581527f77860e247ab9186dbe64e5bd0e0b93273cc4273e01818420e788f500078886f5906020016106c7565b610d546114b9565b6001805460ff1916811790556040517fe5e5846f783279948f6ec5faad38318cde86fe5be7ea845ede56d62f16c3743490600090a1565b600082815260036020526040902060010154610da7813361151d565b6106f88383611607565b610db96114b9565b6001805460ff191690556040517f212c6e1d3045c9581ef0adf2504dbb1d137f52f38162ccf77a16c69d14eba5c390600090a1565b60026000541415610e115760405162461bcd60e51b815260040161050690611dfb565b6002600055610e1e61108c565b6040805160608101825233815260006020820152610e51918101610e41856110da565b610e4a90611e48565b905261112a565b60048054604051630852cd8d60e31b81529182018490526001600160a01b0316906342966c6890602401600060405180830381600087803b158015610e9557600080fd5b505af1158015610ea9573d6000803e3d6000fd5b5050601054600554604051631a4ca37b60e21b81526001600160a01b03918216600482015260248101879052336044820152911692506369328dec9150606401600060405180830381600087803b158015610f0357600080fd5b505af1158015610f17573d6000803e3d6000fd5b5050600160005550505050565b6001600160a01b0381166000908152600860205260408120600d54600282015411610f525750600092915050565b80546002820154600a54919350600091610f79918591610f749160099161177e565b61172c565b9050610f858184611f6d565b949350505050565b610f956114b9565b6001600160a01b038116600081815260026020908152604091829020805460ff1916600117905590519182527f8f42195a0bbfa58954be4349deb9efc38bdb9c298e529f705f8bc1e38bce039991016106c7565b6001600160a01b0381166000908152600860205260408120600d5460028201541161102957600181015481549092506110229083611e65565b9392505050565b600181015481546002830154600a549294506000926110509291610f74916009919061177e565b9050610f858184611e65565b6001810180546000918261106f83611f84565b909155505050600181015460009081526020919091526040902090565b60015460ff16801561109e5750333214155b80156110ba57503360009081526002602052604090205460ff16155b156110d857604051630b094f2760e31b815260040160405180910390fd5b565b6000600160ff1b82106111265760405162461bcd60e51b815260206004820152601460248201527329b0b332a1b0b9ba1d103130b21034b73a191a9b60611b6044820152606401610506565b5090565b80516001600160a01b0316600090815260086020908152604091829020825160a0810184528154815260018201548184019081526002830154828601526006546060808401918252600a54608085015286519081018752835180825292519581019590955251948401949094529092909190158015906111b057508160400151600d5410155b156111d0576000815281516020820180516111cc908390611e65565b9052505b8051156112435760006111ff8260000151610f7485604001518660800151600961177e9092919063ffffffff16565b905080826040018181516112139190611f6d565b905250815181908390611227908390611f6d565b90525060208201805182919061123e908390611e65565b905250505b611255816040015185602001516117d7565b60408201528051602085015161126b91906117d7565b81526020810151604085015161128191906117d7565b60208201528151815160808401516040850151921580159392151592909114159060009084906112ae5750825b80156112b8575081155b905080156113045760006112da8760400151600961169990919063ffffffff16565b80548851919250906112ec9082611f6d565b87519091506112fb9082611e65565b909155506113f2565b6000841580156113115750835b8061132157508380156113215750825b90506000858015611330575084155b8061134057508580156113405750835b905081156113975760006113628960800151600961169990919063ffffffff16565b805490915061137c57608089015161137c90600990611820565b875181548290600090611390908490611e65565b9091555050505b80156113ef5760006113b78960400151600961169990919063ffffffff16565b905088600001518160000160008282546113d19190611f6d565b909155505080546113ed5760408901516113ed90600990611878565b505b50505b845186511461140057845187555b846020015186602001511461141a57602085015160018801555b84604001518660600151146114325760408501516006555b856080015186604001511461144c57608086015160028801555b5050505050505050565b6040516001600160a01b0383166024820152604481018290526106f890849063a9059cbb60e01b906064015b60408051601f198184030181529190526020810180516001600160e01b03166001600160e01b03199093169290921790915261192b565b600e546001600160a01b031633146110d85760405162461bcd60e51b815260206004820152601f60248201527f5472616e736d757465723a2063616c6c6572206973206e6f742061646d696e006044820152606401610506565b6107778282611581565b6115278282610c41565b6107775761153f816001600160a01b031660146119fd565b61154a8360206119fd565b60405160200161155b929190611fcb565b60408051601f198184030181529082905262461bcd60e51b825261050691600401612040565b61158b8282610c41565b6107775760008281526003602090815260408083206001600160a01b03851684529091529020805460ff191660011790556115c33390565b6001600160a01b0316816001600160a01b0316837f2f8788117e7eff1d82e926ec794901d17c78024a50270940304540a733656f0d60405160405180910390a45050565b6116118282610c41565b156107775760008281526003602090815260408083206001600160a01b0385168085529252808320805460ff1916905551339285917ff6391f5c32d9c69d2a47ea670b442974b53935d1edc7fd64eb21e047a839171b9190a45050565b604080516020810190915260008152604051806020016040528061169184611b99565b905292915050565b60009081526020919091526040902090565b60408051602081019091526000815260006116c58461166e565b9050610f858184611bb1565b60408051602081019091526000815260408051602081019091528251845182916116fa91611e65565b90529392505050565b60408051602081019091526000815260408051602081019091528251845182916116fa91611f6d565b600061102261173b8385611bdb565b611c05565b6040516001600160a01b03808516602483015283166044820152606481018290526117789085906323b872dd60e01b90608401611482565b50505050565b604080516020810190915260008152600083815260208581526040808320858452928190208151808401835260018086015482528351948501909352918101548352916117cb8183611703565b98975050505050505050565b60008082121561180757826117eb83611e48565b6117f59085611f6d565b9150811061180257600080fd5b6105ab565b826118128382611e65565b91508110156105ab57600080fd5b60028201546118385760038201819055600290910155565b8082600301541415611848575050565b60008181526020839052604080822060039485018054808552929093206002909101919091559092018190559055565b6000818152602083905260409020600283015482141561189d57600381015460028401555b81836003015414156118b457600281015460038401555b6002810154156118dc5760038082015460028301546000908152602086905260409020909101555b6003810154156119045760028082015460038301546000908152602086905260409020909101555b50600090815260209190915260408120818155600181018290556002810182905560030155565b6000611980826040518060400160405280602081526020017f5361666545524332303a206c6f772d6c6576656c2063616c6c206661696c6564815250856001600160a01b0316611c1f9092919063ffffffff16565b8051909150156106f8578080602001905181019061199e9190612073565b6106f85760405162461bcd60e51b815260206004820152602a60248201527f5361666545524332303a204552433230206f7065726174696f6e20646964206e6044820152691bdd081cdd58d8d9595960b21b6064820152608401610506565b60606000611a0c836002612090565b611a17906002611e65565b67ffffffffffffffff811115611a2f57611a2f6120af565b6040519080825280601f01601f191660200182016040528015611a59576020820181803683370190505b509050600360fc1b81600081518110611a7457611a746120c5565b60200101906001600160f81b031916908160001a905350600f60fb1b81600181518110611aa357611aa36120c5565b60200101906001600160f81b031916908160001a9053506000611ac7846002612090565b611ad2906001611e65565b90505b6001811115611b4a576f181899199a1a9b1b9c1cb0b131b232b360811b85600f1660108110611b0657611b066120c5565b1a60f81b828281518110611b1c57611b1c6120c5565b60200101906001600160f81b031916908160001a90535060049490941c93611b43816120db565b9050611ad5565b5083156110225760405162461bcd60e51b815260206004820181905260248201527f537472696e67733a20686578206c656e67746820696e73756666696369656e746044820152606401610506565b6000611ba76012600a611f61565b6105ab9083612090565b60408051602081019091526000815260405180602001604052808385600001516116fa91906120f2565b60408051602081019091526000815260405180602001604052808385600001516116fa9190612090565b6000611c136012600a611f61565b82516105ab91906120f2565b6060610f85848460008585843b611c785760405162461bcd60e51b815260206004820152601d60248201527f416464726573733a2063616c6c20746f206e6f6e2d636f6e74726163740000006044820152606401610506565b600080866001600160a01b03168587604051611c949190612114565b60006040518083038185875af1925050503d8060008114611cd1576040519150601f19603f3d011682016040523d82523d6000602084013e611cd6565b606091505b5091509150611ce6828286611cf1565b979650505050505050565b60608315611d00575081611022565b825115611d105782518084602001fd5b8160405162461bcd60e51b81526004016105069190612040565b80356001600160a01b0381168114611d4157600080fd5b919050565b60008060408385031215611d5957600080fd5b82359150611d6960208401611d2a565b90509250929050565b600060208284031215611d8457600080fd5b81356001600160e01b03198116811461102257600080fd5b600060208284031215611dae57600080fd5b61102282611d2a565b600060208284031215611dc957600080fd5b5035919050565b801515811461060d57600080fd5b600060208284031215611df057600080fd5b813561102281611dd0565b6020808252601f908201527f5265656e7472616e637947756172643a207265656e7472616e742063616c6c00604082015260600190565b634e487b7160e01b600052601160045260246000fd5b6000600160ff1b821415611e5e57611e5e611e32565b5060000390565b60008219821115611e7857611e78611e32565b500190565b600181815b80851115611eb8578160001904821115611e9e57611e9e611e32565b80851615611eab57918102915b93841c9390800290611e82565b509250929050565b600082611ecf575060016105ab565b81611edc575060006105ab565b8160018114611ef25760028114611efc57611f18565b60019150506105ab565b60ff841115611f0d57611f0d611e32565b50506001821b6105ab565b5060208310610133831016604e8410600b8410161715611f3b575081810a6105ab565b611f458383611e7d565b8060001904821115611f5957611f59611e32565b029392505050565b60006110228383611ec0565b600082821015611f7f57611f7f611e32565b500390565b6000600019821415611f9857611f98611e32565b5060010190565b60005b83811015611fba578181015183820152602001611fa2565b838111156117785750506000910152565b7f416363657373436f6e74726f6c3a206163636f756e7420000000000000000000815260008351612003816017850160208801611f9f565b7001034b99036b4b9b9b4b733903937b6329607d1b6017918401918201528351612034816028840160208801611f9f565b01602801949350505050565b602081526000825180602084015261205f816040850160208701611f9f565b601f01601f19169190910160400192915050565b60006020828403121561208557600080fd5b815161102281611dd0565b60008160001904831182151516156120aa576120aa611e32565b500290565b634e487b7160e01b600052604160045260246000fd5b634e487b7160e01b600052603260045260246000fd5b6000816120ea576120ea611e32565b506000190190565b60008261210f57634e487b7160e01b600052601260045260246000fd5b500490565b60008251612126818460208701611f9f565b919091019291505056fea264697066735822122060d565328e926c77aea548b3ef9de88af2bc0f59c8134674899a062346c7dbf364736f6c63430008090033df8b4c520ffe197c5343c6f5aec59570151ef9a492f2c624fd45ddde6135ec42",
  "devdoc": {
    "errors": {
      "NotWhitelisted()": [
        {
          "details": "Thrown when a non-whitelisted contract attempts to access a whitelist-only function."
        }
      ],
      "Unauthorized()": [
        {
          "details": "Thrown when anyone but a whitelist admin tries to call an admin function."
        }
      ],
      "UnauthorizedER()": [
        {
          "details": "Thrown when anyone but a whitelist admin tries to call an admin function."
        }
      ]
    },
    "kind": "dev",
    "methods": {
      "acceptAdmin()": {
        "details": "Accepts the role as admin. This function reverts if the caller is not the new pending admin."
      },
      "addToWhitelist(address)": {
        "details": "Adds an contract to the whitelist.",
        "params": {
          "account": "the contract to add to the whitelist."
        }
      },
      "claim(uint256,address)": {
        "details": "Claims exchanged tokens.",
        "params": {
          "amount": "The amount of tokens to claim.",
          "recipient": "The address which will receive the claimed tokens."
        }
      },
      "deposit(uint256,address)": {
        "details": "Deposits tokens to be exchanged into an account.",
        "params": {
          "amount": "The amount of tokens to deposit.",
          "owner": "The owner of the account to deposit the tokens into."
        }
      },
      "disableWhitelist()": {
        "details": "De-activates the whitelist."
      },
      "enableWhitelist()": {
        "details": "Activates the whitelist."
      },
      "exchange(uint256)": {
        "details": "Exchanges collateral for synthetic",
        "params": {
          "amount": "The amount of tokens to exchange."
        }
      },
      "getExchangedBalance(address)": {
        "details": "Gets an accounts exchanged balance.",
        "params": {
          "owner": "the owner of the account."
        },
        "returns": {
          "exchangedBalance": "the exchanged balance."
        }
      },
      "getRoleAdmin(bytes32)": {
        "details": "Returns the admin role that controls `role`. See {grantRole} and {revokeRole}. To change a role's admin, use {_setRoleAdmin}."
      },
      "getUnexchangedBalance(address)": {
        "details": "Gets an accounts unexchanged balance.",
        "params": {
          "owner": "the owner of the account."
        },
        "returns": {
          "unexchangedBalance": "the unexchanged balance."
        }
      },
      "grantRole(bytes32,address)": {
        "details": "Grants `role` to `account`. If `account` had not been already granted `role`, emits a {RoleGranted} event. Requirements: - the caller must have ``role``'s admin role."
      },
      "hasRole(bytes32,address)": {
        "details": "Returns `true` if `account` has been granted `role`."
      },
      "removeFromWhitelist(address)": {
        "details": "Adds an contract to the whitelist.",
        "params": {
          "account": "the contract to remove from the whitelist."
        }
      },
      "renounceRole(bytes32,address)": {
        "details": "Revokes `role` from the calling account. Roles are often managed via {grantRole} and {revokeRole}: this function's purpose is to provide a mechanism for accounts to lose their privileges if they are compromised (such as when a trusted device is misplaced). If the calling account had been granted `role`, emits a {RoleRevoked} event. Requirements: - the caller must be `account`."
      },
      "revokeRole(bytes32,address)": {
        "details": "Revokes `role` from `account`. If `account` had been granted `role`, emits a {RoleRevoked} event. Requirements: - the caller must have ``role``'s admin role."
      },
      "setPendingAdmin(address)": {
        "details": "Sets the pending admin. This function reverts if the new pending admin is the zero address or the caller is not the current admin. This is to prevent the contract admin being set to the zero address which would deadlock privileged contract functionality.",
        "params": {
          "_pendingAdmin": "the new pending admin."
        }
      },
      "supportsInterface(bytes4)": {
        "details": "See {IERC165-supportsInterface}."
      },
      "withdraw(uint256,address)": {
        "details": "Withdraws tokens from the caller's account that were previously deposited to be exchanged.",
        "params": {
          "amount": "The amount of tokens to withdraw.",
          "recipient": "The address which will receive the withdrawn tokens."
        }
      }
    },
    "stateVariables": {
      "ADMIN": {
        "details": "The identifier of the role which maintains other roles."
      },
      "SENTINEL": {
        "details": "The identitifer of the sentinel role"
      },
      "accounts": {
        "details": "A mapping specifying all of the accounts."
      },
      "admin": {
        "details": "contract admin address"
      },
      "buffer": {
        "details": "the source of the exchanged collateral"
      },
      "isPaused": {
        "details": "contract pause state"
      },
      "pendingAdmin": {
        "details": "contract pending admin address"
      },
      "syntheticToken": {
        "details": "the synthetic token to be transmuted"
      },
      "totalBuffered": {
        "details": "The total amount of tokens which are in the auxiliary buffer."
      },
      "totalUnexchanged": {
        "details": "The total amount of unexchanged tokens which are held by all accounts."
      },
      "underlyingToken": {
        "details": "the underlying token to be recieved"
      }
    },
    "title": "TransmuterV2",
    "version": 1
  },
  "userdoc": {
    "kind": "user",
    "methods": {},
    "notice": "A contract which facilitates the exchange of synthetic assets for their underlying",
    "version": 1
  },
  "storageLayout": {
    "storage": [
      {
        "astId": 540,
        "contract": "contracts/TransmuterV2.sol:TransmuterV2",
        "label": "_status",
        "offset": 0,
        "slot": "0",
        "type": "t_uint256"
      },
      {
        "astId": 7378,
        "contract": "contracts/TransmuterV2.sol:TransmuterV2",
        "label": "whitelistActive",
        "offset": 0,
        "slot": "1",
        "type": "t_bool"
      },
      {
        "astId": 7383,
        "contract": "contracts/TransmuterV2.sol:TransmuterV2",
        "label": "whitelist",
        "offset": 0,
        "slot": "2",
        "type": "t_mapping(t_address,t_bool)"
      },
      {
        "astId": 24,
        "contract": "contracts/TransmuterV2.sol:TransmuterV2",
        "label": "_roles",
        "offset": 0,
        "slot": "3",
        "type": "t_mapping(t_bytes32,t_struct(RoleData)19_storage)"
      },
      {
        "astId": 8968,
        "contract": "contracts/TransmuterV2.sol:TransmuterV2",
        "label": "syntheticToken",
        "offset": 0,
        "slot": "4",
        "type": "t_address"
      },
      {
        "astId": 8972,
        "contract": "contracts/TransmuterV2.sol:TransmuterV2",
        "label": "underlyingToken",
        "offset": 0,
        "slot": "5",
        "type": "t_contract(IDetailedERC20)11192"
      },
      {
        "astId": 8975,
        "contract": "contracts/TransmuterV2.sol:TransmuterV2",
        "label": "totalUnexchanged",
        "offset": 0,
        "slot": "6",
        "type": "t_uint256"
      },
      {
        "astId": 8978,
        "contract": "contracts/TransmuterV2.sol:TransmuterV2",
        "label": "totalBuffered",
        "offset": 0,
        "slot": "7",
        "type": "t_uint256"
      },
      {
        "astId": 8984,
        "contract": "contracts/TransmuterV2.sol:TransmuterV2",
        "label": "accounts",
        "offset": 0,
        "slot": "8",
        "type": "t_mapping(t_address,t_struct(Account)8897_storage)"
      },
      {
        "astId": 8987,
        "contract": "contracts/TransmuterV2.sol:TransmuterV2",
        "label": "ticks",
        "offset": 0,
        "slot": "9",
        "type": "t_struct(Cache)14943_storage"
      },
      {
        "astId": 8989,
        "contract": "contracts/TransmuterV2.sol:TransmuterV2",
        "label": "satisfiedTick",
        "offset": 0,
        "slot": "13",
        "type": "t_uint256"
      },
      {
        "astId": 8992,
        "contract": "contracts/TransmuterV2.sol:TransmuterV2",
        "label": "admin",
        "offset": 0,
        "slot": "14",
        "type": "t_address"
      },
      {
        "astId": 8995,
        "contract": "contracts/TransmuterV2.sol:TransmuterV2",
        "label": "pendingAdmin",
        "offset": 0,
        "slot": "15",
        "type": "t_address"
      },
      {
        "astId": 8998,
        "contract": "contracts/TransmuterV2.sol:TransmuterV2",
        "label": "isPaused",
        "offset": 20,
        "slot": "15",
        "type": "t_bool"
      },
      {
        "astId": 9001,
        "contract": "contracts/TransmuterV2.sol:TransmuterV2",
        "label": "buffer",
        "offset": 0,
        "slot": "16",
        "type": "t_address"
      }
    ],
    "types": {
      "t_address": {
        "encoding": "inplace",
        "label": "address",
        "numberOfBytes": "20"
      },
      "t_bool": {
        "encoding": "inplace",
        "label": "bool",
        "numberOfBytes": "1"
      },
      "t_bytes32": {
        "encoding": "inplace",
        "label": "bytes32",
        "numberOfBytes": "32"
      },
      "t_contract(IDetailedERC20)11192": {
        "encoding": "inplace",
        "label": "contract IDetailedERC20",
        "numberOfBytes": "20"
      },
      "t_mapping(t_address,t_bool)": {
        "encoding": "mapping",
        "key": "t_address",
        "label": "mapping(address => bool)",
        "numberOfBytes": "32",
        "value": "t_bool"
      },
      "t_mapping(t_address,t_struct(Account)8897_storage)": {
        "encoding": "mapping",
        "key": "t_address",
        "label": "mapping(address => struct TransmuterV2.Account)",
        "numberOfBytes": "32",
        "value": "t_struct(Account)8897_storage"
      },
      "t_mapping(t_bytes32,t_struct(RoleData)19_storage)": {
        "encoding": "mapping",
        "key": "t_bytes32",
        "label": "mapping(bytes32 => struct AccessControl.RoleData)",
        "numberOfBytes": "32",
        "value": "t_struct(RoleData)19_storage"
      },
      "t_mapping(t_uint256,t_struct(Info)14931_storage)": {
        "encoding": "mapping",
        "key": "t_uint256",
        "label": "mapping(uint256 => struct Tick.Info)",
        "numberOfBytes": "32",
        "value": "t_struct(Info)14931_storage"
      },
      "t_struct(Account)8897_storage": {
        "encoding": "inplace",
        "label": "struct TransmuterV2.Account",
        "members": [
          {
            "astId": 8892,
            "contract": "contracts/TransmuterV2.sol:TransmuterV2",
            "label": "unexchangedBalance",
            "offset": 0,
            "slot": "0",
            "type": "t_uint256"
          },
          {
            "astId": 8894,
            "contract": "contracts/TransmuterV2.sol:TransmuterV2",
            "label": "exchangedBalance",
            "offset": 0,
            "slot": "1",
            "type": "t_uint256"
          },
          {
            "astId": 8896,
            "contract": "contracts/TransmuterV2.sol:TransmuterV2",
            "label": "occupiedTick",
            "offset": 0,
            "slot": "2",
            "type": "t_uint256"
          }
        ],
        "numberOfBytes": "96"
      },
      "t_struct(Cache)14943_storage": {
        "encoding": "inplace",
        "label": "struct Tick.Cache",
        "members": [
          {
            "astId": 14936,
            "contract": "contracts/TransmuterV2.sol:TransmuterV2",
            "label": "values",
            "offset": 0,
            "slot": "0",
            "type": "t_mapping(t_uint256,t_struct(Info)14931_storage)"
          },
          {
            "astId": 14938,
            "contract": "contracts/TransmuterV2.sol:TransmuterV2",
            "label": "position",
            "offset": 0,
            "slot": "1",
            "type": "t_uint256"
          },
          {
            "astId": 14940,
            "contract": "contracts/TransmuterV2.sol:TransmuterV2",
            "label": "head",
            "offset": 0,
            "slot": "2",
            "type": "t_uint256"
          },
          {
            "astId": 14942,
            "contract": "contracts/TransmuterV2.sol:TransmuterV2",
            "label": "tail",
            "offset": 0,
            "slot": "3",
            "type": "t_uint256"
          }
        ],
        "numberOfBytes": "128"
      },
      "t_struct(Info)14931_storage": {
        "encoding": "inplace",
        "label": "struct Tick.Info",
        "members": [
          {
            "astId": 14923,
            "contract": "contracts/TransmuterV2.sol:TransmuterV2",
            "label": "totalBalance",
            "offset": 0,
            "slot": "0",
            "type": "t_uint256"
          },
          {
            "astId": 14926,
            "contract": "contracts/TransmuterV2.sol:TransmuterV2",
            "label": "accumulatedWeight",
            "offset": 0,
            "slot": "1",
            "type": "t_struct(Number)13622_storage"
          },
          {
            "astId": 14928,
            "contract": "contracts/TransmuterV2.sol:TransmuterV2",
            "label": "prev",
            "offset": 0,
            "slot": "2",
            "type": "t_uint256"
          },
          {
            "astId": 14930,
            "contract": "contracts/TransmuterV2.sol:TransmuterV2",
            "label": "next",
            "offset": 0,
            "slot": "3",
            "type": "t_uint256"
          }
        ],
        "numberOfBytes": "128"
      },
      "t_struct(Number)13622_storage": {
        "encoding": "inplace",
        "label": "struct FixedPointMath.Number",
        "members": [
          {
            "astId": 13621,
            "contract": "contracts/TransmuterV2.sol:TransmuterV2",
            "label": "n",
            "offset": 0,
            "slot": "0",
            "type": "t_uint256"
          }
        ],
        "numberOfBytes": "32"
      },
      "t_struct(RoleData)19_storage": {
        "encoding": "inplace",
        "label": "struct AccessControl.RoleData",
        "members": [
          {
            "astId": 16,
            "contract": "contracts/TransmuterV2.sol:TransmuterV2",
            "label": "members",
            "offset": 0,
            "slot": "0",
            "type": "t_mapping(t_address,t_bool)"
          },
          {
            "astId": 18,
            "contract": "contracts/TransmuterV2.sol:TransmuterV2",
            "label": "adminRole",
            "offset": 0,
            "slot": "1",
            "type": "t_bytes32"
          }
        ],
        "numberOfBytes": "64"
      },
      "t_uint256": {
        "encoding": "inplace",
        "label": "uint256",
        "numberOfBytes": "32"
      }
    }
  }
}