{
  "address": "0x9Ad9Ad68b9746636589b5CB0A7D4aD52d5CfD94e",
  "abi": [
    {
      "inputs": [
        {
          "internalType": "address",
          "name": "_token",
          "type": "address"
        },
        {
          "internalType": "address",
          "name": "_underlyingToken",
          "type": "address"
        }
      ],
      "stateMutability": "nonpayable",
      "type": "constructor"
    },
    {
      "inputs": [],
      "name": "MAX_BPS",
      "outputs": [
        {
          "internalType": "uint256",
          "name": "",
          "type": "uint256"
        }
      ],
      "stateMutability": "view",
      "type": "function"
    },
    {
      "inputs": [],
      "name": "defaultUnWrapData",
      "outputs": [
        {
          "internalType": "bytes",
          "name": "",
          "type": "bytes"
        }
      ],
      "stateMutability": "pure",
      "type": "function"
    },
    {
      "inputs": [],
      "name": "defaultWrapData",
      "outputs": [
        {
          "internalType": "bytes",
          "name": "",
          "type": "bytes"
        }
      ],
      "stateMutability": "pure",
      "type": "function"
    },
    {
      "inputs": [],
      "name": "price",
      "outputs": [
        {
          "internalType": "uint256",
          "name": "",
          "type": "uint256"
        }
      ],
      "stateMutability": "view",
      "type": "function"
    },
    {
      "inputs": [],
      "name": "token",
      "outputs": [
        {
          "internalType": "address",
          "name": "",
          "type": "address"
        }
      ],
      "stateMutability": "view",
      "type": "function"
    },
    {
      "inputs": [],
      "name": "underlyingToken",
      "outputs": [
        {
          "internalType": "address",
          "name": "",
          "type": "address"
        }
      ],
      "stateMutability": "view",
      "type": "function"
    },
    {
      "inputs": [
        {
          "internalType": "uint256",
          "name": "amount",
          "type": "uint256"
        },
        {
          "internalType": "address",
          "name": "recipient",
          "type": "address"
        },
        {
          "internalType": "bytes",
          "name": "data",
          "type": "bytes"
        }
      ],
      "name": "unwrap",
      "outputs": [
        {
          "internalType": "uint256",
          "name": "",
          "type": "uint256"
        }
      ],
      "stateMutability": "nonpayable",
      "type": "function"
    },
    {
      "inputs": [
        {
          "internalType": "uint256",
          "name": "amount",
          "type": "uint256"
        },
        {
          "internalType": "address",
          "name": "recipient",
          "type": "address"
        },
        {
          "internalType": "bytes",
          "name": "data",
          "type": "bytes"
        }
      ],
      "name": "wrap",
      "outputs": [
        {
          "internalType": "uint256",
          "name": "",
          "type": "uint256"
        }
      ],
      "stateMutability": "nonpayable",
      "type": "function"
    }
  ],
  "transactionHash": "0x4ae8d41e39ae9ff1eb33807097a359fdc117fac26cb5b7adba6220d348c91ab9",
  "args": [
    "0xdA816459F1AB5631232FE5e97a05BBBb94970c95",
    "0x6B175474E89094C44Da98b954EedeAC495271d0F"
  ],
  "solcInputHash": "7935b9804a05a7b65bf34815da80687d",
  "bytecode": "0x608060405234801561001057600080fd5b50604051610b78380380610b7883398101604081905261002f9161007c565b600080546001600160a01b039384166001600160a01b031991821617909155600180549290931691161790556100af565b80516001600160a01b038116811461007757600080fd5b919050565b6000806040838503121561008f57600080fd5b61009883610060565b91506100a660208401610060565b90509250929050565b610aba806100be6000396000f3fe608060405234801561001057600080fd5b50600436106100885760003560e01c8063a035b1fe1161005b578063a035b1fe14610124578063f6123b781461012c578063fc0c546a1461015e578063fd967f471461017157600080fd5b806318e19bc11461008d5780632495a599146100b35780632ddd4a5b146100de5780636e7be80414610111575b600080fd5b6100a061009b36600461089e565b61017a565b6040519081526020015b60405180910390f35b6001546100c6906001600160a01b031681565b6040516001600160a01b0390911681526020016100aa565b610104604080516000602082015260609101604051602081830303815290604052905090565b6040516100aa91906109b3565b6100a061011f36600461089e565b610242565b6100a0610489565b610104604080516020808201835260008083528351918201526060920160405160208183030381529060405291505090565b6000546100c6906001600160a01b031681565b6100a061271081565b600154600090610195906001600160a01b0316333087610515565b6001546000546101b2916001600160a01b03908116911686610575565b600054604051636e553f6560e01b8152600481018690526001600160a01b03858116602483015290911690636e553f6590604401602060405180830381600087803b15801561020057600080fd5b505af1158015610214573d6000803e3d6000fd5b505050506040513d601f19601f8201168201806040525081019061023891906109c6565b90505b9392505050565b6000805461025b906001600160a01b0316333087610515565b6040805160208101909152600081528280602001905181019061027e91906109df565b600080546040516370a0823160e01b815230600482015292935090916001600160a01b03909116906370a082319060240160206040518083038186803b1580156102c757600080fd5b505afa1580156102db573d6000803e3d6000fd5b505050506040513d601f19601f820116820180604052508101906102ff91906109c6565b600080548451604051631cc6d2f960e31b8152600481018b90526001600160a01b038a811660248301526044820192909252939450919291169063e63697c890606401602060405180830381600087803b15801561035c57600080fd5b505af1158015610370573d6000803e3d6000fd5b505050506040513d601f19601f8201168201806040525081019061039491906109c6565b600080546040516370a0823160e01b815230600482015292935090916001600160a01b03909116906370a082319060240160206040518083038186803b1580156103dd57600080fd5b505afa1580156103f1573d6000803e3d6000fd5b505050506040513d601f19601f8201168201806040525081019061041591906109c6565b9050876104228285610a21565b1461047e5760405162461bcd60e51b815260206004820152602160248201527f796561726e3a20657861637420616d6f756e74206e6f742077697468647261776044820152603760f91b60648201526084015b60405180910390fd5b509695505050505050565b60008060009054906101000a90046001600160a01b03166001600160a01b03166399530b066040518163ffffffff1660e01b815260040160206040518083038186803b1580156104d857600080fd5b505afa1580156104ec573d6000803e3d6000fd5b505050506040513d601f19601f8201168201806040525081019061051091906109c6565b905090565b604080516001600160a01b0385811660248301528416604482015260648082018490528251808303909101815260849091019091526020810180516001600160e01b03166323b872dd60e01b17905261056f908590610675565b50505050565b604080516001600160a01b038481166024830152604480830185905283518084039091018152606490920183526020820180516001600160e01b031663095ea7b360e01b17905291516000928392908716916105d19190610a46565b6000604051808303816000865af19150503d806000811461060e576040519150601f19603f3d011682016040523d82523d6000602084013e610613565b606091505b509150915081801561063d57508051158061063d57508080602001905181019061063d9190610a62565b61066e5760405162461bcd60e51b81526020600482015260026024820152612a2360f11b6044820152606401610475565b5050505050565b60006106ca826040518060400160405280602081526020017f5361666545524332303a206c6f772d6c6576656c2063616c6c206661696c6564815250856001600160a01b031661074c9092919063ffffffff16565b80519091501561074757808060200190518101906106e89190610a62565b6107475760405162461bcd60e51b815260206004820152602a60248201527f5361666545524332303a204552433230206f7065726174696f6e20646964206e6044820152691bdd081cdd58d8d9595960b21b6064820152608401610475565b505050565b6060610238848460008585843b6107a55760405162461bcd60e51b815260206004820152601d60248201527f416464726573733a2063616c6c20746f206e6f6e2d636f6e74726163740000006044820152606401610475565b600080866001600160a01b031685876040516107c19190610a46565b60006040518083038185875af1925050503d80600081146107fe576040519150601f19603f3d011682016040523d82523d6000602084013e610803565b606091505b509150915061081382828661081e565b979650505050505050565b6060831561082d57508161023b565b82511561083d5782518084602001fd5b8160405162461bcd60e51b815260040161047591906109b3565b634e487b7160e01b600052604160045260246000fd5b604051601f8201601f1916810167ffffffffffffffff8111828210171561089657610896610857565b604052919050565b6000806000606084860312156108b357600080fd5b833592506020808501356001600160a01b03811681146108d257600080fd5b9250604085013567ffffffffffffffff808211156108ef57600080fd5b818701915087601f83011261090357600080fd5b81358181111561091557610915610857565b610927601f8201601f1916850161086d565b9150808252888482850101111561093d57600080fd5b80848401858401376000848284010152508093505050509250925092565b60005b8381101561097657818101518382015260200161095e565b8381111561056f5750506000910152565b6000815180845261099f81602086016020860161095b565b601f01601f19169290920160200192915050565b60208152600061023b6020830184610987565b6000602082840312156109d857600080fd5b5051919050565b6000602082840312156109f157600080fd5b6040516020810181811067ffffffffffffffff82111715610a1457610a14610857565b6040529151825250919050565b600082821015610a4157634e487b7160e01b600052601160045260246000fd5b500390565b60008251610a5881846020870161095b565b9190910192915050565b600060208284031215610a7457600080fd5b8151801515811461023b57600080fdfea26469706673582212207795567fd29d32323e8fd78f6b07acb7f459077c7980f8c9e6340d8beeff4a0364736f6c63430008090033",
  "devdoc": {
    "kind": "dev",
    "methods": {
      "defaultUnWrapData()": {
        "returns": {
          "_0": "A packet of bytes that can be used with the `unwrap` function."
        }
      },
      "defaultWrapData()": {
        "returns": {
          "_0": "A packet of bytes that can be used with the `wrap` function."
        }
      },
      "price()": {
        "returns": {
          "_0": "The price (yield-tokens per underlying-token)."
        }
      },
      "unwrap(uint256,address,bytes)": {
        "params": {
          "amount": "The amount of yield-tokens to redeem.",
          "data": "A packet of bytes used by the adapter to complete the withdraw action.  The format of these bytes is dependent on the `withdraw` function (or similar) of the target yield-token.",
          "recipient": "The recipient of the resulting underlying-tokens."
        },
        "returns": {
          "_0": "The amount of underlying-token received."
        }
      },
      "wrap(uint256,address,bytes)": {
        "params": {
          "amount": "The amount of underlying-token to deposit.",
          "data": "A packet of bytes used by the adapter to complete the deposit action.  The format of these bytes is dependent on the `deposit` function (or similar) of the target yield-token.",
          "recipient": "The recipient of the resulting yield-tokens."
        },
        "returns": {
          "_0": "The amount of yield-token received."
        }
      }
    },
    "stateVariables": {
      "token": {
        "return": "The address of the yield-token.",
        "returns": {
          "_0": "The address of the yield-token."
        }
      },
      "underlyingToken": {
        "return": "The address of the underlying-token.",
        "returns": {
          "_0": "The address of the underlying-token."
        }
      }
    },
    "version": 1
  },
  "userdoc": {
    "kind": "user",
    "methods": {
      "defaultUnWrapData()": {
        "notice": "Returns a default packet of bytes for use with the `unwrap` function."
      },
      "defaultWrapData()": {
        "notice": "Returns a default packet of bytes for use with the `wrap` function."
      },
      "price()": {
        "notice": "Gets the current price of yield-token in underlying-tokens."
      },
      "token()": {
        "notice": "Gets the address of the yield-token used by the adapter."
      },
      "underlyingToken()": {
        "notice": "Gets the address of the underlying-token used by the adapter."
      },
      "unwrap(uint256,address,bytes)": {
        "notice": "Withdraws underlying-token from yield-token."
      },
      "wrap(uint256,address,bytes)": {
        "notice": "Deposits underlying-token into yield-token."
      }
    },
    "version": 1
  },
  "storageLayout": {
    "storage": [
      {
        "astId": 10632,
        "contract": "contracts/adapters/yearn/YearnTokenAdapter.sol:YearnTokenAdapter",
        "label": "token",
        "offset": 0,
        "slot": "0",
        "type": "t_address"
      },
      {
        "astId": 10635,
        "contract": "contracts/adapters/yearn/YearnTokenAdapter.sol:YearnTokenAdapter",
        "label": "underlyingToken",
        "offset": 0,
        "slot": "1",
        "type": "t_address"
      }
    ],
    "types": {
      "t_address": {
        "encoding": "inplace",
        "label": "address",
        "numberOfBytes": "20"
      }
    }
  }
}