{
  "address": "0xdB7937663Da140C7b07a282Cbfee9E3B0c32155e",
  "abi": [
    {
      "inputs": [
        {
          "components": [
            {
              "internalType": "address",
              "name": "alchemist",
              "type": "address"
            },
            {
              "internalType": "address",
              "name": "token",
              "type": "address"
            },
            {
              "internalType": "address",
              "name": "underlyingToken",
              "type": "address"
            }
          ],
          "internalType": "struct InitializationParams",
          "name": "params",
          "type": "tuple"
        }
      ],
      "stateMutability": "nonpayable",
      "type": "constructor"
    },
    {
      "inputs": [
        {
          "internalType": "address",
          "name": "target",
          "type": "address"
        },
        {
          "internalType": "bool",
          "name": "success",
          "type": "bool"
        },
        {
          "internalType": "bytes",
          "name": "data",
          "type": "bytes"
        }
      ],
      "name": "ERC20CallFailed",
      "type": "error"
    },
    {
      "inputs": [
        {
          "internalType": "string",
          "name": "message",
          "type": "string"
        }
      ],
      "name": "IllegalState",
      "type": "error"
    },
    {
      "inputs": [
        {
          "internalType": "string",
          "name": "message",
          "type": "string"
        }
      ],
      "name": "Unauthorized",
      "type": "error"
    },
    {
      "inputs": [],
      "name": "alchemist",
      "outputs": [
        {
          "internalType": "address",
          "name": "",
          "type": "address"
        }
      ],
      "stateMutability": "view",
      "type": "function"
    },
    {
      "inputs": [],
      "name": "price",
      "outputs": [
        {
          "internalType": "uint256",
          "name": "",
          "type": "uint256"
        }
      ],
      "stateMutability": "view",
      "type": "function"
    },
    {
      "inputs": [],
      "name": "token",
      "outputs": [
        {
          "internalType": "address",
          "name": "",
          "type": "address"
        }
      ],
      "stateMutability": "view",
      "type": "function"
    },
    {
      "inputs": [],
      "name": "tokenDecimals",
      "outputs": [
        {
          "internalType": "uint8",
          "name": "",
          "type": "uint8"
        }
      ],
      "stateMutability": "view",
      "type": "function"
    },
    {
      "inputs": [],
      "name": "underlyingToken",
      "outputs": [
        {
          "internalType": "address",
          "name": "",
          "type": "address"
        }
      ],
      "stateMutability": "view",
      "type": "function"
    },
    {
      "inputs": [
        {
          "internalType": "uint256",
          "name": "amount",
          "type": "uint256"
        },
        {
          "internalType": "address",
          "name": "recipient",
          "type": "address"
        }
      ],
      "name": "unwrap",
      "outputs": [
        {
          "internalType": "uint256",
          "name": "",
          "type": "uint256"
        }
      ],
      "stateMutability": "nonpayable",
      "type": "function"
    },
    {
      "inputs": [],
      "name": "version",
      "outputs": [
        {
          "internalType": "string",
          "name": "",
          "type": "string"
        }
      ],
      "stateMutability": "view",
      "type": "function"
    },
    {
      "inputs": [
        {
          "internalType": "uint256",
          "name": "amount",
          "type": "uint256"
        },
        {
          "internalType": "address",
          "name": "recipient",
          "type": "address"
        }
      ],
      "name": "wrap",
      "outputs": [
        {
          "internalType": "uint256",
          "name": "",
          "type": "uint256"
        }
      ],
      "stateMutability": "nonpayable",
      "type": "function"
    }
  ],
  "transactionHash": "0xb2c2a73be50e01018e54fdee183201da8d1e398345e6a911a55fc003f36db42b",
  "args": [
    {
      "alchemist": "0xb46eE2E4165F629b4aBCE04B7Eb4237f951AC66F",
      "token": "0x1d2bE809EE3a0eeACb02d3d234b3eD479e1c4962",
      "underlyingToken": "0xFd086bC7CD5C481DCC9C85ebE478A1C0b69FCbb9"
    }
  ],
  "solcInputHash": "616c9c0b739469dd0b6446964cc8fa67",
  "bytecode": "0x60806040526000805460ff191660011790553480156200001e57600080fd5b5060405162000f7f38038062000f7f83398101604081905262000041916200032a565b805160008054610100600160a81b0319166101006001600160a01b0393841602179055602080830151600180546001600160a01b031990811692851692831790915560408501516002805490921694169384179055620000af929160001990620000f3811b6200046517901c565b600154620000d2906001600160a01b031662000214602090811b6200057117901c565b600260146101000a81548160ff021916908360ff1602179055505062000499565b604080516001600160a01b038481166024830152604480830185905283518084039091018152606490920183526020820180516001600160e01b031663095ea7b360e01b1790529151600092839290871691620001519190620003de565b6000604051808303816000865af19150503d806000811462000190576040519150601f19603f3d011682016040523d82523d6000602084013e62000195565b606091505b5091509150846001600160a01b03163b60001480620001b2575081155b80620001dd5750805115801590620001dd575080806020019051810190620001db9190620003fc565b155b156200020d5784828260405163e7e40b5b60e01b8152600401620002049392919062000427565b60405180910390fd5b5050505050565b60408051600481526024810182526020810180516001600160e01b031663313ce56760e01b1790529051600091829182916001600160a01b038616916200025c9190620003de565b600060405180830381855afa9150503d806000811462000299576040519150601f19603f3d011682016040523d82523d6000602084013e6200029e565b606091505b5091509150836001600160a01b03163b60001480620002bb575081155b80620002c8575060208151105b15620002ef5783828260405163e7e40b5b60e01b8152600401620002049392919062000427565b8080602001905181019062000305919062000474565b949350505050565b80516001600160a01b03811681146200032557600080fd5b919050565b6000606082840312156200033d57600080fd5b604051606081016001600160401b03811182821017156200036e57634e487b7160e01b600052604160045260246000fd5b6040526200037c836200030d565b81526200038c602084016200030d565b60208201526200039f604084016200030d565b60408201529392505050565b60005b83811015620003c8578181015183820152602001620003ae565b83811115620003d8576000848401525b50505050565b60008251620003f2818460208701620003ab565b9190910192915050565b6000602082840312156200040f57600080fd5b815180151581146200042057600080fd5b9392505050565b60018060a01b0384168152821515602082015260606040820152600082518060608401526200045e816080850160208701620003ab565b601f01601f191691909101608001949350505050565b6000602082840312156200048757600080fd5b815160ff811681146200042057600080fd5b610ad680620004a96000396000f3fe608060405234801561001057600080fd5b50600436106100885760003560e01c80637647691d1161005b5780637647691d146101355780638de925f614610148578063a035b1fe14610160578063fc0c546a1461016857600080fd5b806313bac8201461008d5780632495a599146100b35780633b97e856146100de57806354fd4d5014610104575b600080fd5b6100a061009b3660046107fc565b61017b565b6040519081526020015b60405180910390f35b6002546100c6906001600160a01b031681565b6040516001600160a01b0390911681526020016100aa565b6002546100f290600160a01b900460ff1681565b60405160ff90911681526020016100aa565b610128604051806040016040528060058152602001640312e302e360dc1b81525081565b6040516100aa9190610894565b6100a06101433660046107fc565b610288565b6000546100c69061010090046001600160a01b031681565b6100a06103d3565b6001546100c6906001600160a01b031681565b600061018561065f565b60005461010090046001600160a01b031633146101da5760405163973d02cb60e01b815260206004820152600d60248201526c139bdd08185b18da195b5a5cdd609a1b60448201526064015b60405180910390fd5b6002546101f2906001600160a01b03163330866106d4565b60018054604051632f2cab8760e01b81526001600160a01b03858116600483015260248201879052600060448301526064820193909352911690632f2cab87906084016020604051808303816000875af1158015610254573d6000803e3d6000fd5b505050506040513d601f19601f8201168201806040525081019061027891906108ae565b90506102826107e9565b92915050565b600061029261065f565b60005461010090046001600160a01b031633146102e25760405163973d02cb60e01b815260206004820152600d60248201526c139bdd08185b18da195b5a5cdd609a1b60448201526064016101d1565b6001546102fa906001600160a01b03163330866106d4565b6001805460405163ead5d35960e01b81526001600160a01b0385811660048301526024820187905260448201939093526000928392169063ead5d3599060640160408051808303816000875af1158015610358573d6000803e3d6000fd5b505050506040513d601f19601f8201168201806040525081019061037c91906108c7565b915091508482146103c85760405163c50656df60e01b8152602060048201526015602482015274082dadeeadce840c4eae4dce840dad2e6dac2e8c6d605b1b60448201526064016101d1565b9150506102826107e9565b6001546002546000916001600160a01b03169063f57d0b409061040190600160a01b900460ff16600a6109e5565b6040518263ffffffff1660e01b815260040161041f91815260200190565b602060405180830381865afa15801561043c573d6000803e3d6000fd5b505050506040513d601f19601f8201168201806040525081019061046091906108ae565b905090565b604080516001600160a01b038481166024830152604480830185905283518084039091018152606490920183526020820180516001600160e01b031663095ea7b360e01b17905291516000928392908716916104c191906109f4565b6000604051808303816000865af19150503d80600081146104fe576040519150601f19603f3d011682016040523d82523d6000602084013e610503565b606091505b5091509150846001600160a01b03163b6000148061051f575081155b8061054657508051158015906105465750808060200190518101906105449190610a10565b155b1561056a5784828260405163e7e40b5b60e01b81526004016101d193929190610a32565b5050505050565b60408051600481526024810182526020810180516001600160e01b031663313ce56760e01b1790529051600091829182916001600160a01b038616916105b791906109f4565b600060405180830381855afa9150503d80600081146105f2576040519150601f19603f3d011682016040523d82523d6000602084013e6105f7565b606091505b5091509150836001600160a01b03163b60001480610613575081155b8061061f575060208151105b156106435783828260405163e7e40b5b60e01b81526004016101d193929190610a32565b808060200190518101906106579190610a67565b949350505050565b600160005460ff16600281111561067857610678610a8a565b146106bd5760405163c50656df60e01b8152602060048201526014602482015273131bd8dac8185b1c9958591e4818db185a5b595960621b60448201526064016101d1565b600080546002919060ff19166001835b0217905550565b604080516001600160a01b0385811660248301528481166044830152606480830185905283518084039091018152608490920183526020820180516001600160e01b03166323b872dd60e01b179052915160009283929088169161073891906109f4565b6000604051808303816000865af19150503d8060008114610775576040519150601f19603f3d011682016040523d82523d6000602084013e61077a565b606091505b5091509150856001600160a01b03163b60001480610796575081155b806107bd57508051158015906107bd5750808060200190518101906107bb9190610a10565b155b156107e15785828260405163e7e40b5b60e01b81526004016101d193929190610a32565b505050505050565b600080546001919060ff191682806106cd565b6000806040838503121561080f57600080fd5b8235915060208301356001600160a01b038116811461082d57600080fd5b809150509250929050565b60005b8381101561085357818101518382015260200161083b565b83811115610862576000848401525b50505050565b60008151808452610880816020860160208601610838565b601f01601f19169290920160200192915050565b6020815260006108a76020830184610868565b9392505050565b6000602082840312156108c057600080fd5b5051919050565b600080604083850312156108da57600080fd5b505080516020909101519092909150565b634e487b7160e01b600052601160045260246000fd5b600181815b8085111561093c578160001904821115610922576109226108eb565b8085161561092f57918102915b93841c9390800290610906565b509250929050565b60008261095357506001610282565b8161096057506000610282565b816001811461097657600281146109805761099c565b6001915050610282565b60ff841115610991576109916108eb565b50506001821b610282565b5060208310610133831016604e8410600b84101617156109bf575081810a610282565b6109c98383610901565b80600019048211156109dd576109dd6108eb565b029392505050565b60006108a760ff841683610944565b60008251610a06818460208701610838565b9190910192915050565b600060208284031215610a2257600080fd5b815180151581146108a757600080fd5b6001600160a01b03841681528215156020820152606060408201819052600090610a5e90830184610868565b95945050505050565b600060208284031215610a7957600080fd5b815160ff811681146108a757600080fd5b634e487b7160e01b600052602160045260246000fdfea26469706673582212204e058e33cb53e7601f276d0f761df52defb0ba639a7c4c3962f87cc3f9c0330264736f6c634300080d0033",
  "devdoc": {
    "errors": {
      "ERC20CallFailed(address,bool,bytes)": [
        {
          "params": {
            "data": "The resulting data from the call. This is error data when the call was not a success. Otherwise,                this is malformed data when the call was a success.",
            "success": "If the call to the token was a success.",
            "target": "The target address."
          }
        }
      ],
      "IllegalState(string)": [
        {
          "params": {
            "message": "The error message."
          }
        }
      ],
      "Unauthorized(string)": [
        {
          "params": {
            "message": "The error message."
          }
        }
      ]
    },
    "kind": "dev",
    "methods": {
      "price()": {
        "returns": {
          "_0": "The price."
        }
      },
      "unwrap(uint256,address)": {
        "params": {
          "amount": "The amount of yield-tokens to redeem.",
          "recipient": "The recipient of the resulting underlying-tokens."
        },
        "returns": {
          "_0": "The amount of underlying tokens unwrapped to `recipient`."
        }
      },
      "wrap(uint256,address)": {
        "params": {
          "amount": "The amount of the underlying token to wrap.",
          "recipient": "The address which will receive the yield tokens."
        },
        "returns": {
          "_0": "The amount of yield tokens minted to `recipient`."
        }
      }
    },
    "stateVariables": {
      "token": {
        "return": "The address of the yield token.",
        "returns": {
          "_0": "The address of the yield token."
        }
      },
      "underlyingToken": {
        "return": "The address of the underlying token.",
        "returns": {
          "_0": "The address of the underlying token."
        }
      },
      "version": {
        "return": "The version.",
        "returns": {
          "_0": "The version."
        }
      }
    },
    "version": 1
  },
  "userdoc": {
    "errors": {
      "ERC20CallFailed(address,bool,bytes)": [
        {
          "notice": "An error used to indicate that a call to an ERC20 contract failed."
        }
      ],
      "IllegalState(string)": [
        {
          "notice": "An error used to indicate that a function has encountered an unrecoverable state."
        }
      ],
      "Unauthorized(string)": [
        {
          "notice": "An error used to indicate that a message sender tried to execute a privileged function."
        }
      ]
    },
    "kind": "user",
    "methods": {
      "price()": {
        "notice": "Gets the number of underlying tokens that a single whole yield token is redeemable         for."
      },
      "token()": {
        "notice": "Gets the address of the yield token that this adapter supports."
      },
      "underlyingToken()": {
        "notice": "Gets the address of the underlying token that the yield token wraps."
      },
      "unwrap(uint256,address)": {
        "notice": "Unwraps `amount` yield tokens into the underlying token."
      },
      "version()": {
        "notice": "Gets the current version."
      },
      "wrap(uint256,address)": {
        "notice": "Wraps `amount` underlying tokens into the yield token."
      }
    },
    "version": 1
  },
  "storageLayout": {
    "storage": [
      {
        "astId": 57934,
        "contract": "submodules/v2-foundry/src/adapters/aave/AAVETokenAdapter.sol:AAVETokenAdapter",
        "label": "_lockState",
        "offset": 0,
        "slot": "0",
        "type": "t_enum(State)57928"
      },
      {
        "astId": 55663,
        "contract": "submodules/v2-foundry/src/adapters/aave/AAVETokenAdapter.sol:AAVETokenAdapter",
        "label": "alchemist",
        "offset": 1,
        "slot": "0",
        "type": "t_address"
      },
      {
        "astId": 55666,
        "contract": "submodules/v2-foundry/src/adapters/aave/AAVETokenAdapter.sol:AAVETokenAdapter",
        "label": "token",
        "offset": 0,
        "slot": "1",
        "type": "t_address"
      },
      {
        "astId": 55669,
        "contract": "submodules/v2-foundry/src/adapters/aave/AAVETokenAdapter.sol:AAVETokenAdapter",
        "label": "underlyingToken",
        "offset": 0,
        "slot": "2",
        "type": "t_address"
      },
      {
        "astId": 55671,
        "contract": "submodules/v2-foundry/src/adapters/aave/AAVETokenAdapter.sol:AAVETokenAdapter",
        "label": "tokenDecimals",
        "offset": 20,
        "slot": "2",
        "type": "t_uint8"
      }
    ],
    "types": {
      "t_address": {
        "encoding": "inplace",
        "label": "address",
        "numberOfBytes": "20"
      },
      "t_enum(State)57928": {
        "encoding": "inplace",
        "label": "enum MutexLock.State",
        "numberOfBytes": "1"
      },
      "t_uint8": {
        "encoding": "inplace",
        "label": "uint8",
        "numberOfBytes": "1"
      }
    }
  }
}