{
  "address": "0xfAAfe7143FfC553a5033131549cef6634d165693",
  "abi": [
    {
      "inputs": [
        {
          "internalType": "address",
          "name": "_connext",
          "type": "address"
        }
      ],
      "stateMutability": "nonpayable",
      "type": "constructor"
    },
    {
      "inputs": [
        {
          "internalType": "address",
          "name": "target",
          "type": "address"
        },
        {
          "internalType": "bool",
          "name": "success",
          "type": "bool"
        },
        {
          "internalType": "bytes",
          "name": "data",
          "type": "bytes"
        }
      ],
      "name": "ERC20CallFailed",
      "type": "error"
    },
    {
      "inputs": [],
      "name": "admin",
      "outputs": [
        {
          "internalType": "address",
          "name": "",
          "type": "address"
        }
      ],
      "stateMutability": "view",
      "type": "function"
    },
    {
      "inputs": [
        {
          "internalType": "address",
          "name": "",
          "type": "address"
        }
      ],
      "name": "assets",
      "outputs": [
        {
          "internalType": "address",
          "name": "",
          "type": "address"
        }
      ],
      "stateMutability": "view",
      "type": "function"
    },
    {
      "inputs": [
        {
          "internalType": "address",
          "name": "_target",
          "type": "address"
        },
        {
          "internalType": "address",
          "name": "_asset",
          "type": "address"
        },
        {
          "internalType": "uint256",
          "name": "_amount",
          "type": "uint256"
        },
        {
          "internalType": "uint32",
          "name": "_destinationDomain",
          "type": "uint32"
        },
        {
          "internalType": "uint256",
          "name": "_relayerFee",
          "type": "uint256"
        },
        {
          "internalType": "bytes",
          "name": "_callData",
          "type": "bytes"
        }
      ],
      "name": "bridgeAssets",
      "outputs": [
        {
          "internalType": "bytes32",
          "name": "",
          "type": "bytes32"
        }
      ],
      "stateMutability": "payable",
      "type": "function"
    },
    {
      "inputs": [],
      "name": "connext",
      "outputs": [
        {
          "internalType": "address",
          "name": "",
          "type": "address"
        }
      ],
      "stateMutability": "view",
      "type": "function"
    },
    {
      "inputs": [
        {
          "internalType": "address",
          "name": "nextAsset",
          "type": "address"
        },
        {
          "internalType": "address",
          "name": "alAsset",
          "type": "address"
        }
      ],
      "name": "registerAsset",
      "outputs": [],
      "stateMutability": "nonpayable",
      "type": "function"
    },
    {
      "inputs": [
        {
          "internalType": "address",
          "name": "newAdmin",
          "type": "address"
        }
      ],
      "name": "setAdmin",
      "outputs": [],
      "stateMutability": "nonpayable",
      "type": "function"
    },
    {
      "inputs": [
        {
          "internalType": "bytes32",
          "name": "_transferId",
          "type": "bytes32"
        },
        {
          "internalType": "uint256",
          "name": "_amount",
          "type": "uint256"
        },
        {
          "internalType": "address",
          "name": "_asset",
          "type": "address"
        },
        {
          "internalType": "address",
          "name": "_originSender",
          "type": "address"
        },
        {
          "internalType": "uint32",
          "name": "_origin",
          "type": "uint32"
        },
        {
          "internalType": "bytes",
          "name": "_callData",
          "type": "bytes"
        }
      ],
      "name": "xReceive",
      "outputs": [
        {
          "internalType": "bytes",
          "name": "",
          "type": "bytes"
        }
      ],
      "stateMutability": "nonpayable",
      "type": "function"
    }
  ],
  "transactionHash": "0xf386f715ca4127b373e97912fd356df5755a6dcae90546c45478f05f2b7c6e18",
  "args": [
    "0xEE9deC2712cCE65174B561151701Bf54b99C24C8"
  ],
  "solcInputHash": "578707694842f4ce919fc2832993180e",
  "bytecode": "0x60a060405234801561001057600080fd5b50604051610cce380380610cce83398101604081905261002f91610052565b6001600160a01b0316608052600080546001600160a01b03191633179055610082565b60006020828403121561006457600080fd5b81516001600160a01b038116811461007b57600080fd5b9392505050565b608051610c1d6100b16000396000818160ef015281816102630152818161029f01526104230152610c1d6000f3fe6080604052600436106100705760003560e01c8063de4b05481161004e578063de4b0548146100dd578063f11b818814610129578063f851a4401461015f578063fd614f411461017f57600080fd5b80634105c8a3146100755780634fad6bff1461009b578063704b6c02146100bd575b600080fd5b610088610083366004610835565b6101ac565b6040519081526020015b60405180910390f35b3480156100a757600080fd5b506100bb6100b63660046108f1565b610335565b005b3480156100c957600080fd5b506100bb6100d836600461092a565b6103ae565b3480156100e957600080fd5b506101117f000000000000000000000000000000000000000000000000000000000000000081565b6040516001600160a01b039091168152602001610092565b34801561013557600080fd5b5061011161014436600461092a565b6001602052600090815260409020546001600160a01b031681565b34801561016b57600080fd5b50600054610111906001600160a01b031681565b34801561018b57600080fd5b5061019f61019a366004610964565b610416565b6040516100929190610ab9565b6001600160a01b0380871660009081526001602052604081205490916101d5911689308961059f565b6001600160a01b038781166000818152600160205260409081902054905163280cf3ed60e01b81526004810192909252602482018990529091169063280cf3ed906044016020604051808303816000875af1158015610238573d6000803e3d6000fd5b505050506040513d601f19601f8201168201806040525081019061025c9190610acc565b50610288877f0000000000000000000000000000000000000000000000000000000000000000886106b4565b6040516345560b5d60e11b81526001600160a01b037f00000000000000000000000000000000000000000000000000000000000000001690638aac16ba9086906102e69089908d908d9033908e90612710908d908d90600401610ae5565b60206040518083038185885af1158015610304573d6000803e3d6000fd5b50505050506040513d601f19601f820116820180604052508101906103299190610acc565b98975050505050505050565b6000546001600160a01b031633146103805760405162461bcd60e51b81526020600482015260096024820152682737ba1030b236b4b760b91b60448201526064015b60405180910390fd5b6001600160a01b03918216600090815260016020526040902080546001600160a01b03191691909216179055565b6000546001600160a01b031633146103f45760405162461bcd60e51b81526020600482015260096024820152682737ba1030b236b4b760b91b6044820152606401610377565b600080546001600160a01b0319166001600160a01b0392909216919091179055565b6060336001600160a01b037f000000000000000000000000000000000000000000000000000000000000000016146104a85760405162461bcd60e51b815260206004820152602f60248201527f4578706563746564206f726967696e616c2063616c6c657220746f206265204360448201526e1bdb9b995e1d0818dbdb9d1c9858dd608a1b6064820152608401610377565b6001600160a01b038086166000908152600160205260409020546104cf91879116886106b4565b6001600160a01b0385811660008181526001602052604090819020549051639006a50f60e01b815260048101929092526024820189905290911690639006a50f906044016020604051808303816000875af1158015610532573d6000803e3d6000fd5b505050506040513d601f19601f820116820180604052508101906105569190610acc565b506001600160a01b03808616600090815260016020908152604090912054845161059593919091169161058f9186018101908601610b57565b886107d1565b9695505050505050565b604080516001600160a01b0385811660248301528481166044830152606480830185905283518084039091018152608490920183526020820180516001600160e01b03166323b872dd60e01b17905291516000928392908816916106039190610b74565b6000604051808303816000865af19150503d8060008114610640576040519150601f19603f3d011682016040523d82523d6000602084013e610645565b606091505b5091509150856001600160a01b03163b60001480610661575081155b8061068857508051158015906106885750808060200190518101906106869190610b90565b155b156106ac5785828260405163e7e40b5b60e01b815260040161037793929190610bb2565b505050505050565b6040516001600160a01b03838116602483015260448201839052600091829186169063095ea7b360e01b906064015b60408051601f198184030181529181526020820180516001600160e01b03166001600160e01b03199094169390931790925290516107219190610b74565b6000604051808303816000865af19150503d806000811461075e576040519150601f19603f3d011682016040523d82523d6000602084013e610763565b606091505b5091509150846001600160a01b03163b6000148061077f575081155b806107a657508051158015906107a65750808060200190518101906107a49190610b90565b155b156107ca5784828260405163e7e40b5b60e01b815260040161037793929190610bb2565b5050505050565b6040516001600160a01b03838116602483015260448201839052600091829186169063a9059cbb60e01b906064016106e3565b6001600160a01b038116811461081957600080fd5b50565b803563ffffffff8116811461083057600080fd5b919050565b600080600080600080600060c0888a03121561085057600080fd5b873561085b81610804565b9650602088013561086b81610804565b9550604088013594506108806060890161081c565b93506080880135925060a088013567ffffffffffffffff808211156108a457600080fd5b818a0191508a601f8301126108b857600080fd5b8135818111156108c757600080fd5b8b60208285010111156108d957600080fd5b60208301945080935050505092959891949750929550565b6000806040838503121561090457600080fd5b823561090f81610804565b9150602083013561091f81610804565b809150509250929050565b60006020828403121561093c57600080fd5b813561094781610804565b9392505050565b634e487b7160e01b600052604160045260246000fd5b60008060008060008060c0878903121561097d57600080fd5b8635955060208701359450604087013561099681610804565b935060608701356109a681610804565b92506109b46080880161081c565b915060a087013567ffffffffffffffff808211156109d157600080fd5b818901915089601f8301126109e557600080fd5b8135818111156109f7576109f761094e565b604051601f8201601f19908116603f01168101908382118183101715610a1f57610a1f61094e565b816040528281528c6020848701011115610a3857600080fd5b8260208601602083013760006020848301015280955050505050509295509295509295565b60005b83811015610a78578181015183820152602001610a60565b83811115610a87576000848401525b50505050565b60008151808452610aa5816020860160208601610a5d565b601f01601f19169290920160200192915050565b6020815260006109476020830184610a8d565b600060208284031215610ade57600080fd5b5051919050565b63ffffffff891681526001600160a01b0388811660208301528781166040830152861660608201526080810185905260a0810184905260e060c08201819052810182905260006101008385828501376000838501820152601f909301601f191690910190910198975050505050505050565b600060208284031215610b6957600080fd5b815161094781610804565b60008251610b86818460208701610a5d565b9190910192915050565b600060208284031215610ba257600080fd5b8151801515811461094757600080fd5b6001600160a01b03841681528215156020820152606060408201819052600090610bde90830184610a8d565b9594505050505056fea2646970667358221220b52d1285d2c50ae08a900bb2507ef0e708d96f54d2db8511e958dc9c1fe6b07b64736f6c634300080d0033",
  "devdoc": {
    "errors": {
      "ERC20CallFailed(address,bool,bytes)": [
        {
          "params": {
            "data": "The resulting data from the call. This is error data when the call was not a success. Otherwise,                this is malformed data when the call was a success.",
            "success": "If the call to the token was a success.",
            "target": "The target address."
          }
        }
      ]
    },
    "kind": "dev",
    "methods": {
      "xReceive(bytes32,uint256,address,address,uint32,bytes)": {
        "params": {
          "_callData": "Calldata containing the new greeting."
        }
      }
    },
    "title": "AlchemixConnextGateway",
    "version": 1
  },
  "userdoc": {
    "errors": {
      "ERC20CallFailed(address,bool,bytes)": [
        {
          "notice": "An error used to indicate that a call to an ERC20 contract failed."
        }
      ]
    },
    "kind": "user",
    "methods": {
      "admin()": {
        "notice": "The admin."
      },
      "xReceive(bytes32,uint256,address,address,uint32,bytes)": {
        "notice": "Authenticated receiver function."
      }
    },
    "version": 1
  },
  "storageLayout": {
    "storage": [
      {
        "astId": 58387,
        "contract": "submodules/v2-foundry/src/bridging/connext/AlchemixConnextGateway.sol:AlchemixConnextGateway",
        "label": "admin",
        "offset": 0,
        "slot": "0",
        "type": "t_address"
      },
      {
        "astId": 58393,
        "contract": "submodules/v2-foundry/src/bridging/connext/AlchemixConnextGateway.sol:AlchemixConnextGateway",
        "label": "assets",
        "offset": 0,
        "slot": "1",
        "type": "t_mapping(t_address,t_address)"
      }
    ],
    "types": {
      "t_address": {
        "encoding": "inplace",
        "label": "address",
        "numberOfBytes": "20"
      },
      "t_mapping(t_address,t_address)": {
        "encoding": "mapping",
        "key": "t_address",
        "label": "mapping(address => address)",
        "numberOfBytes": "32",
        "value": "t_address"
      }
    }
  }
}