{
  "address": "0x576bc8bce22216c30a6Fb270A7D457955Fca7e48",
  "abi": [
    {
      "inputs": [
        {
          "components": [
            {
              "internalType": "address",
              "name": "alchemist",
              "type": "address"
            },
            {
              "internalType": "address",
              "name": "token",
              "type": "address"
            },
            {
              "internalType": "address",
              "name": "underlyingToken",
              "type": "address"
            },
            {
              "internalType": "address",
              "name": "balancerVault",
              "type": "address"
            },
            {
              "internalType": "address",
              "name": "oracleWstethEth",
              "type": "address"
            }
          ],
          "internalType": "struct InitializationParams",
          "name": "params",
          "type": "tuple"
        }
      ],
      "stateMutability": "nonpayable",
      "type": "constructor"
    },
    {
      "inputs": [
        {
          "internalType": "address",
          "name": "target",
          "type": "address"
        },
        {
          "internalType": "bool",
          "name": "success",
          "type": "bool"
        },
        {
          "internalType": "bytes",
          "name": "data",
          "type": "bytes"
        }
      ],
      "name": "ERC20CallFailed",
      "type": "error"
    },
    {
      "inputs": [
        {
          "internalType": "string",
          "name": "message",
          "type": "string"
        }
      ],
      "name": "IllegalState",
      "type": "error"
    },
    {
      "inputs": [
        {
          "internalType": "string",
          "name": "message",
          "type": "string"
        }
      ],
      "name": "Unauthorized",
      "type": "error"
    },
    {
      "inputs": [],
      "name": "alchemist",
      "outputs": [
        {
          "internalType": "address",
          "name": "",
          "type": "address"
        }
      ],
      "stateMutability": "view",
      "type": "function"
    },
    {
      "inputs": [],
      "name": "balancerVault",
      "outputs": [
        {
          "internalType": "address",
          "name": "",
          "type": "address"
        }
      ],
      "stateMutability": "view",
      "type": "function"
    },
    {
      "inputs": [],
      "name": "oracleWstethEth",
      "outputs": [
        {
          "internalType": "address",
          "name": "",
          "type": "address"
        }
      ],
      "stateMutability": "view",
      "type": "function"
    },
    {
      "inputs": [],
      "name": "price",
      "outputs": [
        {
          "internalType": "uint256",
          "name": "",
          "type": "uint256"
        }
      ],
      "stateMutability": "view",
      "type": "function"
    },
    {
      "inputs": [],
      "name": "token",
      "outputs": [
        {
          "internalType": "address",
          "name": "",
          "type": "address"
        }
      ],
      "stateMutability": "view",
      "type": "function"
    },
    {
      "inputs": [],
      "name": "underlyingToken",
      "outputs": [
        {
          "internalType": "address",
          "name": "",
          "type": "address"
        }
      ],
      "stateMutability": "view",
      "type": "function"
    },
    {
      "inputs": [
        {
          "internalType": "uint256",
          "name": "amount",
          "type": "uint256"
        },
        {
          "internalType": "address",
          "name": "recipient",
          "type": "address"
        }
      ],
      "name": "unwrap",
      "outputs": [
        {
          "internalType": "uint256",
          "name": "",
          "type": "uint256"
        }
      ],
      "stateMutability": "nonpayable",
      "type": "function"
    },
    {
      "inputs": [],
      "name": "version",
      "outputs": [
        {
          "internalType": "string",
          "name": "",
          "type": "string"
        }
      ],
      "stateMutability": "view",
      "type": "function"
    },
    {
      "inputs": [
        {
          "internalType": "uint256",
          "name": "amount",
          "type": "uint256"
        },
        {
          "internalType": "address",
          "name": "recipient",
          "type": "address"
        }
      ],
      "name": "wrap",
      "outputs": [
        {
          "internalType": "uint256",
          "name": "",
          "type": "uint256"
        }
      ],
      "stateMutability": "nonpayable",
      "type": "function"
    },
    {
      "stateMutability": "payable",
      "type": "receive"
    }
  ],
  "transactionHash": "0xd7b5f0941097a464f876a49f20382266d92454079cfcd176660dbbaacc41322d",
  "args": [
    {
      "alchemist": "0x654e16a0b161b150F5d1C8a5ba6E7A7B7760703A",
      "token": "0x5979D7b546E38E414F7E9822514be443A4800529",
      "underlyingToken": "0x82aF49447D8a07e3bd95BD0d56f35241523fBab1",
      "balancerVault": "0xBA12222222228d8Ba445958a75a0704d566BF2C8",
      "oracleWstethEth": "0xb523AE262D20A936BC152e6023996e46FDC2A95D"
    }
  ],
  "solcInputHash": "8d33cd443b4cb7f026ecf38cc7c02718",
  "bytecode": "0x6000805460ff191660019081179091556101606040526005610120819052640312e312e360dc1b610140908152620000389291620000a8565b503480156200004657600080fd5b50604051620015a4380380620015a483398101604081905262000069916200016b565b80516001600160a01b0390811660809081526020830151821660a0526040830151821660c0526060830151821660e0529091015116610100526200024e565b828054620000b69062000212565b90600052602060002090601f016020900481019282620000da576000855562000125565b82601f10620000f557805160ff191683800117855562000125565b8280016001018555821562000125579182015b828111156200012557825182559160200191906001019062000108565b506200013392915062000137565b5090565b5b8082111562000133576000815560010162000138565b80516001600160a01b03811681146200016657600080fd5b919050565b600060a082840312156200017e57600080fd5b60405160a081016001600160401b0381118282101715620001af57634e487b7160e01b600052604160045260246000fd5b604052620001bd836200014e565b8152620001cd602084016200014e565b6020820152620001e0604084016200014e565b6040820152620001f3606084016200014e565b606082015262000206608084016200014e565b60808201529392505050565b600181811c908216806200022757607f821691505b6020821081036200024857634e487b7160e01b600052602260045260246000fd5b50919050565b60805160a05160c05160e0516101005161128e620003166000396000818161024a0152610ab201526000818160ce015281816101a8015281816103ce01528181610546015281816107f6015261096e015260008181609a015281816101f401528181610381015281816103ad0152818161083301528181610a040152610a7e0152600081816102e70152818161040b015281816105dc01528181610656015281816107a901526107d501526000818161029e0152818161031e0152610746015261128e6000f3fe60806040526004361061008a5760003560e01c80636d39c0e4116100595780636d39c0e4146102385780637647691d1461026c5780638de925f61461028c578063a035b1fe146102c0578063fc0c546a146102d557600080fd5b806313bac82014610163578063158274a5146101965780632495a599146101e257806354fd4d501461021657600080fd5b3661015e57336001600160a01b037f000000000000000000000000000000000000000000000000000000000000000016148015906100f15750336001600160a01b037f00000000000000000000000000000000000000000000000000000000000000001614155b1561015c5760405163973d02cb60e01b815260206004820152602f60248201527f5061796d656e7473206f6e6c79207065726d69747465642066726f6d2057455460448201526e12081bdc8818dd5c9d99481c1bdbdb608a1b60648201526084015b60405180910390fd5b005b600080fd5b34801561016f57600080fd5b5061018361017e366004610f58565b610309565b6040519081526020015b60405180910390f35b3480156101a257600080fd5b506101ca7f000000000000000000000000000000000000000000000000000000000000000081565b6040516001600160a01b03909116815260200161018d565b3480156101ee57600080fd5b506101ca7f000000000000000000000000000000000000000000000000000000000000000081565b34801561022257600080fd5b5061022b6106a3565b60405161018d9190610ff0565b34801561024457600080fd5b506101ca7f000000000000000000000000000000000000000000000000000000000000000081565b34801561027857600080fd5b50610183610287366004610f58565b610731565b34801561029857600080fd5b506101ca7f000000000000000000000000000000000000000000000000000000000000000081565b3480156102cc57600080fd5b50610183610aa8565b3480156102e157600080fd5b506101ca7f000000000000000000000000000000000000000000000000000000000000000081565b6000610313610c95565b336001600160a01b037f0000000000000000000000000000000000000000000000000000000000000000161461037c5760405163973d02cb60e01b815260206004820152600d60248201526c139bdd08185b18da195b5a5cdd609a1b6044820152606401610153565b6103a87f0000000000000000000000000000000000000000000000000000000000000000333086610d0a565b6103f37f00000000000000000000000000000000000000000000000000000000000000007f000000000000000000000000000000000000000000000000000000000000000085610e0a565b6040516370a0823160e01b81523060048201526000907f00000000000000000000000000000000000000000000000000000000000000006001600160a01b0316906370a0823190602401602060405180830381865afa15801561045a573d6000803e3d6000fd5b505050506040513d601f19601f8201168201806040525081019061047e919061100a565b6040805160c0810182527ffb5e6d0c1dfed2ba000fbc040ab8df3615ac329c0000000000000000000001598152600060208083018290527382af49447d8a07e3bd95bd0d56f35241523fbab183850152735979d7b546e38e414f7e9822514be443a480052960608085019190915260808085018b9052855180870187526002815261060f60f31b8185015260a0860152855190810186523080825292810184905280860192909252810182905292516352bbbe2960e01b815293945090926001600160a01b037f000000000000000000000000000000000000000000000000000000000000000016916352bbbe29916105809186918691904290600401611039565b6020604051808303816000875af115801561059f573d6000803e3d6000fd5b505050506040513d601f19601f820116820180604052508101906105c3919061100a565b506040516370a0823160e01b81523060048201526000907f00000000000000000000000000000000000000000000000000000000000000006001600160a01b0316906370a0823190602401602060405180830381865afa15801561062b573d6000803e3d6000fd5b505050506040513d601f19601f8201168201806040525081019061064f919061100a565b90506106857f0000000000000000000000000000000000000000000000000000000000000000876106808785611117565b610f12565b61068f8482611117565b94505050505061069d610f45565b92915050565b600180546106b09061113c565b80601f01602080910402602001604051908101604052809291908181526020018280546106dc9061113c565b80156107295780601f106106fe57610100808354040283529160200191610729565b820191906000526020600020905b81548152906001019060200180831161070c57829003601f168201915b505050505081565b600061073b610c95565b336001600160a01b037f000000000000000000000000000000000000000000000000000000000000000016146107a45760405163973d02cb60e01b815260206004820152600d60248201526c139bdd08185b18da195b5a5cdd609a1b6044820152606401610153565b6107d07f0000000000000000000000000000000000000000000000000000000000000000333086610d0a565b61081b7f00000000000000000000000000000000000000000000000000000000000000007f000000000000000000000000000000000000000000000000000000000000000085610e0a565b6040516370a0823160e01b81523060048201526000907f00000000000000000000000000000000000000000000000000000000000000006001600160a01b0316906370a0823190602401602060405180830381865afa158015610882573d6000803e3d6000fd5b505050506040513d601f19601f820116820180604052508101906108a6919061100a565b6040805160c0810182527ffb5e6d0c1dfed2ba000fbc040ab8df3615ac329c000000000000000000000159815260006020808301829052735979d7b546e38e414f7e9822514be443a4800529838501527382af49447d8a07e3bd95bd0d56f35241523fbab160608085019190915260808085018b9052855180870187526002815261060f60f31b8185015260a0860152855190810186523080825292810184905280860192909252810182905292516352bbbe2960e01b815293945090926001600160a01b037f000000000000000000000000000000000000000000000000000000000000000016916352bbbe29916109a89186918691904290600401611039565b6020604051808303816000875af11580156109c7573d6000803e3d6000fd5b505050506040513d601f19601f820116820180604052508101906109eb919061100a565b506040516370a0823160e01b81523060048201526000907f00000000000000000000000000000000000000000000000000000000000000006001600160a01b0316906370a0823190602401602060405180830381865afa158015610a53573d6000803e3d6000fd5b505050506040513d601f19601f82011682018060405250810190610a77919061100a565b90506106857f0000000000000000000000000000000000000000000000000000000000000000876106808785611117565b60008060008060007f00000000000000000000000000000000000000000000000000000000000000006001600160a01b031663feaf968c6040518163ffffffff1660e01b815260040160a060405180830381865afa158015610b0e573d6000803e3d6000fd5b505050506040513d601f19601f82011682018060405250810190610b329190611195565b9450945050935093508369ffffffffffffffffffff168169ffffffffffffffffffff161015610b9b5760405162461bcd60e51b8152602060048201526015602482015274436861696e6c696e6b205072696365205374616c6560581b6044820152606401610153565b60008313610be35760405162461bcd60e51b815260206004820152601560248201527421b430b4b73634b7359026b0b6333ab731ba34b7b760591b6044820152606401610153565b81600003610c265760405162461bcd60e51b815260206004820152601060248201526f125b98dbdb5c1b195d19481c9bdd5b9960821b6044820152606401610153565b610c336201518042611117565b821015610c705760405162461bcd60e51b815260206004820152600b60248201526a5374616c6520507269636560a81b6044820152606401610153565b671bc16d674ec80000831315610c8c57671bc16d674ec8000092505b50909392505050565b600160005460ff166002811115610cae57610cae611023565b14610cf35760405163c50656df60e01b8152602060048201526014602482015273131bd8dac8185b1c9958591e4818db185a5b595960621b6044820152606401610153565b600080546002919060ff19166001835b0217905550565b604080516001600160a01b0385811660248301528481166044830152606480830185905283518084039091018152608490920183526020820180516001600160e01b03166323b872dd60e01b1790529151600092839290881691610d6e91906111e5565b6000604051808303816000865af19150503d8060008114610dab576040519150601f19603f3d011682016040523d82523d6000602084013e610db0565b606091505b5091509150811580610dde5750805115801590610dde575080806020019051810190610ddc9190611201565b155b15610e025785828260405163e7e40b5b60e01b815260040161015393929190611223565b505050505050565b6040516001600160a01b03838116602483015260448201839052600091829186169063095ea7b360e01b906064015b60408051601f198184030181529181526020820180516001600160e01b03166001600160e01b0319909416939093179092529051610e7791906111e5565b6000604051808303816000865af19150503d8060008114610eb4576040519150601f19603f3d011682016040523d82523d6000602084013e610eb9565b606091505b5091509150811580610ee75750805115801590610ee7575080806020019051810190610ee59190611201565b155b15610f0b5784828260405163e7e40b5b60e01b815260040161015393929190611223565b5050505050565b6040516001600160a01b03838116602483015260448201839052600091829186169063a9059cbb60e01b90606401610e39565b600080546001919060ff19168280610d03565b60008060408385031215610f6b57600080fd5b8235915060208301356001600160a01b0381168114610f8957600080fd5b809150509250929050565b60005b83811015610faf578181015183820152602001610f97565b83811115610fbe576000848401525b50505050565b60008151808452610fdc816020860160208601610f94565b601f01601f19169290920160200192915050565b6020815260006110036020830184610fc4565b9392505050565b60006020828403121561101c57600080fd5b5051919050565b634e487b7160e01b600052602160045260246000fd5b60e08152845160e0820152600060208601516002811061106957634e487b7160e01b600052602160045260246000fd5b61010083015260408601516001600160a01b0316610120830152606086015161109e6101408401826001600160a01b03169052565b50608086015161016083015260a086015160c06101808401526110c56101a0840182610fc4565b915050611105602083018680516001600160a01b039081168352602080830151151590840152604080830151909116908301526060908101511515910152565b60a082019390935260c0015292915050565b60008282101561113757634e487b7160e01b600052601160045260246000fd5b500390565b600181811c9082168061115057607f821691505b60208210810361117057634e487b7160e01b600052602260045260246000fd5b50919050565b805169ffffffffffffffffffff8116811461119057600080fd5b919050565b600080600080600060a086880312156111ad57600080fd5b6111b686611176565b94506020860151935060408601519250606086015191506111d960808701611176565b90509295509295909350565b600082516111f7818460208701610f94565b9190910192915050565b60006020828403121561121357600080fd5b8151801515811461100357600080fd5b6001600160a01b0384168152821515602082015260606040820181905260009061124f90830184610fc4565b9594505050505056fea2646970667358221220d2a4cd5b6e253df5da73d70489394f7fdc90bde5415457f136c27f29a126e13364736f6c634300080d0033",
  "devdoc": {
    "errors": {
      "ERC20CallFailed(address,bool,bytes)": [
        {
          "params": {
            "data": "The resulting data from the call. This is error data when the call was not a                success. Otherwise, this is malformed data when the call was a success.",
            "success": "If the call to the token was a success.",
            "target": "The target address."
          }
        }
      ],
      "IllegalState(string)": [
        {
          "params": {
            "message": "The error message."
          }
        }
      ],
      "Unauthorized(string)": [
        {
          "params": {
            "message": "The error message."
          }
        }
      ]
    },
    "kind": "dev",
    "methods": {
      "price()": {
        "returns": {
          "_0": "The price."
        }
      },
      "unwrap(uint256,address)": {
        "params": {
          "amount": "The amount of yield-tokens to redeem.",
          "recipient": "The recipient of the resulting underlying-tokens."
        },
        "returns": {
          "_0": "The amount of underlying tokens unwrapped to `recipient`."
        }
      },
      "wrap(uint256,address)": {
        "params": {
          "amount": "The amount of the underlying token to wrap.",
          "recipient": "The address which will receive the yield tokens."
        },
        "returns": {
          "_0": "The amount of yield tokens minted to `recipient`."
        }
      }
    },
    "stateVariables": {
      "token": {
        "return": "The address of the yield token.",
        "returns": {
          "_0": "The address of the yield token."
        }
      },
      "underlyingToken": {
        "return": "The address of the underlying token.",
        "returns": {
          "_0": "The address of the underlying token."
        }
      },
      "version": {
        "return": "The version.",
        "returns": {
          "_0": "The version."
        }
      }
    },
    "version": 1
  },
  "userdoc": {
    "errors": {
      "ERC20CallFailed(address,bool,bytes)": [
        {
          "notice": "An error used to indicate that a call to an ERC20 contract failed."
        }
      ],
      "IllegalState(string)": [
        {
          "notice": "An error used to indicate that a function has encountered an unrecoverable state."
        }
      ],
      "Unauthorized(string)": [
        {
          "notice": "An error used to indicate that a message sender tried to execute a privileged function."
        }
      ]
    },
    "kind": "user",
    "methods": {
      "price()": {
        "notice": "Gets the number of underlying tokens that a single whole yield token is redeemable         for."
      },
      "token()": {
        "notice": "Gets the address of the yield token that this adapter supports."
      },
      "underlyingToken()": {
        "notice": "Gets the address of the underlying token that the yield token wraps."
      },
      "unwrap(uint256,address)": {
        "notice": "Unwraps `amount` yield tokens into the underlying token."
      },
      "version()": {
        "notice": "Gets the current version."
      },
      "wrap(uint256,address)": {
        "notice": "Wraps `amount` underlying tokens into the yield token."
      }
    },
    "version": 1
  },
  "storageLayout": {
    "storage": [
      {
        "astId": 56272,
        "contract": "submodules/v2-foundry/src/adapters/lido/WstETHAdapterArbitrum.sol:WstETHAdapterArbitrum",
        "label": "_lockState",
        "offset": 0,
        "slot": "0",
        "type": "t_enum(State)56266"
      },
      {
        "astId": 54103,
        "contract": "submodules/v2-foundry/src/adapters/lido/WstETHAdapterArbitrum.sol:WstETHAdapterArbitrum",
        "label": "version",
        "offset": 0,
        "slot": "1",
        "type": "t_string_storage"
      }
    ],
    "types": {
      "t_enum(State)56266": {
        "encoding": "inplace",
        "label": "enum MutexLock.State",
        "numberOfBytes": "1"
      },
      "t_string_storage": {
        "encoding": "bytes",
        "label": "string",
        "numberOfBytes": "32"
      }
    }
  }
}