{
  "address": "0x485aF43F7ED4257777A25cAB7eA3C4fa6BAa68BF",
  "abi": [
    {
      "inputs": [],
      "stateMutability": "nonpayable",
      "type": "constructor"
    },
    {
      "inputs": [],
      "name": "HarvestJobDoesNotExist",
      "type": "error"
    },
    {
      "inputs": [],
      "name": "IllegalArgument",
      "type": "error"
    },
    {
      "inputs": [
        {
          "internalType": "string",
          "name": "message",
          "type": "string"
        }
      ],
      "name": "IllegalState",
      "type": "error"
    },
    {
      "inputs": [
        {
          "internalType": "string",
          "name": "message",
          "type": "string"
        }
      ],
      "name": "Unauthorized",
      "type": "error"
    },
    {
      "inputs": [],
      "name": "YieldTokenDisabled",
      "type": "error"
    },
    {
      "anonymous": false,
      "inputs": [
        {
          "indexed": true,
          "internalType": "address",
          "name": "previousOwner",
          "type": "address"
        },
        {
          "indexed": true,
          "internalType": "address",
          "name": "newOwner",
          "type": "address"
        }
      ],
      "name": "OwnershipTransferred",
      "type": "event"
    },
    {
      "anonymous": false,
      "inputs": [
        {
          "indexed": false,
          "internalType": "address",
          "name": "yieldToken",
          "type": "address"
        }
      ],
      "name": "RecordHarvest",
      "type": "event"
    },
    {
      "anonymous": false,
      "inputs": [
        {
          "indexed": false,
          "internalType": "address",
          "name": "yieldToken",
          "type": "address"
        }
      ],
      "name": "RemoveHarvestJob",
      "type": "event"
    },
    {
      "anonymous": false,
      "inputs": [
        {
          "indexed": false,
          "internalType": "bool",
          "name": "active",
          "type": "bool"
        },
        {
          "indexed": false,
          "internalType": "address",
          "name": "alchemist",
          "type": "address"
        },
        {
          "indexed": false,
          "internalType": "address",
          "name": "rewardCollector",
          "type": "address"
        },
        {
          "indexed": false,
          "internalType": "address",
          "name": "staticToken",
          "type": "address"
        },
        {
          "indexed": false,
          "internalType": "address",
          "name": "yieldToken",
          "type": "address"
        },
        {
          "indexed": false,
          "internalType": "uint256",
          "name": "minimumHarvestAmount",
          "type": "uint256"
        },
        {
          "indexed": false,
          "internalType": "uint256",
          "name": "minimumDelay",
          "type": "uint256"
        },
        {
          "indexed": false,
          "internalType": "uint256",
          "name": "slippageBps",
          "type": "uint256"
        }
      ],
      "name": "SetHarvestJob",
      "type": "event"
    },
    {
      "anonymous": false,
      "inputs": [
        {
          "indexed": false,
          "internalType": "address",
          "name": "harvester",
          "type": "address"
        },
        {
          "indexed": false,
          "internalType": "bool",
          "name": "status",
          "type": "bool"
        }
      ],
      "name": "SetHarvester",
      "type": "event"
    },
    {
      "inputs": [],
      "name": "SLIPPAGE_PRECISION",
      "outputs": [
        {
          "internalType": "uint256",
          "name": "",
          "type": "uint256"
        }
      ],
      "stateMutability": "view",
      "type": "function"
    },
    {
      "inputs": [
        {
          "internalType": "bool",
          "name": "active",
          "type": "bool"
        },
        {
          "internalType": "address",
          "name": "alchemist",
          "type": "address"
        },
        {
          "internalType": "address",
          "name": "rewardCollector",
          "type": "address"
        },
        {
          "internalType": "address",
          "name": "staticToken",
          "type": "address"
        },
        {
          "internalType": "address",
          "name": "aaveToken",
          "type": "address"
        },
        {
          "internalType": "uint256",
          "name": "minimumHarvestAmount",
          "type": "uint256"
        },
        {
          "internalType": "uint256",
          "name": "minimumDelay",
          "type": "uint256"
        },
        {
          "internalType": "uint256",
          "name": "slippageBps",
          "type": "uint256"
        }
      ],
      "name": "addHarvestJob",
      "outputs": [],
      "stateMutability": "nonpayable",
      "type": "function"
    },
    {
      "inputs": [],
      "name": "checker",
      "outputs": [
        {
          "internalType": "bool",
          "name": "canExec",
          "type": "bool"
        },
        {
          "internalType": "bytes",
          "name": "execPayload",
          "type": "bytes"
        }
      ],
      "stateMutability": "view",
      "type": "function"
    },
    {
      "inputs": [
        {
          "internalType": "address",
          "name": "",
          "type": "address"
        }
      ],
      "name": "harvestJobs",
      "outputs": [
        {
          "internalType": "bool",
          "name": "active",
          "type": "bool"
        },
        {
          "internalType": "address",
          "name": "alchemist",
          "type": "address"
        },
        {
          "internalType": "address",
          "name": "rewardCollector",
          "type": "address"
        },
        {
          "internalType": "address",
          "name": "aaveToken",
          "type": "address"
        },
        {
          "internalType": "uint256",
          "name": "lastHarvest",
          "type": "uint256"
        },
        {
          "internalType": "uint256",
          "name": "minimumHarvestAmount",
          "type": "uint256"
        },
        {
          "internalType": "uint256",
          "name": "minimumDelay",
          "type": "uint256"
        },
        {
          "internalType": "uint256",
          "name": "slippageBps",
          "type": "uint256"
        }
      ],
      "stateMutability": "view",
      "type": "function"
    },
    {
      "inputs": [
        {
          "internalType": "address",
          "name": "",
          "type": "address"
        }
      ],
      "name": "harvesters",
      "outputs": [
        {
          "internalType": "bool",
          "name": "",
          "type": "bool"
        }
      ],
      "stateMutability": "view",
      "type": "function"
    },
    {
      "inputs": [],
      "name": "owner",
      "outputs": [
        {
          "internalType": "address",
          "name": "",
          "type": "address"
        }
      ],
      "stateMutability": "view",
      "type": "function"
    },
    {
      "inputs": [],
      "name": "paused",
      "outputs": [
        {
          "internalType": "bool",
          "name": "",
          "type": "bool"
        }
      ],
      "stateMutability": "view",
      "type": "function"
    },
    {
      "inputs": [
        {
          "internalType": "address",
          "name": "yieldToken",
          "type": "address"
        }
      ],
      "name": "recordHarvest",
      "outputs": [],
      "stateMutability": "nonpayable",
      "type": "function"
    },
    {
      "inputs": [
        {
          "internalType": "address",
          "name": "token",
          "type": "address"
        }
      ],
      "name": "recoverFunds",
      "outputs": [],
      "stateMutability": "nonpayable",
      "type": "function"
    },
    {
      "inputs": [
        {
          "internalType": "address",
          "name": "yieldToken",
          "type": "address"
        }
      ],
      "name": "removeHarvestJob",
      "outputs": [],
      "stateMutability": "nonpayable",
      "type": "function"
    },
    {
      "inputs": [],
      "name": "renounceOwnership",
      "outputs": [],
      "stateMutability": "nonpayable",
      "type": "function"
    },
    {
      "inputs": [
        {
          "internalType": "address",
          "name": "yieldToken",
          "type": "address"
        },
        {
          "internalType": "bool",
          "name": "active",
          "type": "bool"
        }
      ],
      "name": "setActive",
      "outputs": [],
      "stateMutability": "nonpayable",
      "type": "function"
    },
    {
      "inputs": [
        {
          "internalType": "address",
          "name": "yieldToken",
          "type": "address"
        },
        {
          "internalType": "address",
          "name": "alchemist",
          "type": "address"
        }
      ],
      "name": "setAlchemist",
      "outputs": [],
      "stateMutability": "nonpayable",
      "type": "function"
    },
    {
      "inputs": [
        {
          "internalType": "address",
          "name": "harvester",
          "type": "address"
        },
        {
          "internalType": "bool",
          "name": "status",
          "type": "bool"
        }
      ],
      "name": "setHarvester",
      "outputs": [],
      "stateMutability": "nonpayable",
      "type": "function"
    },
    {
      "inputs": [
        {
          "internalType": "address",
          "name": "yieldToken",
          "type": "address"
        },
        {
          "internalType": "uint256",
          "name": "minimumDelay",
          "type": "uint256"
        }
      ],
      "name": "setMinimumDelay",
      "outputs": [],
      "stateMutability": "nonpayable",
      "type": "function"
    },
    {
      "inputs": [
        {
          "internalType": "address",
          "name": "yieldToken",
          "type": "address"
        },
        {
          "internalType": "uint256",
          "name": "minimumHarvestAmount",
          "type": "uint256"
        }
      ],
      "name": "setMinimumHarvestAmount",
      "outputs": [],
      "stateMutability": "nonpayable",
      "type": "function"
    },
    {
      "inputs": [
        {
          "internalType": "bool",
          "name": "pauseState",
          "type": "bool"
        }
      ],
      "name": "setPause",
      "outputs": [],
      "stateMutability": "nonpayable",
      "type": "function"
    },
    {
      "inputs": [
        {
          "internalType": "address",
          "name": "yieldToken",
          "type": "address"
        },
        {
          "internalType": "address",
          "name": "rewardCollector",
          "type": "address"
        }
      ],
      "name": "setRewardCollector",
      "outputs": [],
      "stateMutability": "nonpayable",
      "type": "function"
    },
    {
      "inputs": [
        {
          "internalType": "address",
          "name": "yieldToken",
          "type": "address"
        },
        {
          "internalType": "uint256",
          "name": "slippageBps",
          "type": "uint256"
        }
      ],
      "name": "setSlippageBps",
      "outputs": [],
      "stateMutability": "nonpayable",
      "type": "function"
    },
    {
      "inputs": [
        {
          "internalType": "address",
          "name": "newOwner",
          "type": "address"
        }
      ],
      "name": "transferOwnership",
      "outputs": [],
      "stateMutability": "nonpayable",
      "type": "function"
    },
    {
      "inputs": [
        {
          "internalType": "uint256",
          "name": "",
          "type": "uint256"
        }
      ],
      "name": "yieldTokens",
      "outputs": [
        {
          "internalType": "address",
          "name": "",
          "type": "address"
        }
      ],
      "stateMutability": "view",
      "type": "function"
    }
  ],
  "transactionHash": "0x7738b79f7ae1e68b9b0e330264d675d13aab442207695d67c4ff565c8622e5ab",
  "args": [],
  "solcInputHash": "0a82260d811bcf985c3985c652b2633e",
  "bytecode": "0x608060405234801561001057600080fd5b5061001a3361001f565b61006f565b600080546001600160a01b038381166001600160a01b0319831681178455604051919092169283917f8be0079c531659141344cd1fd0a4f28419497f9722a3daafe3b4186f6b6457e09190a35050565b611ba78061007e6000396000f3fe608060405234801561001057600080fd5b50600436106101375760003560e01c806387976583116100b8578063b73cc2a31161007c578063b73cc2a314610289578063bedb86fb1461029c578063cf5303cf146102af578063e635d5f2146102c5578063e72f6e3014610372578063f2fde38b1461038557600080fd5b8063879765831461021c5780638da5cb5b1461023f578063af9d98a914610250578063b018895c14610263578063b22360211461027657600080fd5b8063453943f0116100ff578063453943f01461019d578063539efd4b146101b95780635c975abb146101e45780636c7be33714610201578063715018a61461021457600080fd5b80630bca88691461013c5780631b2399ae146101515780632ce962cf1461016457806331b7105714610177578063410dd1971461018a575b600080fd5b61014f61014a3660046115da565b610398565b005b61014f61015f366004611614565b6103bf565b61014f61017236600461169e565b610708565b61014f61018536600461169e565b61073b565b61014f6101983660046116d7565b6107a7565b6101a661271081565b6040519081526020015b60405180910390f35b6101cc6101c7366004611705565b6107e7565b6040516001600160a01b0390911681526020016101b0565b6003546101f19060ff1681565b60405190151581526020016101b0565b61014f61020f3660046116d7565b610811565b61014f6108e6565b6101f161022a36600461171e565b60046020526000908152604090205460ff1681565b6000546001600160a01b03166101cc565b61014f61025e36600461171e565b6108fa565b61014f6102713660046115da565b6109b5565b61014f61028436600461171e565b6109dc565b61014f6102973660046115da565b610bc0565b61014f6102aa366004611742565b610be7565b6102b7610c02565b6040516101b092919061175f565b6103266102d336600461171e565b6002602081905260009182526040909120805460018201549282015460038301546004840154600585015460069095015460ff8516966101009095046001600160a01b0390811696958116959416939088565b6040805198151589526001600160a01b0397881660208a015295871695880195909552949092166060860152608085015260a084015260c083019190915260e0820152610100016101b0565b61014f61038036600461171e565b61136c565b61014f61039336600461171e565b611455565b6103a06114ce565b6001600160a01b03909116600090815260026020526040902060060155565b6103c76114ce565b604051635a5efc8b60e01b81526001600160a01b03868116600483015260009190891690635a5efc8b906024016101e060405180830381865afa158015610412573d6000803e3d6000fd5b505050506040513d601f19601f820116820180604052508101906104369190611822565b9050806101c0015161045b576040516303e75d1560e21b815260040160405180910390fd5b61271082111561047e57604051630134249960e71b815260040160405180910390fd5b6040518061010001604052808a15158152602001896001600160a01b03168152602001886001600160a01b03168152602001866001600160a01b031681526020014281526020018581526020018481526020018381525060026000886001600160a01b03166001600160a01b0316815260200190815260200160002060008201518160000160006101000a81548160ff02191690831515021790555060208201518160000160016101000a8154816001600160a01b0302191690836001600160a01b0316021790555060408201518160010160006101000a8154816001600160a01b0302191690836001600160a01b0316021790555060608201518160020160006101000a8154816001600160a01b0302191690836001600160a01b031602179055506080820151816003015560a0820151816004015560c0820151816005015560e082015181600601559050507f27e683103e050172f279382e1fb20760c40be97ca3f1c8c34c29c2388970b415898989898989898960405161064c98979695949392919097151588526001600160a01b039687166020890152948616604088015292851660608701529316608085015260a084019290925260c083019190915260e08201526101000190565b60405180910390a160005b6001548110156106b157866001600160a01b03166001828154811061067e5761067e6118f7565b6000918252602090912001546001600160a01b03160361069f5750506106fe565b806106a981611923565b915050610657565b50506001805480820182556000919091527fb10e2d527612073b26eecdfd717e6a320cf44b4afac2b0732d9fcbe2b7fa0cf60180546001600160a01b0319166001600160a01b0387161790555b5050505050505050565b6107106114ce565b6001600160a01b03919091166000908152600260205260409020805460ff1916911515919091179055565b6107436114ce565b6001600160a01b038216600081815260046020908152604091829020805460ff19168515159081179091558251938452908301527fffbdc28f0395f8dd81699928814abd1846ddbad638fe3482c8375836a4e9825291015b60405180910390a15050565b6107af6114ce565b6001600160a01b03918216600090815260026020526040902080549290911661010002610100600160a81b0319909216919091179055565b600181815481106107f757600080fd5b6000918252602090912001546001600160a01b0316905081565b6108196114ce565b604051635a5efc8b60e01b81526001600160a01b03838116600483015260009190831690635a5efc8b906024016101e060405180830381865afa158015610864573d6000803e3d6000fd5b505050506040513d601f19601f820116820180604052508101906108889190611822565b9050806101c001516108ad576040516303e75d1560e21b815260040160405180910390fd5b506001600160a01b03918216600090815260026020526040902080549290911661010002610100600160a81b0319909216919091179055565b6108ee6114ce565b6108f86000611528565b565b3360009081526004602052604090205460ff1661095f5760405163973d02cb60e01b815260206004820152601b60248201527f43616c6c6572206973206e6f742074686520686172766573746572000000000060448201526064015b60405180910390fd5b6001600160a01b0381166000818152600260209081526040918290204260039091015590519182527f549d5a8cc9d7d0d28c5c93782ae549548749ec3884c725765a8570597d6a13f8910160405180910390a150565b6109bd6114ce565b6001600160a01b03909116600090815260026020526040902060050155565b6109e46114ce565b60001960005b600154811015610a4957826001600160a01b031660018281548110610a1157610a116118f7565b6000918252602090912001546001600160a01b031603610a3757610a3481611578565b91505b80610a4181611923565b9150506109ea565b50600019811315610ba3576001600160a01b0382166000908152600260208190526040822080546001600160a81b0319168155600180820180546001600160a01b03199081169091559282018054909316909255600381018390556004810183905560058101839055600601919091558054610ac690829061193c565b81548110610ad657610ad66118f7565b6000918252602090912001546001600160a01b03166001610af6836115a2565b81548110610b0657610b066118f7565b9060005260206000200160006101000a8154816001600160a01b0302191690836001600160a01b031602179055506001805480610b4557610b45611953565b6000828152602090819020600019908301810180546001600160a01b03191690559091019091556040516001600160a01b03841681527fdd2f9126294675e89c6ca967164843d07ab1cc694b6812112c89c6ae64eed7c7910161079b565b604051630658884760e41b815260040160405180910390fd5b5050565b610bc86114ce565b6001600160a01b03909116600090815260026020526040902060040155565b610bef6114ce565b6003805460ff1916911515919091179055565b60035460009060609060ff1615610c3a576040805160006020820181905291015b604051602081830303815290604052915091509091565b60005b60015481101561135757600060018281548110610c5c57610c5c6118f7565b60009182526020808320909101546001600160a01b03908116808452600280845260409485902085516101008181018852825460ff81161580158452919004861696820196909652600182015485169681019690965290810154909216606085015260038201546080850152600482015460a0850152600582015460c085015260069091015460e08401529250611342576020810151604051635a5efc8b60e01b81526001600160a01b0384811660048301526000921690635a5efc8b906024016101e060405180830381865afa158015610d3b573d6000803e3d6000fd5b505050506040513d601f19601f82011682018060405250810190610d5f9190611822565b9050806101c001511561134057600081604001516001600160a01b031663a035b1fe6040518163ffffffff1660e01b8152600401602060405180830381865afa158015610db0573d6000803e3d6000fd5b505050506040513d601f19601f82011682018060405250810190610dd49190611969565b8251909150600090610de790600a611a68565b828460e001518560c00151610dfc9190611a77565b610e069190611a8f565b610e109190611aae565b90508360c001518460800151610e269190611a77565b4210158015610e4857508360a00151836101200151610e459190611a77565b81115b1561133d57600083610120015182610e60919061193c565b90506127108560e0015182610e759190611a8f565b610e7f9190611aae565b610e89908261193c565b604080516001808252818301909252919250600091829160208083019080368337019050509050866060015181600081518110610ec857610ec86118f7565b60200260200101906001600160a01b031690816001600160a01b031681525050600073929ec64c34a17401f460460d4b9390518e5b473e6001600160a01b03166370674ab9838b8b604001516001600160a01b031663f7c618c16040518163ffffffff1660e01b8152600401602060405180830381865afa158015610f51573d6000803e3d6000fd5b505050506040513d601f19601f82011682018060405250810190610f759190611ad0565b6040518463ffffffff1660e01b8152600401610f9393929190611aed565b602060405180830381865afa158015610fb0573d6000803e3d6000fd5b505050506040513d601f19601f82011682018060405250810190610fd49190611969565b905087604001516001600160a01b031663f8d898986040518163ffffffff1660e01b8152600401602060405180830381865afa158015611018573d6000803e3d6000fd5b505050506040513d601f19601f8201168201806040525081019061103c9190611ad0565b6001600160a01b031673cb8fa9a76b8e203d8c3797bf438d8fb81ea3326a036110f5576305f5e100730d276fc14719f9292d5c1ea2198673d1f42692466001600160a01b03166350d25bcd6040518163ffffffff1660e01b8152600401602060405180830381865afa1580156110b6573d6000803e3d6000fd5b505050506040513d601f19601f820116820180604052508101906110da9190611969565b6110e49083611a8f565b6110ee9190611aae565b92506112a3565b87604001516001600160a01b031663f8d898986040518163ffffffff1660e01b8152600401602060405180830381865afa158015611137573d6000803e3d6000fd5b505050506040513d601f19601f8201168201806040525081019061115b9190611ad0565b6001600160a01b0316733e29d3a9316dab217754d13b28646b76607c5f0403611246577313e3ee699d1909e989722e753853ae30b17e08c56001600160a01b03166350d25bcd6040518163ffffffff1660e01b8152600401602060405180830381865afa1580156111d0573d6000803e3d6000fd5b505050506040513d601f19601f820116820180604052508101906111f49190611969565b730d276fc14719f9292d5c1ea2198673d1f42692466001600160a01b03166350d25bcd6040518163ffffffff1660e01b8152600401602060405180830381865afa1580156110b6573d6000803e3d6000fd5b60405163c50656df60e01b815260206004820152602b60248201527f526577617264436f6c6c6563746f72206465627420746f6b656e206973206e6f60448201526a1d081cdd5c1c1bdc9d195960aa1b6064820152608401610956565b6020880151600190631307f59b60e11b908b876127106112c5896126ac611a8f565b6112cf9190611aae565b6040516001600160a01b0394851660248201529390921660448401526064830152608482015260a40160408051601f198184030181529190526020810180516001600160e01b03166001600160e01b031990931692909217909152909d909c509a5050505050505050505050565b50505b505b5050808061134f90611923565b915050610c3d565b50604080516000602082018190529101610c23565b6113746114ce565b6040516370a0823160e01b81523060048201526001600160a01b0382169063a9059cbb90339083906370a0823190602401602060405180830381865afa1580156113c2573d6000803e3d6000fd5b505050506040513d601f19601f820116820180604052508101906113e69190611969565b6040516001600160e01b031960e085901b1681526001600160a01b03909216600483015260248201526044016020604051808303816000875af1158015611431573d6000803e3d6000fd5b505050506040513d601f19601f82011682018060405250810190610bbc9190611b54565b61145d6114ce565b6001600160a01b0381166114c25760405162461bcd60e51b815260206004820152602660248201527f4f776e61626c653a206e6577206f776e657220697320746865207a65726f206160448201526564647265737360d01b6064820152608401610956565b6114cb81611528565b50565b6000546001600160a01b031633146108f85760405162461bcd60e51b815260206004820181905260248201527f4f776e61626c653a2063616c6c6572206973206e6f7420746865206f776e65726044820152606401610956565b600080546001600160a01b038381166001600160a01b0319831681178455604051919092169283917f8be0079c531659141344cd1fd0a4f28419497f9722a3daafe3b4186f6b6457e09190a35050565b6000600160ff1b821061159e57604051630134249960e71b815260040160405180910390fd5b5090565b60008082121561159e57604051630134249960e71b815260040160405180910390fd5b6001600160a01b03811681146114cb57600080fd5b600080604083850312156115ed57600080fd5b82356115f8816115c5565b946020939093013593505050565b80151581146114cb57600080fd5b600080600080600080600080610100898b03121561163157600080fd5b883561163c81611606565b9750602089013561164c816115c5565b9650604089013561165c816115c5565b9550606089013561166c816115c5565b9450608089013561167c816115c5565b979a969950949793969560a0850135955060c08501359460e001359350915050565b600080604083850312156116b157600080fd5b82356116bc816115c5565b915060208301356116cc81611606565b809150509250929050565b600080604083850312156116ea57600080fd5b82356116f5816115c5565b915060208301356116cc816115c5565b60006020828403121561171757600080fd5b5035919050565b60006020828403121561173057600080fd5b813561173b816115c5565b9392505050565b60006020828403121561175457600080fd5b813561173b81611606565b821515815260006020604081840152835180604085015260005b8181101561179557858101830151858201606001528201611779565b818111156117a7576000606083870101525b50601f01601f191692909201606001949350505050565b6040516101e0810167ffffffffffffffff811182821017156117f057634e487b7160e01b600052604160045260246000fd5b60405290565b805160ff8116811461180757600080fd5b919050565b8051611807816115c5565b805161180781611606565b60006101e0828403121561183557600080fd5b61183d6117be565b611846836117f6565b81526118546020840161180c565b60208201526118656040840161180c565b6040820152606083810151908201526080808401519082015260a0808401519082015260c0808401519082015260e08084015190820152610100808401519082015261012080840151908201526101408084015190820152610160808401519082015261018080840151908201526101a080840151908201526101c06118ec818501611817565b908201529392505050565b634e487b7160e01b600052603260045260246000fd5b634e487b7160e01b600052601160045260246000fd5b6000600182016119355761193561190d565b5060010190565b60008282101561194e5761194e61190d565b500390565b634e487b7160e01b600052603160045260246000fd5b60006020828403121561197b57600080fd5b5051919050565b600181815b808511156119bd5781600019048211156119a3576119a361190d565b808516156119b057918102915b93841c9390800290611987565b509250929050565b6000826119d457506001611a62565b816119e157506000611a62565b81600181146119f75760028114611a0157611a1d565b6001915050611a62565b60ff841115611a1257611a1261190d565b50506001821b611a62565b5060208310610133831016604e8410600b8410161715611a40575081810a611a62565b611a4a8383611982565b8060001904821115611a5e57611a5e61190d565b0290505b92915050565b600061173b60ff8416836119c5565b60008219821115611a8a57611a8a61190d565b500190565b6000816000190483118215151615611aa957611aa961190d565b500290565b600082611acb57634e487b7160e01b600052601260045260246000fd5b500490565b600060208284031215611ae257600080fd5b815161173b816115c5565b606080825284519082018190526000906020906080840190828801845b82811015611b2f5781516001600160a01b031684529284019290840190600101611b0a565b5050506001600160a01b03958616918401919091529290931660409091015292915050565b600060208284031215611b6657600080fd5b815161173b8161160656fea26469706673582212200a649f4ea0acab964daaff302aa08fd6cecf1a09a6233927b1a30e1bcb3c071f64736f6c634300080d0033",
  "devdoc": {
    "errors": {
      "IllegalState(string)": [
        {
          "params": {
            "message": "The error message."
          }
        }
      ],
      "Unauthorized(string)": [
        {
          "params": {
            "message": "The error message."
          }
        }
      ]
    },
    "kind": "dev",
    "methods": {
      "addHarvestJob(bool,address,address,address,address,uint256,uint256,uint256)": {
        "params": {
          "aaveToken": "The aave optimism token that is wrapped in the static one.",
          "active": "A flag for whether or not the harvest job is active.",
          "alchemist": "The address of the alchemist to be harvested.",
          "minimumDelay": "The minimum delay (in seconds) needed between successive runs of the job.",
          "minimumHarvestAmount": "The minimum amount of harvestable funds required in order to run the harvest job.",
          "staticToken": "The address of the static AAVE V3 yield token to be harvested."
        }
      },
      "checker()": {
        "returns": {
          "canExec": "    If a harvest is needed",
          "execPayload": "The payload to forward to the AlchemixHarvester"
        }
      },
      "owner()": {
        "details": "Returns the address of the current owner."
      },
      "recoverFunds(address)": {
        "params": {
          "token": "The token to remove."
        }
      },
      "removeHarvestJob(address)": {
        "params": {
          "yieldToken": "The address of the yield token to remove."
        }
      },
      "renounceOwnership()": {
        "details": "Leaves the contract without owner. It will not be possible to call `onlyOwner` functions anymore. Can only be called by the current owner. NOTE: Renouncing ownership will leave the contract without an owner, thereby removing any functionality that is only available to the owner."
      },
      "setActive(address,bool)": {
        "params": {
          "active": "A flag for whether or not the harvest job is active.",
          "yieldToken": "The address of the yield token to be harvested."
        }
      },
      "setAlchemist(address,address)": {
        "params": {
          "alchemist": "The address of the alchemist to be harvested.",
          "yieldToken": "The address of the yield token to be harvested."
        }
      },
      "setHarvester(address,bool)": {
        "params": {
          "harvester": "The address of the target harvester.",
          "status": "The status to set for the target harvester."
        }
      },
      "setMinimumDelay(address,uint256)": {
        "params": {
          "minimumDelay": "The minimum delay (in seconds) needed between successive runs of the job.",
          "yieldToken": "The address of the yield token to be harvested."
        }
      },
      "setMinimumHarvestAmount(address,uint256)": {
        "params": {
          "minimumHarvestAmount": "The minimum amount of harvestable funds required in order to run the harvest job.",
          "yieldToken": "The address of the yield token to be harvested."
        }
      },
      "setPause(bool)": {
        "params": {
          "pauseState": "The pause state to set."
        }
      },
      "setRewardCollector(address,address)": {
        "params": {
          "rewardCollector": "The address of the rewardCollector to be harvested.",
          "yieldToken": "The address of the yield token to be harvested."
        }
      },
      "setSlippageBps(address,uint256)": {
        "params": {
          "slippageBps": "The amount of slippage to accept during a harvest.",
          "yieldToken": "The address of the yield token to be harvested."
        }
      },
      "transferOwnership(address)": {
        "details": "Transfers ownership of the contract to a new account (`newOwner`). Can only be called by the current owner."
      }
    },
    "stateVariables": {
      "harvestJobs": {
        "details": "yieldToken => HarvestJob."
      },
      "harvesters": {
        "details": "A mapping of the registered harvesters."
      },
      "paused": {
        "details": "Whether or not the resolver is paused."
      },
      "yieldTokens": {
        "details": "The list of yield tokens that define harvest jobs."
      }
    },
    "version": 1
  },
  "userdoc": {
    "errors": {
      "HarvestJobDoesNotExist()": [
        {
          "notice": "Thrown when attempting to remove a harvest job that does not currently exist."
        }
      ],
      "IllegalArgument()": [
        {
          "notice": "An error used to indicate that an action could not be completed because of an illegal argument was passed         to the function."
        }
      ],
      "IllegalState(string)": [
        {
          "notice": "An error used to indicate that a function has encountered an unrecoverable state."
        }
      ],
      "Unauthorized(string)": [
        {
          "notice": "An error used to indicate that a message sender tried to execute a privileged function."
        }
      ],
      "YieldTokenDisabled()": [
        {
          "notice": "Thrown when the yield token of a harvest job being added is disabled in the alchemist of the harvest job being added."
        }
      ]
    },
    "events": {
      "RecordHarvest(address)": {
        "notice": "Emitted when a harvest is recorded."
      },
      "RemoveHarvestJob(address)": {
        "notice": "Emitted when a harvest job is removed from the list."
      },
      "SetHarvestJob(bool,address,address,address,address,uint256,uint256,uint256)": {
        "notice": "Emitted when details of a harvest job are set."
      },
      "SetHarvester(address,bool)": {
        "notice": "Emitted when a harvester status is updated."
      }
    },
    "kind": "user",
    "methods": {
      "addHarvestJob(bool,address,address,address,address,uint256,uint256,uint256)": {
        "notice": "Sets the parameters of a harvest job and adds it to the list if needed."
      },
      "checker()": {
        "notice": "Check if there is a harvest that needs to be run. Returns FALSE if the resolver is paused. Returns TRUE for the first harvest job that meets the following criteria:     - the harvest job is active     - `yieldToken` is enabled in the Alchemist     - minimumDelay seconds have passed since the `yieldToken` was last harvested     - the expected harvest amount is greater than minimumHarvestAmount Returns FALSE if no harvest jobs meet the above criteria."
      },
      "recoverFunds(address)": {
        "notice": "Remove tokens that were accidentally sent to the resolver."
      },
      "removeHarvestJob(address)": {
        "notice": "Removes a harvest job from the list of harvest jobs."
      },
      "setActive(address,bool)": {
        "notice": "Sets if a harvest job is active."
      },
      "setAlchemist(address,address)": {
        "notice": "Sets the alchemist of a harvest job."
      },
      "setHarvester(address,bool)": {
        "notice": "Enables or disables a harvester from calling protected harvester-only functions."
      },
      "setMinimumDelay(address,uint256)": {
        "notice": "Sets the minimum delay of a harvest job."
      },
      "setMinimumHarvestAmount(address,uint256)": {
        "notice": "Sets the minimum harvest amount of a harvest job."
      },
      "setPause(bool)": {
        "notice": "Pauses and un-pauses the resolver."
      },
      "setRewardCollector(address,address)": {
        "notice": "Sets the rewardCollector of a harvest job."
      },
      "setSlippageBps(address,uint256)": {
        "notice": "Sets the amount of slippage for a harvest job."
      }
    },
    "version": 1
  },
  "storageLayout": {
    "storage": [
      {
        "astId": 25140,
        "contract": "submodules/v2-foundry/src/keepers/HarvestResolverOptimism.sol:HarvestResolverOptimism",
        "label": "_owner",
        "offset": 0,
        "slot": "0",
        "type": "t_address"
      },
      {
        "astId": 58264,
        "contract": "submodules/v2-foundry/src/keepers/HarvestResolverOptimism.sol:HarvestResolverOptimism",
        "label": "yieldTokens",
        "offset": 0,
        "slot": "1",
        "type": "t_array(t_address)dyn_storage"
      },
      {
        "astId": 58270,
        "contract": "submodules/v2-foundry/src/keepers/HarvestResolverOptimism.sol:HarvestResolverOptimism",
        "label": "harvestJobs",
        "offset": 0,
        "slot": "2",
        "type": "t_mapping(t_address,t_struct(HarvestJob)58257_storage)"
      },
      {
        "astId": 58273,
        "contract": "submodules/v2-foundry/src/keepers/HarvestResolverOptimism.sol:HarvestResolverOptimism",
        "label": "paused",
        "offset": 0,
        "slot": "3",
        "type": "t_bool"
      },
      {
        "astId": 58278,
        "contract": "submodules/v2-foundry/src/keepers/HarvestResolverOptimism.sol:HarvestResolverOptimism",
        "label": "harvesters",
        "offset": 0,
        "slot": "4",
        "type": "t_mapping(t_address,t_bool)"
      }
    ],
    "types": {
      "t_address": {
        "encoding": "inplace",
        "label": "address",
        "numberOfBytes": "20"
      },
      "t_array(t_address)dyn_storage": {
        "base": "t_address",
        "encoding": "dynamic_array",
        "label": "address[]",
        "numberOfBytes": "32"
      },
      "t_bool": {
        "encoding": "inplace",
        "label": "bool",
        "numberOfBytes": "1"
      },
      "t_mapping(t_address,t_bool)": {
        "encoding": "mapping",
        "key": "t_address",
        "label": "mapping(address => bool)",
        "numberOfBytes": "32",
        "value": "t_bool"
      },
      "t_mapping(t_address,t_struct(HarvestJob)58257_storage)": {
        "encoding": "mapping",
        "key": "t_address",
        "label": "mapping(address => struct HarvestResolverOptimism.HarvestJob)",
        "numberOfBytes": "32",
        "value": "t_struct(HarvestJob)58257_storage"
      },
      "t_struct(HarvestJob)58257_storage": {
        "encoding": "inplace",
        "label": "struct HarvestResolverOptimism.HarvestJob",
        "members": [
          {
            "astId": 58242,
            "contract": "submodules/v2-foundry/src/keepers/HarvestResolverOptimism.sol:HarvestResolverOptimism",
            "label": "active",
            "offset": 0,
            "slot": "0",
            "type": "t_bool"
          },
          {
            "astId": 58244,
            "contract": "submodules/v2-foundry/src/keepers/HarvestResolverOptimism.sol:HarvestResolverOptimism",
            "label": "alchemist",
            "offset": 1,
            "slot": "0",
            "type": "t_address"
          },
          {
            "astId": 58246,
            "contract": "submodules/v2-foundry/src/keepers/HarvestResolverOptimism.sol:HarvestResolverOptimism",
            "label": "rewardCollector",
            "offset": 0,
            "slot": "1",
            "type": "t_address"
          },
          {
            "astId": 58248,
            "contract": "submodules/v2-foundry/src/keepers/HarvestResolverOptimism.sol:HarvestResolverOptimism",
            "label": "aaveToken",
            "offset": 0,
            "slot": "2",
            "type": "t_address"
          },
          {
            "astId": 58250,
            "contract": "submodules/v2-foundry/src/keepers/HarvestResolverOptimism.sol:HarvestResolverOptimism",
            "label": "lastHarvest",
            "offset": 0,
            "slot": "3",
            "type": "t_uint256"
          },
          {
            "astId": 58252,
            "contract": "submodules/v2-foundry/src/keepers/HarvestResolverOptimism.sol:HarvestResolverOptimism",
            "label": "minimumHarvestAmount",
            "offset": 0,
            "slot": "4",
            "type": "t_uint256"
          },
          {
            "astId": 58254,
            "contract": "submodules/v2-foundry/src/keepers/HarvestResolverOptimism.sol:HarvestResolverOptimism",
            "label": "minimumDelay",
            "offset": 0,
            "slot": "5",
            "type": "t_uint256"
          },
          {
            "astId": 58256,
            "contract": "submodules/v2-foundry/src/keepers/HarvestResolverOptimism.sol:HarvestResolverOptimism",
            "label": "slippageBps",
            "offset": 0,
            "slot": "6",
            "type": "t_uint256"
          }
        ],
        "numberOfBytes": "224"
      },
      "t_uint256": {
        "encoding": "inplace",
        "label": "uint256",
        "numberOfBytes": "32"
      }
    }
  }
}