{
  "address": "0x4D9C4EaD535CaC13471d5A597fb7510CCEa99772",
  "abi": [
    {
      "inputs": [],
      "stateMutability": "nonpayable",
      "type": "constructor"
    },
    {
      "inputs": [],
      "name": "HarvestJobDoesNotExist",
      "type": "error"
    },
    {
      "inputs": [],
      "name": "IllegalArgument",
      "type": "error"
    },
    {
      "inputs": [],
      "name": "Unauthorized",
      "type": "error"
    },
    {
      "inputs": [],
      "name": "YieldTokenDisabled",
      "type": "error"
    },
    {
      "anonymous": false,
      "inputs": [
        {
          "indexed": true,
          "internalType": "address",
          "name": "previousOwner",
          "type": "address"
        },
        {
          "indexed": true,
          "internalType": "address",
          "name": "newOwner",
          "type": "address"
        }
      ],
      "name": "OwnershipTransferred",
      "type": "event"
    },
    {
      "anonymous": false,
      "inputs": [
        {
          "indexed": false,
          "internalType": "address",
          "name": "yieldToken",
          "type": "address"
        }
      ],
      "name": "RecordHarvest",
      "type": "event"
    },
    {
      "anonymous": false,
      "inputs": [
        {
          "indexed": false,
          "internalType": "address",
          "name": "yieldToken",
          "type": "address"
        }
      ],
      "name": "RemoveHarvestJob",
      "type": "event"
    },
    {
      "anonymous": false,
      "inputs": [
        {
          "indexed": false,
          "internalType": "bool",
          "name": "active",
          "type": "bool"
        },
        {
          "indexed": false,
          "internalType": "address",
          "name": "alchemist",
          "type": "address"
        },
        {
          "indexed": false,
          "internalType": "address",
          "name": "yieldToken",
          "type": "address"
        },
        {
          "indexed": false,
          "internalType": "uint256",
          "name": "minimumHarvestAmount",
          "type": "uint256"
        },
        {
          "indexed": false,
          "internalType": "uint256",
          "name": "minimumDelay",
          "type": "uint256"
        },
        {
          "indexed": false,
          "internalType": "uint256",
          "name": "slippageBps",
          "type": "uint256"
        }
      ],
      "name": "SetHarvestJob",
      "type": "event"
    },
    {
      "anonymous": false,
      "inputs": [
        {
          "indexed": false,
          "internalType": "address",
          "name": "harvester",
          "type": "address"
        },
        {
          "indexed": false,
          "internalType": "bool",
          "name": "status",
          "type": "bool"
        }
      ],
      "name": "SetHarvester",
      "type": "event"
    },
    {
      "inputs": [],
      "name": "SLIPPAGE_PRECISION",
      "outputs": [
        {
          "internalType": "uint256",
          "name": "",
          "type": "uint256"
        }
      ],
      "stateMutability": "view",
      "type": "function"
    },
    {
      "inputs": [
        {
          "internalType": "bool",
          "name": "active",
          "type": "bool"
        },
        {
          "internalType": "address",
          "name": "alchemist",
          "type": "address"
        },
        {
          "internalType": "address",
          "name": "yieldToken",
          "type": "address"
        },
        {
          "internalType": "uint256",
          "name": "minimumHarvestAmount",
          "type": "uint256"
        },
        {
          "internalType": "uint256",
          "name": "minimumDelay",
          "type": "uint256"
        },
        {
          "internalType": "uint256",
          "name": "slippageBps",
          "type": "uint256"
        }
      ],
      "name": "addHarvestJob",
      "outputs": [],
      "stateMutability": "nonpayable",
      "type": "function"
    },
    {
      "inputs": [],
      "name": "checker",
      "outputs": [
        {
          "internalType": "bool",
          "name": "canExec",
          "type": "bool"
        },
        {
          "internalType": "bytes",
          "name": "execPayload",
          "type": "bytes"
        }
      ],
      "stateMutability": "view",
      "type": "function"
    },
    {
      "inputs": [
        {
          "internalType": "address",
          "name": "",
          "type": "address"
        }
      ],
      "name": "harvestJobs",
      "outputs": [
        {
          "internalType": "bool",
          "name": "active",
          "type": "bool"
        },
        {
          "internalType": "address",
          "name": "alchemist",
          "type": "address"
        },
        {
          "internalType": "address",
          "name": "yieldToken",
          "type": "address"
        },
        {
          "internalType": "uint256",
          "name": "lastHarvest",
          "type": "uint256"
        },
        {
          "internalType": "uint256",
          "name": "minimumHarvestAmount",
          "type": "uint256"
        },
        {
          "internalType": "uint256",
          "name": "minimumDelay",
          "type": "uint256"
        },
        {
          "internalType": "uint256",
          "name": "slippageBps",
          "type": "uint256"
        }
      ],
      "stateMutability": "view",
      "type": "function"
    },
    {
      "inputs": [
        {
          "internalType": "address",
          "name": "",
          "type": "address"
        }
      ],
      "name": "harvesters",
      "outputs": [
        {
          "internalType": "bool",
          "name": "",
          "type": "bool"
        }
      ],
      "stateMutability": "view",
      "type": "function"
    },
    {
      "inputs": [],
      "name": "owner",
      "outputs": [
        {
          "internalType": "address",
          "name": "",
          "type": "address"
        }
      ],
      "stateMutability": "view",
      "type": "function"
    },
    {
      "inputs": [],
      "name": "paused",
      "outputs": [
        {
          "internalType": "bool",
          "name": "",
          "type": "bool"
        }
      ],
      "stateMutability": "view",
      "type": "function"
    },
    {
      "inputs": [
        {
          "internalType": "address",
          "name": "yieldToken",
          "type": "address"
        }
      ],
      "name": "recordHarvest",
      "outputs": [],
      "stateMutability": "nonpayable",
      "type": "function"
    },
    {
      "inputs": [
        {
          "internalType": "address",
          "name": "token",
          "type": "address"
        }
      ],
      "name": "recoverFunds",
      "outputs": [],
      "stateMutability": "nonpayable",
      "type": "function"
    },
    {
      "inputs": [
        {
          "internalType": "address",
          "name": "yieldToken",
          "type": "address"
        }
      ],
      "name": "removeHarvestJob",
      "outputs": [],
      "stateMutability": "nonpayable",
      "type": "function"
    },
    {
      "inputs": [],
      "name": "renounceOwnership",
      "outputs": [],
      "stateMutability": "nonpayable",
      "type": "function"
    },
    {
      "inputs": [
        {
          "internalType": "address",
          "name": "yieldToken",
          "type": "address"
        },
        {
          "internalType": "bool",
          "name": "active",
          "type": "bool"
        }
      ],
      "name": "setActive",
      "outputs": [],
      "stateMutability": "nonpayable",
      "type": "function"
    },
    {
      "inputs": [
        {
          "internalType": "address",
          "name": "yieldToken",
          "type": "address"
        },
        {
          "internalType": "address",
          "name": "alchemist",
          "type": "address"
        }
      ],
      "name": "setAlchemist",
      "outputs": [],
      "stateMutability": "nonpayable",
      "type": "function"
    },
    {
      "inputs": [
        {
          "internalType": "address",
          "name": "harvester",
          "type": "address"
        },
        {
          "internalType": "bool",
          "name": "status",
          "type": "bool"
        }
      ],
      "name": "setHarvester",
      "outputs": [],
      "stateMutability": "nonpayable",
      "type": "function"
    },
    {
      "inputs": [
        {
          "internalType": "address",
          "name": "yieldToken",
          "type": "address"
        },
        {
          "internalType": "uint256",
          "name": "minimumDelay",
          "type": "uint256"
        }
      ],
      "name": "setMinimumDelay",
      "outputs": [],
      "stateMutability": "nonpayable",
      "type": "function"
    },
    {
      "inputs": [
        {
          "internalType": "address",
          "name": "yieldToken",
          "type": "address"
        },
        {
          "internalType": "uint256",
          "name": "minimumHarvestAmount",
          "type": "uint256"
        }
      ],
      "name": "setMinimumHarvestAmount",
      "outputs": [],
      "stateMutability": "nonpayable",
      "type": "function"
    },
    {
      "inputs": [
        {
          "internalType": "bool",
          "name": "pauseState",
          "type": "bool"
        }
      ],
      "name": "setPause",
      "outputs": [],
      "stateMutability": "nonpayable",
      "type": "function"
    },
    {
      "inputs": [
        {
          "internalType": "address",
          "name": "yieldToken",
          "type": "address"
        },
        {
          "internalType": "uint256",
          "name": "slippageBps",
          "type": "uint256"
        }
      ],
      "name": "setSlippageBps",
      "outputs": [],
      "stateMutability": "nonpayable",
      "type": "function"
    },
    {
      "inputs": [
        {
          "internalType": "address",
          "name": "newOwner",
          "type": "address"
        }
      ],
      "name": "transferOwnership",
      "outputs": [],
      "stateMutability": "nonpayable",
      "type": "function"
    },
    {
      "inputs": [
        {
          "internalType": "uint256",
          "name": "",
          "type": "uint256"
        }
      ],
      "name": "yieldTokens",
      "outputs": [
        {
          "internalType": "address",
          "name": "",
          "type": "address"
        }
      ],
      "stateMutability": "view",
      "type": "function"
    }
  ],
  "transactionHash": "0x2f3b3f6e77958cb41330a39364751da7547a940a6bbeac25ef3b4e89ffa8d27d",
  "args": [],
  "solcInputHash": "cf2e8d784102ab5b3f78e0c27f96e1cf",
  "bytecode": "0x608060405234801561001057600080fd5b5061001a3361001f565b61006f565b600080546001600160a01b038381166001600160a01b0319831681178455604051919092169283917f8be0079c531659141344cd1fd0a4f28419497f9722a3daafe3b4186f6b6457e09190a35050565b61154a8061007e6000396000f3fe608060405234801561001057600080fd5b506004361061012c5760003560e01c80638da5cb5b116100ad578063bedb86fb11610071578063bedb86fb1461027e578063cf5303cf14610291578063e635d5f2146102a7578063e72f6e3014610341578063f2fde38b1461035457600080fd5b80638da5cb5b14610221578063af9d98a914610232578063b018895c14610245578063b223602114610258578063b73cc2a31461026b57600080fd5b8063539efd4b116100f4578063539efd4b1461019b5780635c975abb146101c65780636c7be337146101e3578063715018a6146101f657806387976583146101fe57600080fd5b80630a69af31146101315780630bca8869146101465780632ce962cf1461015957806331b710571461016c578063453943f01461017f575b600080fd5b61014461013f366004611034565b610367565b005b610144610154366004611099565b61060c565b6101446101673660046110c5565b610633565b61014461017a3660046110c5565b610666565b61018861271081565b6040519081526020015b60405180910390f35b6101ae6101a93660046110fe565b6106d2565b6040516001600160a01b039091168152602001610192565b6003546101d39060ff1681565b6040519015158152602001610192565b6101446101f1366004611117565b6106fc565b6101446107d1565b6101d361020c366004611145565b60046020526000908152604090205460ff1681565b6000546001600160a01b03166101ae565b610144610240366004611145565b6107e5565b610144610253366004611099565b61086a565b610144610266366004611145565b610891565b610144610279366004611099565b610a66565b61014461028c366004611169565b610a8d565b610299610aa8565b604051610192929190611186565b6102fe6102b5366004611145565b600260208190526000918252604090912080546001820154928201546003830154600484015460059094015460ff8416956001600160a01b036101009095048516959416939087565b6040805197151588526001600160a01b03968716602089015294909516938601939093526060850191909152608084015260a083015260c082015260e001610192565b61014461034f366004611145565b610db3565b610144610362366004611145565b610e9c565b61036f610f1a565b604051635a5efc8b60e01b81526001600160a01b03858116600483015260009190871690635a5efc8b906024016101e060405180830381865afa1580156103ba573d6000803e3d6000fd5b505050506040513d601f19601f820116820180604052508101906103de9190611249565b9050806101c00151610403576040516303e75d1560e21b815260040160405180910390fd5b61271082111561042657604051630134249960e71b815260040160405180910390fd5b6040805160e08101825288151581526001600160a01b0380891660208084019182528983168486018181524260608701908152608087018c815260a088018c815260c089018c81526000958652600296879052948a9020985189549751891661010002610100600160a81b0319911515919091166001600160a81b0319909816979097179690961788559151600188018054919097166001600160a01b0319909116179095559351918501919091559151600384015551600483015551600590910155517f12eab20548b80c832c05e80d43b04913c1fdf7bd639ebebadfd9e407250bff3b906105529089908990899089908990899095151586526001600160a01b0394851660208701529290931660408501526060840152608083019190915260a082015260c00190565b60405180910390a160005b6001548110156105b757856001600160a01b0316600182815481106105845761058461131e565b6000918252602090912001546001600160a01b0316036105a5575050610604565b806105af8161134a565b91505061055d565b50506001805480820182556000919091527fb10e2d527612073b26eecdfd717e6a320cf44b4afac2b0732d9fcbe2b7fa0cf60180546001600160a01b0319166001600160a01b0386161790555b505050505050565b610614610f1a565b6001600160a01b03909116600090815260026020526040902060050155565b61063b610f1a565b6001600160a01b03919091166000908152600260205260409020805460ff1916911515919091179055565b61066e610f1a565b6001600160a01b038216600081815260046020908152604091829020805460ff19168515159081179091558251938452908301527fffbdc28f0395f8dd81699928814abd1846ddbad638fe3482c8375836a4e9825291015b60405180910390a15050565b600181815481106106e257600080fd5b6000918252602090912001546001600160a01b0316905081565b610704610f1a565b604051635a5efc8b60e01b81526001600160a01b03838116600483015260009190831690635a5efc8b906024016101e060405180830381865afa15801561074f573d6000803e3d6000fd5b505050506040513d601f19601f820116820180604052508101906107739190611249565b9050806101c00151610798576040516303e75d1560e21b815260040160405180910390fd5b506001600160a01b03918216600090815260026020526040902080549290911661010002610100600160a81b0319909216919091179055565b6107d9610f1a565b6107e36000610f74565b565b3360009081526004602052604090205460ff16610814576040516282b42960e81b815260040160405180910390fd5b6001600160a01b0381166000818152600260208181526040928390204292019190915590519182527f549d5a8cc9d7d0d28c5c93782ae549548749ec3884c725765a8570597d6a13f8910160405180910390a150565b610872610f1a565b6001600160a01b03909116600090815260026020526040902060040155565b610899610f1a565b60001960005b6001548110156108fe57826001600160a01b0316600182815481106108c6576108c661131e565b6000918252602090912001546001600160a01b0316036108ec576108e981610fc4565b91505b806108f68161134a565b91505061089f565b50600019811315610a49576001600160a01b0382166000908152600260208190526040822080546001600160a81b0319168155600180820180546001600160a01b0319169055918101839055600381018390556004810183905560050191909155805461096c908290611363565b8154811061097c5761097c61131e565b6000918252602090912001546001600160a01b0316600161099c83610fee565b815481106109ac576109ac61131e565b9060005260206000200160006101000a8154816001600160a01b0302191690836001600160a01b0316021790555060018054806109eb576109eb61137a565b6000828152602090819020600019908301810180546001600160a01b03191690559091019091556040516001600160a01b03841681527fdd2f9126294675e89c6ca967164843d07ab1cc694b6812112c89c6ae64eed7c791016106c6565b604051630658884760e41b815260040160405180910390fd5b5050565b610a6e610f1a565b6001600160a01b03909116600090815260026020526040902060030155565b610a95610f1a565b6003805460ff1916911515919091179055565b60035460009060609060ff1615610ae0576040805160006020820181905291015b604051602081830303815290604052915091509091565b60005b600154811015610d9e57600060018281548110610b0257610b0261131e565b60009182526020808320909101546001600160a01b039081168084526002808452604094859020855160e081018752815460ff81161580158352610100909104861696820196909652600182015490941695840195909552840154606083015260038401546080830152600484015460a083015260059093015460c0820152919250610d89576020810151604051635a5efc8b60e01b81526001600160a01b0384811660048301526000921690635a5efc8b906024016101e060405180830381865afa158015610bd6573d6000803e3d6000fd5b505050506040513d601f19601f82011682018060405250810190610bfa9190611249565b9050806101c0015115610d8757600081604001516001600160a01b031663a035b1fe6040518163ffffffff1660e01b8152600401602060405180830381865afa158015610c4b573d6000803e3d6000fd5b505050506040513d601f19601f82011682018060405250810190610c6f9190611390565b8251909150600090610c8290600a61148f565b828460e001518560c00151610c97919061149e565b610ca191906114b6565b610cab91906114d5565b90508360a001518460600151610cc1919061149e565b4210158015610ce357508360800151836101200151610ce0919061149e565b81115b15610d8457600083610120015182610cfb9190611363565b90506127108560c0015182610d1091906114b6565b610d1a91906114d5565b610d249082611363565b50505050602091820151604080516001600160a01b03928316602482015294909116604480860191909152815180860390910181526064909401905250810180516001600160e01b03166366cc185760e01b179052600194909350915050565b50505b505b50508080610d969061134a565b915050610ae3565b50604080516000602082018190529101610ac9565b610dbb610f1a565b6040516370a0823160e01b81523060048201526001600160a01b0382169063a9059cbb90339083906370a0823190602401602060405180830381865afa158015610e09573d6000803e3d6000fd5b505050506040513d601f19601f82011682018060405250810190610e2d9190611390565b6040516001600160e01b031960e085901b1681526001600160a01b03909216600483015260248201526044016020604051808303816000875af1158015610e78573d6000803e3d6000fd5b505050506040513d601f19601f82011682018060405250810190610a6291906114f7565b610ea4610f1a565b6001600160a01b038116610f0e5760405162461bcd60e51b815260206004820152602660248201527f4f776e61626c653a206e6577206f776e657220697320746865207a65726f206160448201526564647265737360d01b60648201526084015b60405180910390fd5b610f1781610f74565b50565b6000546001600160a01b031633146107e35760405162461bcd60e51b815260206004820181905260248201527f4f776e61626c653a2063616c6c6572206973206e6f7420746865206f776e65726044820152606401610f05565b600080546001600160a01b038381166001600160a01b0319831681178455604051919092169283917f8be0079c531659141344cd1fd0a4f28419497f9722a3daafe3b4186f6b6457e09190a35050565b6000600160ff1b8210610fea57604051630134249960e71b815260040160405180910390fd5b5090565b600080821215610fea57604051630134249960e71b815260040160405180910390fd5b8015158114610f1757600080fd5b6001600160a01b0381168114610f1757600080fd5b60008060008060008060c0878903121561104d57600080fd5b863561105881611011565b955060208701356110688161101f565b945060408701356110788161101f565b959894975094956060810135955060808101359460a0909101359350915050565b600080604083850312156110ac57600080fd5b82356110b78161101f565b946020939093013593505050565b600080604083850312156110d857600080fd5b82356110e38161101f565b915060208301356110f381611011565b809150509250929050565b60006020828403121561111057600080fd5b5035919050565b6000806040838503121561112a57600080fd5b82356111358161101f565b915060208301356110f38161101f565b60006020828403121561115757600080fd5b81356111628161101f565b9392505050565b60006020828403121561117b57600080fd5b813561116281611011565b821515815260006020604081840152835180604085015260005b818110156111bc578581018301518582016060015282016111a0565b818111156111ce576000606083870101525b50601f01601f191692909201606001949350505050565b6040516101e0810167ffffffffffffffff8111828210171561121757634e487b7160e01b600052604160045260246000fd5b60405290565b805160ff8116811461122e57600080fd5b919050565b805161122e8161101f565b805161122e81611011565b60006101e0828403121561125c57600080fd5b6112646111e5565b61126d8361121d565b815261127b60208401611233565b602082015261128c60408401611233565b6040820152606083810151908201526080808401519082015260a0808401519082015260c0808401519082015260e08084015190820152610100808401519082015261012080840151908201526101408084015190820152610160808401519082015261018080840151908201526101a080840151908201526101c061131381850161123e565b908201529392505050565b634e487b7160e01b600052603260045260246000fd5b634e487b7160e01b600052601160045260246000fd5b60006001820161135c5761135c611334565b5060010190565b60008282101561137557611375611334565b500390565b634e487b7160e01b600052603160045260246000fd5b6000602082840312156113a257600080fd5b5051919050565b600181815b808511156113e45781600019048211156113ca576113ca611334565b808516156113d757918102915b93841c93908002906113ae565b509250929050565b6000826113fb57506001611489565b8161140857506000611489565b816001811461141e576002811461142857611444565b6001915050611489565b60ff84111561143957611439611334565b50506001821b611489565b5060208310610133831016604e8410600b8410161715611467575081810a611489565b61147183836113a9565b806000190482111561148557611485611334565b0290505b92915050565b600061116260ff8416836113ec565b600082198211156114b1576114b1611334565b500190565b60008160001904831182151516156114d0576114d0611334565b500290565b6000826114f257634e487b7160e01b600052601260045260246000fd5b500490565b60006020828403121561150957600080fd5b81516111628161101156fea26469706673582212208c9fd80dfd76b599785531911540df0381a7ade15d3c2d5f48e39143069ae21564736f6c634300080d0033",
  "devdoc": {
    "kind": "dev",
    "methods": {
      "addHarvestJob(bool,address,address,uint256,uint256,uint256)": {
        "params": {
          "active": "A flag for whether or not the harvest job is active.",
          "alchemist": "The address of the alchemist to be harvested.",
          "minimumDelay": "The minimum delay (in seconds) needed between successive runs of the job.",
          "minimumHarvestAmount": "The minimum amount of harvestable funds required in order to run the harvest job.",
          "yieldToken": "The address of the yield token to be harvested."
        }
      },
      "checker()": {
        "returns": {
          "canExec": "    If a harvest is needed",
          "execPayload": "The payload to forward to the AlchemixHarvester"
        }
      },
      "owner()": {
        "details": "Returns the address of the current owner."
      },
      "recoverFunds(address)": {
        "params": {
          "token": "The token to remove."
        }
      },
      "removeHarvestJob(address)": {
        "params": {
          "yieldToken": "The address of the yield token to remove."
        }
      },
      "renounceOwnership()": {
        "details": "Leaves the contract without owner. It will not be possible to call `onlyOwner` functions anymore. Can only be called by the current owner. NOTE: Renouncing ownership will leave the contract without an owner, thereby removing any functionality that is only available to the owner."
      },
      "setActive(address,bool)": {
        "params": {
          "active": "A flag for whether or not the harvest job is active.",
          "yieldToken": "The address of the yield token to be harvested."
        }
      },
      "setAlchemist(address,address)": {
        "params": {
          "alchemist": "The address of the alchemist to be harvested.",
          "yieldToken": "The address of the yield token to be harvested."
        }
      },
      "setHarvester(address,bool)": {
        "params": {
          "harvester": "The address of the target harvester.",
          "status": "The status to set for the target harvester."
        }
      },
      "setMinimumDelay(address,uint256)": {
        "params": {
          "minimumDelay": "The minimum delay (in seconds) needed between successive runs of the job.",
          "yieldToken": "The address of the yield token to be harvested."
        }
      },
      "setMinimumHarvestAmount(address,uint256)": {
        "params": {
          "minimumHarvestAmount": "The minimum amount of harvestable funds required in order to run the harvest job.",
          "yieldToken": "The address of the yield token to be harvested."
        }
      },
      "setPause(bool)": {
        "params": {
          "pauseState": "The pause state to set."
        }
      },
      "setSlippageBps(address,uint256)": {
        "params": {
          "slippageBps": "The amount of slippage to accept during a harvest.",
          "yieldToken": "The address of the yield token to be harvested."
        }
      },
      "transferOwnership(address)": {
        "details": "Transfers ownership of the contract to a new account (`newOwner`). Can only be called by the current owner."
      }
    },
    "stateVariables": {
      "harvestJobs": {
        "details": "yieldToken => HarvestJob."
      },
      "harvesters": {
        "details": "A mapping of the registered harvesters."
      },
      "paused": {
        "details": "Whether or not the resolver is paused."
      },
      "yieldTokens": {
        "details": "The list of yield tokens that define harvest jobs."
      }
    },
    "version": 1
  },
  "userdoc": {
    "errors": {
      "HarvestJobDoesNotExist()": [
        {
          "notice": "Thrown when attempting to remove a harvest job that does not currently exist."
        }
      ],
      "IllegalArgument()": [
        {
          "notice": "An error used to indicate that an action could not be completed because of an illegal argument was passed         to the function."
        }
      ],
      "Unauthorized()": [
        {
          "notice": "An error used to indicate that an action could not be completed because either the `msg.sender` or         `msg.origin` is not authorized."
        }
      ],
      "YieldTokenDisabled()": [
        {
          "notice": "Thrown when the yield token of a harvest job being added is disabled in the alchemist of the harvest job being added."
        }
      ]
    },
    "events": {
      "RecordHarvest(address)": {
        "notice": "Emitted when a harvest is recorded."
      },
      "RemoveHarvestJob(address)": {
        "notice": "Emitted when a harvest job is removed from the list."
      },
      "SetHarvestJob(bool,address,address,uint256,uint256,uint256)": {
        "notice": "Emitted when details of a harvest job are set."
      },
      "SetHarvester(address,bool)": {
        "notice": "Emitted when a harvester status is updated."
      }
    },
    "kind": "user",
    "methods": {
      "addHarvestJob(bool,address,address,uint256,uint256,uint256)": {
        "notice": "Sets the parameters of a harvest job and adds it to the list if needed."
      },
      "checker()": {
        "notice": "Check if there is a harvest that needs to be run. Returns FALSE if the resolver is paused. Returns TRUE for the first harvest job that meets the following criteria:     - the harvest job is active     - `yieldToken` is enabled in the Alchemist     - minimumDelay seconds have passed since the `yieldToken` was last harvested     - the expected harvest amount is greater than minimumHarvestAmount Returns FALSE if no harvest jobs meet the above criteria."
      },
      "recoverFunds(address)": {
        "notice": "Remove tokens that were accidentally sent to the resolver."
      },
      "removeHarvestJob(address)": {
        "notice": "Removes a harvest job from the list of harvest jobs."
      },
      "setActive(address,bool)": {
        "notice": "Sets if a harvest job is active."
      },
      "setAlchemist(address,address)": {
        "notice": "Sets the alchemist of a harvest job."
      },
      "setHarvester(address,bool)": {
        "notice": "Enables or disables a harvester from calling protected harvester-only functions."
      },
      "setMinimumDelay(address,uint256)": {
        "notice": "Sets the minimum delay of a harvest job."
      },
      "setMinimumHarvestAmount(address,uint256)": {
        "notice": "Sets the minimum harvest amount of a harvest job."
      },
      "setPause(bool)": {
        "notice": "Pauses and un-pauses the resolver."
      },
      "setSlippageBps(address,uint256)": {
        "notice": "Sets the amount of slippage for a harvest job."
      }
    },
    "version": 1
  },
  "storageLayout": {
    "storage": [
      {
        "astId": 27636,
        "contract": "submodules/v2-foundry/src/keepers/HarvestResolver.sol:HarvestResolver",
        "label": "_owner",
        "offset": 0,
        "slot": "0",
        "type": "t_address"
      },
      {
        "astId": 60765,
        "contract": "submodules/v2-foundry/src/keepers/HarvestResolver.sol:HarvestResolver",
        "label": "yieldTokens",
        "offset": 0,
        "slot": "1",
        "type": "t_array(t_address)dyn_storage"
      },
      {
        "astId": 60771,
        "contract": "submodules/v2-foundry/src/keepers/HarvestResolver.sol:HarvestResolver",
        "label": "harvestJobs",
        "offset": 0,
        "slot": "2",
        "type": "t_mapping(t_address,t_struct(HarvestJob)60758_storage)"
      },
      {
        "astId": 60774,
        "contract": "submodules/v2-foundry/src/keepers/HarvestResolver.sol:HarvestResolver",
        "label": "paused",
        "offset": 0,
        "slot": "3",
        "type": "t_bool"
      },
      {
        "astId": 60779,
        "contract": "submodules/v2-foundry/src/keepers/HarvestResolver.sol:HarvestResolver",
        "label": "harvesters",
        "offset": 0,
        "slot": "4",
        "type": "t_mapping(t_address,t_bool)"
      }
    ],
    "types": {
      "t_address": {
        "encoding": "inplace",
        "label": "address",
        "numberOfBytes": "20"
      },
      "t_array(t_address)dyn_storage": {
        "base": "t_address",
        "encoding": "dynamic_array",
        "label": "address[]",
        "numberOfBytes": "32"
      },
      "t_bool": {
        "encoding": "inplace",
        "label": "bool",
        "numberOfBytes": "1"
      },
      "t_mapping(t_address,t_bool)": {
        "encoding": "mapping",
        "key": "t_address",
        "label": "mapping(address => bool)",
        "numberOfBytes": "32",
        "value": "t_bool"
      },
      "t_mapping(t_address,t_struct(HarvestJob)60758_storage)": {
        "encoding": "mapping",
        "key": "t_address",
        "label": "mapping(address => struct HarvestResolver.HarvestJob)",
        "numberOfBytes": "32",
        "value": "t_struct(HarvestJob)60758_storage"
      },
      "t_struct(HarvestJob)60758_storage": {
        "encoding": "inplace",
        "label": "struct HarvestResolver.HarvestJob",
        "members": [
          {
            "astId": 60745,
            "contract": "submodules/v2-foundry/src/keepers/HarvestResolver.sol:HarvestResolver",
            "label": "active",
            "offset": 0,
            "slot": "0",
            "type": "t_bool"
          },
          {
            "astId": 60747,
            "contract": "submodules/v2-foundry/src/keepers/HarvestResolver.sol:HarvestResolver",
            "label": "alchemist",
            "offset": 1,
            "slot": "0",
            "type": "t_address"
          },
          {
            "astId": 60749,
            "contract": "submodules/v2-foundry/src/keepers/HarvestResolver.sol:HarvestResolver",
            "label": "yieldToken",
            "offset": 0,
            "slot": "1",
            "type": "t_address"
          },
          {
            "astId": 60751,
            "contract": "submodules/v2-foundry/src/keepers/HarvestResolver.sol:HarvestResolver",
            "label": "lastHarvest",
            "offset": 0,
            "slot": "2",
            "type": "t_uint256"
          },
          {
            "astId": 60753,
            "contract": "submodules/v2-foundry/src/keepers/HarvestResolver.sol:HarvestResolver",
            "label": "minimumHarvestAmount",
            "offset": 0,
            "slot": "3",
            "type": "t_uint256"
          },
          {
            "astId": 60755,
            "contract": "submodules/v2-foundry/src/keepers/HarvestResolver.sol:HarvestResolver",
            "label": "minimumDelay",
            "offset": 0,
            "slot": "4",
            "type": "t_uint256"
          },
          {
            "astId": 60757,
            "contract": "submodules/v2-foundry/src/keepers/HarvestResolver.sol:HarvestResolver",
            "label": "slippageBps",
            "offset": 0,
            "slot": "5",
            "type": "t_uint256"
          }
        ],
        "numberOfBytes": "192"
      },
      "t_uint256": {
        "encoding": "inplace",
        "label": "uint256",
        "numberOfBytes": "32"
      }
    }
  }
}