{
  "address": "0xe130d51E6d7caB05fa743963f9c57d116F3753d3",
  "abi": [
    {
      "inputs": [
        {
          "components": [
            {
              "internalType": "address",
              "name": "alchemist",
              "type": "address"
            },
            {
              "internalType": "address",
              "name": "debtToken",
              "type": "address"
            },
            {
              "internalType": "address",
              "name": "rewardToken",
              "type": "address"
            },
            {
              "internalType": "address",
              "name": "swapRouter",
              "type": "address"
            }
          ],
          "internalType": "struct InitializationParams",
          "name": "params",
          "type": "tuple"
        }
      ],
      "stateMutability": "nonpayable",
      "type": "constructor"
    },
    {
      "inputs": [
        {
          "internalType": "address",
          "name": "target",
          "type": "address"
        },
        {
          "internalType": "bool",
          "name": "success",
          "type": "bool"
        },
        {
          "internalType": "bytes",
          "name": "data",
          "type": "bytes"
        }
      ],
      "name": "ERC20CallFailed",
      "type": "error"
    },
    {
      "inputs": [
        {
          "internalType": "string",
          "name": "message",
          "type": "string"
        }
      ],
      "name": "IllegalState",
      "type": "error"
    },
    {
      "anonymous": false,
      "inputs": [
        {
          "indexed": false,
          "internalType": "address",
          "name": "token",
          "type": "address"
        },
        {
          "indexed": false,
          "internalType": "uint256",
          "name": "amount",
          "type": "uint256"
        }
      ],
      "name": "RewardsDonated",
      "type": "event"
    },
    {
      "inputs": [],
      "name": "alchemist",
      "outputs": [
        {
          "internalType": "address",
          "name": "",
          "type": "address"
        }
      ],
      "stateMutability": "view",
      "type": "function"
    },
    {
      "inputs": [
        {
          "internalType": "address",
          "name": "token",
          "type": "address"
        },
        {
          "internalType": "uint256",
          "name": "minimumAmountOut",
          "type": "uint256"
        }
      ],
      "name": "claimAndDonateRewards",
      "outputs": [],
      "stateMutability": "nonpayable",
      "type": "function"
    },
    {
      "inputs": [],
      "name": "debtToken",
      "outputs": [
        {
          "internalType": "address",
          "name": "",
          "type": "address"
        }
      ],
      "stateMutability": "view",
      "type": "function"
    },
    {
      "inputs": [
        {
          "internalType": "address",
          "name": "yieldToken",
          "type": "address"
        }
      ],
      "name": "getExpectedExchange",
      "outputs": [
        {
          "internalType": "uint256",
          "name": "",
          "type": "uint256"
        }
      ],
      "stateMutability": "view",
      "type": "function"
    },
    {
      "inputs": [],
      "name": "rewardToken",
      "outputs": [
        {
          "internalType": "address",
          "name": "",
          "type": "address"
        }
      ],
      "stateMutability": "view",
      "type": "function"
    },
    {
      "inputs": [],
      "name": "swapRouter",
      "outputs": [
        {
          "internalType": "address",
          "name": "",
          "type": "address"
        }
      ],
      "stateMutability": "view",
      "type": "function"
    },
    {
      "inputs": [],
      "name": "version",
      "outputs": [
        {
          "internalType": "string",
          "name": "",
          "type": "string"
        }
      ],
      "stateMutability": "view",
      "type": "function"
    }
  ],
  "transactionHash": "0xba0c4529e3e5e6c36176ee70f966c439a1b85656ff014c04a02eac2987818e13",
  "args": [
    {
      "alchemist": "0xe04Bb5B4de60FA2fBa69a93adE13A8B3B569d5B4",
      "debtToken": "0x3E29D3A9316dAB217754d13b28646B76607c5f04",
      "rewardToken": "0x4200000000000000000000000000000000000042",
      "swapRouter": "0x9c12939390052919aF3155f41Bf4160Fd3666A6f"
    }
  ],
  "solcInputHash": "6f2da22e38659e0f5b442d8ead5e803f",
  "bytecode": "0x60c060405260056080819052640312e302e360dc1b60a0908152620000289160009190620000ba565b503480156200003657600080fd5b50604051620014173803806200141783398101604081905262000059916200017d565b8051600180546001600160a01b03199081166001600160a01b0393841617909155602083015160028054831691841691909117905560408301516003805483169184169190911790556060909201516004805490931691161790556200024d565b828054620000c89062000211565b90600052602060002090601f016020900481019282620000ec576000855562000137565b82601f106200010757805160ff191683800117855562000137565b8280016001018555821562000137579182015b82811115620001375782518255916020019190600101906200011a565b506200014592915062000149565b5090565b5b808211156200014557600081556001016200014a565b80516001600160a01b03811681146200017857600080fd5b919050565b6000608082840312156200019057600080fd5b604051608081016001600160401b0381118282101715620001c157634e487b7160e01b600052604160045260246000fd5b604052620001cf8362000160565b8152620001df6020840162000160565b6020820152620001f26040840162000160565b6040820152620002056060840162000160565b60608201529392505050565b600181811c908216806200022657607f821691505b6020821081036200024757634e487b7160e01b600052602260045260246000fd5b50919050565b6111ba806200025d6000396000f3fe608060405234801561001057600080fd5b506004361061007d5760003560e01c8063a387b32f1161005b578063a387b32f146100ec578063c31c9c0714610101578063f7c618c114610114578063f8d898981461012757600080fd5b806354fd4d50146100825780635685149c146100a05780638de925f6146100c1575b600080fd5b61008a61013a565b6040516100979190610dd5565b60405180910390f35b6100b36100ae366004610e07565b6101c8565b604051908152602001610097565b6001546100d4906001600160a01b031681565b6040516001600160a01b039091168152602001610097565b6100ff6100fa366004610e24565b610662565b005b6004546100d4906001600160a01b031681565b6003546100d4906001600160a01b031681565b6002546100d4906001600160a01b031681565b6000805461014790610e50565b80601f016020809104026020016040519081016040528092919081815260200182805461017390610e50565b80156101c05780601f10610195576101008083540402835291602001916101c0565b820191906000526020600020905b8154815290600101906020018083116101a357829003601f168201915b505050505081565b6000806000836001600160a01b031663dc573d336040518163ffffffff1660e01b8152600401602060405180830381865afa15801561020b573d6000803e3d6000fd5b505050506040513d601f19601f8201168201806040525081019061022f9190610e8a565b6040516246613160e11b81526001600160a01b0386811660048301529190911690628cc26290602401602060405180830381865afa158015610275573d6000803e3d6000fd5b505050506040513d601f19601f820116820180604052508101906102999190610ea7565b6003549091506000906102b5906001600160a01b031630610b6a565b6102bf9083610ed6565b9050600080600080730d276fc14719f9292d5c1ea2198673d1f42692466001600160a01b031663feaf968c6040518163ffffffff1660e01b815260040160a060405180830381865afa158015610319573d6000803e3d6000fd5b505050506040513d601f19601f8201168201806040525081019061033d9190610f0a565b945094505093509350836001600160501b0316816001600160501b031610156103a55760405162461bcd60e51b8152602060048201526015602482015274436861696e6c696e6b205072696365205374616c6560581b60448201526064015b60405180910390fd5b600083136103ed5760405162461bcd60e51b815260206004820152601560248201527421b430b4b73634b7359026b0b6333ab731ba34b7b760591b604482015260640161039c565b816000036104305760405162461bcd60e51b815260206004820152601060248201526f125b98dbdb5c1b195d19481c9bdd5b9960821b604482015260640161039c565b6000806000807313e3ee699d1909e989722e753853ae30b17e08c56001600160a01b031663feaf968c6040518163ffffffff1660e01b815260040160a060405180830381865afa158015610488573d6000803e3d6000fd5b505050506040513d601f19601f820116820180604052508101906104ac9190610f0a565b945094505093509350836001600160501b0316816001600160501b0316101561050f5760405162461bcd60e51b8152602060048201526015602482015274436861696e6c696e6b205072696365205374616c6560581b604482015260640161039c565b600083136105575760405162461bcd60e51b815260206004820152601560248201527421b430b4b73634b7359026b0b6333ab731ba34b7b760591b604482015260640161039c565b8160000361059a5760405162461bcd60e51b815260206004820152601060248201526f125b98dbdb5c1b195d19481c9bdd5b9960821b604482015260640161039c565b6002546001600160a01b031673cb8fa9a76b8e203d8c3797bf438d8fb81ea3326919016105e1576305f5e1006105d0888b610f5a565b6105da9190610f79565b9a50610651565b6002546001600160a01b0316733e29d3a9316dab217754d13b28646b76607c5f03190161061357826105d0888b610f5a565b60405163c50656df60e01b815260206004820152601260248201527124b73b30b634b2103232b13a103a37b5b2b760711b604482015260640161039c565b50989b9a5050505050505050505050565b816001600160a01b031663372500ab6040518163ffffffff1660e01b81526004016020604051808303816000875af11580156106a2573d6000803e3d6000fd5b505050506040513d601f19601f820116820180604052508101906106c69190610ea7565b506003546040516370a0823160e01b81523060048201526000916001600160a01b0316906370a0823190602401602060405180830381865afa158015610710573d6000803e3d6000fd5b505050506040513d601f19601f820116820180604052508101906107349190610ea7565b90508060000361074357505050565b6002546001600160a01b031673cb8fa9a76b8e203d8c3797bf438d8fb81ea3326a0361091b5760408051600280825260608201909252600091816020015b6040805160608101825260008082526020808301829052928201528252600019909201910181610781575050604080516060810182526042602160991b018152737f5c764cbc14f9669b88837ca1490cca17c31607602082015260009181018290528251929350918391906107f8576107f8610fb1565b60200260200101819052506040518060600160405280737f5c764cbc14f9669b88837ca1490cca17c316076001600160a01b0316815260200173cb8fa9a76b8e203d8c3797bf438d8fb81ea3326a6001600160a01b03168152602001600115158152508160018151811061086e5761086e610fb1565b6020908102919091010152600354600454610896916001600160a01b03908116911684610c6d565b60048054604051631e82ecdb60e31b81526001600160a01b039091169163f41766d8916108cd918691889187913091429101610fc7565b6000604051808303816000875af11580156108ec573d6000803e3d6000fd5b505050506040513d6000823e601f3d908101601f19168201604052610914919081019061105c565b5050610a2e565b6002546001600160a01b0316733e29d3a9316dab217754d13b28646b76607c5f04036109cf57604080516001808252818301909252600091816020015b6040805160608101825260008082526020808301829052928201528252600019909201910181610958575050604080516060810182526042602160991b018152733e29d3a9316dab217754d13b28646b76607c5f046020820152600091810182905282519293509183919061086e5761086e610fb1565b60405163c50656df60e01b815260206004820152602d60248201527f52657761726420636f6c6c6563746f72206064656274546f6b656e602069732060448201526c1b9bdd081cdd5c1c1bdc9d1959609a1b606482015260840161039c565b6002546040516370a0823160e01b81523060048201526000916001600160a01b0316906370a0823190602401602060405180830381865afa158015610a77573d6000803e3d6000fd5b505050506040513d601f19601f82011682018060405250810190610a9b9190610ea7565b600254600154919250610abb916001600160a01b03918216911683610c6d565b60015460405163e69d849d60e01b81526001600160a01b038681166004830152602482018490529091169063e69d849d90604401600060405180830381600087803b158015610b0957600080fd5b505af1158015610b1d573d6000803e3d6000fd5b5050604080516001600160a01b0388168152602081018590527f66255f492bd1ee3557812a367882a47457dd0d5410296bdcf06556810fa24327935001905060405180910390a150505050565b604080516001600160a01b0383811660248084019190915283518084039091018152604490920183526020820180516001600160e01b03166370a0823160e01b17905291516000928392839291871691610bc4919061111a565b600060405180830381855afa9150503d8060008114610bff576040519150601f19603f3d011682016040523d82523d6000602084013e610c04565b606091505b5091509150846001600160a01b03163b60001480610c20575081155b80610c2c575060208151105b15610c505784828260405163e7e40b5b60e01b815260040161039c93929190611136565b80806020019051810190610c649190610ea7565b95945050505050565b604080516001600160a01b038481166024830152604480830185905283518084039091018152606490920183526020820180516001600160e01b031663095ea7b360e01b1790529151600092839290871691610cc9919061111a565b6000604051808303816000865af19150503d8060008114610d06576040519150601f19603f3d011682016040523d82523d6000602084013e610d0b565b606091505b5091509150846001600160a01b03163b60001480610d27575081155b80610d4e5750805115801590610d4e575080806020019051810190610d4c9190611162565b155b15610d725784828260405163e7e40b5b60e01b815260040161039c93929190611136565b5050505050565b60005b83811015610d94578181015183820152602001610d7c565b83811115610da3576000848401525b50505050565b60008151808452610dc1816020860160208601610d79565b601f01601f19169290920160200192915050565b602081526000610de86020830184610da9565b9392505050565b6001600160a01b0381168114610e0457600080fd5b50565b600060208284031215610e1957600080fd5b8135610de881610def565b60008060408385031215610e3757600080fd5b8235610e4281610def565b946020939093013593505050565b600181811c90821680610e6457607f821691505b602082108103610e8457634e487b7160e01b600052602260045260246000fd5b50919050565b600060208284031215610e9c57600080fd5b8151610de881610def565b600060208284031215610eb957600080fd5b5051919050565b634e487b7160e01b600052601160045260246000fd5b60008219821115610ee957610ee9610ec0565b500190565b80516001600160501b0381168114610f0557600080fd5b919050565b600080600080600060a08688031215610f2257600080fd5b610f2b86610eee565b9450602086015193506040860151925060608601519150610f4e60808701610eee565b90509295509295909350565b6000816000190483118215151615610f7457610f74610ec0565b500290565b600082610f9657634e487b7160e01b600052601260045260246000fd5b500490565b634e487b7160e01b600052604160045260246000fd5b634e487b7160e01b600052603260045260246000fd5b600060a0820187835260208781850152604060a08186015282885180855260c087019150838a01945060005b8181101561103057855180516001600160a01b03908116855286820151168685015284015115158484015294840194606090920191600101610ff3565b50506001600160a01b0388166060870152935061104c92505050565b8260808301529695505050505050565b6000602080838503121561106f57600080fd5b825167ffffffffffffffff8082111561108757600080fd5b818501915085601f83011261109b57600080fd5b8151818111156110ad576110ad610f9b565b8060051b604051601f19603f830116810181811085821117156110d2576110d2610f9b565b6040529182528482019250838101850191888311156110f057600080fd5b938501935b8285101561110e578451845293850193928501926110f5565b98975050505050505050565b6000825161112c818460208701610d79565b9190910192915050565b6001600160a01b03841681528215156020820152606060408201819052600090610c6490830184610da9565b60006020828403121561117457600080fd5b81518015158114610de857600080fdfea264697066735822122024c1493c845e209386a5f34909647a97d323d3447ad7865fdbdd039f7735046564736f6c634300080d0033",
  "devdoc": {
    "author": "Alchemix Finance",
    "errors": {
      "ERC20CallFailed(address,bool,bytes)": [
        {
          "params": {
            "data": "The resulting data from the call. This is error data when the call was not a success. Otherwise,                this is malformed data when the call was a success.",
            "success": "If the call to the token was a success.",
            "target": "The target address."
          }
        }
      ],
      "IllegalState(string)": [
        {
          "params": {
            "message": "The error message."
          }
        }
      ]
    },
    "events": {
      "RewardsDonated(address,uint256)": {
        "params": {
          "amount": "The amount of debt tokens donated.",
          "token": "The yield token that received a donation."
        }
      }
    },
    "kind": "dev",
    "methods": {
      "claimAndDonateRewards(address,uint256)": {
        "params": {
          "minimumAmountOut": "The minimum returns to accept.",
          "token": "The yield token to claim rewards for."
        }
      }
    },
    "stateVariables": {
      "debtToken": {
        "return": "The debt token",
        "returns": {
          "_0": "The debt token"
        }
      },
      "rewardToken": {
        "return": "The reward token.",
        "returns": {
          "_0": "The reward token."
        }
      },
      "swapRouter": {
        "return": "The swap router address.",
        "returns": {
          "_0": "The swap router address."
        }
      },
      "version": {
        "return": "The version.",
        "returns": {
          "_0": "The version."
        }
      }
    },
    "title": "OptimismYearnRewardCollector",
    "version": 1
  },
  "userdoc": {
    "errors": {
      "ERC20CallFailed(address,bool,bytes)": [
        {
          "notice": "An error used to indicate that a call to an ERC20 contract failed."
        }
      ],
      "IllegalState(string)": [
        {
          "notice": "An error used to indicate that a function has encountered an unrecoverable state."
        }
      ]
    },
    "events": {
      "RewardsDonated(address,uint256)": {
        "notice": "Emitted when a donation occurs."
      }
    },
    "kind": "user",
    "methods": {
      "claimAndDonateRewards(address,uint256)": {
        "notice": "Claims rewards tokens, swaps for debt tokens. "
      },
      "debtToken()": {
        "notice": "Gets the current debt token."
      },
      "getExpectedExchange(address)": {
        "notice": "Gets expected exchange for OP to debt token."
      },
      "rewardToken()": {
        "notice": "Gets the current reward token."
      },
      "swapRouter()": {
        "notice": "Gets the current swap router."
      },
      "version()": {
        "notice": "Gets the current version."
      }
    },
    "version": 1
  },
  "storageLayout": {
    "storage": [
      {
        "astId": 99399,
        "contract": "submodules/v2-foundry/src/utils/collectors/OptimismYearnRewardCollector.sol:OptimismYearnRewardCollector",
        "label": "version",
        "offset": 0,
        "slot": "0",
        "type": "t_string_storage"
      },
      {
        "astId": 99401,
        "contract": "submodules/v2-foundry/src/utils/collectors/OptimismYearnRewardCollector.sol:OptimismYearnRewardCollector",
        "label": "alchemist",
        "offset": 0,
        "slot": "1",
        "type": "t_address"
      },
      {
        "astId": 99403,
        "contract": "submodules/v2-foundry/src/utils/collectors/OptimismYearnRewardCollector.sol:OptimismYearnRewardCollector",
        "label": "debtToken",
        "offset": 0,
        "slot": "2",
        "type": "t_address"
      },
      {
        "astId": 99406,
        "contract": "submodules/v2-foundry/src/utils/collectors/OptimismYearnRewardCollector.sol:OptimismYearnRewardCollector",
        "label": "rewardToken",
        "offset": 0,
        "slot": "3",
        "type": "t_address"
      },
      {
        "astId": 99409,
        "contract": "submodules/v2-foundry/src/utils/collectors/OptimismYearnRewardCollector.sol:OptimismYearnRewardCollector",
        "label": "swapRouter",
        "offset": 0,
        "slot": "4",
        "type": "t_address"
      }
    ],
    "types": {
      "t_address": {
        "encoding": "inplace",
        "label": "address",
        "numberOfBytes": "20"
      },
      "t_string_storage": {
        "encoding": "bytes",
        "label": "string",
        "numberOfBytes": "32"
      }
    }
  }
}