{
  "address": "0x2931b84D59f6f570EEBDAaaE182867C5E5D58075",
  "abi": [
    {
      "inputs": [],
      "stateMutability": "nonpayable",
      "type": "constructor"
    },
    {
      "inputs": [
        {
          "internalType": "address",
          "name": "target",
          "type": "address"
        },
        {
          "internalType": "bool",
          "name": "success",
          "type": "bool"
        },
        {
          "internalType": "bytes",
          "name": "data",
          "type": "bytes"
        }
      ],
      "name": "ERC20CallFailed",
      "type": "error"
    },
    {
      "anonymous": false,
      "inputs": [
        {
          "indexed": true,
          "internalType": "address",
          "name": "previousOwner",
          "type": "address"
        },
        {
          "indexed": true,
          "internalType": "address",
          "name": "newOwner",
          "type": "address"
        }
      ],
      "name": "OwnershipTransferred",
      "type": "event"
    },
    {
      "inputs": [],
      "name": "BPS",
      "outputs": [
        {
          "internalType": "uint256",
          "name": "",
          "type": "uint256"
        }
      ],
      "stateMutability": "view",
      "type": "function"
    },
    {
      "inputs": [
        {
          "internalType": "address",
          "name": "vault",
          "type": "address"
        },
        {
          "internalType": "address",
          "name": "rewardCollectorAddress",
          "type": "address"
        },
        {
          "internalType": "uint256",
          "name": "rewardAmount",
          "type": "uint256"
        },
        {
          "internalType": "uint256",
          "name": "rewardTimeframe",
          "type": "uint256"
        },
        {
          "internalType": "uint256",
          "name": "lastRewardBlock",
          "type": "uint256"
        }
      ],
      "name": "addVault",
      "outputs": [],
      "stateMutability": "nonpayable",
      "type": "function"
    },
    {
      "inputs": [
        {
          "internalType": "address",
          "name": "vault",
          "type": "address"
        }
      ],
      "name": "distributeRewards",
      "outputs": [
        {
          "internalType": "uint256",
          "name": "",
          "type": "uint256"
        }
      ],
      "stateMutability": "nonpayable",
      "type": "function"
    },
    {
      "inputs": [
        {
          "internalType": "address",
          "name": "vault",
          "type": "address"
        }
      ],
      "name": "getRewardCollector",
      "outputs": [
        {
          "internalType": "address",
          "name": "",
          "type": "address"
        },
        {
          "internalType": "address",
          "name": "",
          "type": "address"
        },
        {
          "internalType": "uint256",
          "name": "",
          "type": "uint256"
        },
        {
          "internalType": "uint256",
          "name": "",
          "type": "uint256"
        },
        {
          "internalType": "uint256",
          "name": "",
          "type": "uint256"
        }
      ],
      "stateMutability": "view",
      "type": "function"
    },
    {
      "inputs": [],
      "name": "owner",
      "outputs": [
        {
          "internalType": "address",
          "name": "",
          "type": "address"
        }
      ],
      "stateMutability": "view",
      "type": "function"
    },
    {
      "inputs": [],
      "name": "renounceOwnership",
      "outputs": [],
      "stateMutability": "nonpayable",
      "type": "function"
    },
    {
      "inputs": [
        {
          "internalType": "address",
          "name": "",
          "type": "address"
        }
      ],
      "name": "rewardCollectors",
      "outputs": [
        {
          "internalType": "address",
          "name": "rewardCollectorAddress",
          "type": "address"
        },
        {
          "internalType": "uint256",
          "name": "rewardAmount",
          "type": "uint256"
        },
        {
          "internalType": "uint256",
          "name": "rewardTimeframe",
          "type": "uint256"
        },
        {
          "internalType": "uint256",
          "name": "lastRewardBlock",
          "type": "uint256"
        }
      ],
      "stateMutability": "view",
      "type": "function"
    },
    {
      "inputs": [
        {
          "internalType": "address",
          "name": "vault",
          "type": "address"
        },
        {
          "internalType": "uint256",
          "name": "rewardAmount",
          "type": "uint256"
        }
      ],
      "name": "setRewardAmount",
      "outputs": [],
      "stateMutability": "nonpayable",
      "type": "function"
    },
    {
      "inputs": [
        {
          "internalType": "address",
          "name": "vault",
          "type": "address"
        },
        {
          "internalType": "address",
          "name": "rewardCollectorAddress",
          "type": "address"
        }
      ],
      "name": "setRewardCollectorAddress",
      "outputs": [],
      "stateMutability": "nonpayable",
      "type": "function"
    },
    {
      "inputs": [
        {
          "internalType": "address",
          "name": "vault",
          "type": "address"
        },
        {
          "internalType": "uint256",
          "name": "timeframe",
          "type": "uint256"
        }
      ],
      "name": "setRewardTimeframe",
      "outputs": [],
      "stateMutability": "nonpayable",
      "type": "function"
    },
    {
      "inputs": [
        {
          "internalType": "uint256",
          "name": "slippage",
          "type": "uint256"
        }
      ],
      "name": "setSlippage",
      "outputs": [],
      "stateMutability": "nonpayable",
      "type": "function"
    },
    {
      "inputs": [],
      "name": "slippageBPS",
      "outputs": [
        {
          "internalType": "uint256",
          "name": "",
          "type": "uint256"
        }
      ],
      "stateMutability": "view",
      "type": "function"
    },
    {
      "inputs": [
        {
          "internalType": "address",
          "name": "token",
          "type": "address"
        },
        {
          "internalType": "address",
          "name": "recipient",
          "type": "address"
        }
      ],
      "name": "sweepTokens",
      "outputs": [],
      "stateMutability": "nonpayable",
      "type": "function"
    },
    {
      "inputs": [
        {
          "internalType": "address",
          "name": "newOwner",
          "type": "address"
        }
      ],
      "name": "transferOwnership",
      "outputs": [],
      "stateMutability": "nonpayable",
      "type": "function"
    },
    {
      "inputs": [],
      "name": "version",
      "outputs": [
        {
          "internalType": "string",
          "name": "",
          "type": "string"
        }
      ],
      "stateMutability": "view",
      "type": "function"
    }
  ],
  "transactionHash": "0x15800c2e760c2406c77336331d6650201a7cf8fefdd37abfc2eca2f815b9178a",
  "args": [],
  "solcInputHash": "4865646f5642a8997ba028dc087a6836",
  "bytecode": "0x60c060405260056080819052640312e302e360dc1b60a09081526200002891600191906200009e565b5061251c6002553480156200003c57600080fd5b5062000048336200004e565b62000180565b600080546001600160a01b038381166001600160a01b0319831681178455604051919092169283917f8be0079c531659141344cd1fd0a4f28419497f9722a3daafe3b4186f6b6457e09190a35050565b828054620000ac9062000144565b90600052602060002090601f016020900481019282620000d057600085556200011b565b82601f10620000eb57805160ff19168380011785556200011b565b828001600101855582156200011b579182015b828111156200011b578251825591602001919060010190620000fe565b50620001299291506200012d565b5090565b5b808211156200012957600081556001016200012e565b600181811c908216806200015957607f821691505b6020821081036200017a57634e487b7160e01b600052602260045260246000fd5b50919050565b610db280620001906000396000f3fe608060405234801561001057600080fd5b50600436106100f55760003560e01c806354fd4d5011610097578063e8260b9911610066578063e8260b9914610256578063eefc6e2314610269578063f0fa55a91461027c578063f2fde38b1461028f57600080fd5b806354fd4d50146101d85780636d0580b9146101ed578063715018a6146102335780638da5cb5b1461023b57600080fd5b80632526e17e116100d35780632526e17e1461013e578063348c49a1146101515780633ec7010f1461016457806352c94f751461016d57600080fd5b80631609be1d146100fa5780631de9d9b61461010f578063249d39e914610135575b600080fd5b61010d610108366004610ad2565b6102a2565b005b61012261011d366004610b0b565b6102c2565b6040519081526020015b60405180910390f35b61012261271081565b61010d61014c366004610b2f565b610522565b61010d61015f366004610ad2565b610549565b61012260025481565b6101ae61017b366004610b0b565b600360208190526000918252604090912080546001820154600283015492909301546001600160a01b0390911692919084565b604080516001600160a01b039095168552602085019390935291830152606082015260800161012c565b6101e061057f565b60405161012c9190610bb7565b6102006101fb366004610b0b565b61060d565b604080516001600160a01b039687168152959094166020860152928401919091526060830152608082015260a00161012c565b61010d6106cf565b6000546040516001600160a01b03909116815260200161012c565b61010d610264366004610b2f565b6106e3565b61010d610277366004610bca565b61070a565b61010d61028a366004610c1b565b610779565b61010d61029d366004610b0b565b610786565b6102aa610804565b6102be82826102b9853061085e565b610961565b5050565b6001600160a01b0381166000908152600360205260408120600101541561040a576001600160a01b0382166000908152600360208190526040822001546103099043610c4a565b6001600160a01b03841660009081526003602052604081206002810154600190910154929350909161033c908490610c61565b6103469190610c80565b6001600160a01b0380861660009081526003602090815260409182902054825163f7c618c160e01b815292519495506103e89493169263f7c618c19260048082019392918290030181865afa1580156103a3573d6000803e3d6000fd5b505050506040513d601f19601f820116820180604052508101906103c79190610ca2565b6001600160a01b038087166000908152600360205260409020541683610961565b50506001600160a01b0382166000908152600360208190526040909120439101555b6001600160a01b03828116600081815260036020526040908190205460025491516315a1452760e21b815260048101939093529092169163a387b32f918591612710918590635685149c90602401602060405180830381865afa158015610475573d6000803e3d6000fd5b505050506040513d601f19601f820116820180604052508101906104999190610cbf565b6104a39190610c61565b6104ad9190610c80565b6040516001600160e01b031960e085901b1681526001600160a01b03909216600483015260248201526044016020604051808303816000875af11580156104f8573d6000803e3d6000fd5b505050506040513d601f19601f8201168201806040525081019061051c9190610cbf565b92915050565b61052a610804565b6001600160a01b03909116600090815260036020526040902060020155565b610551610804565b6001600160a01b03918216600090815260036020526040902080546001600160a01b03191691909216179055565b6001805461058c90610cd8565b80601f01602080910402602001604051908101604052809291908181526020018280546105b890610cd8565b80156106055780601f106105da57610100808354040283529160200191610605565b820191906000526020600020905b8154815290600101906020018083116105e857829003601f168201915b505050505081565b6001600160a01b03808216600090815260036020908152604080832054815163f7c618c160e01b815291519394859485948594859490931692839263f7c618c1926004808401939192918290030181865afa158015610670573d6000803e3d6000fd5b505050506040513d601f19601f820116820180604052508101906106949190610ca2565b6001600160a01b0397909716600090815260036020819052604090912060018101546002820154919092015492999197509550909350915050565b6106d7610804565b6106e16000610a6d565b565b6106eb610804565b6001600160a01b03909116600090815260036020526040902060010155565b610712610804565b604080516080810182526001600160a01b039586168152602080820195865281830194855260608201938452968616600090815260039788905291909120905181546001600160a01b03191695169490941784559151600184015551600283015551910155565b610781610804565b600255565b61078e610804565b6001600160a01b0381166107f85760405162461bcd60e51b815260206004820152602660248201527f4f776e61626c653a206e6577206f776e657220697320746865207a65726f206160448201526564647265737360d01b60648201526084015b60405180910390fd5b61080181610a6d565b50565b6000546001600160a01b031633146106e15760405162461bcd60e51b815260206004820181905260248201527f4f776e61626c653a2063616c6c6572206973206e6f7420746865206f776e657260448201526064016107ef565b604080516001600160a01b0383811660248084019190915283518084039091018152604490920183526020820180516001600160e01b03166370a0823160e01b179052915160009283928392918716916108b89190610d12565b600060405180830381855afa9150503d80600081146108f3576040519150601f19603f3d011682016040523d82523d6000602084013e6108f8565b606091505b5091509150846001600160a01b03163b60001480610914575081155b80610920575060208151105b156109445784828260405163e7e40b5b60e01b81526004016107ef93929190610d2e565b808060200190518101906109589190610cbf565b95945050505050565b604080516001600160a01b038481166024830152604480830185905283518084039091018152606490920183526020820180516001600160e01b031663a9059cbb60e01b17905291516000928392908716916109bd9190610d12565b6000604051808303816000865af19150503d80600081146109fa576040519150601f19603f3d011682016040523d82523d6000602084013e6109ff565b606091505b5091509150846001600160a01b03163b60001480610a1b575081155b80610a425750805115801590610a42575080806020019051810190610a409190610d5a565b155b15610a665784828260405163e7e40b5b60e01b81526004016107ef93929190610d2e565b5050505050565b600080546001600160a01b038381166001600160a01b0319831681178455604051919092169283917f8be0079c531659141344cd1fd0a4f28419497f9722a3daafe3b4186f6b6457e09190a35050565b6001600160a01b038116811461080157600080fd5b60008060408385031215610ae557600080fd5b8235610af081610abd565b91506020830135610b0081610abd565b809150509250929050565b600060208284031215610b1d57600080fd5b8135610b2881610abd565b9392505050565b60008060408385031215610b4257600080fd5b8235610b4d81610abd565b946020939093013593505050565b60005b83811015610b76578181015183820152602001610b5e565b83811115610b85576000848401525b50505050565b60008151808452610ba3816020860160208601610b5b565b601f01601f19169290920160200192915050565b602081526000610b286020830184610b8b565b600080600080600060a08688031215610be257600080fd5b8535610bed81610abd565b94506020860135610bfd81610abd565b94979496505050506040830135926060810135926080909101359150565b600060208284031215610c2d57600080fd5b5035919050565b634e487b7160e01b600052601160045260246000fd5b600082821015610c5c57610c5c610c34565b500390565b6000816000190483118215151615610c7b57610c7b610c34565b500290565b600082610c9d57634e487b7160e01b600052601260045260246000fd5b500490565b600060208284031215610cb457600080fd5b8151610b2881610abd565b600060208284031215610cd157600080fd5b5051919050565b600181811c90821680610cec57607f821691505b602082108103610d0c57634e487b7160e01b600052602260045260246000fd5b50919050565b60008251610d24818460208701610b5b565b9190910192915050565b6001600160a01b0384168152821515602082015260606040820181905260009061095890830184610b8b565b600060208284031215610d6c57600080fd5b81518015158114610b2857600080fdfea2646970667358221220435b7df64a54013637e950a66a0a0c47edde4a4aea632107837675fc59a53c3764736f6c634300080d0033",
  "devdoc": {
    "author": "Alchemix Finance",
    "errors": {
      "ERC20CallFailed(address,bool,bytes)": [
        {
          "params": {
            "data": "The resulting data from the call. This is error data when the call was not a success. Otherwise,                this is malformed data when the call was a success.",
            "success": "If the call to the token was a success.",
            "target": "The target address."
          }
        }
      ]
    },
    "kind": "dev",
    "methods": {
      "addVault(address,address,uint256,uint256,uint256)": {
        "details": "Add reward collector params to a map of yield tokens"
      },
      "distributeRewards(address)": {
        "details": "Distributes grant rewards and triggers reward collector to claim and donate"
      },
      "getRewardCollector(address)": {
        "details": "Get reward collector params for a given vault"
      },
      "owner()": {
        "details": "Returns the address of the current owner."
      },
      "renounceOwnership()": {
        "details": "Leaves the contract without owner. It will not be possible to call `onlyOwner` functions anymore. Can only be called by the current owner. NOTE: Renouncing ownership will leave the contract without an owner, thereby removing any functionality that is only available to the owner."
      },
      "setRewardAmount(address,uint256)": {
        "details": "Set the reward token amount for a given vault"
      },
      "setRewardCollectorAddress(address,address)": {
        "details": "Set the reward collector address for a given vault"
      },
      "setRewardTimeframe(address,uint256)": {
        "details": "Set the reward token timeframe for a given vault"
      },
      "setSlippage(uint256)": {
        "details": "Set the allowed slippage"
      },
      "sweepTokens(address,address)": {
        "details": "Sweeps reward tokens to recipient"
      },
      "transferOwnership(address)": {
        "details": "Transfers ownership of the contract to a new account (`newOwner`). Can only be called by the current owner."
      }
    },
    "stateVariables": {
      "rewardCollectors": {
        "details": "A mapping of the yield tokens to their respective reward collectors"
      },
      "version": {
        "return": "The version.",
        "returns": {
          "_0": "The version."
        }
      }
    },
    "title": "Reward Router",
    "version": 1
  },
  "userdoc": {
    "errors": {
      "ERC20CallFailed(address,bool,bytes)": [
        {
          "notice": "An error used to indicate that a call to an ERC20 contract failed."
        }
      ]
    },
    "kind": "user",
    "methods": {
      "sweepTokens(address,address)": {
        "notice": "This contract is stocked with reward tokens from grants. This function is to retract excess tokens."
      },
      "version()": {
        "notice": "Gets the current version."
      }
    },
    "version": 1
  },
  "storageLayout": {
    "storage": [
      {
        "astId": 27636,
        "contract": "submodules/v2-foundry/src/utils/RewardRouter.sol:RewardRouter",
        "label": "_owner",
        "offset": 0,
        "slot": "0",
        "type": "t_address"
      },
      {
        "astId": 89144,
        "contract": "submodules/v2-foundry/src/utils/RewardRouter.sol:RewardRouter",
        "label": "version",
        "offset": 0,
        "slot": "1",
        "type": "t_string_storage"
      },
      {
        "astId": 89150,
        "contract": "submodules/v2-foundry/src/utils/RewardRouter.sol:RewardRouter",
        "label": "slippageBPS",
        "offset": 0,
        "slot": "2",
        "type": "t_uint256"
      },
      {
        "astId": 89156,
        "contract": "submodules/v2-foundry/src/utils/RewardRouter.sol:RewardRouter",
        "label": "rewardCollectors",
        "offset": 0,
        "slot": "3",
        "type": "t_mapping(t_address,t_struct(RewardCollector)89135_storage)"
      }
    ],
    "types": {
      "t_address": {
        "encoding": "inplace",
        "label": "address",
        "numberOfBytes": "20"
      },
      "t_mapping(t_address,t_struct(RewardCollector)89135_storage)": {
        "encoding": "mapping",
        "key": "t_address",
        "label": "mapping(address => struct RewardCollector)",
        "numberOfBytes": "32",
        "value": "t_struct(RewardCollector)89135_storage"
      },
      "t_string_storage": {
        "encoding": "bytes",
        "label": "string",
        "numberOfBytes": "32"
      },
      "t_struct(RewardCollector)89135_storage": {
        "encoding": "inplace",
        "label": "struct RewardCollector",
        "members": [
          {
            "astId": 89128,
            "contract": "submodules/v2-foundry/src/utils/RewardRouter.sol:RewardRouter",
            "label": "rewardCollectorAddress",
            "offset": 0,
            "slot": "0",
            "type": "t_address"
          },
          {
            "astId": 89130,
            "contract": "submodules/v2-foundry/src/utils/RewardRouter.sol:RewardRouter",
            "label": "rewardAmount",
            "offset": 0,
            "slot": "1",
            "type": "t_uint256"
          },
          {
            "astId": 89132,
            "contract": "submodules/v2-foundry/src/utils/RewardRouter.sol:RewardRouter",
            "label": "rewardTimeframe",
            "offset": 0,
            "slot": "2",
            "type": "t_uint256"
          },
          {
            "astId": 89134,
            "contract": "submodules/v2-foundry/src/utils/RewardRouter.sol:RewardRouter",
            "label": "lastRewardBlock",
            "offset": 0,
            "slot": "3",
            "type": "t_uint256"
          }
        ],
        "numberOfBytes": "128"
      },
      "t_uint256": {
        "encoding": "inplace",
        "label": "uint256",
        "numberOfBytes": "32"
      }
    }
  }
}