{
  "address": "0xD8320859860f8E116E9bDa13CdD60B27bcb6b058",
  "abi": [
    {
      "inputs": [
        {
          "components": [
            {
              "internalType": "address",
              "name": "alchemist",
              "type": "address"
            },
            {
              "internalType": "address",
              "name": "debtToken",
              "type": "address"
            },
            {
              "internalType": "address",
              "name": "rewardsController",
              "type": "address"
            },
            {
              "internalType": "address",
              "name": "rewardToken",
              "type": "address"
            },
            {
              "internalType": "address",
              "name": "swapRouter",
              "type": "address"
            }
          ],
          "internalType": "struct InitializationParams",
          "name": "params",
          "type": "tuple"
        }
      ],
      "stateMutability": "nonpayable",
      "type": "constructor"
    },
    {
      "inputs": [
        {
          "internalType": "string",
          "name": "message",
          "type": "string"
        }
      ],
      "name": "IllegalState",
      "type": "error"
    },
    {
      "inputs": [],
      "name": "alchemist",
      "outputs": [
        {
          "internalType": "address",
          "name": "",
          "type": "address"
        }
      ],
      "stateMutability": "view",
      "type": "function"
    },
    {
      "inputs": [
        {
          "internalType": "address[]",
          "name": "tokens",
          "type": "address[]"
        },
        {
          "internalType": "uint256",
          "name": "minimumOpOut",
          "type": "uint256"
        }
      ],
      "name": "claimAndDistributeRewards",
      "outputs": [
        {
          "internalType": "uint256",
          "name": "",
          "type": "uint256"
        }
      ],
      "stateMutability": "nonpayable",
      "type": "function"
    },
    {
      "inputs": [],
      "name": "debtToken",
      "outputs": [
        {
          "internalType": "address",
          "name": "",
          "type": "address"
        }
      ],
      "stateMutability": "view",
      "type": "function"
    },
    {
      "inputs": [],
      "name": "rewardToken",
      "outputs": [
        {
          "internalType": "address",
          "name": "",
          "type": "address"
        }
      ],
      "stateMutability": "view",
      "type": "function"
    },
    {
      "inputs": [],
      "name": "swapRouter",
      "outputs": [
        {
          "internalType": "address",
          "name": "",
          "type": "address"
        }
      ],
      "stateMutability": "view",
      "type": "function"
    },
    {
      "inputs": [],
      "name": "version",
      "outputs": [
        {
          "internalType": "string",
          "name": "",
          "type": "string"
        }
      ],
      "stateMutability": "view",
      "type": "function"
    }
  ],
  "transactionHash": "0xfd4397fdd271e7ab4362140b640c34bdc87b3ca84e9f30122b91240edd011f60",
  "args": [
    {
      "alchemist": "0x10294d57A419C8eb78C648372c5bAA27fD1484af",
      "debtToken": "0xCB8FA9a76b8e203D8C3797bF438d8FB81Ea3326A",
      "rewardsController": "0x929EC64c34a17401F460460D4B9390518E5B473e",
      "rewardToken": "0x4200000000000000000000000000000000000042",
      "swapRouter": "0x9c12939390052919aF3155f41Bf4160Fd3666A6f"
    }
  ],
  "solcInputHash": "e4d5e3c25e925913040fe00ded4baffa",
  "bytecode": "0x60c060405260056080819052640312e302e360dc1b60a0908152620000289160009190620000ba565b503480156200003657600080fd5b5060405162000cb338038062000cb383398101604081905262000059916200017d565b8051600180546001600160a01b03199081166001600160a01b03938416179091556020830151600280548316918416919091179055606083015160038054831691841691909117905560809092015160048054909316911617905562000260565b828054620000c89062000224565b90600052602060002090601f016020900481019282620000ec576000855562000137565b82601f106200010757805160ff191683800117855562000137565b8280016001018555821562000137579182015b82811115620001375782518255916020019190600101906200011a565b506200014592915062000149565b5090565b5b808211156200014557600081556001016200014a565b80516001600160a01b03811681146200017857600080fd5b919050565b600060a082840312156200019057600080fd5b60405160a081016001600160401b0381118282101715620001c157634e487b7160e01b600052604160045260246000fd5b604052620001cf8362000160565b8152620001df6020840162000160565b6020820152620001f26040840162000160565b6040820152620002056060840162000160565b6060820152620002186080840162000160565b60808201529392505050565b600181811c908216806200023957607f821691505b6020821081036200025a57634e487b7160e01b600052602260045260246000fd5b50919050565b610a4380620002706000396000f3fe608060405234801561001057600080fd5b50600436106100625760003560e01c806354fd4d50146100675780635a6d3006146100855780638de925f6146100a6578063c31c9c07146100d1578063f7c618c1146100e4578063f8d89898146100f7575b600080fd5b61006f61010a565b60405161007c91906106b3565b60405180910390f35b610098610093366004610708565b610198565b60405190815260200161007c565b6001546100b9906001600160a01b031681565b6040516001600160a01b03909116815260200161007c565b6004546100b9906001600160a01b031681565b6003546100b9906001600160a01b031681565b6002546100b9906001600160a01b031681565b6000805461011790610783565b80601f016020809104026020016040519081016040528092919081815260200182805461014390610783565b80156101905780601f1061016557610100808354040283529160200191610190565b820191906000526020600020905b81548152906001019060200180831161017357829003601f168201915b505050505081565b60008060005b848110156106aa578585828181106101b8576101b86107bd565b90506020020160208101906101cd91906107d3565b6001600160a01b031663372500ab6040518163ffffffff1660e01b8152600401600060405180830381600087803b15801561020757600080fd5b505af115801561021b573d6000803e3d6000fd5b50506003546040516370a0823160e01b8152306004820152600093506001600160a01b0390911691506370a0823190602401602060405180830381865afa15801561026a573d6000803e3d6000fd5b505050506040513d601f19601f8201168201806040525081019061028e9190610803565b90508060000361029e5750610698565b6102a88184610832565b6002549093506001600160a01b031673cb8fa9a76b8e203d8c3797bf438d8fb81ea3326a0361047d5760408051600280825260608201909252600091816020015b60408051606081018252600080825260208083018290529282015282526000199092019101816102e9575050604080516060810182526042602160991b018152737f5c764cbc14f9669b88837ca1490cca17c3160760208201526000918101829052825192935091839190610360576103606107bd565b60200260200101819052506040518060600160405280737f5c764cbc14f9669b88837ca1490cca17c316076001600160a01b0316815260200173cb8fa9a76b8e203d8c3797bf438d8fb81ea3326a6001600160a01b0316815260200160011515815250816001815181106103d6576103d66107bd565b60209081029190910101526004546001600160a01b031663f41766d8836127106104028a61270f610860565b61040c919061087f565b8430426040518663ffffffff1660e01b815260040161042f9594939291906108a1565b6000604051808303816000875af115801561044e573d6000803e3d6000fd5b505050506040513d6000823e601f3d908101601f191682016040526104769190810190610936565b5050610594565b6002546001600160a01b0316733e29d3a9316dab217754d13b28646b76607c5f040361053157604080516001808252818301909252600091816020015b60408051606081018252600080825260208083018290529282015282526000199092019101816104ba575050604080516060810182526042602160991b018152733e29d3a9316dab217754d13b28646b76607c5f04602082015260009181018290528251929350918391906103d6576103d66107bd565b60405163c50656df60e01b815260206004820152602d60248201527f52657761726420636f6c6c6563746f72206064656274546f6b656e602069732060448201526c1b9bdd081cdd5c1c1bdc9d1959609a1b606482015260840160405180910390fd5b6001546001600160a01b031663e69d849d8888858181106105b7576105b76107bd565b90506020020160208101906105cc91906107d3565b6002546040516370a0823160e01b81523060048201526001600160a01b03909116906370a0823190602401602060405180830381865afa158015610614573d6000803e3d6000fd5b505050506040513d601f19601f820116820180604052508101906106389190610803565b6040516001600160e01b031960e085901b1681526001600160a01b0390921660048301526024820152604401600060405180830381600087803b15801561067e57600080fd5b505af1158015610692573d6000803e3d6000fd5b50505050505b806106a2816109f4565b91505061019e565b50949350505050565b600060208083528351808285015260005b818110156106e0578581018301518582016040015282016106c4565b818111156106f2576000604083870101525b50601f01601f1916929092016040019392505050565b60008060006040848603121561071d57600080fd5b833567ffffffffffffffff8082111561073557600080fd5b818601915086601f83011261074957600080fd5b81358181111561075857600080fd5b8760208260051b850101111561076d57600080fd5b6020928301989097509590910135949350505050565b600181811c9082168061079757607f821691505b6020821081036107b757634e487b7160e01b600052602260045260246000fd5b50919050565b634e487b7160e01b600052603260045260246000fd5b6000602082840312156107e557600080fd5b81356001600160a01b03811681146107fc57600080fd5b9392505050565b60006020828403121561081557600080fd5b5051919050565b634e487b7160e01b600052601160045260246000fd5b600082198211156108455761084561081c565b500190565b634e487b7160e01b600052604160045260246000fd5b600081600019048311821515161561087a5761087a61081c565b500290565b60008261089c57634e487b7160e01b600052601260045260246000fd5b500490565b600060a0820187835260208781850152604060a08186015282885180855260c087019150838a01945060005b8181101561090a57855180516001600160a01b039081168552868201511686850152840151151584840152948401946060909201916001016108cd565b50506001600160a01b0388166060870152935061092692505050565b8260808301529695505050505050565b6000602080838503121561094957600080fd5b825167ffffffffffffffff8082111561096157600080fd5b818501915085601f83011261097557600080fd5b8151818111156109875761098761084a565b8060051b604051601f19603f830116810181811085821117156109ac576109ac61084a565b6040529182528482019250838101850191888311156109ca57600080fd5b938501935b828510156109e8578451845293850193928501926109cf565b98975050505050505050565b600060018201610a0657610a0661081c565b506001019056fea2646970667358221220b89f713dab1c3ad9487113c80d8bb7bce9969d5d0f6b2d9abc73acd395489b4364736f6c634300080d0033",
  "devdoc": {
    "author": "Alchemix Finance",
    "errors": {
      "IllegalState(string)": [
        {
          "params": {
            "message": "The error message."
          }
        }
      ]
    },
    "kind": "dev",
    "methods": {
      "claimAndDistributeRewards(address[],uint256)": {
        "params": {
          "minimumOpOut": "The minimum OP to debt tokens.",
          "tokens": "The yield tokens to claim rewards for."
        },
        "returns": {
          "_0": "        The amount of reward tokens claimed."
        }
      }
    },
    "stateVariables": {
      "debtToken": {
        "return": "The debt token",
        "returns": {
          "_0": "The debt token"
        }
      },
      "rewardToken": {
        "return": "The reward token.",
        "returns": {
          "_0": "The reward token."
        }
      },
      "swapRouter": {
        "return": "The swap router address.",
        "returns": {
          "_0": "The swap router address."
        }
      },
      "version": {
        "return": "The version.",
        "returns": {
          "_0": "The version."
        }
      }
    },
    "title": "RewardCollector",
    "version": 1
  },
  "userdoc": {
    "errors": {
      "IllegalState(string)": [
        {
          "notice": "An error used to indicate that a function has encountered an unrecoverable state."
        }
      ]
    },
    "kind": "user",
    "methods": {
      "claimAndDistributeRewards(address[],uint256)": {
        "notice": "Claims rewards tokens, swaps on velodrome for alUSD."
      },
      "debtToken()": {
        "notice": "Gets the current debt token."
      },
      "rewardToken()": {
        "notice": "Gets the current reward token."
      },
      "swapRouter()": {
        "notice": "Gets the current swap router."
      },
      "version()": {
        "notice": "Gets the current version."
      }
    },
    "version": 1
  },
  "storageLayout": {
    "storage": [
      {
        "astId": 85470,
        "contract": "submodules/v2-foundry/src/utils/RewardCollector.sol:RewardCollector",
        "label": "version",
        "offset": 0,
        "slot": "0",
        "type": "t_string_storage"
      },
      {
        "astId": 85472,
        "contract": "submodules/v2-foundry/src/utils/RewardCollector.sol:RewardCollector",
        "label": "alchemist",
        "offset": 0,
        "slot": "1",
        "type": "t_address"
      },
      {
        "astId": 85474,
        "contract": "submodules/v2-foundry/src/utils/RewardCollector.sol:RewardCollector",
        "label": "debtToken",
        "offset": 0,
        "slot": "2",
        "type": "t_address"
      },
      {
        "astId": 85477,
        "contract": "submodules/v2-foundry/src/utils/RewardCollector.sol:RewardCollector",
        "label": "rewardToken",
        "offset": 0,
        "slot": "3",
        "type": "t_address"
      },
      {
        "astId": 85480,
        "contract": "submodules/v2-foundry/src/utils/RewardCollector.sol:RewardCollector",
        "label": "swapRouter",
        "offset": 0,
        "slot": "4",
        "type": "t_address"
      }
    ],
    "types": {
      "t_address": {
        "encoding": "inplace",
        "label": "address",
        "numberOfBytes": "20"
      },
      "t_string_storage": {
        "encoding": "bytes",
        "label": "string",
        "numberOfBytes": "32"
      }
    }
  }
}