{
  "address": "0x4186Eb285b1efdf372AC5896a08C346c7E373cC4",
  "abi": [
    {
      "inputs": [
        {
          "internalType": "address",
          "name": "lendingPool",
          "type": "address"
        },
        {
          "internalType": "address",
          "name": "rewardsController",
          "type": "address"
        },
        {
          "internalType": "address",
          "name": "aToken",
          "type": "address"
        },
        {
          "internalType": "address",
          "name": "_rewardCollector",
          "type": "address"
        },
        {
          "internalType": "string",
          "name": "wrappedTokenName",
          "type": "string"
        },
        {
          "internalType": "string",
          "name": "wrappedTokenSymbol",
          "type": "string"
        }
      ],
      "stateMutability": "nonpayable",
      "type": "constructor"
    },
    {
      "inputs": [
        {
          "internalType": "address",
          "name": "target",
          "type": "address"
        },
        {
          "internalType": "bool",
          "name": "success",
          "type": "bool"
        },
        {
          "internalType": "bytes",
          "name": "data",
          "type": "bytes"
        }
      ],
      "name": "ERC20CallFailed",
      "type": "error"
    },
    {
      "inputs": [],
      "name": "Unauthorized",
      "type": "error"
    },
    {
      "anonymous": false,
      "inputs": [
        {
          "indexed": true,
          "internalType": "address",
          "name": "owner",
          "type": "address"
        },
        {
          "indexed": true,
          "internalType": "address",
          "name": "spender",
          "type": "address"
        },
        {
          "indexed": false,
          "internalType": "uint256",
          "name": "value",
          "type": "uint256"
        }
      ],
      "name": "Approval",
      "type": "event"
    },
    {
      "anonymous": false,
      "inputs": [
        {
          "indexed": true,
          "internalType": "address",
          "name": "from",
          "type": "address"
        },
        {
          "indexed": true,
          "internalType": "address",
          "name": "to",
          "type": "address"
        },
        {
          "indexed": false,
          "internalType": "uint256",
          "name": "value",
          "type": "uint256"
        }
      ],
      "name": "Transfer",
      "type": "event"
    },
    {
      "inputs": [],
      "name": "ASSET",
      "outputs": [
        {
          "internalType": "contract IERC20",
          "name": "",
          "type": "address"
        }
      ],
      "stateMutability": "view",
      "type": "function"
    },
    {
      "inputs": [],
      "name": "ATOKEN",
      "outputs": [
        {
          "internalType": "contract IERC20",
          "name": "",
          "type": "address"
        }
      ],
      "stateMutability": "view",
      "type": "function"
    },
    {
      "inputs": [],
      "name": "EIP712_REVISION",
      "outputs": [
        {
          "internalType": "bytes",
          "name": "",
          "type": "bytes"
        }
      ],
      "stateMutability": "view",
      "type": "function"
    },
    {
      "inputs": [],
      "name": "LENDING_POOL",
      "outputs": [
        {
          "internalType": "contract ILendingPool",
          "name": "",
          "type": "address"
        }
      ],
      "stateMutability": "view",
      "type": "function"
    },
    {
      "inputs": [],
      "name": "METADEPOSIT_TYPEHASH",
      "outputs": [
        {
          "internalType": "bytes32",
          "name": "",
          "type": "bytes32"
        }
      ],
      "stateMutability": "view",
      "type": "function"
    },
    {
      "inputs": [],
      "name": "METAWITHDRAWAL_TYPEHASH",
      "outputs": [
        {
          "internalType": "bytes32",
          "name": "",
          "type": "bytes32"
        }
      ],
      "stateMutability": "view",
      "type": "function"
    },
    {
      "inputs": [],
      "name": "PERMIT_TYPEHASH",
      "outputs": [
        {
          "internalType": "bytes32",
          "name": "",
          "type": "bytes32"
        }
      ],
      "stateMutability": "view",
      "type": "function"
    },
    {
      "inputs": [],
      "name": "REWARDS_CONTROLLER",
      "outputs": [
        {
          "internalType": "contract IRewardsController",
          "name": "",
          "type": "address"
        }
      ],
      "stateMutability": "view",
      "type": "function"
    },
    {
      "inputs": [
        {
          "internalType": "address",
          "name": "",
          "type": "address"
        }
      ],
      "name": "_nonces",
      "outputs": [
        {
          "internalType": "uint256",
          "name": "",
          "type": "uint256"
        }
      ],
      "stateMutability": "view",
      "type": "function"
    },
    {
      "inputs": [],
      "name": "acceptAdmin",
      "outputs": [],
      "stateMutability": "nonpayable",
      "type": "function"
    },
    {
      "inputs": [],
      "name": "admin",
      "outputs": [
        {
          "internalType": "address",
          "name": "",
          "type": "address"
        }
      ],
      "stateMutability": "view",
      "type": "function"
    },
    {
      "inputs": [
        {
          "internalType": "address",
          "name": "owner",
          "type": "address"
        },
        {
          "internalType": "address",
          "name": "spender",
          "type": "address"
        }
      ],
      "name": "allowance",
      "outputs": [
        {
          "internalType": "uint256",
          "name": "",
          "type": "uint256"
        }
      ],
      "stateMutability": "view",
      "type": "function"
    },
    {
      "inputs": [
        {
          "internalType": "address",
          "name": "spender",
          "type": "address"
        },
        {
          "internalType": "uint256",
          "name": "amount",
          "type": "uint256"
        }
      ],
      "name": "approve",
      "outputs": [
        {
          "internalType": "bool",
          "name": "",
          "type": "bool"
        }
      ],
      "stateMutability": "nonpayable",
      "type": "function"
    },
    {
      "inputs": [
        {
          "internalType": "address",
          "name": "account",
          "type": "address"
        }
      ],
      "name": "balanceOf",
      "outputs": [
        {
          "internalType": "uint256",
          "name": "",
          "type": "uint256"
        }
      ],
      "stateMutability": "view",
      "type": "function"
    },
    {
      "inputs": [],
      "name": "claimRewards",
      "outputs": [],
      "stateMutability": "nonpayable",
      "type": "function"
    },
    {
      "inputs": [],
      "name": "decimals",
      "outputs": [
        {
          "internalType": "uint8",
          "name": "",
          "type": "uint8"
        }
      ],
      "stateMutability": "view",
      "type": "function"
    },
    {
      "inputs": [
        {
          "internalType": "address",
          "name": "spender",
          "type": "address"
        },
        {
          "internalType": "uint256",
          "name": "subtractedValue",
          "type": "uint256"
        }
      ],
      "name": "decreaseAllowance",
      "outputs": [
        {
          "internalType": "bool",
          "name": "",
          "type": "bool"
        }
      ],
      "stateMutability": "nonpayable",
      "type": "function"
    },
    {
      "inputs": [
        {
          "internalType": "address",
          "name": "recipient",
          "type": "address"
        },
        {
          "internalType": "uint256",
          "name": "amount",
          "type": "uint256"
        },
        {
          "internalType": "uint16",
          "name": "referralCode",
          "type": "uint16"
        },
        {
          "internalType": "bool",
          "name": "fromUnderlying",
          "type": "bool"
        }
      ],
      "name": "deposit",
      "outputs": [
        {
          "internalType": "uint256",
          "name": "",
          "type": "uint256"
        }
      ],
      "stateMutability": "nonpayable",
      "type": "function"
    },
    {
      "inputs": [
        {
          "internalType": "address",
          "name": "account",
          "type": "address"
        }
      ],
      "name": "dynamicBalanceOf",
      "outputs": [
        {
          "internalType": "uint256",
          "name": "",
          "type": "uint256"
        }
      ],
      "stateMutability": "view",
      "type": "function"
    },
    {
      "inputs": [
        {
          "internalType": "uint256",
          "name": "amount",
          "type": "uint256"
        }
      ],
      "name": "dynamicToStaticAmount",
      "outputs": [
        {
          "internalType": "uint256",
          "name": "",
          "type": "uint256"
        }
      ],
      "stateMutability": "view",
      "type": "function"
    },
    {
      "inputs": [
        {
          "internalType": "uint256",
          "name": "chainId",
          "type": "uint256"
        }
      ],
      "name": "getDomainSeparator",
      "outputs": [
        {
          "internalType": "bytes32",
          "name": "",
          "type": "bytes32"
        }
      ],
      "stateMutability": "view",
      "type": "function"
    },
    {
      "inputs": [
        {
          "internalType": "address",
          "name": "spender",
          "type": "address"
        },
        {
          "internalType": "uint256",
          "name": "addedValue",
          "type": "uint256"
        }
      ],
      "name": "increaseAllowance",
      "outputs": [
        {
          "internalType": "bool",
          "name": "",
          "type": "bool"
        }
      ],
      "stateMutability": "nonpayable",
      "type": "function"
    },
    {
      "inputs": [
        {
          "internalType": "address",
          "name": "depositor",
          "type": "address"
        },
        {
          "internalType": "address",
          "name": "recipient",
          "type": "address"
        },
        {
          "internalType": "uint256",
          "name": "value",
          "type": "uint256"
        },
        {
          "internalType": "uint16",
          "name": "referralCode",
          "type": "uint16"
        },
        {
          "internalType": "bool",
          "name": "fromUnderlying",
          "type": "bool"
        },
        {
          "internalType": "uint256",
          "name": "deadline",
          "type": "uint256"
        },
        {
          "components": [
            {
              "internalType": "uint8",
              "name": "v",
              "type": "uint8"
            },
            {
              "internalType": "bytes32",
              "name": "r",
              "type": "bytes32"
            },
            {
              "internalType": "bytes32",
              "name": "s",
              "type": "bytes32"
            }
          ],
          "internalType": "struct StaticATokenV3.SignatureParams",
          "name": "sigParams",
          "type": "tuple"
        },
        {
          "internalType": "uint256",
          "name": "chainId",
          "type": "uint256"
        }
      ],
      "name": "metaDeposit",
      "outputs": [
        {
          "internalType": "uint256",
          "name": "",
          "type": "uint256"
        }
      ],
      "stateMutability": "nonpayable",
      "type": "function"
    },
    {
      "inputs": [
        {
          "internalType": "address",
          "name": "owner",
          "type": "address"
        },
        {
          "internalType": "address",
          "name": "recipient",
          "type": "address"
        },
        {
          "internalType": "uint256",
          "name": "staticAmount",
          "type": "uint256"
        },
        {
          "internalType": "uint256",
          "name": "dynamicAmount",
          "type": "uint256"
        },
        {
          "internalType": "bool",
          "name": "toUnderlying",
          "type": "bool"
        },
        {
          "internalType": "uint256",
          "name": "deadline",
          "type": "uint256"
        },
        {
          "components": [
            {
              "internalType": "uint8",
              "name": "v",
              "type": "uint8"
            },
            {
              "internalType": "bytes32",
              "name": "r",
              "type": "bytes32"
            },
            {
              "internalType": "bytes32",
              "name": "s",
              "type": "bytes32"
            }
          ],
          "internalType": "struct StaticATokenV3.SignatureParams",
          "name": "sigParams",
          "type": "tuple"
        },
        {
          "internalType": "uint256",
          "name": "chainId",
          "type": "uint256"
        }
      ],
      "name": "metaWithdraw",
      "outputs": [
        {
          "internalType": "uint256",
          "name": "",
          "type": "uint256"
        },
        {
          "internalType": "uint256",
          "name": "",
          "type": "uint256"
        }
      ],
      "stateMutability": "nonpayable",
      "type": "function"
    },
    {
      "inputs": [],
      "name": "name",
      "outputs": [
        {
          "internalType": "string",
          "name": "",
          "type": "string"
        }
      ],
      "stateMutability": "view",
      "type": "function"
    },
    {
      "inputs": [],
      "name": "pendingAdmin",
      "outputs": [
        {
          "internalType": "address",
          "name": "",
          "type": "address"
        }
      ],
      "stateMutability": "view",
      "type": "function"
    },
    {
      "inputs": [
        {
          "internalType": "address",
          "name": "owner",
          "type": "address"
        },
        {
          "internalType": "address",
          "name": "spender",
          "type": "address"
        },
        {
          "internalType": "uint256",
          "name": "value",
          "type": "uint256"
        },
        {
          "internalType": "uint256",
          "name": "deadline",
          "type": "uint256"
        },
        {
          "internalType": "uint8",
          "name": "v",
          "type": "uint8"
        },
        {
          "internalType": "bytes32",
          "name": "r",
          "type": "bytes32"
        },
        {
          "internalType": "bytes32",
          "name": "s",
          "type": "bytes32"
        },
        {
          "internalType": "uint256",
          "name": "chainId",
          "type": "uint256"
        }
      ],
      "name": "permit",
      "outputs": [],
      "stateMutability": "nonpayable",
      "type": "function"
    },
    {
      "inputs": [],
      "name": "rate",
      "outputs": [
        {
          "internalType": "uint256",
          "name": "",
          "type": "uint256"
        }
      ],
      "stateMutability": "view",
      "type": "function"
    },
    {
      "inputs": [],
      "name": "rewardCollector",
      "outputs": [
        {
          "internalType": "address",
          "name": "",
          "type": "address"
        }
      ],
      "stateMutability": "view",
      "type": "function"
    },
    {
      "inputs": [
        {
          "internalType": "address",
          "name": "newAdmin",
          "type": "address"
        }
      ],
      "name": "setPendingAdmin",
      "outputs": [],
      "stateMutability": "nonpayable",
      "type": "function"
    },
    {
      "inputs": [
        {
          "internalType": "address",
          "name": "_rewardCollector",
          "type": "address"
        }
      ],
      "name": "setRewardCollector",
      "outputs": [],
      "stateMutability": "nonpayable",
      "type": "function"
    },
    {
      "inputs": [
        {
          "internalType": "uint256",
          "name": "amount",
          "type": "uint256"
        }
      ],
      "name": "staticToDynamicAmount",
      "outputs": [
        {
          "internalType": "uint256",
          "name": "",
          "type": "uint256"
        }
      ],
      "stateMutability": "view",
      "type": "function"
    },
    {
      "inputs": [],
      "name": "symbol",
      "outputs": [
        {
          "internalType": "string",
          "name": "",
          "type": "string"
        }
      ],
      "stateMutability": "view",
      "type": "function"
    },
    {
      "inputs": [],
      "name": "totalSupply",
      "outputs": [
        {
          "internalType": "uint256",
          "name": "",
          "type": "uint256"
        }
      ],
      "stateMutability": "view",
      "type": "function"
    },
    {
      "inputs": [
        {
          "internalType": "address",
          "name": "to",
          "type": "address"
        },
        {
          "internalType": "uint256",
          "name": "amount",
          "type": "uint256"
        }
      ],
      "name": "transfer",
      "outputs": [
        {
          "internalType": "bool",
          "name": "",
          "type": "bool"
        }
      ],
      "stateMutability": "nonpayable",
      "type": "function"
    },
    {
      "inputs": [
        {
          "internalType": "address",
          "name": "from",
          "type": "address"
        },
        {
          "internalType": "address",
          "name": "to",
          "type": "address"
        },
        {
          "internalType": "uint256",
          "name": "amount",
          "type": "uint256"
        }
      ],
      "name": "transferFrom",
      "outputs": [
        {
          "internalType": "bool",
          "name": "",
          "type": "bool"
        }
      ],
      "stateMutability": "nonpayable",
      "type": "function"
    },
    {
      "inputs": [
        {
          "internalType": "address",
          "name": "recipient",
          "type": "address"
        },
        {
          "internalType": "uint256",
          "name": "amount",
          "type": "uint256"
        },
        {
          "internalType": "bool",
          "name": "toUnderlying",
          "type": "bool"
        }
      ],
      "name": "withdraw",
      "outputs": [
        {
          "internalType": "uint256",
          "name": "",
          "type": "uint256"
        },
        {
          "internalType": "uint256",
          "name": "",
          "type": "uint256"
        }
      ],
      "stateMutability": "nonpayable",
      "type": "function"
    },
    {
      "inputs": [
        {
          "internalType": "address",
          "name": "recipient",
          "type": "address"
        },
        {
          "internalType": "uint256",
          "name": "amount",
          "type": "uint256"
        },
        {
          "internalType": "bool",
          "name": "toUnderlying",
          "type": "bool"
        }
      ],
      "name": "withdrawDynamicAmount",
      "outputs": [
        {
          "internalType": "uint256",
          "name": "",
          "type": "uint256"
        },
        {
          "internalType": "uint256",
          "name": "",
          "type": "uint256"
        }
      ],
      "stateMutability": "nonpayable",
      "type": "function"
    }
  ],
  "transactionHash": "0x187b77802d63e135106df4d00e516abda1a6f79159d0884f048616388ed8ab8d",
  "args": [
    "0x794a61358D6845594F94dc1DB02A252b5b4814aD",
    "0x929EC64c34a17401F460460D4B9390518E5B473e",
    "0x625E7708f30cA75bfd92586e17077590C60eb4cD",
    "0xD8320859860f8E116E9bDa13CdD60B27bcb6b058",
    "Static Aave Optimism USDC",
    "s_aOptUSDC"
  ],
  "solcInputHash": "e4d5e3c25e925913040fe00ded4baffa",
  "bytecode": "0x6101006040523480156200001257600080fd5b5060405162002f1a38038062002f1a83398101604081905262000035916200047d565b8151829082906200004e906003906020850190620002e0565b50805162000064906004906020840190620002e0565b505060058054336001600160a01b0319918216179091556001600160a01b0388811660805287811660a05286811660c08190526007805490931691871691909117909155604080516358b50cef60e11b815290516000935063b16a19de916004808201926020929091908290030181865afa158015620000e8573d6000803e3d6000fd5b505050506040513d601f19601f820116820180604052508101906200010e919062000531565b6001600160a01b03811660e0529050620001388188600019620001bf602090811b6200122617901c565b846001600160a01b031663313ce5676040518163ffffffff1660e01b8152600401602060405180830381865afa15801562000177573d6000803e3d6000fd5b505050506040513d601f19601f820116820180604052508101906200019d919062000556565b6009805460ff191660ff92909216919091179055506200064695505050505050565b604080516001600160a01b038481166024830152604480830185905283518084039091018152606490920183526020820180516001600160e01b031663095ea7b360e01b17905291516000928392908716916200021d91906200057b565b6000604051808303816000865af19150503d80600081146200025c576040519150601f19603f3d011682016040523d82523d6000602084013e62000261565b606091505b5091509150846001600160a01b03163b600014806200027e575081155b80620002a95750805115801590620002a9575080806020019051810190620002a7919062000599565b155b15620002d95784828260405163e7e40b5b60e01b8152600401620002d093929190620005bd565b60405180910390fd5b5050505050565b828054620002ee906200060a565b90600052602060002090601f0160209004810192826200031257600085556200035d565b82601f106200032d57805160ff19168380011785556200035d565b828001600101855582156200035d579182015b828111156200035d57825182559160200191906001019062000340565b506200036b9291506200036f565b5090565b5b808211156200036b576000815560010162000370565b80516001600160a01b03811681146200039e57600080fd5b919050565b634e487b7160e01b600052604160045260246000fd5b60005b83811015620003d6578181015183820152602001620003bc565b83811115620003e6576000848401525b50505050565b600082601f830112620003fe57600080fd5b81516001600160401b03808211156200041b576200041b620003a3565b604051601f8301601f19908116603f01168101908282118183101715620004465762000446620003a3565b816040528381528660208588010111156200046057600080fd5b62000473846020830160208901620003b9565b9695505050505050565b60008060008060008060c087890312156200049757600080fd5b620004a28762000386565b9550620004b26020880162000386565b9450620004c26040880162000386565b9350620004d26060880162000386565b60808801519093506001600160401b0380821115620004f057600080fd5b620004fe8a838b01620003ec565b935060a08901519150808211156200051557600080fd5b506200052489828a01620003ec565b9150509295509295509295565b6000602082840312156200054457600080fd5b6200054f8262000386565b9392505050565b6000602082840312156200056957600080fd5b815160ff811681146200054f57600080fd5b600082516200058f818460208701620003b9565b9190910192915050565b600060208284031215620005ac57600080fd5b815180151581146200054f57600080fd5b60018060a01b038416815282151560208201526060604082015260008251806060840152620005f4816080850160208701620003b9565b601f01601f191691909101608001949350505050565b600181811c908216806200061f57607f821691505b6020821081036200064057634e487b7160e01b600052602260045260246000fd5b50919050565b60805160a05160c05160e05161284d620006cd6000396000818161039701528181610763015281816117d00152818161191c015261195b0152600081816103d1015281816108a2015281816118870152611a0801526000818161056301526108f901526000818161051c0152818161078e01528181611807015261199a015261284d6000f3fe608060405234801561001057600080fd5b50600436106102325760003560e01c806369af0ddb11610130578063a9059cbb116100b8578063dd62ed3e1161007c578063dd62ed3e14610585578063ead5d35914610598578063f36c442d146105ab578063f57d0b40146105be578063f851a440146105d157600080fd5b8063a9059cbb146104f1578063afffd5b714610504578063b4dcfc7714610517578063b9844d8d1461053e578063cd086d451461055e57600080fd5b80638a127bfd116100ff5780638a127bfd146104895780638a3b3d6f1461049c5780638d948415146104af57806395d89b41146104d6578063a457c2d7146104de57600080fd5b806369af0ddb1461041a57806370a082311461042d578063781603761461045657806381abdab31461047657600080fd5b806330adf81f116101be57806344b68c3f1161018257806344b68c3f1461037f5780634800d97f146103925780634dd18bf5146103b957806351c0e061146103cc57806363210537146103f357600080fd5b806330adf81f14610315578063313ce5671461033c57806336a5a6d614610351578063372500ab14610364578063395093511461036c57600080fd5b806323b872dd1161020557806323b872dd1461029457806326782247146102a7578063288587ce146102d25780632c4e722e146102fa5780632f2cab871461030257600080fd5b806306fdde0314610237578063095ea7b3146102555780630e18b6811461027857806318160ddd14610282575b600080fd5b61023f6105e4565b60405161024c9190612106565b60405180910390f35b610268610263366004612131565b610676565b604051901515815260200161024c565b610280610690565b005b6002545b60405190815260200161024c565b6102686102a236600461215d565b61070b565b6006546102ba906001600160a01b031681565b6040516001600160a01b03909116815260200161024c565b6102e56102e03660046121ac565b61072f565b6040805192835260208301919091520161024c565b61028661074c565b610286610310366004612205565b610800565b6102867f6e71edae12b1b97f4d1f60370fef10105fa2faae0126114a169c64845d6126c981565b60095460405160ff909116815260200161024c565b61028661035f366004612256565b61081a565b61028061082e565b61026861037a366004612131565b61097e565b61028661038d36600461226f565b6109a0565b6102ba7f000000000000000000000000000000000000000000000000000000000000000081565b6102806103c736600461226f565b6109c2565b6102ba7f000000000000000000000000000000000000000000000000000000000000000081565b6102867f4dab0a5e832f103ac80c9c3e51e5742f8a24aa0a3d941fe91c64e1e3db50c74381565b6102e56104283660046122a4565b610a2e565b61028661043b36600461226f565b6001600160a01b031660009081526020819052604090205490565b61023f604051806040016040528060018152602001603160f81b81525081565b610286610484366004612327565b610c60565b610280610497366004612395565b610e7f565b6102866104aa366004612256565b611068565b6102867f10ab8743506cfd76acaa406d0788f01934bd03f14eadabf392640e43b01f976c81565b61023f611114565b6102686104ec366004612131565b611123565b6102686104ff366004612131565b61119e565b6007546102ba906001600160a01b031681565b6102ba7f000000000000000000000000000000000000000000000000000000000000000081565b61028661054c36600461226f565b60086020526000908152604090205481565b6102ba7f000000000000000000000000000000000000000000000000000000000000000081565b61028661059336600461240b565b6111ac565b6102e56105a63660046121ac565b6111d7565b6102806105b936600461226f565b6111e8565b6102866105cc366004612256565b611212565b6005546102ba906001600160a01b031681565b6060600380546105f390612444565b80601f016020809104026020016040519081016040528092919081815260200182805461061f90612444565b801561066c5780601f106106415761010080835404028352916020019161066c565b820191906000526020600020905b81548152906001019060200180831161064f57829003601f168201915b5050505050905090565b600033610684818585611332565b60019150505b92915050565b6006546001600160a01b031633146106e75760405162461bcd60e51b815260206004820152601560248201527436bab9ba103132903832b73234b7339030b236b4b760591b60448201526064015b60405180910390fd5b600654600580546001600160a01b0319166001600160a01b03909216919091179055565b600033610719858285611456565b6107248585856114d0565b506001949350505050565b600080610740338660008787611674565b91509150935093915050565b60405163d15e005360e01b81526001600160a01b037f0000000000000000000000000000000000000000000000000000000000000000811660048301526000917f00000000000000000000000000000000000000000000000000000000000000009091169063d15e005390602401602060405180830381865afa1580156107d7573d6000803e3d6000fd5b505050506040513d601f19601f820116820180604052508101906107fb9190612478565b905090565b600061080f33868686866118bd565b90505b949350505050565b600061068a61082761074c565b8390611a51565b6007546001600160a01b0316331461087e5760405162461bcd60e51b81526020600482015260136024820152722737ba103932bbb0b93221b7b63632b1ba37b960691b60448201526064016106de565b604080516001808252818301909252600091602080830190803683370190505090507f0000000000000000000000000000000000000000000000000000000000000000816000815181106108d4576108d46124a7565b6001600160a01b03928316602091820292909201015260405163bb492bf560e01b81527f00000000000000000000000000000000000000000000000000000000000000009091169063bb492bf59061093290849033906004016124bd565b6000604051808303816000875af1158015610951573d6000803e3d6000fd5b505050506040513d6000823e601f3d908101601f1916820160405261097991908101906125da565b505050565b60003361068481858561099183836111ac565b61099b91906126b5565b611332565b6001600160a01b03811660009081526020819052604081205461068a90611212565b6109ca611b27565b6001600160a01b038116610a0c5760405162461bcd60e51b815260206004820152600960248201526830206164647265737360b81b60448201526064016106de565b600680546001600160a01b0319166001600160a01b0392909216919091179055565b6000806001600160a01b038a16610a7b5760405162461bcd60e51b815260206004820152601160248201527024a72b20a624a22fa222a827a9a4aa27a960791b60448201526064016106de565b84421115610a9b5760405162461bcd60e51b81526004016106de906126cd565b6001600160a01b038a1660009081526008602052604081205490610abe85611068565b7f10ab8743506cfd76acaa406d0788f01934bd03f14eadabf392640e43b01f976c8d8d8d8d8d888e604051602001610b3c9897969594939291909788526001600160a01b03968716602089015294909516604087015260608601929092526080850152151560a084015260c083019190915260e08201526101000190565b60405160208183030381529060405280519060200120604051602001610b639291906126f9565b60408051601f19818403018152919052805160209182012091506001908290610b8e90890189612714565b604080516000815260208181018084529490945260ff9092168282015291890135606082015290880135608082015260a0016020604051602081039080840390855afa158015610be2573d6000803e3d6000fd5b505050602060405103516001600160a01b03168c6001600160a01b031614610c1c5760405162461bcd60e51b81526004016106de9061272f565b610c278260016126b5565b6001600160a01b038d16600090815260086020526040902055610c4d8c8c8c8c8c611674565b9350935050509850989650505050505050565b60006001600160a01b038916610cac5760405162461bcd60e51b815260206004820152601160248201527024a72b20a624a22fa222a827a9a4aa27a960791b60448201526064016106de565b83421115610ccc5760405162461bcd60e51b81526004016106de906126cd565b6001600160a01b03891660009081526008602052604081205490610cef84611068565b604080517f4dab0a5e832f103ac80c9c3e51e5742f8a24aa0a3d941fe91c64e1e3db50c74360208201526001600160a01b03808f1692820192909252908c166060820152608081018b905261ffff8a1660a082015288151560c082015260e0810184905261010081018890526101200160405160208183030381529060405280519060200120604051602001610d869291906126f9565b60408051601f19818403018152919052805160209182012091506001908290610db190880188612714565b604080516000815260208181018084529490945260ff9092168282015291880135606082015290870135608082015260a0016020604051602081039080840390855afa158015610e05573d6000803e3d6000fd5b505050602060405103516001600160a01b03168b6001600160a01b031614610e3f5760405162461bcd60e51b81526004016106de9061272f565b610e4a8260016126b5565b6001600160a01b038c16600090815260086020526040902055610e708b8b8b8b8b6118bd565b9b9a5050505050505050505050565b6001600160a01b038816610ec55760405162461bcd60e51b815260206004820152600d60248201526c24a72b20a624a22fa7aba722a960991b60448201526064016106de565b84421115610ee55760405162461bcd60e51b81526004016106de906126cd565b6001600160a01b03881660009081526008602052604081205490610f0883611068565b604080517f6e71edae12b1b97f4d1f60370fef10105fa2faae0126114a169c64845d6126c960208201526001600160a01b03808e1692820192909252908b166060820152608081018a905260a0810184905260c0810189905260e00160405160208183030381529060405280519060200120604051602001610f8b9291906126f9565b60408051601f1981840301815282825280516020918201206000845290830180835281905260ff8916918301919091526060820187905260808201869052915060019060a0016020604051602081039080840390855afa158015610ff3573d6000803e3d6000fd5b505050602060405103516001600160a01b03168a6001600160a01b03161461102d5760405162461bcd60e51b81526004016106de9061272f565b6110388260016126b5565b6001600160a01b038b1660009081526008602052604090205561105c8a8a8a611332565b50505050505050505050565b60007f8b73c3c69bb8fe3d512ecc4cf759cc79239f7b179b0ffacaa9a75d522b39400f6110936105e4565b805160209182012060408051808201825260018152603160f81b90840152805192830193909352918101919091527fc89efdaa54c0f20c7adf612882df0950f5a951637e0307cdcb4c672f298b8bc66060820152608081018390523060a082015260c001604051602081830303815290604052805190602001209050919050565b6060600480546105f390612444565b6000338161113182866111ac565b9050838110156111915760405162461bcd60e51b815260206004820152602560248201527f45524332303a2064656372656173656420616c6c6f77616e63652062656c6f77604482015264207a65726f60d81b60648201526084016106de565b6107248286868403611332565b6000336106848185856114d0565b6001600160a01b03918216600090815260016020908152604080832093909416825291909152205490565b600080610740338686600087611674565b6111f0611b27565b600780546001600160a01b0319166001600160a01b0392909216919091179055565b600061068a61121f61074c565b8390611b53565b604080516001600160a01b038481166024830152604480830185905283518084039091018152606490920183526020820180516001600160e01b031663095ea7b360e01b1790529151600092839290871691611282919061275a565b6000604051808303816000865af19150503d80600081146112bf576040519150601f19603f3d011682016040523d82523d6000602084013e6112c4565b606091505b5091509150846001600160a01b03163b600014806112e0575081155b8061130757508051158015906113075750808060200190518101906113059190612776565b155b1561132b5784828260405163e7e40b5b60e01b81526004016106de93929190612793565b5050505050565b6001600160a01b0383166113945760405162461bcd60e51b8152602060048201526024808201527f45524332303a20617070726f76652066726f6d20746865207a65726f206164646044820152637265737360e01b60648201526084016106de565b6001600160a01b0382166113f55760405162461bcd60e51b815260206004820152602260248201527f45524332303a20617070726f766520746f20746865207a65726f206164647265604482015261737360f01b60648201526084016106de565b6001600160a01b0383811660008181526001602090815260408083209487168084529482529182902085905590518481527f8c5be1e5ebec7d5bd14f71427d1e84f3dd0314c0f7b2291e5b200ac8c7c3b925910160405180910390a3505050565b600061146284846111ac565b905060001981146114ca57818110156114bd5760405162461bcd60e51b815260206004820152601d60248201527f45524332303a20696e73756666696369656e7420616c6c6f77616e636500000060448201526064016106de565b6114ca8484848403611332565b50505050565b6001600160a01b0383166115345760405162461bcd60e51b815260206004820152602560248201527f45524332303a207472616e736665722066726f6d20746865207a65726f206164604482015264647265737360d81b60648201526084016106de565b6001600160a01b0382166115965760405162461bcd60e51b815260206004820152602360248201527f45524332303a207472616e7366657220746f20746865207a65726f206164647260448201526265737360e81b60648201526084016106de565b6001600160a01b0383166000908152602081905260409020548181101561160e5760405162461bcd60e51b815260206004820152602660248201527f45524332303a207472616e7366657220616d6f756e7420657863656564732062604482015265616c616e636560d01b60648201526084016106de565b6001600160a01b03848116600081815260208181526040808320878703905593871680835291849020805487019055925185815290927fddf252ad1be2c89b69c2b068fc378daa952ba7f163c4a11628f55a4df523b3ef910160405180910390a36114ca565b6000806001600160a01b0386166116c15760405162461bcd60e51b81526020600482015260116024820152701253959053125117d49150d25412515395607a1b60448201526064016106de565b8415806116cc575083155b6117185760405162461bcd60e51b815260206004820152601e60248201527f4f4e4c595f4f4e455f414d4f554e545f464f524d41545f414c4c4f574544000060448201526064016106de565b6001600160a01b03871660009081526020819052604081205490808061173c61074c565b9050881561177c578389116117515788611753565b835b915083891161176b576117668982611c15565b611775565b6117758482611c15565b92506117a9565b60006117888583611c15565b90508089116117975788611799565b805b93506117a58483611c21565b9250505b6117b38b83611c2d565b861561187a57604051631a4ca37b60e21b81526001600160a01b037f000000000000000000000000000000000000000000000000000000000000000081166004830152602482018590528b811660448301527f000000000000000000000000000000000000000000000000000000000000000016906369328dec906064016020604051808303816000875af1158015611850573d6000803e3d6000fd5b505050506040513d601f19601f820116820180604052508101906118749190612478565b506118ae565b6118ae6001600160a01b037f0000000000000000000000000000000000000000000000000000000000000000168b85611d5f565b50999098509650505050505050565b60006001600160a01b0385166119095760405162461bcd60e51b81526020600482015260116024820152701253959053125117d49150d25412515395607a1b60448201526064016106de565b81156119fb576119446001600160a01b037f000000000000000000000000000000000000000000000000000000000000000016873087611dc2565b60405163e8eda9df60e01b81526001600160a01b037f0000000000000000000000000000000000000000000000000000000000000000811660048301526024820186905230604483015261ffff851660648301527f0000000000000000000000000000000000000000000000000000000000000000169063e8eda9df90608401600060405180830381600087803b1580156119de57600080fd5b505af11580156119f2573d6000803e3d6000fd5b50505050611a30565b611a306001600160a01b037f000000000000000000000000000000000000000000000000000000000000000016873087611dc2565b6000611a3b8561081a565b9050611a478682611dfa565b9695505050505050565b604080518082019091526002815261035360f41b602082015260009082611a8b5760405162461bcd60e51b81526004016106de9190612106565b506000611a996002846127bf565b90506b033b2e3c9fd0803ce8000000611ab4826000196127e1565b611abe91906127bf565b84111560405180604001604052806002815260200161068760f31b81525090611afa5760405162461bcd60e51b81526004016106de9190612106565b508281611b136b033b2e3c9fd0803ce8000000876127f8565b611b1d91906126b5565b61081291906127bf565b6005546001600160a01b03163314611b51576040516282b42960e81b815260040160405180910390fd5b565b6000821580611b60575081155b15611b6d5750600061068a565b81611b8560026b033b2e3c9fd0803ce80000006127bf565b611b91906000196127e1565b611b9b91906127bf565b83111560405180604001604052806002815260200161068760f31b81525090611bd75760405162461bcd60e51b81526004016106de9190612106565b506b033b2e3c9fd0803ce8000000611bf06002826127bf565b611bfa84866127f8565b611c0491906126b5565b611c0e91906127bf565b9392505050565b6000611c0e8383611b53565b6000611c0e8383611a51565b6001600160a01b038216611c8d5760405162461bcd60e51b815260206004820152602160248201527f45524332303a206275726e2066726f6d20746865207a65726f206164647265736044820152607360f81b60648201526084016106de565b6001600160a01b03821660009081526020819052604090205481811015611d015760405162461bcd60e51b815260206004820152602260248201527f45524332303a206275726e20616d6f756e7420657863656564732062616c616e604482015261636560f01b60648201526084016106de565b6001600160a01b0383166000818152602081815260408083208686039055600280548790039055518581529192917fddf252ad1be2c89b69c2b068fc378daa952ba7f163c4a11628f55a4df523b3ef910160405180910390a3505050565b6040516001600160a01b03831660248201526044810182905261097990849063a9059cbb60e01b906064015b60408051601f198184030181529190526020810180516001600160e01b03166001600160e01b031990931692909217909152611eb9565b6040516001600160a01b03808516602483015283166044820152606481018290526114ca9085906323b872dd60e01b90608401611d8b565b6001600160a01b038216611e505760405162461bcd60e51b815260206004820152601f60248201527f45524332303a206d696e7420746f20746865207a65726f20616464726573730060448201526064016106de565b8060026000828254611e6291906126b5565b90915550506001600160a01b038216600081815260208181526040808320805486019055518481527fddf252ad1be2c89b69c2b068fc378daa952ba7f163c4a11628f55a4df523b3ef910160405180910390a35050565b6000611f0e826040518060400160405280602081526020017f5361666545524332303a206c6f772d6c6576656c2063616c6c206661696c6564815250856001600160a01b0316611f8b9092919063ffffffff16565b8051909150156109795780806020019051810190611f2c9190612776565b6109795760405162461bcd60e51b815260206004820152602a60248201527f5361666545524332303a204552433230206f7065726174696f6e20646964206e6044820152691bdd081cdd58d8d9595960b21b60648201526084016106de565b6060610812848460008585600080866001600160a01b03168587604051611fb2919061275a565b60006040518083038185875af1925050503d8060008114611fef576040519150601f19603f3d011682016040523d82523d6000602084013e611ff4565b606091505b509150915061200587838387612010565b979650505050505050565b6060831561207f578251600003612078576001600160a01b0385163b6120785760405162461bcd60e51b815260206004820152601d60248201527f416464726573733a2063616c6c20746f206e6f6e2d636f6e747261637400000060448201526064016106de565b5081610812565b61081283838151156120945781518083602001fd5b8060405162461bcd60e51b81526004016106de9190612106565b60005b838110156120c95781810151838201526020016120b1565b838111156114ca5750506000910152565b600081518084526120f28160208601602086016120ae565b601f01601f19169290920160200192915050565b602081526000611c0e60208301846120da565b6001600160a01b038116811461212e57600080fd5b50565b6000806040838503121561214457600080fd5b823561214f81612119565b946020939093013593505050565b60008060006060848603121561217257600080fd5b833561217d81612119565b9250602084013561218d81612119565b929592945050506040919091013590565b801515811461212e57600080fd5b6000806000606084860312156121c157600080fd5b83356121cc81612119565b92506020840135915060408401356121e38161219e565b809150509250925092565b803561ffff8116811461220057600080fd5b919050565b6000806000806080858703121561221b57600080fd5b843561222681612119565b93506020850135925061223b604086016121ee565b9150606085013561224b8161219e565b939692955090935050565b60006020828403121561226857600080fd5b5035919050565b60006020828403121561228157600080fd5b8135611c0e81612119565b60006060828403121561229e57600080fd5b50919050565b600080600080600080600080610140898b0312156122c157600080fd5b88356122cc81612119565b975060208901356122dc81612119565b9650604089013595506060890135945060808901356122fa8161219e565b935060a089013592506123108a60c08b0161228c565b915061012089013590509295985092959890939650565b600080600080600080600080610140898b03121561234457600080fd5b883561234f81612119565b9750602089013561235f81612119565b96506040890135955061237460608a016121ee565b945060808901356122fa8161219e565b803560ff8116811461220057600080fd5b600080600080600080600080610100898b0312156123b257600080fd5b88356123bd81612119565b975060208901356123cd81612119565b965060408901359550606089013594506123e960808a01612384565b979a969950949793969560a0850135955060c08501359460e001359350915050565b6000806040838503121561241e57600080fd5b823561242981612119565b9150602083013561243981612119565b809150509250929050565b600181811c9082168061245857607f821691505b60208210810361229e57634e487b7160e01b600052602260045260246000fd5b60006020828403121561248a57600080fd5b5051919050565b634e487b7160e01b600052604160045260246000fd5b634e487b7160e01b600052603260045260246000fd5b604080825283519082018190526000906020906060840190828701845b828110156124ff5781516001600160a01b0316845292840192908401906001016124da565b5050506001600160a01b039490941692019190915250919050565b604051601f8201601f1916810167ffffffffffffffff8111828210171561254357612543612491565b604052919050565b600067ffffffffffffffff82111561256557612565612491565b5060051b60200190565b600082601f83011261258057600080fd5b815160206125956125908361254b565b61251a565b82815260059290921b840181019181810190868411156125b457600080fd5b8286015b848110156125cf57805183529183019183016125b8565b509695505050505050565b600080604083850312156125ed57600080fd5b825167ffffffffffffffff8082111561260557600080fd5b818501915085601f83011261261957600080fd5b815160206126296125908361254b565b82815260059290921b8401810191818101908984111561264857600080fd5b948201945b8386101561266f57855161266081612119565b8252948201949082019061264d565b9188015191965090935050508082111561268857600080fd5b506126958582860161256f565b9150509250929050565b634e487b7160e01b600052601160045260246000fd5b600082198211156126c8576126c861269f565b500190565b60208082526012908201527124a72b20a624a22fa2ac2824a920aa24a7a760711b604082015260600190565b61190160f01b81526002810192909252602282015260420190565b60006020828403121561272657600080fd5b611c0e82612384565b602080825260119082015270494e56414c49445f5349474e415455524560781b604082015260600190565b6000825161276c8184602087016120ae565b9190910192915050565b60006020828403121561278857600080fd5b8151611c0e8161219e565b6001600160a01b0384168152821515602082015260606040820181905260009061080f908301846120da565b6000826127dc57634e487b7160e01b600052601260045260246000fd5b500490565b6000828210156127f3576127f361269f565b500390565b60008160001904831182151516156128125761281261269f565b50029056fea2646970667358221220d7d76c96b738cefef404f7b7fd6c6aec6f534f8483ddcb16ccd1969496b796ba64736f6c634300080d0033",
  "devdoc": {
    "author": "Aave*",
    "details": "Wrapper token that allows to deposit tokens on the Aave protocol and receive a token which balance doesn't increase automatically, but uses an ever-increasing exchange rate - Only supporting deposits and withdrawals",
    "errors": {
      "ERC20CallFailed(address,bool,bytes)": [
        {
          "params": {
            "data": "The resulting data from the call. This is error data when the call was not a success. Otherwise,                this is malformed data when the call was a success.",
            "success": "If the call to the token was a success.",
            "target": "The target address."
          }
        }
      ]
    },
    "kind": "dev",
    "methods": {
      "allowance(address,address)": {
        "details": "See {IERC20-allowance}."
      },
      "approve(address,uint256)": {
        "details": "See {IERC20-approve}. NOTE: If `amount` is the maximum `uint256`, the allowance is not updated on `transferFrom`. This is semantically equivalent to an infinite approval. Requirements: - `spender` cannot be the zero address."
      },
      "balanceOf(address)": {
        "details": "See {IERC20-balanceOf}."
      },
      "decimals()": {
        "details": "Returns the number of decimals used to get its user representation. For example, if `decimals` equals `2`, a balance of `505` tokens should be displayed to a user as `5.05` (`505 / 10 ** 2`). Tokens usually opt for a value of 18, imitating the relationship between Ether and Wei. This is the value {ERC20} uses, unless this function is overridden; NOTE: This information is only used for _display_ purposes: it in no way affects any of the arithmetic of the contract, including {IERC20-balanceOf} and {IERC20-transfer}."
      },
      "decreaseAllowance(address,uint256)": {
        "details": "Atomically decreases the allowance granted to `spender` by the caller. This is an alternative to {approve} that can be used as a mitigation for problems described in {IERC20-approve}. Emits an {Approval} event indicating the updated allowance. Requirements: - `spender` cannot be the zero address. - `spender` must have allowance for the caller of at least `subtractedValue`."
      },
      "deposit(address,uint256,uint16,bool)": {
        "details": "Deposits `ASSET` in the Aave protocol and mints static aTokens to msg.sender",
        "params": {
          "amount": "The amount of underlying `ASSET` to deposit (e.g. deposit of 100 USDC)",
          "fromUnderlying": "bool - `true` if the msg.sender comes with underlying tokens (e.g. USDC) - `false` if the msg.sender comes already with aTokens (e.g. aUSDC)",
          "recipient": "The address that will receive the static aTokens",
          "referralCode": "Code used to register the integrator originating the operation, for potential rewards.   0 if the action is executed directly by the user, without any middle-man"
        },
        "returns": {
          "_0": "uint256 The amount of StaticAToken minted, static balance*"
        }
      },
      "dynamicBalanceOf(address)": {
        "details": "Utility method to get the current aToken balance of an user, from his staticAToken balance",
        "params": {
          "account": "The address of the user"
        },
        "returns": {
          "_0": "uint256 The aToken balance*"
        }
      },
      "dynamicToStaticAmount(uint256)": {
        "details": "Converts an aToken or underlying amount to the what it is denominated on the aToken as scaled balance, function of the principal and the liquidity index",
        "params": {
          "amount": "The amount to convert from"
        },
        "returns": {
          "_0": "uint256 The static (scaled) amount*"
        }
      },
      "getDomainSeparator(uint256)": {
        "details": "Function to return a dynamic domain separator, in order to be compatible with forks changing chainId",
        "params": {
          "chainId": "The chain id"
        },
        "returns": {
          "_0": "bytes32 The domain separator*"
        }
      },
      "increaseAllowance(address,uint256)": {
        "details": "Atomically increases the allowance granted to `spender` by the caller. This is an alternative to {approve} that can be used as a mitigation for problems described in {IERC20-approve}. Emits an {Approval} event indicating the updated allowance. Requirements: - `spender` cannot be the zero address."
      },
      "metaDeposit(address,address,uint256,uint16,bool,uint256,(uint8,bytes32,bytes32),uint256)": {
        "details": "Allows to deposit on Aave via meta-transaction https://github.com/ethereum/EIPs/blob/8a34d644aacf0f9f8f00815307fd7dd5da07655f/EIPS/eip-2612.md",
        "params": {
          "chainId": "Passing the chainId in order to be fork-compatible",
          "deadline": "The deadline timestamp, type(uint256).max for max deadline",
          "depositor": "Address from which the funds to deposit are going to be pulled",
          "fromUnderlying": "bool - `true` if the msg.sender comes with underlying tokens (e.g. USDC) - `false` if the msg.sender comes already with aTokens (e.g. aUSDC)",
          "recipient": "Address that will receive the staticATokens, in the average case, same as the `depositor`",
          "referralCode": "Code used to register the integrator originating the operation, for potential rewards.   0 if the action is executed directly by the user, without any middle-man",
          "sigParams": "Signature params: v,r,s",
          "value": "The amount to deposit"
        },
        "returns": {
          "_0": "uint256 The amount of StaticAToken minted, static balance"
        }
      },
      "metaWithdraw(address,address,uint256,uint256,bool,uint256,(uint8,bytes32,bytes32),uint256)": {
        "details": "Allows to withdraw from Aave via meta-transaction https://github.com/ethereum/EIPs/blob/8a34d644aacf0f9f8f00815307fd7dd5da07655f/EIPS/eip-2612.md",
        "params": {
          "chainId": "Passing the chainId in order to be fork-compatible",
          "deadline": "The deadline timestamp, type(uint256).max for max deadline",
          "dynamicAmount": "The amount of underlying/aToken to withdraw. If > 0, `staticAmount` needs to be 0",
          "owner": "Address owning the staticATokens",
          "recipient": "Address that will receive the underlying withdrawn from Aave",
          "sigParams": "Signature params: v,r,s",
          "staticAmount": "The amount of staticAToken to withdraw. If > 0, `dynamicAmount` needs to be 0",
          "toUnderlying": "bool - `true` for the recipient to get underlying tokens (e.g. USDC) - `false` for the recipient to get aTokens (e.g. aUSDC)"
        },
        "returns": {
          "_0": "amountToBurn: StaticATokens burnt, static balance",
          "_1": "amountToWithdraw: underlying/aToken send to `recipient`, dynamic balance"
        }
      },
      "name()": {
        "details": "Returns the name of the token."
      },
      "permit(address,address,uint256,uint256,uint8,bytes32,bytes32,uint256)": {
        "details": "Implements the permit function as for https://github.com/ethereum/EIPs/blob/8a34d644aacf0f9f8f00815307fd7dd5da07655f/EIPS/eip-2612.md",
        "params": {
          "chainId": "Passing the chainId in order to be fork-compatible",
          "deadline": "The deadline timestamp, type(uint256).max for max deadline",
          "owner": "The owner of the funds",
          "r": "Signature param",
          "s": "Signature param",
          "spender": "The spender",
          "v": "Signature param",
          "value": "The amount"
        }
      },
      "rate()": {
        "details": "Returns the Aave liquidity index of the underlying aToken, denominated rate here as it can be considered as an ever-increasing exchange rate",
        "returns": {
          "_0": "bytes32 The domain separator*"
        }
      },
      "staticToDynamicAmount(uint256)": {
        "details": "Converts a static amount (scaled balance on aToken) to the aToken/underlying value, using the current liquidity index on Aave",
        "params": {
          "amount": "The amount to convert from"
        },
        "returns": {
          "_0": "uint256 The dynamic amount*"
        }
      },
      "symbol()": {
        "details": "Returns the symbol of the token, usually a shorter version of the name."
      },
      "totalSupply()": {
        "details": "See {IERC20-totalSupply}."
      },
      "transfer(address,uint256)": {
        "details": "See {IERC20-transfer}. Requirements: - `to` cannot be the zero address. - the caller must have a balance of at least `amount`."
      },
      "transferFrom(address,address,uint256)": {
        "details": "See {IERC20-transferFrom}. Emits an {Approval} event indicating the updated allowance. This is not required by the EIP. See the note at the beginning of {ERC20}. NOTE: Does not update the allowance if the current allowance is the maximum `uint256`. Requirements: - `from` and `to` cannot be the zero address. - `from` must have a balance of at least `amount`. - the caller must have allowance for ``from``'s tokens of at least `amount`."
      },
      "withdraw(address,uint256,bool)": {
        "details": "Burns `amount` of static aToken, with recipient receiving the corresponding amount of `ASSET`",
        "params": {
          "amount": "The amount to withdraw, in static balance of StaticAToken",
          "recipient": "The address that will receive the amount of `ASSET` withdrawn from the Aave protocol",
          "toUnderlying": "bool - `true` for the recipient to get underlying tokens (e.g. USDC) - `false` for the recipient to get aTokens (e.g. aUSDC)"
        },
        "returns": {
          "_0": "amountToBurn: StaticATokens burnt, static balance",
          "_1": "amountToWithdraw: underlying/aToken send to `recipient`, dynamic balance*"
        }
      },
      "withdrawDynamicAmount(address,uint256,bool)": {
        "details": "Burns `amount` of static aToken, with recipient receiving the corresponding amount of `ASSET`",
        "params": {
          "amount": "The amount to withdraw, in dynamic balance of aToken/underlying asset",
          "recipient": "The address that will receive the amount of `ASSET` withdrawn from the Aave protocol",
          "toUnderlying": "bool - `true` for the recipient to get underlying tokens (e.g. USDC) - `false` for the recipient to get aTokens (e.g. aUSDC)"
        },
        "returns": {
          "_0": "amountToBurn: StaticATokens burnt, static balance",
          "_1": "amountToWithdraw: underlying/aToken send to `recipient`, dynamic balance*"
        }
      }
    },
    "stateVariables": {
      "_nonces": {
        "details": "owner => next valid nonce to submit with permit(), metaDeposit() and metaWithdraw() We choose to have sequentiality on them for each user to avoid potentially dangerous/bad UX cases"
      }
    },
    "title": "StaticAToken updated to work with alchemix rewardCollector",
    "version": 1
  },
  "userdoc": {
    "errors": {
      "ERC20CallFailed(address,bool,bytes)": [
        {
          "notice": "An error used to indicate that a call to an ERC20 contract failed."
        }
      ],
      "Unauthorized()": [
        {
          "notice": "An error used to indicate that an action could not be completed because either the `msg.sender` or         `msg.origin` is not authorized."
        }
      ]
    },
    "kind": "user",
    "methods": {},
    "version": 1
  },
  "storageLayout": {
    "storage": [
      {
        "astId": 25951,
        "contract": "submodules/v2-foundry/src/external/aave/StaticATokenV3.sol:StaticATokenV3",
        "label": "_balances",
        "offset": 0,
        "slot": "0",
        "type": "t_mapping(t_address,t_uint256)"
      },
      {
        "astId": 25957,
        "contract": "submodules/v2-foundry/src/external/aave/StaticATokenV3.sol:StaticATokenV3",
        "label": "_allowances",
        "offset": 0,
        "slot": "1",
        "type": "t_mapping(t_address,t_mapping(t_address,t_uint256))"
      },
      {
        "astId": 25959,
        "contract": "submodules/v2-foundry/src/external/aave/StaticATokenV3.sol:StaticATokenV3",
        "label": "_totalSupply",
        "offset": 0,
        "slot": "2",
        "type": "t_uint256"
      },
      {
        "astId": 25961,
        "contract": "submodules/v2-foundry/src/external/aave/StaticATokenV3.sol:StaticATokenV3",
        "label": "_name",
        "offset": 0,
        "slot": "3",
        "type": "t_string_storage"
      },
      {
        "astId": 25963,
        "contract": "submodules/v2-foundry/src/external/aave/StaticATokenV3.sol:StaticATokenV3",
        "label": "_symbol",
        "offset": 0,
        "slot": "4",
        "type": "t_string_storage"
      },
      {
        "astId": 51930,
        "contract": "submodules/v2-foundry/src/external/aave/StaticATokenV3.sol:StaticATokenV3",
        "label": "admin",
        "offset": 0,
        "slot": "5",
        "type": "t_address"
      },
      {
        "astId": 51932,
        "contract": "submodules/v2-foundry/src/external/aave/StaticATokenV3.sol:StaticATokenV3",
        "label": "pendingAdmin",
        "offset": 0,
        "slot": "6",
        "type": "t_address"
      },
      {
        "astId": 51934,
        "contract": "submodules/v2-foundry/src/external/aave/StaticATokenV3.sol:StaticATokenV3",
        "label": "rewardCollector",
        "offset": 0,
        "slot": "7",
        "type": "t_address"
      },
      {
        "astId": 51939,
        "contract": "submodules/v2-foundry/src/external/aave/StaticATokenV3.sol:StaticATokenV3",
        "label": "_nonces",
        "offset": 0,
        "slot": "8",
        "type": "t_mapping(t_address,t_uint256)"
      },
      {
        "astId": 51941,
        "contract": "submodules/v2-foundry/src/external/aave/StaticATokenV3.sol:StaticATokenV3",
        "label": "_decimals",
        "offset": 0,
        "slot": "9",
        "type": "t_uint8"
      }
    ],
    "types": {
      "t_address": {
        "encoding": "inplace",
        "label": "address",
        "numberOfBytes": "20"
      },
      "t_mapping(t_address,t_mapping(t_address,t_uint256))": {
        "encoding": "mapping",
        "key": "t_address",
        "label": "mapping(address => mapping(address => uint256))",
        "numberOfBytes": "32",
        "value": "t_mapping(t_address,t_uint256)"
      },
      "t_mapping(t_address,t_uint256)": {
        "encoding": "mapping",
        "key": "t_address",
        "label": "mapping(address => uint256)",
        "numberOfBytes": "32",
        "value": "t_uint256"
      },
      "t_string_storage": {
        "encoding": "bytes",
        "label": "string",
        "numberOfBytes": "32"
      },
      "t_uint256": {
        "encoding": "inplace",
        "label": "uint256",
        "numberOfBytes": "32"
      },
      "t_uint8": {
        "encoding": "inplace",
        "label": "uint8",
        "numberOfBytes": "1"
      }
    }
  }
}