{
  "address": "0xC56209cccD32297460383e3e032FAE0636FB4302",
  "abi": [
    {
      "inputs": [
        {
          "components": [
            {
              "internalType": "address",
              "name": "alchemist",
              "type": "address"
            },
            {
              "internalType": "address[]",
              "name": "collateralAddresses",
              "type": "address[]"
            }
          ],
          "internalType": "struct InitializationParams",
          "name": "params",
          "type": "tuple"
        }
      ],
      "stateMutability": "nonpayable",
      "type": "constructor"
    },
    {
      "inputs": [
        {
          "internalType": "address",
          "name": "target",
          "type": "address"
        },
        {
          "internalType": "bool",
          "name": "success",
          "type": "bool"
        },
        {
          "internalType": "bytes",
          "name": "data",
          "type": "bytes"
        }
      ],
      "name": "ERC20CallFailed",
      "type": "error"
    },
    {
      "inputs": [
        {
          "internalType": "string",
          "name": "message",
          "type": "string"
        }
      ],
      "name": "IllegalArgument",
      "type": "error"
    },
    {
      "inputs": [],
      "name": "IllegalArgument",
      "type": "error"
    },
    {
      "inputs": [
        {
          "internalType": "string",
          "name": "message",
          "type": "string"
        }
      ],
      "name": "IllegalState",
      "type": "error"
    },
    {
      "inputs": [
        {
          "internalType": "bytes",
          "name": "data",
          "type": "bytes"
        },
        {
          "internalType": "bytes",
          "name": "result",
          "type": "bytes"
        }
      ],
      "name": "MulticallFailed",
      "type": "error"
    },
    {
      "anonymous": false,
      "inputs": [
        {
          "indexed": false,
          "internalType": "address",
          "name": "",
          "type": "address"
        },
        {
          "indexed": false,
          "internalType": "uint256",
          "name": "",
          "type": "uint256"
        }
      ],
      "name": "Received",
      "type": "event"
    },
    {
      "inputs": [],
      "name": "alchemicToken",
      "outputs": [
        {
          "internalType": "contract IAlchemicToken",
          "name": "",
          "type": "address"
        }
      ],
      "stateMutability": "view",
      "type": "function"
    },
    {
      "inputs": [],
      "name": "alchemist",
      "outputs": [
        {
          "internalType": "contract IAlchemistV2",
          "name": "",
          "type": "address"
        }
      ],
      "stateMutability": "view",
      "type": "function"
    },
    {
      "inputs": [
        {
          "internalType": "uint256",
          "name": "",
          "type": "uint256"
        }
      ],
      "name": "collateralAddresses",
      "outputs": [
        {
          "internalType": "address",
          "name": "",
          "type": "address"
        }
      ],
      "stateMutability": "view",
      "type": "function"
    },
    {
      "inputs": [
        {
          "internalType": "address",
          "name": "",
          "type": "address"
        }
      ],
      "name": "decimals",
      "outputs": [
        {
          "internalType": "uint256",
          "name": "",
          "type": "uint256"
        }
      ],
      "stateMutability": "view",
      "type": "function"
    },
    {
      "inputs": [
        {
          "internalType": "address",
          "name": "startingYieldToken",
          "type": "address"
        },
        {
          "internalType": "address",
          "name": "targetYieldToken",
          "type": "address"
        },
        {
          "internalType": "uint256",
          "name": "shares",
          "type": "uint256"
        },
        {
          "internalType": "uint256",
          "name": "minReturnShares",
          "type": "uint256"
        },
        {
          "internalType": "uint256",
          "name": "minReturnUnderlying",
          "type": "uint256"
        }
      ],
      "name": "migrateVaults",
      "outputs": [
        {
          "internalType": "uint256",
          "name": "",
          "type": "uint256"
        }
      ],
      "stateMutability": "nonpayable",
      "type": "function"
    },
    {
      "inputs": [
        {
          "internalType": "bytes[]",
          "name": "data",
          "type": "bytes[]"
        }
      ],
      "name": "multicall",
      "outputs": [
        {
          "internalType": "bytes[]",
          "name": "results",
          "type": "bytes[]"
        }
      ],
      "stateMutability": "payable",
      "type": "function"
    },
    {
      "inputs": [],
      "name": "version",
      "outputs": [
        {
          "internalType": "string",
          "name": "",
          "type": "string"
        }
      ],
      "stateMutability": "view",
      "type": "function"
    }
  ],
  "transactionHash": "0xf92e0ef875287b7bafc830843056a809e9cb84f7ad8abeaa13171ca2eb3742bd",
  "args": [
    {
      "alchemist": "0x10294d57A419C8eb78C648372c5bAA27fD1484af",
      "collateralAddresses": [
        "0xDA10009cBd5D07dd0CeCc66161FC93D7c9000da1",
        "0x7F5c764cBc14f9669B88837ca1490cCa17c31607",
        "0x94b008aA00579c1307B0EF2c499aD98a8ce58e58"
      ]
    }
  ],
  "solcInputHash": "c9618f3e26c9cb9f2fd440bfc7c19c3b",
  "bytecode": "0x610100604052600560c081905264312e302e3160d81b60e0908152620000299160009190620002b3565b50670de0b6b3a76400006001553480156200004357600080fd5b506040516200204b3803806200204b833981016040819052620000669162000442565b6020808201515182516001600160a01b0316608081905260408051631f1b131360e31b815290519293919263f8d89898926004808401939192918290030181865afa158015620000ba573d6000803e3d6000fd5b505050506040513d601f19601f82011682018060405250810190620000e0919062000540565b6001600160a01b031660a05260208083015180516200010492600392019062000342565b5060005b81811015620001a85762000151600382815481106200012b576200012b62000565565b600091825260209182902001546001600160a01b03169062000ddd620001b1821b17901c565b60ff1660026000600384815481106200016e576200016e62000565565b60009182526020808320909101546001600160a01b03168352820192909252604001902055806200019f816200057b565b91505062000108565b505050620006a2565b60408051600481526024810182526020810180516001600160e01b031663313ce56760e01b1790529051600091829182916001600160a01b03861691620001f99190620005d6565b600060405180830381855afa9150503d806000811462000236576040519150601f19603f3d011682016040523d82523d6000602084013e6200023b565b606091505b5091509150836001600160a01b03163b6000148062000258575081155b8062000265575060208151105b15620002955783828260405163e7e40b5b60e01b81526004016200028c93929190620005f4565b60405180910390fd5b80806020019051810190620002ab919062000641565b949350505050565b828054620002c19062000666565b90600052602060002090601f016020900481019282620002e5576000855562000330565b82601f106200030057805160ff191683800117855562000330565b8280016001018555821562000330579182015b828111156200033057825182559160200191906001019062000313565b506200033e9291506200039a565b5090565b82805482825590600052602060002090810192821562000330579160200282015b828111156200033057825182546001600160a01b0319166001600160a01b0390911617825560209092019160019091019062000363565b5b808211156200033e57600081556001016200039b565b634e487b7160e01b600052604160045260246000fd5b604080519081016001600160401b0381118282101715620003ec57620003ec620003b1565b60405290565b604051601f8201601f191681016001600160401b03811182821017156200041d576200041d620003b1565b604052919050565b80516001600160a01b03811681146200043d57600080fd5b919050565b600060208083850312156200045657600080fd5b82516001600160401b03808211156200046e57600080fd5b90840190604082870312156200048357600080fd5b6200048d620003c7565b620004988362000425565b81528383015182811115620004ac57600080fd5b80840193505086601f840112620004c257600080fd5b825182811115620004d757620004d7620003b1565b8060051b9250620004ea858401620003f2565b81815292840185019285810190898511156200050557600080fd5b948601945b848610156200052e576200051e8662000425565b825294860194908601906200050a565b95830195909552509695505050505050565b6000602082840312156200055357600080fd5b6200055e8262000425565b9392505050565b634e487b7160e01b600052603260045260246000fd5b6000600182016200059c57634e487b7160e01b600052601160045260246000fd5b5060010190565b60005b83811015620005c0578181015183820152602001620005a6565b83811115620005d0576000848401525b50505050565b60008251620005ea818460208701620005a3565b9190910192915050565b60018060a01b0384168152821515602082015260606040820152600082518060608401526200062b816080850160208701620005a3565b601f01601f191691909101608001949350505050565b6000602082840312156200065457600080fd5b815160ff811681146200055e57600080fd5b600181811c908216806200067b57607f821691505b6020821081036200069c57634e487b7160e01b600052602260045260246000fd5b50919050565b60805160a05161190d6200073e60003960008181610175015281816108e50152818161094e0152610cfe01526000818160e601528181610450015281816105270152818161060101528181610694015281816107960152818161082f0152818161096f015281816109b001528181610a6301528181610ade01528181610b3901528181610bcb01528181610c4f0152610f6b015261190d6000f3fe6080604052600436106100705760003560e01c8063ac9650d81161004e578063ac9650d814610108578063d449a83214610128578063e278f28414610163578063ea32f3471461019757600080fd5b8063172f68ad1461007557806354fd4d50146100b25780638de925f6146100d4575b600080fd5b34801561008157600080fd5b50610095610090366004611162565b6101b7565b6040516001600160a01b0390911681526020015b60405180910390f35b3480156100be57600080fd5b506100c76101e1565b6040516100a991906111d7565b3480156100e057600080fd5b506100957f000000000000000000000000000000000000000000000000000000000000000081565b61011b6101163660046111f1565b61026f565b6040516100a99190611266565b34801561013457600080fd5b506101556101433660046112e0565b60026020526000908152604090205481565b6040519081526020016100a9565b34801561016f57600080fd5b506100957f000000000000000000000000000000000000000000000000000000000000000081565b3480156101a357600080fd5b506101556101b23660046112fd565b6103cd565b600381815481106101c757600080fd5b6000918252602090912001546001600160a01b0316905081565b600080546101ee9061134e565b80601f016020809104026020016040519081016040528092919081815260200182805461021a9061134e565b80156102675780601f1061023c57610100808354040283529160200191610267565b820191906000526020600020905b81548152906001019060200180831161024a57829003601f168201915b505050505081565b60608167ffffffffffffffff81111561028a5761028a611388565b6040519080825280602002602001820160405280156102bd57816020015b60608152602001906001900390816102a85790505b50905060005b828110156103c657600080308686858181106102e1576102e161139e565b90506020028101906102f391906113b4565b604051610301929190611402565b600060405180830381855af49150503d806000811461033c576040519150601f19603f3d011682016040523d82523d6000602084013e610341565b606091505b5091509150816103955785858481811061035d5761035d61139e565b905060200281019061036f91906113b4565b8260405163070c497560e21b815260040161038c93929190611412565b60405180910390fd5b808484815181106103a8576103a861139e565b60200260200101819052505050806103bf90611470565b90506102c3565b5092915050565b6000846001600160a01b0316866001600160a01b031603610431576040516354a1577760e11b815260206004820152601f60248201527f5969656c6420746f6b656e732063616e6e6f74206265207468652073616d6500604482015260640161038c565b60405163a96cb06960e01b81526001600160a01b0387811660048301527f0000000000000000000000000000000000000000000000000000000000000000169063a96cb06990602401602060405180830381865afa158015610497573d6000803e3d6000fd5b505050506040513d601f19601f820116820180604052508101906104bb919061149e565b610508576040516354a1577760e11b815260206004820152601c60248201527f5969656c6420746f6b656e206973206e6f7420737570706f7274656400000000604482015260640161038c565b60405163a96cb06960e01b81526001600160a01b0386811660048301527f0000000000000000000000000000000000000000000000000000000000000000169063a96cb06990602401602060405180830381865afa15801561056e573d6000803e3d6000fd5b505050506040513d601f19601f82011682018060405250810190610592919061149e565b6105df576040516354a1577760e11b815260206004820152601c60248201527f5969656c6420746f6b656e206973206e6f7420737570706f7274656400000000604482015260640161038c565b604051635a5efc8b60e01b81526001600160a01b0387811660048301526000917f000000000000000000000000000000000000000000000000000000000000000090911690635a5efc8b906024016101e060405180830381865afa15801561064b573d6000803e3d6000fd5b505050506040513d601f19601f8201168201806040525081019061066f9190611530565b604051635a5efc8b60e01b81526001600160a01b0388811660048301529192506000917f00000000000000000000000000000000000000000000000000000000000000001690635a5efc8b906024016101e060405180830381865afa1580156106dc573d6000803e3d6000fd5b505050506040513d601f19601f820116820180604052508101906107009190611530565b905080602001516001600160a01b031682602001516001600160a01b03161461077e576040516354a1577760e11b815260206004820152602960248201527f43616e6e6f742073776170206265747765656e20646966666572656e7420636f6044820152686c6c61746572616c7360b81b606482015260840161038c565b604051632f2e037160e11b81523360048201526000907f00000000000000000000000000000000000000000000000000000000000000006001600160a01b031690635e5c06e290602401600060405180830381865afa1580156107e5573d6000803e3d6000fd5b505050506040513d6000823e601f3d908101601f1916820160405261080d9190810190611605565b5090506000806000831315610a275761082b898c8760200151610ecb565b91507f00000000000000000000000000000000000000000000000000000000000000006001600160a01b031663e8b6571b6040518163ffffffff1660e01b8152600401602060405180830381865afa15801561088b573d6000803e3d6000fd5b505050506040513d601f19601f820116820180604052508101906108af91906116c3565b6001546108bc90846116dc565b6108c691906116fb565b6040516340c10f1960e01b8152306004820152602481018290529091507f00000000000000000000000000000000000000000000000000000000000000006001600160a01b0316906340c10f1990604401600060405180830381600087803b15801561093157600080fd5b505af1158015610945573d6000803e3d6000fd5b505050506109947f00000000000000000000000000000000000000000000000000000000000000007f00000000000000000000000000000000000000000000000000000000000000008361102f565b604051633f34d4cf60e21b8152600481018290523360248201527f00000000000000000000000000000000000000000000000000000000000000006001600160a01b03169063fcd3533c906044016020604051808303816000875af1158015610a01573d6000803e3d6000fd5b505050506040513d601f19601f82011682018060405250810190610a2591906116c3565b505b604051632e5a3b8f60e21b81523360048201526001600160a01b038c81166024830152604482018b9052306064830152608482018990526000917f00000000000000000000000000000000000000000000000000000000000000009091169063b968ee3c9060a4016020604051808303816000875af1158015610aae573d6000803e3d6000fd5b505050506040513d601f19601f82011682018060405250810190610ad291906116c3565b9050610b0385602001517f00000000000000000000000000000000000000000000000000000000000000008361102f565b604051635efd4dd760e11b81526001600160a01b038c8116600483015260248201839052336044830152606482018b90526000917f00000000000000000000000000000000000000000000000000000000000000009091169063bdfa9bae906084016020604051808303816000875af1158015610b84573d6000803e3d6000fd5b505050506040513d601f19601f82011682018060405250810190610ba891906116c3565b90506000851315610dcd57604051632f2e037160e11b81523360048201526000907f00000000000000000000000000000000000000000000000000000000000000006001600160a01b031690635e5c06e290602401600060405180830381865afa158015610c1a573d6000803e3d6000fd5b505050506040513d6000823e601f3d908101601f19168201604052610c429190810190611605565b5090506001600160a01b037f0000000000000000000000000000000000000000000000000000000000000000166351044b8e33610c87610c82858b61171d565b61113b565b6040516001600160e01b031960e085901b1681526001600160a01b0390921660048301526024820152306044820152606401600060405180830381600087803b158015610cd357600080fd5b505af1158015610ce7573d6000803e3d6000fd5b50506040516370a0823160e01b81523060048201527f00000000000000000000000000000000000000000000000000000000000000006001600160a01b031692506342966c68915082906370a0823190602401602060405180830381865afa158015610d57573d6000803e3d6000fd5b505050506040513d601f19601f82011682018060405250810190610d7b91906116c3565b6040518263ffffffff1660e01b8152600401610d9991815260200190565b600060405180830381600087803b158015610db357600080fd5b505af1158015610dc7573d6000803e3d6000fd5b50505050505b9c9b505050505050505050505050565b60408051600481526024810182526020810180516001600160e01b031663313ce56760e01b1790529051600091829182916001600160a01b03861691610e23919061175c565b600060405180830381855afa9150503d8060008114610e5e576040519150601f19603f3d011682016040523d82523d6000602084013e610e63565b606091505b5091509150836001600160a01b03163b60001480610e7f575081155b80610e8b575060208151105b15610eaf5783828260405163e7e40b5b60e01b815260040161038c93929190611778565b80806020019051810190610ec391906117a4565b949350505050565b60006012610ed883610ddd565b60ff161115610f365760405163c50656df60e01b8152602060048201526024808201527f556e6465726c79696e6720746f6b656e20646563696d616c73206578636565646044820152630e64062760e31b606482015260840161038c565b6000610f4184610ddd565b610f4c90600a6118a5565b60405163447378ad60e11b81526001600160a01b0386811660048301527f000000000000000000000000000000000000000000000000000000000000000016906388e6f15a90602401602060405180830381865afa158015610fb2573d6000803e3d6000fd5b505050506040513d601f19601f82011682018060405250810190610fd691906116c3565b610fe090876116dc565b610fea91906116fb565b6001600160a01b0384166000908152600260205260409020549091506110119060126118b4565b61101c90600a6118cb565b61102690826116dc565b95945050505050565b604080516001600160a01b038481166024830152604480830185905283518084039091018152606490920183526020820180516001600160e01b031663095ea7b360e01b179052915160009283929087169161108b919061175c565b6000604051808303816000865af19150503d80600081146110c8576040519150601f19603f3d011682016040523d82523d6000602084013e6110cd565b606091505b5091509150846001600160a01b03163b600014806110e9575081155b80611110575080511580159061111057508080602001905181019061110e919061149e565b155b156111345784828260405163e7e40b5b60e01b815260040161038c93929190611778565b5050505050565b60008082121561115e57604051630134249960e71b815260040160405180910390fd5b5090565b60006020828403121561117457600080fd5b5035919050565b60005b8381101561119657818101518382015260200161117e565b838111156111a5576000848401525b50505050565b600081518084526111c381602086016020860161117b565b601f01601f19169290920160200192915050565b6020815260006111ea60208301846111ab565b9392505050565b6000806020838503121561120457600080fd5b823567ffffffffffffffff8082111561121c57600080fd5b818501915085601f83011261123057600080fd5b81358181111561123f57600080fd5b8660208260051b850101111561125457600080fd5b60209290920196919550909350505050565b6000602080830181845280855180835260408601915060408160051b870101925083870160005b828110156112bb57603f198886030184526112a98583516111ab565b9450928501929085019060010161128d565b5092979650505050505050565b6001600160a01b03811681146112dd57600080fd5b50565b6000602082840312156112f257600080fd5b81356111ea816112c8565b600080600080600060a0868803121561131557600080fd5b8535611320816112c8565b94506020860135611330816112c8565b94979496505050506040830135926060810135926080909101359150565b600181811c9082168061136257607f821691505b60208210810361138257634e487b7160e01b600052602260045260246000fd5b50919050565b634e487b7160e01b600052604160045260246000fd5b634e487b7160e01b600052603260045260246000fd5b6000808335601e198436030181126113cb57600080fd5b83018035915067ffffffffffffffff8211156113e657600080fd5b6020019150368190038213156113fb57600080fd5b9250929050565b8183823760009101908152919050565b60408152826040820152828460608301376000606084830101526000601f19601f8501168201606083820301602084015261145060608201856111ab565b9695505050505050565b634e487b7160e01b600052601160045260246000fd5b6000600182016114825761148261145a565b5060010190565b8051801515811461149957600080fd5b919050565b6000602082840312156114b057600080fd5b6111ea82611489565b6040516101e0810167ffffffffffffffff811182821017156114dd576114dd611388565b60405290565b604051601f8201601f1916810167ffffffffffffffff8111828210171561150c5761150c611388565b604052919050565b805160ff8116811461149957600080fd5b8051611499816112c8565b60006101e0828403121561154357600080fd5b61154b6114b9565b61155483611514565b815261156260208401611525565b602082015261157360408401611525565b6040820152606083810151908201526080808401519082015260a0808401519082015260c0808401519082015260e08084015190820152610100808401519082015261012080840151908201526101408084015190820152610160808401519082015261018080840151908201526101a080840151908201526101c06115fa818501611489565b908201529392505050565b6000806040838503121561161857600080fd5b8251915060208084015167ffffffffffffffff8082111561163857600080fd5b818601915086601f83011261164c57600080fd5b81518181111561165e5761165e611388565b8060051b915061166f8483016114e3565b818152918301840191848101908984111561168957600080fd5b938501935b838510156116b357845192506116a3836112c8565b828252938501939085019061168e565b8096505050505050509250929050565b6000602082840312156116d557600080fd5b5051919050565b60008160001904831182151516156116f6576116f661145a565b500290565b60008261171857634e487b7160e01b600052601260045260246000fd5b500490565b60008083128015600160ff1b85018412161561173b5761173b61145a565b6001600160ff1b03840183138116156117565761175661145a565b50500390565b6000825161176e81846020870161117b565b9190910192915050565b6001600160a01b03841681528215156020820152606060408201819052600090611026908301846111ab565b6000602082840312156117b657600080fd5b6111ea82611514565b600181815b808511156117fa5781600019048211156117e0576117e061145a565b808516156117ed57918102915b93841c93908002906117c4565b509250929050565b6000826118115750600161189f565b8161181e5750600061189f565b8160018114611834576002811461183e5761185a565b600191505061189f565b60ff84111561184f5761184f61145a565b50506001821b61189f565b5060208310610133831016604e8410600b841016171561187d575081810a61189f565b61188783836117bf565b806000190482111561189b5761189b61145a565b0290505b92915050565b60006111ea60ff841683611802565b6000828210156118c6576118c661145a565b500390565b60006111ea838361180256fea2646970667358221220f050beedc05785e4ab318e160f1a5a2a0168de208c1f2930840e40aedb445c1f64736f6c634300080d0033",
  "devdoc": {
    "errors": {
      "ERC20CallFailed(address,bool,bytes)": [
        {
          "params": {
            "data": "The resulting data from the call. This is error data when the call was not a success. Otherwise,                this is malformed data when the call was a success.",
            "success": "If the call to the token was a success.",
            "target": "The target address."
          }
        }
      ],
      "IllegalArgument(string)": [
        {
          "params": {
            "message": "The error message."
          }
        }
      ],
      "IllegalState(string)": [
        {
          "params": {
            "message": "The error message."
          }
        }
      ]
    },
    "kind": "dev",
    "methods": {
      "migrateVaults(address,address,uint256,uint256,uint256)": {
        "params": {
          "minReturnShares": "The maximum shares of slippage that the user will accept on new position.",
          "minReturnUnderlying": "The minimum underlying value when withdrawing from old position.",
          "shares": "The shares of tokens to migrate.",
          "startingYieldToken": "The yield token from which the user wants to withdraw.",
          "targetYieldToken": "The yield token that the user wishes to create a new position in."
        },
        "returns": {
          "_0": "The underlying Value of the new position."
        }
      }
    },
    "stateVariables": {
      "version": {
        "return": "The version.",
        "returns": {
          "_0": "The version."
        }
      }
    },
    "version": 1
  },
  "userdoc": {
    "errors": {
      "ERC20CallFailed(address,bool,bytes)": [
        {
          "notice": "An error used to indicate that a call to an ERC20 contract failed."
        }
      ],
      "IllegalArgument()": [
        {
          "notice": "An error used to indicate that an action could not be completed because of an illegal argument was passed         to the function."
        }
      ],
      "IllegalArgument(string)": [
        {
          "notice": "An error used to indicate that an argument passed to a function is illegal or         inappropriate."
        }
      ],
      "IllegalState(string)": [
        {
          "notice": "An error used to indicate that a function has encountered an unrecoverable state."
        }
      ]
    },
    "kind": "user",
    "methods": {
      "migrateVaults(address,address,uint256,uint256,uint256)": {
        "notice": "Migrates 'shares' from 'startingVault' to 'targetVault'."
      },
      "version()": {
        "notice": "Gets the current version."
      }
    },
    "version": 1
  },
  "storageLayout": {
    "storage": [
      {
        "astId": 64798,
        "contract": "submodules/v2-foundry/src/migration/MigrationTool.sol:MigrationTool",
        "label": "version",
        "offset": 0,
        "slot": "0",
        "type": "t_string_storage"
      },
      {
        "astId": 64801,
        "contract": "submodules/v2-foundry/src/migration/MigrationTool.sol:MigrationTool",
        "label": "FIXED_POINT_SCALAR",
        "offset": 0,
        "slot": "1",
        "type": "t_uint256"
      },
      {
        "astId": 64805,
        "contract": "submodules/v2-foundry/src/migration/MigrationTool.sol:MigrationTool",
        "label": "decimals",
        "offset": 0,
        "slot": "2",
        "type": "t_mapping(t_address,t_uint256)"
      },
      {
        "astId": 64814,
        "contract": "submodules/v2-foundry/src/migration/MigrationTool.sol:MigrationTool",
        "label": "collateralAddresses",
        "offset": 0,
        "slot": "3",
        "type": "t_array(t_address)dyn_storage"
      }
    ],
    "types": {
      "t_address": {
        "encoding": "inplace",
        "label": "address",
        "numberOfBytes": "20"
      },
      "t_array(t_address)dyn_storage": {
        "base": "t_address",
        "encoding": "dynamic_array",
        "label": "address[]",
        "numberOfBytes": "32"
      },
      "t_mapping(t_address,t_uint256)": {
        "encoding": "mapping",
        "key": "t_address",
        "label": "mapping(address => uint256)",
        "numberOfBytes": "32",
        "value": "t_uint256"
      },
      "t_string_storage": {
        "encoding": "bytes",
        "label": "string",
        "numberOfBytes": "32"
      },
      "t_uint256": {
        "encoding": "inplace",
        "label": "uint256",
        "numberOfBytes": "32"
      }
    }
  }
}