{
  "address": "0xF87510F1E63E29BB69d9D35D0365E8CaCe609a8C",
  "abi": [
    {
      "inputs": [
        {
          "components": [
            {
              "internalType": "address",
              "name": "alchemist",
              "type": "address"
            },
            {
              "internalType": "address[]",
              "name": "collateralAddresses",
              "type": "address[]"
            }
          ],
          "internalType": "struct InitializationParams",
          "name": "params",
          "type": "tuple"
        }
      ],
      "stateMutability": "nonpayable",
      "type": "constructor"
    },
    {
      "inputs": [
        {
          "internalType": "address",
          "name": "target",
          "type": "address"
        },
        {
          "internalType": "bool",
          "name": "success",
          "type": "bool"
        },
        {
          "internalType": "bytes",
          "name": "data",
          "type": "bytes"
        }
      ],
      "name": "ERC20CallFailed",
      "type": "error"
    },
    {
      "inputs": [
        {
          "internalType": "string",
          "name": "message",
          "type": "string"
        }
      ],
      "name": "IllegalArgument",
      "type": "error"
    },
    {
      "inputs": [],
      "name": "IllegalArgument",
      "type": "error"
    },
    {
      "inputs": [
        {
          "internalType": "string",
          "name": "message",
          "type": "string"
        }
      ],
      "name": "IllegalState",
      "type": "error"
    },
    {
      "inputs": [
        {
          "internalType": "bytes",
          "name": "data",
          "type": "bytes"
        },
        {
          "internalType": "bytes",
          "name": "result",
          "type": "bytes"
        }
      ],
      "name": "MulticallFailed",
      "type": "error"
    },
    {
      "anonymous": false,
      "inputs": [
        {
          "indexed": false,
          "internalType": "address",
          "name": "",
          "type": "address"
        },
        {
          "indexed": false,
          "internalType": "uint256",
          "name": "",
          "type": "uint256"
        }
      ],
      "name": "Received",
      "type": "event"
    },
    {
      "inputs": [],
      "name": "BPS",
      "outputs": [
        {
          "internalType": "uint256",
          "name": "",
          "type": "uint256"
        }
      ],
      "stateMutability": "view",
      "type": "function"
    },
    {
      "inputs": [],
      "name": "FIXED_POINT_SCALAR",
      "outputs": [
        {
          "internalType": "uint256",
          "name": "",
          "type": "uint256"
        }
      ],
      "stateMutability": "view",
      "type": "function"
    },
    {
      "inputs": [],
      "name": "alchemicToken",
      "outputs": [
        {
          "internalType": "contract IAlchemicToken",
          "name": "",
          "type": "address"
        }
      ],
      "stateMutability": "view",
      "type": "function"
    },
    {
      "inputs": [],
      "name": "alchemist",
      "outputs": [
        {
          "internalType": "contract IAlchemistV2",
          "name": "",
          "type": "address"
        }
      ],
      "stateMutability": "view",
      "type": "function"
    },
    {
      "inputs": [
        {
          "internalType": "uint256",
          "name": "",
          "type": "uint256"
        }
      ],
      "name": "collateralAddresses",
      "outputs": [
        {
          "internalType": "address",
          "name": "",
          "type": "address"
        }
      ],
      "stateMutability": "view",
      "type": "function"
    },
    {
      "inputs": [
        {
          "internalType": "address",
          "name": "",
          "type": "address"
        }
      ],
      "name": "decimals",
      "outputs": [
        {
          "internalType": "uint256",
          "name": "",
          "type": "uint256"
        }
      ],
      "stateMutability": "view",
      "type": "function"
    },
    {
      "inputs": [
        {
          "internalType": "address",
          "name": "startingYieldToken",
          "type": "address"
        },
        {
          "internalType": "address",
          "name": "targetYieldToken",
          "type": "address"
        },
        {
          "internalType": "uint256",
          "name": "shares",
          "type": "uint256"
        },
        {
          "internalType": "uint256",
          "name": "minReturnShares",
          "type": "uint256"
        },
        {
          "internalType": "uint256",
          "name": "minReturnUnderlying",
          "type": "uint256"
        }
      ],
      "name": "migrateVaults",
      "outputs": [
        {
          "internalType": "uint256",
          "name": "",
          "type": "uint256"
        }
      ],
      "stateMutability": "nonpayable",
      "type": "function"
    },
    {
      "inputs": [
        {
          "internalType": "bytes[]",
          "name": "data",
          "type": "bytes[]"
        }
      ],
      "name": "multicall",
      "outputs": [
        {
          "internalType": "bytes[]",
          "name": "results",
          "type": "bytes[]"
        }
      ],
      "stateMutability": "payable",
      "type": "function"
    },
    {
      "inputs": [
        {
          "internalType": "address",
          "name": "account",
          "type": "address"
        },
        {
          "internalType": "address",
          "name": "startingYieldToken",
          "type": "address"
        },
        {
          "internalType": "address",
          "name": "targetYieldToken",
          "type": "address"
        },
        {
          "internalType": "uint256",
          "name": "shares",
          "type": "uint256"
        }
      ],
      "name": "previewMigration",
      "outputs": [
        {
          "internalType": "bool",
          "name": "",
          "type": "bool"
        },
        {
          "internalType": "string",
          "name": "",
          "type": "string"
        },
        {
          "internalType": "uint256",
          "name": "",
          "type": "uint256"
        },
        {
          "internalType": "uint256",
          "name": "",
          "type": "uint256"
        },
        {
          "internalType": "uint256",
          "name": "",
          "type": "uint256"
        }
      ],
      "stateMutability": "view",
      "type": "function"
    },
    {
      "inputs": [],
      "name": "version",
      "outputs": [
        {
          "internalType": "string",
          "name": "",
          "type": "string"
        }
      ],
      "stateMutability": "view",
      "type": "function"
    }
  ],
  "transactionHash": "0x4f2a6cf5891c87af5165fd6167e5cf7d279661453c8903876e1b8b9aaf620d25",
  "args": [
    {
      "alchemist": "0xe04Bb5B4de60FA2fBa69a93adE13A8B3B569d5B4",
      "collateralAddresses": [
        "0x4200000000000000000000000000000000000006"
      ]
    }
  ],
  "solcInputHash": "06becbd59909166664bb8f1c7fe47f66",
  "bytecode": "0x610140604052600561010081905264312e302e3160d81b6101209081526200002b9160009190620002bb565b50670de0b6b3a764000060805261271060a0523480156200004b57600080fd5b5060405162002926380380620029268339810160408190526200006e916200044a565b6020808201515182516001600160a01b031660c081905260408051631f1b131360e31b815290519293919263f8d89898926004808401939192918290030181865afa158015620000c2573d6000803e3d6000fd5b505050506040513d601f19601f82011682018060405250810190620000e8919062000548565b6001600160a01b031660e05260208083015180516200010c9260029201906200034a565b5060005b81811015620001b05762000159600282815481106200013357620001336200056d565b600091825260209182902001546001600160a01b03169062001472620001b9821b17901c565b60ff1660016000600284815481106200017657620001766200056d565b60009182526020808320909101546001600160a01b0316835282019290925260400190205580620001a78162000583565b91505062000110565b505050620006aa565b60408051600481526024810182526020810180516001600160e01b031663313ce56760e01b1790529051600091829182916001600160a01b03861691620002019190620005de565b600060405180830381855afa9150503d80600081146200023e576040519150601f19603f3d011682016040523d82523d6000602084013e62000243565b606091505b5091509150836001600160a01b03163b6000148062000260575081155b806200026d575060208151105b156200029d5783828260405163e7e40b5b60e01b81526004016200029493929190620005fc565b60405180910390fd5b80806020019051810190620002b3919062000649565b949350505050565b828054620002c9906200066e565b90600052602060002090601f016020900481019282620002ed576000855562000338565b82601f106200030857805160ff191683800117855562000338565b8280016001018555821562000338579182015b82811115620003385782518255916020019190600101906200031b565b5062000346929150620003a2565b5090565b82805482825590600052602060002090810192821562000338579160200282015b828111156200033857825182546001600160a01b0319166001600160a01b039091161782556020909201916001909101906200036b565b5b80821115620003465760008155600101620003a3565b634e487b7160e01b600052604160045260246000fd5b604080519081016001600160401b0381118282101715620003f457620003f4620003b9565b60405290565b604051601f8201601f191681016001600160401b0381118282101715620004255762000425620003b9565b604052919050565b80516001600160a01b03811681146200044557600080fd5b919050565b600060208083850312156200045e57600080fd5b82516001600160401b03808211156200047657600080fd5b90840190604082870312156200048b57600080fd5b62000495620003cf565b620004a0836200042d565b81528383015182811115620004b457600080fd5b80840193505086601f840112620004ca57600080fd5b825182811115620004df57620004df620003b9565b8060051b9250620004f2858401620003fa565b81815292840185019285810190898511156200050d57600080fd5b948601945b84861015620005365762000526866200042d565b8252948601949086019062000512565b95830195909552509695505050505050565b6000602082840312156200055b57600080fd5b62000566826200042d565b9392505050565b634e487b7160e01b600052603260045260246000fd5b600060018201620005a457634e487b7160e01b600052601160045260246000fd5b5060010190565b60005b83811015620005c8578181015183820152602001620005ae565b83811115620005d8576000848401525b50505050565b60008251620005f2818460208701620005ab565b9190910192915050565b60018060a01b03841681528215156020820152606060408201526000825180606084015262000633816080850160208701620005ab565b601f01601f191691909101608001949350505050565b6000602082840312156200065c57600080fd5b815160ff811681146200056657600080fd5b600181811c908216806200068357607f821691505b602082108103620006a457634e487b7160e01b600052602260045260246000fd5b50919050565b60805160a05160c05160e05161218d62000799600039600081816101fe015281816109bc01528181610a250152610dd501526000818161017d0152818161050a015281816105e1015281816106bb0152818161074e01528181610850015281816108e901528181610a4601528181610a8701528181610b3a01528181610bb501528181610c1001528181610ca201528181610d2601528181610ee401528181610f7101528181611015015281816110ba01528181611259015281816112f40152611600015260008181610127015281816113b401526113f101526000818160e5015261096e015261218d6000f3fe6080604052600436106100915760003560e01c8063ac9650d811610059578063ac9650d81461019f578063d449a832146101bf578063e278f284146101ec578063ea32f34714610220578063f6a81ed41461024057600080fd5b8063172f68ad1461009657806317931901146100d3578063249d39e91461011557806354fd4d50146101495780638de925f61461016b575b600080fd5b3480156100a257600080fd5b506100b66100b13660046118c6565b610271565b6040516001600160a01b0390911681526020015b60405180910390f35b3480156100df57600080fd5b506101077f000000000000000000000000000000000000000000000000000000000000000081565b6040519081526020016100ca565b34801561012157600080fd5b506101077f000000000000000000000000000000000000000000000000000000000000000081565b34801561015557600080fd5b5061015e61029b565b6040516100ca919061193b565b34801561017757600080fd5b506100b67f000000000000000000000000000000000000000000000000000000000000000081565b6101b26101ad366004611955565b610329565b6040516100ca91906119ca565b3480156101cb57600080fd5b506101076101da366004611a44565b60016020526000908152604090205481565b3480156101f857600080fd5b506100b67f000000000000000000000000000000000000000000000000000000000000000081565b34801561022c57600080fd5b5061010761023b366004611a61565b610487565b34801561024c57600080fd5b5061026061025b366004611ab2565b610eb4565b6040516100ca959493929190611b03565b6002818154811061028157600080fd5b6000918252602090912001546001600160a01b0316905081565b600080546102a890611b3b565b80601f01602080910402602001604051908101604052809291908181526020018280546102d490611b3b565b80156103215780601f106102f657610100808354040283529160200191610321565b820191906000526020600020905b81548152906001019060200180831161030457829003601f168201915b505050505081565b60608167ffffffffffffffff81111561034457610344611b75565b60405190808252806020026020018201604052801561037757816020015b60608152602001906001900390816103625790505b50905060005b82811015610480576000803086868581811061039b5761039b611b8b565b90506020028101906103ad9190611ba1565b6040516103bb929190611bef565b600060405180830381855af49150503d80600081146103f6576040519150601f19603f3d011682016040523d82523d6000602084013e6103fb565b606091505b50915091508161044f5785858481811061041757610417611b8b565b90506020028101906104299190611ba1565b8260405163070c497560e21b815260040161044693929190611bff565b60405180910390fd5b8084848151811061046257610462611b8b565b602002602001018190525050508061047990611c5d565b905061037d565b5092915050565b6000846001600160a01b0316866001600160a01b0316036104eb576040516354a1577760e11b815260206004820152601f60248201527f5969656c6420746f6b656e732063616e6e6f74206265207468652073616d65006044820152606401610446565b60405163a96cb06960e01b81526001600160a01b0387811660048301527f0000000000000000000000000000000000000000000000000000000000000000169063a96cb06990602401602060405180830381865afa158015610551573d6000803e3d6000fd5b505050506040513d601f19601f820116820180604052508101906105759190611c8b565b6105c2576040516354a1577760e11b815260206004820152601c60248201527f5969656c6420746f6b656e206973206e6f7420737570706f72746564000000006044820152606401610446565b60405163a96cb06960e01b81526001600160a01b0386811660048301527f0000000000000000000000000000000000000000000000000000000000000000169063a96cb06990602401602060405180830381865afa158015610628573d6000803e3d6000fd5b505050506040513d601f19601f8201168201806040525081019061064c9190611c8b565b610699576040516354a1577760e11b815260206004820152601c60248201527f5969656c6420746f6b656e206973206e6f7420737570706f72746564000000006044820152606401610446565b604051635a5efc8b60e01b81526001600160a01b0387811660048301526000917f000000000000000000000000000000000000000000000000000000000000000090911690635a5efc8b906024016101e060405180830381865afa158015610705573d6000803e3d6000fd5b505050506040513d601f19601f820116820180604052508101906107299190611d1d565b604051635a5efc8b60e01b81526001600160a01b0388811660048301529192506000917f00000000000000000000000000000000000000000000000000000000000000001690635a5efc8b906024016101e060405180830381865afa158015610796573d6000803e3d6000fd5b505050506040513d601f19601f820116820180604052508101906107ba9190611d1d565b905080602001516001600160a01b031682602001516001600160a01b031614610838576040516354a1577760e11b815260206004820152602960248201527f43616e6e6f742073776170206265747765656e20646966666572656e7420636f6044820152686c6c61746572616c7360b81b6064820152608401610446565b604051632f2e037160e11b81523360048201526000907f00000000000000000000000000000000000000000000000000000000000000006001600160a01b031690635e5c06e290602401600060405180830381865afa15801561089f573d6000803e3d6000fd5b505050506040513d6000823e601f3d908101601f191682016040526108c79190810190611df2565b5090506000806000831315610afe576108e5898c8760200151611560565b91507f00000000000000000000000000000000000000000000000000000000000000006001600160a01b031663e8b6571b6040518163ffffffff1660e01b8152600401602060405180830381865afa158015610945573d6000803e3d6000fd5b505050506040513d601f19601f820116820180604052508101906109699190611eb0565b6109937f000000000000000000000000000000000000000000000000000000000000000084611ec9565b61099d9190611ee8565b6040516340c10f1960e01b8152306004820152602481018290529091507f00000000000000000000000000000000000000000000000000000000000000006001600160a01b0316906340c10f1990604401600060405180830381600087803b158015610a0857600080fd5b505af1158015610a1c573d6000803e3d6000fd5b50505050610a6b7f00000000000000000000000000000000000000000000000000000000000000007f0000000000000000000000000000000000000000000000000000000000000000836116c4565b604051633f34d4cf60e21b8152600481018290523360248201527f00000000000000000000000000000000000000000000000000000000000000006001600160a01b03169063fcd3533c906044016020604051808303816000875af1158015610ad8573d6000803e3d6000fd5b505050506040513d601f19601f82011682018060405250810190610afc9190611eb0565b505b604051632e5a3b8f60e21b81523360048201526001600160a01b038c81166024830152604482018b9052306064830152608482018990526000917f00000000000000000000000000000000000000000000000000000000000000009091169063b968ee3c9060a4016020604051808303816000875af1158015610b85573d6000803e3d6000fd5b505050506040513d601f19601f82011682018060405250810190610ba99190611eb0565b9050610bda85602001517f0000000000000000000000000000000000000000000000000000000000000000836116c4565b604051635efd4dd760e11b81526001600160a01b038c8116600483015260248201839052336044830152606482018b90526000917f00000000000000000000000000000000000000000000000000000000000000009091169063bdfa9bae906084016020604051808303816000875af1158015610c5b573d6000803e3d6000fd5b505050506040513d601f19601f82011682018060405250810190610c7f9190611eb0565b90506000851315610ea457604051632f2e037160e11b81523360048201526000907f00000000000000000000000000000000000000000000000000000000000000006001600160a01b031690635e5c06e290602401600060405180830381865afa158015610cf1573d6000803e3d6000fd5b505050506040513d6000823e601f3d908101601f19168201604052610d199190810190611df2565b5090506001600160a01b037f0000000000000000000000000000000000000000000000000000000000000000166351044b8e33610d5e610d59858b611f0a565b6117d0565b6040516001600160e01b031960e085901b1681526001600160a01b0390921660048301526024820152306044820152606401600060405180830381600087803b158015610daa57600080fd5b505af1158015610dbe573d6000803e3d6000fd5b50506040516370a0823160e01b81523060048201527f00000000000000000000000000000000000000000000000000000000000000006001600160a01b031692506342966c68915082906370a0823190602401602060405180830381865afa158015610e2e573d6000803e3d6000fd5b505050506040513d601f19601f82011682018060405250810190610e529190611eb0565b6040518263ffffffff1660e01b8152600401610e7091815260200190565b600060405180830381600087803b158015610e8a57600080fd5b505af1158015610e9e573d6000803e3d6000fd5b50505050505b9c9b505050505050505050505050565b600060606000806000610ec56117f7565b604051635a5efc8b60e01b81526001600160a01b038a811660048301527f00000000000000000000000000000000000000000000000000000000000000001690635a5efc8b906024016101e060405180830381865afa158015610f2c573d6000803e3d6000fd5b505050506040513d601f19601f82011682018060405250810190610f509190611d1d565b8152604051635a5efc8b60e01b81526001600160a01b0389811660048301527f00000000000000000000000000000000000000000000000000000000000000001690635a5efc8b906024016101e060405180830381865afa158015610fb9573d6000803e3d6000fd5b505050506040513d601f19601f82011682018060405250810190610fdd9190611d1d565b6020820152610feb89611472565b610ff690600a61202f565b60405163447378ad60e11b81526001600160a01b038b811660048301527f000000000000000000000000000000000000000000000000000000000000000016906388e6f15a90602401602060405180830381865afa15801561105c573d6000803e3d6000fd5b505050506040513d601f19601f820116820180604052508101906110809190611eb0565b61108a9089611ec9565b6110949190611ee8565b6040828101919091525163447378ad60e11b81526001600160a01b0389811660048301527f000000000000000000000000000000000000000000000000000000000000000016906388e6f15a90602401602060405180830381865afa158015611101573d6000803e3d6000fd5b505050506040513d601f19601f820116820180604052508101906111259190611eb0565b61112e89611472565b61113990600a61202f565b82604001516111489190611ec9565b6111529190611ee8565b606082015280516020015161116a9088908b90611560565b60808201526060810151602080830151015161118891908a90611560565b60a082015260208101516080810151606083015160c09092015190916111ad9161203e565b111561120d5760208101516080810151606083015160c0909201516000926111d49161203e565b6111de9190612056565b600080604051806080016040528060448152602001612114604491399291909550955095509550955050611467565b80608001518160a001511080156112c657508060a0015181608001516112339190612056565b6040516307e3a3af60e01b81526001600160a01b038c81166004830181905260248301527f000000000000000000000000000000000000000000000000000000000000000016906307e3a3af90604401602060405180830381865afa1580156112a0573d6000803e3d6000fd5b505050506040513d601f19601f820116820180604052508101906112c49190611eb0565b105b156113ae576040516307e3a3af60e01b81526001600160a01b038b81166004830181905260248301526000917f0000000000000000000000000000000000000000000000000000000000000000909116906307e3a3af90604401602060405180830381865afa15801561133d573d6000803e3d6000fd5b505050506040513d601f19601f820116820180604052508101906113619190611eb0565b8260a0015183608001516113759190612056565b61137f9190612056565b6000806040518060600160405280603781526020016120dd603791399291909550955095509550955050611467565b600160007f000000000000000000000000000000000000000000000000000000000000000083606001516121346113e59190611ec9565b6113ef9190611ee8565b7f000000000000000000000000000000000000000000000000000000000000000084604001516121346114229190611ec9565b61142c9190611ee8565b604051806040016040528060138152602001724d6967726174696f6e2069732072656164792160681b81525092919095509550955095509550505b945094509450945094565b60408051600481526024810182526020810180516001600160e01b031663313ce56760e01b1790529051600091829182916001600160a01b038616916114b8919061206d565b600060405180830381855afa9150503d80600081146114f3576040519150601f19603f3d011682016040523d82523d6000602084013e6114f8565b606091505b5091509150836001600160a01b03163b60001480611514575081155b80611520575060208151105b156115445783828260405163e7e40b5b60e01b815260040161044693929190612089565b8080602001905181019061155891906120b5565b949350505050565b6000601261156d83611472565b60ff1611156115cb5760405163c50656df60e01b8152602060048201526024808201527f556e6465726c79696e6720746f6b656e20646563696d616c73206578636565646044820152630e64062760e31b6064820152608401610446565b60006115d684611472565b6115e190600a61202f565b60405163447378ad60e11b81526001600160a01b0386811660048301527f000000000000000000000000000000000000000000000000000000000000000016906388e6f15a90602401602060405180830381865afa158015611647573d6000803e3d6000fd5b505050506040513d601f19601f8201168201806040525081019061166b9190611eb0565b6116759087611ec9565b61167f9190611ee8565b6001600160a01b0384166000908152600160205260409020549091506116a6906012612056565b6116b190600a6120d0565b6116bb9082611ec9565b95945050505050565b604080516001600160a01b038481166024830152604480830185905283518084039091018152606490920183526020820180516001600160e01b031663095ea7b360e01b1790529151600092839290871691611720919061206d565b6000604051808303816000865af19150503d806000811461175d576040519150601f19603f3d011682016040523d82523d6000602084013e611762565b606091505b5091509150846001600160a01b03163b6000148061177e575081155b806117a557508051158015906117a55750808060200190518101906117a39190611c8b565b155b156117c95784828260405163e7e40b5b60e01b815260040161044693929190612089565b5050505050565b6000808212156117f357604051630134249960e71b815260040160405180910390fd5b5090565b6040518060c0016040528061180a611839565b8152602001611817611839565b8152602001600081526020016000815260200160008152602001600081525090565b604051806101e00160405280600060ff16815260200160006001600160a01b0316815260200160006001600160a01b0316815260200160008152602001600081526020016000815260200160008152602001600081526020016000815260200160008152602001600081526020016000815260200160008152602001600081526020016000151581525090565b6000602082840312156118d857600080fd5b5035919050565b60005b838110156118fa5781810151838201526020016118e2565b83811115611909576000848401525b50505050565b600081518084526119278160208601602086016118df565b601f01601f19169290920160200192915050565b60208152600061194e602083018461190f565b9392505050565b6000806020838503121561196857600080fd5b823567ffffffffffffffff8082111561198057600080fd5b818501915085601f83011261199457600080fd5b8135818111156119a357600080fd5b8660208260051b85010111156119b857600080fd5b60209290920196919550909350505050565b6000602080830181845280855180835260408601915060408160051b870101925083870160005b82811015611a1f57603f19888603018452611a0d85835161190f565b945092850192908501906001016119f1565b5092979650505050505050565b6001600160a01b0381168114611a4157600080fd5b50565b600060208284031215611a5657600080fd5b813561194e81611a2c565b600080600080600060a08688031215611a7957600080fd5b8535611a8481611a2c565b94506020860135611a9481611a2c565b94979496505050506040830135926060810135926080909101359150565b60008060008060808587031215611ac857600080fd5b8435611ad381611a2c565b93506020850135611ae381611a2c565b92506040850135611af381611a2c565b9396929550929360600135925050565b851515815260a060208201526000611b1e60a083018761190f565b604083019590955250606081019290925260809091015292915050565b600181811c90821680611b4f57607f821691505b602082108103611b6f57634e487b7160e01b600052602260045260246000fd5b50919050565b634e487b7160e01b600052604160045260246000fd5b634e487b7160e01b600052603260045260246000fd5b6000808335601e19843603018112611bb857600080fd5b83018035915067ffffffffffffffff821115611bd357600080fd5b602001915036819003821315611be857600080fd5b9250929050565b8183823760009101908152919050565b60408152826040820152828460608301376000606084830101526000601f19601f85011682016060838203016020840152611c3d606082018561190f565b9695505050505050565b634e487b7160e01b600052601160045260246000fd5b600060018201611c6f57611c6f611c47565b5060010190565b80518015158114611c8657600080fd5b919050565b600060208284031215611c9d57600080fd5b61194e82611c76565b6040516101e0810167ffffffffffffffff81118282101715611cca57611cca611b75565b60405290565b604051601f8201601f1916810167ffffffffffffffff81118282101715611cf957611cf9611b75565b604052919050565b805160ff81168114611c8657600080fd5b8051611c8681611a2c565b60006101e08284031215611d3057600080fd5b611d38611ca6565b611d4183611d01565b8152611d4f60208401611d12565b6020820152611d6060408401611d12565b6040820152606083810151908201526080808401519082015260a0808401519082015260c0808401519082015260e08084015190820152610100808401519082015261012080840151908201526101408084015190820152610160808401519082015261018080840151908201526101a080840151908201526101c0611de7818501611c76565b908201529392505050565b60008060408385031215611e0557600080fd5b8251915060208084015167ffffffffffffffff80821115611e2557600080fd5b818601915086601f830112611e3957600080fd5b815181811115611e4b57611e4b611b75565b8060051b9150611e5c848301611cd0565b8181529183018401918481019089841115611e7657600080fd5b938501935b83851015611ea05784519250611e9083611a2c565b8282529385019390850190611e7b565b8096505050505050509250929050565b600060208284031215611ec257600080fd5b5051919050565b6000816000190483118215151615611ee357611ee3611c47565b500290565b600082611f0557634e487b7160e01b600052601260045260246000fd5b500490565b60008083128015600160ff1b850184121615611f2857611f28611c47565b6001600160ff1b0384018313811615611f4357611f43611c47565b50500390565b600181815b80851115611f84578160001904821115611f6a57611f6a611c47565b80851615611f7757918102915b93841c9390800290611f4e565b509250929050565b600082611f9b57506001612029565b81611fa857506000612029565b8160018114611fbe5760028114611fc857611fe4565b6001915050612029565b60ff841115611fd957611fd9611c47565b50506001821b612029565b5060208310610133831016604e8410600b8410161715612007575081810a612029565b6120118383611f49565b806000190482111561202557612025611c47565b0290505b92915050565b600061194e60ff841683611f8c565b6000821982111561205157612051611c47565b500190565b60008282101561206857612068611c47565b500390565b6000825161207f8184602087016118df565b9190910192915050565b6001600160a01b038416815282151560208201526060604082018190526000906116bb9083018461190f565b6000602082840312156120c757600080fd5b61194e82611d01565b600061194e8383611f8c56fe536c69707061676520657863656564656421204e657720706f736974696f6e2065786365656473206d696e7420616c6c6f77616e63652e4d6967726174656420616d6f756e742065786365656473206e6577207661756c742063617061636974792120526564756365206d6967726174696f6e20616d6f756e742ea26469706673582212201ab17b3df5d058cf708c0254f559b59514a3276d3142a6ccf291d1edcc53959e64736f6c634300080d0033",
  "devdoc": {
    "errors": {
      "ERC20CallFailed(address,bool,bytes)": [
        {
          "params": {
            "data": "The resulting data from the call. This is error data when the call was not a success. Otherwise,                this is malformed data when the call was a success.",
            "success": "If the call to the token was a success.",
            "target": "The target address."
          }
        }
      ],
      "IllegalArgument(string)": [
        {
          "params": {
            "message": "The error message."
          }
        }
      ],
      "IllegalState(string)": [
        {
          "params": {
            "message": "The error message."
          }
        }
      ]
    },
    "kind": "dev",
    "methods": {
      "migrateVaults(address,address,uint256,uint256,uint256)": {
        "params": {
          "minReturnShares": "The maximum shares of slippage that the user will accept on new position.",
          "minReturnUnderlying": "The minimum underlying value when withdrawing from old position.",
          "shares": "The shares of tokens to migrate.",
          "startingYieldToken": "The yield token from which the user wants to withdraw.",
          "targetYieldToken": "The yield token that the user wishes to create a new position in."
        },
        "returns": {
          "_0": "        The underlying Value of the new position."
        }
      },
      "previewMigration(address,address,address,uint256)": {
        "params": {
          "account": "The account to migrate.",
          "shares": "The shares to migrate.",
          "startingYieldToken": "The starting vault.",
          "targetYieldToken": "The target vault."
        },
        "returns": {
          "_0": "             If the migration will be succesful.",
          "_1": "                  The specific reason the migration will fail.",
          "_2": "         This is the amount a user is exceeding the vault by, or how much debt value the user must cover.",
          "_3": "        Minimum shares for the migrate function.",
          "_4": "    Minimum underlying for the migrate function."
        }
      }
    },
    "stateVariables": {
      "version": {
        "return": "The version.",
        "returns": {
          "_0": "The version."
        }
      }
    },
    "version": 1
  },
  "userdoc": {
    "errors": {
      "ERC20CallFailed(address,bool,bytes)": [
        {
          "notice": "An error used to indicate that a call to an ERC20 contract failed."
        }
      ],
      "IllegalArgument()": [
        {
          "notice": "An error used to indicate that an action could not be completed because of an illegal argument was passed         to the function."
        }
      ],
      "IllegalArgument(string)": [
        {
          "notice": "An error used to indicate that an argument passed to a function is illegal or         inappropriate."
        }
      ],
      "IllegalState(string)": [
        {
          "notice": "An error used to indicate that a function has encountered an unrecoverable state."
        }
      ]
    },
    "kind": "user",
    "methods": {
      "migrateVaults(address,address,uint256,uint256,uint256)": {
        "notice": "Migrates 'shares' from 'startingVault' to 'targetVault'."
      },
      "previewMigration(address,address,address,uint256)": {
        "notice": "Determines if a migration will be succesful before allowing a user to migrate."
      },
      "version()": {
        "notice": "Gets the current version."
      }
    },
    "version": 1
  },
  "storageLayout": {
    "storage": [
      {
        "astId": 71783,
        "contract": "submodules/v2-foundry/src/migration/MigrationTool.sol:MigrationTool",
        "label": "version",
        "offset": 0,
        "slot": "0",
        "type": "t_string_storage"
      },
      {
        "astId": 71793,
        "contract": "submodules/v2-foundry/src/migration/MigrationTool.sol:MigrationTool",
        "label": "decimals",
        "offset": 0,
        "slot": "1",
        "type": "t_mapping(t_address,t_uint256)"
      },
      {
        "astId": 71802,
        "contract": "submodules/v2-foundry/src/migration/MigrationTool.sol:MigrationTool",
        "label": "collateralAddresses",
        "offset": 0,
        "slot": "2",
        "type": "t_array(t_address)dyn_storage"
      }
    ],
    "types": {
      "t_address": {
        "encoding": "inplace",
        "label": "address",
        "numberOfBytes": "20"
      },
      "t_array(t_address)dyn_storage": {
        "base": "t_address",
        "encoding": "dynamic_array",
        "label": "address[]",
        "numberOfBytes": "32"
      },
      "t_mapping(t_address,t_uint256)": {
        "encoding": "mapping",
        "key": "t_address",
        "label": "mapping(address => uint256)",
        "numberOfBytes": "32",
        "value": "t_uint256"
      },
      "t_string_storage": {
        "encoding": "bytes",
        "label": "string",
        "numberOfBytes": "32"
      },
      "t_uint256": {
        "encoding": "inplace",
        "label": "uint256",
        "numberOfBytes": "32"
      }
    }
  }
}