{
  "address": "0xDB3fE4Da32c2A79654D98e5a41B22173a0AF3933",
  "abi": [
    {
      "inputs": [
        {
          "internalType": "address",
          "name": "weth",
          "type": "address"
        },
        {
          "internalType": "address",
          "name": "_whitelist",
          "type": "address"
        }
      ],
      "stateMutability": "nonpayable",
      "type": "constructor"
    },
    {
      "inputs": [
        {
          "internalType": "string",
          "name": "message",
          "type": "string"
        }
      ],
      "name": "IllegalArgument",
      "type": "error"
    },
    {
      "inputs": [
        {
          "internalType": "string",
          "name": "message",
          "type": "string"
        }
      ],
      "name": "IllegalState",
      "type": "error"
    },
    {
      "inputs": [
        {
          "internalType": "string",
          "name": "message",
          "type": "string"
        }
      ],
      "name": "Unauthorized",
      "type": "error"
    },
    {
      "anonymous": false,
      "inputs": [
        {
          "indexed": true,
          "internalType": "address",
          "name": "previousOwner",
          "type": "address"
        },
        {
          "indexed": true,
          "internalType": "address",
          "name": "newOwner",
          "type": "address"
        }
      ],
      "name": "OwnershipTransferred",
      "type": "event"
    },
    {
      "inputs": [],
      "name": "WETH",
      "outputs": [
        {
          "internalType": "contract IWETH9",
          "name": "",
          "type": "address"
        }
      ],
      "stateMutability": "view",
      "type": "function"
    },
    {
      "inputs": [
        {
          "internalType": "address",
          "name": "alchemist",
          "type": "address"
        },
        {
          "internalType": "address",
          "name": "yieldToken",
          "type": "address"
        },
        {
          "internalType": "uint256",
          "name": "amount",
          "type": "uint256"
        },
        {
          "internalType": "address",
          "name": "recipient",
          "type": "address"
        },
        {
          "internalType": "uint256",
          "name": "minimumAmountOut",
          "type": "uint256"
        }
      ],
      "name": "depositUnderlying",
      "outputs": [],
      "stateMutability": "payable",
      "type": "function"
    },
    {
      "inputs": [],
      "name": "owner",
      "outputs": [
        {
          "internalType": "address",
          "name": "",
          "type": "address"
        }
      ],
      "stateMutability": "view",
      "type": "function"
    },
    {
      "inputs": [
        {
          "internalType": "address",
          "name": "alchemist",
          "type": "address"
        }
      ],
      "name": "refreshAllowance",
      "outputs": [],
      "stateMutability": "nonpayable",
      "type": "function"
    },
    {
      "inputs": [],
      "name": "renounceOwnership",
      "outputs": [],
      "stateMutability": "nonpayable",
      "type": "function"
    },
    {
      "inputs": [
        {
          "internalType": "address",
          "name": "newOwner",
          "type": "address"
        }
      ],
      "name": "transferOwnership",
      "outputs": [],
      "stateMutability": "nonpayable",
      "type": "function"
    },
    {
      "inputs": [],
      "name": "version",
      "outputs": [
        {
          "internalType": "string",
          "name": "",
          "type": "string"
        }
      ],
      "stateMutability": "view",
      "type": "function"
    },
    {
      "inputs": [],
      "name": "whitelist",
      "outputs": [
        {
          "internalType": "address",
          "name": "",
          "type": "address"
        }
      ],
      "stateMutability": "view",
      "type": "function"
    },
    {
      "inputs": [
        {
          "internalType": "address",
          "name": "alchemist",
          "type": "address"
        },
        {
          "internalType": "address",
          "name": "yieldToken",
          "type": "address"
        },
        {
          "internalType": "uint256",
          "name": "shares",
          "type": "uint256"
        },
        {
          "internalType": "address",
          "name": "recipient",
          "type": "address"
        },
        {
          "internalType": "uint256",
          "name": "minimumAmountOut",
          "type": "uint256"
        }
      ],
      "name": "withdrawUnderlying",
      "outputs": [],
      "stateMutability": "nonpayable",
      "type": "function"
    },
    {
      "stateMutability": "payable",
      "type": "receive"
    }
  ],
  "transactionHash": "0x4fccc931b2b23127c0a1962983500e0a54319bd9348efff8bf02dd7d7b295e1e",
  "args": [
    "0x4200000000000000000000000000000000000006",
    "0xf911d825a7554b7658e0601F030Cd0C6B8005918"
  ],
  "solcInputHash": "51580caf1775762c8a9b67e651d60941",
  "bytecode": "0x60a060405234801561001057600080fd5b50604051610d97380380610d9783398101604081905261002f916100cc565b61003833610060565b6001600160a01b03918216608052600180546001600160a01b031916919092161790556100ff565b600080546001600160a01b038381166001600160a01b0319831681178455604051919092169283917f8be0079c531659141344cd1fd0a4f28419497f9722a3daafe3b4186f6b6457e09190a35050565b80516001600160a01b03811681146100c757600080fd5b919050565b600080604083850312156100df57600080fd5b6100e8836100b0565b91506100f6602084016100b0565b90509250929050565b608051610c5461014360003960008181609a01528181610214015281816102e40152818161040701528181610493015281816105ed015261073e0152610c546000f3fe60806040526004361061008a5760003560e01c80638da5cb5b116100595780638da5cb5b146101b057806393e59dc1146101e2578063ad5c464814610202578063f2fde38b14610236578063fe65b98a1461025657600080fd5b80630df6cee01461011457806354fd4d50146101345780636860e4e61461017b578063715018a61461019b57600080fd5b3661010f57336001600160a01b037f0000000000000000000000000000000000000000000000000000000000000000161461010d5760405163973d02cb60e01b815260206004820152601f60248201527f6d73672e73656e646572206973206e6f74205745544820636f6e74726163740060448201526064015b60405180910390fd5b005b600080fd5b34801561012057600080fd5b5061010d61012f3660046109ae565b610269565b34801561014057600080fd5b50610165604051806040016040528060058152602001640322e312e360dc1b81525081565b6040516101729190610a39565b60405180910390f35b34801561018757600080fd5b5061010d610196366004610a6c565b6105be565b3480156101a757600080fd5b5061010d61065e565b3480156101bc57600080fd5b506000546001600160a01b03165b6040516001600160a01b039091168152602001610172565b3480156101ee57600080fd5b506001546101ca906001600160a01b031681565b34801561020e57600080fd5b506101ca7f000000000000000000000000000000000000000000000000000000000000000081565b34801561024257600080fd5b5061010d610251366004610a6c565b610672565b61010d6102643660046109ae565b6106eb565b61027161083b565b604051635a5efc8b60e01b81526001600160a01b03858116600483015260009190871690635a5efc8b906024016101e060405180830381865afa1580156102bc573d6000803e3d6000fd5b505050506040513d601f19601f820116820180604052508101906102e09190610af9565b90507f00000000000000000000000000000000000000000000000000000000000000006001600160a01b031681602001516001600160a01b031614610368576040516354a1577760e11b815260206004820152601a60248201527f546f6b656e206973206e6f74205745544820636f6e74726163740000000000006044820152606401610104565b604051632e5a3b8f60e21b81523360048201526001600160a01b038681166024830152604482018690523060648301526084820184905287169063b968ee3c9060a4016020604051808303816000875af11580156103ca573d6000803e3d6000fd5b505050506040513d601f19601f820116820180604052508101906103ee9190610bce565b506040516370a0823160e01b81523060048201526000907f00000000000000000000000000000000000000000000000000000000000000006001600160a01b0316906370a0823190602401602060405180830381865afa158015610456573d6000803e3d6000fd5b505050506040513d601f19601f8201168201806040525081019061047a9190610bce565b604051632e1a7d4d60e01b8152600481018290529091507f00000000000000000000000000000000000000000000000000000000000000006001600160a01b031690632e1a7d4d90602401600060405180830381600087803b1580156104df57600080fd5b505af11580156104f3573d6000803e3d6000fd5b5050604080516000808252602082019283905293506001600160a01b038816925084916105209190610be7565b60006040518083038185875af1925050503d806000811461055d576040519150601f19603f3d011682016040523d82523d6000602084013e610562565b606091505b50509050806105b45760405163c50656df60e01b815260206004820152601760248201527f556e7375636365737366756c207769746864726177616c0000000000000000006044820152606401610104565b5050505050505050565b6105c66108ef565b60405163095ea7b360e01b81526001600160a01b03828116600483015260001960248301527f0000000000000000000000000000000000000000000000000000000000000000169063095ea7b3906044016020604051808303816000875af1158015610636573d6000803e3d6000fd5b505050506040513d601f19601f8201168201806040525081019061065a9190610c03565b5050565b6106666108ef565b6106706000610949565b565b61067a6108ef565b6001600160a01b0381166106df5760405162461bcd60e51b815260206004820152602660248201527f4f776e61626c653a206e6577206f776e657220697320746865207a65726f206160448201526564647265737360d01b6064820152608401610104565b6106e881610949565b50565b6106f361083b565b34831461073c576040516354a1577760e11b8152602060048201526016602482015275125b9d985b1a590819195c1bdcda5d08185b5bdd5b9d60521b6044820152606401610104565b7f00000000000000000000000000000000000000000000000000000000000000006001600160a01b031663d0e30db0346040518263ffffffff1660e01b81526004016000604051808303818588803b15801561079757600080fd5b505af11580156107ab573d6000803e3d6000fd5b5050604051635efd4dd760e11b81526001600160a01b038881166004830152602482018890528681166044830152606482018690528916935063bdfa9bae925060840190506020604051808303816000875af115801561080f573d6000803e3d6000fd5b505050506040513d601f19601f820116820180604052508101906108339190610bce565b505050505050565b33320361084457565b600154604051633af32abf60e01b81523360048201526001600160a01b0390911690633af32abf90602401602060405180830381865afa15801561088c573d6000803e3d6000fd5b505050506040513d601f19601f820116820180604052508101906108b09190610c03565b6106705760405163973d02cb60e01b815260206004820152600f60248201526e139bdd081dda1a5d195b1a5cdd1959608a1b6044820152606401610104565b6000546001600160a01b031633146106705760405162461bcd60e51b815260206004820181905260248201527f4f776e61626c653a2063616c6c6572206973206e6f7420746865206f776e65726044820152606401610104565b600080546001600160a01b038381166001600160a01b0319831681178455604051919092169283917f8be0079c531659141344cd1fd0a4f28419497f9722a3daafe3b4186f6b6457e09190a35050565b6001600160a01b03811681146106e857600080fd5b600080600080600060a086880312156109c657600080fd5b85356109d181610999565b945060208601356109e181610999565b93506040860135925060608601356109f881610999565b949793965091946080013592915050565b60005b83811015610a24578181015183820152602001610a0c565b83811115610a33576000848401525b50505050565b6020815260008251806020840152610a58816040850160208701610a09565b601f01601f19169190910160400192915050565b600060208284031215610a7e57600080fd5b8135610a8981610999565b9392505050565b6040516101e0810167ffffffffffffffff81118282101715610ac257634e487b7160e01b600052604160045260246000fd5b60405290565b805160ff81168114610ad957600080fd5b919050565b8051610ad981610999565b80518015158114610ad957600080fd5b60006101e08284031215610b0c57600080fd5b610b14610a90565b610b1d83610ac8565b8152610b2b60208401610ade565b6020820152610b3c60408401610ade565b6040820152606083810151908201526080808401519082015260a0808401519082015260c0808401519082015260e08084015190820152610100808401519082015261012080840151908201526101408084015190820152610160808401519082015261018080840151908201526101a080840151908201526101c0610bc3818501610ae9565b908201529392505050565b600060208284031215610be057600080fd5b5051919050565b60008251610bf9818460208701610a09565b9190910192915050565b600060208284031215610c1557600080fd5b610a8982610ae956fea2646970667358221220263591c09a129f50a2a4704a42968e9ac8b9ec51c4ac167ff9912baa01daf7f664736f6c634300080d0033",
  "devdoc": {
    "author": "Alchemix Finance",
    "errors": {
      "IllegalArgument(string)": [
        {
          "params": {
            "message": "The error message."
          }
        }
      ],
      "IllegalState(string)": [
        {
          "params": {
            "message": "The error message."
          }
        }
      ],
      "Unauthorized(string)": [
        {
          "params": {
            "message": "The error message."
          }
        }
      ]
    },
    "kind": "dev",
    "methods": {
      "depositUnderlying(address,address,uint256,address,uint256)": {
        "params": {
          "alchemist": "The address of the alchemist to deposit wrapped ethereum into.",
          "amount": "The amount of ethereum to deposit.",
          "minimumAmountOut": "The minimum amount of yield tokens that are expected to be deposited to `recipient`.",
          "recipient": "The address which will receive the deposited yield tokens.",
          "yieldToken": "The yield token to deposit the wrapped ethereum as."
        }
      },
      "owner()": {
        "details": "Returns the address of the current owner."
      },
      "refreshAllowance(address)": {
        "params": {
          "alchemist": "The address of the alchemist to refresh the allowance for."
        }
      },
      "renounceOwnership()": {
        "details": "Leaves the contract without owner. It will not be possible to call `onlyOwner` functions anymore. Can only be called by the current owner. NOTE: Renouncing ownership will leave the contract without an owner, thereby removing any functionality that is only available to the owner."
      },
      "transferOwnership(address)": {
        "details": "Transfers ownership of the contract to a new account (`newOwner`). Can only be called by the current owner."
      },
      "withdrawUnderlying(address,address,uint256,address,uint256)": {
        "params": {
          "alchemist": "The address of the alchemist to withdraw wrapped ethereum from.",
          "minimumAmountOut": "The minimum amount of underlying tokens that are expected to be withdrawn to `recipient`.",
          "recipient": "The address which will receive the ethereum.",
          "shares": "The amount of shares to withdraw.",
          "yieldToken": "The address of the yield token to withdraw."
        }
      }
    },
    "title": "WETHGateway",
    "version": 1
  },
  "userdoc": {
    "errors": {
      "IllegalArgument(string)": [
        {
          "notice": "An error used to indicate that an argument passed to a function is illegal or         inappropriate."
        }
      ],
      "IllegalState(string)": [
        {
          "notice": "An error used to indicate that a function has encountered an unrecoverable state."
        }
      ],
      "Unauthorized(string)": [
        {
          "notice": "An error used to indicate that a message sender tried to execute a privileged function."
        }
      ]
    },
    "kind": "user",
    "methods": {
      "WETH()": {
        "notice": "The wrapped ethereum contract."
      },
      "depositUnderlying(address,address,uint256,address,uint256)": {
        "notice": "Takes ethereum, converts it to wrapped ethereum, and then deposits it into an alchemist. See [IAlchemistV2Actions.depositUnderlying](./alchemist/IAlchemistV2Actions.md#depositunderlying) for more details."
      },
      "refreshAllowance(address)": {
        "notice": "Refreshes the wrapped ethereum ERC20 approval for an alchemist contract."
      },
      "version()": {
        "notice": "The version."
      },
      "whitelist()": {
        "notice": "The address of the whitelist contract."
      },
      "withdrawUnderlying(address,address,uint256,address,uint256)": {
        "notice": "Withdraws a wrapped ethereum based yield token from an alchemist, converts it to ethereum, and then         transfers it to the recipient. A withdraw approval on the alchemist is required for this call to succeed. See [IAlchemistV2Actions.withdrawUnderlying](./alchemist/IAlchemistV2Actions.md#withdrawunderlying) for more details."
      }
    },
    "version": 1
  },
  "storageLayout": {
    "storage": [
      {
        "astId": 25140,
        "contract": "submodules/v2-foundry/src/WETHGateway.sol:WETHGateway",
        "label": "_owner",
        "offset": 0,
        "slot": "0",
        "type": "t_address"
      },
      {
        "astId": 45092,
        "contract": "submodules/v2-foundry/src/WETHGateway.sol:WETHGateway",
        "label": "whitelist",
        "offset": 0,
        "slot": "1",
        "type": "t_address"
      }
    ],
    "types": {
      "t_address": {
        "encoding": "inplace",
        "label": "address",
        "numberOfBytes": "20"
      }
    }
  }
}