{
  "address": "0x3ACF557e97e2c1205374AD9F71C5C928411A076A",
  "abi": [
    {
      "inputs": [
        {
          "components": [
            {
              "internalType": "address",
              "name": "alchemist",
              "type": "address"
            },
            {
              "internalType": "address",
              "name": "token",
              "type": "address"
            },
            {
              "internalType": "address",
              "name": "underlyingToken",
              "type": "address"
            },
            {
              "internalType": "address",
              "name": "velodromeRouter",
              "type": "address"
            },
            {
              "internalType": "address",
              "name": "oracleWstethEth",
              "type": "address"
            }
          ],
          "internalType": "struct InitializationParams",
          "name": "params",
          "type": "tuple"
        }
      ],
      "stateMutability": "nonpayable",
      "type": "constructor"
    },
    {
      "inputs": [
        {
          "internalType": "address",
          "name": "target",
          "type": "address"
        },
        {
          "internalType": "bool",
          "name": "success",
          "type": "bool"
        },
        {
          "internalType": "bytes",
          "name": "data",
          "type": "bytes"
        }
      ],
      "name": "ERC20CallFailed",
      "type": "error"
    },
    {
      "inputs": [
        {
          "internalType": "string",
          "name": "message",
          "type": "string"
        }
      ],
      "name": "IllegalState",
      "type": "error"
    },
    {
      "inputs": [
        {
          "internalType": "string",
          "name": "message",
          "type": "string"
        }
      ],
      "name": "Unauthorized",
      "type": "error"
    },
    {
      "inputs": [],
      "name": "alchemist",
      "outputs": [
        {
          "internalType": "address",
          "name": "",
          "type": "address"
        }
      ],
      "stateMutability": "view",
      "type": "function"
    },
    {
      "inputs": [],
      "name": "oracleWstethEth",
      "outputs": [
        {
          "internalType": "address",
          "name": "",
          "type": "address"
        }
      ],
      "stateMutability": "view",
      "type": "function"
    },
    {
      "inputs": [],
      "name": "price",
      "outputs": [
        {
          "internalType": "uint256",
          "name": "",
          "type": "uint256"
        }
      ],
      "stateMutability": "view",
      "type": "function"
    },
    {
      "inputs": [],
      "name": "token",
      "outputs": [
        {
          "internalType": "address",
          "name": "",
          "type": "address"
        }
      ],
      "stateMutability": "view",
      "type": "function"
    },
    {
      "inputs": [],
      "name": "underlyingToken",
      "outputs": [
        {
          "internalType": "address",
          "name": "",
          "type": "address"
        }
      ],
      "stateMutability": "view",
      "type": "function"
    },
    {
      "inputs": [
        {
          "internalType": "uint256",
          "name": "amount",
          "type": "uint256"
        },
        {
          "internalType": "address",
          "name": "recipient",
          "type": "address"
        }
      ],
      "name": "unwrap",
      "outputs": [
        {
          "internalType": "uint256",
          "name": "",
          "type": "uint256"
        }
      ],
      "stateMutability": "nonpayable",
      "type": "function"
    },
    {
      "inputs": [],
      "name": "velodromeRouter",
      "outputs": [
        {
          "internalType": "address",
          "name": "",
          "type": "address"
        }
      ],
      "stateMutability": "view",
      "type": "function"
    },
    {
      "inputs": [],
      "name": "version",
      "outputs": [
        {
          "internalType": "string",
          "name": "",
          "type": "string"
        }
      ],
      "stateMutability": "view",
      "type": "function"
    },
    {
      "inputs": [
        {
          "internalType": "uint256",
          "name": "amount",
          "type": "uint256"
        },
        {
          "internalType": "address",
          "name": "recipient",
          "type": "address"
        }
      ],
      "name": "wrap",
      "outputs": [
        {
          "internalType": "uint256",
          "name": "",
          "type": "uint256"
        }
      ],
      "stateMutability": "nonpayable",
      "type": "function"
    },
    {
      "stateMutability": "payable",
      "type": "receive"
    }
  ],
  "transactionHash": "0xff69caeef21e64f462509a6ebc99fb063d7b9afea80ffe2b1ff339f3fdf13728",
  "args": [
    {
      "alchemist": "0xe04Bb5B4de60FA2fBa69a93adE13A8B3B569d5B4",
      "token": "0x1F32b1c2345538c0c6f582fCB022739c4A194Ebb",
      "underlyingToken": "0x4200000000000000000000000000000000000006",
      "velodromeRouter": "0x9c12939390052919aF3155f41Bf4160Fd3666A6f",
      "oracleWstethEth": "0x524299Ab0987a7c4B3c8022a35669DdcdC715a10"
    }
  ],
  "solcInputHash": "bfe2e5161f89600ea38242ebd58075e4",
  "bytecode": "0x6000805460ff191660019081179091556101606040526005610120819052640312e312e360dc1b610140908152620000389291620000a8565b503480156200004657600080fd5b506040516200142b3803806200142b83398101604081905262000069916200016b565b80516001600160a01b0390811660809081526020830151821660a0526040830151821660c0526060830151821660e0529091015116610100526200024e565b828054620000b69062000212565b90600052602060002090601f016020900481019282620000da576000855562000125565b82601f10620000f557805160ff191683800117855562000125565b8280016001018555821562000125579182015b828111156200012557825182559160200191906001019062000108565b506200013392915062000137565b5090565b5b8082111562000133576000815560010162000138565b80516001600160a01b03811681146200016657600080fd5b919050565b600060a082840312156200017e57600080fd5b60405160a081016001600160401b0381118282101715620001af57634e487b7160e01b600052604160045260246000fd5b604052620001bd836200014e565b8152620001cd602084016200014e565b6020820152620001e0604084016200014e565b6040820152620001f3606084016200014e565b606082015262000206608084016200014e565b60808201529392505050565b600181811c908216806200022757607f821691505b6020821081036200024857634e487b7160e01b600052602260045260246000fd5b50919050565b60805160a05160c05160e05161010051611115620003166000396000818161024a015261090701526000818160ce015281816101f4015281816103ce015281816104cb0152818161072c0152610829015260008181609a015281816101a801528181610381015281816103ad01528181610446015281816107d301526108ca0152600081816102e7015281816104750152818161056c015281816106df0152818161070b01526107a401526000818161029e0152818161031e015261067c01526111156000f3fe60806040526004361061008a5760003560e01c80636d39c0e4116100595780636d39c0e4146102385780637647691d1461026c5780638de925f61461028c578063a035b1fe146102c0578063fc0c546a146102d557600080fd5b806313bac820146101635780632495a59914610196578063366ac47c146101e257806354fd4d501461021657600080fd5b3661015e57336001600160a01b037f000000000000000000000000000000000000000000000000000000000000000016148015906100f15750336001600160a01b037f00000000000000000000000000000000000000000000000000000000000000001614155b1561015c5760405163973d02cb60e01b815260206004820152602f60248201527f5061796d656e7473206f6e6c79207065726d69747465642066726f6d2057455460448201526e12081bdc8818dd5c9d99481c1bdbdb608a1b60648201526084015b60405180910390fd5b005b600080fd5b34801561016f57600080fd5b5061018361017e366004610d57565b610309565b6040519081526020015b60405180910390f35b3480156101a257600080fd5b506101ca7f000000000000000000000000000000000000000000000000000000000000000081565b6040516001600160a01b03909116815260200161018d565b3480156101ee57600080fd5b506101ca7f000000000000000000000000000000000000000000000000000000000000000081565b34801561022257600080fd5b5061022b6105d9565b60405161018d9190610def565b34801561024457600080fd5b506101ca7f000000000000000000000000000000000000000000000000000000000000000081565b34801561027857600080fd5b50610183610287366004610d57565b610667565b34801561029857600080fd5b506101ca7f000000000000000000000000000000000000000000000000000000000000000081565b3480156102cc57600080fd5b506101836108fd565b3480156102e157600080fd5b506101ca7f000000000000000000000000000000000000000000000000000000000000000081565b6000610313610a94565b336001600160a01b037f0000000000000000000000000000000000000000000000000000000000000000161461037c5760405163973d02cb60e01b815260206004820152600d60248201526c139bdd08185b18da195b5a5cdd609a1b6044820152606401610153565b6103a87f0000000000000000000000000000000000000000000000000000000000000000333086610b09565b6103f37f00000000000000000000000000000000000000000000000000000000000000007f000000000000000000000000000000000000000000000000000000000000000085610c09565b604080516001808252818301909252600091816020015b604080516060810182526000808252602080830182905292820152825260001990920191018161040a57905050905060405180606001604052807f00000000000000000000000000000000000000000000000000000000000000006001600160a01b031681526020017f00000000000000000000000000000000000000000000000000000000000000006001600160a01b0316815260200160001515815250816000815181106104bc576104bc610e1f565b602002602001018190525060007f00000000000000000000000000000000000000000000000000000000000000006001600160a01b031663f41766d88660008530426040518663ffffffff1660e01b815260040161051e959493929190610e35565b6000604051808303816000875af115801561053d573d6000803e3d6000fd5b505050506040513d6000823e601f3d908101601f191682016040526105659190810190610eca565b90506105ac7f0000000000000000000000000000000000000000000000000000000000000000858360018151811061059f5761059f610e1f565b6020026020010151610d11565b806001815181106105bf576105bf610e1f565b6020026020010151925050506105d3610d44565b92915050565b600180546105e690610f88565b80601f016020809104026020016040519081016040528092919081815260200182805461061290610f88565b801561065f5780601f106106345761010080835404028352916020019161065f565b820191906000526020600020905b81548152906001019060200180831161064257829003601f168201915b505050505081565b6000610671610a94565b336001600160a01b037f000000000000000000000000000000000000000000000000000000000000000016146106da5760405163973d02cb60e01b815260206004820152600d60248201526c139bdd08185b18da195b5a5cdd609a1b6044820152606401610153565b6107067f0000000000000000000000000000000000000000000000000000000000000000333086610b09565b6107517f00000000000000000000000000000000000000000000000000000000000000007f000000000000000000000000000000000000000000000000000000000000000085610c09565b604080516001808252818301909252600091816020015b604080516060810182526000808252602080830182905292820152825260001990920191018161076857905050905060405180606001604052807f00000000000000000000000000000000000000000000000000000000000000006001600160a01b031681526020017f00000000000000000000000000000000000000000000000000000000000000006001600160a01b03168152602001600015158152508160008151811061081a5761081a610e1f565b602002602001018190525060007f00000000000000000000000000000000000000000000000000000000000000006001600160a01b031663f41766d88660008530426040518663ffffffff1660e01b815260040161087c959493929190610e35565b6000604051808303816000875af115801561089b573d6000803e3d6000fd5b505050506040513d6000823e601f3d908101601f191682016040526108c39190810190610eca565b90506105ac7f0000000000000000000000000000000000000000000000000000000000000000858360018151811061059f5761059f610e1f565b60008060008060007f00000000000000000000000000000000000000000000000000000000000000006001600160a01b031663feaf968c6040518163ffffffff1660e01b815260040160a060405180830381865afa158015610963573d6000803e3d6000fd5b505050506040513d601f19601f820116820180604052508101906109879190610fe1565b945094505093509350600083136109d85760405162461bcd60e51b815260206004820152601560248201527421b430b4b73634b7359026b0b6333ab731ba34b7b760591b6044820152606401610153565b81600003610a1b5760405162461bcd60e51b815260206004820152601060248201526f125b98dbdb5c1b195d19481c9bdd5b9960821b6044820152606401610153565b610a286201518042611031565b821015610a6f5760405162461bcd60e51b815260206004820152601560248201527421b430b4b73634b7359026b0b6333ab731ba34b7b760591b6044820152606401610153565b671bc16d674ec80000831315610a8b57671bc16d674ec8000092505b50909392505050565b600160005460ff166002811115610aad57610aad611056565b14610af25760405163c50656df60e01b8152602060048201526014602482015273131bd8dac8185b1c9958591e4818db185a5b595960621b6044820152606401610153565b600080546002919060ff19166001835b0217905550565b604080516001600160a01b0385811660248301528481166044830152606480830185905283518084039091018152608490920183526020820180516001600160e01b03166323b872dd60e01b1790529151600092839290881691610b6d919061106c565b6000604051808303816000865af19150503d8060008114610baa576040519150601f19603f3d011682016040523d82523d6000602084013e610baf565b606091505b5091509150811580610bdd5750805115801590610bdd575080806020019051810190610bdb9190611088565b155b15610c015785828260405163e7e40b5b60e01b8152600401610153939291906110aa565b505050505050565b6040516001600160a01b03838116602483015260448201839052600091829186169063095ea7b360e01b906064015b60408051601f198184030181529181526020820180516001600160e01b03166001600160e01b0319909416939093179092529051610c76919061106c565b6000604051808303816000865af19150503d8060008114610cb3576040519150601f19603f3d011682016040523d82523d6000602084013e610cb8565b606091505b5091509150811580610ce65750805115801590610ce6575080806020019051810190610ce49190611088565b155b15610d0a5784828260405163e7e40b5b60e01b8152600401610153939291906110aa565b5050505050565b6040516001600160a01b03838116602483015260448201839052600091829186169063a9059cbb60e01b90606401610c38565b600080546001919060ff19168280610b02565b60008060408385031215610d6a57600080fd5b8235915060208301356001600160a01b0381168114610d8857600080fd5b809150509250929050565b60005b83811015610dae578181015183820152602001610d96565b83811115610dbd576000848401525b50505050565b60008151808452610ddb816020860160208601610d93565b601f01601f19169290920160200192915050565b602081526000610e026020830184610dc3565b9392505050565b634e487b7160e01b600052604160045260246000fd5b634e487b7160e01b600052603260045260246000fd5b600060a0820187835260208781850152604060a08186015282885180855260c087019150838a01945060005b81811015610e9e57855180516001600160a01b03908116855286820151168685015284015115158484015294840194606090920191600101610e61565b50506001600160a01b03881660608701529350610eba92505050565b8260808301529695505050505050565b60006020808385031215610edd57600080fd5b825167ffffffffffffffff80821115610ef557600080fd5b818501915085601f830112610f0957600080fd5b815181811115610f1b57610f1b610e09565b8060051b604051601f19603f83011681018181108582111715610f4057610f40610e09565b604052918252848201925083810185019188831115610f5e57600080fd5b938501935b82851015610f7c57845184529385019392850192610f63565b98975050505050505050565b600181811c90821680610f9c57607f821691505b602082108103610fbc57634e487b7160e01b600052602260045260246000fd5b50919050565b805169ffffffffffffffffffff81168114610fdc57600080fd5b919050565b600080600080600060a08688031215610ff957600080fd5b61100286610fc2565b945060208601519350604086015192506060860151915061102560808701610fc2565b90509295509295909350565b60008282101561105157634e487b7160e01b600052601160045260246000fd5b500390565b634e487b7160e01b600052602160045260246000fd5b6000825161107e818460208701610d93565b9190910192915050565b60006020828403121561109a57600080fd5b81518015158114610e0257600080fd5b6001600160a01b038416815282151560208201526060604082018190526000906110d690830184610dc3565b9594505050505056fea26469706673582212203ff1197603aa478065d26214d661bf887c6ece43846bce638f2a1ae252d50a1f64736f6c634300080d0033",
  "devdoc": {
    "errors": {
      "ERC20CallFailed(address,bool,bytes)": [
        {
          "params": {
            "data": "The resulting data from the call. This is error data when the call was not a                success. Otherwise, this is malformed data when the call was a success.",
            "success": "If the call to the token was a success.",
            "target": "The target address."
          }
        }
      ],
      "IllegalState(string)": [
        {
          "params": {
            "message": "The error message."
          }
        }
      ],
      "Unauthorized(string)": [
        {
          "params": {
            "message": "The error message."
          }
        }
      ]
    },
    "kind": "dev",
    "methods": {
      "price()": {
        "returns": {
          "_0": "The price."
        }
      },
      "unwrap(uint256,address)": {
        "params": {
          "amount": "The amount of yield-tokens to redeem.",
          "recipient": "The recipient of the resulting underlying-tokens."
        },
        "returns": {
          "_0": "The amount of underlying tokens unwrapped to `recipient`."
        }
      },
      "wrap(uint256,address)": {
        "params": {
          "amount": "The amount of the underlying token to wrap.",
          "recipient": "The address which will receive the yield tokens."
        },
        "returns": {
          "_0": "The amount of yield tokens minted to `recipient`."
        }
      }
    },
    "stateVariables": {
      "token": {
        "return": "The address of the yield token.",
        "returns": {
          "_0": "The address of the yield token."
        }
      },
      "underlyingToken": {
        "return": "The address of the underlying token.",
        "returns": {
          "_0": "The address of the underlying token."
        }
      },
      "version": {
        "return": "The version.",
        "returns": {
          "_0": "The version."
        }
      }
    },
    "version": 1
  },
  "userdoc": {
    "errors": {
      "ERC20CallFailed(address,bool,bytes)": [
        {
          "notice": "An error used to indicate that a call to an ERC20 contract failed."
        }
      ],
      "IllegalState(string)": [
        {
          "notice": "An error used to indicate that a function has encountered an unrecoverable state."
        }
      ],
      "Unauthorized(string)": [
        {
          "notice": "An error used to indicate that a message sender tried to execute a privileged function."
        }
      ]
    },
    "kind": "user",
    "methods": {
      "price()": {
        "notice": "Gets the number of underlying tokens that a single whole yield token is redeemable         for."
      },
      "token()": {
        "notice": "Gets the address of the yield token that this adapter supports."
      },
      "underlyingToken()": {
        "notice": "Gets the address of the underlying token that the yield token wraps."
      },
      "unwrap(uint256,address)": {
        "notice": "Unwraps `amount` yield tokens into the underlying token."
      },
      "version()": {
        "notice": "Gets the current version."
      },
      "wrap(uint256,address)": {
        "notice": "Wraps `amount` underlying tokens into the yield token."
      }
    },
    "version": 1
  },
  "storageLayout": {
    "storage": [
      {
        "astId": 51926,
        "contract": "submodules/v2-foundry/src/adapters/lido/WstETHAdapterOptimism.sol:WstETHAdapterOptimism",
        "label": "_lockState",
        "offset": 0,
        "slot": "0",
        "type": "t_enum(State)51920"
      },
      {
        "astId": 50680,
        "contract": "submodules/v2-foundry/src/adapters/lido/WstETHAdapterOptimism.sol:WstETHAdapterOptimism",
        "label": "version",
        "offset": 0,
        "slot": "1",
        "type": "t_string_storage"
      }
    ],
    "types": {
      "t_enum(State)51920": {
        "encoding": "inplace",
        "label": "enum MutexLock.State",
        "numberOfBytes": "1"
      },
      "t_string_storage": {
        "encoding": "bytes",
        "label": "string",
        "numberOfBytes": "32"
      }
    }
  }
}