{
  "address": "0x87a98D89325e317A99fDaBF0044F9120F426a3f7",
  "abi": [
    {
      "inputs": [
        {
          "internalType": "address",
          "name": "_token",
          "type": "address"
        },
        {
          "internalType": "address",
          "name": "_underlyingToken",
          "type": "address"
        }
      ],
      "stateMutability": "nonpayable",
      "type": "constructor"
    },
    {
      "inputs": [
        {
          "internalType": "address",
          "name": "target",
          "type": "address"
        },
        {
          "internalType": "bool",
          "name": "success",
          "type": "bool"
        },
        {
          "internalType": "bytes",
          "name": "data",
          "type": "bytes"
        }
      ],
      "name": "ERC20CallFailed",
      "type": "error"
    },
    {
      "inputs": [],
      "name": "IllegalState",
      "type": "error"
    },
    {
      "inputs": [],
      "name": "price",
      "outputs": [
        {
          "internalType": "uint256",
          "name": "",
          "type": "uint256"
        }
      ],
      "stateMutability": "view",
      "type": "function"
    },
    {
      "inputs": [],
      "name": "token",
      "outputs": [
        {
          "internalType": "address",
          "name": "",
          "type": "address"
        }
      ],
      "stateMutability": "view",
      "type": "function"
    },
    {
      "inputs": [],
      "name": "underlyingToken",
      "outputs": [
        {
          "internalType": "address",
          "name": "",
          "type": "address"
        }
      ],
      "stateMutability": "view",
      "type": "function"
    },
    {
      "inputs": [
        {
          "internalType": "uint256",
          "name": "amount",
          "type": "uint256"
        },
        {
          "internalType": "address",
          "name": "recipient",
          "type": "address"
        }
      ],
      "name": "unwrap",
      "outputs": [
        {
          "internalType": "uint256",
          "name": "",
          "type": "uint256"
        }
      ],
      "stateMutability": "nonpayable",
      "type": "function"
    },
    {
      "inputs": [],
      "name": "version",
      "outputs": [
        {
          "internalType": "string",
          "name": "",
          "type": "string"
        }
      ],
      "stateMutability": "view",
      "type": "function"
    },
    {
      "inputs": [
        {
          "internalType": "uint256",
          "name": "amount",
          "type": "uint256"
        },
        {
          "internalType": "address",
          "name": "recipient",
          "type": "address"
        }
      ],
      "name": "wrap",
      "outputs": [
        {
          "internalType": "uint256",
          "name": "",
          "type": "uint256"
        }
      ],
      "stateMutability": "nonpayable",
      "type": "function"
    }
  ],
  "transactionHash": "0xf94b1d302977f6c74e9065557f088443068189245ecba7b6689331450ee86c48",
  "args": [
    "0x059Eaa296B18E0d954632c8242dDb4a271175EeD",
    "0x7F5c764cBc14f9669B88837ca1490cCa17c31607"
  ],
  "solcInputHash": "9198b79e47f6d71bc134879c49f12fc6",
  "bytecode": "0x60c060405234801561001057600080fd5b50604051610afa380380610afa83398101604081905261002f91610062565b6001600160a01b039182166080521660a052610095565b80516001600160a01b038116811461005d57600080fd5b919050565b6000806040838503121561007557600080fd5b61007e83610046565b915061008c60208401610046565b90509250929050565b60805160a0516109f4610106600039600081816092015281816101460152818161017201526101be01526000818161011d01528181610193015281816101df01528181610231015281816102ac015281816102da01528181610338015281816103ae015261040b01526109f46000f3fe608060405234801561001057600080fd5b50600436106100625760003560e01c806313bac820146100675780632495a5991461008d57806354fd4d50146100cc5780637647691d146100fd578063a035b1fe14610110578063fc0c546a14610118575b600080fd5b61007a610075366004610836565b61013f565b6040519081526020015b60405180910390f35b6100b47f000000000000000000000000000000000000000000000000000000000000000081565b6040516001600160a01b039091168152602001610084565b6100f0604051806040016040528060058152602001640312e302e360dc1b81525081565b60405161008491906108c2565b61007a61010b366004610836565b6102a5565b61007a610407565b6100b47f000000000000000000000000000000000000000000000000000000000000000081565b600061016d7f00000000000000000000000000000000000000000000000000000000000000003330866104f1565b6101b97f00000000000000000000000000000000000000000000000000000000000000007f0000000000000000000000000000000000000000000000000000000000000000600061060f565b6102047f00000000000000000000000000000000000000000000000000000000000000007f00000000000000000000000000000000000000000000000000000000000000008561060f565b6040516307dba22560e31b81526001600160a01b03838116600483015260248201859052600160448301527f00000000000000000000000000000000000000000000000000000000000000001690633edd1128906064016020604051808303816000875af115801561027a573d6000803e3d6000fd5b505050506040513d601f19601f8201168201806040525081019061029e91906108d5565b9392505050565b60006102d37f00000000000000000000000000000000000000000000000000000000000000003330866104f1565b60006102ff7f00000000000000000000000000000000000000000000000000000000000000003061071b565b60405163234b674560e01b81526001600160a01b03858116600483015260248201879052600060448301819052600160648401529293507f0000000000000000000000000000000000000000000000000000000000000000169063234b67459060840160408051808303816000875af1158015610380573d6000803e3d6000fd5b505050506040513d601f19601f820116820180604052508101906103a491906108ee565b91505060006103d37f00000000000000000000000000000000000000000000000000000000000000003061071b565b9050856103e08285610912565b146103fe57604051634a613c4160e01b815260040160405180910390fd5b50949350505050565b60007f00000000000000000000000000000000000000000000000000000000000000006001600160a01b03166321115d6d6040518163ffffffff1660e01b8152600401602060405180830381865afa158015610467573d6000803e3d6000fd5b505050506040513d601f19601f8201168201806040525081019061048b9190610937565b6001600160a01b03166399530b066040518163ffffffff1660e01b8152600401602060405180830381865afa1580156104c8573d6000803e3d6000fd5b505050506040513d601f19601f820116820180604052508101906104ec91906108d5565b905090565b604080516001600160a01b0385811660248301528481166044830152606480830185905283518084039091018152608490920183526020820180516001600160e01b03166323b872dd60e01b17905291516000928392908816916105559190610954565b6000604051808303816000865af19150503d8060008114610592576040519150601f19603f3d011682016040523d82523d6000602084013e610597565b606091505b5091509150856001600160a01b03163b600014806105b3575081155b806105da57508051158015906105da5750808060200190518101906105d89190610970565b155b156106075785828260405163e7e40b5b60e01b81526004016105fe93929190610992565b60405180910390fd5b505050505050565b604080516001600160a01b038481166024830152604480830185905283518084039091018152606490920183526020820180516001600160e01b031663095ea7b360e01b179052915160009283929087169161066b9190610954565b6000604051808303816000865af19150503d80600081146106a8576040519150601f19603f3d011682016040523d82523d6000602084013e6106ad565b606091505b5091509150846001600160a01b03163b600014806106c9575081155b806106f057508051158015906106f05750808060200190518101906106ee9190610970565b155b156107145784828260405163e7e40b5b60e01b81526004016105fe93929190610992565b5050505050565b604080516001600160a01b0383811660248084019190915283518084039091018152604490920183526020820180516001600160e01b03166370a0823160e01b179052915160009283928392918716916107759190610954565b600060405180830381855afa9150503d80600081146107b0576040519150601f19603f3d011682016040523d82523d6000602084013e6107b5565b606091505b5091509150846001600160a01b03163b600014806107d1575081155b806107dd575060208151105b156108015784828260405163e7e40b5b60e01b81526004016105fe93929190610992565b8080602001905181019061081591906108d5565b95945050505050565b6001600160a01b038116811461083357600080fd5b50565b6000806040838503121561084957600080fd5b82359150602083013561085b8161081e565b809150509250929050565b60005b83811015610881578181015183820152602001610869565b83811115610890576000848401525b50505050565b600081518084526108ae816020860160208601610866565b601f01601f19169290920160200192915050565b60208152600061029e6020830184610896565b6000602082840312156108e757600080fd5b5051919050565b6000806040838503121561090157600080fd5b505080516020909101519092909150565b60008282101561093257634e487b7160e01b600052601160045260246000fd5b500390565b60006020828403121561094957600080fd5b815161029e8161081e565b60008251610966818460208701610866565b9190910192915050565b60006020828403121561098257600080fd5b8151801515811461029e57600080fd5b6001600160a01b038416815282151560208201526060604082018190526000906108159083018461089656fea2646970667358221220bc11993071e0b18e7026c802415def8b6abb1aa262160fff2f883c0b4050fe8164736f6c634300080d0033",
  "devdoc": {
    "author": "Alchemix Finance",
    "errors": {
      "ERC20CallFailed(address,bool,bytes)": [
        {
          "params": {
            "data": "The resulting data from the call. This is error data when the call was not a success. Otherwise,                this is malformed data when the call was a success.",
            "success": "If the call to the token was a success.",
            "target": "The target address."
          }
        }
      ]
    },
    "kind": "dev",
    "methods": {
      "price()": {
        "returns": {
          "_0": "The price."
        }
      },
      "unwrap(uint256,address)": {
        "params": {
          "amount": "The amount of yield-tokens to redeem.",
          "recipient": "The recipient of the resulting underlying-tokens."
        },
        "returns": {
          "_0": "The amount of underlying tokens unwrapped to `recipient`."
        }
      },
      "wrap(uint256,address)": {
        "params": {
          "amount": "The amount of the underlying token to wrap.",
          "recipient": "The address which will receive the yield tokens."
        },
        "returns": {
          "_0": "The amount of yield tokens minted to `recipient`."
        }
      }
    },
    "stateVariables": {
      "token": {
        "return": "The address of the yield token.",
        "returns": {
          "_0": "The address of the yield token."
        }
      },
      "underlyingToken": {
        "return": "The address of the underlying token.",
        "returns": {
          "_0": "The address of the underlying token."
        }
      },
      "version": {
        "return": "The version.",
        "returns": {
          "_0": "The version."
        }
      }
    },
    "title": "YearnTokenAdapter for Optimism",
    "version": 1
  },
  "userdoc": {
    "errors": {
      "ERC20CallFailed(address,bool,bytes)": [
        {
          "notice": "An error used to indicate that a call to an ERC20 contract failed."
        }
      ],
      "IllegalState()": [
        {
          "notice": "An error used to indicate that an action could not be completed because the contract either already existed         or entered an illegal condition which is not recoverable from."
        }
      ]
    },
    "kind": "user",
    "methods": {
      "price()": {
        "notice": "Gets the number of underlying tokens that a single whole yield token is redeemable         for."
      },
      "token()": {
        "notice": "Gets the address of the yield token that this adapter supports."
      },
      "underlyingToken()": {
        "notice": "Gets the address of the underlying token that the yield token wraps."
      },
      "unwrap(uint256,address)": {
        "notice": "Unwraps `amount` yield tokens into the underlying token."
      },
      "version()": {
        "notice": "Gets the current version."
      },
      "wrap(uint256,address)": {
        "notice": "Wraps `amount` underlying tokens into the yield token."
      }
    },
    "version": 1
  },
  "storageLayout": {
    "storage": [],
    "types": null
  }
}