{
  "address": "0xE62DDa84e579e6A37296bCFC74c97349D2C59ce3",
  "abi": [
    {
      "inputs": [
        {
          "internalType": "address",
          "name": "stakingRewards",
          "type": "address"
        },
        {
          "internalType": "address",
          "name": "yToken",
          "type": "address"
        },
        {
          "internalType": "address",
          "name": "underlyingToken",
          "type": "address"
        },
        {
          "internalType": "address",
          "name": "rewardToken",
          "type": "address"
        },
        {
          "internalType": "address",
          "name": "rewardVault",
          "type": "address"
        },
        {
          "internalType": "address",
          "name": "rewardCollectorAddress",
          "type": "address"
        },
        {
          "internalType": "string",
          "name": "wrappedTokenName",
          "type": "string"
        },
        {
          "internalType": "string",
          "name": "wrappedTokenSymbol",
          "type": "string"
        }
      ],
      "stateMutability": "nonpayable",
      "type": "constructor"
    },
    {
      "inputs": [
        {
          "internalType": "address",
          "name": "target",
          "type": "address"
        },
        {
          "internalType": "bool",
          "name": "success",
          "type": "bool"
        },
        {
          "internalType": "bytes",
          "name": "data",
          "type": "bytes"
        }
      ],
      "name": "ERC20CallFailed",
      "type": "error"
    },
    {
      "inputs": [],
      "name": "Unauthorized",
      "type": "error"
    },
    {
      "anonymous": false,
      "inputs": [
        {
          "indexed": true,
          "internalType": "address",
          "name": "owner",
          "type": "address"
        },
        {
          "indexed": true,
          "internalType": "address",
          "name": "spender",
          "type": "address"
        },
        {
          "indexed": false,
          "internalType": "uint256",
          "name": "value",
          "type": "uint256"
        }
      ],
      "name": "Approval",
      "type": "event"
    },
    {
      "anonymous": false,
      "inputs": [
        {
          "indexed": true,
          "internalType": "address",
          "name": "from",
          "type": "address"
        },
        {
          "indexed": true,
          "internalType": "address",
          "name": "to",
          "type": "address"
        },
        {
          "indexed": false,
          "internalType": "uint256",
          "name": "value",
          "type": "uint256"
        }
      ],
      "name": "Transfer",
      "type": "event"
    },
    {
      "inputs": [],
      "name": "ASSET",
      "outputs": [
        {
          "internalType": "contract IERC20",
          "name": "",
          "type": "address"
        }
      ],
      "stateMutability": "view",
      "type": "function"
    },
    {
      "inputs": [],
      "name": "REWARD_TOKEN",
      "outputs": [
        {
          "internalType": "contract IERC20",
          "name": "",
          "type": "address"
        }
      ],
      "stateMutability": "view",
      "type": "function"
    },
    {
      "inputs": [],
      "name": "REWARD_VAULT",
      "outputs": [
        {
          "internalType": "contract IERC20",
          "name": "",
          "type": "address"
        }
      ],
      "stateMutability": "view",
      "type": "function"
    },
    {
      "inputs": [],
      "name": "STAKING_REWARDS",
      "outputs": [
        {
          "internalType": "contract IStakingRewards",
          "name": "",
          "type": "address"
        }
      ],
      "stateMutability": "view",
      "type": "function"
    },
    {
      "inputs": [],
      "name": "YEARN_VAULT",
      "outputs": [
        {
          "internalType": "contract IYearnVaultV2",
          "name": "",
          "type": "address"
        }
      ],
      "stateMutability": "view",
      "type": "function"
    },
    {
      "inputs": [],
      "name": "_decimals",
      "outputs": [
        {
          "internalType": "uint8",
          "name": "",
          "type": "uint8"
        }
      ],
      "stateMutability": "view",
      "type": "function"
    },
    {
      "inputs": [],
      "name": "acceptAdmin",
      "outputs": [],
      "stateMutability": "nonpayable",
      "type": "function"
    },
    {
      "inputs": [],
      "name": "admin",
      "outputs": [
        {
          "internalType": "address",
          "name": "",
          "type": "address"
        }
      ],
      "stateMutability": "view",
      "type": "function"
    },
    {
      "inputs": [
        {
          "internalType": "address",
          "name": "owner",
          "type": "address"
        },
        {
          "internalType": "address",
          "name": "spender",
          "type": "address"
        }
      ],
      "name": "allowance",
      "outputs": [
        {
          "internalType": "uint256",
          "name": "",
          "type": "uint256"
        }
      ],
      "stateMutability": "view",
      "type": "function"
    },
    {
      "inputs": [
        {
          "internalType": "address",
          "name": "spender",
          "type": "address"
        },
        {
          "internalType": "uint256",
          "name": "amount",
          "type": "uint256"
        }
      ],
      "name": "approve",
      "outputs": [
        {
          "internalType": "bool",
          "name": "",
          "type": "bool"
        }
      ],
      "stateMutability": "nonpayable",
      "type": "function"
    },
    {
      "inputs": [
        {
          "internalType": "address",
          "name": "account",
          "type": "address"
        }
      ],
      "name": "balanceOf",
      "outputs": [
        {
          "internalType": "uint256",
          "name": "",
          "type": "uint256"
        }
      ],
      "stateMutability": "view",
      "type": "function"
    },
    {
      "inputs": [],
      "name": "claimRewards",
      "outputs": [
        {
          "internalType": "uint256",
          "name": "",
          "type": "uint256"
        }
      ],
      "stateMutability": "nonpayable",
      "type": "function"
    },
    {
      "inputs": [],
      "name": "decimals",
      "outputs": [
        {
          "internalType": "uint8",
          "name": "",
          "type": "uint8"
        }
      ],
      "stateMutability": "view",
      "type": "function"
    },
    {
      "inputs": [
        {
          "internalType": "address",
          "name": "spender",
          "type": "address"
        },
        {
          "internalType": "uint256",
          "name": "subtractedValue",
          "type": "uint256"
        }
      ],
      "name": "decreaseAllowance",
      "outputs": [
        {
          "internalType": "bool",
          "name": "",
          "type": "bool"
        }
      ],
      "stateMutability": "nonpayable",
      "type": "function"
    },
    {
      "inputs": [
        {
          "internalType": "address",
          "name": "recipient",
          "type": "address"
        },
        {
          "internalType": "uint256",
          "name": "amount",
          "type": "uint256"
        },
        {
          "internalType": "bool",
          "name": "fromUnderlying",
          "type": "bool"
        }
      ],
      "name": "deposit",
      "outputs": [
        {
          "internalType": "uint256",
          "name": "",
          "type": "uint256"
        }
      ],
      "stateMutability": "nonpayable",
      "type": "function"
    },
    {
      "inputs": [
        {
          "internalType": "address",
          "name": "spender",
          "type": "address"
        },
        {
          "internalType": "uint256",
          "name": "addedValue",
          "type": "uint256"
        }
      ],
      "name": "increaseAllowance",
      "outputs": [
        {
          "internalType": "bool",
          "name": "",
          "type": "bool"
        }
      ],
      "stateMutability": "nonpayable",
      "type": "function"
    },
    {
      "inputs": [],
      "name": "name",
      "outputs": [
        {
          "internalType": "string",
          "name": "",
          "type": "string"
        }
      ],
      "stateMutability": "view",
      "type": "function"
    },
    {
      "inputs": [],
      "name": "pendingAdmin",
      "outputs": [
        {
          "internalType": "address",
          "name": "",
          "type": "address"
        }
      ],
      "stateMutability": "view",
      "type": "function"
    },
    {
      "inputs": [],
      "name": "rewardCollector",
      "outputs": [
        {
          "internalType": "address",
          "name": "",
          "type": "address"
        }
      ],
      "stateMutability": "view",
      "type": "function"
    },
    {
      "inputs": [
        {
          "internalType": "address",
          "name": "newAdmin",
          "type": "address"
        }
      ],
      "name": "setPendingAdmin",
      "outputs": [],
      "stateMutability": "nonpayable",
      "type": "function"
    },
    {
      "inputs": [
        {
          "internalType": "address",
          "name": "_rewardCollector",
          "type": "address"
        }
      ],
      "name": "setRewardCollector",
      "outputs": [],
      "stateMutability": "nonpayable",
      "type": "function"
    },
    {
      "inputs": [],
      "name": "symbol",
      "outputs": [
        {
          "internalType": "string",
          "name": "",
          "type": "string"
        }
      ],
      "stateMutability": "view",
      "type": "function"
    },
    {
      "inputs": [],
      "name": "totalSupply",
      "outputs": [
        {
          "internalType": "uint256",
          "name": "",
          "type": "uint256"
        }
      ],
      "stateMutability": "view",
      "type": "function"
    },
    {
      "inputs": [
        {
          "internalType": "address",
          "name": "to",
          "type": "address"
        },
        {
          "internalType": "uint256",
          "name": "amount",
          "type": "uint256"
        }
      ],
      "name": "transfer",
      "outputs": [
        {
          "internalType": "bool",
          "name": "",
          "type": "bool"
        }
      ],
      "stateMutability": "nonpayable",
      "type": "function"
    },
    {
      "inputs": [
        {
          "internalType": "address",
          "name": "from",
          "type": "address"
        },
        {
          "internalType": "address",
          "name": "to",
          "type": "address"
        },
        {
          "internalType": "uint256",
          "name": "amount",
          "type": "uint256"
        }
      ],
      "name": "transferFrom",
      "outputs": [
        {
          "internalType": "bool",
          "name": "",
          "type": "bool"
        }
      ],
      "stateMutability": "nonpayable",
      "type": "function"
    },
    {
      "inputs": [
        {
          "internalType": "address",
          "name": "recipient",
          "type": "address"
        },
        {
          "internalType": "uint256",
          "name": "amount",
          "type": "uint256"
        },
        {
          "internalType": "uint256",
          "name": "maxSlippage",
          "type": "uint256"
        },
        {
          "internalType": "bool",
          "name": "toUnderlying",
          "type": "bool"
        }
      ],
      "name": "withdraw",
      "outputs": [
        {
          "internalType": "uint256",
          "name": "",
          "type": "uint256"
        },
        {
          "internalType": "uint256",
          "name": "",
          "type": "uint256"
        }
      ],
      "stateMutability": "nonpayable",
      "type": "function"
    }
  ],
  "transactionHash": "0x6f4ca5804c0e485dea041dbff090bc8bf44f3cf808e240001aa56e5192de8176",
  "args": [
    "0xE35Fec3895Dcecc7d2a91e8ae4fF3c0d43ebfFE0",
    "0x5B977577Eb8a480f63e11FC615D6753adB8652Ae",
    "0x4200000000000000000000000000000000000006",
    "0x4200000000000000000000000000000000000042",
    "0x7D2382b1f8Af621229d33464340541Db362B4907",
    "0xe130d51E6d7caB05fa743963f9c57d116F3753d3",
    "yearnStakingWeth",
    "ysWETH"
  ],
  "solcInputHash": "66056e29f02c73c64b8276578e8e5132",
  "bytecode": "0x6101406040523480156200001257600080fd5b5060405162001f5338038062001f5383398101604081905262000035916200041e565b8151829082906200004e90600390602085019062000281565b5080516200006490600490602084019062000281565b505060058054336001600160a01b0319918216179091556001600160a01b038a811660805289811660a05288811660c0528681166101005287811660e0526007805490921690861617905550620000cb868860001962000160602090811b6200076d17901c565b620000e587896000196200016060201b6200076d1760201c565b866001600160a01b031663313ce5676040518163ffffffff1660e01b8152600401602060405180830381865afa15801562000124573d6000803e3d6000fd5b505050506040513d601f19601f820116820180604052508101906200014a9190620004f9565b60ff166101205250620005f09650505050505050565b604080516001600160a01b038481166024830152604480830185905283518084039091018152606490920183526020820180516001600160e01b031663095ea7b360e01b1790529151600092839290871691620001be919062000525565b6000604051808303816000865af19150503d8060008114620001fd576040519150601f19603f3d011682016040523d82523d6000602084013e62000202565b606091505b5091509150846001600160a01b03163b600014806200021f575081155b806200024a57508051158015906200024a57508080602001905181019062000248919062000543565b155b156200027a5784828260405163e7e40b5b60e01b8152600401620002719392919062000567565b60405180910390fd5b5050505050565b8280546200028f90620005b4565b90600052602060002090601f016020900481019282620002b35760008555620002fe565b82601f10620002ce57805160ff1916838001178555620002fe565b82800160010185558215620002fe579182015b82811115620002fe578251825591602001919060010190620002e1565b506200030c92915062000310565b5090565b5b808211156200030c576000815560010162000311565b80516001600160a01b03811681146200033f57600080fd5b919050565b634e487b7160e01b600052604160045260246000fd5b60005b83811015620003775781810151838201526020016200035d565b8381111562000387576000848401525b50505050565b600082601f8301126200039f57600080fd5b81516001600160401b0380821115620003bc57620003bc62000344565b604051601f8301601f19908116603f01168101908282118183101715620003e757620003e762000344565b816040528381528660208588010111156200040157600080fd5b620004148460208301602089016200035a565b9695505050505050565b600080600080600080600080610100898b0312156200043c57600080fd5b620004478962000327565b97506200045760208a0162000327565b96506200046760408a0162000327565b95506200047760608a0162000327565b94506200048760808a0162000327565b93506200049760a08a0162000327565b60c08a01519093506001600160401b0380821115620004b557600080fd5b620004c38c838d016200038d565b935060e08b0151915080821115620004da57600080fd5b50620004e98b828c016200038d565b9150509295985092959890939650565b6000602082840312156200050c57600080fd5b815160ff811681146200051e57600080fd5b9392505050565b60008251620005398184602087016200035a565b9190910192915050565b6000602082840312156200055657600080fd5b815180151581146200051e57600080fd5b60018060a01b0384168152821515602082015260606040820152600082518060608401526200059e8160808501602087016200035a565b601f01601f191691909101608001949350505050565b600181811c90821680620005c957607f821691505b602082108103620005ea57634e487b7160e01b600052602260045260246000fd5b50919050565b60805160a05160c05160e05161010051610120516118bf62000694600039600081816102cd01526103040152600081816102a901528181610e060152610e9e0152600081816103c40152610f120152600081816103590152610f9f01526000818161023401528181610aa401528181610b2701528181610fe3015261106e0152600081816101b601528181610a0b01528181610d7e01526110ac01526118bf6000f3fe608060405234801561001057600080fd5b506004361061018e5760003560e01c806339509351116100de57806399248ea711610097578063afffd5b711610071578063afffd5b71461040c578063dd62ed3e1461041f578063f36c442d14610432578063f851a4401461044557600080fd5b806399248ea7146103bf578063a457c2d7146103e6578063a9059cbb146103f957600080fd5b8063395093511461032e5780633edd1128146103415780634800d97f146103545780634dd18bf51461037b57806370a082311461038e57806395d89b41146103b757600080fd5b8063234b67451161014b57806327f9387f1161012557806327f9387f146102a4578063313ce567146102cb57806332424aa3146102ff578063372500ab1461032657600080fd5b8063234b67451461025657806323b872dd1461027e578063267822471461029157600080fd5b806306fdde031461019357806307bce0cd146101b1578063095ea7b3146101f05780630e18b6811461021357806318160ddd1461021d57806321115d6d1461022f575b600080fd5b61019b610458565b6040516101a89190611628565b60405180910390f35b6101d87f000000000000000000000000000000000000000000000000000000000000000081565b6040516001600160a01b0390911681526020016101a8565b6102036101fe36600461165e565b6104ea565b60405190151581526020016101a8565b61021b610502565b005b6002545b6040519081526020016101a8565b6101d87f000000000000000000000000000000000000000000000000000000000000000081565b610269610264366004611699565b61057d565b604080519283526020830191909152016101a8565b61020361028c3660046116e1565b61059a565b6006546101d8906001600160a01b031681565b6101d87f000000000000000000000000000000000000000000000000000000000000000081565b7f00000000000000000000000000000000000000000000000000000000000000005b60405160ff90911681526020016101a8565b6102ed7f000000000000000000000000000000000000000000000000000000000000000081565b6102216105be565b61020361033c36600461165e565b61061e565b61022161034f36600461171d565b610640565b6101d87f000000000000000000000000000000000000000000000000000000000000000081565b61021b61038936600461175d565b610656565b61022161039c36600461175d565b6001600160a01b031660009081526020819052604090205490565b61019b610680565b6101d87f000000000000000000000000000000000000000000000000000000000000000081565b6102036103f436600461165e565b61068f565b61020361040736600461165e565b61070a565b6007546101d8906001600160a01b031681565b61022161042d366004611778565b610718565b61021b61044036600461175d565b610743565b6005546101d8906001600160a01b031681565b606060038054610467906117ab565b80601f0160208091040260200160405190810160405280929190818152602001828054610493906117ab565b80156104e05780601f106104b5576101008083540402835291602001916104e0565b820191906000526020600020905b8154815290600101906020018083116104c357829003601f168201915b5050505050905090565b6000336104f8818585610879565b5060019392505050565b6006546001600160a01b031633146105595760405162461bcd60e51b815260206004820152601560248201527436bab9ba103132903832b73234b7339030b236b4b760591b60448201526064015b60405180910390fd5b600654600580546001600160a01b0319166001600160a01b03909216919091179055565b60008061058d338787878761099e565b9150915094509492505050565b6000336105a8858285610b5c565b6105b3858585610bd6565b506001949350505050565b6007546000906001600160a01b031633146106115760405162461bcd60e51b81526020600482015260136024820152722737ba103932bbb0b93221b7b63632b1ba37b960691b6044820152606401610550565b610619610d7a565b905090565b6000336104f88185856106318383610718565b61063b91906117e5565b610879565b600061064e33858585610f3e565b949350505050565b61065e611123565b600680546001600160a01b0319166001600160a01b0392909216919091179055565b606060048054610467906117ab565b6000338161069d8286610718565b9050838110156106fd5760405162461bcd60e51b815260206004820152602560248201527f45524332303a2064656372656173656420616c6c6f77616e63652062656c6f77604482015264207a65726f60d81b6064820152608401610550565b6105b38286868403610879565b6000336104f8818585610bd6565b6001600160a01b03918216600090815260016020908152604080832093909416825291909152205490565b61074b611123565b600780546001600160a01b0319166001600160a01b0392909216919091179055565b604080516001600160a01b038481166024830152604480830185905283518084039091018152606490920183526020820180516001600160e01b031663095ea7b360e01b17905291516000928392908716916107c9919061180b565b6000604051808303816000865af19150503d8060008114610806576040519150601f19603f3d011682016040523d82523d6000602084013e61080b565b606091505b5091509150846001600160a01b03163b60001480610827575081155b8061084e575080511580159061084e57508080602001905181019061084c9190611827565b155b156108725784828260405163e7e40b5b60e01b815260040161055093929190611844565b5050505050565b6001600160a01b0383166108db5760405162461bcd60e51b8152602060048201526024808201527f45524332303a20617070726f76652066726f6d20746865207a65726f206164646044820152637265737360e01b6064820152608401610550565b6001600160a01b03821661093c5760405162461bcd60e51b815260206004820152602260248201527f45524332303a20617070726f766520746f20746865207a65726f206164647265604482015261737360f01b6064820152608401610550565b6001600160a01b0383811660008181526001602090815260408083209487168084529482529182902085905590518481527f8c5be1e5ebec7d5bd14f71427d1e84f3dd0314c0f7b2291e5b200ac8c7c3b92591015b60405180910390a3505050565b6000806001600160a01b0386166109eb5760405162461bcd60e51b81526020600482015260116024820152701253959053125117d49150d25412515395607a1b6044820152606401610550565b6109f5878661114f565b604051632e1a7d4d60e01b8152600481018690527f00000000000000000000000000000000000000000000000000000000000000006001600160a01b031690632e1a7d4d90602401600060405180830381600087803b158015610a5757600080fd5b505af1158015610a6b573d6000803e3d6000fd5b5050505060008315610b1857604051631cc6d2f960e31b8152600481018790526001600160a01b038881166024830152604482018790527f0000000000000000000000000000000000000000000000000000000000000000169063e63697c8906064016020604051808303816000875af1158015610aed573d6000803e3d6000fd5b505050506040513d601f19601f82011682018060405250810190610b119190611870565b9050610b4e565b5084610b4e6001600160a01b037f000000000000000000000000000000000000000000000000000000000000000016888361127e565b949794965093945050505050565b6000610b688484610718565b90506000198114610bd05781811015610bc35760405162461bcd60e51b815260206004820152601d60248201527f45524332303a20696e73756666696369656e7420616c6c6f77616e63650000006044820152606401610550565b610bd08484848403610879565b50505050565b6001600160a01b038316610c3a5760405162461bcd60e51b815260206004820152602560248201527f45524332303a207472616e736665722066726f6d20746865207a65726f206164604482015264647265737360d81b6064820152608401610550565b6001600160a01b038216610c9c5760405162461bcd60e51b815260206004820152602360248201527f45524332303a207472616e7366657220746f20746865207a65726f206164647260448201526265737360e81b6064820152608401610550565b6001600160a01b03831660009081526020819052604090205481811015610d145760405162461bcd60e51b815260206004820152602660248201527f45524332303a207472616e7366657220616d6f756e7420657863656564732062604482015265616c616e636560d01b6064820152608401610550565b6001600160a01b03848116600081815260208181526040808320878703905593871680835291849020805487019055925185815290927fddf252ad1be2c89b69c2b068fc378daa952ba7f163c4a11628f55a4df523b3ef910160405180910390a3610bd0565b60007f00000000000000000000000000000000000000000000000000000000000000006001600160a01b0316633d18b9126040518163ffffffff1660e01b8152600401600060405180830381600087803b158015610dd757600080fd5b505af1158015610deb573d6000803e3d6000fd5b50506040516370a0823160e01b8152306004820152600092507f00000000000000000000000000000000000000000000000000000000000000006001600160a01b031691506370a0823190602401602060405180830381865afa158015610e56573d6000803e3d6000fd5b505050506040513d601f19601f82011682018060405250810190610e7a9190611870565b604051632e1a7d4d60e01b8152600481018290529091506000906001600160a01b037f00000000000000000000000000000000000000000000000000000000000000001690632e1a7d4d906024016020604051808303816000875af1158015610ee7573d6000803e3d6000fd5b505050506040513d601f19601f82011682018060405250810190610f0b9190611870565b9050610f387f0000000000000000000000000000000000000000000000000000000000000000338361127e565b92915050565b60006001600160a01b038416610f8a5760405162461bcd60e51b81526020600482015260116024820152701253959053125117d49150d25412515395607a1b6044820152606401610550565b6000821561105f57610fc76001600160a01b037f0000000000000000000000000000000000000000000000000000000000000000168730876112e1565b604051636e553f6560e01b8152600481018590523060248201527f00000000000000000000000000000000000000000000000000000000000000006001600160a01b031690636e553f65906044016020604051808303816000875af1158015611034573d6000803e3d6000fd5b505050506040513d601f19601f820116820180604052508101906110589190611870565b9050611096565b50826110966001600160a01b037f0000000000000000000000000000000000000000000000000000000000000000168730846112e1565b60405163534a7e1d60e11b8152600481018290527f00000000000000000000000000000000000000000000000000000000000000006001600160a01b03169063a694fc3a90602401600060405180830381600087803b1580156110f857600080fd5b505af115801561110c573d6000803e3d6000fd5b5050505061111a8582611319565b95945050505050565b6005546001600160a01b0316331461114d576040516282b42960e81b815260040160405180910390fd5b565b6001600160a01b0382166111af5760405162461bcd60e51b815260206004820152602160248201527f45524332303a206275726e2066726f6d20746865207a65726f206164647265736044820152607360f81b6064820152608401610550565b6001600160a01b038216600090815260208190526040902054818110156112235760405162461bcd60e51b815260206004820152602260248201527f45524332303a206275726e20616d6f756e7420657863656564732062616c616e604482015261636560f01b6064820152608401610550565b6001600160a01b0383166000818152602081815260408083208686039055600280548790039055518581529192917fddf252ad1be2c89b69c2b068fc378daa952ba7f163c4a11628f55a4df523b3ef9101610991565b505050565b6040516001600160a01b03831660248201526044810182905261127990849063a9059cbb60e01b906064015b60408051601f198184030181529190526020810180516001600160e01b03166001600160e01b0319909316929092179091526113d8565b6040516001600160a01b0380851660248301528316604482015260648101829052610bd09085906323b872dd60e01b906084016112aa565b6001600160a01b03821661136f5760405162461bcd60e51b815260206004820152601f60248201527f45524332303a206d696e7420746f20746865207a65726f2061646472657373006044820152606401610550565b806002600082825461138191906117e5565b90915550506001600160a01b038216600081815260208181526040808320805486019055518481527fddf252ad1be2c89b69c2b068fc378daa952ba7f163c4a11628f55a4df523b3ef910160405180910390a35050565b600061142d826040518060400160405280602081526020017f5361666545524332303a206c6f772d6c6576656c2063616c6c206661696c6564815250856001600160a01b03166114ad9092919063ffffffff16565b905080516000148061144e57508080602001905181019061144e9190611827565b6112795760405162461bcd60e51b815260206004820152602a60248201527f5361666545524332303a204552433230206f7065726174696f6e20646964206e6044820152691bdd081cdd58d8d9595960b21b6064820152608401610550565b606061064e848460008585600080866001600160a01b031685876040516114d4919061180b565b60006040518083038185875af1925050503d8060008114611511576040519150601f19603f3d011682016040523d82523d6000602084013e611516565b606091505b509150915061152787838387611532565b979650505050505050565b606083156115a157825160000361159a576001600160a01b0385163b61159a5760405162461bcd60e51b815260206004820152601d60248201527f416464726573733a2063616c6c20746f206e6f6e2d636f6e74726163740000006044820152606401610550565b508161064e565b61064e83838151156115b65781518083602001fd5b8060405162461bcd60e51b81526004016105509190611628565b60005b838110156115eb5781810151838201526020016115d3565b83811115610bd05750506000910152565b600081518084526116148160208601602086016115d0565b601f01601f19169290920160200192915050565b60208152600061163b60208301846115fc565b9392505050565b80356001600160a01b038116811461165957600080fd5b919050565b6000806040838503121561167157600080fd5b61167a83611642565b946020939093013593505050565b801515811461169657600080fd5b50565b600080600080608085870312156116af57600080fd5b6116b885611642565b9350602085013592506040850135915060608501356116d681611688565b939692955090935050565b6000806000606084860312156116f657600080fd5b6116ff84611642565b925061170d60208501611642565b9150604084013590509250925092565b60008060006060848603121561173257600080fd5b61173b84611642565b925060208401359150604084013561175281611688565b809150509250925092565b60006020828403121561176f57600080fd5b61163b82611642565b6000806040838503121561178b57600080fd5b61179483611642565b91506117a260208401611642565b90509250929050565b600181811c908216806117bf57607f821691505b6020821081036117df57634e487b7160e01b600052602260045260246000fd5b50919050565b6000821982111561180657634e487b7160e01b600052601160045260246000fd5b500190565b6000825161181d8184602087016115d0565b9190910192915050565b60006020828403121561183957600080fd5b815161163b81611688565b6001600160a01b0384168152821515602082015260606040820181905260009061111a908301846115fc565b60006020828403121561188257600080fd5b505191905056fea2646970667358221220d79693ad83473d49141166c82b3b865d2addc60275df179a0b48b4501d4bdb0c64736f6c634300080d0033",
  "devdoc": {
    "author": "Alchemix Finance",
    "details": "Wrapper token that allows staking on yearn to receive OP rewards. Intended for optimism network.",
    "errors": {
      "ERC20CallFailed(address,bool,bytes)": [
        {
          "params": {
            "data": "The resulting data from the call. This is error data when the call was not a success. Otherwise,                this is malformed data when the call was a success.",
            "success": "If the call to the token was a success.",
            "target": "The target address."
          }
        }
      ]
    },
    "kind": "dev",
    "methods": {
      "allowance(address,address)": {
        "details": "See {IERC20-allowance}."
      },
      "approve(address,uint256)": {
        "details": "See {IERC20-approve}. NOTE: If `amount` is the maximum `uint256`, the allowance is not updated on `transferFrom`. This is semantically equivalent to an infinite approval. Requirements: - `spender` cannot be the zero address."
      },
      "balanceOf(address)": {
        "details": "See {IERC20-balanceOf}."
      },
      "claimRewards()": {
        "details": "Burns `amount` of wrapper token, with recipient receiving the corresponding amount of `ASSET`",
        "returns": {
          "_0": "claimed  Amount of rewards claimed"
        }
      },
      "decimals()": {
        "details": "Returns the number of decimals used to get its user representation. For example, if `decimals` equals `2`, a balance of `505` tokens should be displayed to a user as `5.05` (`505 / 10 ** 2`). Tokens usually opt for a value of 18, imitating the relationship between Ether and Wei. This is the default value returned by this function, unless it's overridden. NOTE: This information is only used for _display_ purposes: it in no way affects any of the arithmetic of the contract, including {IERC20-balanceOf} and {IERC20-transfer}."
      },
      "decreaseAllowance(address,uint256)": {
        "details": "Atomically decreases the allowance granted to `spender` by the caller. This is an alternative to {approve} that can be used as a mitigation for problems described in {IERC20-approve}. Emits an {Approval} event indicating the updated allowance. Requirements: - `spender` cannot be the zero address. - `spender` must have allowance for the caller of at least `subtractedValue`."
      },
      "deposit(address,uint256,bool)": {
        "details": "Deposits `ASSET` in the Yearn protocol and mints wrapper tokens to msg.sender",
        "params": {
          "amount": "The amount of underlying `ASSET` to deposit (e.g. deposit of 100 USDC)",
          "fromUnderlying": "If the user is ",
          "recipient": "The address that will receive the wrapper tokens"
        },
        "returns": {
          "_0": "uint256   The amount of wrapper tokens minted"
        }
      },
      "increaseAllowance(address,uint256)": {
        "details": "Atomically increases the allowance granted to `spender` by the caller. This is an alternative to {approve} that can be used as a mitigation for problems described in {IERC20-approve}. Emits an {Approval} event indicating the updated allowance. Requirements: - `spender` cannot be the zero address."
      },
      "name()": {
        "details": "Returns the name of the token."
      },
      "symbol()": {
        "details": "Returns the symbol of the token, usually a shorter version of the name."
      },
      "totalSupply()": {
        "details": "See {IERC20-totalSupply}."
      },
      "transfer(address,uint256)": {
        "details": "See {IERC20-transfer}. Requirements: - `to` cannot be the zero address. - the caller must have a balance of at least `amount`."
      },
      "transferFrom(address,address,uint256)": {
        "details": "See {IERC20-transferFrom}. Emits an {Approval} event indicating the updated allowance. This is not required by the EIP. See the note at the beginning of {ERC20}. NOTE: Does not update the allowance if the current allowance is the maximum `uint256`. Requirements: - `from` and `to` cannot be the zero address. - `from` must have a balance of at least `amount`. - the caller must have allowance for ``from``'s tokens of at least `amount`."
      },
      "withdraw(address,uint256,uint256,bool)": {
        "details": "Burns `amount` of wrapper Token, with recipient receiving the corresponding amount of `ASSET`",
        "params": {
          "amount": "The amount to withdraw in shares",
          "recipient": "The address that will receive the amount of `ASSET` withdrawn from the Yearn protocol"
        },
        "returns": {
          "_0": "amountToBurn      Wrapper tokens burned",
          "_1": "amountToWithdraw  underlying tokens withdrawn"
        }
      }
    },
    "title": "YearnStakingToken",
    "version": 1
  },
  "userdoc": {
    "errors": {
      "ERC20CallFailed(address,bool,bytes)": [
        {
          "notice": "An error used to indicate that a call to an ERC20 contract failed."
        }
      ],
      "Unauthorized()": [
        {
          "notice": "An error used to indicate that an action could not be completed because either the `msg.sender` or         `msg.origin` is not authorized."
        }
      ]
    },
    "kind": "user",
    "methods": {},
    "version": 1
  },
  "storageLayout": {
    "storage": [
      {
        "astId": 35050,
        "contract": "submodules/v2-foundry/src/external/yearn/YearnStakingToken.sol:YearnStakingToken",
        "label": "_balances",
        "offset": 0,
        "slot": "0",
        "type": "t_mapping(t_address,t_uint256)"
      },
      {
        "astId": 35056,
        "contract": "submodules/v2-foundry/src/external/yearn/YearnStakingToken.sol:YearnStakingToken",
        "label": "_allowances",
        "offset": 0,
        "slot": "1",
        "type": "t_mapping(t_address,t_mapping(t_address,t_uint256))"
      },
      {
        "astId": 35058,
        "contract": "submodules/v2-foundry/src/external/yearn/YearnStakingToken.sol:YearnStakingToken",
        "label": "_totalSupply",
        "offset": 0,
        "slot": "2",
        "type": "t_uint256"
      },
      {
        "astId": 35060,
        "contract": "submodules/v2-foundry/src/external/yearn/YearnStakingToken.sol:YearnStakingToken",
        "label": "_name",
        "offset": 0,
        "slot": "3",
        "type": "t_string_storage"
      },
      {
        "astId": 35062,
        "contract": "submodules/v2-foundry/src/external/yearn/YearnStakingToken.sol:YearnStakingToken",
        "label": "_symbol",
        "offset": 0,
        "slot": "4",
        "type": "t_string_storage"
      },
      {
        "astId": 60958,
        "contract": "submodules/v2-foundry/src/external/yearn/YearnStakingToken.sol:YearnStakingToken",
        "label": "admin",
        "offset": 0,
        "slot": "5",
        "type": "t_address"
      },
      {
        "astId": 60960,
        "contract": "submodules/v2-foundry/src/external/yearn/YearnStakingToken.sol:YearnStakingToken",
        "label": "pendingAdmin",
        "offset": 0,
        "slot": "6",
        "type": "t_address"
      },
      {
        "astId": 60962,
        "contract": "submodules/v2-foundry/src/external/yearn/YearnStakingToken.sol:YearnStakingToken",
        "label": "rewardCollector",
        "offset": 0,
        "slot": "7",
        "type": "t_address"
      }
    ],
    "types": {
      "t_address": {
        "encoding": "inplace",
        "label": "address",
        "numberOfBytes": "20"
      },
      "t_mapping(t_address,t_mapping(t_address,t_uint256))": {
        "encoding": "mapping",
        "key": "t_address",
        "label": "mapping(address => mapping(address => uint256))",
        "numberOfBytes": "32",
        "value": "t_mapping(t_address,t_uint256)"
      },
      "t_mapping(t_address,t_uint256)": {
        "encoding": "mapping",
        "key": "t_address",
        "label": "mapping(address => uint256)",
        "numberOfBytes": "32",
        "value": "t_uint256"
      },
      "t_string_storage": {
        "encoding": "bytes",
        "label": "string",
        "numberOfBytes": "32"
      },
      "t_uint256": {
        "encoding": "inplace",
        "label": "uint256",
        "numberOfBytes": "32"
      }
    }
  }
}