{
  "address": "0xC02670867efac6D988F40878a5559a8D96002A56",
  "abi": [
    {
      "inputs": [
        {
          "internalType": "address",
          "name": "_whitelist",
          "type": "address"
        },
        {
          "internalType": "address",
          "name": "_alchemist",
          "type": "address"
        }
      ],
      "stateMutability": "nonpayable",
      "type": "constructor"
    },
    {
      "inputs": [
        {
          "internalType": "address",
          "name": "target",
          "type": "address"
        },
        {
          "internalType": "bool",
          "name": "success",
          "type": "bool"
        },
        {
          "internalType": "bytes",
          "name": "data",
          "type": "bytes"
        }
      ],
      "name": "ERC20CallFailed",
      "type": "error"
    },
    {
      "inputs": [
        {
          "internalType": "string",
          "name": "message",
          "type": "string"
        }
      ],
      "name": "IllegalState",
      "type": "error"
    },
    {
      "inputs": [
        {
          "internalType": "string",
          "name": "message",
          "type": "string"
        }
      ],
      "name": "Unauthorized",
      "type": "error"
    },
    {
      "anonymous": false,
      "inputs": [
        {
          "indexed": true,
          "internalType": "address",
          "name": "previousOwner",
          "type": "address"
        },
        {
          "indexed": true,
          "internalType": "address",
          "name": "newOwner",
          "type": "address"
        }
      ],
      "name": "OwnershipTransferred",
      "type": "event"
    },
    {
      "inputs": [],
      "name": "alchemist",
      "outputs": [
        {
          "internalType": "address",
          "name": "",
          "type": "address"
        }
      ],
      "stateMutability": "view",
      "type": "function"
    },
    {
      "inputs": [
        {
          "internalType": "address",
          "name": "yieldToken",
          "type": "address"
        },
        {
          "internalType": "uint256",
          "name": "amount",
          "type": "uint256"
        },
        {
          "internalType": "address",
          "name": "recipient",
          "type": "address"
        }
      ],
      "name": "deposit",
      "outputs": [
        {
          "internalType": "uint256",
          "name": "sharesIssued",
          "type": "uint256"
        }
      ],
      "stateMutability": "nonpayable",
      "type": "function"
    },
    {
      "inputs": [],
      "name": "owner",
      "outputs": [
        {
          "internalType": "address",
          "name": "",
          "type": "address"
        }
      ],
      "stateMutability": "view",
      "type": "function"
    },
    {
      "inputs": [],
      "name": "renounceOwnership",
      "outputs": [],
      "stateMutability": "nonpayable",
      "type": "function"
    },
    {
      "inputs": [
        {
          "internalType": "address",
          "name": "newOwner",
          "type": "address"
        }
      ],
      "name": "transferOwnership",
      "outputs": [],
      "stateMutability": "nonpayable",
      "type": "function"
    },
    {
      "inputs": [],
      "name": "version",
      "outputs": [
        {
          "internalType": "string",
          "name": "",
          "type": "string"
        }
      ],
      "stateMutability": "view",
      "type": "function"
    },
    {
      "inputs": [],
      "name": "whitelist",
      "outputs": [
        {
          "internalType": "address",
          "name": "",
          "type": "address"
        }
      ],
      "stateMutability": "view",
      "type": "function"
    },
    {
      "inputs": [
        {
          "internalType": "address",
          "name": "yieldToken",
          "type": "address"
        },
        {
          "internalType": "uint256",
          "name": "shares",
          "type": "uint256"
        },
        {
          "internalType": "address",
          "name": "recipient",
          "type": "address"
        }
      ],
      "name": "withdraw",
      "outputs": [
        {
          "internalType": "uint256",
          "name": "",
          "type": "uint256"
        }
      ],
      "stateMutability": "nonpayable",
      "type": "function"
    }
  ],
  "transactionHash": "0x4f1765241d738341e2050ce894149ea3da32788fa79d97d72dc52b2de54b62aa",
  "args": [
    "0xc3365984110dB9b84c7e3Fc1cffb370C6Df6380F",
    "0x10294d57A419C8eb78C648372c5bAA27fD1484af"
  ],
  "solcInputHash": "90fc9a97576f4a8ca91cf27c8252b287",
  "bytecode": "0x60c060405234801561001057600080fd5b50604051610c25380380610c2583398101604081905261002f916100bb565b6100383361004f565b6001600160a01b039182166080521660a0526100ee565b600080546001600160a01b038381166001600160a01b0319831681178455604051919092169283917f8be0079c531659141344cd1fd0a4f28419497f9722a3daafe3b4186f6b6457e09190a35050565b80516001600160a01b03811681146100b657600080fd5b919050565b600080604083850312156100ce57600080fd5b6100d78361009f565b91506100e56020840161009f565b90509250929050565b60805160a051610af661012f6000396000818161011c015281816101ca015281816104ae0152610501015260008181610143015261058c0152610af66000f3fe608060405234801561001057600080fd5b50600436106100885760003560e01c80638de925f61161005b5780638de925f61461011757806393e59dc11461013e578063f2fde38b14610165578063f45346dc1461017857600080fd5b806354fd4d501461008d57806369328dec146100c7578063715018a6146100e85780638da5cb5b146100f2575b600080fd5b6100b1604051806040016040528060058152602001640312e302e360dc1b81525081565b6040516100be9190610965565b60405180910390f35b6100da6100d5366004610994565b61018b565b6040519081526020016100be565b6100f0610317565b005b6000546001600160a01b03165b6040516001600160a01b0390911681526020016100be565b6100ff7f000000000000000000000000000000000000000000000000000000000000000081565b6100ff7f000000000000000000000000000000000000000000000000000000000000000081565b6100f06101733660046109d6565b61032b565b6100da610186366004610994565b6103a4565b600061019561056e565b60405163edca201b60e01b81523360048201526001600160a01b038581166024830152604482018590523060648301526000917f00000000000000000000000000000000000000000000000000000000000000009091169063edca201b906084016020604051808303816000875af1158015610215573d6000803e3d6000fd5b505050506040513d601f19601f8201168201806040525081019061023991906109f3565b60405163234b674560e01b81526001600160a01b038581166004830152602482018390526000604483018190526064830181905292935082919088169063234b67459060840160408051808303816000875af115801561029d573d6000803e3d6000fd5b505050506040513d601f19601f820116820180604052508101906102c19190610a0c565b9150915082821461030d5760405163c50656df60e01b815260206004820152601060248201526f1b9bdd08195b9bdd59da08189d5c9b9d60821b60448201526064015b60405180910390fd5b9695505050505050565b61031f61063e565b6103296000610698565b565b61033361063e565b6001600160a01b0381166103985760405162461bcd60e51b815260206004820152602660248201527f4f776e61626c653a206e6577206f776e657220697320746865207a65726f206160448201526564647265737360d01b6064820152608401610304565b6103a181610698565b50565b60006103ae61056e565b6000846001600160a01b03166321115d6d6040518163ffffffff1660e01b8152600401602060405180830381865afa1580156103ee573d6000803e3d6000fd5b505050506040513d601f19601f820116820180604052508101906104129190610a30565b9050610420813330876106e8565b61042b8186866107fd565b6040516307dba22560e31b815230600482015260248101859052600060448201819052906001600160a01b03871690633edd1128906064016020604051808303816000875af1158015610482573d6000803e3d6000fd5b505050506040513d601f19601f820116820180604052508101906104a691906109f3565b90506104d3867f0000000000000000000000000000000000000000000000000000000000000000836107fd565b604051633d14d1b760e21b81526001600160a01b0387811660048301526024820183905285811660448301527f0000000000000000000000000000000000000000000000000000000000000000169063f45346dc906064016020604051808303816000875af115801561054a573d6000803e3d6000fd5b505050506040513d601f19601f8201168201806040525081019061030d91906109f3565b33320361057757565b604051633af32abf60e01b81523360048201527f00000000000000000000000000000000000000000000000000000000000000006001600160a01b031690633af32abf90602401602060405180830381865afa1580156105db573d6000803e3d6000fd5b505050506040513d601f19601f820116820180604052508101906105ff9190610a4d565b6103295760405163973d02cb60e01b815260206004820152600f60248201526e139bdd081dda1a5d195b1a5cdd1959608a1b6044820152606401610304565b6000546001600160a01b031633146103295760405162461bcd60e51b815260206004820181905260248201527f4f776e61626c653a2063616c6c6572206973206e6f7420746865206f776e65726044820152606401610304565b600080546001600160a01b038381166001600160a01b0319831681178455604051919092169283917f8be0079c531659141344cd1fd0a4f28419497f9722a3daafe3b4186f6b6457e09190a35050565b604080516001600160a01b0385811660248301528481166044830152606480830185905283518084039091018152608490920183526020820180516001600160e01b03166323b872dd60e01b179052915160009283929088169161074c9190610a6f565b6000604051808303816000865af19150503d8060008114610789576040519150601f19603f3d011682016040523d82523d6000602084013e61078e565b606091505b5091509150856001600160a01b03163b600014806107aa575081155b806107d157508051158015906107d15750808060200190518101906107cf9190610a4d565b155b156107f55785828260405163e7e40b5b60e01b815260040161030493929190610a8b565b505050505050565b604080516001600160a01b038481166024830152604480830185905283518084039091018152606490920183526020820180516001600160e01b031663095ea7b360e01b17905291516000928392908716916108599190610a6f565b6000604051808303816000865af19150503d8060008114610896576040519150601f19603f3d011682016040523d82523d6000602084013e61089b565b606091505b5091509150846001600160a01b03163b600014806108b7575081155b806108de57508051158015906108de5750808060200190518101906108dc9190610a4d565b155b156109025784828260405163e7e40b5b60e01b815260040161030493929190610a8b565b5050505050565b60005b8381101561092457818101518382015260200161090c565b83811115610933576000848401525b50505050565b60008151808452610951816020860160208601610909565b601f01601f19169290920160200192915050565b6020815260006109786020830184610939565b9392505050565b6001600160a01b03811681146103a157600080fd5b6000806000606084860312156109a957600080fd5b83356109b48161097f565b92506020840135915060408401356109cb8161097f565b809150509250925092565b6000602082840312156109e857600080fd5b81356109788161097f565b600060208284031215610a0557600080fd5b5051919050565b60008060408385031215610a1f57600080fd5b505080516020909101519092909150565b600060208284031215610a4257600080fd5b81516109788161097f565b600060208284031215610a5f57600080fd5b8151801515811461097857600080fd5b60008251610a81818460208701610909565b9190910192915050565b6001600160a01b03841681528215156020820152606060408201819052600090610ab790830184610939565b9594505050505056fea2646970667358221220b872ced085f1e579a89f3b9c756b934a1dc07db63f08ec92cbb0a5dde2f19e1f64736f6c634300080d0033",
  "devdoc": {
    "author": "Alchemix Finance",
    "errors": {
      "ERC20CallFailed(address,bool,bytes)": [
        {
          "params": {
            "data": "The resulting data from the call. This is error data when the call was not a success. Otherwise,                this is malformed data when the call was a success.",
            "success": "If the call to the token was a success.",
            "target": "The target address."
          }
        }
      ],
      "IllegalState(string)": [
        {
          "params": {
            "message": "The error message."
          }
        }
      ],
      "Unauthorized(string)": [
        {
          "params": {
            "message": "The error message."
          }
        }
      ]
    },
    "kind": "dev",
    "methods": {
      "deposit(address,uint256,address)": {
        "details": "Wraps tokens and deposits the resulting tokens into the Alchemist.",
        "params": {
          "amount": "The amount of aTokens to wrap.",
          "recipient": "The account in the `alchemist` that will recieve the resulting static aTokens. ",
          "yieldToken": "The address of the static aToken wrapper."
        },
        "returns": {
          "sharesIssued": "   The amount of shares issued in the `alchemist` to the account owned by `recipient`."
        }
      },
      "owner()": {
        "details": "Returns the address of the current owner."
      },
      "renounceOwnership()": {
        "details": "Leaves the contract without owner. It will not be possible to call `onlyOwner` functions. Can only be called by the current owner. NOTE: Renouncing ownership will leave the contract without an owner, thereby disabling any functionality that is only available to the owner."
      },
      "transferOwnership(address)": {
        "details": "Transfers ownership of the contract to a new account (`newOwner`). Can only be called by the current owner."
      },
      "withdraw(address,uint256,address)": {
        "details": "Withdraws StaticATokens from the Alchemist and unwraps them into aTokens.",
        "params": {
          "recipient": "The account that will receive the resulting aTokens. ",
          "shares": "The amount of shares to withdraw from the `alchemist`.",
          "yieldToken": "The address of the static aToken wrapper."
        },
        "returns": {
          "_0": "The amount of aTokens withdrawn to `recipient`."
        }
      }
    },
    "title": "YTokenGateway",
    "version": 1
  },
  "userdoc": {
    "errors": {
      "ERC20CallFailed(address,bool,bytes)": [
        {
          "notice": "An error used to indicate that a call to an ERC20 contract failed."
        }
      ],
      "IllegalState(string)": [
        {
          "notice": "An error used to indicate that a function has encountered an unrecoverable state."
        }
      ],
      "Unauthorized(string)": [
        {
          "notice": "An error used to indicate that a message sender tried to execute a privileged function."
        }
      ]
    },
    "kind": "user",
    "methods": {
      "alchemist()": {
        "notice": "The address of the alchemist."
      },
      "version()": {
        "notice": "The version."
      },
      "whitelist()": {
        "notice": "The address of the whitelist contract."
      }
    },
    "version": 1
  },
  "storageLayout": {
    "storage": [
      {
        "astId": 34046,
        "contract": "submodules/v2-foundry/src/adapters/yearn/YTokenGateway.sol:YTokenGateway",
        "label": "_owner",
        "offset": 0,
        "slot": "0",
        "type": "t_address"
      }
    ],
    "types": {
      "t_address": {
        "encoding": "inplace",
        "label": "address",
        "numberOfBytes": "20"
      }
    }
  }
}