{
  "address": "0xa44f69aeAC480E23C0ABFA9A55D99c9F098bEac6",
  "abi": [
    {
      "inputs": [
        {
          "internalType": "address",
          "name": "target",
          "type": "address"
        },
        {
          "internalType": "bool",
          "name": "success",
          "type": "bool"
        },
        {
          "internalType": "bytes",
          "name": "data",
          "type": "bytes"
        }
      ],
      "name": "ERC20CallFailed",
      "type": "error"
    },
    {
      "inputs": [],
      "name": "IllegalArgument",
      "type": "error"
    },
    {
      "inputs": [],
      "name": "IllegalState",
      "type": "error"
    },
    {
      "inputs": [],
      "name": "Unauthorized",
      "type": "error"
    },
    {
      "anonymous": false,
      "inputs": [
        {
          "indexed": true,
          "internalType": "address",
          "name": "owner",
          "type": "address"
        },
        {
          "indexed": true,
          "internalType": "address",
          "name": "spender",
          "type": "address"
        },
        {
          "indexed": false,
          "internalType": "uint256",
          "name": "value",
          "type": "uint256"
        }
      ],
      "name": "Approval",
      "type": "event"
    },
    {
      "anonymous": false,
      "inputs": [
        {
          "indexed": true,
          "internalType": "address",
          "name": "bridgeTokenAddress",
          "type": "address"
        }
      ],
      "name": "BridgeTokenAdded",
      "type": "event"
    },
    {
      "anonymous": false,
      "inputs": [
        {
          "indexed": true,
          "internalType": "address",
          "name": "bridgeTokenAddress",
          "type": "address"
        },
        {
          "indexed": false,
          "internalType": "bool",
          "name": "state",
          "type": "bool"
        }
      ],
      "name": "BridgeTokenToggled",
      "type": "event"
    },
    {
      "anonymous": false,
      "inputs": [
        {
          "indexed": true,
          "internalType": "address",
          "name": "previousOwner",
          "type": "address"
        },
        {
          "indexed": true,
          "internalType": "address",
          "name": "newOwner",
          "type": "address"
        }
      ],
      "name": "OwnershipTransferred",
      "type": "event"
    },
    {
      "anonymous": false,
      "inputs": [
        {
          "indexed": false,
          "internalType": "address",
          "name": "minter",
          "type": "address"
        },
        {
          "indexed": false,
          "internalType": "bool",
          "name": "state",
          "type": "bool"
        }
      ],
      "name": "Paused",
      "type": "event"
    },
    {
      "anonymous": false,
      "inputs": [
        {
          "indexed": true,
          "internalType": "bytes32",
          "name": "role",
          "type": "bytes32"
        },
        {
          "indexed": true,
          "internalType": "bytes32",
          "name": "previousAdminRole",
          "type": "bytes32"
        },
        {
          "indexed": true,
          "internalType": "bytes32",
          "name": "newAdminRole",
          "type": "bytes32"
        }
      ],
      "name": "RoleAdminChanged",
      "type": "event"
    },
    {
      "anonymous": false,
      "inputs": [
        {
          "indexed": true,
          "internalType": "bytes32",
          "name": "role",
          "type": "bytes32"
        },
        {
          "indexed": true,
          "internalType": "address",
          "name": "account",
          "type": "address"
        },
        {
          "indexed": true,
          "internalType": "address",
          "name": "sender",
          "type": "address"
        }
      ],
      "name": "RoleGranted",
      "type": "event"
    },
    {
      "anonymous": false,
      "inputs": [
        {
          "indexed": true,
          "internalType": "bytes32",
          "name": "role",
          "type": "bytes32"
        },
        {
          "indexed": true,
          "internalType": "address",
          "name": "account",
          "type": "address"
        },
        {
          "indexed": true,
          "internalType": "address",
          "name": "sender",
          "type": "address"
        }
      ],
      "name": "RoleRevoked",
      "type": "event"
    },
    {
      "anonymous": false,
      "inputs": [
        {
          "indexed": false,
          "internalType": "uint256",
          "name": "fee",
          "type": "uint256"
        }
      ],
      "name": "SetFlashMintFee",
      "type": "event"
    },
    {
      "anonymous": false,
      "inputs": [
        {
          "indexed": true,
          "internalType": "address",
          "name": "bridgeTokenAddress",
          "type": "address"
        },
        {
          "indexed": false,
          "internalType": "uint256",
          "name": "bridgeToCanonical",
          "type": "uint256"
        },
        {
          "indexed": false,
          "internalType": "uint256",
          "name": "canonicalToOld",
          "type": "uint256"
        }
      ],
      "name": "SwapFeeSet",
      "type": "event"
    },
    {
      "anonymous": false,
      "inputs": [
        {
          "indexed": true,
          "internalType": "address",
          "name": "from",
          "type": "address"
        },
        {
          "indexed": true,
          "internalType": "address",
          "name": "to",
          "type": "address"
        },
        {
          "indexed": false,
          "internalType": "uint256",
          "name": "value",
          "type": "uint256"
        }
      ],
      "name": "Transfer",
      "type": "event"
    },
    {
      "inputs": [],
      "name": "ADMIN_ROLE",
      "outputs": [
        {
          "internalType": "bytes32",
          "name": "",
          "type": "bytes32"
        }
      ],
      "stateMutability": "view",
      "type": "function"
    },
    {
      "inputs": [],
      "name": "BPS",
      "outputs": [
        {
          "internalType": "uint256",
          "name": "",
          "type": "uint256"
        }
      ],
      "stateMutability": "view",
      "type": "function"
    },
    {
      "inputs": [],
      "name": "CALLBACK_SUCCESS",
      "outputs": [
        {
          "internalType": "bytes32",
          "name": "",
          "type": "bytes32"
        }
      ],
      "stateMutability": "view",
      "type": "function"
    },
    {
      "inputs": [],
      "name": "DEFAULT_ADMIN_ROLE",
      "outputs": [
        {
          "internalType": "bytes32",
          "name": "",
          "type": "bytes32"
        }
      ],
      "stateMutability": "view",
      "type": "function"
    },
    {
      "inputs": [],
      "name": "DOMAIN_SEPARATOR",
      "outputs": [
        {
          "internalType": "bytes32",
          "name": "",
          "type": "bytes32"
        }
      ],
      "stateMutability": "view",
      "type": "function"
    },
    {
      "inputs": [],
      "name": "SENTINEL_ROLE",
      "outputs": [
        {
          "internalType": "bytes32",
          "name": "",
          "type": "bytes32"
        }
      ],
      "stateMutability": "view",
      "type": "function"
    },
    {
      "inputs": [
        {
          "internalType": "address",
          "name": "bridgeTokenAddress",
          "type": "address"
        }
      ],
      "name": "addBridgeToken",
      "outputs": [],
      "stateMutability": "nonpayable",
      "type": "function"
    },
    {
      "inputs": [],
      "name": "allBridgeTokens",
      "outputs": [
        {
          "internalType": "address[]",
          "name": "",
          "type": "address[]"
        }
      ],
      "stateMutability": "view",
      "type": "function"
    },
    {
      "inputs": [
        {
          "internalType": "address",
          "name": "owner",
          "type": "address"
        },
        {
          "internalType": "address",
          "name": "spender",
          "type": "address"
        }
      ],
      "name": "allowance",
      "outputs": [
        {
          "internalType": "uint256",
          "name": "",
          "type": "uint256"
        }
      ],
      "stateMutability": "view",
      "type": "function"
    },
    {
      "inputs": [
        {
          "internalType": "address",
          "name": "spender",
          "type": "address"
        },
        {
          "internalType": "uint256",
          "name": "amount",
          "type": "uint256"
        }
      ],
      "name": "approve",
      "outputs": [
        {
          "internalType": "bool",
          "name": "",
          "type": "bool"
        }
      ],
      "stateMutability": "nonpayable",
      "type": "function"
    },
    {
      "inputs": [
        {
          "internalType": "address",
          "name": "account",
          "type": "address"
        }
      ],
      "name": "balanceOf",
      "outputs": [
        {
          "internalType": "uint256",
          "name": "",
          "type": "uint256"
        }
      ],
      "stateMutability": "view",
      "type": "function"
    },
    {
      "inputs": [
        {
          "internalType": "address",
          "name": "",
          "type": "address"
        }
      ],
      "name": "bridgeTokenEnabled",
      "outputs": [
        {
          "internalType": "bool",
          "name": "",
          "type": "bool"
        }
      ],
      "stateMutability": "view",
      "type": "function"
    },
    {
      "inputs": [
        {
          "internalType": "address",
          "name": "",
          "type": "address"
        }
      ],
      "name": "bridgeTokens",
      "outputs": [
        {
          "internalType": "bool",
          "name": "",
          "type": "bool"
        }
      ],
      "stateMutability": "view",
      "type": "function"
    },
    {
      "inputs": [
        {
          "internalType": "uint256",
          "name": "",
          "type": "uint256"
        }
      ],
      "name": "bridgeTokensArray",
      "outputs": [
        {
          "internalType": "address",
          "name": "",
          "type": "address"
        }
      ],
      "stateMutability": "view",
      "type": "function"
    },
    {
      "inputs": [
        {
          "internalType": "uint256",
          "name": "amount",
          "type": "uint256"
        }
      ],
      "name": "burn",
      "outputs": [],
      "stateMutability": "nonpayable",
      "type": "function"
    },
    {
      "inputs": [
        {
          "internalType": "address",
          "name": "account",
          "type": "address"
        },
        {
          "internalType": "uint256",
          "name": "amount",
          "type": "uint256"
        }
      ],
      "name": "burnFrom",
      "outputs": [],
      "stateMutability": "nonpayable",
      "type": "function"
    },
    {
      "inputs": [],
      "name": "decimals",
      "outputs": [
        {
          "internalType": "uint8",
          "name": "",
          "type": "uint8"
        }
      ],
      "stateMutability": "view",
      "type": "function"
    },
    {
      "inputs": [
        {
          "internalType": "address",
          "name": "spender",
          "type": "address"
        },
        {
          "internalType": "uint256",
          "name": "subtractedValue",
          "type": "uint256"
        }
      ],
      "name": "decreaseAllowance",
      "outputs": [
        {
          "internalType": "bool",
          "name": "",
          "type": "bool"
        }
      ],
      "stateMutability": "nonpayable",
      "type": "function"
    },
    {
      "inputs": [
        {
          "internalType": "address",
          "name": "bridgeTokenAddress",
          "type": "address"
        },
        {
          "internalType": "uint256",
          "name": "tokenAmount",
          "type": "uint256"
        }
      ],
      "name": "exchangeCanonicalForOld",
      "outputs": [
        {
          "internalType": "uint256",
          "name": "bridgeTokensOut",
          "type": "uint256"
        }
      ],
      "stateMutability": "nonpayable",
      "type": "function"
    },
    {
      "inputs": [
        {
          "internalType": "address",
          "name": "bridgeTokenAddress",
          "type": "address"
        },
        {
          "internalType": "uint256",
          "name": "tokenAmount",
          "type": "uint256"
        }
      ],
      "name": "exchangeOldForCanonical",
      "outputs": [
        {
          "internalType": "uint256",
          "name": "canonicalTokensOut",
          "type": "uint256"
        }
      ],
      "stateMutability": "nonpayable",
      "type": "function"
    },
    {
      "inputs": [],
      "name": "exchangesPaused",
      "outputs": [
        {
          "internalType": "bool",
          "name": "",
          "type": "bool"
        }
      ],
      "stateMutability": "view",
      "type": "function"
    },
    {
      "inputs": [
        {
          "internalType": "address",
          "name": "",
          "type": "address"
        }
      ],
      "name": "feeExempt",
      "outputs": [
        {
          "internalType": "bool",
          "name": "",
          "type": "bool"
        }
      ],
      "stateMutability": "view",
      "type": "function"
    },
    {
      "inputs": [
        {
          "internalType": "address",
          "name": "token",
          "type": "address"
        },
        {
          "internalType": "uint256",
          "name": "amount",
          "type": "uint256"
        }
      ],
      "name": "flashFee",
      "outputs": [
        {
          "internalType": "uint256",
          "name": "",
          "type": "uint256"
        }
      ],
      "stateMutability": "view",
      "type": "function"
    },
    {
      "inputs": [
        {
          "internalType": "contract IERC3156FlashBorrower",
          "name": "receiver",
          "type": "address"
        },
        {
          "internalType": "address",
          "name": "token",
          "type": "address"
        },
        {
          "internalType": "uint256",
          "name": "amount",
          "type": "uint256"
        },
        {
          "internalType": "bytes",
          "name": "data",
          "type": "bytes"
        }
      ],
      "name": "flashLoan",
      "outputs": [
        {
          "internalType": "bool",
          "name": "",
          "type": "bool"
        }
      ],
      "stateMutability": "nonpayable",
      "type": "function"
    },
    {
      "inputs": [],
      "name": "flashMintFee",
      "outputs": [
        {
          "internalType": "uint256",
          "name": "",
          "type": "uint256"
        }
      ],
      "stateMutability": "view",
      "type": "function"
    },
    {
      "inputs": [
        {
          "internalType": "bytes32",
          "name": "role",
          "type": "bytes32"
        }
      ],
      "name": "getRoleAdmin",
      "outputs": [
        {
          "internalType": "bytes32",
          "name": "",
          "type": "bytes32"
        }
      ],
      "stateMutability": "view",
      "type": "function"
    },
    {
      "inputs": [
        {
          "internalType": "bytes32",
          "name": "role",
          "type": "bytes32"
        },
        {
          "internalType": "address",
          "name": "account",
          "type": "address"
        }
      ],
      "name": "grantRole",
      "outputs": [],
      "stateMutability": "nonpayable",
      "type": "function"
    },
    {
      "inputs": [
        {
          "internalType": "bytes32",
          "name": "role",
          "type": "bytes32"
        },
        {
          "internalType": "address",
          "name": "account",
          "type": "address"
        }
      ],
      "name": "hasRole",
      "outputs": [
        {
          "internalType": "bool",
          "name": "",
          "type": "bool"
        }
      ],
      "stateMutability": "view",
      "type": "function"
    },
    {
      "inputs": [
        {
          "internalType": "address",
          "name": "spender",
          "type": "address"
        },
        {
          "internalType": "uint256",
          "name": "addedValue",
          "type": "uint256"
        }
      ],
      "name": "increaseAllowance",
      "outputs": [
        {
          "internalType": "bool",
          "name": "",
          "type": "bool"
        }
      ],
      "stateMutability": "nonpayable",
      "type": "function"
    },
    {
      "inputs": [
        {
          "internalType": "string",
          "name": "name",
          "type": "string"
        },
        {
          "internalType": "string",
          "name": "symbol",
          "type": "string"
        },
        {
          "internalType": "address[]",
          "name": "_bridgeTokens",
          "type": "address[]"
        }
      ],
      "name": "initialize",
      "outputs": [],
      "stateMutability": "nonpayable",
      "type": "function"
    },
    {
      "inputs": [
        {
          "internalType": "uint256",
          "name": "amount",
          "type": "uint256"
        }
      ],
      "name": "lowerHasMinted",
      "outputs": [],
      "stateMutability": "nonpayable",
      "type": "function"
    },
    {
      "inputs": [
        {
          "internalType": "address",
          "name": "token",
          "type": "address"
        }
      ],
      "name": "maxFlashLoan",
      "outputs": [
        {
          "internalType": "uint256",
          "name": "",
          "type": "uint256"
        }
      ],
      "stateMutability": "view",
      "type": "function"
    },
    {
      "inputs": [],
      "name": "maxFlashLoanAmount",
      "outputs": [
        {
          "internalType": "uint256",
          "name": "",
          "type": "uint256"
        }
      ],
      "stateMutability": "view",
      "type": "function"
    },
    {
      "inputs": [
        {
          "internalType": "address",
          "name": "recipient",
          "type": "address"
        },
        {
          "internalType": "uint256",
          "name": "amount",
          "type": "uint256"
        }
      ],
      "name": "mint",
      "outputs": [],
      "stateMutability": "nonpayable",
      "type": "function"
    },
    {
      "inputs": [
        {
          "internalType": "address",
          "name": "",
          "type": "address"
        }
      ],
      "name": "mintCeiling",
      "outputs": [
        {
          "internalType": "uint256",
          "name": "",
          "type": "uint256"
        }
      ],
      "stateMutability": "view",
      "type": "function"
    },
    {
      "inputs": [],
      "name": "name",
      "outputs": [
        {
          "internalType": "string",
          "name": "",
          "type": "string"
        }
      ],
      "stateMutability": "view",
      "type": "function"
    },
    {
      "inputs": [
        {
          "internalType": "address",
          "name": "owner",
          "type": "address"
        }
      ],
      "name": "nonces",
      "outputs": [
        {
          "internalType": "uint256",
          "name": "",
          "type": "uint256"
        }
      ],
      "stateMutability": "view",
      "type": "function"
    },
    {
      "inputs": [],
      "name": "owner",
      "outputs": [
        {
          "internalType": "address",
          "name": "",
          "type": "address"
        }
      ],
      "stateMutability": "view",
      "type": "function"
    },
    {
      "inputs": [
        {
          "internalType": "address",
          "name": "minter",
          "type": "address"
        },
        {
          "internalType": "bool",
          "name": "state",
          "type": "bool"
        }
      ],
      "name": "pauseMinter",
      "outputs": [],
      "stateMutability": "nonpayable",
      "type": "function"
    },
    {
      "inputs": [
        {
          "internalType": "address",
          "name": "",
          "type": "address"
        }
      ],
      "name": "paused",
      "outputs": [
        {
          "internalType": "bool",
          "name": "",
          "type": "bool"
        }
      ],
      "stateMutability": "view",
      "type": "function"
    },
    {
      "inputs": [
        {
          "internalType": "address",
          "name": "owner",
          "type": "address"
        },
        {
          "internalType": "address",
          "name": "spender",
          "type": "address"
        },
        {
          "internalType": "uint256",
          "name": "value",
          "type": "uint256"
        },
        {
          "internalType": "uint256",
          "name": "deadline",
          "type": "uint256"
        },
        {
          "internalType": "uint8",
          "name": "v",
          "type": "uint8"
        },
        {
          "internalType": "bytes32",
          "name": "r",
          "type": "bytes32"
        },
        {
          "internalType": "bytes32",
          "name": "s",
          "type": "bytes32"
        }
      ],
      "name": "permit",
      "outputs": [],
      "stateMutability": "nonpayable",
      "type": "function"
    },
    {
      "inputs": [
        {
          "internalType": "address",
          "name": "tokenAddress",
          "type": "address"
        },
        {
          "internalType": "uint256",
          "name": "tokenAmount",
          "type": "uint256"
        }
      ],
      "name": "recoverERC20",
      "outputs": [],
      "stateMutability": "nonpayable",
      "type": "function"
    },
    {
      "inputs": [],
      "name": "renounceOwnership",
      "outputs": [],
      "stateMutability": "nonpayable",
      "type": "function"
    },
    {
      "inputs": [
        {
          "internalType": "bytes32",
          "name": "role",
          "type": "bytes32"
        },
        {
          "internalType": "address",
          "name": "account",
          "type": "address"
        }
      ],
      "name": "renounceRole",
      "outputs": [],
      "stateMutability": "nonpayable",
      "type": "function"
    },
    {
      "inputs": [
        {
          "internalType": "bytes32",
          "name": "role",
          "type": "bytes32"
        },
        {
          "internalType": "address",
          "name": "account",
          "type": "address"
        }
      ],
      "name": "revokeRole",
      "outputs": [],
      "stateMutability": "nonpayable",
      "type": "function"
    },
    {
      "inputs": [
        {
          "internalType": "address",
          "name": "minter",
          "type": "address"
        },
        {
          "internalType": "uint256",
          "name": "maximum",
          "type": "uint256"
        }
      ],
      "name": "setCeiling",
      "outputs": [],
      "stateMutability": "nonpayable",
      "type": "function"
    },
    {
      "inputs": [
        {
          "internalType": "uint256",
          "name": "newFee",
          "type": "uint256"
        }
      ],
      "name": "setFlashFee",
      "outputs": [],
      "stateMutability": "nonpayable",
      "type": "function"
    },
    {
      "inputs": [
        {
          "internalType": "uint256",
          "name": "_maxFlashLoanAmount",
          "type": "uint256"
        }
      ],
      "name": "setMaxFlashLoan",
      "outputs": [],
      "stateMutability": "nonpayable",
      "type": "function"
    },
    {
      "inputs": [
        {
          "internalType": "address",
          "name": "sentinel",
          "type": "address"
        }
      ],
      "name": "setSentinel",
      "outputs": [],
      "stateMutability": "nonpayable",
      "type": "function"
    },
    {
      "inputs": [
        {
          "internalType": "address",
          "name": "bridgeTokenAddress",
          "type": "address"
        },
        {
          "internalType": "uint256",
          "name": "_bridgeToCanonical",
          "type": "uint256"
        },
        {
          "internalType": "uint256",
          "name": "_canonicalToOld",
          "type": "uint256"
        }
      ],
      "name": "setSwapFees",
      "outputs": [],
      "stateMutability": "nonpayable",
      "type": "function"
    },
    {
      "inputs": [
        {
          "internalType": "address",
          "name": "minter",
          "type": "address"
        },
        {
          "internalType": "bool",
          "name": "state",
          "type": "bool"
        }
      ],
      "name": "setWhitelist",
      "outputs": [],
      "stateMutability": "nonpayable",
      "type": "function"
    },
    {
      "inputs": [
        {
          "internalType": "bytes4",
          "name": "interfaceId",
          "type": "bytes4"
        }
      ],
      "name": "supportsInterface",
      "outputs": [
        {
          "internalType": "bool",
          "name": "",
          "type": "bool"
        }
      ],
      "stateMutability": "view",
      "type": "function"
    },
    {
      "inputs": [
        {
          "internalType": "address",
          "name": "",
          "type": "address"
        },
        {
          "internalType": "uint256",
          "name": "",
          "type": "uint256"
        }
      ],
      "name": "swapFees",
      "outputs": [
        {
          "internalType": "uint256",
          "name": "",
          "type": "uint256"
        }
      ],
      "stateMutability": "view",
      "type": "function"
    },
    {
      "inputs": [],
      "name": "symbol",
      "outputs": [
        {
          "internalType": "string",
          "name": "",
          "type": "string"
        }
      ],
      "stateMutability": "view",
      "type": "function"
    },
    {
      "inputs": [
        {
          "internalType": "address",
          "name": "bridgeTokenAddress",
          "type": "address"
        },
        {
          "internalType": "bool",
          "name": "enabled",
          "type": "bool"
        }
      ],
      "name": "toggleBridgeToken",
      "outputs": [],
      "stateMutability": "nonpayable",
      "type": "function"
    },
    {
      "inputs": [],
      "name": "toggleExchanges",
      "outputs": [],
      "stateMutability": "nonpayable",
      "type": "function"
    },
    {
      "inputs": [
        {
          "internalType": "address",
          "name": "targetAddress",
          "type": "address"
        }
      ],
      "name": "toggleFeesForAddress",
      "outputs": [],
      "stateMutability": "nonpayable",
      "type": "function"
    },
    {
      "inputs": [
        {
          "internalType": "address",
          "name": "",
          "type": "address"
        }
      ],
      "name": "totalMinted",
      "outputs": [
        {
          "internalType": "uint256",
          "name": "",
          "type": "uint256"
        }
      ],
      "stateMutability": "view",
      "type": "function"
    },
    {
      "inputs": [],
      "name": "totalSupply",
      "outputs": [
        {
          "internalType": "uint256",
          "name": "",
          "type": "uint256"
        }
      ],
      "stateMutability": "view",
      "type": "function"
    },
    {
      "inputs": [
        {
          "internalType": "address",
          "name": "recipient",
          "type": "address"
        },
        {
          "internalType": "uint256",
          "name": "amount",
          "type": "uint256"
        }
      ],
      "name": "transfer",
      "outputs": [
        {
          "internalType": "bool",
          "name": "",
          "type": "bool"
        }
      ],
      "stateMutability": "nonpayable",
      "type": "function"
    },
    {
      "inputs": [
        {
          "internalType": "address",
          "name": "sender",
          "type": "address"
        },
        {
          "internalType": "address",
          "name": "recipient",
          "type": "address"
        },
        {
          "internalType": "uint256",
          "name": "amount",
          "type": "uint256"
        }
      ],
      "name": "transferFrom",
      "outputs": [
        {
          "internalType": "bool",
          "name": "",
          "type": "bool"
        }
      ],
      "stateMutability": "nonpayable",
      "type": "function"
    },
    {
      "inputs": [
        {
          "internalType": "address",
          "name": "newOwner",
          "type": "address"
        }
      ],
      "name": "transferOwnership",
      "outputs": [],
      "stateMutability": "nonpayable",
      "type": "function"
    },
    {
      "inputs": [
        {
          "internalType": "address",
          "name": "",
          "type": "address"
        }
      ],
      "name": "whitelisted",
      "outputs": [
        {
          "internalType": "bool",
          "name": "",
          "type": "bool"
        }
      ],
      "stateMutability": "view",
      "type": "function"
    }
  ],
  "transactionHash": "0xfb499264ee2e930dd870fb555287ed9818e982d8ebe3cf46f8cfc4dd23b23e9d",
  "args": [],
  "numDeployments": 1,
  "solcInputHash": "bd9ce5961dec452c25d965b84c04f6d9",
  "bytecode": "0x608060405234801561001057600080fd5b506137f7806100206000396000f3fe608060405234801561001057600080fd5b50600436106103c45760003560e01c80636d1ac36a116101ff578063a217fddf1161011a578063d505accf116100ad578063dd62ed3e1161007c578063dd62ed3e146108a4578063e68b14ff146108dd578063ee7a069a146108f0578063f2fde38b1461091157600080fd5b8063d505accf14610847578063d547741f1461085a578063d936547e1461086d578063d9d98ce41461089157600080fd5b8063a9059cbb116100e9578063a9059cbb146107e8578063bf15c224146107fb578063ca2759311461081f578063cd4839ca1461083257600080fd5b8063a217fddf146107a7578063a457c2d7146107af578063a6beee4a146107c2578063a7c571fe146107d557600080fd5b80638980f11f1161019257806391d148541161016157806391d1485414610778578063940a1dc01461078b57806395d89b4114610795578063a140edb41461079d57600080fd5b80638980f11f1461072d5780638da5cb5b146107405780639006a50f14610752578063907a267b1461076557600080fd5b80637601f069116101ce5780637601f069146106d857806379cc6790146106e05780637ecebe00146106f35780638237e5381461070657600080fd5b80636d1ac36a1461066e57806370a0823114610692578063715018a6146106bb57806375b238fc146106c357600080fd5b8063288aafcb116102ef578063398daa851161028257806353d6fd591161025157806353d6fd59146106225780635cffe9de14610635578063613255ab146106485780636c00c7f01461065b57600080fd5b8063398daa85146105c557806340c10f19146105e957806342966c68146105fc578063459d0df01461060f57600080fd5b80633644e515116102be5780633644e5151461058457806336568abe1461058c5780633864376b1461059f57806339509351146105b257600080fd5b8063288aafcb1461052b5780632e48152c1461053e5780632f2ff15d14610562578063313ce5671461057557600080fd5b806313430d9211610367578063248756d911610336578063248756d9146104c1578063248a9ca3146104ec578063249d39e91461050f578063280cf3ed1461051857600080fd5b806313430d921461047e578063134895151461049357806318160ddd146104a657806323b872dd146104ae57600080fd5b806306fdde03116103a357806306fdde031461042e5780630919a95114610443578063095ea7b31461045857806309dac0611461046b57600080fd5b80623d4790146103c957806301ffc9a7146103fd57806305a7fc6114610420575b600080fd5b6103ea6103d7366004612f3f565b61019d6020526000908152604090205481565b6040519081526020015b60405180910390f35b61041061040b366004612f5c565b610924565b60405190151581526020016103f4565b610198546104109060ff1681565b61043661095b565b6040516103f49190612fde565b610456610451366004612f3f565b6109ed565b005b610410610466366004612ff1565b610a4b565b610456610479366004612f3f565b610a61565b6103ea6000805160206137a283398151915281565b6104566104a1366004612f3f565b610ab0565b6035546103ea565b6104106104bc36600461301d565b610bdf565b6104d46104cf36600461305e565b610c89565b6040516001600160a01b0390911681526020016103f4565b6103ea6104fa36600461305e565b600090815260fe602052604090206001015490565b6103ea61271081565b6103ea610526366004612ff1565b610cb4565b61045661053936600461305e565b610dfb565b61041061054c366004612f3f565b61019b6020526000908152604090205460ff1681565b610456610570366004613077565b610e5b565b604051601281526020016103f4565b6103ea610e86565b61045661059a366004613077565b610e95565b6104566105ad3660046130b5565b610f13565b6104106105c0366004612ff1565b610f9e565b6104106105d3366004612f3f565b6101956020526000908152604090205460ff1681565b6104566105f7366004612ff1565b610fda565b61045661060a36600461305e565b6110a8565b6103ea61061d366004612ff1565b6110b2565b6104566106303660046130b5565b6110d8565b6104106106433660046130e3565b611138565b6103ea610656366004612f3f565b6112ae565b610456610669366004612ff1565b6112d1565b61041061067c366004612f3f565b6101976020526000908152604090205460ff1681565b6103ea6106a0366004612f3f565b6001600160a01b031660009081526033602052604090205490565b610456611322565b6103ea60008051602061378283398151915281565b610456611359565b6104566106ee366004612ff1565b611399565b6103ea610701366004612f3f565b6113df565b6103ea7f439148f0bbc682ca079e46d6e2c2f0c1e3b820f1a291b069d8882abf8cf18dd981565b61045661073b366004612ff1565b6113fd565b610162546001600160a01b03166104d4565b6103ea610760366004612ff1565b611498565b61045661077336600461305e565b6115d0565b610410610786366004613077565b611640565b6103ea61019e5481565b61043661166b565b6103ea61019f5481565b6103ea600081565b6104106107bd366004612ff1565b61167a565b6104566107d036600461305e565b611713565b6104566107e3366004613182565b61174d565b6104106107f6366004612ff1565b6117fa565b610410610809366004612f3f565b6101996020526000908152604090205460ff1681565b61045661082d36600461326e565b611807565b61083a6118d7565b6040516103f49190613367565b6104566108553660046133b4565b611939565b610456610868366004613077565b611a7f565b61041061087b366004612f3f565b61019a6020526000908152604090205460ff1681565b6103ea61089f366004612ff1565b611aa5565b6103ea6108b236600461342b565b6001600160a01b03918216600090815260346020908152604080832093909416825291909152205490565b6104566108eb3660046130b5565b611af3565b6103ea6108fe366004612f3f565b61019c6020526000908152604090205481565b61045661091f366004612f3f565b611b8b565b60006001600160e01b03198216637965db0b60e01b148061095557506301ffc9a760e01b6001600160e01b03198316145b92915050565b60606036805461096a90613459565b80601f016020809104026020016040519081016040528092919081815260200182805461099690613459565b80156109e35780601f106109b8576101008083540402835291602001916109e3565b820191906000526020600020905b8154815290600101906020018083116109c657829003601f168201915b5050505050905090565b610162546001600160a01b03163314610a215760405162461bcd60e51b8152600401610a189061348e565b60405180910390fd5b6001600160a01b0316600090815261019560205260409020805460ff19811660ff90911615179055565b6000610a58338484611c24565b50600192915050565b610a7960008051602061378283398151915233611640565b610a95576040516282b42960e81b815260040160405180910390fd5b610aad6000805160206137a283398151915282611d48565b50565b610162546001600160a01b03163314610adb5760405162461bcd60e51b8152600401610a189061348e565b60005b61019654811015610b4d57816001600160a01b03166101968281548110610b0757610b076134c3565b6000918252602090912001546001600160a01b03161415610b3b57604051634a613c4160e01b815260040160405180910390fd5b80610b45816134ef565b915050610ade565b50610196805460018082019092557f828feda00a4b64eb35101b6df8f6c29717b1ea6bae5dd03d3ddada8de0a9e7cb0180546001600160a01b0319166001600160a01b03841690811790915560008181526101996020526040808220805460ff1916909417909355915190917fa1f77cf0208e08e61710338f5370c9eba737ddc758d9f317dc5bdcff348e6e1a91a250565b6000610bec848484611d52565b6001600160a01b038416600090815260346020908152604080832033845290915290205482811015610c715760405162461bcd60e51b815260206004820152602860248201527f45524332303a207472616e7366657220616d6f756e74206578636565647320616044820152676c6c6f77616e636560c01b6064820152608401610a18565b610c7e8533858403611c24565b506001949350505050565b6101968181548110610c9a57600080fd5b6000918252602090912001546001600160a01b0316905081565b60006002610130541415610cda5760405162461bcd60e51b8152600401610a189061350a565b6002610130556001600160a01b03831660009081526101996020526040902054839060ff16610d1c57604051634a613c4160e01b815260040160405180910390fd5b6101985460ff1615610d4157604051634a613c4160e01b815260040160405180910390fd5b6001600160a01b0384166000908152610199602052604090205460ff16610d7b57604051634a613c4160e01b815260040160405180910390fd5b610d853384611f20565b336000908152610195602052604090205483925060ff16610de3576001600160a01b038416600090815261019460205260409020620f42409060010154610dcc9084613541565b610dd69190613560565b610de09083613582565b91505b610dee84338461206e565b5060016101305592915050565b33600090815261019a602052604090205460ff16610e2b576040516282b42960e81b815260040160405180910390fd5b33600090815261019d6020526040902054610e47908290613582565b33600090815261019d602052604090205550565b600082815260fe6020526040902060010154610e778133612165565b610e8183836121c9565b505050565b6000610e9061224f565b905090565b6001600160a01b0381163314610f055760405162461bcd60e51b815260206004820152602f60248201527f416363657373436f6e74726f6c3a2063616e206f6e6c792072656e6f756e636560448201526e103937b632b9903337b91039b2b63360891b6064820152608401610a18565b610f0f82826122ca565b5050565b610162546001600160a01b03163314610f3e5760405162461bcd60e51b8152600401610a189061348e565b6001600160a01b03821660008181526101996020908152604091829020805460ff191685151590811790915591519182527ff7c93079dcbf699749d66345a351afab7d24219bb1d915c9f4fc4cf03f00d397910160405180910390a25050565b3360008181526034602090815260408083206001600160a01b03871684529091528120549091610a58918590610fd5908690613599565b611c24565b33600090815261019a602052604090205460ff1661100a576040516282b42960e81b815260040160405180910390fd5b33600090815261019b602052604090205460ff161561103c57604051634a613c4160e01b815260040160405180910390fd5b33600090815261019d60205260408120546110579083613599565b33600090815261019c602052604090205490915081111561108b57604051634a613c4160e01b815260040160405180910390fd5b33600090815261019d60205260409020819055610e818383612331565b610aad3382611f20565b61019460205281600052604060002081600281106110cf57600080fd5b01549150829050565b6110f060008051602061378283398151915233611640565b61110c576040516282b42960e81b815260040160405180910390fd5b6001600160a01b0391909116600090815261019a60205260409020805460ff1916911515919091179055565b6000600261013054141561115e5760405162461bcd60e51b8152600401610a189061350a565b6002610130556001600160a01b038516301461118d57604051630134249960e71b815260040160405180910390fd5b611196856112ae565b8411156111b657604051630134249960e71b815260040160405180910390fd5b60006111c28686611aa5565b90506111ce8786612331565b6040516323e30c8b60e01b81527f439148f0bbc682ca079e46d6e2c2f0c1e3b820f1a291b069d8882abf8cf18dd9906001600160a01b038916906323e30c8b906112269033908b908b9088908c908c906004016135b1565b6020604051808303816000875af1158015611245573d6000803e3d6000fd5b505050506040513d601f19601f82011682018060405250810190611269919061360d565b1461128757604051634a613c4160e01b815260040160405180910390fd5b61129a876112958388613599565b611f20565b600191505060016101305595945050505050565b60006001600160a01b03821630146112c857506000919050565b505061019f5490565b6112e960008051602061378283398151915233611640565b611305576040516282b42960e81b815260040160405180910390fd5b6001600160a01b03909116600090815261019c6020526040902055565b610162546001600160a01b0316331461134d5760405162461bcd60e51b8152600401610a189061348e565b6113576000612410565b565b610162546001600160a01b031633146113845760405162461bcd60e51b8152600401610a189061348e565b610198805460ff19811660ff90911615179055565b6001600160a01b03821660009081526034602090815260408083203384529091528120546113c8908390613582565b90506113d5833383611c24565b610e818383611f20565b6001600160a01b038116600090815260996020526040812054610955565b610162546001600160a01b031633146114285760405162461bcd60e51b8152600401610a189061348e565b6001600160a01b03821630141561145257604051630134249960e71b815260040160405180910390fd5b6001600160a01b0382166000908152610199602052604090205460ff161561148d57604051634a613c4160e01b815260040160405180910390fd5b610f0f82338361206e565b600060026101305414156114be5760405162461bcd60e51b8152600401610a189061350a565b6002610130556001600160a01b03831660009081526101996020526040902054839060ff1661150057604051634a613c4160e01b815260040160405180910390fd5b6101985460ff161561152557604051634a613c4160e01b815260040160405180910390fd5b6001600160a01b0384166000908152610199602052604090205460ff1661155f57604051634a613c4160e01b815260040160405180910390fd5b61156b84333086612463565b336000908152610195602052604090205483925060ff166115c6576001600160a01b03841660009081526101946020526040902054620f4240906115af9084613541565b6115b99190613560565b6115c39083613582565b91505b610dee3383612331565b6115e860008051602061378283398151915233611640565b611604576040516282b42960e81b815260040160405180910390fd5b61019e8190556040518181527f2a870645d0d1cf8866b52d71ff02db01b3e1dc4b70f53e2c4e85dbe60969b92e9060200160405180910390a150565b600091825260fe602090815260408084206001600160a01b0393909316845291905290205460ff1690565b60606037805461096a90613459565b3360009081526034602090815260408083206001600160a01b0386168452909152812054828110156116fc5760405162461bcd60e51b815260206004820152602560248201527f45524332303a2064656372656173656420616c6c6f77616e63652062656c6f77604482015264207a65726f60d81b6064820152608401610a18565b6117093385858403611c24565b5060019392505050565b61172b60008051602061378283398151915233611640565b611747576040516282b42960e81b815260040160405180910390fd5b61019f55565b610162546001600160a01b031633146117785760405162461bcd60e51b8152600401610a189061348e565b60408051808201825283815260208082018490526001600160a01b0386166000908152610194909152919091206117b0916002612e30565b5060408051838152602081018390526001600160a01b038516917ff36e5def0a9227cce1f483e62a6b168e5c1dd4aa7e887e300745cdc4c2b5ab2d910160405180910390a2505050565b6000610a58338484611d52565b600054610100900460ff166118225760005460ff1615611826565b303b155b6118895760405162461bcd60e51b815260206004820152602e60248201527f496e697469616c697a61626c653a20636f6e747261637420697320616c72656160448201526d191e481a5b9a5d1a585b1a5e995960921b6064820152608401610a18565b600054610100900460ff161580156118ab576000805461ffff19166101011790555b6118b784843385612563565b6118bf612732565b80156118d1576000805461ff00191690555b50505050565b60606101968054806020026020016040519081016040528092919081815260200182805480156109e357602002820191906000526020600020905b81546001600160a01b03168152600190910190602001808311611912575050505050905090565b834211156119895760405162461bcd60e51b815260206004820152601d60248201527f45524332305065726d69743a206578706972656420646561646c696e650000006044820152606401610a18565b6000609a5488888861199a8c6127a0565b6040805160208101969096526001600160a01b0394851690860152929091166060840152608083015260a082015260c0810186905260e00160405160208183030381529060405280519060200120905060006119f5826127c8565b90506000611a0582878787612816565b9050896001600160a01b0316816001600160a01b031614611a685760405162461bcd60e51b815260206004820152601e60248201527f45524332305065726d69743a20696e76616c6964207369676e617475726500006044820152606401610a18565b611a738a8a8a611c24565b50505050505050505050565b600082815260fe6020526040902060010154611a9b8133612165565b610e8183836122ca565b60006001600160a01b0383163014611ad057604051630134249960e71b815260040160405180910390fd5b61271061019e5483611ae29190613541565b611aec9190613560565b9392505050565b611b0b6000805160206137a283398151915233611640565b611b27576040516282b42960e81b815260040160405180910390fd5b6001600160a01b038216600081815261019b6020908152604091829020805460ff19168515159081179091558251938452908301527fe8699cf681560fd07de85543bd994263f4557bdc5179dd702f256d15fd083e1d910160405180910390a15050565b610162546001600160a01b03163314611bb65760405162461bcd60e51b8152600401610a189061348e565b6001600160a01b038116611c1b5760405162461bcd60e51b815260206004820152602660248201527f4f776e61626c653a206e6577206f776e657220697320746865207a65726f206160448201526564647265737360d01b6064820152608401610a18565b610aad81612410565b6001600160a01b038316611c865760405162461bcd60e51b8152602060048201526024808201527f45524332303a20617070726f76652066726f6d20746865207a65726f206164646044820152637265737360e01b6064820152608401610a18565b6001600160a01b038216611ce75760405162461bcd60e51b815260206004820152602260248201527f45524332303a20617070726f766520746f20746865207a65726f206164647265604482015261737360f01b6064820152608401610a18565b6001600160a01b0383811660008181526034602090815260408083209487168084529482529182902085905590518481527f8c5be1e5ebec7d5bd14f71427d1e84f3dd0314c0f7b2291e5b200ac8c7c3b925910160405180910390a3505050565b610f0f82826121c9565b6001600160a01b038316611db65760405162461bcd60e51b815260206004820152602560248201527f45524332303a207472616e736665722066726f6d20746865207a65726f206164604482015264647265737360d81b6064820152608401610a18565b6001600160a01b038216611e185760405162461bcd60e51b815260206004820152602360248201527f45524332303a207472616e7366657220746f20746865207a65726f206164647260448201526265737360e81b6064820152608401610a18565b6001600160a01b03831660009081526033602052604090205481811015611e905760405162461bcd60e51b815260206004820152602660248201527f45524332303a207472616e7366657220616d6f756e7420657863656564732062604482015265616c616e636560d01b6064820152608401610a18565b6001600160a01b03808516600090815260336020526040808220858503905591851681529081208054849290611ec7908490613599565b92505081905550826001600160a01b0316846001600160a01b03167fddf252ad1be2c89b69c2b068fc378daa952ba7f163c4a11628f55a4df523b3ef84604051611f1391815260200190565b60405180910390a36118d1565b6001600160a01b038216611f805760405162461bcd60e51b815260206004820152602160248201527f45524332303a206275726e2066726f6d20746865207a65726f206164647265736044820152607360f81b6064820152608401610a18565b6001600160a01b03821660009081526033602052604090205481811015611ff45760405162461bcd60e51b815260206004820152602260248201527f45524332303a206275726e20616d6f756e7420657863656564732062616c616e604482015261636560f01b6064820152608401610a18565b6001600160a01b0383166000908152603360205260408120838303905560358054849290612023908490613582565b90915550506040518281526000906001600160a01b038516907fddf252ad1be2c89b69c2b068fc378daa952ba7f163c4a11628f55a4df523b3ef9060200160405180910390a3505050565b604080516001600160a01b038481166024830152604480830185905283518084039091018152606490920183526020820180516001600160e01b031663a9059cbb60e01b17905291516000928392908716916120ca9190613626565b6000604051808303816000865af19150503d8060008114612107576040519150601f19603f3d011682016040523d82523d6000602084013e61210c565b606091505b509150915081158061213a575080511580159061213a5750808060200190518101906121389190613642565b155b1561215e5784828260405163e7e40b5b60e01b8152600401610a189392919061365f565b5050505050565b61216f8282611640565b610f0f57612187816001600160a01b0316601461283e565b61219283602061283e565b6040516020016121a3929190613694565b60408051601f198184030181529082905262461bcd60e51b8252610a1891600401612fde565b6121d38282611640565b610f0f57600082815260fe602090815260408083206001600160a01b03851684529091529020805460ff1916600117905561220b3390565b6001600160a01b0316816001600160a01b0316837f2f8788117e7eff1d82e926ec794901d17c78024a50270940304540a733656f0d60405160405180910390a45050565b6000610e907f8b73c3c69bb8fe3d512ecc4cf759cc79239f7b179b0ffacaa9a75d522b39400f61227e60655490565b6066546040805160208101859052908101839052606081018290524660808201523060a082015260009060c0016040516020818303038152906040528051906020012090509392505050565b6122d48282611640565b15610f0f57600082815260fe602090815260408083206001600160a01b0385168085529252808320805460ff1916905551339285917ff6391f5c32d9c69d2a47ea670b442974b53935d1edc7fd64eb21e047a839171b9190a45050565b6001600160a01b0382166123875760405162461bcd60e51b815260206004820152601f60248201527f45524332303a206d696e7420746f20746865207a65726f2061646472657373006044820152606401610a18565b80603560008282546123999190613599565b90915550506001600160a01b038216600090815260336020526040812080548392906123c6908490613599565b90915550506040518181526001600160a01b038316906000907fddf252ad1be2c89b69c2b068fc378daa952ba7f163c4a11628f55a4df523b3ef9060200160405180910390a35050565b61016280546001600160a01b038381166001600160a01b0319831681179093556040519116919082907f8be0079c531659141344cd1fd0a4f28419497f9722a3daafe3b4186f6b6457e090600090a35050565b604080516001600160a01b0385811660248301528481166044830152606480830185905283518084039091018152608490920183526020820180516001600160e01b03166323b872dd60e01b17905291516000928392908816916124c79190613626565b6000604051808303816000865af19150503d8060008114612504576040519150601f19603f3d011682016040523d82523d6000602084013e612509565b606091505b509150915081158061253757508051158015906125375750808060200190518101906125359190613642565b155b1561255b5785828260405163e7e40b5b60e01b8152600401610a189392919061365f565b505050505050565b61256b6129da565b612573612a01565b61259684604051806040016040528060018152602001603160f81b815250612a31565b6125a08484612a72565b6125a984612ac0565b6125b1612b0e565b6125ba82612410565b60005b815181101561215e57600161019760008484815181106125df576125df6134c3565b60200260200101516001600160a01b03166001600160a01b0316815260200190815260200160002060006101000a81548160ff021916908315150217905550610196828281518110612633576126336134c3565b602090810291909101810151825460018101845560009384528284200180546001600160a01b0319166001600160a01b039092169190911790556040805180820190915261019080825291810191909152835190916101949185908590811061269e5761269e6134c3565b60200260200101516001600160a01b03166001600160a01b031681526020019081526020016000209060026126d4929190612e6e565b50600161019960008484815181106126ee576126ee6134c3565b6020908102919091018101516001600160a01b03168252810191909152604001600020805460ff19169115159190911790558061272a816134ef565b9150506125bd565b61274a60008051602061378283398151915233611d48565b6127626000805160206137a283398151915233611d48565b6127886000805160206137a2833981519152600080516020613782833981519152612b3d565b61135760008051602061378283398151915280612b3d565b6001600160a01b03811660009081526099602052604090208054600181018255905b50919050565b60006109556127d561224f565b8360405161190160f01b6020820152602281018390526042810182905260009060620160405160208183030381529060405280519060200120905092915050565b600080600061282787878787612b88565b9150915061283481612c75565b5095945050505050565b6060600061284d836002613541565b612858906002613599565b67ffffffffffffffff811115612870576128706131b7565b6040519080825280601f01601f19166020018201604052801561289a576020820181803683370190505b509050600360fc1b816000815181106128b5576128b56134c3565b60200101906001600160f81b031916908160001a905350600f60fb1b816001815181106128e4576128e46134c3565b60200101906001600160f81b031916908160001a9053506000612908846002613541565b612913906001613599565b90505b600181111561298b576f181899199a1a9b1b9c1cb0b131b232b360811b85600f1660108110612947576129476134c3565b1a60f81b82828151811061295d5761295d6134c3565b60200101906001600160f81b031916908160001a90535060049490941c9361298481613709565b9050612916565b508315611aec5760405162461bcd60e51b815260206004820181905260248201527f537472696e67733a20686578206c656e67746820696e73756666696369656e746044820152606401610a18565b600054610100900460ff166113575760405162461bcd60e51b8152600401610a1890613720565b600054610100900460ff16612a285760405162461bcd60e51b8152600401610a1890613720565b61135733612410565b600054610100900460ff16612a585760405162461bcd60e51b8152600401610a1890613720565b815160209283012081519190920120606591909155606655565b600054610100900460ff16612a995760405162461bcd60e51b8152600401610a1890613720565b8151612aac906036906020850190612ea2565b508051610e81906037906020840190612ea2565b600054610100900460ff16612ae75760405162461bcd60e51b8152600401610a1890613720565b507f6e71edae12b1b97f4d1f60370fef10105fa2faae0126114a169c64845d6126c9609a55565b600054610100900460ff16612b355760405162461bcd60e51b8152600401610a1890613720565b600161013055565b600082815260fe6020526040808220600101805490849055905190918391839186917fbd79b86ffe0ab8e8776151514217cd7cacd52c909f66475c3af44e129f0b00ff9190a4505050565b6000807f7fffffffffffffffffffffffffffffff5d576e7357a4501ddfe92f46681b20a0831115612bbf5750600090506003612c6c565b8460ff16601b14158015612bd757508460ff16601c14155b15612be85750600090506004612c6c565b6040805160008082526020820180845289905260ff881692820192909252606081018690526080810185905260019060a0016020604051602081039080840390855afa158015612c3c573d6000803e3d6000fd5b5050604051601f1901519150506001600160a01b038116612c6557600060019250925050612c6c565b9150600090505b94509492505050565b6000816004811115612c8957612c8961376b565b1415612c925750565b6001816004811115612ca657612ca661376b565b1415612cf45760405162461bcd60e51b815260206004820152601860248201527f45434453413a20696e76616c6964207369676e617475726500000000000000006044820152606401610a18565b6002816004811115612d0857612d0861376b565b1415612d565760405162461bcd60e51b815260206004820152601f60248201527f45434453413a20696e76616c6964207369676e6174757265206c656e677468006044820152606401610a18565b6003816004811115612d6a57612d6a61376b565b1415612dc35760405162461bcd60e51b815260206004820152602260248201527f45434453413a20696e76616c6964207369676e6174757265202773272076616c604482015261756560f01b6064820152608401610a18565b6004816004811115612dd757612dd761376b565b1415610aad5760405162461bcd60e51b815260206004820152602260248201527f45434453413a20696e76616c6964207369676e6174757265202776272076616c604482015261756560f01b6064820152608401610a18565b8260028101928215612e5e579160200282015b82811115612e5e578251825591602001919060010190612e43565b50612e6a929150612f15565b5090565b8260028101928215612e5e579160200282015b82811115612e5e578251829061ffff16905591602001919060010190612e81565b828054612eae90613459565b90600052602060002090601f016020900481019282612ed05760008555612e5e565b82601f10612ee957805160ff1916838001178555612e5e565b82800160010185558215612e5e5791820182811115612e5e578251825591602001919060010190612e43565b5b80821115612e6a5760008155600101612f16565b6001600160a01b0381168114610aad57600080fd5b600060208284031215612f5157600080fd5b8135611aec81612f2a565b600060208284031215612f6e57600080fd5b81356001600160e01b031981168114611aec57600080fd5b60005b83811015612fa1578181015183820152602001612f89565b838111156118d15750506000910152565b60008151808452612fca816020860160208601612f86565b601f01601f19169290920160200192915050565b602081526000611aec6020830184612fb2565b6000806040838503121561300457600080fd5b823561300f81612f2a565b946020939093013593505050565b60008060006060848603121561303257600080fd5b833561303d81612f2a565b9250602084013561304d81612f2a565b929592945050506040919091013590565b60006020828403121561307057600080fd5b5035919050565b6000806040838503121561308a57600080fd5b82359150602083013561309c81612f2a565b809150509250929050565b8015158114610aad57600080fd5b600080604083850312156130c857600080fd5b82356130d381612f2a565b9150602083013561309c816130a7565b6000806000806000608086880312156130fb57600080fd5b853561310681612f2a565b9450602086013561311681612f2a565b935060408601359250606086013567ffffffffffffffff8082111561313a57600080fd5b818801915088601f83011261314e57600080fd5b81358181111561315d57600080fd5b89602082850101111561316f57600080fd5b9699959850939650602001949392505050565b60008060006060848603121561319757600080fd5b83356131a281612f2a565b95602085013595506040909401359392505050565b634e487b7160e01b600052604160045260246000fd5b604051601f8201601f1916810167ffffffffffffffff811182821017156131f6576131f66131b7565b604052919050565b600082601f83011261320f57600080fd5b813567ffffffffffffffff811115613229576132296131b7565b61323c601f8201601f19166020016131cd565b81815284602083860101111561325157600080fd5b816020850160208301376000918101602001919091529392505050565b60008060006060848603121561328357600080fd5b833567ffffffffffffffff8082111561329b57600080fd5b6132a7878388016131fe565b94506020915081860135818111156132be57600080fd5b6132ca888289016131fe565b9450506040860135818111156132df57600080fd5b8601601f810188136132f057600080fd5b803582811115613302576133026131b7565b8060051b92506133138484016131cd565b818152928201840192848101908a85111561332d57600080fd5b928501925b84841015613357578335925061334783612f2a565b8282529285019290850190613332565b8096505050505050509250925092565b6020808252825182820181905260009190848201906040850190845b818110156133a85783516001600160a01b031683529284019291840191600101613383565b50909695505050505050565b600080600080600080600060e0888a0312156133cf57600080fd5b87356133da81612f2a565b965060208801356133ea81612f2a565b95506040880135945060608801359350608088013560ff8116811461340e57600080fd5b9699959850939692959460a0840135945060c09093013592915050565b6000806040838503121561343e57600080fd5b823561344981612f2a565b9150602083013561309c81612f2a565b600181811c9082168061346d57607f821691505b602082108114156127c257634e487b7160e01b600052602260045260246000fd5b6020808252818101527f4f776e61626c653a2063616c6c6572206973206e6f7420746865206f776e6572604082015260600190565b634e487b7160e01b600052603260045260246000fd5b634e487b7160e01b600052601160045260246000fd5b6000600019821415613503576135036134d9565b5060010190565b6020808252601f908201527f5265656e7472616e637947756172643a207265656e7472616e742063616c6c00604082015260600190565b600081600019048311821515161561355b5761355b6134d9565b500290565b60008261357d57634e487b7160e01b600052601260045260246000fd5b500490565b600082821015613594576135946134d9565b500390565b600082198211156135ac576135ac6134d9565b500190565b6001600160a01b03878116825286166020820152604081018590526060810184905260a06080820181905281018290526000828460c0840137600060c0848401015260c0601f19601f8501168301019050979650505050505050565b60006020828403121561361f57600080fd5b5051919050565b60008251613638818460208701612f86565b9190910192915050565b60006020828403121561365457600080fd5b8151611aec816130a7565b6001600160a01b0384168152821515602082015260606040820181905260009061368b90830184612fb2565b95945050505050565b7f416363657373436f6e74726f6c3a206163636f756e74200000000000000000008152600083516136cc816017850160208801612f86565b7001034b99036b4b9b9b4b733903937b6329607d1b60179184019182015283516136fd816028840160208801612f86565b01602801949350505050565b600081613718576137186134d9565b506000190190565b6020808252602b908201527f496e697469616c697a61626c653a20636f6e7472616374206973206e6f74206960408201526a6e697469616c697a696e6760a81b606082015260800190565b634e487b7160e01b600052602160045260246000fdfedf8b4c520ffe197c5343c6f5aec59570151ef9a492f2c624fd45ddde6135ec42d3eedd6d69d410e954f4c622838ecc3acae9fdcd83cad412075c85b092770656a2646970667358221220c9c68aab08821baca95b3e635439da8befb81b553b7969bb3f98dd1e5b1a8f1164736f6c634300080b0033",
  "devdoc": {
    "errors": {
      "ERC20CallFailed(address,bool,bytes)": [
        {
          "params": {
            "data": "The resulting data from the call. This is error data when the call was not a success. Otherwise,                this is malformed data when the call was a success.",
            "success": "If the call to the token was a success.",
            "target": "The target address."
          }
        }
      ]
    },
    "kind": "dev",
    "methods": {
      "DOMAIN_SEPARATOR()": {
        "details": "See {IERC20Permit-DOMAIN_SEPARATOR}."
      },
      "allowance(address,address)": {
        "details": "See {IERC20-allowance}."
      },
      "approve(address,uint256)": {
        "details": "See {IERC20-approve}. Requirements: - `spender` cannot be the zero address."
      },
      "balanceOf(address)": {
        "details": "See {IERC20-balanceOf}."
      },
      "burn(uint256)": {
        "params": {
          "amount": "The amount of tokens to be burned."
        }
      },
      "burnFrom(address,uint256)": {
        "details": "Destroys `amount` tokens from `account`, deducting from the caller's allowance.",
        "params": {
          "account": "The address the burn tokens from.",
          "amount": "The amount of tokens to burn."
        }
      },
      "decimals()": {
        "details": "Returns the number of decimals used to get its user representation. For example, if `decimals` equals `2`, a balance of `505` tokens should be displayed to a user as `5.05` (`505 / 10 ** 2`). Tokens usually opt for a value of 18, imitating the relationship between Ether and Wei. This is the value {ERC20} uses, unless this function is overridden; NOTE: This information is only used for _display_ purposes: it in no way affects any of the arithmetic of the contract, including {IERC20-balanceOf} and {IERC20-transfer}."
      },
      "decreaseAllowance(address,uint256)": {
        "details": "Atomically decreases the allowance granted to `spender` by the caller. This is an alternative to {approve} that can be used as a mitigation for problems described in {IERC20-approve}. Emits an {Approval} event indicating the updated allowance. Requirements: - `spender` cannot be the zero address. - `spender` must have allowance for the caller of at least `subtractedValue`."
      },
      "flashFee(address,uint256)": {
        "params": {
          "amount": "The amount of `token` to flash mint.",
          "token": "The address of the token.`"
        },
        "returns": {
          "_0": "The flash loan fee."
        }
      },
      "flashLoan(address,address,uint256,bytes)": {
        "params": {
          "amount": "How much to flash mint.",
          "data": "ABI encoded data to pass to the receiver.",
          "receiver": "The address which will receive the flash minted tokens.",
          "token": "The address of the token to flash mint."
        },
        "returns": {
          "_0": "If the flash loan was successful."
        }
      },
      "getRoleAdmin(bytes32)": {
        "details": "Returns the admin role that controls `role`. See {grantRole} and {revokeRole}. To change a role's admin, use {_setRoleAdmin}."
      },
      "grantRole(bytes32,address)": {
        "details": "Grants `role` to `account`. If `account` had not been already granted `role`, emits a {RoleGranted} event. Requirements: - the caller must have ``role``'s admin role."
      },
      "hasRole(bytes32,address)": {
        "details": "Returns `true` if `account` has been granted `role`."
      },
      "increaseAllowance(address,uint256)": {
        "details": "Atomically increases the allowance granted to `spender` by the caller. This is an alternative to {approve} that can be used as a mitigation for problems described in {IERC20-approve}. Emits an {Approval} event indicating the updated allowance. Requirements: - `spender` cannot be the zero address."
      },
      "lowerHasMinted(uint256)": {
        "params": {
          "amount": "The amount to lower the minted amount by."
        }
      },
      "maxFlashLoan(address)": {
        "params": {
          "token": "The address of the token."
        },
        "returns": {
          "_0": "The maximum amount of `token` that can be flashed loaned."
        }
      },
      "mint(address,uint256)": {
        "params": {
          "amount": "The amount of tokens to mint.",
          "recipient": "The address to mint the tokens to."
        }
      },
      "name()": {
        "details": "Returns the name of the token."
      },
      "nonces(address)": {
        "details": "See {IERC20Permit-nonces}."
      },
      "owner()": {
        "details": "Returns the address of the current owner."
      },
      "pauseMinter(address,bool)": {
        "params": {
          "minter": "The address to set as paused or unpaused.",
          "state": "A flag indicating if the minter should be paused or unpaused."
        }
      },
      "permit(address,address,uint256,uint256,uint8,bytes32,bytes32)": {
        "details": "See {IERC20Permit-permit}."
      },
      "renounceOwnership()": {
        "details": "Leaves the contract without owner. It will not be possible to call `onlyOwner` functions anymore. Can only be called by the current owner. NOTE: Renouncing ownership will leave the contract without an owner, thereby removing any functionality that is only available to the owner."
      },
      "renounceRole(bytes32,address)": {
        "details": "Revokes `role` from the calling account. Roles are often managed via {grantRole} and {revokeRole}: this function's purpose is to provide a mechanism for accounts to lose their privileges if they are compromised (such as when a trusted device is misplaced). If the calling account had been revoked `role`, emits a {RoleRevoked} event. Requirements: - the caller must be `account`."
      },
      "revokeRole(bytes32,address)": {
        "details": "Revokes `role` from `account`. If `account` had been granted `role`, emits a {RoleRevoked} event. Requirements: - the caller must have ``role``'s admin role."
      },
      "setCeiling(address,uint256)": {
        "params": {
          "maximum": "The maximum amount of tokens that the minter is allowed to mint.",
          "minter": "The address of the minter."
        }
      },
      "setFlashFee(uint256)": {
        "params": {
          "newFee": "The new flash mint fee."
        }
      },
      "setMaxFlashLoan(uint256)": {
        "params": {
          "_maxFlashLoanAmount": "The maximum flashloan amount."
        }
      },
      "setSentinel(address)": {
        "params": {
          "sentinel": "The address to set as a sentinel."
        }
      },
      "setWhitelist(address,bool)": {
        "params": {
          "minter": "The account to permit to mint.",
          "state": "A flag indicating if the minter should be able to mint."
        }
      },
      "supportsInterface(bytes4)": {
        "details": "See {IERC165-supportsInterface}."
      },
      "symbol()": {
        "details": "Returns the symbol of the token, usually a shorter version of the name."
      },
      "totalSupply()": {
        "details": "See {IERC20-totalSupply}."
      },
      "transfer(address,uint256)": {
        "details": "See {IERC20-transfer}. Requirements: - `recipient` cannot be the zero address. - the caller must have a balance of at least `amount`."
      },
      "transferFrom(address,address,uint256)": {
        "details": "See {IERC20-transferFrom}. Emits an {Approval} event indicating the updated allowance. This is not required by the EIP. See the note at the beginning of {ERC20}. Requirements: - `sender` and `recipient` cannot be the zero address. - `sender` must have a balance of at least `amount`. - the caller must have allowance for ``sender``'s tokens of at least `amount`."
      },
      "transferOwnership(address)": {
        "details": "Transfers ownership of the contract to a new account (`newOwner`). Can only be called by the current owner."
      }
    },
    "version": 1
  },
  "userdoc": {
    "errors": {
      "ERC20CallFailed(address,bool,bytes)": [
        {
          "notice": "An error used to indicate that a call to an ERC20 contract failed."
        }
      ],
      "IllegalArgument()": [
        {
          "notice": "An error used to indicate that an action could not be completed because of an illegal argument was passed         to the function."
        }
      ],
      "IllegalState()": [
        {
          "notice": "An error used to indicate that an action could not be completed because the contract either already existed         or entered an illegal condition which is not recoverable from."
        }
      ],
      "Unauthorized()": [
        {
          "notice": "An error used to indicate that an action could not be completed because either the `msg.sender` or         `msg.origin` is not authorized."
        }
      ]
    },
    "events": {
      "Paused(address,bool)": {
        "notice": "An event which is emitted when a minter is paused from minting."
      },
      "SetFlashMintFee(uint256)": {
        "notice": "An event which is emitted when the flash mint fee is updated."
      }
    },
    "kind": "user",
    "methods": {
      "ADMIN_ROLE()": {
        "notice": "The identifier of the role which maintains other roles."
      },
      "BPS()": {
        "notice": "The maximum number of basis points needed to represent 100%."
      },
      "CALLBACK_SUCCESS()": {
        "notice": "The expected return value from a flash mint receiver"
      },
      "SENTINEL_ROLE()": {
        "notice": "The identifier of the role which allows accounts to mint tokens."
      },
      "burn(uint256)": {
        "notice": "Burns `amount` tokens from `msg.sender`."
      },
      "flashFee(address,uint256)": {
        "notice": "Gets the flash loan fee of `amount` of `token`."
      },
      "flashLoan(address,address,uint256,bytes)": {
        "notice": "Performs a flash mint (called flash loan to confirm with ERC3156 standard)."
      },
      "flashMintFee()": {
        "notice": "Fee for flash minting"
      },
      "lowerHasMinted(uint256)": {
        "notice": "Lowers the number of tokens which the `msg.sender` has minted.This reverts if the `msg.sender` is not whitelisted."
      },
      "maxFlashLoan(address)": {
        "notice": "Gets the maximum amount to be flash loaned of a token."
      },
      "maxFlashLoanAmount()": {
        "notice": "Max flash mint amount"
      },
      "mint(address,uint256)": {
        "notice": "Mints tokens to `a recipient.`This function reverts if `msg.sender` is not whitelisted.This function reverts if `msg.sender` is paused.This function reverts if `msg.sender` has exceeded their mintable ceiling."
      },
      "mintCeiling(address)": {
        "notice": "The amount that each address is permitted to mint."
      },
      "pauseMinter(address,bool)": {
        "notice": "Pauses `minter` from minting tokens.This function reverts if `msg.sender` is not a sentinel."
      },
      "paused(address)": {
        "notice": "A set of addresses which are paused from minting new tokens."
      },
      "setCeiling(address,uint256)": {
        "notice": "Sets the maximum amount of tokens that `minter` is allowed to mint.This function reverts if `msg.sender` is not an admin."
      },
      "setFlashFee(uint256)": {
        "notice": "Sets the flash minting fee.This function reverts if `msg.sender` is not an admin."
      },
      "setMaxFlashLoan(uint256)": {
        "notice": "Adjusts the maximum flashloan amount."
      },
      "setSentinel(address)": {
        "notice": "Sets `sentinel` as a sentinel.This function reverts if `msg.sender` is not an admin."
      },
      "setWhitelist(address,bool)": {
        "notice": "Sets `minter` as whitelisted to mint.This function reverts if `msg.sender` is not an admin."
      },
      "totalMinted(address)": {
        "notice": "The amount of tokens that each address has already minted."
      },
      "whitelisted(address)": {
        "notice": "A set of addresses which are whitelisted for minting new tokens."
      }
    },
    "version": 1
  },
  "storageLayout": {
    "storage": [
      {
        "astId": 542,
        "contract": "contracts/CrossChainCanonicalAlchemicTokenV2.sol:CrossChainCanonicalAlchemicTokenV2",
        "label": "_initialized",
        "offset": 0,
        "slot": "0",
        "type": "t_bool"
      },
      {
        "astId": 545,
        "contract": "contracts/CrossChainCanonicalAlchemicTokenV2.sol:CrossChainCanonicalAlchemicTokenV2",
        "label": "_initializing",
        "offset": 1,
        "slot": "0",
        "type": "t_bool"
      },
      {
        "astId": 1864,
        "contract": "contracts/CrossChainCanonicalAlchemicTokenV2.sol:CrossChainCanonicalAlchemicTokenV2",
        "label": "__gap",
        "offset": 0,
        "slot": "1",
        "type": "t_array(t_uint256)50_storage"
      },
      {
        "astId": 686,
        "contract": "contracts/CrossChainCanonicalAlchemicTokenV2.sol:CrossChainCanonicalAlchemicTokenV2",
        "label": "_balances",
        "offset": 0,
        "slot": "51",
        "type": "t_mapping(t_address,t_uint256)"
      },
      {
        "astId": 692,
        "contract": "contracts/CrossChainCanonicalAlchemicTokenV2.sol:CrossChainCanonicalAlchemicTokenV2",
        "label": "_allowances",
        "offset": 0,
        "slot": "52",
        "type": "t_mapping(t_address,t_mapping(t_address,t_uint256))"
      },
      {
        "astId": 694,
        "contract": "contracts/CrossChainCanonicalAlchemicTokenV2.sol:CrossChainCanonicalAlchemicTokenV2",
        "label": "_totalSupply",
        "offset": 0,
        "slot": "53",
        "type": "t_uint256"
      },
      {
        "astId": 696,
        "contract": "contracts/CrossChainCanonicalAlchemicTokenV2.sol:CrossChainCanonicalAlchemicTokenV2",
        "label": "_name",
        "offset": 0,
        "slot": "54",
        "type": "t_string_storage"
      },
      {
        "astId": 698,
        "contract": "contracts/CrossChainCanonicalAlchemicTokenV2.sol:CrossChainCanonicalAlchemicTokenV2",
        "label": "_symbol",
        "offset": 0,
        "slot": "55",
        "type": "t_string_storage"
      },
      {
        "astId": 1239,
        "contract": "contracts/CrossChainCanonicalAlchemicTokenV2.sol:CrossChainCanonicalAlchemicTokenV2",
        "label": "__gap",
        "offset": 0,
        "slot": "56",
        "type": "t_array(t_uint256)45_storage"
      },
      {
        "astId": 2541,
        "contract": "contracts/CrossChainCanonicalAlchemicTokenV2.sol:CrossChainCanonicalAlchemicTokenV2",
        "label": "_HASHED_NAME",
        "offset": 0,
        "slot": "101",
        "type": "t_bytes32"
      },
      {
        "astId": 2543,
        "contract": "contracts/CrossChainCanonicalAlchemicTokenV2.sol:CrossChainCanonicalAlchemicTokenV2",
        "label": "_HASHED_VERSION",
        "offset": 0,
        "slot": "102",
        "type": "t_bytes32"
      },
      {
        "astId": 2680,
        "contract": "contracts/CrossChainCanonicalAlchemicTokenV2.sol:CrossChainCanonicalAlchemicTokenV2",
        "label": "__gap",
        "offset": 0,
        "slot": "103",
        "type": "t_array(t_uint256)50_storage"
      },
      {
        "astId": 1369,
        "contract": "contracts/CrossChainCanonicalAlchemicTokenV2.sol:CrossChainCanonicalAlchemicTokenV2",
        "label": "_nonces",
        "offset": 0,
        "slot": "153",
        "type": "t_mapping(t_address,t_struct(Counter)1871_storage)"
      },
      {
        "astId": 1371,
        "contract": "contracts/CrossChainCanonicalAlchemicTokenV2.sol:CrossChainCanonicalAlchemicTokenV2",
        "label": "_PERMIT_TYPEHASH",
        "offset": 0,
        "slot": "154",
        "type": "t_bytes32"
      },
      {
        "astId": 1539,
        "contract": "contracts/CrossChainCanonicalAlchemicTokenV2.sol:CrossChainCanonicalAlchemicTokenV2",
        "label": "__gap",
        "offset": 0,
        "slot": "155",
        "type": "t_array(t_uint256)49_storage"
      },
      {
        "astId": 2726,
        "contract": "contracts/CrossChainCanonicalAlchemicTokenV2.sol:CrossChainCanonicalAlchemicTokenV2",
        "label": "__gap",
        "offset": 0,
        "slot": "204",
        "type": "t_array(t_uint256)50_storage"
      },
      {
        "astId": 48,
        "contract": "contracts/CrossChainCanonicalAlchemicTokenV2.sol:CrossChainCanonicalAlchemicTokenV2",
        "label": "_roles",
        "offset": 0,
        "slot": "254",
        "type": "t_mapping(t_bytes32,t_struct(RoleData)43_storage)"
      },
      {
        "astId": 335,
        "contract": "contracts/CrossChainCanonicalAlchemicTokenV2.sol:CrossChainCanonicalAlchemicTokenV2",
        "label": "__gap",
        "offset": 0,
        "slot": "255",
        "type": "t_array(t_uint256)49_storage"
      },
      {
        "astId": 623,
        "contract": "contracts/CrossChainCanonicalAlchemicTokenV2.sol:CrossChainCanonicalAlchemicTokenV2",
        "label": "_status",
        "offset": 0,
        "slot": "304",
        "type": "t_uint256"
      },
      {
        "astId": 666,
        "contract": "contracts/CrossChainCanonicalAlchemicTokenV2.sol:CrossChainCanonicalAlchemicTokenV2",
        "label": "__gap",
        "offset": 0,
        "slot": "305",
        "type": "t_array(t_uint256)49_storage"
      },
      {
        "astId": 420,
        "contract": "contracts/CrossChainCanonicalAlchemicTokenV2.sol:CrossChainCanonicalAlchemicTokenV2",
        "label": "_owner",
        "offset": 0,
        "slot": "354",
        "type": "t_address"
      },
      {
        "astId": 534,
        "contract": "contracts/CrossChainCanonicalAlchemicTokenV2.sol:CrossChainCanonicalAlchemicTokenV2",
        "label": "__gap",
        "offset": 0,
        "slot": "355",
        "type": "t_array(t_uint256)49_storage"
      },
      {
        "astId": 11390,
        "contract": "contracts/CrossChainCanonicalAlchemicTokenV2.sol:CrossChainCanonicalAlchemicTokenV2",
        "label": "swapFees",
        "offset": 0,
        "slot": "404",
        "type": "t_mapping(t_address,t_array(t_uint256)2_storage)"
      },
      {
        "astId": 11394,
        "contract": "contracts/CrossChainCanonicalAlchemicTokenV2.sol:CrossChainCanonicalAlchemicTokenV2",
        "label": "feeExempt",
        "offset": 0,
        "slot": "405",
        "type": "t_mapping(t_address,t_bool)"
      },
      {
        "astId": 11397,
        "contract": "contracts/CrossChainCanonicalAlchemicTokenV2.sol:CrossChainCanonicalAlchemicTokenV2",
        "label": "bridgeTokensArray",
        "offset": 0,
        "slot": "406",
        "type": "t_array(t_address)dyn_storage"
      },
      {
        "astId": 11401,
        "contract": "contracts/CrossChainCanonicalAlchemicTokenV2.sol:CrossChainCanonicalAlchemicTokenV2",
        "label": "bridgeTokens",
        "offset": 0,
        "slot": "407",
        "type": "t_mapping(t_address,t_bool)"
      },
      {
        "astId": 11403,
        "contract": "contracts/CrossChainCanonicalAlchemicTokenV2.sol:CrossChainCanonicalAlchemicTokenV2",
        "label": "exchangesPaused",
        "offset": 0,
        "slot": "408",
        "type": "t_bool"
      },
      {
        "astId": 11407,
        "contract": "contracts/CrossChainCanonicalAlchemicTokenV2.sol:CrossChainCanonicalAlchemicTokenV2",
        "label": "bridgeTokenEnabled",
        "offset": 0,
        "slot": "409",
        "type": "t_mapping(t_address,t_bool)"
      },
      {
        "astId": 6374,
        "contract": "contracts/CrossChainCanonicalAlchemicTokenV2.sol:CrossChainCanonicalAlchemicTokenV2",
        "label": "whitelisted",
        "offset": 0,
        "slot": "410",
        "type": "t_mapping(t_address,t_bool)"
      },
      {
        "astId": 6379,
        "contract": "contracts/CrossChainCanonicalAlchemicTokenV2.sol:CrossChainCanonicalAlchemicTokenV2",
        "label": "paused",
        "offset": 0,
        "slot": "411",
        "type": "t_mapping(t_address,t_bool)"
      },
      {
        "astId": 6384,
        "contract": "contracts/CrossChainCanonicalAlchemicTokenV2.sol:CrossChainCanonicalAlchemicTokenV2",
        "label": "mintCeiling",
        "offset": 0,
        "slot": "412",
        "type": "t_mapping(t_address,t_uint256)"
      },
      {
        "astId": 6389,
        "contract": "contracts/CrossChainCanonicalAlchemicTokenV2.sol:CrossChainCanonicalAlchemicTokenV2",
        "label": "totalMinted",
        "offset": 0,
        "slot": "413",
        "type": "t_mapping(t_address,t_uint256)"
      },
      {
        "astId": 6392,
        "contract": "contracts/CrossChainCanonicalAlchemicTokenV2.sol:CrossChainCanonicalAlchemicTokenV2",
        "label": "flashMintFee",
        "offset": 0,
        "slot": "414",
        "type": "t_uint256"
      },
      {
        "astId": 6395,
        "contract": "contracts/CrossChainCanonicalAlchemicTokenV2.sol:CrossChainCanonicalAlchemicTokenV2",
        "label": "maxFlashLoanAmount",
        "offset": 0,
        "slot": "415",
        "type": "t_uint256"
      }
    ],
    "types": {
      "t_address": {
        "encoding": "inplace",
        "label": "address",
        "numberOfBytes": "20"
      },
      "t_array(t_address)dyn_storage": {
        "base": "t_address",
        "encoding": "dynamic_array",
        "label": "address[]",
        "numberOfBytes": "32"
      },
      "t_array(t_uint256)2_storage": {
        "base": "t_uint256",
        "encoding": "inplace",
        "label": "uint256[2]",
        "numberOfBytes": "64"
      },
      "t_array(t_uint256)45_storage": {
        "base": "t_uint256",
        "encoding": "inplace",
        "label": "uint256[45]",
        "numberOfBytes": "1440"
      },
      "t_array(t_uint256)49_storage": {
        "base": "t_uint256",
        "encoding": "inplace",
        "label": "uint256[49]",
        "numberOfBytes": "1568"
      },
      "t_array(t_uint256)50_storage": {
        "base": "t_uint256",
        "encoding": "inplace",
        "label": "uint256[50]",
        "numberOfBytes": "1600"
      },
      "t_bool": {
        "encoding": "inplace",
        "label": "bool",
        "numberOfBytes": "1"
      },
      "t_bytes32": {
        "encoding": "inplace",
        "label": "bytes32",
        "numberOfBytes": "32"
      },
      "t_mapping(t_address,t_array(t_uint256)2_storage)": {
        "encoding": "mapping",
        "key": "t_address",
        "label": "mapping(address => uint256[2])",
        "numberOfBytes": "32",
        "value": "t_array(t_uint256)2_storage"
      },
      "t_mapping(t_address,t_bool)": {
        "encoding": "mapping",
        "key": "t_address",
        "label": "mapping(address => bool)",
        "numberOfBytes": "32",
        "value": "t_bool"
      },
      "t_mapping(t_address,t_mapping(t_address,t_uint256))": {
        "encoding": "mapping",
        "key": "t_address",
        "label": "mapping(address => mapping(address => uint256))",
        "numberOfBytes": "32",
        "value": "t_mapping(t_address,t_uint256)"
      },
      "t_mapping(t_address,t_struct(Counter)1871_storage)": {
        "encoding": "mapping",
        "key": "t_address",
        "label": "mapping(address => struct CountersUpgradeable.Counter)",
        "numberOfBytes": "32",
        "value": "t_struct(Counter)1871_storage"
      },
      "t_mapping(t_address,t_uint256)": {
        "encoding": "mapping",
        "key": "t_address",
        "label": "mapping(address => uint256)",
        "numberOfBytes": "32",
        "value": "t_uint256"
      },
      "t_mapping(t_bytes32,t_struct(RoleData)43_storage)": {
        "encoding": "mapping",
        "key": "t_bytes32",
        "label": "mapping(bytes32 => struct AccessControlUpgradeable.RoleData)",
        "numberOfBytes": "32",
        "value": "t_struct(RoleData)43_storage"
      },
      "t_string_storage": {
        "encoding": "bytes",
        "label": "string",
        "numberOfBytes": "32"
      },
      "t_struct(Counter)1871_storage": {
        "encoding": "inplace",
        "label": "struct CountersUpgradeable.Counter",
        "members": [
          {
            "astId": 1870,
            "contract": "contracts/CrossChainCanonicalAlchemicTokenV2.sol:CrossChainCanonicalAlchemicTokenV2",
            "label": "_value",
            "offset": 0,
            "slot": "0",
            "type": "t_uint256"
          }
        ],
        "numberOfBytes": "32"
      },
      "t_struct(RoleData)43_storage": {
        "encoding": "inplace",
        "label": "struct AccessControlUpgradeable.RoleData",
        "members": [
          {
            "astId": 40,
            "contract": "contracts/CrossChainCanonicalAlchemicTokenV2.sol:CrossChainCanonicalAlchemicTokenV2",
            "label": "members",
            "offset": 0,
            "slot": "0",
            "type": "t_mapping(t_address,t_bool)"
          },
          {
            "astId": 42,
            "contract": "contracts/CrossChainCanonicalAlchemicTokenV2.sol:CrossChainCanonicalAlchemicTokenV2",
            "label": "adminRole",
            "offset": 0,
            "slot": "1",
            "type": "t_bytes32"
          }
        ],
        "numberOfBytes": "64"
      },
      "t_uint256": {
        "encoding": "inplace",
        "label": "uint256",
        "numberOfBytes": "32"
      }
    }
  }
}